:020000040000FA
:0610000076EF53F0120030
:061008002EEF08F01200BB
:06101800C0EF20F0120001
:06102A000400DBA700003A
:1010300000050000E9000000CEA70000F30C00004E
:101040000D000000CCA70000FA080000020000001C
:0C1050004EA70000800200007E0000009F
:04105C00E9CFE4FFF5
:10106000EACFE4FFF3CFE4FFF4CFE4FFE652D9CFB9
:10107000E6FFDACFE6FFE1CFD9FFE2CFDAFFE652B3
:101080009EA051EF0CF09E90FE0ECF6E3D0ECE6EE8
:101090000C01FD51EA6AC80FE96E090EEA22EFCF92
:1010A000DBFA0A01DC6B0A01010EDD6F0C01FD5158
:1010B000040DF3CFE9FFF4CFEAFF000EE9260A0E94
:1010C000EA22EECF48F0EECF49F0EECF4AF0EFCF74
:1010D0004BF0485049104A104B1035E00C01FD51BF
:1010E000040DF3CFE9FFF4CFEAFF000EE9260A0E64
:1010F000EA22D880000EEE54000EEE54190EEE5483
:10110000000EEE5410E20C01FD51040DF3CFE9FF87
:10111000F4CFEAFF000EE9260A0EEA22EE6AEE6A32
:10112000EE6AEE6A10D00C01FD51040DF3CFE9FF19
:10113000F4CFEAFF000EE9260A0EEA22EE06000EC0
:10114000EE5AEE5AEE5A0C01FD51040DF3CFE9FFB1
:10115000F4CFEAFF000EE9260A0EEA22EECF48F0AD
:10116000EECF49F0EECF4AF0EFCF4BF048504910A8
:101170004A104B1002E00A01DD6B0C01FD51EA6AD6
:10118000000FE96E0C0EEA22EF0401E0FFD10C0122
:10119000FD51040DF3CFE9FFF4CFEAFF000EE9267D
:1011A000090EEA22EECF48F0EECF49F0EECF4AF03A
:1011B000EFCF4BF0485049104A104B1019E10C0189
:1011C000FD51040DF3CFE9FFF4CFEAFF640EE926E9
:1011D000090EEA22EECF4CF0EECF4DF0EECF4EF0FE
:1011E000EFCF4FF04C504D104E104F1001E1CDD1CC
:1011F0000A01E6511BE10C01FD51EA6AC80FE96ED4
:10120000090EEA22EF50020B02E08C8E01D08C9E78
:101210000C01FD51EA6AC80FE96E090EEA22EF508F
:10122000080B02E08C8A01D08C9A1DD00A01E605D9
:101230001AE10C01FD51EA6AC80FE96E090EEA22B3
:10124000EF50020B02E08B8401D08B940C01FD5116
:10125000EA6AC80FE96E090EEA22EF50080B02E0B5
:10126000898401D089940C01FD51040DF3CFE9FF6D
:10127000F4CFEAFF000EE926090EEA22EECF48F08D
:10128000EECF49F0EECF4AF0EFCF4BF04850491087
:101290004A104B1001E192D00C01FD51040DF3CF27
:1012A000E9FFF4CFEAFF000EE926080EEA220C015E
:1012B000F351EE240C01F36F0C01F451EE200C01FC
:1012C000F46F0C01F551EE200C01F56F0C01F65195
:1012D000EE200C01F66FF3CC48F0F4CC49F0F5CCDD
:1012E0004AF0F6CC4BF0486A496A4A6A800E4B16BF
:1012F000485049104A104B1039E0F3CCF3FCF4CCC1
:10130000F4FCF5CCF5FCF6CCF6FC0C01F69F010ED6
:101310000A01DB110A01DB6F0A01010EDC6F0C010F
:10132000FD51040DF3CFE9FFF4CFEAFF000EE926EB
:10133000090EEA22EE06000EEE5AEE5AEE5A0C01A3
:10134000FD51EA6AC80FE96E090EEA22EF50020B5E
:1013500007E00A01D307000ED45BD55BD65B06D04D
:101360000A01D32B000ED423D523D6230C01FD5123
:10137000040DF3CFE9FFF4CFEAFF320EE9260B0E9E
:10138000EA22EECF48F0EECF49F0EECF4AF0EFCFB1
:101390004BF00C01FD51040DF3CFE9FFF4CFEAFF50
:1013A000000EE926080EEA224850EE264950EE22A9
:1013B0004A50EE224B50EE220A01DD6B0C01FD512A
:1013C000040DF3CFE9FFF4CFEAFF640EE926090E1E
:1013D000EA22EECF48F0EECF49F0EECF4AF0EFCF61
:1013E0004BF0485049104A104B1001E192D00C01CB
:1013F000FD51040DF3CFE9FFF4CFEAFF640EE926B7
:10140000080EEA220C01F751EE240C01F76F0C01D3
:10141000F851EE200C01F86F0C01F951EE200C018F
:10142000F96F0C01FA51EE200C01FA6FF7CC48F07D
:10143000F8CC49F0F9CC4AF0FACC4BF0486A496A4A
:101440004A6A800E4B16485049104A104B1039E03A
:10145000F7CCF7FCF8CCF8FCF9CCF9FCFACCFAFCA8
:101460000C01FA9F040E0A01DB110A01DB6F0A016D
:10147000010EDC6F0C01FD51040DF3CFE9FFF4CF39
:10148000EAFF640EE926090EEA22EE06000EEE5A85
:10149000EE5AEE5A0C01FD51EA6AC80FE96E090EC8
:1014A000EA22EF50080B07E00A01D707000ED85BCD
:1014B000D95BDA5B06D00A01D72B000ED823D923DB
:1014C000DA230C01FD51040DF3CFE9FFF4CFEAFF5D
:1014D000960EE9260B0EEA22EECF48F0EECF49F049
:1014E000EECF4AF0EFCF4BF00C01FD51040DF3CFDE
:1014F000E9FFF4CFEAFF640EE926080EEA2248501D
:10150000EE264950EE224A50EE224B50EE220A01BE
:10151000DD6B0A01DC5139E00A01E65107E10A01FD
:10152000DBB18C8C0A01DBB58C8809D00A01E60599
:1015300006E10A01DBB18B8C0A01DBB5898A000068
:10154000000000000000000000000000000000009B
:10155000000000000000000000000000000000008B
:10156000000000000000000000000000000000007B
:10157000000000000A01E65103E18C9C8C9805D024
:101580000A01E60502E18B9C899A4DD10C01FD51BF
:10159000EA6A000FE96E0C0EEA22EF50030801E040
:1015A000F9D00A01F35101E1C0D00C01FD51EA6A02
:1015B000E10FE96E090EEA22EF04DF6E0C01FD5126
:1015C000E96EEA6AD890E936EA36640EE9260A0E30
:1015D000EA22EE50ED1037E1DF50EA6A310FE96E92
:1015E0000E0EEA22EF500E01EA6AAC25E96EAD510B
:1015F000EA22EF6AEA6ADF34FE0BEA36E96E790E18
:10160000E9260E0EEA22EE6AED6AEA6ADF34FE0B84
:10161000EA36E96E490EE9260E0EEA22EE6AED6A16
:10162000DF50EA6A310FE96E0E0EEA22EF6AEA6ACB
:10163000DF34FE0BEA36E96E010EE9260E0EEA22D1
:10164000EE6AED6A72D00C01FD51E96EEA6AD8903B
:10165000E936EA36000EE9260B0EEA22EECF48F014
:10166000EFCF49F0EA6ADF34FE0BEA36E96E790E15
:10167000E9260E0EEA2248C0EEFF49C0EDFF0C013C
:10168000FD51E96EEA6AD890E936EA36640EE92639
:101690000A0EEA22EECF48F0EFCF49F0EA6ADF34D3
:1016A000FE0BEA36E96E490EE9260E0EEA2248C024
:1016B000EEFF49C0EDFF0C01FD51EA6A190FE96E1A
:1016C0000C0EEA22EF50E66EDF50EA6A310FE96E47
:1016D0000E0EEA22E552E750EF6EEA6ADF34FE0BA7
:1016E000EA36E96E010EE9260E0EEA22EE50ED1002
:1016F0001CE10C01FD51E96EEA6AD890E936EA3640
:10170000640EE9260A0EEA22EECF48F0EFCF49F048
:10171000EA6ADF34FE0BEA36E96E010EE9260E0EA8
:10172000EA2248C0EEFF49C0EDFF0C01FD51EA6A14
:10173000190FE96E0C0EEA22EF500E01B65D29E199
:101740000C01FD51E96EEA6AD890E936EA36640E7A
:10175000E9260A0EEA22EECF48F0EFCF49F00E015B
:10176000B051481802E1B15149180AE10A01010ECD
:10177000E76F0A01E36B0A01F25101E08A9809D090
:101780000A01E76B0A01010EE36F0A01F25101E061
:101790008A8849D00C01FD51EA6A000FE96E0C0EEF
:1017A000EA22EF5004083FE10C01FD51EA6A320FD2
:1017B000E96E0C0EEA22EF502FE00C01FD51E96EAC
:1017C000EA6AD890E936EA36C80EE926080EEA2217
:1017D000EECF48F0EFCF49F0D89049324832D89058
:1017E000493248324850BB6EF0CA4AF0F1CA4BF059
:1017F000040ED8904A364B36E804FBE1300E4A1608
:10180000000E4B16CF0EBA1400014A10486E4BC0A2
:1018100049F04850BA6E04D0BB6ACF0EBA14BA6E03
:101820000A01010EDD6F0A01DD512FE00C01FD51AF
:10183000040DF3CFE9FFF4CFEAFF000EE9260A0E0C
:10184000EA22EECF48F0EECF49F0EECF4AF0EFCFEC
:101850004BF0485049104A104B1017E10C01FD5154
:10186000EA6A000FE96E0C0EEA22EF6A0C01FE51E3
:101870000BE00C01FE070C01FD2B190E0C01FD5DA8
:1018800002E30C01FD6B01D0FFD78050800B06E016
:101890000A01EE5106E08150010B03E10A01010E3D
:1018A000ED6FE552E552E5CFDAFFE7CFD9FFE5521C
:1018B000E5CFF4FFE5CFF3FFE5CFEAFFE5CFE9FFA2
:1018C0001100D9CFE6FFDACFE6FFE1CFD9FFE2CFB3
:1018D000DAFFE652DF6ADFCF00F0190EE76E00187C
:1018E000E8AE02D0E73402D0E750005C01E3E5D077
:1018F000DFCFE9FFEA6AE9BEEA68000EE9260C0ECE
:10190000EA22EF6ADFCFE9FFEA6AE9BEEA68D89027
:10191000E936EA36D890E936EA36000EE926080EAE
:10192000EA22010EEE6EEE6AEE6AEE6ADFCFE9FFA2
:10193000EA6AE9BEEA68D890E936EA36D890E9362C
:10194000EA36640EE926080EEA22010EEE6EEE6A11
:10195000EE6AEE6ADFCFE9FFEA6AE9BEEA68D8908C
:10196000E936EA36D890E936EA36320EE9260B0E29
:10197000EA22EE6AEE6AEE6AEE6ADFCFE9FFEA6A11
:10198000E9BEEA68D890E936EA36D890E936EA3610
:10199000960EE9260B0EEA22EE6AEE6AEE6AEE6A0F
:1019A000DFCFE9FFEA6AE9BEEA68D890E936EA36AD
:1019B000D890E936EA36000EE926090EEA22EE6AE8
:1019C000EE6AEE6AEE6ADFCFE9FFEA6AE9BEEA682C
:1019D000D890E936EA36D890E936EA36640EE92638
:1019E000090EEA22EE6AEE6AEE6AEE6ADFCFE9FFDE
:1019F000EA6AE9BEEA68C80EE926090EEA22EF6A39
:101A0000DFCFE9FFEA6AE9BEEA68D890E936EA364C
:101A1000D890E936EA36000EE9260A0EEA22EE6A86
:101A2000EE6AEE6AEE6ADFCFE9FFEA6AE9BEEA68CB
:101A3000D890E936EA36640EE9260A0EEA22EE6A02
:101A4000ED6ADFCFE9FFEA6AE9BEEA68190EE92626
:101A50000C0EEA22EF6ADFCFE9FFEA6AE9BEEA6824
:101A6000E10EE926090EEA22EF6ADFCFE9FFEA6A12
:101A7000E9BEEA68D890E936EA36000EE9260B0E90
:101A8000EA22EE6AED6ADFCFE9FFEA6AE9BEEA68B8
:101A9000320EE9260C0EEA22EF6ADFCFE9FFEA6A8E
:101AA000E9BEEA68D890E936EA36C80EE926080E9B
:101AB000EA22EE6AED6ADF2A0ED70C01010EFB6FF7
:101AC0000C01FC6B0C01FD6B0C01FE6BCD82CD9EFD
:101AD000CD9CCD9ACD98CD96CD94FE0ECF6E3D0E79
:101AE000CE6ECD809F809E909D8092809F9C010EA7
:101AF000E66EE66A3FEC29F0E552E552010EE66E2D
:101B00000B0EE66E3FEC29F0E552E5528D8496947B
:101B10008D829692898C929C8D8096908B829492E5
:101B20008C9C959C8C9E959E8C9895988C9A959A59
:101B3000949E828E00000000000000000000000063
:101B40000000000000000000000000000000000095
:101B500000000000000000000000948E829E0A0138
:101B6000010EF26F0A01010EF36F8A98939889961D
:101B700092960A01010EE36F0A01E66B0A01010E5B
:101B8000E76F0A01EC6B0A01E86BE96BEA6BEB6B40
:101B90000A01ED6B9380F19E0A01010EEE6F9396A0
:101BA0008196A4EC1AF0E552E552E5CFDAFFE7CFD3
:101BB000D9FF12000C01FB51FE5DFCE212000C018A
:101BC000FE51FDE112000C01FC2B190EFC5D01E33E
:101BD000FC6BFE2B1200D9EC1AF030EC1CF039EC47
:101BE0001CF0B9EC20F0E66AD95086EC20F00A012E
:101BF000A25101E0B3D0DF0424E106EC1DF00CE1BA
:101C00000A01010EF26FF36BDCEC1CF002E2E16AF8
:101C1000E552E16E00500DD00CEC1EF006E1ED50E7
:101C200004E10A01F26B010E03D00A01010EF26F0A
:101C3000F36F000EE66EE66AE7CAE6FF30EC1EF0D0
:101C40008BD0020EDF5C2EE106EC1DF009E10A01EB
:101C5000E66B96909492959C959E9598959A1BD03C
:101C60000CEC1EF00DE1ED500BE10A01010E42EC0F
:101C70001EF094949294949C929A959292926CD025
:101C80005BEC20F0020EEE1867E1ED5065E10A0111
:101C9000020E42EC1EF094849284948C928A958277
:101CA00092825AD0040EDF5C07E1010EDBCFB0FE5A
:101CB000020EDBCFB1FE50D0050EDF5C07E1010E56
:101CC000DBCFAEFE020EDBCFAFFE46D0080EDF5CF0
:101CD0000FE15BEC20F0180ED880EE54000EED54AE
:101CE00003E2180E4EEC1EF0010EDBCFAAFE34D03C
:101CF000090EDF5C0FE15BEC20F0060ED880EE549D
:101D0000000EED5403E2060E4EEC1EF0010EDBCF8A
:101D1000ABFE22D00A0EDF5C03E155EC1EF009D0C9
:101D20000B0EDF5C03E155EC1EF016D00C0EDF5CF1
:101D300007E1010EDBCFB4FE020EDBCFB5FE0CD007
:101D40000D0EDF5C09E106EC1DF004E00A01010E56
:101D5000EE6F02D00A01EE6B72EC28F07EEC20F000
:101D600023EF1BF0D9EC1AF0200EE12402E3E16826
:101D7000E652C6EC1AF0BEEC1FF0E66AD950040F2A
:101D8000AAEC20F0060FAAEC20F0080F5FEC20F080
:101D90000C0FA8EC1EF0D950040FD6EC1DF004E295
:101DA000990E006E860E4AD2D950060FD6EC1DF061
:101DB00004E26B0E006E860E41D2CFEC1DF0040ED5
:101DC000005C000E015804E2410E006E860E36D211
:101DD000060EDBCF00F0070EDBCF01F0040E005C37
:101DE000000E015804E2190E006E860E27D20A0179
:101DF000A25101E02AD2080EDBCF10F0090EDBCF92
:101E000011F00A0EDBCF12F00B0EDBCF13F010C077
:101E100038F011C039F012C03AF013C03BF0080E90
:101E2000DBCF3DF0090EDBCF3EF00A0EDBCF3FF0FB
:101E30000B0EDBCF40F087EC52F034C00CF035C015
:101E40000DF036C00EF037C00FF00C0EDBCF14F0E3
:101E50000D0EDBCF15F00E0EDBCF16F00F0EDBCF25
:101E600017F014C038F015C039F016C03AF017C09A
:101E70003BF00C0EDBCF3DF00D0EDBCF3EF00E0E37
:101E8000DBCF3FF00F0EDBCF40F087EC52F00C5071
:101E90003424086E0D503520096E0E5036200A6E1F
:101EA0000F5037200B6E02EC20F03B6E79EC44F0C3
:101EB000CFEC1EF039C0E6FF3AC0E6FF3BC0E6FFBC
:101EC0003CC0E6FF57EC47F07EEC20F0E552C2EC58
:101ED0001EF038C039F009EC20F0E9EC45F038ECA0
:101EE0001FF0DEEC1EF02EEC20F05DEC1FF002E6A1
:101EF00004EC1BF008E294EC1BF0020EEF6E82EC97
:101F00001EF0BDEC1BF0D9500C0F13EC1BF002E6D9
:101F100004EC1BF010E261EC1FF00C0EDBCF38F08C
:101F20000D0EDBCF39F00E0EDBCF3AF00F0E19ECB1
:101F30001BF0CAEC1BF007EC1BF002E63EEC1BF0BA
:101F400004E2EB0E006E850E79D17FEC1BF002E609
:101F50003EEC1BF004E2BD0E006E850E6FD10AEC64
:101F60001DF0CFEC1EF0AC0E3E6EC50E3F6EA70E00
:101F7000406E470E416EE5EC44F0DDEC1DF0DBCF2A
:101F80000CF0150EDBCF0DF0160EDBCF0EF0170E9A
:101F90009BEC1CF077EC44F032EC20F0BEEC1DF032
:101FA000180E39C0DBFF190E3AC0DBFF1A0E3BC01A
:101FB000DBFF1B0E3CC0DBFF70EC1DF06FEC1FF075
:101FC00052EC20F0DDEC1FF04BEC1CF0F1EC1AF0C1
:101FD000000EE926090E35EC1DF010EC1EF07CEC2D
:101FE0001CF010EC1EF039C00CF03AC00DF03BC0F4
:101FF0000EF03CC00FF073EC1BF008C039F009C0C4
:102000003AF00AC03BF00BC03CF0E5EC44F0CFECFA
:102010001EF00AEC1DF039C014F03AC015F03BC0B8
:1020200016F03CC017F00AEC1DF039C018F03AC0A9
:1020300019F03BC01AF03CC01BF073EC1BF014C04D
:1020400039F015C03AF016C03BF017C03CF0E5EC93
:1020500044F039C010F03AC011F03BC012F03CC05F
:1020600013F073EC1BF012EC1DF052EC45F0DDECBC
:102070001DF0DBCF28F0150EDBCF29F0160EDBCFDD
:102080002AF0170EDBCF2BF028C038F029C039F02A
:102090002AC03AF02BC03BF077EC44F039C024F072
:1020A0003AC025F03BC026F03CC027F0140EDBCF31
:1020B00030F0150EDBCF31F0160EDBCF32F0170EFD
:1020C000DBCF33F030C038F031C039F032C03AF0F5
:1020D00033C03BF077EC44F039C02CF03AC02DF01F
:1020E0003BC02EF03CC02FF073EC1BF024C039F045
:1020F00025C03AF026C03BF027C03CF0E5EC44F0A8
:1021000039C020F03AC021F03BC022F03CC023F09F
:102110003E6A3F6A406A400E416EE5EC44F039C0C9
:102120001CF03AC01DF03BC01EF03CC01FF073EC29
:102130001BF0BEEC1DF01C0E39C0DBFF1D0E3AC0BB
:10214000DBFF1E0E3BC0DBFF1F0E3CC0DBFF080E9B
:10215000DBCF08F0090EDBCF09F00A0EDBCF0AF067
:102160000B0E48EC1BF0C2EC1EF00C0172EC20F0E0
:102170004BEC1CF070EC1DF00C0EDBCF0CF00D0ED8
:10218000DBCF0DF00E0EDBCF0EF00F0E52EC20F079
:10219000F1EC1AF0640EE926080E4BEC1CF0F1ECA1
:1021A0001AF0640EE926090E43EC1DF00C0EDBCF8D
:1021B00008F00D0EDBCF09F00E0EDBCF0AF00F0E8C
:1021C00048EC1BF08CEC20F00C0178EC20F04BEC90
:1021D0001CF0CFEC1DF0060EDB50001803E1070EDB
:1021E000DB50011811E072EC20F051EC1DF00CE115
:1021F000F1EC1AF0000EE926090EC3EC1DF004E222
:10220000920E006E850E1AD0CFEC1DF0060EDB503C
:10221000001803E1070EDB50011813E078EC20F002
:1022200051EC1DF00EE1F1EC1AF0640EE926090EF6
:10223000C3EC1DF006E2670E006E850E67EC1FF022
:1022400004D010EC20F072EC28F0200EE15C02E2E9
:10225000E16AE552E16E23EF1BF0D9EC1AF0180E9B
:10226000E12402E3E168E652E16EC6EC1EF0140ED2
:10227000DB6A8AEC1FF0AEEC20F0100F5FEC20F070
:10228000040F5FEC20F0080FAAEC20F0140F5FECB5
:1022900020F00C0FA8EC1EF00A01A25101E0BBD007
:1022A000A3EC1FF005E17AEC1FF09BEC1BF011E0B2
:1022B000100EDBCF08F0110EDBCF09F0120EDBCFD2
:1022C0000AF0130EDBCF0BF0085009100A100B10A8
:1022D0002CE16FEC1FF0DBCF0FF00C500D100E1047
:1022E0000F1012E10C0EDBCF10F00D0EDBCF11F052
:1022F0000E0EDBCF12F00F0EDBCF13F010501110CB
:102300001210131001E187D0140EDBCF14F0150E5C
:10231000DBCF15F0160EDBCF16F0170EDBCF17F064
:10232000145015101610171076E02EEC20F0DEEC8D
:102330001EF0D950100F13EC1BF002E604EC1BF05A
:1023400014E294EC1BF0EF50020993EC20F0100E15
:10235000DBCF38F0110EDBCF39F0120EDBCF3AF0C5
:10236000130E19EC1BF07DEC1DF0D950140F13EC7B
:102370001BF002E604EC1BF010E261EC1FF0140EFF
:10238000DBCF38F0150EDBCF39F0160EDBCF3AF08D
:10239000170E19EC1BF055EC1CF00C01DDEC1FF0D6
:1023A000EA22DFCFEEFF010EDBCFEEFF020EDBCF26
:1023B000EEFF030E1AEC1FF039EC20F0100EDBCF0D
:1023C000EEFFE7EC1DF072EC20F0EA22040EDBCF0A
:1023D000EEFF050EDBCFEEFF060EDBCFEEFF070EA6
:1023E0001AEC1FF0640EE926080E35EC1DF0F1EC36
:1023F0001AF03EEC20F0140EDBCFEEFFF1EC1DF0F6
:1024000078EC20F043EC1DF010EC20F00A01D151E3
:1024100002E072EC28F0180EE15C02E2E16AE5529B
:10242000E16E23EF1BF0D9EC1AF0100EE12402E369
:10243000E168E652C6EC1AF0AEEC20F0040FA8EC0E
:102440001EF04AEC1EF0080FA8EC1EF00C01FF5124
:102450006DE0A3EC1FF002E10A01A28D0A01A25176
:1024600071E15FEC1DF004E2340E006E850E5BD06E
:1024700029EC1BF002E61DEC1BF005E2D950040F1D
:10248000E4EC1BF004D093EC1EF0CAEC1BF07FECE4
:102490001BF002E63EEC1BF004E2EB0E006E850E34
:1024A00042D0A7EC1BF0FDEC1AF004E2040E006E23
:1024B000850E39D0EDEC1AF0E3EC1FF007E3B2EC37
:1024C00020F004E0DE0E006E840E2DD007EC1BF031
:1024D00002E61DEC1BF005E2D950080FE4EC1BF0FE
:1024E00004D082EC1EF0CAEC1BF07FEC1BF002E67D
:1024F0003EEC1BF004E2BD0E006E850E14D0A7EC7E
:102500001BF0FDEC1AF004E2AE0E006E840E0BD050
:10251000EDEC1AF0E3EC1FF009E3B2EC20F006E07A
:10252000880E006E840E67EC1FF00CD09AEC20F041
:1025300002E2E16AE552E16E00500A01D15102E087
:1025400072EC28F0100EE15C02E2E16AE552E16E05
:1025500023EF1BF0D9EC1AF01D0EE12402E3E16831
:10256000E652C6EC1AF0A6EC1CF0010EF36E180E43
:10257000F3CFDBFF18EC1EF039EC1CF0070EBFECBC
:102580001AF0DFEC0DF0F29ED3CA38F0D4CA39F05D
:10259000D5CA3AF0D6CA3BF091EC1FF08AEC1DF098
:1025A000D7CA38F0D8CA39F0D9CA3AF0DACA3BF0FB
:1025B00091EC1FF0BDEC1BF0F28EA7EC1FF002E6D1
:1025C00004EC1BF005E293EC1EF0CAEC1BF004D007
:1025D000D950040FE4EC1BF05DEC1FF002E604ECB4
:1025E0001BF005E282EC1EF07DEC1DF009D0D95005
:1025F000080F8EEC1EF0100EEECFDBFFFBEC1DF093
:102600007FEC1BF002E63EEC1BF013E3100EDBCF79
:1026100039F0110EDBCF3AF0120EDBCF3BF0130E88
:10262000DBCF3CF03C34000E3C1802E63EEC1BF0E5
:1026300004E2580E006E840E9FD0B2EC1BF021EC29
:102640001EF0030EEBCFF3FF0350F318E8AE02D0F9
:10265000F33408D0EE50005CEE500158EE500258B2
:10266000EE50035801E37ED0A7EC1BF0A7EC1AF064
:1026700007EC1CF004E2250E006E840E7DD0B7EC52
:102680001EF0DBCF03F0CDEC1AF0100F34EC1BF092
:1026900001E2E0D0100EDBCF04F0110EDBCF05F02D
:1026A000120EDBCF06F0130E9BEC1BF001E1D2D033
:1026B000B2EC1BF0A7EC1AF029EC1BF002E61DECC3
:1026C0001BF006E207EC1BF002E61DEC1BF029E311
:1026D000A7EC1FF002E604EC1BF006E207EC1BF08F
:1026E00002E61DEC1BF00CE329EC1BF002E61DECEE
:1026F0001BF00BE25DEC1FF002E604EC1BF005E2C0
:1027000082EC1EF097EC1DF010D0A7EC1FF002E653
:1027100004EC1BF00AE25DEC1FF002E604EC1BF097
:1027200004E2D950080FABEC1CF0D950080F82EC32
:1027300020F0190FBCEC1AF097EC1FF002E2E16AEE
:10274000E552E16E00507AEC1FF0DBCF07F0D95074
:10275000190FF2EC1BF0A4EC1DF0F9EC1EF0A7EC45
:102760001BF076D0B2EC1BF0A7EC1AF007EC1CF0D3
:1027700006E2F20E006E830E67EC1FF088D0B7EC15
:102780001EF0DBCF03F0E3EC1FF064E3B2EC20F0CB
:1027900061E0A7EC1BF0A7EC1AF007EC1BF002E6D7
:1027A0001DEC1BF006E229EC1BF002E61DEC1BF011
:1027B00029E35DEC1FF002E604EC1BF006E229ECD5
:1027C0001BF002E61DEC1BF00CE307EC1BF002E62D
:1027D0001DEC1BF00BE2A7EC1FF002E604EC1BF073
:1027E00005E293EC1EF097EC1DF010D05DEC1FF0AD
:1027F00002E604EC1BF00AE2A7EC1FF002E604EC90
:102800001BF004E2D950040FABEC1CF0D950190FA7
:1028100082EC20F0040FBCEC1AF097EC1FF002E2FF
:10282000E16AE552E16E0050080EDBCF04F0090EBC
:10283000DBCF05F00A0EDBCF06F00B0EDBCF07F087
:10284000D950190FE5EC1EF002EC1FF0B2EC1BF0B2
:10285000A7EC1AF0D950140F8EEC1EF00A0EF3EC10
:102860001FF007E20A0EF36E140EF3CFDBFF8AECC3
:102870001FF0F3EC1EF097EC1FF002E2E16AE55264
:10288000E16E00500A01D15102E072EC28F01D0EF9
:10289000E15C02E2E16AE552E16E23EF1BF0D9EC64
:1028A0001AF0180EE12402E3E168E652C6EC1AF0D1
:1028B000A6EC1CF0AEEC20F00C0F5FEC20F0100F3B
:1028C000A8EC1EF0A3EC1FF002E10A01A28DB2EC0D
:1028D0001BF021EC1EF0EE500026EE500122EE50CF
:1028E0000222EE500322A4EC1DF0ACEC1EF0DBCF74
:1028F00007F0D950100FE5EC1EF029EC1BF002E6B2
:102900001DEC1BF005E2D950040FB9EC1CF004D00B
:1029100093EC1EF055EC1CF05FEC1DF004E2340E5D
:10292000006E850E48D0C4EC1CF002E63EEC1BF0B5
:1029300004E2EB0E006E850E3ED0B7EC1EF0FDEC0F
:102940001AF004E2040E006E850E35D0FBEC1FF089
:1029500007E345EC1FF004E0DE0E006E840E2BD082
:1029600007EC1BF002E61DEC1BF005E2D950080F46
:10297000B9EC1CF004D082EC1EF055EC1CF0C4EC59
:102980001CF002E63EEC1BF004E2BD0E006E850E6C
:1029900012D0B7EC1EF0FDEC1AF004E2AE0E006EA1
:1029A000840E09D0FBEC1FF009E345EC1FF006E0B4
:1029B000880E006E840E67EC1FF00CD00A01A25145
:1029C00009E19AEC20F002E2E16AE552E16E005082
:1029D00072EC28F0180EE15C02E2E16AE552E16E69
:1029E00023EF1BF0D9EC1AF0370EE12402E3E16883
:1029F000E652C6EC1AF0D7EC1BF0BFEC1CF019E164
:102A000051EC1FF016E1020EF36E100EF3CFDBFF58
:102A100015EC1CF0C7EC1FF02A0E34C0DBFF2B0EA8
:102A200035C0DBFF2C0E36C0DBFF2D0E37C0DBFFC1
:102A30006BD12A0EDB6A2B0EDB6A2C0EDB6A2D0EA5
:102A4000DB6A290EDB6A2EEC20F0D950F60F85ECFC
:102A50001CF002E604EC1BF01FE2290EDB50020919
:102A6000E76E290EE7CFDBFFF60EDBCF38F0F70E6F
:102A7000DBCF39F0F80EDBCF3AF0F90E19EC1BF092
:102A8000F60E34C0DBFFF70E35C0DBFFF80E36C0A4
:102A9000DBFFF90E37C0DBFFD950F20F85EC1CF0DD
:102AA00002E604EC1BF01FE2290EDB500809E76E7A
:102AB000290EE7CFDBFFF20EDBCF38F0F30EDBCFD2
:102AC00039F0F40EDBCF3AF0F50E19EC1BF0F20EF4
:102AD00034C0DBFFF30E35C0DBFFF40E36C0DBFF86
:102AE000F50E37C0DBFFD950F60F85EC1CF002E67F
:102AF00027EC1EF026E215EC1CF08AEC1DF0D7EC5A
:102B00001BF00F0E1F0B03E000EC1CF0FDE1E0ECEE
:102B10001AF025EC1CF0D7EC1BF00F0E1F0B03E096
:102B200000EC1CF0FDE115EC20F014E2EBEC1CF0E5
:102B300003E000EC1CF0FDE1E0EC1AF0B1EC1DF05C
:102B400009D0D7EC1BF03CEC1CF05CEC1EF0FDE176
:102B500063EC20F06AEC1DF00CE27CEC1BF0BD0E87
:102B6000006E830E6BEC1FF002E2E16AE55205ECA9
:102B70001EF0A3EC1FF014E1F60EDBCF04F0F70E0D
:102B8000DBCF05F0F80EDBCF06F0F90E9BEC1BF067
:102B900007E0920E006E830EF4EC1AF0C9EC1DF003
:102BA0008AEC1BF009E2FAEC1CF003E063EC1EF087
:102BB000FDE18BEC1CF008D0EDEC1AF0100E1F0BB1
:102BC00003E000EC1CF0FDE1CFEC1CF0FBEC1DF091
:102BD000140EEECFDBFFD950F60FEEEC1FF0210EF6
:102BE000EECFDBFF220EEECFDBFF230EEECFDBFFBF
:102BF000240EEECFDBFF18EC1EF0D950F20F85EC5F
:102C00001CF002E627EC1EF022E262EC1CF00F0E34
:102C10001F0B03E000EC1CF0FDE1E0EC1AF025ECEA
:102C20001CF062EC1CF00F0E1F0B03E000EC1CF01C
:102C3000FDE115EC20F014E2EBEC1CF003E000ECFD
:102C40001CF0FDE1E0EC1AF0B1EC1DF009D062ECF3
:102C50001CF03CEC1CF05CEC1EF0FDE163EC20F0A1
:102C60006AEC1DF00CE27CEC1BF05D0E006E830E36
:102C70006BEC1FF002E2E16AE55205EC1EF0A3ECFA
:102C80001FF00AE151EC1FF007E0320E006E830ED8
:102C9000F4EC1AF0C9EC1DF08AEC1BF009E2FAEC36
:102CA0001CF003E063EC1EF0FDE18BEC1CF008D09F
:102CB000EDEC1AF0100E1F0B03E000EC1CF0FDE130
:102CC000CFEC1CF0ABEC1FF0180EEECFDBFFD950B1
:102CD000F20FEEEC1FF0250EEECFDBFF260EEECF4F
:102CE000DBFF270EEECFDBFF280EEECFDBFF1D0E46
:102CF000DB6A1E0EDB6A1F0EDB6A200EDB6A010E2A
:102D0000F36E100EF3CFDBFFDAEC0DF00C011BECD1
:102D10001DF0100EDBCFEFFFDDEC1FF0EA22E7EC39
:102D20001DF0140E1AEC1FF0640EE926080EEA22BC
:102D3000F1EC1DF0180E1AEC1FF0320EE9260B0E06
:102D4000EA22190EDBCFEEFF1A0EDBCFEEFF1B0ED1
:102D5000DBCFEEFF1C0E1AEC1FF0960EE9260B0ED1
:102D6000EA221D0EDBCFEEFF1E0EDBCFEEFF1F0EA5
:102D7000DBCFEEFF200E1AEC1FF039EC20F0210E15
:102D8000DBCFEEFF220EDBCFEEFF230EDBCFEEFF1D
:102D9000240E1AEC1FF03EEC20F0250EDBCFEEFFE8
:102DA000260EDBCFEEFF270EDBCFEEFF280EDBCFAC
:102DB000EEFF94EC1BF0290EDBCFEFFFF1EC1AF0E5
:102DC00034EC1EF02A0EDBCFEEFF2B0EDBCFEEFF36
:102DD0002C0EDBCFEEFF2D0EDBCFEEFF22EC1DF035
:102DE000640EE9260A0EEA222E0EDBCFEEFF2F0E2E
:102DF000DBCFEDFFFC51EA6A190FE96E0C0EEA22F7
:102E0000300EDBCFEFFFFC51EA6AE10FE96E090EED
:102E1000EA22310EDBCFEFFF22EC1DF0000EE92697
:102E20000B0EEA22320EDBCFEEFF330EDBCFEDFFCF
:102E30006AEC1EF0340EDBCFEFFF1BEC20F0350EFA
:102E4000DBCFEEFF360EDBCFEDFF370EE15C02E2AB
:102E5000E16AE552E16E23EF1BF0ABDB110EE124DA
:102E600002E3E168E652E16EDF6A010EDB6A020E00
:102E7000DB6A030EDB6A9FEC20F0100EDB6AFD0EAE
:102E8000DB501BE0D950050F82EC20F0010F82ECE3
:102E900020F00D0F82EC20F0090F6EDBDFCFE6FF94
:102EA000E66A1D0E006E830EBCEC20F0150EE15C90
:102EB00002E2E16AE55239EC1EF0110EE15C02E239
:102EC000E16AE552E16EBFD3010EE66EC6DFE55260
:102ED0001200E7CA00F0016A00BE016873EC1EF040
:102EE000180E026E830E6FEC1CF002E2E16AE552EE
:102EF000E16E055072EF28F01EEC1FF0DE6ADD6A0D
:102F0000010EE66E43EC20F0030E39DB0A01A251FC
:102F10000FE10A01E70504E178EC1EF0E66A04D04F
:102F200078EC1EF0010EE66E30EC1EF072EC28F02C
:102F3000E552E55288D31EEC1FF030EC1CF02FEC6C
:102F40001DF028EC1FF0D0EC1FF03DEC1EF00A0144
:102F5000A25129E1030EDB50070802E22FEC1DF01D
:102F6000DF50010802E2010EDF6E030EDB50030F9B
:102F70000E01B65D0CE0DCEC1CF002E2E16AE55209
:102F8000E16E0050030EDB50030F0E01B66F010E11
:102F9000DBCFE6FF020EDBCFE6FFDFCFE6FF30EC54
:102FA0001EF072EC28F0050EE15C02E2E16AE552E7
:102FB000E16E49D31EEC1FF0E652E652FD0EDB0433
:102FC0000BE1B0CEDEFFB1CEDDFF020EB2CEDBFFF5
:102FD000030EB3CEDBFF0AD0AECEDEFFAFCEDDFFF9
:102FE000020EB4CEDBFF030EB5CEDBFF72DBFB0EB1
:102FF000DBCFE6FFFC0EDBCFE6FF020EDBCFE6FF0A
:10300000030EDBCFE6FFB6CEE6FF78EC1EF043EC16
:103010004CF0006E070EE15C02E2E16AE552E16EFF
:103020000050040EE15C02E2E16AE552E16E0BD36E
:103030001EEC1FF0E65239EC1CF0D6EC1FF03BE121
:103040000A01A2515AE10A01E65103E0020EE65DCF
:1030500029E1DF50000822E2E65102E18D9039DBE0
:10306000DF0403E18D848D82898C020EDF5C03E135
:103070008D848D82899C030EDF5C03E18D948D82AB
:10308000899C040EDF5C03E18D848D92899C050E82
:10309000DF5C11E18D948D92899C0DD0E6510BE19E
:1030A0008D8009D0E60507E1DF50000803E28C922D
:1030B00010DB01D08C824AEC1EF0010F43DBD6EC12
:1030C0001FF018E10A01A25118E10A01E65108E1D6
:1030D000010EDB50000802E28B9209D08B820AD0ED
:1030E000E60508E1010EDB50000803E28992F1DAFF
:1030F00001D089821DDA72EC28F07EEC20F0A3D298
:10310000FE0E0A01E85DFF0EE959FF0EEA59FF0EB7
:10311000EB5905E2E82B000EE923EA23EB2372EFDB
:1031200028F00A01E851E911EA11EB1105E0E8077E
:10313000000EE95BEA5BEB5B72EF28F01EEC1FF020
:10314000E652E652E65295DB070E19DA3DEC1EF028
:10315000DB500BE1DFCFE8FA010EDBCFE9FA020E1C
:10316000DBCFEAFA030EDBCFEBFA72EC28F0050EA8
:10317000E15C02E2E16AE552E16E65D2E8CAE6FF8F
:10318000E9CAE6FFEACAE6FFEBCAE6FF0F0E006EE9
:10319000830E6BEC1FF002E2E16AE55239EF1EF09C
:1031A000E66AEC0EE66E0A0EE66EB9EC20F00A0155
:1031B000A25101E0120072EF28F0ECCA00F0016A9F
:1031C00000BE016873EC1EF0080E026E830E87DBF2
:1031D00002E2E16AE552E16E055072EF28F0EDCAB5
:1031E00000F0016A00BE016873EC1EF0020E026E70
:1031F000830E75DB02E2E16AE552E16E0A01ED51F0
:1032000001E0ED6B72EF28F09DBCFED716C1E6FF22
:1032100017C1E6FF00C1E6FF01C1E6FFF60E006E32
:10322000820E6BEC1FF002E2E16AE55239EF1EF00C
:10323000C0D9E652C6D8DF6E0F0EDF14DF6E0A016A
:10324000E75103E0100EDF10DF6EED5103E0200EBA
:10325000DF10DF6E81A403D0400EDF10DF6E81AA85
:1032600003D0800EDF10DF6EDFCFE6FFE66AEF0EE1
:10327000006E820EBCEC20F0050EE15C02E2E16A19
:10328000E552E16E03500A01ED5101E0ED6BE552AC
:10329000DAD11EEC1FF048EC20F028EC1FF03DECDA
:1032A0001EF0D0EC1FF00A01A25101E082D05BECCD
:1032B00020F0FF0ED880EE54030EED5405E2010E0F
:1032C000DB68030E7DEC1EF0DF50010802E2010E08
:1032D000DF6E030EDB50010801E2C1DBDF0409E110
:1032E000040EDB50030805E10A01F06B020EF16FDA
:1032F00006D0010EDBCFF0FA020EDBCFF1FACAB432
:1033000015D0CB68FC0ECA140009CA6E9D920F013D
:1033100052815293F00EBA140C09BA6E3F0EBA14D1
:103320000009BA6E0E010E0ECC6FCA84030EDB507C
:103330002AE1DF5023E0F0CA00F0F1CA01F0D89092
:1033400001320032D890013200320050BB6EF0CA18
:1033500002F0F1CA03F0040ED89002360336E804F6
:10336000FBE1300E0216000E0316CF0EBA14000158
:103370000210006E03C001F0E85003D0BB6ACF0E0C
:10338000BA14BA6E14D0DAEC0DF00C011BEC20F07C
:10339000F0CAEEFFF1CAEDFF6AEC20F06AEC1EF015
:1033A000DFCFEFFF48DB040EEF6EE3EC0DF072ECC5
:1033B00028F0050EE15C02E2E16AE552E16E43D1DC
:1033C0001200F7D8E65248EC20F0F29E0C01FE51B4
:1033D00002E0010EDF6EFE51010801E240DBDF502A
:1033E0000BE071EC1EF039EC20F00BEC1FF0C7DAAB
:1033F00003E0DE52010EDD6EDF500BE071EC1EF0DB
:103400003EEC20F00BEC1FF0BADA03E0010E7DEC8D
:103410001EF0F28E030EDBCFE6FF020EDB50E82437
:10342000016E010EDB50040DF3CF00F0DF50080DEC
:10343000F35000100110E552E710006E040EE15C3D
:1034400002E2E16AE552E16E0050FDD01EEC1FF091
:1034500048EC20F0B6DF3DEC1EF0DBB000DB040EE4
:10346000DBA203D0010E7DEC1EF0040EDBA403D022
:10347000DE52010EDD6E040EDBA602D0010EDF6E01
:10348000030EDBCFE6FFE66A020EDBCFE6FFE66A5D
:10349000010EDBCFE6FFE66ADFCFE6FFE66ADE0E6F
:1034A000006E820EBCEC20F00B0EE15C02E2E16AE1
:1034B000E552E16E0350050EE15C02E2E16AE5527D
:1034C000E16EC1D076D8080EE12402E3E168E6524D
:1034D000E16EF29ED3CADFFF010ED4CADBFF020EFB
:1034E000D5CADBFF030ED6CADBFF040ED7CADBFF4B
:1034F000050ED8CADBFF060ED9CADBFF070EDACAF3
:10350000DBFFF28ED950040F37D8F6D8D40E006EF8
:10351000820EBCEC20F00B0EE15C02E2E16AE552A7
:10352000A8DB080EE15C02E2E16AE552E16E8BD0B5
:10353000F29E0A01D36BD46BD56BD66BD76BD86B6D
:10354000D96BDA6BF28E1200F3DF72EF28F0DBCF6B
:1035500003F021EC20F0F3DB87EC52F0C7EC1FF016
:1035600034C038F035C039F036C03AF037C03BF0DF
:103570002DEC1FF038EF1FF0D1DBB5EF1FF0E66E3A
:103580008AEC2FF07EEC20F0E5521200E16EDE6A4C
:10359000DE6A4DEC20F09FEF20F01F0E3D6E050E11
:1035A0003E6E3F6A406ACBDB11EC53F0EBDBD95047
:1035B000120043EC20F0E1CFD9FFE2CFDAFF120096
:1035C000BEDB040EDBCF3DF0050EDBCF3EF0060E7A
:1035D000DBCF3FF0070EB5EF20F023EC1FF00BEF31
:1035E0001FF0FC5128EF20F0016E026A00C0E6FFD8
:1035F000E66E02C0E6FFB0EF51F0DBCF03F09FDBD9
:103600002DEC1FF085EF1FF0000EF3EF1FF0080EFA
:10361000DBCF39F0090EDBCF3AF00A0EDBCF3BF0FF
:103620000B0E14EF1FF07ADBD890030EEB50000A5C
:103630001200DBCF3BF091EF1FF0D880A3EC20F01D
:10364000000E3C541200E552E5CFDAFFE7CFD9FF78
:103650001200040EDBCF39F0050EDBCF3AF0060E78
:10366000DBCF3BF0070EE0D359DBEE50385CEE5079
:103670003958EE503A58EE503B581200D880FF0EA1
:103680003954FF0E3A54FF0E3B54000E3C541200C6
:10369000DBCF0BF002EC20F00BC03BF079EC44F0F8
:1036A0001C0EDBCF3EF01D0EDBCF3FF01E0EDBCF3E
:1036B00040F01F0EDBCF41F0E5EC44F070DB210E53
:1036C0003E6EE60E3F6E5B0E406E400E416E35EF75
:1036D00020F089861DC519F51EC51AF51FC51BF5F5
:1036E00020C51CF5120039C03EF03AC03FF03BC087
:1036F00040F03CC041F01200A6DBB5EF1FF00C0E0D
:10370000DBCF39F00D0EDBCF3AF00E0EDBCF3BF006
:103710000F0E8AD3D950FA0FEEEC1FF0D8801E0E90
:10372000EE54000E9DEF1FF0FC51EA6AC80FE96EDF
:10373000090EEA221200DBCF07F004500510061034
:1037400007101200E66E000EDA20E66E12000C0E74
:10375000DBCF00F00D0EDBCF01F00E0EDBCF02F061
:103760000F0E1200100EDBCF00F0110EDBCF01F0B8
:10377000120EDBCF02F0130E1200080E34C0DBFF76
:10378000090E35C0DBFF0A0E36C0DBFF0B0E37C05B
:10379000DBFF12000C0E34C0DBFF0D0E35C0DBFF6B
:1037A0000E0E36C0DBFF0F0E37C0DBFF1200F60E29
:1037B000DBCF00F0F70EDBCF01F0F80EDBCF02F02D
:1037C000F90EDBCF03F01200A9DA0C0EEECFDBFF0F
:1037D0000D0EEECFDBFF0E0EEECFDBFF0F0EEECFAA
:1037E000DBFF12009BDAEE50045C006EEE500558D1
:1037F000016EEE500658026EEE500758036E12002E
:10380000D8900036013602360336E80612001BDB7C
:10381000EECF38F0EECF39F0EECF3AF0EFCF3BF00D
:1038200021EC20F011EC53F070D3FA0EDBCF00F056
:10383000FB0EDBCF01F0FC0EDBCF02F0FD0EDBCF89
:1038400003F0C6DB7CDA87EF52F038C0DEFF39C008
:10385000DEFF3AC0DEFF3BC0DDFFDD52DD5212006D
:10386000E652E652E652DF6A010EDB6A020EDB6ABE
:103870001200E66A43EF20F062DAFA0EDBCF3DF089
:10388000FB0EDBCF3EF0FC0EDBCF3FF0FD0EB5ECC8
:1038900020F00F0E1200EA2238C0EEFF01C0EEFF4A
:1038A00002C0EEFF03C0EEFF1200140E34C0DBFFB7
:1038B000150E35C0DBFF160E36C0DBFF170E37C006
:1038C000DBFF1200F20EDBCF00F0F30EDBCF01F0D6
:1038D000F40EDBCF02F0F50EDBCF03F01200036E27
:1038E000046A02C0E6FFE66E04C0E6FFB0EC51F0E9
:1038F000056E050EE15C120039C008F03AC009F00F
:103900003BC00AF03CC00BF0120068DBD890030EFD
:10391000EB50000A1200D9500C0F00DA0450EE24CC
:10392000006E0550EE20016E0650EE20026E07502C
:10393000EE20036E1200DBCF0FF00CC038F00DC08C
:1039400039F00EC03AF00FC03BF0120017DB140E36
:10395000DB6A8AEF1FF0E2D9190EEECFDBFF1A0EF9
:10396000EECFDBFF1B0EEECFDBFF1C0EEECFDBFF3F
:103970001200D4D9140EEECFDBFFABEF1FF00050D6
:103980000110021003101200140EDBCF39F0150ED7
:10399000DBCF3AF0160EDBCF3BF0170E45D200C05E
:1039A000DFFF010E01C0DBFF020E02C0DBFF030ED2
:1039B00003C0DBFF23EF1FF0000EE66EE66AE66E43
:1039C000E66AB6CEE6FFE66EE66A43EC4CF0006EC1
:1039D000070EE15C1200080EDBCF00F0090EDBCF12
:1039E00001F00A0EDBCF02F00B0EDBCF03F0100E5E
:1039F0001F0B120028DAEECF04F0EECF05F0EECF69
:103A000006F0EFCF07F0100E1F0B120054DBEE5044
:103A1000ED101200040EDBCF3AF0050EDBCF3BF0C9
:103A200062EF44F004C039F005C03AF006C03BF044
:103A300007C03CF01200FC51EA6A000FE96E0C0E60
:103A4000EA221200FC51E96EEA6AD890E936EA36B9
:103A50001200F2EC14F0006E0C0EE15C1200010E8C
:103A6000F36E030EF3CFDBFF1200EA22080EDBCF6A
:103A7000EEFF090EDBCFEEFF0A0EDBCFEEFF0B0EE3
:103A8000DBCFEEFF1200EA220C0EDBCFEEFF0D0EB5
:103A9000DBCFEEFF0E0EDBCFEEFF0F0EDBCFEEFF28
:103AA0001200EA22EECF02F0EECF03F0EECF04F0E8
:103AB000EFCF05F002500310041005101200C3D917
:103AC000D880FF0EEE54FF0EEE54FF0EEE54000EA3
:103AD000EE541200B8D9D880000EEE54800E2DD2CC
:103AE000180EDBCF04F0190EDBCF05F01A0EDBCF7A
:103AF00006F01B0EDBCF07F01200100E34C0DBFF08
:103B0000110E35C0DBFF120E36C0DBFF130E37C0BF
:103B1000DBFF1200040E34C0DBFF050E35C0DBFFF7
:103B2000060E36C0DBFF070E37C0DBFF1200190E92
:103B300034C0DBFF1A0E35C0DBFF1B0E36C0DBFFC7
:103B40001C0E37C0DBFF1200040E00C0DBFF050EA9
:103B500001C0DBFF060E02C0DBFF070E03C0DBFF68
:103B600012000C0E38C0DBFF0D0E39C0DBFF0E0E4D
:103B70003AC0DBFF0F0E3BC0DBFF120000C039F084
:103B800048DA92EF44F0EA22D880000EEE54000E9C
:103B9000D4D1B4DA010EDE6EDE6A4DEF20F0040EF1
:103BA000DBCF00F0050EDBCF01F01200B7D8A80E76
:103BB000D880EE54610EED54120039C000F03AC0C6
:103BC00001F03BC002F03CC003F0140E1200110ED5
:103BD000DBCFEEFF120EDBCFEEFF130EDBCFEEFFDF
:103BE0001200150EDBCFEEFF160EDBCFEEFF170E29
:103BF000DBCFEEFF1200110EEECFDBFF120EEECF89
:103C0000DBFF130EEECFDBFF1200E16E0350DE6A26
:103C1000800EDE6E4DEF20F04EDA010EEE1812002F
:103C2000060EDBCF3AF0070EDBCF3BF062EF44F03D
:103C3000190EDB6A1A0EDB6A1B0EDB6A1C0EDB6ACE
:103C40001200DBCF03F0D9500C0F8EEF1EF0FF0EE9
:103C5000EE5CFF0EEE58010EEE58000EEE5812000C
:103C6000DAEC17F07EEF20F0000EE9260A0EEA22C9
:103C70001200E16E035072EF28F0E76E040EE7CFFA
:103C8000DBFF1200E66F96809482958C958E958866
:103C9000958A1200010EE66ED9501200F36E010EE5
:103CA000F3CFDBFF020EDB6A1200010EDBCFB2FEA8
:103CB000020EDBCFB3FE1200D890383639363A36D2
:103CC0003B36E8061200D89004360536063607362D
:103CD000E8061200FC51EA6A320FE96E0C0EEA2285
:103CE0001200FD51B5D100C0E6FF01C0E6FF120091
:103CF000DECFE6FFDDCFE6FF1200F36E020EF3CF5C
:103D0000DBFF1200080EDBCF38F0090EDBCF39F0F5
:103D10000A0EDBCF3AF00B0E19EF1BF0E96E000E26
:103D2000DA20EA6E1200040EDBCF38F0050EDBCF8E
:103D300039F0060EDBCF3AF0070E19EF1BF000C08A
:103D400038F001C039F002C03AF003C03BF0120075
:103D5000F9DC060EBFEF1AF00C0EDBCF04F00D0EEF
:103D6000DBCF05F00E0EDBCF06F00F0E1200140EA7
:103D7000DBCF00F0150EDBCF01F0160EDBCF02F02B
:103D8000170E120038C000F08CEF20F00C0EDB6A2A
:103D90000D0EDB6A0E0EDB6A0F0EDB6A120039C0F5
:103DA00004F03AC005F03BC006F03CC007F012003A
:103DB000070EBFEC1AF0E66AD9501200DAEC0DF0EB
:103DC0000C0188D9B1DCEF6A12000CDD080E00C0CE
:103DD000DBFF090E01C0DBFF0A0E02C0DBFF0B0E8A
:103DE00003C0DBFF1200D950080F8CD9040FBCEFC1
:103DF0001AF0080EDB6A090EDB6A0A0EDB6A0B0E8C
:103E0000DB6A1200040EDB6A050EDB6A060EDB6A53
:103E1000070EDB6A1200EECF00F0EECF01F0EECF1E
:103E200002F0EFCF03F01200DBCF3CF03C34000E89
:103E30003C181200DBCFEEFFF1EF1AF0D9EC1AF0CC
:103E4000E652E6521200D9CFE9FFDACFEAFF1200BC
:103E500010DD8FD91FDF86EF20F0DFCF3DF0010EA0
:103E6000DBCF3EF0020EDBCF3FF0030EB5EF20F0CC
:103E7000140E38C0DBFF150E39C0DBFF160E3AC03A
:103E8000DBFF170E3BC0DBFF1200140EDBCF04F08C
:103E9000150EDBCF05F0160EDBCF06F0170E9BEFED
:103EA0001BF0F20EDBCF04F0F30EDBCF05F0F40EC7
:103EB000DBCF06F0F50E9BEF1BF0D950080F13EF88
:103EC0001BF00C0131DCEF50080993EF20F0F4EC0B
:103ED0001AF07EEF20F050D9070EE15C1200080EB8
:103EE000DBCF0CF0090EDBCF0DF00A0EDBCF0EF0AE
:103EF0000B0E1200040EDBCF04F0050EDBCF05F035
:103F0000060EDBCF06F0070E1200D880190E3854CB
:103F1000A3EF20F0150EDB6A160EDB6A170EDB6AC4
:103F200012003D683E683F68406887EF52F0D95004
:103F3000140FBCEC1AF029EF1DF0EE54000EEE54F5
:103F4000000EEE541200EDEC1AF0BFEF1CF0D95049
:103F5000040F13EF1BF0150EEECFDBFF160EEECFA6
:103F6000DBFF170EEECFDBFF1200EECFE6FFEECF4A
:103F7000E6FFEECFE6FFEFCFE6FF1200100EDB6AA2
:103F8000110EDB6A120EDB6A130EDB6A120034C0FC
:103F900000F035C001F036C002F037C003F0120067
:103FA00079DE030FA2EC1BF0B9EF20F0E2D8E76E48
:103FB000020EE7CFDBFFDB501200F1EC1AF0000E2F
:103FC000E926080E1200CDEC1AF00C0F34EF1BF0AE
:103FD000190E3D6E3E6A3F6A406A1200E96EFF0E9E
:103FE000DA20EA6E1200EE5C000EEE58000EEE587B
:103FF000000EEE581200EDEC1AF0CDEC1AF0140F92
:1040000034EF1BF008C038F009C039F00AC03AF0AC
:10401000120001C03AF002C03BF003C03CF01200B5
:104020000ADD010EEF6EE3EF0DF0E0EC1AF0BDECEF
:104030001BF08AEF1BF006DDC80EE926080EEA2207
:104040001200E80E3D6E030E3E6E3F6A406A12009B
:10405000040DF3CFE9FFF4CFEAFF12008D908B92AD
:1040600069EF1BF049DC73EF1BF0E5EC44F0E9EF7E
:1040700045F0000EE926090EEA221200640EE92638
:10408000090EEA221200D9CFE6FFDACFE6FF1200CE
:1040900030EC1CF0030EDB6A1200DE6ADD6ADD52D2
:1040A000DD52120048DC79EC44F0DCDFBBDCDDDF04
:1040B00069DE0C011200D950010F8EEF1EF048DEB0
:1040C000E66AD950120084DF11EC53F025EC1CF0A5
:1040D000C6EF1EF0F1EC1AF0C7DDEE6AEE6AEE6A8A
:1040E000EE6A1200F1EC1AF0320EE9260B0E120005
:1040F000F1EC1AF0960EE9260B0E1200E552E5528D
:10410000E5521200BCEC1AF0D9501200010FA2ECDB
:104110001BF0030EBFEF1AF039C001F03AC002F0F5
:104120003BC003F01200E66E94EC1BF0E552E75042
:10413000EF6E120058DE7CEC1BF029EF1DF062DE02
:1041400058DEC6EF1EF0000E3954000E3A54000E31
:104150003B541200A2EC1BF0D8EF1EF039EC1CF01F
:10416000D8EF1EF0F9DD9BEF1BF0DBCF40F011EF35
:1041700053F0010EBFEF1AF0F4EC1AF0036E1200C8
:10418000D8CFE4FFE0CFE4FFE46EE9CFE4FFEACF6D
:10419000E4FFF3CFE4FFF4CFE4FFE65298EC33F012
:1041A000E6523AEC33F0A4A6B5D1A4960E01002B4A
:1041B0000E01AB510E01005D01E284D0006B0E01D7
:1041C000C7EC32F0EF6A79907B6A7A6A0E01A92B0C
:1041D0000E01AA510E01A95D01E3A96B93EC33F026
:1041E000EA22EE50ED106EE068EC34F01CEC34F096
:1041F00002E15350511847E0A6EC33F0EA22EE50AA
:10420000ED103AE0DEEC33F09BEC32F093EC33F05F
:10421000EA22EE50525C506EEE505358516E020E30
:1042200050C0DBFF030E51C0DBFF10EC33F0513404
:1042300012E250500008000E51540DE210EC33F021
:10424000A6EC33F0F3EC33F017E24EEC34F0EE264C
:104250005150ED2218D010EC33F0506C511E000E6E
:104260005122A6EC33F0F3EC33F006E24EEC34F0DE
:10427000EE5E5150ED5A07D068EC34F0EA2250C09F
:10428000EEFF51C0EDFFC7EC32F0120EEF6EF29E62
:104290000E0193EC33F057EC32F051C050F0516AFC
:1042A0005050B66E93EC33F057EC32F05050B56E80
:1042B000F00EB4140009B46EF00EB4140909B46E13
:1042C0007980F28E0A01000ED8809855000E99551B
:1042D0002EE2A62B000EA7239851A65D9951A7594F
:1042E00026E3A66BA76B030E9C5D1FE29A51EA6A58
:1042F000200FE96E010EEA2280CFEFFF9A51EA6AA1
:10430000230FE96E010EEA2281CFEFFF9A51EA6A8C
:10431000260FE96E010EEA2282CFEFFF9A2B030EE1
:104320009A5D01E39A6B9C2B02D0986B996B000EFF
:10433000D8809D55000E9E551CE2000ED880AC55CD
:10434000000EAD5516E2A82B000EA9239D51A85DC5
:104350009E51A9590EE3A86BA96B030EA15D07E25C
:104360009F2B030E9F5D01E39F6BA12B02D09D6BE2
:104370009E6BAC51AD110BE0050EAB5D07E3C18C3C
:104380009E9C9D8CC280C282AB6B01D0AB2B050181
:10439000005101E1AAD0DE6ADD6ADECF50F0DDCF48
:1043A00051F0040E505C000E515801E39ED03EECDB
:1043B00032F0010EA1EC32F0FDE1010EE926050E0E
:1043C000EA22EE50ED1075E03EEC32F0010EA1EC69
:1043D00032F0FDE120EC34F0EE50ED1016E125EC6A
:1043E00034F001E1818029EC34F003E1ED5001E18A
:1043F00081822DEC34F003E1ED5001E1818431EC58
:1044000034F003E1ED5001E181863EEC32F0010E23
:10441000A1EC32F0FDE1D2EC33F0A1EC32F0FDE1A1
:10442000010EE926050E1CEC34F019E15350511829
:1044300016E125EC34F001E1819029EC34F003E140
:10444000ED5001E181922DEC34F003E1ED5001E1FA
:10445000819431EC34F003E1ED5001E181963EECC2
:1044600032F0010EA1EC32F0FDE120EC34F0EE2A46
:10447000000EEF223EEC32F0010EA1EC32F0FDE135
:10448000D2EC33F0A1EC32F0FDE1090EE926050E85
:104490001CEC34F024E15350511821E13EEC32F091
:1044A000010EA1EC32F0FDE120EC34F0EE6AED6A91
:1044B00016D025EC34F001E1819029EC34F003E1D1
:1044C000ED5001E181922DEC34F003E1ED5001E17A
:1044D000819431EC34F003E1ED5001E18196DF2A63
:1044E000010E01E25AD7DB2A58D70A01EF5101E049
:1044F000EF07050119511A111B111C110BE01907C7
:10450000000E1A5B1B5B1C5B19511A111B111C114D
:1045100001E189969EAC3DD09E9CC1AC07D0C19C68
:10452000010E0A01AE6FAF6BAA6B18D0C450526E69
:10453000536E526AC35000015210506E53C051F076
:104540000A01AA51E96EEA6AF0EC32F050C0EEFFBF
:1045500051C0EDFFD890AE37AF37AA2B100EAA5D31
:104560000EE2AE51AC15506EAF51AD15516E5050BC
:10457000511005E1AA2BD890AE37AF37EFD7100E08
:10458000AA5D02E39D9C05D0AA51040DF328C26EDA
:10459000C282F2A435D0D59EF294F29A040E506EE7
:1045A0000A01A551FBEC32F0EF50505C29E1080EF6
:1045B000A55D0AE22EEC33F004E0E846FE0B50065F
:1045C000FCE1E81C891616D0100EA55D0AE22EEC5F
:1045D00033F004E0E846FE0B5006FCE1E81C8A16C6
:1045E00009D02EEC33F004E0E846FE0B5006FCE167
:1045F000E81C8B160A01A551FBEC32F0020EEF6E9F
:10460000040EE15C02E2E16AE552E16EE552E5CFBB
:10461000DAFFE7CFD9FFE552E5CFF4FFE5CFF3FFAF
:10462000E5CFEAFFE5CFE9FFE550E5CFE0FFE5CFD5
:10463000D8FF100072EC34F0896A92680A01AC6B02
:10464000AD6B8A6A93688B6A94688C968C94959605
:104650009594928E010ED16F0801FA69FB690A01E7
:10466000A06B9F6BA16B9B6B9A6B9C6B986B996B10
:104670009D6B9E6BA66BA76BA86BA96BAA6B7682D2
:104680007680769C769A76887696FA0E776EDE6AD3
:10469000DD6A86EC32F004E6100E005C000E015874
:1046A0000BE23EEC32F0F0EC32F0EE6AED6ADF2A1B
:1046B000010EEFE3DB2AEDD70A01CB6BCC6BC96BA4
:1046C000CA6BDE6ADD6A86EC32F004E6400E005CFE
:1046D000000E01580CE23EEC32F0000EE926020E0C
:1046E000EA22EF6ADF2A010EEEE3DB2AECD7DE6A6C
:1046F000DD6A86EC32F004E6400E005C000E0158E4
:104700000CE23EEC32F0400EE926020EEA22EF6A9D
:10471000DF2A010EEEE3DB2AECD7DE6ADD6A86ECE7
:1047200032F004E6000E005C010E01580AE23EEC95
:1047300032F03FEC33F0EF6ADF2A010EF0E3DB2AC0
:10474000EED70A01CD6BCE6BCF6BD06BA36BA46B96
:10475000A56BDE6ADD6A86EC32F004E6180E005CBA
:10476000000E015812E23EEC32F049EC33F0EE6AF2
:10477000ED6A3EEC32F0290EE926010EEA22010E26
:10478000EF6EDF2AE8E3DB2AE6D7D586D59AD59CFB
:10479000F294F29AF1940F01498FBE0EC16ED08E41
:1047A0007694A386A59661EC0CF076EC4BF0F28E35
:1047B000F28C76845AEC2EF0040EE15C02E2E16A9F
:1047C000E552E16E22EF32F079EC34F0AEEC32F0EB
:1047D0003AEC33F0040EDB6A46EC31F00A019C51EE
:1047E00000080AE2F0EC29F00A019B2B030E9B5D06
:1047F00001E19B6B9C07F2D7A15100080AE212EC81
:104800002AF00A01A02B030EA05D01E1A06BA10715
:10481000F3D7200E0401E76E7819E8AE02D0E73432
:1048200002D0E750785D01E23AD16550020B01E019
:1048300036D1400EE66E400EE66E020EE66E0DECD0
:104840004AF058EC34F0E76E030EE7CFDBFFDB50A5
:10485000000801E3E7D0040EDB6A030EDB50F36EC1
:10486000040EA4EC32F001E3DDD0040EDB50EA6A62
:10487000400FE96E020EEA22EFCFDFFF050165511E
:1048800034E10D0E62EC32F005E00A0E016EDF50ED
:10489000015C2BE1010E656F0A01B2EC32F00D0EE6
:1048A000EF6ECB2B010EDB6ACB51F36E010EA4EC45
:1048B00032F016E244EC33F0E9BEEA683FEC33F044
:1048C000EF50E66E44EC33F0E9BEEA68210EE926CB
:1048D000050EEA22E552E750EF6E010EDB2AE4D71F
:1048E0003BD90A01CB6BCC6B8DD01B0EDF5C09E191
:1048F000615107E1010E616F1B0E626F636B646BA8
:1049000081D061050BE15B0EDF5C08E11B0E625D8F
:1049100005E1635103E15B0E636F74D061054AE109
:10492000410EDF5C47E11B0E625D44E15B0E635D9F
:1049300041E1626B636B646B616B010EDB6ADBCF21
:10494000E9FFEA6AE9BEEA683FEC33F0EF500D0890
:1049500016E044EC33F0E9BEEA68210EE926050EC4
:10496000EA22EF50E66E44EC33F0E9BEEA683FEC31
:1049700033F0E552E750EF6E010EDB2AE0D7010E6F
:10498000DBCFCBFA0A01B2EC32F0EF6AB50E006E63
:10499000880E88EC33F0000EE66E030EE66EB20E63
:1049A000006E880E90EC33F002E2E16AE552E16EAF
:1049B000035028D0080EDF5C0EE10A01CB5100083D
:1049C0000AE2CB07B2EC32F0EF6AAF0E006E880E4F
:1049D00088EC33F017D00D0EDF5C14E00A0EDF5CBC
:1049E00011E0200EDF5C0EE30501626B636B646B0C
:1049F000616B0A01B2EC32F0DFCFEFFF0501656BAE
:104A00000A01CB2B0A01CB51006E016A000E00187F
:104A100006E1010E011803E1A287CB6BCC6B040EFB
:104A2000DB2A1BD70A01A25139E0A2A105D0A90EA9
:104A3000006E880E88EC33F00A01A2A305D08A0E1E
:104A4000006E880E88EC33F00A01A2A505D06E0E28
:104A5000006E880E88EC33F00A01A2A705D0520E32
:104A6000006E880E88EC33F00A01A2A905D0330E3F
:104A7000006E880E88EC33F00A01A2AD05D0120E4C
:104A8000006E880E88EC33F00A01A2AF05D0F90E53
:104A9000006E870E88EC33F00A01A26B37D8050E42
:104AA000E15C02E2E16AE552E16E22EF32F0ABEC4A
:104AB00033F0C9CADFFFDF2A400E62EC32F001E1B9
:104AC000DF6A0A01CA51DF5C01E120D80A01C9513D
:104AD000EA6A000FE96E020EEA22FD0EDBCFEFFF5D
:104AE000C92B400EC95D01E1C96BCA51C95D01E125
:104AF000A285FD0EDBCF00F0016A00BE016800C098
:104B0000F3FF01C0F4FFE55222EF32F0ABEC33F0DB
:104B10000A01C951CA5D1DE00C01DB5105E097ECAB
:104B20004AF0F1EC34F0F8D70A01CA51D880C955DF
:104B300007E2CA51C95D78EC32F0C9CACAFA07D097
:104B4000400ED880CA5578EC32F00A01CA6B97EC57
:104B50004AF0E55222EF32F072EC34F0DE6ADD6AA0
:104B60003AEC33F00A0128EC32F055EC33F0020E47
:104B7000F3CFDBFF0A0143EC32F004E1010E011830
:104B800001E1CC6B020EDB50DE6EDD6A28EC32F008
:104B90002C0824E028EC32F00D0820E028EC32F05C
:104BA00055EC33F0030EF3CFDBFF0A0143EC32F098
:104BB00004E1010E011801E1CC6B020EDBCF02F023
:104BC00002C003F0026A030EDB5000010224006EF3
:104BD000000E0320016E00C0DEFFDD6E000EDFCF91
:104BE0003AF0010EDBCF3BF04D0E3A1802E1480ED1
:104BF0003B1801E147D2520E3A1802E1530E3B181E
:104C000001E13DD2520E3A1802E1510E3B1801E18A
:104C100033D2420E3A1802E1520E3B1801E129D27A
:104C2000540E3A1802E1510E3B1801E11FD2540E06
:104C30003A1802E1530E3B1801E115D2530E3A180F
:104C400002E1430E3B1801E10BD2530E3A1802E188
:104C5000510E3B1801E101D24D0E3A1802E1580EF7
:104C60003B1801E1F7D1530E3A1802E1450E3B180B
:104C700001E1EDD1430E3A1802E1410E3B1801E18A
:104C8000E4D14D0E3A1802E1510E3B1801E1DAD1A0
:104C90004D0E3A1802E1520E3B1801E1D0D1320E0E
:104CA0003A1802E1530E3B1801E1C6D1450E3A18FD
:104CB00002E1530E3B1801E1BCD1470E3A1802E164
:104CC000510E3B1801E1B2D1430E3A1802E1510EE8
:104CD0003B1801E1A8D14B0E3A1802E1430E3B18F4
:104CE00001E19ED14C0E3A1802E1420E3B1801E15F
:104CF00094D1440E3A1802E14E0E3B1801E18AD1DC
:104D0000490E3A1802E14E0E3B1801E180D1420EE5
:104D10003A1802E1510E3B1801E176D14C0E3A18D7
:104D200002E1510E3B1801E16CD14C0E3A1802E140
:104D3000530E3B1801E162D14E0E3A1802E1510EBA
:104D40003B1801E158D14E0E3A1802E1530E3B18C0
:104D500001E14ED1430E3A1802E1530E3B1801E136
:104D600044D14D0E3A1802E1450E3B1801E13AD10B
:104D7000500E3A1802E1510E3B1801E130D1500EAD
:104D80003A1802E1540E3B1801E126D1500E3A18B0
:104D900002E1530E3B1801E11CD14D0E3A1802E11D
:104DA000410E3B1801E112D14D0E3A1802E1530EAB
:104DB0003B1801E108D1470E3A1802E1500E3B18AA
:104DC00001E1FED0430E3A1802E1500E3B1801E11A
:104DD000F4D0490E3A1802E1430E3B1801E1EAD043
:104DE000490E3A1802E1520E3B1801E1E0D0490E9B
:104DF0003A1802E1530E3B1801E1D6D0530E3A188F
:104E000002E1520E3B1801E1CCD0530E3A1802E1F8
:104E1000530E3B1801E1C2D0530E3A1802E1420E84
:104E20003B1801E1B8D0430E3A1802E1420E3B189C
:104E300001E1AED0430E3A1802E1520E3B1801E1F7
:104E4000A4D04F0E3A1802E1420E3B1801E19AD06D
:104E5000570E3A1802E14D0E3B1801E191D0520E67
:104E60003A1802E14D0E3B1801E188D0440E3A1881
:104E700002E1500E3B1801E17FD04F0E3A1802E1DB
:104E8000500E3B1801E176D0490E3A1802E1500E5F
:104E90003B186EE0580E3A1802E1540E3B1865E0DC
:104EA000540E3A1801E13B505EE0410E3A1801E120
:104EB0003B5057E0560E3A1801E13B5050E0490E86
:104EC0003A1801E13B5049E04F0E3A1801E13B50DE
:104ED00042E0550E3A1802E1430E3B183AE0580EF4
:104EE0003A1802E1430E3B1831E0430E3A1801E153
:104EF0003B502AE0520E3A1801E13B5023E0580E95
:104F00003A1802E1520E3B181AE04D0E3A1802E12F
:104F10004C0E3B1811E0030EDB5001E0B6D0020E40
:104F200001EC33F001EC33F0D60E006E870EB4ECDA
:104F300033F001E3B9D0B6D02DEC11F0B7D035EC99
:104F40002CF0B4D0D8D8B2D06BD9B0D037EC2CF08C
:104F5000ADD0D5D8ABD013DAA9D042DAA7D05DDA7C
:104F6000A5D060DAA3D030D9A1D033EC2CF09ED0FC
:104F70007BDB9CD0E3DB9AD0E2DA98D0C2DA96D021
:104F8000AEDA94D0AFEC2CF091D039EC2CF08ED07E
:104F9000ADEC2CF08BD0B1EC2CF088D0B3EC2CF035
:104FA00085D0B5EC2CF082D0B7EC2CF07FD0B9ECEA
:104FB0002CF07CD0BBEC2CF079D0BDEC2CF076D072
:104FC00015EC2DF073D013EC12F070D0B2EC0EF0A3
:104FD0006DD09BEC17F06AD07CEC17F067D069ECD1
:104FE00017F064D018EC18F061D0EBEC0DF05ED047
:104FF0009EEC18F05BD0BEEC18F058D0D0EC18F056
:1050000055D0DDEC18F052D0EFEC18F04FD080EC1A
:1050100018F04CD091EC18F049D04AEC2DF046D065
:10502000A2EC2DF043D004EC19F040D018EC19F0AC
:105030003DD049EC19F03AD0EEEC4BF037D0E0EC33
:1050400019F034D026EC1AF031D082D92FD064EC8C
:1050500017F02CD04FEC14F029D062EC1AF026D0C7
:10506000A4EC1AF023D0C1EC2EF020D006EC2FF0E7
:105070001DD052EC2DF01AD059EC2DF017D06BEC5E
:105080002DF014D0AAEC12F011D0F9EC33F0F9ECB9
:1050900033F0AE0E006E870E10EC32F0036E0B0E86
:1050A000E15C02E2E16AE552E16E03500A0128EC9C
:1050B00032F00D080DE0A2510BE1520E006E016AB4
:1050C000DF50001803E1DE52DD50011801E0A28F2D
:1050D000CBCACCFA040EE15C02E2E16AE552E16E71
:1050E00022EF32F00A01D15105E06A0E006EA60EE1
:1050F00088EC33F012001AEC23F072EF28F098ECF1
:1051000033F0DF6A010EDB6A020EDB6A54EC34F026
:10511000010EE66ED950010F31EC32F0020E83EC35
:1051200034F050E1DF50030A28E0010A13E0030ADB
:1051300048E1C3EC33F00AE0010E006E016ADB5077
:10514000001819E1020EDB50011815E1010EDBCF4A
:10515000D1FA37D0C3EC33F00AE0010E006E016AD9
:10516000DB50001808E1020EDB50011804E1010ECB
:10517000DBCFFFFC26D0A28D24D0C3EC33F010E0AF
:105180005CEC33F0013409E200501908000E0154C0
:1051900004E20C01190EFB6F03D0010EDBCFFBFC08
:1051A000190EE66EE66A0C01FB51E66EE66AA60E83
:1051B000006E870EB4EC33F002E2E16AE552E16E74
:1051C000035090DFA4EF33F098EC33F0020EDB6A6B
:1051D000E66A960EE66E0A0EE66E030E19EC32F0E3
:1051E0008BEC33F01BE1020EDB500CE19651971172
:1051F00003E1986B996B11D0768496CA98FA97CA96
:1052000099FA0BD09651971103E19D6B9E6B05D0D7
:10521000768496CA9DFA97CA9EFA64DFA4EF33F0AB
:1052200079EC34F0AEEC32F03BEC32F0010E82EC73
:1052300033F0E66A75EC34F0010E3EEC34F0030F07
:1052400031EC32F0D9EC33F0010E83EC34F00FE1A5
:10525000DF50926E010EDB50936E020EDB50946EA7
:10526000030EDB50956E040EDB50966E3BDF050E91
:10527000E15C02E2E16AE552E16E22EF32F01CEC01
:1052800032F0FD0EDB50100805E2100EF36EFD0E3D
:10529000F3CFDBFFFC0EDB502BE0FD0EDB5092EC7E
:1052A00053F0F3500A01AC13F450AD13080EF36E33
:1052B000FD0EA4EC32F00DE2010EF36EFD0EDB509C
:1052C00003E04FEC32F0FDE1F350F31C0F014817FF
:1052D0003DD0FD0EDB500C0839E363EC33F004E005
:1052E000E846FE0B0006FCE1E81C0F0149172ED032
:1052F000FD0EDB5092EC53F0F3CF00F0F4CF01F051
:10530000001E011E00500A01AC170150AD17080E17
:10531000F36EFD0EA4EC32F00CE2010EF36EFD0E06
:10532000DB5003E04FEC32F0FDE1F3500F01481386
:105330000DD0FD0EDB500C0809E363EC33F004E004
:10534000E846FE0B0006FCE10F01491322EF32F0A4
:1053500079EC34F03BEC32F0010E82EC33F00A01D0
:10536000A25109E1010EDBCFE6FFDFCFE6FF87DFC9
:10537000E552E552B7DEE552E55222EF32F079EC24
:1053800034F054EC34F08DEC32F026E1010EDB50B9
:1053900002E1DF50896E9BEC33F01EE1010EDB5021
:1053A00002E1DF508A6E9BEC33F016E1010EDB5018
:1053B00002E1DF508B6E9BEC33F00EE1010EDB500F
:1053C00002E1DF508C6E9BEC33F006E1010EDB5006
:1053D00002E1DF508D6E86DEE552E55222EF32F0BB
:1053E0008450E66EE66A8350E66EE66A8250E66EA8
:1053F000E66A8150E66EE66A8050E66EE66A890EDD
:10540000006E870E10EC32F0036E0D0EE15C02E2CE
:10541000E16AE552E16E03501200720E006EA60EB4
:1054200088EF33F098EC33F0DF6A010EF36EDB6E39
:10543000020EDB6A870E006E870E88EC33F09DBC8F
:10544000FED7DF6ADFCF00F0100EE76E0018E8AE7F
:1054500002D0E73402D0E750005C3AE2010EDB50A4
:105460000A01AC150001006E020EDB500A01AD15F9
:105470000001016E005001101EE0DFCFE9FFEA6A73
:10548000E9BEEA68F0EC32F0EECFE6FFEFCFE6FFE0
:10549000DFCF00F0016A00BE016835EC34F07C0E0D
:1054A000026E870E05EC33F0070EE15C02E2E16A62
:1054B000E552E16E05505CEC33F0D89000360136D1
:1054C000010E00C0DBFF020E01C0DBFFDF2ABAD7EE
:1054D0006F0E006EA60E88EC33F0A4EF33F098EC5C
:1054E00033F0E3EC33F08BEC33F009E11CEC33F0F8
:1054F00005E23EEC32F0020EDBCFEFFFF3DDA4EF6E
:1055000033F098EC33F0E3EC33F00A01A25115E1EB
:105510001CEC33F005E23EEC32F0020EEFCFDBFF85
:10552000020E01EC33F0720E006E870E90EC33F039
:1055300002E2E16AE552E16E0350A4EF33F07FEC42
:1055400034F001E08FD0020EDB50010801E287D079
:10555000010EDB50070801E282D0410E62EC32F00E
:1055600016E1020EDB500AE153EC32F003E04FEC9F
:1055700032F0FDE1F350F31C921673D053EC32F08D
:1055800003E04FEC32F0FDE1F35092126AD0420E8C
:1055900062EC32F016E1020EDB500AE153EC32F01D
:1055A00003E04FEC32F0FDE1F350F31C931659D0B9
:1055B00053EC32F003E04FEC32F0FDE1F350931284
:1055C00050D0430E62EC32F016E1020EDB500AE1DD
:1055D00053EC32F003E04FEC32F0FDE1F350F31CFA
:1055E00094163FD053EC32F003E04FEC32F0FDE183
:1055F000F350941236D0440E62EC32F016E1020EF3
:10560000DB500AE153EC32F003E04FEC32F0FDE105
:10561000F350F31C951625D053EC32F003E04FEC19
:1056200032F0FDE1F35095121CD0450E62EC32F0E1
:1056300016E1020EDB500AE153EC32F003E04FECCE
:1056400032F0FDE1F350F31C96160BD053EC32F020
:1056500003E04FEC32F0FDE1F350961202D0A28D40
:1056600001D040DDA4EF33F098EC33F0020EDB6A9A
:1056700042EC34F00A01A2515FE1010EDB50070851
:1056800047E3410E62EC32F009E153EC32F003E003
:105690004FEC32F0FDE1F350801433D0420E62EC57
:1056A00032F009E153EC32F003E04FEC32F0FDE16F
:1056B000F350811426D0430E62EC32F009E153EC32
:1056C00032F003E04FEC32F0FDE1F350821419D0D8
:1056D000440E62EC32F009E153EC32F003E04FEC9F
:1056E00032F0FDE1F35083140CD0450E62EC32F041
:1056F0000FE153EC32F003E04FEC32F0FDE1F350F8
:105700008414E76E020EE7CFDBFFDB5008E002D027
:10571000A28D12D0010EF36E020EF3CFDBFF020E4C
:1057200001EC33F0690E006E870E90EC33F002E26C
:10573000E16AE552E16E0350A4EF33F07FEC34F000
:1057400001E08FD0020EDB50010801E287D0010E8C
:10575000DB50070801E282D0410E62EC32F016E124
:10576000020EDB500AE153EC32F003E04FEC32F072
:10577000FDE1F350F31C891673D053EC32F003E0D3
:105780004FEC32F0FDE1F35089126AD0420E62EC28
:1057900032F016E1020EDB500AE153EC32F003E086
:1057A0004FEC32F0FDE1F350F31C8A1659D053EC64
:1057B00032F003E04FEC32F0FDE1F3508A1250D0AA
:1057C000430E62EC32F016E1020EDB500AE153ECBC
:1057D00032F003E04FEC32F0FDE1F350F31C8B1696
:1057E0003FD053EC32F003E04FEC32F0FDE1F350E8
:1057F0008B1236D0440E62EC32F016E1020EDB5012
:105800000AE153EC32F003E04FEC32F0FDE1F350EB
:10581000F31C8C1625D053EC32F003E04FEC32F041
:10582000FDE1F3508C121CD0450E62EC32F016E113
:10583000020EDB500AE153EC32F003E04FEC32F0A1
:10584000FDE1F350F31C8D160BD053EC32F003E066
:105850004FEC32F0FDE1F3508D1202D0A28D01D059
:1058600041DCA4EF33F072EF28F072EF28F072EF12
:1058700028F072EC34F042EC34F0E66AA0EC33F03D
:105880000A01A25162E1D950020F4AEC32F0720EC5
:10589000D880EE542E0EED543DE3D950020F4AEC61
:1058A00032F0EE50ED101FE003680468056A2D0E1B
:1058B000E76E020EDBCF06F0030EDBCF07F0E750FA
:1058C0000626000E0722086A0650035C006E075089
:1058D0000458016E08500558026E020E00C0DBFF2E
:1058E000030E01C0DBFF010EDB50070813E3410E7E
:1058F00062EC32F002E1DF6A0FD0420E62EC32F06D
:1059000002E1080E05D0430E62EC32F003E1100E06
:10591000DF6E02D0A28D19D0010EDB50DF24E96EBC
:10592000EA6A49EC33F06AEC33F0010EDB50DF2415
:10593000FBEC32F0EF0407E1010EDB50DF24FBEC5F
:1059400032F0020EEF6E72EC28F0040EE15C02E21F
:10595000E16AE552E16E22EF32F072EF28F072EF69
:1059600028F072EF28F072EF28F072EF28F072EF53
:1059700028F072EF28F072EF28F01CEC32F0070EDE
:10598000E12402E3E168E652E16EE3EC33F0E66A1B
:10599000A0EC33F00A01A25140E1DECF01F5DDCFEA
:1059A00002F5020EDBCF09F5030EDBCF0AF5040E7C
:1059B000DB6A030EF36E040EA4EC32F02CE2010E4F
:1059C0006FEC32F0030EFEEC33F0010EE66EA0EC4D
:1059D00033F0E76E060EE7CFDBFF0A01A2511DE1AF
:1059E000050EDB5018E1060EDB5015E14FEC33F0ED
:1059F000010EE926050EEA22DECFEEFFDDCFEDFF38
:105A00004FEC33F0090EE926050EEA226AEC33F07A
:105A1000040EDB2ACED772EC28F0070EE15C02E21E
:105A2000E16AE552E16E22EF32F0ABEC33F054EC78
:105A300034F00A01A2510DE1DF5007E0F00E93149B
:105A4000936E0501010E006F02D00501006B72EC30
:105A500028F0E55222EF32F0D9CFE6FFDACFE6FFA9
:105A6000E1CFD9FFE2CFDAFFE652DF6AFF0EDF5C5B
:105A70000AE2E868E85005E0E80600D000D000D06F
:105A8000F9D7DF2AF3D7E552E552E5CFDAFFE7CFC2
:105A9000D9FF1200F29EF29C6592656ADDDF0FEF7E
:105AA00000F01200F29EF29C6592656AD5DFFF005D
:105AB00012008050080B01E0010EE66EE66A630EEC
:105AC000006E870E90EC33F002E2E16AE552E16E7F
:105AD000035072EF28F01CEC32F0060EE12402E3D2
:105AE000E168E652E16E3BEC32F0070E19EC32F061
:105AF000010EE66ED950040F31EC32F0010EFEECCF
:105B000033F00A01A25116E1DFCF1DF5010EDBCF04
:105B10001EF5020EDBCF1FF5030EDBCF20F5050EC1
:105B2000DB5006E1040EDB5002E0898601D0899645
:105B300072EC28F0060EE15C02E2E16AE552E16EE9
:105B400022EF32F01CEC32F0100EE12402E3E168A7
:105B5000E652E16EE66AD950010F31EC32F0E66AA6
:105B600004EC34F03BEC32F0D9EC33F0020E19ECDB
:105B700032F0E66AA0EC33F0E66AD9500A0F31EC55
:105B800032F0060E3EEC34F0060F31EC32F0070E28
:105B90003EEC34F00E0F31EC32F0040E3EEC34F0FB
:105BA0000F0F31EC32F0050E19EC32F0010EDBCFA5
:105BB00000F0016A00BE016835EC34F0570E026E49
:105BC000870E05EC33F0050EE15C02E2E16AE55276
:105BD000E16E0550DFCFE6FFE66A4B0E006E870EE2
:105BE00090EC33F002E2E16AE552E16E0350040EFC
:105BF000DBCFE6FF050EDBCFE6FF3F0E006E870E24
:105C000090EC33F002E2E16AE552E16E0350020EDD
:105C1000DBCFE6FF030EDBCFE6FF330E006E870E11
:105C200090EC33F002E2E16AE552E16E0350D950A4
:105C30000A0F4AEC32F025EC33F0260E006E870E88
:105C4000B4EC33F002E2E16AE552E16E0350D95060
:105C5000060F4AEC32F025EC33F0190E006E870E79
:105C6000B4EC33F002E2E16AE552E16E03500E0E4D
:105C700001EC33F00D0E006E870E90EC33F002E273
:105C8000E16AE552E16E03500F0E01EC33F0010EB4
:105C9000006E870E90EC33F002E2E16AE552E16EAD
:105CA000035072EC28F0100EE15C02E2E16AE5526A
:105CB000E16EC8D3C1DB120EE12402E3E168E652D3
:105CC000E16E110EDB6AF36EDBCFF4FFE850F45C9B
:105CD00003E2AEEC33F0F7D7ECEC33F002E2E16A2A
:105CE000E552E16E0050110EDB6A100EF36E110EDC
:105CF000A4EC32F02DE2E7EC33F0EF50006E016AD5
:105D0000013404E200508008000E015421E3E7EC66
:105D100033F0EFCF04F0200E045C1AE3E7EC33F02D
:105D2000EF50E66E180E0201016AFA25006EFB5173
:105D3000D5EC32F0DB50D924ADDBEF50E66E020E2D
:105D4000016AFC25006EFD51D5EC32F0DB2ACDD77F
:105D5000110EDB50E824180FFAC2E9FFFBC2EAFF7C
:105D6000EF6E110EDB50E824020FFCC2E9FFFDC20A
:105D7000EAFFEF6E120EE15C02E2E16AE552E16ECB
:105D800061D35ADB130EE12402E3E168E652E16ECF
:105D9000110EDB6A120EDB6A110EF36E120ED4DBEB
:105DA00008E278EC33F0120E6CEC34F0120EDB2AC1
:105DB000F3D7100E94DB6CD858EC34F0E76E110E6C
:105DC000E7CFDBFFE668FB0EE66EE66A09EC34F02F
:105DD00098EC50F0006E080EE15C02E2E16AE552D8
:105DE000E16E00506ADB4EEC4DF0006E080EE15C97
:105DF00002E2E16AE552E16E005072EC28F0130E07
:105E0000E15C02E2E16AE552E16E1CD315DB120EA1
:105E1000E12402E3E168E652E16E110EDB6AF36E03
:105E2000DBCFF4FFE850F45C03E2AEEC33F0F7D7DD
:105E3000ECEC33F002E2E16AE552E16E0050DF5033
:105E4000006E016AD890015004E6800E005C000EDE
:105E5000015803E2200EDF5C06E2C10E006E880EE0
:105E600088EC33F00CD0C9EC33F0FC0E006E860EDB
:105E700090EC33F002E2E16AE552E16E035072EC1D
:105E800028F0120EE15C02E2E16AE552E16EDAD23C
:105E9000ABEC33F0DF6A48DBEF6A10EC34F002E180
:105EA000A2890CD0D5DA2C080BE046EC34F002E2E3
:105EB000E16AE552E16E03500A01A28B000E28D080
:105EC000E2DA04E1010E011801E1CC6B0D0E3AECAF
:105ED00034F009E02C0E016EBBDA015C04E0FB0E2D
:105EE000DB50DF5C02E3DF5013D0B2DAE66E1CDB7E
:105EF000E552E750EF6EC7DA04E1010E011801E147
:105F0000CC6BDF2AFC0EDB2AFD0EE0E3DB2ADED7BA
:105F1000E55298D291DA090EE12402E3E168E652F3
:105F2000E16E080EDB6A10EC34F005E1FA0EDB508E
:105F300021E1A2891FD08CDA2C080EE0FA0EDB508A
:105F400009E146EC34F002E2E16AE552E16E035009
:105F50000A01A28B020E22D196DA04E1010E011889
:105F600001E1CC6B0D0E3AEC34F006E1FA0EDB5099
:105F700001E1A289030E12D12D0E3AEC34F020E19A
:105F8000040E55DB1DE0050E026EFD0EDB50025CBB
:105F900017E0FD0EDB0401E1C7D0030E27DB01E1B2
:105FA000C3D0070E44DB01E1BFD0010EF36E080E33
:105FB000F3CFDBFF68DA04E1010E011801E1CC6BDD
:105FC000040E14DB09E0050E32DB06E00A0E87DA68
:105FD000EED858EC34F033D0CC51CBDBEFCF00F01F
:105FE000000E00C0DFFF010EDB6A44DB050EFEDAA7
:105FF0001FE1000EDFCFE6FF010EDBCFE6FFEBEC8B
:1060000052F0E552E552F3CF00F0F4CF01F0026A0E
:10601000036A01AE02D00268036800C0DFFF010E10
:1060200001C0DBFF020E02C0DBFF030E03C0DBFF7B
:106030000A0129DA04E1010E011801E1CC6B080E16
:10604000DB5044E0FD0EDB5007E17CEC34F0800EC9
:1060500049DA000EEE5414E3020EC8DA07E17CECD4
:1060600034F0000EEE54800E3DDA0AE3060EDFDA5D
:1060700009E17CEC34F0000E35DA800EEE5402E2D9
:106080000A0152D0F3D99FDA080EDB5055E0040E16
:10609000DBCF38F0050EDBCF39F0060EDBCF3AF060
:1060A000070EDBCF3BF03D683E683F68406887ECF9
:1060B00052F0040E34C0DBFF050E35C0DBFF060EC8
:1060C00036C0DBFF070E37C0DBFF36D0FD0EDB50DE
:1060D00007E17CEC34F07F0EEE54000E03DA23E38C
:1060E000FD0EDB0404E14BDB000EFCD91CE3020EC9
:1060F0007DDA04E144DB7F0EF5D915E3030E97DA70
:1061000004E13DDBFF0EEED90EE3060E026EFD0E3E
:10611000DB50025C0CE133DBFF0EEE54FF0EEE545D
:106120007F0EEE5404E20A01A28D010E37D0070E55
:106130005DDA02E09BD947DAFD0EDB50070A21E069
:10614000010A17E0050A11E0010A0FE0030A08E05E
:10615000050A06E0010A04E0050A02E0040E1ED06A
:1061600004DA040EDBCFEFFF18D060DBDBCFEDFFEE
:1061700014D05CDBDBCFEEFF060EDBCFEEFF070EAD
:106180000AD0F3D9DFCFEEFF010EDBCFEEFF020E18
:10619000DBCFEEFF030EDBCFEEFF000E006E090E2D
:1061A000E15C02E2E16AE552E16E00504BD1A1DB15
:1061B000BBD9EE6AEE6AEE6AEE6A010EDB6AFB0E8E
:1061C000DB50F36E010EC0D94FE20A01CC51D1DA97
:1061D000EFCFDFFF300EDF5C42E3DF5039083FE3F3
:1061E000A3D9EECF00F0EECF01F0EECF02F0EFCF6B
:1061F00003F00A0E3D6E3E6A3F6A406A00C038F006
:1062000001C039F002C03AF003C03BF087EC52F015
:1062100034C000F035C001F036C002F037C003F0E2
:10622000300EDF5C046E056A066A076AE8500026D5
:1062300005500122065002220750032275D900C0E2
:10624000EEFF01C0EEFF02C0EEFF03C0EEFF0A0149
:106250001AD907E1010E011804E1CC6B02D0000E3F
:1062600004D0010EDB2AABD7010EE552E552EAD08D
:106270000A019C51E66EE66AC90E006E860E50DA7F
:1062800002E2E16AE552E16E035012000401785126
:1062900008E0010E006E6550020B01E0010E005C8B
:1062A00017E1E2D90BE169516A1111E18C86A00E68
:1062B000696F0F0E6A6F010E6B6F120069516A11E0
:1062C00052E18C96A00E696F0F0E6A6F6B6B120015
:1062D000780509E0020E785D06E0040E785D03E0C3
:1062E000100E785D17E1C0D90BE169516A1111E117
:1062F0008C86200E696F4E0E6A6F010E6B6F120056
:1063000069516A1130E18C96200E696F4E0E6A6FEA
:106310006B6B1200200E785D26E1A6D907E169516A
:106320006A1121E18C86E9D9010E15D06B0507E1D0
:1063300069516A1118E18C96E0D9020E0CD0020E58
:106340006B5D0BE169516A110EE18C86A00E696FDD
:10635000860E6A6F030E6B6F120069516A1103E1BA
:106360008C96CBD96B6B120067D8BBD9E8AE02D044
:10637000003403D0E750D880005423E3FC0EDB50F8
:1063800010E0E7D8E9BEEA68A1D804E0E846FE0BD1
:106390000106FCE1006EDDD8E9BEEA688DDAEF1295
:1063A00010D0D7D8E9BEEA6891D804E0E846FE0BE1
:1063B0000106FCE1E81C006ECCD8E9BEEA687CDA94
:1063C000EF1640D039D88DD9E8AE02D0003403D0D2
:1063D000E750D880005423E3FC0EDB5011E1B9D81C
:1063E000E9BEEA6873D804E0E846FE0B0106FCE16A
:1063F000E81C006EAED8E9BEEA6864DAEF160FD08A
:10640000A8D8E9BEEA6862D804E0E846FE0B0106B7
:10641000FCE1006E9ED8E9BEEA6854DAEF1212D0B1
:10642000016E026A00C0E6FFE66E02C0E6FFB0EF52
:1064300051F0E66E04EF34F0ACD9E1CFD9FFE2CFF2
:10644000DAFF1200E552E5CFDAFFE7CFD9FF1200FD
:10645000CC518FD9EF501200A951E96EEA6ACEEF04
:1064600033F0E66E000EDA20E66E1200D9CFE9FFB7
:10647000DACFEAFF1200E66AC9EF33F0DECFE9FFB8
:10648000DDCFEAFF1200CC2BCC51006E016A000E6A
:1064900000181200E96E000EDA20EA6E1200D890A1
:1064A000F336E8061200010EF36EDB501200EA220A
:1064B000EECF50F0EFCF51F012006BD9100EE66E18
:1064C00009EF34F0006EDF50005C1200D00EE926B8
:1064D000050EEA22EF50016E010E01521200E66E27
:1064E000C9EF33F0EE54000EEE54000EEE541200DD
:1064F000DF6EDFCFE6FFCA51016A000F006E020EA9
:106500000122B3D950EC4AF058EF34F0DECF00F05E
:10651000DDCF01F0D89001501200E76E010EE7CFF9
:10652000DBFF0A01A2511200FC0EDBCFE9FFFD0EDA
:10653000DBCFEAFF1200EA22EECF52F0EFCF53F0AA
:1065400012002CD9E8061200DBCFF4FFF350F45C04
:106550001200FD0EDBCFE9FFEA6A1200E652E652B6
:10656000E6521200CB51B9EF33F0FB0EDBCFE9FF5F
:10657000FC0EDBCFEAFF1200EA22EE50EFCFEAFF7B
:10658000E96E00501200036E050EE15C1200A95185
:10659000EA6A310FE96E0E0EEA22EF500E01EA6A46
:1065A000AC25E96EAD51EA2212000122110EDB503A
:1065B000E8240024E96E000E0120EA6EE552E7505F
:1065C000EF6E110E1200040EEECFDBFF050EEECFC4
:1065D000DBFF060EEECFDBFF070EEECFDBFF120078
:1065E000DDD8000EE926010EEA221200006EFD0E33
:1065F000DB50005C1200EA6A290FE96E010EEA2204
:106600001200DBCFE6FFE66A1200036E046A02C0E6
:10661000E6FFE66E04C0E6FFB0EC51F0056E120036
:10662000020EDBCF50F0030EDBCF51F01200016EF3
:10663000FD0EDB50015C1200DECF00F0DDCF01F07B
:10664000000E005C100E01581200EECFE6FFEECFF8
:10665000E6FFEECFE6FFEFCFE6FF1200070EA5152F
:10666000506E010E5052120005016907000E6A5B60
:106670006B511200020EDB6A030EDB6A1200000E81
:10668000E926030EEA221200010EDBCFE9FFEA6AD7
:10669000120084D8410EE926010EEA221200040EEF
:1066A000DB28E96EEA6ACEEF33F0E66EE66AEBECE1
:1066B00052F0E552E5521200010EDBCF00F0020E5F
:1066C000DBCF01F01200FD0EDB50F80F006E010E63
:1066D00000521200020EDBCFEEFF030EDBCFEDFF08
:1066E0001200FD0EDBCF00F0190EE76E001812004D
:1066F000D9CF00F0DACF01F01200100E696F270E2B
:106700006A6F1200BBD8010FACDE010E19EF32F038
:1067100087DE58EF34F0E66AE8D8010E83EF34F0F4
:106720007FDEC3EF32F098DE010EE9260E0E120076
:1067300083DEAEEF32F0010ED2DE7BDE8DEF32F083
:10674000D4D8030E19EF32F0B3D87CD685DE790E9B
:10675000E9260E0E120070DEE6521200C9DF110E9D
:10676000BBD8110EDB2A12005BDE036E070EE15C64
:106770001200EA6A000FE96E030EEA221200BCD88A
:10678000FF0EEE541200D950010F84DEEE50ED10D2
:106790001200D9CFE6FFDACFE6FF1200D890E93633
:1067A000EA361200110EE926050E81DE67DE010EC3
:1067B0001200010E63D8040F31EF32F04DDE490EA6
:1067C000E9260E0E120057DE030E19EF32F0110EFD
:1067D000DB50D9244AEF32F070DEFCEC51F0006E51
:1067E000080EE15C1200A7DE5050525C5150535825
:1067F0001200030E06DF020E01EF33F01ADEE76E21
:10680000050EE7CFDBFF12008AEC2FF051D8E552DE
:106810001200E66AE66AF80EE66EE66AE66A1200BA
:106820000D0E006E0A0114DE005C12009EDE040EE6
:10683000DBCFEEFF050E12007EDE52505018120024
:10684000110EE926050EEA22120010DEEE50ED10C0
:1068500012000CDE010EEE18120008DE020EEE1819
:10686000120004DE030EEE18120000C0E6FF01C0A5
:10687000E6FF1200006EECDD005C1200DADDE66A75
:10688000D9501200F8DD050E82EF33F0E1DDE66E3F
:10689000E66AD50E006E860E90EF33F057DF07DE06
:1068A00042DFEA2250501200E6DD010E19EF32F00D
:1068B000E552E552E552120071DF9E0EE926050E03
:1068C000BCEF32F06BDF6C0EE926050EBCEF32F048
:1068D00075DFEDDD93EF33F0DB500F01D924DADD06
:1068E000EF6A120038DFAEEF32F0D950020F31EF0D
:1068F00032F031DFE6521200B9DDD880120018DF25
:0E690000C1DF8BEF33F095DD0A01A2511200CA
:02690E0039EC62
:106910003AF0A098636A626A0F01266B01EC3BF0C3
:1069200002E2E16AE552E16E00500F01C5EC3AF077
:10693000DF6ADF50006E016A0C0E005C000E015829
:1069400010E2DF50040DF3CFE9FFF4CFEAFF000EB1
:10695000E926040EEA22EE6AEE6AEE6AEE6ADF2AA1
:10696000E8D7658C0F01386B6598659C62A607D0E7
:10697000629604018F6B946B956B966BF7D704014D
:10698000010EA86FA96FAA6BAB6B9C6BDF6A030E3D
:10699000DF5C11E2EA6ADF342EEC3BF0EA22EE6AB9
:1069A000ED6AEA6ADF3435EC3BF0EA22EE6AED6A22
:1069B00077EC3AF0ECD70401080E856F040E866F71
:1069C0000F01160E266F0401300E026F040E036FC6
:1069D000400E016F840E006F0401796B786B3CEF01
:1069E0003AF039EC3AF082BE06D0656A0F01366B98
:1069F0000401786B7CD0040178510CE1656A0F01C9
:106A0000366BC5EC3AF065B602D06586FCD704015A
:106A1000010E786F78050AE165BA08D0626A0F0145
:106A2000366B368136890401020E786F6250040B92
:106A300006E00F013651040B02E0629459DB65B2A7
:106A400056D06250010B09E00F013651010B05E0F1
:106A50005EDF0401040E786F62906250100B06E056
:106A60000F013651100B02E033DB629862AC15D097
:106A70000F0136AD0AD0CCEC3AF0730E43EC3AF08D
:106A800002E2E16AE552E16E0050629C0401A65107
:106A900001E0A607A65101E1F3D86250200B05E002
:106AA0000F013651200B01E002DB6250020B14E0B3
:106AB0000F013651020B10E0CCEC3AF0E6687F0E85
:106AC000E66E8EEC4EF0006E060EE15C02E2E16ACC
:106AD000E552E16E0050636A040E0401E76E781916
