:020000040000FA
:061000002BEF4BF0120083
:0610080028EF08F01200C1
:061018001BEF21F01200A5
:06102A0003000A9700001C
:10103000780100000700000008970000FE02000091
:10104000020000008A960000800200007E0000007E
:10105000DACFE4FFE9CFE4FFEACFE4FFF3CFE4FF28
:10106000F4CFE4FFE6529E90FE0ECF6E360ECE6EAB
:1010700009B28C820080050E0101855D33E10450C8
:1010800004E15F0E831486118C6E02A016D009A4B1
:1010900002D008EC1EF096EC1FF021AE0ED0219E7F
:1010A000868D0EEC1EF009A404D02A2A2B222C22B5
:1010B0002D22B7EC1DF001E1029003A00BD09FECB4
:1010C0001FF025AE07D0259E5AEC1EF023EC1EF033
:1010D00001E10390010E021445E1010E031401E148
:1010E00078D040D0060E855D3FE102A01FD009A454
:1010F00002D008EC1EF06BEC1CF021AE17D07F0E76
:101100002114216E868D0EEC1EF009A404D02A2A2B
:101110002B222C222D228FAF03D0868F8C8E02D0D3
:10112000869F8C9EB7EC1DF001E1029003A014D0C5
:101130007DEC1CF025AE10D07F0E2514256E5AECE8
:101140001EF093AF03D0868B8C8A02D0869B8C9A3C
:1011500023EC1EF001E10390010E021403E1010EE5
:10116000031437E0009035D0070E855D32E102A010
:1011700030D000900EEC1EF0B7EC1DF001E10290B3
:1011800009A402D008EC1EF06BEC1CF021AE12D0CA
:101190007F0E2114216E868D09A405D02A2A000E07
:1011A0002B222C222D228FAF03D0868F8C8E02D043
:1011B000869F8C9E7DEC1CF025AE0BD07F0E2514F7
:1011C000256E868993AF03D0868B8C8A02D0869B4E
:1011D0008C9A500E861542E0045005E10F0E8314E0
:1011E00086118C6E0ED086AF02D08B8401D08B948A
:1011F00086AB02D0898401D0899486BD8B8C86B958
:10120000898A86AD19D086AF0CD01606000E175A03
:10121000185A195A09A410D02E062F5A305A315A8A
:101220000BD0162A000E17221822192209A404D066
:101230002E2A2F223022312286A90DD086AB06D04D
:101240001A06000E1B5A1C5A1D5A05D01A2A000EE7
:101250001B221C221D22AF0E8617E2D0020E855DD6
:1012600058E105A03AD0AF050A6EAD51AE111AE1B2
:10127000B0EC1DF0EF500001EA6A8025E96E815163
:10128000EA22EF6AE0EC1FF0EE6AED6AE6EC1FF08E
:10129000EE6AED6AB0EC1DF0EF6A0DEC20F0EE6A3C
:1012A000ED6A1BD0E0EC1FF0B0C1EEFFB1C1EDFF65
:1012B000E6EC1FF0ADC1EEFFAEC1EDFFB0EC1DF0EE
:1012C000ACC1EFFF0DEC20F0EE50ED1006E10DEC9F
:1012D00020F0ADC1EEFFAEC1EDFF00018A5101016A
:1012E000AC5D17E1000184510101AD190CE1000171
:1012F00085510101AE1907E1010EB96FB66BC151FD
:1013000008E08A9806D0B96B010EB66FC15101E0B2
:101310008A88850502E0000E01D0010E5A6E020E89
:10132000855D02E0000E01D0010E5A100DE028ECA0
:101330001EF076E08707000E885B895B8A5B28ECED
:101340001EF06EE000906CD0030E855D29E18B519C
:1013500022E0B2C15AF0B3C15BF0D8905B325A328E
:10136000D8905B325A325A50BB6EBFC15CF0C0C1DC
:101370005DF0040ED8905C365D36E804FBE1300E7B
:101380005C16000E5D16CF0EBA145C105A6E5DC06E
:101390005BF0E85003D0BB6ACF0EBA14BA6E3FD0F0
:1013A000040E855D3DE18651000823E2045002E110
:1013B0008D9001D08C92860503E18D848D82898C7D
:1013C000020E865D03E18D848D82899C030E865D0D
:1013D00003E18D948D82899C040E865D03E18D84EA
:1013E0008D92899C050E865D09E18D948D92899C74
:1013F00005D0045002E18D8001D08C82AC510008F0
:1014000006E2045002E18B9207D0899205D0045085
:1014100002E18B8201D08982EAEC1CF00E90008000
:1014200009A49DD0010E001404E1080E091401E185
:1014300096D0050E0101855D02E0000E01D0010E7F
:101440005B6E070E855D02E0000E01D0010E5A6E44
:10145000060E855D02E0000E01D0010E5A105B10F1
:1014600001E17DD0098E26C080F127C081F128C01E
:1014700082F129C083F1ADA2FED783C1AEFFADA238
:10148000FED782C1AEFFADA2FED781C1AEFFADA235
:10149000FED780C1AEFF2AC080F12BC081F12CC0E5
:1014A00082F12DC083F1ADA2FED783C1AEFFADA204
:1014B000FED782C1AEFFADA2FED781C1AEFFADA205
:1014C000FED780C1AEFF1EC080F11FC081F120C0D9
:1014D00082F121C083F1ADA2FED783C1AEFFADA2E0
:1014E000FED782C1AEFFADA2FED781C1AEFFADA2D5
:1014F000FED780C1AEFF8CC180F18DC181F18EC15C
:1015000082F18FC183F1ADA2FED783C1AEFFADA240
:10151000FED782C1AEFFADA2FED781C1AEFFADA2A4
:10152000FED780C1AEFF2EC080F12FC081F130C048
:1015300082F131C083F1ADA2FED783C1AEFFADA26F
:10154000FED782C1AEFFADA2FED781C1AEFFADA274
:10155000FED780C1AEFFADA2FED70A0EAE6E0C5014
:101560001CE081500B6EE8500D18E81C0C1415E0BF
:10157000010E0E1412E10BC0DCF00E80026A036A49
:1015800000800F6A106A116A016A200E015C05E290
:10159000015010EC1DF0012AF8D700A001D1010183
:1015A000856B0F5001E1E4D009B28C8006B08C94B9
:1015B0000001A85102E0010EA86F1150C1EC20F00B
:1015C000EF50126E050E125C03E124EC20F005D002
:1015D000060E125C14E1AFEC1EF057EC1BF05AEC57
:1015E0001DF0F9EC20F00E0EE0EC1BF0EECF98F1C0
:1015F000EECF99F1EECF9AF1EFCF9BF109D0070E24
:10160000125C0DE1AFEC1EF057EC1BF05AEC1DF034
:10161000BCEC1FF04DEC1CF0ECEC1FF046D0020EC1
:10162000125C22E155EC1FF0F9EC20F0270EFDECE6
:1016300020F0EECFADF1EDCFAEF157EC1BF017EC93
:101640001EF0EFCFACF1F9EC20F0290EFDEC20F00C
:10165000EFCFAFF1F9EC20F02A0EFDEC20F0EECF49
:10166000B0F1EDCFB1F121D0120403E155EC1FF040
:101670001CD0030E125C0EE155EC1FF0ECEC1FF0D9
:10168000F9EC20F02C0EFDEC20F0EECFB2F1EDCF16
:10169000B3F10BD0040E125C08E116EC21F0BCECA7
:1016A0001FF017EC1EF0EFCFACF1070E0101855DC6
:1016B00002E0000E01D0010E5B6E060E855D02E0B9
:1016C000000E01D0010E5A6E050E855D02E0000E7F
:1016D00001D0010E5A105B1031E08BA909D087C1EF
:1016E0001EF088C11FF089C120F08AC121F01AD0F4
:1016F0008BA104D01E6A1F6A206A216A8BA304D0C2
:10170000226A236A246A256A8BA505D01E681F6891
:1017100020687F0E216E8BA705D02268236824687D
:101720007F0E256EB7EC1DF002E0028001D0029022
:1017300023EC1EF002E0038001D0039009A40CD03A
:10174000266A276A286A296A2A6A2B6A2C6A2D6AFD
:101750002E6A2F6A306A316A115010EC1DF0112A7E
:101760001350115C01E3116A0F501AE00F0618D0F4
:101770000001A8050CE10001E80EAB6F030EAC6F91
:10178000A9C0ADF0AAC0AEF00001020EA86F010121
:10179000876B886B896B8A6B06B08C8409B28982EF
:1017A00080AE078008A002D081A00780045003E12A
:1017B0008C9C8C9802D08B9C899A09AE06D09E9006
:1017C000FE0ECF6E360ECE6E099E09A203D0899210
:1017D0008C908C92E552E5CFF4FFE5CFF3FFE5CF97
:1017E000EAFFE5CFE9FFE5CFDAFF11000101C46BA5
:1017F000C56BC66BC76BC86BC96B61EC1EF0D06B59
:10180000D16BD26BD36BD46BD56BD66BD76BD86BDC
:10181000D96BDA6BDB6BDC6BDD6BDE6BDF6BE06B8C
:10182000E16BE26BE36BE46BE56BE66BE76BE86B3C
:10183000E96BEA6BEB6BEC6BED6BEE6BEF6B120035
:10184000D9CFE6FFE1CFD9FFE652DF6A020EDF5CB7
:101850002DE2DF50040DF3CFE9FFF4CFEAFF8C0E49
:10186000E926010EEA22010EEE6EEE6AEE6AEE6ADB
:10187000DF50040DF3CFE9FFF4CFEAFF940EE92621
:10188000010EEA22EE6AEE6AEE6AEE6ADF50040D9D
:10189000F3CFE9FFF4CFEAFFA40EE926010EEA2216
:1018A000EE6AEE6AEE6AEE6ADF2AD0D70101856B36
:1018B0000101866B0101876B886B896B8A6B010163
:1018C000AD6BAE6B0101AC6B0101AF6B0101B06B95
:1018D000B16B0690096ACD82CD9ECD9CCD9ACD98F4
:1018E000CD96CD94CF6ACE6A9F809E909D80CD800C
:1018F00092809F9C010EE66EE66A8BEC2CF0E5521E
:10190000E552010EE66E0B0EE66E8BEC2CF0E55206
:10191000E5528D8496948D829692898C929C8D80CE
:1019200096908B8294928C9C959C8C9E959E8C9884
:1019300095988C9A959A949E828E000000000000E3
:101940000000000000000000000000000000000097
:101950000000000000000000000000000000000087
:10196000948E829E0101010EC16F05808A98939822
:10197000899692960101010EB66F046A0101010E6B
:10198000B96FDF6A200EDF5C09E2DF50EA6A580FA8
:10199000E96E010EEA22EF6ADF2AF4D70101BA6B81
:1019A000BB6BBC6BBD6B076A0101C36B0101010E10
:1019B000C26F0F6A106A116A010E136E050E146E63
:1019C000156A9380F19E0880939681960B6A0C6A43
:1019D0000D6A0E90D8EC1AF0E552E552E7CFD9FF28
:1019E0001200B7EC1BF0030ED7EC1CF005EC1FF057
:1019F000E66AF2EC1FF01EEC20F00001975101E0C6
:101A0000ABD0DF0420E110EC20F007E10101010E72
:101A1000C16F059013EC1DF00ED067EC1CF0010EA9
:101A2000EE1805E1ED5003E10101C16B03D00101A6
:101A3000010EC16F0580000EE66EE66AB9C1E6FFD1
:101A40001AEC1EF087D0020EDF5C2DE110EC20F0C6
:101A500008E1046A96909492959C959E9598959A23
:101A60001BD067EC1CF0010EEE180CE1ED500AE102
:101A7000010E37EC1EF094949294949C929A959255
:101A8000929268D067EC1CF0020EEE1863E1ED5004
:101A900061E1020E37EC1EF094849284948C928A59
:101AA0009582928257D0040EDF5C07E1010EDBCFF6
:101AB00084F0020EDBCF85F04DD0050EDF5C07E130
:101AC000010EDBCF82F0020EDBCF83F043D0080E95
:101AD000DF5C0FE167EC1CF0040ED880EE54000EC2
:101AE000ED5403E2040E68EC1EF0010EDBCF7EF035
:101AF00031D0090EDF5C0FE167EC1CF0060ED880D8
:101B0000EE54000EED5403E2060E68EC1EF0010EDA
:101B1000DBCF7FF01FD00A0EDF5C03E16FEC1EF01D
:101B200009D00B0EDF5C03E16FEC1EF013D00C0E3E
:101B3000DF5C07E1010EDBCF88F0020EDBCF89F01E
:101B400009D00D0EDF5C06E110EC20F002E0088009
:101B500001D00890BCEC1BF0030EE15C02E2E16AEC
:101B6000E552B4EF1BF036EC20F0E00EE66E010E0D
:101B7000B7EC20F082EC20F0DF6E0001975129E1F4
:101B80000101C2511DE0D051D111D211D31105E193
:101B9000D851D911DA11DB1103E08BEC1DF010E103
:101BA000E051E111E211E31105E1E851E911EA1117
:101BB000EB1103E090EC1DF003E10001978D09D0DB
:101BC000C86BC96BCA6BCB6BA1EC1DF0E66A2DEC40
:101BD0001EF0E2EF1CF036EC20F008EC21F0B7EC40
:101BE00020F040EC20F033E10101C25127E0D05158
:101BF000D111D211D3110AE1D851D911DA11DB1167
:101C000005E1DC51DD11DE11DF1103E08BEC1DF08D
:101C100015E1E051E111E211E3110AE1E851E911A6
:101C2000EA11EB1105E1DC51DD11DE11DF1103E0FA
:101C300090EC1DF003E10001978D09D0C86BC96BD2
:101C4000CA6BCB6BDFCFE6FFE66A2DEC1EF0E2EF4E
:101C50001CF04DEC20F008EC21F040EC20F011E1FC
:101C60000101C25106E0BCEC1DF003E10001978DBB
:101C700008D0D4EC1DF0DFCFE6FF010EE66E2DECB0
:101C80001EF0E2EF1CF04DEC20F0E00EE66E010ECF
:101C900082EC20F0DF6E0001975111E10101C25189
:101CA00006E0BCEC1DF003E10001978D08D0D4ECF8
:101CB0001DF0A1EC1DF0010EE66E2DEC1EF0E2EF22
:101CC0001CF0B7EC1BF0050E3FEC1EF00EB011D26D
:101CD00009B408D0CCEC1CF005E2030ECC6FCD6B40
:101CE000CE6BCF6BFE0EDB5032E10101800ED715BB
:101CF00014E0800ED31517E1000EC1EC1FF0D06D7B
:101D0000D11FD123D21FD223D31FD323D86DD91FE4
:101D1000D923DA1FDA23DB1FDB23800EE71517E058
:101D2000800EE31503E00001978DE3D1000EC9ECAE
:101D30001FF0E06DE11FE123E21FE223E31FE32335
:101D4000E86DE91FE923EA1FEA23EB1FEB230101FA
:101D50002A6B2B6B2C6B2D6B2E6BD8C138F0D9C135
:101D600039F0DAC13AF0DBC13BF0020E51EC1DF064
:101D700038500101D05D466E3950D159476E3A5006
:101D8000D259486E3B50D359496EDCC138F0DDC1A1
:101D900039F0DEC13AF0DFC13BF0060E51EC1DF028
:101DA000465038240101D06F47503920D16F485038
:101DB0003A20D26F49503B20D36FE8C138F0E9C1D7
:101DC00039F0EAC13AF0EBC13BF0020E51EC1DF0E4
:101DD00038500101E05D466E3950E159476E3A5086
:101DE000E259486E3B50E359496EECC138F0EDC101
:101DF00039F0EEC13AF0EFC13BF0060E51EC1DF0A8
:101E0000465038240101E06F47503920E16F4850B7
:101E10003A20E26F49503B20E36F01012F6B09A488
:101E20002ED0FD0EDB500BE1100E2F6FCCC12BF12D
:101E3000CDC12CF1CEC12DF1CFC12EF187D013EC45
:101E40001FF002E60AEC1CF00FE3A1EC1BF00EE120
:101E500041EC1FF002E60AEC1CF006E3A1EC1BF0DB
:101E600005E1800EDF1502E01DEC1EF0040EDB50D4
:101E700003E001012F856AD001012F8167D0CCC119
:101E800046F0010EDDEC1DF01FE013EC1FF002E642
:101E90000AEC1CF00FE3A1EC1BF00EE141EC1FF08B
:101EA00002E60AEC1CF006E3A1EC1BF005E1800E53
:101EB000DF1502E01DEC1EF0040EDB5003E0010113
:101EC0002F8502D001012F81CCC146F0020EDDEC3E
:101ED0001DF03CE0040EDB6A95EC1EF00101E051C0
:101EE000EE24466EE151EE20476EE251EE20486E40
:101EF000E35183EC1BF002E60AEC1CF01DE3A1ECBD
:101F00001BF01CE1EC0EE96E010EEA6EE851EE24C6
:101F1000466EE951EE20476EEA51EE20486EEB51D5
:101F200083EC1BF002E60AEC1CF006E3A1EC1BF0CC
:101F300005E1800EEF1502E01DEC1EF0040EDB50F3
:101F400003E001012F8702D001012F8390EC1EF0E6
:101F5000EE500101D85DD86FEE50D959D96FEE50CF
:101F6000DA59DA6FEE50DB59DB6FEC0EE96E010ED9
:101F7000EA6EEE50E85DE86FEE50E959E96FEE5019
:101F8000EA59EA6FEE50EB59EB6F0001D90502E117
:101F90008D908B92D0C130F1D1C131F1D2C132F1EB
:101FA000D3C133F1FE0EDB5009E0C8C138F1C9C11D
:101FB00039F1CAC13AF1CBC13BF102D03FEC1DF07F
:101FC000D8C148F1D9C149F1DAC14AF1DBC14BF1BD
:101FD000DCC140F1DDC141F1DEC142F1DFC143F1BD
:101FE000E0C134F1E1C135F1E2C136F1E3C137F1CD
:101FF000FE0EDB5006E001013C6B3D6B3E6B3F6B20
:1020000002D048EC1DF0E8C14CF1E9C14DF1EAC144
:102010004EF1EBC14FF1ECC144F1EDC145F1EEC120
:1020200046F1EFC147F1FE0EDB5003E00101070E60
:1020300002D00101060E296F09AA4DD0C5EC20F08F
:10204000E8EC1EF054EC20F0420E466E810EE1ECFE
:102050001AF048C1E6FF49C1E6FF4AC1E6FF4BC19D
:10206000E6FFE8EC1EF03D0E466E810EE1EC1AF044
:1020700040C1E6FF41C1E6FF42C1E6FF43C1E6FFC2
:10208000E8EC1EF0CCEC20F0E8EC1EF0330E466ECF
:10209000810E76EC20F02E0E466E810EE1EC1AF0E9
:1020A0004CC1E6FF4DC1E6FF4EC1E6FF4FC1E6FF62
:1020B000E8EC1EF0290E466E810EE1EC1AF044C1E8
:1020C000E6FF45C1E6FF46C1E6FF47C1E6FFE8EC93
:1020D0001EF0DCEC1BF009BC0AD013500F5CFDE2D3
:1020E0000EB005D0F2EC1AF001E3106A0F2ABCEC36
:1020F0001BF0050EE15C02E2E16AE552B4EF1BF071
:102100004EEC1FF0D40EE66E010E88EC20F0E66E69
:10211000E40EE66E010EDBEC1EF00001975101E0CB
:102120001200F9EC15F0BCEF1BF0B7EC1BF0250E1C
:10213000E126DE6ADD6A020EDB6A030EDB6A040E4C
:10214000DB6A050EDB6A060EDB6A070EDB6A080E29
:10215000DB6A090EDB6A0A0EDB6A0B0EDB6A0C0E09
:10216000DB6A0D0EDB6A0E0EDB6A0F0EDB6A100EE9
:10217000DB6A110EDB6A120EDB6A130EDB6A140EC9
:10218000DB6A150EDB6A160EDB6AF6EC0BF0BCECB4
:1021900020F01EEC20F0E66AD950020F70EC20F01F
:1021A000060F70EC20F00A0F70EC20F00E0F70ECB0
:1021B00020F0120F6CEC1FF00101C25101E185D03B
:1021C000120EDB50010802E20001978DDECF46F0CF
:1021D000DDCF47F0010E465C000E475808E395EC52
:1021E00020F0A80ED880EE54610EED5402E20001FA
:1021F000978D020EDBCF39F0030EDBCF3AF0040EE1
:10220000DBCF3BF0050E95EC1DF002E68FEC1CF0E9
:1022100008E3D950020FDCEC1CF002E6ABEC1CF03A
:1022200002E20001978D060EDBCF39F0070EDBCFFF
:102230003AF0080EDBCF3BF0090E95EC1DF002E6FC
:102240008FEC1CF008E3D950060FDCEC1CF002E622
:10225000ABEC1CF002E20001978D0A0EDBCF39F0E7
:102260000B0EDBCF3AF00C0EDBCF3BF00D0E95ECF6
:102270001DF002E68FEC1CF008E3D9500A0FDCECED
:102280001CF002E6ABEC1CF002E20001978D0E0E92
:10229000DBCF39F00F0EDBCF3AF0100EDBCF3BF087
:1022A000110E95EC1DF002E68FEC1CF008E3D950FE
:1022B0000E0FDCEC1CF002E6ABEC1CF002E20001BD
:1022C000978D0001975101E062D20EB060D209AA49
:1022D00039D0230E466E810EE1EC1AF0DECF46F0C7
:1022E000DDCF47F080EC1BF01A0E466E810EE1EC5C
:1022F0001AF0D950020F21EC20F0110E466E810E1B
:10230000E1EC1AF0D950060F21EC20F0060E466ED3
:10231000810EE1EC1AF0D9500A0F21EC20F0FB0EEF
:10232000466E800EE1EC1AF0D9500E0F21EC20F031
:10233000EF0E466E800EE1EC1AF0120E79EC1FF0F3
:10234000DCEC1BF00A0EDBCF43F10B0EDBCF44F1CC
:102350000C0EDBCF45F10D0EDBCF46F1000E010177
:10236000436D441F4423451F4523461F46230E0E3D
:10237000DBCF47F10F0EDBCF48F1100EDBCF49F179
:10238000110EDBCF4AF1000E476D481F4823491F4D
:1023900049234A1F4A23020EDBCF4AF0030EDBCF4C
:1023A0004BF0040EDBCF4CF0050EDBCF4DF0D950D7
:1023B0000A0F1EEC1DF046C03FF147C040F1060E6B
:1023C000DBCF4AF0070EDBCF4BF0080EDBCF4CF033
:1023D000090EDBCF4DF0D9500E0F1EEC1DF046C09C
:1023E00041F147C042F10A0EDBCF4EF00B0EDBCFBE
:1023F0004FF00C0EDBCF50F00D0EDBCF51F04EC086
:1024000038F04FC039F050C03AF051C03BF00A0EDE
:10241000DBCF3DF00B0EDBCF3EF00C0EDBCF3FF001
:102420000D0EDBCF40F04DEC4AF034C04AF035C021
:102430004BF036C04CF037C04DF00E0EDBCF52F0F3
:102440000F0EDBCF53F0100EDBCF54F0110EDBCFAD
:1024500055F052C038F053C039F054C03AF055C06E
:102460003BF00E0EDBCF3DF00F0EDBCF3EF0100E3B
:10247000DBCF3FF0110EDBCF40F04DEC4AF04A507D
:102480003424466E4B503520476E4C503620486EF3
:102490004D503720496E7BEC1DF0D950170FE96E77
:1024A0007EEC1FF00AEC48F0E552E552E552E552A9
:1024B000F3CF46F0F4CF47F01F0EF3CFDBFF200E33
:1024C000F4CFDBFF210EDB6A220EDB6A01013D6BDC
:1024D000080EF36E170EF3CFDBFF180EDB6A190E32
:1024E000DB6A1A0EDB6A1F0EDBCF46F0200EDBCF55
:1024F00047F0210EDBCF48F0220EDBCF49F0D95058
:10250000170FD3EC20F04650EE5C4750EE58485081
:10251000EE584950EE5818E201013D2B3D51E82498
:10252000030F4A6E010E4A5204E0E846FE0B4A06CB
:10253000FCE1466EF5EC20F046AE03D047684868F3
:1025400049687BEC1DF0CFD7D9501F0FD3EC20F09A
:1025500001013D511F0BD7EC20F0EECF49F007E011
:10256000D8904932483247324632E806F9E146C04F
:1025700050F1F5EC20F001013D294E6ED9501F0FAE
:10258000D3EC20F04E501F0BF9EC1FF0EECF4DF0C6
:1025900007E0D8904D324C324B324A32E806F9E12E
:1025A0004A5046264B5047224C5048224D50492213
:1025B000230E46C0DBFF240E47C0DBFF3FC14AF0BD
:1025C00040C14BF04C6A4D6A4BAE02D04C684D682E
:1025D0004A500101435D466E4B504459476E4C5082
:1025E0004559486E4D504659496E1B0E46C0DBFF9B
:1025F0001C0E47C0DBFF76EC1EF00001800E471476
:1026000010E03A683B681B0EDBCF3FF01C0EDBCFBF
:1026100040F02AEC3EF01B0E38C0DBFF1C0E39C028
:10262000DBFF41C14AF042C14BF04C6A4D6A4BAEF0
:1026300002D04C684D684A500101475D466E4B50D0
:102640004859476E4C504959486E4D504A59496E49
:102650001D0E46C0DBFF1E0E47C0DBFF1D0EDBCF8D
:1026600046F01E0EDBCF47F00001800E471410E04D
:102670003A683B681D0EDBCF3FF01E0EDBCF40F00B
:102680002AEC3EF01D0E38C0DBFF1E0E39C0DBFF0A
:1026900076EC1EF0230EDBCF48F0240EDBCF49F0A2
:1026A00047504918E8AE02D0493404D04850465C3F
:1026B0004950475854E21D0EDBCF4AF01E0EDBCFC7
:1026C0004BF0230EDBCF4CF0240EDBCF4DF04B5004
:1026D0004D18E8AE02D04D3404D04C504A5C4D50F9
:1026E0004B583DE23FC146F040C147F0486A496A55
:1026F00047AE02D048684968430EE96E010EEA6EA3
:10270000EE50465C0101D46FEE504758D56FEE5045
:102710004858D66FEE504958D76F41C146F042C174
:1027200047F0486A496A47AE02D048684968470E90
:10273000E96E010EEA6EEE50465CE46FEE504758CB
:10274000E56FEE504858E66FEE504958E76FDECF20
:10275000C8F1DDCFC9F161EC1EF09CD816D00001A4
:10276000D90502E18D908B920101080E296F09AA0B
:1027700002D0A4EC1EF013500F5CFDE20EB005D0A9
:10278000F2EC1AF001E3106A0F2ABCEC1BF0250EE4
:10279000E15C02E2E16AE552B4EF1BF0D8EC1FF015
:1027A000010EDF6EECEC1EF0010EE66ED80EE66E4A
:1027B000010E88EC20F0E66EE80EE66E010E88EC65
:1027C00020F00101C85D000EC959000ECA59000E63
:1027D000CB5904E2010EC86FC96B09D0D880A80E8E
:1027E00047EC1EF006E2A80EC86F610EC96FCA6BF7
:1027F000CB6B13500F5CFDE2DF040AE1F29E010196
:1028000028EC1EF003E1855101E1DF6AF28EF4D776
:1028100016C038F017C039F018C03AF019C03BF0B4
:102820004FEC1EF00101D825D46F3550D921D56F5A
:102830003650DA21D66F3750DB21D76F1AC038F007
:102840001BC039F01CC03AF01DC03BF04FEC1EF02D
:102850000101E825E46F3550E921E56F3650EA21A2
:10286000E66F3750EB21E76FCC6BCD6BCE6BCF6B48
:1028700011D8BCEC1BF0E2EF1CF0ECEC1EF0E66AA9
:10288000D40EE66E010EB7EC20F0DBEC1EF002D8A1
:10289000BCEF1BF0B7EC1FF08C8009AA1BD0E90E2F
:1028A000466E800EE1EC1AF0C8C1E6FFC9C1E6FF32
:1028B000CAC1E6FFCBC1E6FF96EC1BF0470E466EA1
:1028C000810EE1EC1AF02CEC1DF02E0E466E810EFE
:1028D00063EC20F00EB0A6D0D880A80E010147EC22
:1028E0001EF003E3BCEC1DF008E1C90E466E800E3D
:1028F000E1EC1AF0DCEC1BF095D08BEC1DF004E160
:1029000090EC1DF001E18ED0CCC12FF1E4EC1DF074
:1029100002E18D908B920101800ED71502E066ECEA
:102920001DF0800EE71502E06EEC1DF0D40EE96E8E
:10293000010EEA6E030EEB50E719E8AE02D0E73560
:1029400008D0E451EE5CE551EE58E651EE58E751FF
:10295000EE582AE313EC1CF0EDEC1DF0010190ECB5
:102960001DF01CE0BDEC1CF0AAEC1BF0B4EC1CF05C
:102970005BEC1BF004E10101010E346F11D043EC5C
:102980001CF007E101013469356936697F0E376F44
:1029900034D088EC1DF0F6EC1DF02FD00101346B23
:1029A000356B366B376B29D013EC1CF0F6EC1DF051
:1029B00001018BEC1DF01CE0B4EC1CF0AAEC1BF048
:1029C000BDEC1CF05BEC1BF004E10101010E306F6B
:1029D00011D043EC1CF007E1010130693169326923
:1029E0007F0E336F0AD088EC1DF0EDEC1DF005D0A2
:1029F0000101306B316B326B336BD1EC1FF048EC63
:102A00001DF07DEC1EF009AA02D0A4EC1EF08C9003
:102A100013500F5CFDE20EB005D0F2EC1AF001E3AA
:102A2000106A0F2A040EE15C02E2E16AE552B4EF9B
:102A30001BF0B7EC1BF0040E3FEC1EF04EEC1FF049
:102A4000D80EE66E010E82EC20F0CCEC1CF005E214
:102A5000030ECC6FCD6BCE6BCF6BC25107E0C45170
:102A6000C511C611C71102E10001978D95EC1EF04A
:102A70000101D851EE24D46FD951EE20D56FDA512F
:102A8000EE20D66FDB51EE20D76F95EC1EF0EE50A6
:102A9000D85DE46FEE50D959E56FEE50DA59E66F24
:102AA000EE50DB59E76FD735000ED71909E6D8800D
:102AB000000ED455000ED555000ED655000ED75534
:102AC0000CE2D4C1DFFF010ED5C1DBFF020ED6C17F
:102AD000DBFF030ED7C1DBFF04D0B4EC1CF0FBEC32
:102AE0001CF00101C2512FE0D880FF0EC455FF0E2B
:102AF000C555FF0EC655000EC75504E2980E466E2A
:102B0000800E63D076EC1DF002E6C1EC1DF004E20D
:102B10006C0E466E800E59D024EC1CF004E23E0E82
:102B2000466E800E52D0BFEC1BF0E8AE02D03C34B3
:102B300002D0FFEC1DF007E307EC1DF004E01A0ED5
:102B4000466E800E42D00101E735000EE71909E616
:102B5000D880000EE455000EE555000EE655000E37
:102B6000E7550CE2E4C1DFFF010EE5C1DBFF020E19
:102B7000E6C1DBFF030EE7C1DBFF04D0BDEC1CF0B8
:102B8000FBEC1CF00101C25125E076EC1DF002E6E1
:102B9000C1EC1DF004E2EE0E466E7F0E16D024EC62
:102BA0001CF004E2C00E466E7F0E0FD0BFEC1BF08F
:102BB000E8AE02D03C3402D0FFEC1DF00BE307EC92
:102BC0001DF008E09C0E466E7F0EE1EC1AF0020E3E
:102BD000E66E05D00001975105E10BD8E66A9FEC3F
:102BE00028F0E552040EE15C02E2E16AE552B4EF3E
:102BF0001BF0B7EC1FF08B8C0EB003D109AA1BD0D1
:102C0000920E466E7F0EE1EC1AF0C4C1E6FFC5C11C
:102C1000E6FFC6C1E6FFC7C1E6FF96EC1BF08C0ECF
:102C2000466E7F0EE1EC1AF02CEC1DF0860E466E1F
:102C30007F0E63EC20F00101C25110E0C451C511B8
:102C4000C611C71102E10001978DCCEC1CF002E225
:102C50000001978D0001975101E0D3D0CCC12FF135
:102C600001018BEC1DF031E190EC1DF02EE1010132
:102C7000010E296FA00E0101C45D860EC559010E1B
:102C8000C659000EC75907E3A00EC46F860EC56F64
:102C9000010EC66FC76BC4C12BF1C5C12CF1C6C1F3
:102CA0002DF1C7C12EF1190E3D6E3E6A3F6A406A92
:102CB0005AEC1FF04DEC4AF034C02BF135C02CF12A
:102CC00036C02DF137C02EF18FD0E4EC1DF002E1BB
:102CD0008D908B920101800ED71502E066EC1DF0FD
:102CE000800EE71502E06EEC1DF00A0E466ED70E60
:102CF000476EA30E486E4C0E496E5AEC1FF0F2EC74
:102D00001EF036EC3DF089EC1FF001018BEC1DF05C
:102D100027E0B4EC1CF0E5EC1BF00BE2C25104E040
:102D2000620E466E7F0E3FD0C86BC96BCA6B800EB9
:102D3000CB6FBCEC1DF00BE1C25104E03E0E466EC1
:102D40007F0E31D0010EC86FC96BCA6BCB6BC8C187
:102D500030F1C9C131F1CAC132F1CBC133F105D073
:102D60000101306B316B326B336BD1EC1FF0010121
:102D700090EC1DF02BE0BDEC1CF0E5EC1BF00BE241
:102D8000C25104E01A0E466E7F0E0DD0C86BC96B9F
:102D9000CA6B800ECB6FBCEC1DF00FE1C25108E096
:102DA000F60E466E7E0EE1EC1AF0DCEC1BF029D03C
:102DB000010EC86FC96BCA6BCB6BC8C134F1C9C1F6
:102DC00035F1CAC136F1CBC137F105D00101346B01
:102DD000356B366B376B48EC1DF001017DEC1EF056
:102DE00009AA02D0A4EC1EF009BC0AD013500F5C53
:102DF000FDE20EB005D0F2EC1AF001E3106A0F2AE2
:102E00008B9C040EE15C02E2E16AE552B4EF1BF038
:102E1000B7EC1BF0030E71EC1FF084EC1EF0DCDB52
:102E2000000197513CE1F29E050E0101855D06E02F
:102E3000060E855D03E0070E855D03E1DE52010E9F
:102E4000DD6E0F5003E0DE52010EDD6E856B020E6B
:102E5000DB6A200EF36E020EDBCFF4FFF350F45C5E
:102E600007E2020EDB5010EC1DF0020EDB2AF1D758
:102E7000106A116A0F6ADF0409E1045003E18D80D2
:102E80008B8204D0040402E18C828982F28EA7EC4A
:102E900020F0C3B102D0DCEC1BF0BCEC1BF0030E45
:102EA000E15C02E2E16AE552B4EF1BF075EC1FF061
:102EB000B9C146F0F5EC20F046AE03D0476848684B
:102EC000496846C0E6FF8EEC20F0DCEC1FF0C3B191
:102ED00002D0DCEC1BF0BCEF1BF0B7EC1BF0030ED8
:102EE00071EC1FF08450040B08E18450020B05E1E3
:102EF0008050400B02E1010E23D08450040B09E006
:102F00008450020B06E18050400B03E1020EF36E89
:102F100019D08450040B08E18450020B05E0805066
:102F2000400B02E1040E0CD08450040B08E08450E6
:102F3000020B05E08050400B02E1080E01D0100E9C
:102F4000F36E020EF3CFDBFF045008E184B003D030
:102F5000020EDB50DF6E82B210D009D004040DE106
:102F600083B203D0020EDB50DF6E80B206D0020EB9
:102F7000DB50E76E010EE7CFDBFFDFCF46F0476A9D
:102F8000E2EC1EF0D3DBE4EC1CF0A7EC20F0C3B1C4
:102F900002D0DCEC1BF0BCEC1BF0030EE15C02E2A7
:102FA000E16AE552E1D3E3DB020EE126DE6ADD6A87
:102FB000E66AC1DB84EC1EF01EEC20F000019751A4
:102FC0000EE10101B90504E19AEC1EF0E66A04D0B5
:102FD0009AEC1EF0010EE66E1AEC1EF0CDDB020E2E
:102FE000E15C02E2E16AE552BFD3B1EC1FF09BEC79
:102FF0001DF0DEEC20F0E3EC20F032EC1EF00001DE
:10300000975123E1030EDB50070802E29BEC1DF011
:10301000DF50010802E2010EDF6E030EDB50030FEA
:1030200000018A5D07E013EC1DF0030EDB50030F77
:1030300000018A6F010EDBCFE6FF020EDBCFE6FF59
:10304000DFCFE6FF1AEC1EF097DB050EE15C02E233
:10305000E16AE55289D3B7EC1FF0FE0EDB040BE109
:1030600084C0DEFF85C0DDFF020E86C0DBFF030EDD
:1030700087C0DBFF0AD082C0DEFF83C0DDFF020E07
:1030800088C0DBFF030E89C0DBFF8986D5C0D1F085
:10309000D6C0D2F0D7C0D3F0D8C0D4F0FC0EDBCF6E
:1030A000E6FFFD0EDBCFE6FF020EDBCFE6FF030EF1
:1030B000DBCFE6FF8AC0E6FF9AEC1EF000EC20F0C2
:1030C000040EE15C02E2E16AE5524ED3B7EC1FF078
:1030D00005EC1FF0E76E020EE7CFDBFF0001975112
:1030E00028E1020EDB5025E1B5EC1FF0E76E030E80
:1030F000E7CFDBFF000197511CE1030EDB5019E124
:1031000009BC16D013500F5CFDE2ACEC1DF0DFCF14
:10311000EFFFD2DB17EC1EF0010EDBCFEFFFCCDBB5
:10312000040EEF6E102A1350105C01E3106A0F2A90
:1031300023DB040EE15C02E2E16AE55215D3E66AA4
:10314000FADAFE0E0101BA5DFF0EBB59FF0EBC5943
:10315000FF0EBD5905E2BA2B000EBB23BC23BD23D5
:10316000BCEF1BF0E66AE7DA0101BA51BB11BC11F2
:10317000BD1105E0BA07000EBB5BBC5BBD5BBCEFDD
:103180001BF0F5DA050EE126BCEC20F0070E24DA80
:1031900032EC1EF0DB500BE1DFCFBAF1010EDBCFDA
:1031A000BBF1020EDBCFBCF1030EDBCFBDF1E4DAE5
:1031B000050EE15C02E2E16AE552D6D275EC1FF041
:1031C000BAC1E6FFBBC1E6FFBCC1E6FFBDC1E6FF79
:1031D000DCEC1FF0C3B102D057EC1DF0BCEF1BF0CC
:1031E000C6DA020EE9EC20F005EC1FF0B5EC1FF09A
:1031F000000197510CE1010EDB501F0803E2DE5283
:103200001F0EDD6E52EC1EF0DFCFEFFFB5DA020EBF
:10321000E15C02E2E16AE552A7D2A9DA020E71ECA2
:103220001FF0B5EC1FF00001975115E1010EDB50C6
:103230001F0803E2DE521F0EDD6E52EC1EF0EFCFD0
:1032400046F0476AE2EC1EF0DCEC1FF0C3B102D09E
:1032500057EC1DF091DA020EE15C02E2E16AE55200
:1032600083D275EC1FF00750466EF5EC20F0E66E49
:103270008EEC20F0DCEC1FF0C3B102D057EC1DF057
:1032800007B00790BCEF1BF09DBCFED775EC1FF09C
:1032900000C146F001C147F033DA96DB16C146F0B3
:1032A00017C147F02DDA0101C3B102D057EC1DF070
:1032B000BCEF1BF0D8EC1FF0D0D8DF6E75EC1FF020
:1032C0000F0EDF14DF6E0101B95103E0100EDF10A5
:1032D000DF6E07A003D0200EDF10DF6E0001A751C4
:1032E00004E0400EDF10DF6EA76B0EA003D0800E4F
:1032F000DF10DF6E020EE66EDFCF46F0476AE2ECCB
:103300001EF079EC45F04A6E050EE15E4A50CFDBC7
:1033100007B0079057D3B1EC1FF0030EDB6ADEEC69
:1033200020F032EC1EF0E3EC20F00001975101E0B8
:103330008ED0CDDAFF0ED880EE54030EED5405E2A8
:10334000010EDB68030E9FEC1EF0DF50010802E265
:10335000010EDF6E030EDB50010801E2ECDBDF043F
:1033600009E1040EDB50030805E10101BF6B020E09
:10337000C06F06D0010EDBCFBFF1020EDBCFC0F174
:10338000CAB415D0CB68FC0ECA140009CA6E9D924F
:103390000F0152815293F00EBA140C09BA6E3F0E0F
:1033A000BA140009BA6E0E010E0ECC6FCA84030E59
:1033B000DB502AE1DF5023E0BFC146F0C0C147F037
:1033C000D89047324632D890473246324650BB6E8C
:1033D000BFC148F0C0C149F0040ED8904836493604
:1033E000E804FBE1300E4816000E4916CF0EBA1461
:1033F00000014810466E49C047F0E85003D0BB6A50
:10340000CF0EBA14BA6E22D009BC20D013500F5C74
:10341000FDE2A2DB2C0EFDEC20F0BFC1EEFFC0C12F
:10342000EDFF4ADAEE52EE52EE6AEE6AEE6AEE6AAC
:1034300043DA14EC1EF0DFCFEFFF3EDA030EEF6E3F
:10344000102A1350105C01E3106A0F2A95D9050E5B
:10345000E15C02E2E16AE55287D189D9040EA7DA7C
:10346000030EDB6AF29E0101F3DB02E0010EDF6E68
:10347000855102E0010EDF6E0F5006E0010EDF6E97
:10348000F36E030EF3CFDBFFDF5005E070DB03E0EC
:10349000DE52010EDD6EDF5005E0D5DB03E0010EEC
:1034A0009FEC1EF0F28E030EDBCFE6FF020EDB5028
:1034B000E824476E010EDB50040DF3CF46F0DF50D9
:1034C000080DF35046104710E552E710466E040E03
:1034D000E15C02E2E16AE552E16E465014EF20F051
:1034E000B1EC1FF0030EDB6AB8DFBCDB010EE66E49
:1034F000E66E81EC28F0E552E552040EDBB01BDBF2
:10350000040EDBA203D0010E9FEC1EF0040EDBA420
:1035100003D0DE52010EDD6E040EDBA602D0010EDA
:10352000DF6EDFCF46F0476AEBD84EDA010E79EC5A
:103530001FF04ADA020E79EC1FF046DA030E79EC3E
:103540001FF03AD9050EE15C02E2E16AE5520CD1C6
:103550000ED9080EE12675EC1FF0F29E16C0DFFFB3
:10356000010E17C0DBFF020E18C0DBFF030E19C0EF
:10357000DBFF040E1AC0DBFF050E1BC0DBFF060ECF
:103580001CC0DBFF070E1DC0DBFFF28ED9CFE9FFA9
:10359000DED81ADAD950040F21EC20F00101C3A1C2
:1035A0000BD9EAD8080EE15C02E2E16AE552DCD010
:1035B000F29E10DAF28E1200E66ABDD8F9DFBCEF97
:1035C0001BF0476E486A46C0E6FFE66E48C0E6FF5D
:1035D0005CEC45F09AEF20F0E66E84EC31F0E552B9
:1035E0009AEF20F01050C1EC20F029C1EEFF2AC163
:1035F000EEFF2BC1EEFF2CC1EEFF2DC1EEFF2EC161
:10360000EEFF2FC1EEFF30C1EEFF31C1EEFF32C140
:10361000EEFF33C1EEFF34C1EEFF35C1EEFF36C120
:10362000EEFF37C1EEFF38C1EEFF39C1EEFF3AC100
:10363000EEFF3BC1EEFF3CC1EEFF3DC1EEFF3EC1E0
:10364000EEFF3FC1EEFF40C1EEFF41C1EEFF42C1C0
:10365000EEFF43C1EEFF44C1EEFF45C1EEFF46C1A0
:10366000EEFF47C1EEFF48C1EEFF49C1EEFF4AC180
:10367000EEFF4BC1EEFF4CC1EEFF4DC1EEFF4EC160
:10368000EEFF4FC1EEFF50C1EEFF51C1EEFF52C140
:10369000EEFF53C1EEFF54C1EEFF55C1EEFF56C120
:1036A000EEFF57C1EEFF102A1350105C12001150AC
:1036B0002F0D0CEF1FF01DEC3DF063EC1FF0C6DB8F
:1036C00049C041F036EC3DF0A8EC1FF0AC0E466E60
:1036D000C50E476EA70E486E470E496EB7DB416EAA
:1036E00089EC3DF0A8EC1FF092DB3E6A3F6A800E49
:1036F000406E3F0E94EC1FF097EC3EF0010A120072
:1037000061DBE8EF1EF0EE20496E46C0DFFF010EE0
:1037100047C0DBFF020E48C0DBFF030E49C0DBFFE2
:1037200095EC20F0D890EB50000A1200B3EC45F075
:10373000E5529AEF20F0E66A81EC28F0E552E55276
:10374000120065DB46504710481049101200D6DBC6
:10375000E8EF1EF01DEC3DF0B6DBAEEC20F042DBF6
:1037600089EC3DF089EF1FF0E16E14EF20F0D9CF26
:10377000E6FFE1CFD9FF1200E66A18EF20F0C4C1DE
:1037800046F0C5C147F0C6C148F0C7C149F01F0E99
:103790003D6E050E3E6E3F6A406A8CDBB1EC4AF02E
:1037A00038C046F039C047F03AC048F03BC049F055
:1037B0005DDB49503C181200020EE66E18EF20F057
:1037C000FDEC20F0040E1CEF20F01DEC3DF0000E8F
:1037D000DFCF3EF0010EDBCF3FF0020EDBCF40F03B
:1037E000030EDBCF41F089EC3DF057EC3EF038C0E2
:1037F000C8F139C0C9F13AC0CAF13BC0CBF1D88099
:10380000000E01013854000E3954000E3A54800E57
:103810003B541200000EEE5C000EEE58000EEE5807
:10382000000EEE581200AEEC20F01BEC3DF04BDB2E
:10383000AC0E3E6EC50E3F6EA70E406E470E416E3B
:1038400089EC3DF057EF3EF0C4C13DF0C5C13EF0FC
:10385000C6C13FF0C7C140F0DFCF38F0010EDBCF6B
:1038600039F0020EDBCF3AF0030EDBCF3BF0B1ECC8
:103870004AF0D880190E3854000E3954000E3A54CC
:10388000000E3B541200C3DA3E6A3F6A406A4F0E94
:103890004BDB8EEC3EF0010A1200EE52EE52EECF00
:1038A00087F1EECF88F1EECF89F1EFCF8AF11200E8
:1038B000010EE66EF2EF1FF010502F0D0CEF1FF00F
:1038C0000A50E96EEA6AD890E936EA361200D95011
:1038D000010FD3EF20F09C51A4279D51A5239E51A9
:1038E000A6239F51A723A4518C27A5518D23A65110
:1038F0008E23A7518F2396EF1FF0A051A827A15127
:10390000A923A251AA23A351AB23A8519027A951BF
:103910009123AA519223AB5193239FEF1FF0D8809C
:10392000000E3954800E3A54000E3B54000E3C54A5
:10393000120030C1E6FF31C1E6FF32C1E6FF33C1FC
:10394000E6FF120034C1E6FF35C1E6FF36C1E6FFEF
:1039500037C1E6FF1200000EEE5C800EEE58FF0E3F
:10396000EE58FF0EEE581200D4C138F0D5C139F030
:10397000D6C13AF0D7C13BF01200E4C138F0E5C13E
:1039800039F0E6C13AF0E7C13BF01200E66AD9CF60
:10399000E6FFDACFE6FF1200D880030E0101CC5516
:1039A000000ECD55000ECE55000ECF551200E9EC9D
:1039B00020F0020EDB6A1200F6DBD880030EEB501B
:1039C000FF0A1200E55230D32C0EE66E1BEC25F0F8
:1039D000E5521200166A176A186A196A1A6A1B6A8F
:1039E0001C6A1D6A1E6A1F6A206A216A226A236A8B
:1039F000246A256A12000BDB34C0DEFF35C0DEFF0F
:103A000036C0DEFF37C0DDFFDD52DD5212008DDB38
:103A1000F0DAEFCF4DF04A504B104C104D10120021
:103A2000B0DBEF6A1200000EE66EE66AE66EE66A4A
:103A30008AC0E6FFE66EE66A00EF20F0B4DBEE50E7
:103A40004A5C466EEE504B58476EEE504C58486EEE
:103A5000EE504D58496E1200D4C1E6FFD5C1E6FFC5
:103A6000D6C1E6FFD7C1E6FFE8EF1EF0EECF90F13A
:103A7000EECF91F1EECF92F1EFCF93F11200D4C1DE
:103A800038F1D5C139F1D6C13AF1D7C13BF11200B5
:103A9000E4C13CF1E5C13DF1E6C13EF1E7C13FF1D2
:103AA00012003D6E3E6A3F6A406AF6EF3DF0010E3D
:103AB000E66EBED2EE520E0EA0DBEECF94F1EECF4C
:103AC00095F1EECF96F1EFCF97F11200800E010144
:103AD0002A112A6F000E0101C1EF1FF0200E010113
:103AE0002A112A6F000E0101C9EF1FF0BFD93C3423
:103AF000000E3C181200170E46C0DBFF180E47C020
:103B0000DBFF190E48C0DBFF1A0E49C0DBFF1200B5
:103B1000ADD957EF3EF0D451D511D611D7111200BF
:103B2000E451E511E611E7111200DBCF3CF03C3423
:103B3000000E3C181200010EF36E030EF3CFDBFFF4
:103B40001200DC6BDD6BDE6BDF6BEC6BED6BEE6B39
:103B5000EF6BDFCFE6FF1200105013DBEE521200C6
:103B60000A50EA6A690FE96E000EEA2212009451C7
:103B70009511961197111200C851C911CA11CB1194
:103B80001200D880FF0E3954FF0E3A54FF0E3B54FA
:103B9000000E3C541200EECFA0F1EECFA1F1EECF1B
:103BA000A2F1EFCFA3F11200D46BD56BD66BD76B1C
:103BB000E46BE56BE66BE76B1200461616DB4650CE
:103BC000471048104910120001012B6B2C6B2D6B14
:103BD0002E6B2A6B0001D905120038C030F139C0B4
:103BE00031F13AC032F13BC033F1120038C034F148
:103BF00039C035F13AC036F13BC037F112003950C7
:103C0000465C3A5047583B5048583C50495812007F
:103C1000262A000E27222822292212009407000EAD
:103C2000955B965B975B1200EE52050E05D2EE5245
:103C3000260E02D22BEC18F07DD2010EF36E040E8C
:103C4000F3CFDBFF1200985199119A119B111200CA
:103C50008751881189118A11120061EC0EF0E5522A
:103C6000E5521200E76E040EE7CFDBFF1200046E90
:103C700096809482958C958E9588958A1200E1267F
:103C8000DE6ADE6ADE6ADD6ADD52DD521200C85588
:103C9000610EC955000ECA55000ECB551200B7D99A
:103CA00034501200010EDB50EA6A580FE96E010E23
:103CB000EA22120086899807000E995B9A5B9B5B4B
:103CC0001200CA6BCB6BCC6BCD6BCE6BCF6B120083
:103CD000F36E010EF3CFDBFF020EDB6A1200010E62
:103CE000DBCF86F0020EDBCF87F012001B0EDBCF9E
:103CF00046F01C0EDBCF47F012004C6B4D6B4E6B49
:103D00004F6B050E296F1200010EE66ED9CFE6FF4C
:103D1000DACFE6FF1200610EE926000EEA22120059
:103D2000DC0EE96E010EEA6E1200E80EE96E010E7D
:103D3000EA6E1200DECFE6FFDDCFE6FF1200F36E83
:103D4000020EF3CFDBFF120020DAF0DCADD924DA6B
:103D5000EDDC2E0E466E810EC9D9DCEF1BF074D956
:103D600048DA1E0E4ADAEECFA4F1EECFA5F1EECF7F
:103D7000A6F1EFCFA7F13DDA1E0E22DDEECFA8F1BE
:103D8000EECFA9F1EECFAAF1EFCFABF132DA160EFA
:103D900034DAEECF9CF1EECF9DF1EECF9EF1EFCF76
:103DA0009FF127DA160E0CDDCBEF1DF0E66E060E46
:103DB00013DCE66A1200ACD9E66ECC0EE66E010E9C
:103DC000EEEF20F0486A496A46C0E6FF8EEF20F029
:103DD000CFEC45F0E552AED114DAC80EE66E010E16
:103DE000EEEF20F01BEC3DF039C04AF03AC04BF04A
:103DF0003BC04CF03CC04DF039C03EF03AC03FF003
:103E00003BC040F03CC041F099D1B6D9EBD18DD93F
:103E1000CED9EFCF49F01200FE51F324E96EFF51E5
:103E2000F420EA6E1200040EDB6AD80EE96E010E71
:103E3000EA6E0101D051EE24466ED151EE20476E5C
:103E4000D251EE20486ED35183EF1BF06ED9EECFE6
:103E500039F0EECF3AF0EECF3BF0EFCF3CF046C07A
:103E60003EF047C03FF048C040F01200DECF39F0CE
:103E7000DECF3AF0DECF3BF0DDCF3CF0DD52DD525D
:103E800012004EDFD851EE24466ED951EE20476E17
:103E9000DA51EE20486EDB5183EF1BF0B2D9C40E2D
:103EA000E66E010E9BD9E66A1200C0D957EC1BF0F2
:103EB0004DEF1CF0C4C138F0C5C139F0C6C13AF0AD
:103EC000C7C13BF0120039C046F03AC047F03BC0D2
:103ED00048F03CC049F01200E66E000EDA20E66EB3
:103EE00081D177D9E66E9BEF1BF0010EE66E9BEF5A
:103EF0001BF0DBCF46F0476A80EF1BF0DACFEAFF1A
:103F0000EECFE6FFEECFE6FFEECFE6FFEFCFE6FF28
:103F1000120039C0DEFF3AC0DEFF3BC0DEFF3CC00E
:103F2000DDFFDD52DD521200416E08D18C511E269C
:103F30008D511F228E5120228F512122120090512B
:103F4000222691512322925124229351252212009C
:103F50003CC0EDFF3BC0EDFF3AC0EDFF39C0EFFFC5
:103F6000120005DC050ED7EF1CF0A2DC3BD1B7EC4C
:103F70001BF0040EE12612003CD9EFCF86F157EF7B
:103F80001BF0D46DD51FD523D61FD623D71FD7231B
:103F90001200E46DE51FE523E61FE623E71FE72394
:103FA00012006DDD0101486B496B4A6B4B6B1200CF
:103FB000B7EC1BF0E652120096EC1BF00101120068
:103FC0007FDC750EE926000EEA22120079DC6D0E08
:103FD000E926000EEA22120057EC1BF025DEEFCF97
:103FE0008BF11200D950010FE66E000EDA20E66E5A
:103FF0001200EECF4AF0EECF4BF0EECF4CF01200B5
:104000004AEC42F0466E070EE15E465012003D68F3
:104010003E683F6840684DEF4AF052DC8BEF1EF07F
:1040200056DCEE50ED101200E552E7CFD9FF12003A
:104030009FEC28F0E5521200FDEF20F0030EECEFAC
:104040001AF0E96EA7EF1BF0F1D8D3D8060ED5D839
:10405000EECF8CF1EECF8DF1EECF8EF1EFCF8FF171
:10406000C8D8060EE0EC1BF036EF1DF0A1DFC9D872
:10407000D00EE66E010E9ADED40EE66E010ED0D0A2
:1040800095DEE80EE66E010E91DEEC0EE66E010E98
:1040900092DEDF6E0001975112008ADF9DDEE66A34
:1040A000D00EE66E010EBCD0470E466E810EE1ECDE
:1040B0001AF038C1E6FF39C1E6FF3AC1E6FF3BC15D
:1040C000E6FF96EF1BF0E1EC1AF0E4C1E6FFE5C174
:1040D000E6FFE6C1E6FFE7C1E6FF7ADEDCEF1BF0B4
:1040E000E66E000EDA2062DED9501200E1EC1AF022
:1040F0003CC1E6FF3DC1E6FF3EC1E6FF3FC1E6FF32
:1041000096EF1BF053DEE80EE66E010EDBEF1EF0BD
:10411000E66E060EECEC1AF0010E120047C0E6FF48
:1041200048C0E6FF49C0E6FF1200D9CFE9FFDACF69
:10413000EAFF1200E552E552E552120046C039F09E
:1041400047C03AF048C03BF049C03CF01200010EB5
:10415000DBCF46F0476A36DEDCEF1FF0C8C138F02F
:10416000C9C139F0CAC13AF0CBC13BF012001EDE22
:10417000E40EE66E010E1200E66A9BEC1BF0C6EF41
:104180001CF02F0D02010CEF1FF04C0E466E810E3D
:10419000E1EC1AF099EF1CF0380E466E810EE1EC5E
:1041A0001AF0A2EF1CF0E96EDACFEAFF1200EECFB0
:1041B00046F0EECF47F0EECF48F0120026DE58EC86
:1041C0001CF01EEF20F0010EE66ED950030F6CEFCD
:1041D0001FF0E126DF6A010EDB6A1200E66E070EB1
:1041E000ECEF1AF0010EECEF1AF0476A486A496AE0
:1041F000120057EC1BF0EE521200E926000EEA22E4
:104200001200F6EC0BF0E66A9BEC1BF0E66A12007B
:10421000DC0EE66E010ECADDE00EE66E010E120047
:10422000C5DDD80EE66E010ED6EF1EF057EC1BF082
:06423000EFCF85F1120042
:0A423600D8CFE4FFE0CFE4FFE46E10
:10424000DACFE4FFE9CFE4FFEACFE4FFF3CFE4FF06
:10425000F4CFE4FFE652B1EC35F0A4A641D1A49628
:104260000001602B00017F510001605D01E29BD0E5
:10427000606B0001CAEC34F0EF6A79907B6A7A6A6D
:1042800000017D2B00017E5100017D5D01E37D6B0E
:1042900043EC36F0EA22EE50ED1001E184D036EC2A
:1042A00036F0EECF58F0EFCF59F05850561802E1E3
:1042B000595057185DE086EC35F0EA22EE50ED10CB
:1042C00051E036EC36F00001EE50565CE26FEE50F5
:1042D0005758E36FE83422E2E2510008000EE3553C
:1042E0001DE2000186EC35F046EC34F00001575039
:1042F000E319E8AE02D0E33504D0E251565CE35155
:1043000057580AE2000186EC35F057EC35F056506C
:10431000EE265750ED222CD0000124D0E2C056F0FA
:10432000E3C057F0566C571E000E5722000186EC72
:1043300035F0EA22EECF58F0EFCF59F05950571828
:10434000E8AE02D0573404D05650585C57505958F4
:1043500009E286EC35F057EC35F05650EE5E5750DA
:10436000ED5A06D036EC36F056C0EEFF57C0EDFFE2
:10437000CAEC34F0120EEF6EF29E0001D2EC35F072
:1043800057C056F0576A5650B66ED2EC35F05650BC
:10439000B56EF00EB4140009B46EF00EB414090931
:1043A000B46E7980F28E0001000ED8808D55000E1B
:1043B0008E552EE29B2B000E9C238D519B5D8E51C2
:1043C0009C5926E39B6B9C6B030E915D1FE28F5102
:1043D000EA6A200FE96E010EEA2280CFEFFF8F51CB
:1043E000EA6A230FE96E010EEA2281CFEFFF8F51B7
:1043F000EA6A260FE96E010EEA2282CFEFFF8F2BC9
:10440000030E8F5D01E38F6B912B02D08D6B8E6B52
:10441000000ED8809255000E93551CE2000ED880F5
:10442000A155000EA25516E29D2B000E9E2392511F
:104430009D5D93519E590EE39D6B9E6B030E965DA1
:1044400007E2942B030E945D01E3946B962B02D04C
:10445000926B936BA151A2110BE0050EA05D07E3D7
:10446000C18C9E9C9D8CC280C282A06B01D0A02B6F
:104470000101BE5101E0BE070001D151D211D3119B
:10448000D4110BE0D107000ED25BD35BD45BD151CA
:10449000D211D311D41101E18996020EA85D20E159
:1044A000AB51AC111DE0AB07000EAC5BAB51AC11D6
:1044B00017E1AD51AE1114E0AD07000EAE5BAD518A
:1044C000AE110AE1045003E18D808B8202D08C8210
:1044D0008982030EA86F04D0E80EAB6F030EAC6F99
:1044E0009EAC4FD09E9CC1AC07D0C19C010E000178
:1044F000A36FA46B9F6B2AD0C450586E596E586A34
:10450000C35000015810566E59C057F000019F511A
:10451000E96EEA6AA1EC35F0EA2256C0EEFF57C018
:10452000EDFF0B0E9F5D0EE19F51E96EEA6AA1EC73
:1045300035F046EC34F0A551565CA651575802E2CE
:10454000010EA76FD890A337A4379F2B100E9F5D45
:104550000EE2A351A115566EA451A215576E5650E6
:10456000571005E19F2BD890A337A437EFD7100E33
:104570009F5D02E39D9C05D09F51040DF328C26E00
:10458000C282E552E552E7CFD9FFE552E5CFF4FF0D
:10459000E5CFF3FFE5CFEAFFE5CFE9FFE5CFDAFFAF
:1045A000E550E5CFE0FFE5CFD8FF1000D9CFE6FF1B
:1045B000E1CFD9FF020EE126DE6ADD6AE2CFE4F048
:1045C000E1CFE5F0E4C046F046C047F0466A00019E
:1045D000E55100014610E66F47C0E7F0E6C0DEFF98
:1045E000E7C0DDFF080EDE26000EDD22D9CFE9FF91
:1045F000DACFEAFFBF0ED880EE540E0EED540BE377
:10460000DECFE9FFDDCFEAFFEE0EEF6EDF2A010E0F
:1046100001E3DB2AEBD7020EE15C02E2E16AE5523C
:10462000E16EE552E7CFD9FF12004CEC36F0BF0E39
:10463000F36E010EF3CFDBFF0E0EF36E020EF3CF1F
:10464000DBFFF28C010EDBCFE9FF020EDBCFEAFFCE
:10465000EF50EE0806E1010EDB06020EF3E2DB0688
:10466000F1D71AEC35F000014650E05D4750E159B2
:1046700006E2010EDBCFE0F0020EDBCFE1F0F28CC0
:10468000030EE15C02E2E16AE552E16E18EF34F0FC
:1046900058EC36F0896A92680001A16BA26B8A6AB5
:1046A00093688B6A94688C968C9495969594928E68
:1046B000010ED06F976B956B946B966B906B8F6BB5
:1046C000916B8D6B8E6B926B936B9B6B9C6B9D6BED
:1046D0009E6B9F6B76827680769C769A76887696AD
:1046E000FA0E776EDE6ADD6ADDEC34F0100E465CA1
:1046F000000E475813E2E2EC34F0010ED890E93690
:10470000EA36E806FBE1000EE926010EEA22EE6A2F
:10471000ED6ADF2A010EE8E3DB2AE6D70001CA6B67
:10472000CB6BC86BC96BDE6ADD6AE9EC35F00AE277
:10473000E2EC34F0000EE926020E44EC35F0F5E32D
:10474000DB2AF3D7DE6ADD6AE9EC35F00AE2E2EC57
:1047500034F0400EE926020E44EC35F0F5E3DB2A96
:10476000F3D7DE6ADD6ADDEC34F0000E465C010E44
:1047700047580AE2E2EC34F0000EE926030E44EC5E
:1047800035F0F1E3DB2AEFD70001CC6BCD6BCE6BBC
:10479000CF6B986B996B9A6B0F01498FBE0EC16EF0
:1047A000D08E7694A386A59620EC0CF07DEC41F09B
:1047B000F28EF28C7684B0EC30F00001DC6BDD6BB5
:1047C000DE6BDF6B0E6AD16BD26BD36BD46B600E7A
:1047D000D56FEA0ED66FD76BD86B010ED96FE06B31
:1047E000E16BA56BA66BA96BAA6BAB6BAC6BAD6BEE
:1047F000AE6BA86BA76B020EE15C02E2E16AE552C8
:10480000E16E18EF34F013EC34F0050EE12621ECE4
:1048100035F02DEC33F00001915100080AE244EC30
:104820002DF00001902B030E905D01E1906B91073C
:10483000F2D7965100080AE261EC2DF00001952BA9
:10484000030E955D01E1956B9607F3D7200E0501E8
:10485000E76EBC19E8AE02D0E73402D0E750BC5D89
:1048600001E2E1D06550020B01E0DDD0400EE66EC2
:10487000400EE66E020EE66E06EC44F054EC36F0A6
:10488000E76E020EE7CFDBFFDB50000870E2030E9D
:10489000DB6A020EDB50F36E030EE7EC34F067E2E6
:1048A000030EDB50EA6A400FE96E020EEA22040EA4
:1048B000EFCFDBFF09A805D0DBCFE6FFEFEC4AF036
:1048C000E5520101785119E10D0E466E040EDB50E0
:1048D000465C06E00A0E476E040EDB50475C0DE1B5
:1048E000010E786F000101EC35F00D0EEF6ECA2B52
:1048F000F7D80001CA6BCB6B2AD0040EDB50080836
:104900000EE10001CA5100080AE2CA0701EC35F0C5
:10491000EF6AF70E466E820EF7EC33F018D0040EF5
:10492000DB500D0814E0040EDB500A0810E0200EE6
:10493000F36E040EE7EC34F00AE3000101EC35F00D
:10494000040EDBCFEFFF0101786B0001CA2B0001E1
:10495000CA51466E476A000E461806E1010E471816
:1049600003E19787CA6BCB6B030EDB2A92D700015A
:10497000975139E097A105D0F30E466E820E83EC75
:1049800035F0000197A305D0D60E466E820E83EC5B
:1049900035F0000197A505D0BC0E466E820E83EC63
:1049A00035F0000197A705D0A20E466E820E83EC6B
:1049B00035F0000197A905D0850E466E820E83EC76
:1049C00035F0000197AD05D0650E466E820E83EC82
:1049D00035F0000197AF05D04D0E466E820E83EC88
:1049E00035F00001976BDD511DE0010E0E1414E04F
:1049F000DE5112E12E0E466E820EF7EC33F0020EFF
:104A0000E66EDCC046F0476A1CEC34F001EC34F092
:104A10000001010EDE6F06D0010E0E1403E1DE511F
:104A200001E0DE6B37D8050EE15C02E2E16AE55297
:104A3000E16E18EF34F0B1EC35F0C8C0DFFFDF2ACB
:104A4000400E55EC34F001E1DF6A0001C951DF5C32
:104A500001E120D80001C851EA6A000FE96E020E98
:104A6000EA22FE0EDBCFEFFFC82B400EC85D01E14E
:104A7000C86BC951C85D01E19785FE0EDBCF46F0DA
:104A8000476A46BE476846C0F3FF47C0F4FFE55299
:104A900018EF34F0B1EC35F00001C851C95D1DE0EC
:104AA0000501A45105E092EC44F0E2EC36F0F8D7B1
:104AB0000001C951D880C85507E2C951C85D88ECCA
:104AC00034F0C8C0C9F007D0400ED880C95588EC72
:104AD00034F00001C96B92EC44F0E55218EF34F069
:104AE00013EC34F0090EE126DE6ADD6A020EDB6AA1
:104AF000030EDB6A050EDB6A010EF36E060EF3CFC2
:104B0000DBFF0001DA6BDB6BDF5101E18ED0060EBB
:104B1000DB6A040ECAC0DBFFDB5003E0040EDB06D9
:104B200002D0040EDB68040EBDEC34F0EF502C080C
:104B300016E0050EF36EDBCFF4FFE850F45C0FE2F5
:104B4000040EDB50CB5D0BE0040EDB5003E0040EE3
:104B5000DB0602D0040EDB68050EDB2AE4D7040E68
:104B6000BDEC34F0EF502C0857E1070ECBC0DBFF53
:104B7000040EDBCFCBF0E66AD950020F53EC35F0D0
:104B8000070EDBCFCBF0080ECBC0DBFF040EDB50F3
:104B9000F36E080EDB50F35C18E0080EBDEC34F049
:104BA000030EDBCFE7FFEF50E726030EE7CFDBFF77
:104BB000080EDB2ADB50466E476AE850E7E1010E3B
:104BC0004718E4E1080EDB6AE1D7030EDB1C010F96
:104BD000E76E030EE7CFDBFF020EDB50F36E030E32
:104BE000DB50F35C0BE1010EF36E060EF3CFDBFF3F
:104BF000040EBDEC34F00D0EEF6E17D0080E466EAD
:104C0000820EF7EC33F0030EFDEC34F078EC36F066
:104C1000B3EC45F0E55205D0DF0E466E810EA8ECF0
:104C200035F054EC36F001EC34F0060EDB5001E1C7
:104C30005ED2000104EC34F028EC35F0F3CFDAF06A
:104C400000012BEC34F004E1010E471801E1CB6BBD
:104C5000DA51DE6EDD6A04EC34F02C0823E004EC5B
:104C600034F00D081FE004EC34F00A081BE004ECFB
:104C700034F028EC35F0F3CFDBF000012BEC34F00E
:104C800004E1010E471801E1CB6BDAC049F0486A34
:104C9000DB5100014824466E000E4920476E46C095
:104CA000DEFFDD6E000EDFCF3AF0010EDBCF3BF012
:104CB000520E3A1802E1540E3B1801E1E7D1550EAD
:104CC0003A1802E1510E3B1801E1DED14D0E3A18BF
:104CD00002E1480E3B1801E1D4D1520E3A1802E12C
:104CE000530E3B1801E1CAD1520E3A1802E1510E9F
:104CF0003B1801E1C0D1420E3A1802E1520E3B18B6
:104D000001E1B6D1540E3A1802E1510E3B1801E10F
:104D1000ACD1540E3A1802E1530E3B1801E1A2D176
:104D2000530E3A1802E1430E3B1801E198D1530E9D
:104D30003A1802E1510E3B1801E18ED14D0E3A189E
:104D400002E1580E3B1801E184D1530E3A1802E1FA
:104D5000450E3B1801E17AD1430E3A1802E1410EAB
:104D60003B1801E170D14D0E3A1802E1510E3B188B
:104D700001E166D1320E3A1802E1530E3B1801E10F
:104D80005CD1450E3A1802E1530E3B1801E152D1B5
:104D9000470E3A1802E1510E3B1801E148D1430E8B
:104DA0003A1802E1510E3B1801E13ED14B0E3A1880
:104DB00002E1430E3B1801E134D14C0E3A1802E1F6
:104DC000420E3B1801E12AD1440E3A1802E14E0E80
:104DD0003B1801E120D1490E3A1802E14E0E3B1872
:104DE00001E116D1420E3A1802E1510E3B1801E1E1
:104DF0000CD14C0E3A1802E1510E3B1801E102D1E0
:104E00004C0E3A1802E1530E3B1801E1F8D04E0E59
:104E10003A1802E1510E3B1801E1EED04E0E3A185D
:104E200002E1530E3B1801E1E4D0430E3A1802E1CF
:104E3000530E3B1801E1DAD04D0E3A1802E1450E4F
:104E40003B1801E1D0D0450E3A1802E1510E3B1853
:104E500001E1C6D0500E3A1802E1510E3B1801E1B3
:104E6000BCD0500E3A1802E1540E3B1801E1B2D00A
:104E7000500E3A1802E1530E3B1801E1A8D04D0E36
:104E80003A1802E1530E3B1801E19ED0570E3A1832
:104E900002E14D0E3B1801E194D0520E3A1802E1A6
:104EA0004D0E3B1801E18AD0440E3A1802E1500E33
:104EB0003B1801E180D04F0E3A1802E1500E3B182A
:104EC00001E176D0490E3A1802E1500E3B186DE030
:104ED000410E3A1801E13B5065E0560E3A1801E1E7
:104EE0003B505DE0490E3A1801E13B5055E04F0E52
:104EF0003A1801E13B504DE0550E3A1802E1430EDD
:104F00003B1845E0430E3A1801E13B503DE0520E9C
:104F10003A1801E13B5036E04D0E3A1802E14C0ED2
:104F20003B182DE0330E3A1802E1540E3B1824E0F2
:104F3000330E3A1802E14C0E3B181BE0540E3A189F
:104F400002E14C0E3B1812E04D0E3A1802E1430EFE
:104F50003B1809E00001DB5101E09BD0D5EC35F0B6
:104F6000DBEC35F0AAD095EC10F0AFD043EC0EF0AE
:104F7000ACD0EBEC0DF0A9D029EC0EF0A6D0B3EC40
:104F80000DF0A3D0FFD8A1D05EEC2CF09ED001D9BB
:104F90009CD00EEC2DF099D044EC2DF096D05AEC2C
:104FA0002DF093D061EC2DF090D099EC2EF08DD0B7
:104FB0000EEC2FF08AD0FDEC2DF087D0DEEC2DF03A
:104FC00084D0C3EC2DF081D080EC10F07ED0F5ECD5
:104FD00017F07BD0D3EC17F078D056EC17F075D0E3
:104FE0006DEC17F072D066EC18F06FD0F1EC0CF0AD
:104FF0006CD0C1EC18F069D0DEEC18F066D0F0ECA3
:1050000018F063D00DEC19F060D031EC19F05DD0E0
:105010009FEC18F05AD0B2EC18F057D0C2EC2FF039
:1050200054D014EC30F051D044EC19F04ED05AEC7E
:1050300019F04BD08BEC19F048D0F5EC41F045D08D
:1050400070EC1AF042D0F4EC2CF03FD008EC17F0E2
:105050003CD019EC15F039D0A8EC1AF036D0DCECC5
:105060001AF033D0F3EC30F030D029EC31F02DD001
:10507000CAEC2FF02AD0D1EC2FF027D0E1EC2FF0A2
:1050800024D0CEEC13F021D089DB1FD03DEC14F0FE
:105090001CD0D5EC35F0DBC0E6FFCDDCE552DBEC17
:1050A00035F027EC36F0DAC0E6FF5BEC35F0EFECDC
:1050B00035F0020EE66EDBC046F0476A1CEC34F0B9
:1050C000270E21EC34F001EC34F0000104EC34F054
:1050D0000D080DE097510BE1520E466E476ADF5006
:1050E000461803E1DE52DD50471801E0978FCAC031
:1050F000CBF0090EE15C02E2E16AE552E16E18EFE5
:1051000034F0B1EC35F02C0EDF6E010E0101C31549
:1051100003E1FE0EDB5010E009EC35F00001DB513D
:1051200004E0DBC0E6FF87DCE552FD0EDB5004E067
:10513000DFCFE6FF80DCE552E55218EF34F013ECE8
:1051400034F00101C3A104D0C30E466E810E16D007
:105150000001D05108E0FE0EDB5005E1C00E466EA6
:10516000810EF7EC33F0FE0EDB50020804E1BD0EB9
:10517000466E810E03D0BA0E466E810EF7EC33F008
:1051800018EF34F05CEC36F04CEC34F083DC48EF94
:1051900023F0D9CFE6FFE1CFD9FF040EE126E66A7E
:1051A000E66AAFDFE552E552E66AD9CFE6FFDACF2D
:1051B000E6FF030EE66E84EC31F0E552E552E5526F
:1051C000E552E66AD950020FE66E000EDA20E66E6E
:1051D000020EE66E84EC31F0E552E552E552E552FE
:1051E0000001975101E0D0D2010E466E476ADF50B0
:1051F000461803E1DE52DD5047181AE1D950020F7C
:10520000E96EDACFEAFFEE50ED100BE0010E466ECC
:10521000476A020EDB50461803E1030EDB504718C5
:1052200004E1020EDBCFD0F002D00001978DA9D2AD
:10523000020E466E476ADF50461803E1DE52DD502B
:1052400047181AE1D950020FE96EDACFEAFFEE50A3
:10525000ED100BE0010E466E476A020EDB50461859
:1052600003E1030EDB50471804E1020EDBCFC2F16D
:1052700002D00001978D85D2030E466E476ADF503B
:10528000461803E1DE52DD5047181CE1D950020FE9
:10529000E96EDACFEAFFEE50ED1003E106908C9450
:1052A00010D0010E466E476A020EDB50461803E12D
:1052B000030EDB50471803E106808C9402D00001F6
:1052C000978D5FD2040E466E476ADF50461803E1A1
:1052D000DE52DD5047181DE1020EDBCF46F0030E13
:1052E000DBCF47F0473404E246502008000E475415
:1052F00007E2200EF36E020EF3CFDBFF030EDB6A34
:105300002DEC1AF0000901E0FBD7020EDB50136E02
:1053100038D20A0E466E476ADF50461803E1DE5265
:10532000DD5047181CE1D950020FE96EDACFEAFFD1
:10533000EE50ED1003E10101C39110D0010E466E55
:10534000476A020EDB50461803E1030EDB50471894
:1053500003E10101C38102D00001978D12D2320E08
:10536000466E476ADF50461803E1DE52DD504718AB
:105370000FE1D950020FE96EDACFEAFFEE50ED10DF
:1053800003E10001D96B03D00001010ED96FF9D1FF
:10539000330E466E476ADF50461803E1DE52DD5099
:1053A000471811E1FF0EE76E020EDBCF46F0030E49
:1053B000DBCF47F0E7504616476A46500C6E0C505C
:1053C00001E10E90DED1340E466E476ADF5046187A
:1053D00003E1DE52DD5047180EE1FF0EE76E020ECC
:1053E000DBCF46F0030EDBCF47F0E7504616476AA7
:1053F00046500D6EC6D1350E466E476ADF504618D0
:1054000003E1DE52DD50471814E1010E466E476A93
:10541000020EDB50461803E1030EDB50471804E18F
:105420000001010EDD6F04D00001DD6B0001DE6BB9
:10543000A8D1360E466E476ADF50461803E1DE52A9
:10544000DD50471812E1010E466E476A020EDB502E
:10545000461803E1030EDB50471804E10001010E7A
:10546000DF6F02D00001DF6B8CD13C0E466E476AC5
:10547000DF50461803E1DE52DD5047180DE1020E01
:10548000DBCFA5F0030EDBCFA6F0FF0E0001A517C2
:10549000030E0001A61775D13D0E466E476ADF5018
:1054A000461803E1DE52DD50471837E1F29EF29CC8
:1054B000020EDBCFA9F0030EDBCFAAF00001A95149
:1054C000AA1109E10001A86B0001AB6BAC6B0001F4
:1054D000AD6BAE6B1FD00001A851030A14E0020AA5
:1054E0000FE0010A0DE0020A01E00AD0A9C0ADF008
:1054F000AAC0AEF00001E80EAB6F030EAC6F0AD08D
:105500000001010EA86F0001AB6BAC6B0001AD6B2D
:10551000AE6B00D0F28CF28E34D1FA0E466E476A32
:10552000DF50461803E1DE52DD50471820E1D95024
:10553000020FE96EDACFEAFFEE50ED1002E10992B8
:1055400015D0010E466E476A020EDB50461803E185
:10555000030EDB50471808E10982959295909292CC
:105560009490929A949C02D00001978D0AD1FB0EE0
:10557000466E476ADF50461803E1DE52DD50471899
:105580002BE1D950020FE96EDACFEAFFEE50ED10B1
:1055900003E1099609941FD0010E466E476A020E78
:1055A000DB50461803E1030EDB50471812E1098473
:1055B0000996EC0EE66E1AEC4BF0E552020EE66E22
:1055C000E66A1C0EE66E14EC4AF0E552E552E5522E
:1055D00002D00001978DD5D0FC0E466E476ADF5091
:1055E000461803E1DE52DD5047182BE1D950020F77
:1055F000E96EDACFEAFFEE50ED1003E10996099467
:105600001FD0010E466E476A020EDB50461803E1BA
:10561000030EDB50471812E109860984EC0EE66E92
:105620001AEC4BF0E552020EE66EE66A1C0EE66ED0
:1056300014EC4AF0E552E552E55202D00001978D94
:10564000A0D0FD0E466E476ADF50461803E1DE52D9
:10565000DD50471829E1D950020FE96EDACFEAFF91
:10566000EE50ED1002E109981ED0010E466E476A19
:10567000020EDB50461803E1030EDB50471811E120
:105680000988EC0EE66E1AEC4BF0E552020EE66E5F
:10569000E66A1C0EE66E14EC4AF0E552E552E5525D
:1056A00002D00001978D6DD0FE0E466E476ADF5026
:1056B000461803E1DE52DD5047181AE1098295923F
:1056C000959092928C908C808C908C808C908C8019
:1056D0008C908C808C908C808C908C808C908C802A
:1056E0008C908C808C908C808C908C80EBD749D067
:1056F0004668476ADF50461803E1DE52DD5047181E
:105700001AE1D950020FE96EDACFEAFFEE50ED1040
:1057100002E1099A0FD0010E466E476A020EDB5075
:10572000461803E1030EDB50471802E1098A02D054
:105730000001978D26D0466A010E476EDF5046184D
:1057400003E1DE52DD5047181AE1D950020FE96E2D
:10575000DACFEAFFEE50ED1002E1099C0FD0010E06
:10576000466E476A020EDB50461803E1030EDB501B
:10577000471802E1098C02D00001978D02D0000188
:10578000978DE66ADCDCE552040EE15C02E2E16A38
:10579000E552E16EE552E7CFD9FF1200B1EC35F0EA
:1057A000C4EC35F0010EFDEC33F00001975101E03F
:1057B00082D0DF0408E14EEC35F0020EE66EDCC06C
:1057C00046F0476A20D0020E55EC34F008E14EEC6A
:1057D00035F0200EE66EE66AE66AE66A44D0030E0D
:1057E00055EC34F006E14EEC35F013507EEC34F01D
:1057F00038D0040E55EC34F009E115EC23F04EECF2
:1058000035F02FEC35F01CEC34F04FD0050E55EC94
:1058100034F00EE14EEC35F02FEC35F01CEC34F0AA
:1058200001EC34F0F29C0001E06BE16BF28C41D0B2
:105830003C0E55EC34F007E14EEC35F0A5C046F0D7
:10584000A6C047F00AD03D0E55EC34F00FE14EEC07
:1058500035F0A9C046F0AAC047F0486A496A46C078
:10586000E6FF5BEC35F03FEC36F01FD0C80E55EC90
:1058700034F01EE14EEC35F0F29E1EC0E6FF1FC074
:10588000E6FF20C0E6FF21C0E6FF3FEC36F02C0E1D
:1058900021EC34F022C0E6FF23C0E6FF24C0E6FF7F
:1058A00025C0E6FF3FEC36F0F28E01EC34F001D07B
:1058B000978D4CEC34F0E55218EF34F013EC34F0E3
:1058C000050E62EC35F0010E2BEC36F02FEC36F0C5
:1058D000E66AD950030F53EC35F0E66AD950040F4D
:1058E0006AEC36F010E1DF50926E010EDB50936EE1
:1058F000020EDB50946E030EDB50956E040EDB50EF
:10590000966E4CEC34F0050EE15C02E2E16AE55281
:10591000E16E18EF34F013EC34F0FE0EDB5010089B
:1059200005E2100EF36EFE0EF3CFDBFFFD0EDB5033
:105930002BE0FE0EDB5039EC4BF0F3500001A113CD
:10594000F450A213080EF36EFE0EE7EC34F00DE2F5
:10595000010EF36EFE0EDB5003E042EC34F0FDE18D
:10596000F350F31C0F0148173DD0FE0EDB500C081E
:1059700039E336EC35F004E0E846FE0B4606FCE180
:10598000E81C0F0149172ED0FE0EDB5039EC4BF00E
:10599000F3CF46F0F4CF47F0461E471E46500001B5
:1059A000A1174750A217080EF36EFE0EE7EC34F075
:1059B0000CE2010EF36EFE0EDB5003E042EC34F01D
:1059C000FDE1F3500F0148130DD0FE0EDB500C0823
:1059D00009E336EC35F004E0E846FE0B4606FCE150
:1059E0000F01491318EF34F06EEC36F02BEC36F063
:1059F000010F6AEC36F00AE1010EDBCFE6FFDFCFE4
:105A0000E6FF89DFE552E5524CEC34F0020EE15C32
:105A100002E2E16AE552E16E18EF34F06EEC36F026
:105A2000FDEC33F099EC34F027E1010EDB5002E19C
:105A3000DF50896E7AEC35F01FE1010EDB5002E198
:105A4000DF508A6E7AEC35F017E1010EDB5002E18F
:105A5000DF508B6E7AEC35F00FE1010EDB5002E186
:105A6000DF508C6E7AEC35F007E1010EDB5002E17D
:105A7000DF508D6E4CEC34F0020EE15C02E2E16A24
:105A8000E552E16E18EF34F0010EE66EE66E91EC31
:105A900035F080507FEC35F081507FEC35F082504E
:105AA0007FEC35F083507FEC35F0845060EC36F0BD
:105AB00001EF34F0D8EC34F04C0E466E920E83EFCA
:105AC00035F04CEC36F0DF6A010EF36EDB6E020E41
:105AD000DB6AE66A010EE66E91EC35F09DBCFED7FE
:105AE000DF6ADFCF46F0100EE76E4618E8AE02D050
:105AF000E73402D0E750465C3BE2010EDB50000188
:105B0000A1150001466E020EDB500001A215000136
:105B1000476E465047101FE02C0E21EC34F03EEC4F
:105B200034F046AE03D047684868496850EC36F018
:105B30003A0E21EC34F0DFCFE9FFEA6AE9BEEA6809
:105B4000A1EC35F0EA22EECF46F0EFCF47F0486AFD
:105B5000496A50EC36F01AEC35F0D89046364736A4
:105B6000010E46C0DBFF020E47C0DBFFDF2AB9D7BC
:105B7000020E14EC36F0030EE15C02E2E16AE5523B
:105B8000E16E18EF34F048EC36F0030E2BEC36F0F3
:105B9000020F6AEC36F00AE1F6EC35F005E2E2ECD1
:105BA00034F0020EDBCFEFFF4CEC34F0030EE15C7F
:105BB00002E2E16AE552E16E18EF34F04CEC36F0A7
:105BC000C4EC35F0030EFDEC33F0000197510DE10C
:105BD000F6EC35F005E2E2EC34F0020EEFCFDBFF3D
:105BE000020EFDEC34F06AEC35F0030EE15C02E2EB
:105BF000E16AE552E16E18EF34F063EC36F001E053
:105C000090D0020EDB50010801E287D0010EDB507C
:105C1000070801E282D0410E55EC34F016E1020E85
:105C2000DB500AE151EC34F003E042EC34F0FDE1EA
:105C3000F350F31C921673D051EC34F003E042ECB5
:105C400034F0FDE1F35092126AD0420E55EC34F07C
:105C500016E1020EDB500AE151EC34F003E042ECB5
:105C600034F0FDE1F350F31C931659D051EC34F0AD
:105C700003E042EC34F0FDE1F350931250D0430EB8
:105C800055EC34F016E1020EDB500AE151EC34F031
:105C900003E042EC34F0FDE1F350F31C94163FD0E6
:105CA00051EC34F003E042EC34F0FDE1F350941297
:105CB00036D0440E55EC34F016E1020EDB500AE10A
:105CC00051EC34F003E042EC34F0FDE1F350F31C0E
:105CD000951625D051EC34F003E042EC34F0FDE1B0
:105CE000F35095121CD0450E55EC34F016E1020E1F
:105CF000DB500AE151EC34F003E042EC34F0FDE11A
:105D0000F350F31C96160BD051EC34F003E042EC48
:105D100034F0FDE1F350961202D0978D02D04CEC96
:105D200034F0030EE15C02E2E16AE552E16E18EF45
:105D300034F04CEC36F0020EDB6AC4EC35F0050EA4
:105D40002BEC36F0010F6AEC36F060E1010EDB500F
:105D5000070850E3410E55EC34F00AE151EC34F001
:105D600003E042EC34F0FDE1F350801439E029D037
:105D7000420E55EC34F00AE151EC34F003E042EC11
:105D800034F0FDE1F35081141CE12AD0430E55ECB0
:105D900034F00AE151EC34F003E042EC34F0FDE180
:105DA000F35082140EE11CD0440E55EC34F00BE19C
:105DB00051EC34F003E042EC34F0FDE1F350831495
:105DC0000FE0010E10D0450E55EC34F013E151EC0C
:105DD00034F003E042EC34F0FDE1F350841402E1CE
:105DE000000E01D0010EE76E020EE7CFDBFFDB50A5
:105DF00008E002D0978D0AD0010EF36E020EF3CFA9
:105E0000DBFF020EFDEC34F06AEC35F0030EE15CD2
:105E100002E2E16AE552E16E18EF34F063EC36F02D
:105E200001E090D0020EDB50010801E287D0010EA4
:105E3000DB50070801E282D0410E55EC34F016E148
:105E4000020EDB500AE151EC34F003E042EC34F096
:105E5000FDE1F350F31C891673D051EC34F003E0EC
:105E600042EC34F0FDE1F35089126AD0420E55EC59
:105E700034F016E1020EDB500AE151EC34F003E09D
:105E800042EC34F0FDE1F350F31C8A1659D051EC8A
:105E900034F003E042EC34F0FDE1F3508A1250D0CC
:105EA000430E55EC34F016E1020EDB500AE151ECE2
:105EB00034F003E042EC34F0FDE1F350F31C8B16B8
:105EC0003FD051EC34F003E042EC34F0FDE1F3500C
:105ED0008B1236D0440E55EC34F016E1020EDB5036
:105EE0000AE151EC34F003E042EC34F0FDE1F35010
:105EF000F31C8C1625D051EC34F003E042EC34F066
:105F0000FDE1F3508C121CD0450E55EC34F016E137
:105F1000020EDB500AE151EC34F003E042EC34F0C5
:105F2000FDE1F350F31C8D160BD051EC34F003E07F
:105F300042EC34F0FDE1F3508D1202D0978D02D087
:105F40004CEC34F0030EE15C02E2E16AE552E16EF2
:105F500018EF34F0D9CFE6FFE1CFD9FFE652DF6A80
:105F6000FF0EDF5C0AE2E868E85005E0E80600D0D2
:105F700000D000D0F9D7DF2AF3D7E552E552E7CFBA
:105F8000D9FF1200F29EF29C6592656AE3DF0FEF83
:105F900000F01200F29EF29C6592656ADBDFFF0062
:105FA0001200D8EC34F08050080B01E0010E60ECD8
:105FB00036F00101C3B103D0020E14EC36F04CEF01
:105FC00034F013EC34F0060E62EC35F0070EFDEC05
:105FD00033F0010EE66ED950040F53EC35F0E76E46
:105FE000050EE7CFDBFF0001975116E1DFCFD5F0BB
:105FF000010EDBCFD6F0020EDBCFD7F0030EDBCFE6
:10600000D8F0050EDB5006E1040EDB5002E0898675
:1060100001D089964CEC34F0060EE15C02E2E16AB4
:10602000E552E16E18EF34F013EC34F0100EE12677
:106030005CEC36F0E6DBE66AD950010F26EC34F072
:10604000E66A62D967EC35F0E66A19EC36F0010EC3
:106050002BEC36F0040F26EC34F0020E2BEC36F06D
:10606000020F26EC34F0030E2BEC36F00A0FEEDBB9
:10607000060E2BEC36F0060FE9DB070E2BEC36F0A4
:106080000E0FE4DB040E2BEC36F00F0FDFDB050EFA
:10609000B4DBB20E466E810EAADB010EFDEC34F0CD
:1060A00046AE03D04768486849683CEC36F0AA0E13
:1060B000466E810E9CDBE2DB6AEC35F0A20E466E8A
:1060C000810E95DB040EDBCF46F0050EDBCF47F0EB
:1060D000486A496A47AE02D0486849683CEC36F0E5
:1060E0009A0E466E810E83DB020EDBCF46F0030E66
:1060F000DBCF47F0486A496A6AEC35F0920E466E8B
:10610000810E75DBD9500A0FADDB73EC36F0C9ECAC
:1061100035F0D950060FA6DB3FEC36F072DB820E6D
:10612000466E810E64DB0E0EE2EC35F07A0E466EA2
:10613000810E5DDB0F0EE2EC35F0C9EC35F0080E98
:10614000E66E96EC35F0C9EC35F0E66A96EC35F083
:10615000A3DB100EE15C02E2E16AE552E16E68D376
:10616000B1EC35F0DF6A110EDF5C04E2B7DBEF6AF9
:10617000DF2AF9D7FCEC35F0DF6A100EDF5C21E294
:10618000ADDBEF5080081DE3A9DBEFCF46F0200E1A
:10619000465C17E3A3DBEF50E66E180E0201476A78
:1061A000FA25466EFB51F1EC34F098DBEF50E66EC9
:1061B000020E476AFC25466EFD51F1EC34F0DF2AF1
:1061C000DCD7DF50E824180FFAC2E9FFFBC2EAFF70
:1061D000EF6EDF50E824020FFCC2E9FFFDC2EAFFC8
:1061E000EF6EE55225D358EC36F0DF6A5CEC36F002
:1061F000010EDB6A110EF36E010EE9DB0BE2010EFC
:10620000DB50EA6AE80FE96E000EEA22EF6A010E3F
:10621000DB2AF0D7100EE66E1EEC36F03AD854ECBE
:1062200036F0DF6EE668FB0EE66EE66A01EC36F0ED
:10623000AAEC48F015EC35F04CDB74EC46F015ECAC
:1062400035F02ADB020EE15C02E2E16AE552E16E22
:10625000EFD2B1EC35F0ACDBDF6A110EDF5C04E2AB
:106260003DDBEF6ADF2AF9D7FCEC35F0800E000148
:10627000E85D09E2E851200806E21EEC36F06DEC1C
:1062800045F0E552E5520101C3A1BBDA05DBE55259
:10629000CFD2B1EC35F0DF6A53DBEF6A08EC36F0B1
:1062A00002E1978905D0B0DA2C0804E06DEC35F0F6
:1062B000000E28D0D0DA04E1010E471801E1CB6BC3
:1062C0000D0E23EC36F009E02C0E476E9DDA475C8C
:1062D00004E0FC0EDB50DF5C02E3DF5013D094DA05
:1062E000E66E2EDBE552E750EF6EB5DA04E1010E03
:1062F000471801E1CB6BDF2AFD0EDB2AFE0EE0E33F
:10630000DB2ADED7E55294D28EDA090EE126080E9A
:10631000DB6A08EC36F005E1FB0EDB5019E19789EA
:1063200017D072DA2C0806E0FB0EDB5001E1D5DB5A
:10633000020E1AD190DA04E1010E471801E1CB6B8D
:106340000D0E23EC36F006E1FB0EDB5001E19789E0
:10635000030E0AD12D0E23EC36F020E1040E54DB9F
:106360001DE0050E486EFE0EDB50485C17E0FE0E89
:10637000DB0401E1C0D0030E2FDB01E1BCD0070E2E
:1063800043DB01E1B8D0010EF36E080EF3CFDBFF63
:1063900062DA04E1010E471801E1CB6B040E1CDB4D
:1063A00009E0050E31DB06E00A0EF1DAE6D854EC1E
:1063B00036F031D0CB51AFDBEFCF46F0000E46C008
:1063C000DFFF3FDB050E08DB1FE1000EDFCFE6FF3E
:1063D000010EDBCFE6FF06EC4BF0E552E552F3CFC2
:1063E00046F0F4CF47F0486A496A47AE02D04868A1
:1063F000496846C0DFFF010E47C0DBFF020E48C000
:10640000DBFF030E49C0DBFF000125DA04E1010ECA
:10641000471801E1CB6B080EDB5040E0FE0EDB506D
:1064200006E151DA800E6EDA000EEE5412E3020E2F
:10643000D3DA06E148DA000EEE54800E63DA09E39F
:10644000060EE2DA08E13FDA000E5CDA800EEE5466
:1064500002E2000150D07BDA080EDB5053E0040E5C
:10646000DBCF38F0050EDBCF39F0060EDBCF3AF08C
:10647000070EDBCF3BF03D683E683F6840684DEC5F
:106480004AF0040E34C0DBFF050E35C0DBFF060EFC
:1064900036C0DBFF070E37C0DBFF34D0FE0EDB500B
:1064A00006E111DA7F0EEE54000E2CDA23E3FE0E25
:1064B000DB0404E173DB000E25DA1CE3020E8CDA48
:1064C00004E16CDB7F0E1EDA15E3030E9DDA04E1B6
:1064D00065DBFF0E17DA0EE3060E486EFE0EDB508C
:1064E000485C0CE15BDBFF0EEE54FF0EEE547F0EBA
:1064F000EE5404E20001978D010E36D0070E6CDADF
:1065000001E025DAFE0EDB50070A21E0010A17E060
:10651000050A11E0010A0FE0030A08E0050A06E097
:10652000010A04E0050A02E0040E1ED029DA040E76
:10653000DBCFEFFF18D072DBDBCFEDFF14D06EDBCB
:10654000DBCFEEFF060EDBCFEEFF070E0AD018DA28
:10655000DFCFEEFF010EDBCFEEFF020EDBCFEEFF53
:10656000030EDBCFEEFF000E466E090EE15C02E289
:10657000E16AE552E16E46505BD19ADBE1D9EE6A01
:10658000EE6AEE6AEE6A010EDB6AFC0EDB50F36E19
:10659000010E1DDA4FE20001CB51BDDAEFCFDFFF74
:1065A000300EDF5C42E3DF5039083FE3C9D9EECF5C
:1065B00046F0EECF47F0EECF48F0EFCF49F00A0EAD
:1065C0003D6E3E6A3F6A406A46C038F047C039F0C7
:1065D00048C03AF049C03BF04DEC4AF034C046F0B8
:1065E00035C047F036C048F037C049F0300EDF5CA8
:1065F0004A6E4B6A4C6A4D6AE85046264B50472219
:106600004C5048224D5049229BD946C0EEFF47C00E
:10661000EEFF48C0EEFF49C0EEFF00011CD907E1C4
:10662000010E471804E1CB6B02D0000E04D0010E1E
:10663000DB2AABD7010E466E020EE15C02E2E16A94
:10664000E552E16E4650F4D0500E466E810ECFD822
:1066500091C046F0FCDA6AEF35F00501BC5108E064
:10666000010E466E6550020B01E0010E465C17E11B
:10667000D6D90BE17C517D1111E18C86A00E7C6F87
:106680000F0E7D6F010E7E6F12007C517D1152E165
:106690008C96A00E7C6F0F0E7D6F7E6B1200BC057A
:1066A00009E0020EBC5D06E0040EBC5D03E0100EC6
:1066B000BC5D17E1B4D90BE17C517D1111E18C86F1
:1066C000200E7C6F4E0E7D6F010E7E6F12007C518E
:1066D0007D1130E18C96200E7C6F4E0E7D6F7E6BAF
:1066E0001200200EBC5D26E19AD907E17C517D1194
:1066F00021E18C86CED9010E15D07E0507E17C51B3
:106700007D1118E18C96C5D9020E0CD0020E7E5D6B
:106710000BE17C517D110EE18C86A00E7C6F860E04
:106720007D6F030E7E6F12007C517D1103E18C960C
:10673000B0D97E6B120077D8A0D9E8AE02D046342B
:1067400003D0E750D880465423E3FD0EDB5010E021
:106750000FD9F6BEF768ADD804E0E846FE0B470651
:10676000FCE1466E05D9F6BEF768FED9EF1210D0EF
:10677000FFD8F6BEF7689DD804E0E846FE0B470652
:10678000FCE1E81C466EF4D8F6BEF768EDD9EF16CA
:106790004FD049D872D9E8AE02D0463403D0E75082
:1067A000D880465423E3FD0EDB5011E1E1D8F6BE5C
:1067B000F7687FD804E0E846FE0B4706FCE1E81CDA
:1067C000466ED6D8F6BEF768D7D9EF160FD0D0D818
:1067D000F6BEF7686ED804E0E846FE0B4706FCE11B
:1067E000466EC6D8F6BEF768C7D9EF1221D0B0D929
:1067F00054EF36F060D93FEF36F0E66E85DD67EF97
:1068000035F0010E14EF36F0CB5185D9EF50120060
:1068100088D9E66A19EF36F07D51E96EEA6AD890B8
:10682000E936EA361200D9CFE6FFE1CFD9FF1200F0
:10683000E552E7CFD9FF1200486A496A59DAEFEF0B
:1068400035F0E66E1BEC25F0E5521200E66E000E08
:10685000DA20E66E1200CB2BCB51466E476A000E53
:1068600046181200E96EDACFEAFFEECFE6FFEECF70
:10687000E6FFEECFE6FFEFCFE6FF1200DFCF46F0F8
:1068800027EF36F0D890F336E8061200EA22EECF72
:1068900056F0EFCF57F01200E66A9FEC28F0E55271
:1068A0001200010EF36EDB501200466EDF50465CA4
:1068B0001200DF0EF626920EF7220800F550476E02
:1068C000010E47521200D9CFE9FFDACFEAFFD88094
:1068D0001200B4D9100EE66E01EF36F0DF50EA6A0E
:1068E000E80FE96E000EEA221200F7220900F5CF48
:1068F000E9FF0800F5CFEAFF46501200466EA7D91F
:10690000E66E1200EE54000EEE54000EEE5412002D
:10691000DF6EDFCFE6FFC951476A000F466E020EF9
:10692000472246C0E6FF47C0E6FF45EC44F054EF7F
:1069300036F0E76E010EE7CFDBFF00019751120042
:10694000FD0EDBCFE9FFFE0EDBCFEAFF1200D9CF51
:10695000E9FFDACFEAFF040EEECFDBFF050EEECF44
:10696000DBFF060EEECFDBFF070EEECFDBFF1200E4
:10697000FE0EDBCFF6FFF76A1200DB508BEF35F02F
:10698000FC0EDBCFE9FFFD0EDBCFEAFF1200E66E67
:1069900019EF36F07D51EA6A690FE96E000EEA22BE
:1069A000EF500001EA6A8025E96E8151EA22120067
:1069B000010EE66EE66A91EF35F0DECF46F0DDCFF0
:1069C00047F01200DECFE9FFDDCFEAFF1200DBCF98
:1069D000F4FFF350F45C1200466EFE0EDB50465C92
:1069E00012004722DF50E8244624E96E000E4720BB
:1069F000EA6EE552E750EF6E1200DBCF46F027EF6C
:106A000036F0CA518BEF35F0476EFE0EDB50475C17
:106A10001200DAC0E6FF1BEC25F0E552120001017E
:106A20007C07000E7D5B7E511200466E080EE15E13
:106A300046501200010EDBCF46F0020EDBCF47F0CE
:106A40001200010EDB6A020EDB6A030EDB6A120023
:106A5000E66EE66A06EC4BF0E552E5521200030ED4
:106A6000E66EE0C046F0E1C047F01200FE0EDB50DB
:106A7000F80F466E010E46521200FE0EDBCF46F0B6
:106A8000190EE76E46181200EA22EF6ADF2A010E9D
:106A90001200100E7C6F270E7D6F1200EFDE00D902
:106AA0002C0E21EF34F0D2DE010EFDEF33F0EEDEDE
:106AB000EAD8EA22120047C0E6FF48C0E6FF49C014
:106AC000E6FF1200E126E66AE66A08EF34F0ECD849
:106AD000E5521200E5D801EF34F0580E466E810EF3
