:060000002AEF06F01200D9
:0600080004EF08F01200F5
:100018000CEF08F012001DEE00F02DEE00F0F86A6B
:0600280046EF06F0120095
:1000300001001C0E0000E6000000020000003E0E61
:10004000006E016AFC0E026E036A046A07680868A3
:100050000968066A1200D9CFE6FFE1CFD9FFE65260
:1000600004501EE1040108BF1AD0400EE66E600E77
:10007000E66E000EE66E34EC05F0E552E552E55210
:10008000010E046EDF6A400EDF5C09E2DF50EA6AAF
:10009000A00FE96E000EEA22EF6ADF2AF4D717D12B
:1000A00000016051080A01E10DD10F0A01E1D3D02E
:1000B000010A01E1CAD0030A67E0010A58E0070A11
:1000C00044E0010A01E003D10001020EA06F00012B
:1000D0003A0EA16F0001010EA26F0001010EA36F85
:1000E0000001A46B100EA56FA66BA76B01C0A8F052
:1000F00002C0A9F003C0AAF0100E0001A95F000E13
:100100000001AA5B0001AB6B0001030EAC6F0001A4
:10011000F80EAD6FAE69AF6BB06B0001080EB16F3A
:10012000B26BB36BB46B0001B56904010CBF0CD0AA
:10013000400EE66EA00EE66E000EE66E04EC05F0D4
:10014000E552E552E552046AC2D00001615107E16F
:100150003F0E006EF80E016E0268036A06D03E0E76
:10016000006E016AFC0E026E036A046AB0D0040ECF
:10017000056E0028055C06E20400AED894EC05F09C
:10018000052AF7D7046AA3D0E868071805E1E868EC
:10019000081802E1E868091806E161C007F062C0CA
:1001A00008F063C009F007500001611908E1085028
:1001B0000001621904E109500001631900E143E103
:1001C000DF6A00016551DF5C3EE2000E075C100E45
:1001D0000858000E09582CE30028596E5A6A0A0E76
:1001E000D89059365A36E806FBE15B6A5ABE5B681E
:1001F0005950075C5A5008585B50095819E23A0E9A
:100200000001D8806555DF24EA6A660FE96E000EAA
:10021000EA22EF50E66E0650E96EEA6AE9BEEA6845
:100220000A0EE926000EEA22E552E750EF6E062A92
:10023000072A000E0822000E09223A0E065C01E190
:100240005ED8DF2ABED7046A42D059D8076808684A
:100250000968046A3CD00001070EA06F61C0A1F0DC
:1002600062C0A2F063C0A3F064C0A4F065C0A5F0B2
:1002700061C0F6FF62C0F7FF63C0F8FFDF6A0001EC
:100280006551DF5C0FE209003A0E0001D880655528
:10029000DF24EA6AA60FE96E000EEA22F5CFEFFF2F
:1002A000DF2AEDD704010CBF0CD0400EE66EA00E85
:1002B000E66E000EE66E04EC05F0E552E552E552FE
:1002C000046A05D06592656A68D8FF0000D0E552DF
:1002D000E552E7CFD9FF1200F66A0550F76EF86ACB
:1002E000D890F736F836F736F836140EA66EF29E2A
:1002F000550EA76EAA0EA76EA682A6941200D9CF9D
:10030000E6FFE1CFD9FFE652DF6A000EE76E06187E
:10031000E8AE02D0063403D0E750D880065436E267
:100320000650596E5A6A5B6A59AE02D05A685B68C9
:100330005950075CF66E5A500858F76E5B500958D2
:10034000F86EDF50EA6A0A0FE96E000EEA22EF50FB
:10035000F56E0D00DF2A0606065009E0DF50EA6A56
:100360000A0FE96E000EEA22EF50F56E01D0F56833
:100370000C00DF2A240EA66EF29E550EA76EAA0E62
:10038000A76EA682065001E00606BFD7A694066AAD
:10039000E552E552E7CFD9FF1200D9CFE6FFE1CF12
:1003A000D9FFE652DF6AFF0EDF5C0AE2E868E85038
:1003B00005E0E80600D000D000D0F9D7DF2AF3D757
:1003C000E552E552E7CFD9FF12005FD9E6526450FB
:1003D00032E16296040100513C0BE842E8420D080C
:1003E00028E1180E021923E1040E031920E1100E72
:1003F000026F040E036FDF6ADF50596E5A6A080EEF
:10040000595C000E5A5813E2DF50EA6A180FE96E81
:10041000040EEA22EF50E66EDF50EA6A100FE96E32
:10042000040EEA22E552E750EF6EDF2AE5D70ED838
:100430000AD03DD808D0040E645C03E162964DD822
:1004400002D0000E01D0010EE55224D11ED9E65291
:10045000040104BF046B536A4F6A506A516A526ABE
:1004600055EC03F0DF6ADF50596E5A6A010E595C91
:10047000000E5A5819E2505017E1F76ADF34FE0BAC
:10048000F736F66EFA0EF6260D0EF7220900F5CFB6
:1004900059F00800F5CF5AF004D05AC0FAFF59506D
:1004A000F96EFBDFDF2ADFD79ED8E552F3D0020ECC
:1004B0004F5C0EE176D80401180E026F040E036F34
:1004C000080E016F00BD02D0C80E05D0880E03D003
:1004D000BCD8CCD88C0E006F1200040E555C0AE11B
:1004E00012C438FF0F013851000802E2050E01D096
:1004F000030E556E4F040FE110D8020E535C03E15A
:100500000401840E06D0040104BD02D0C80E01D03F
:10051000880E046F120025EF03F0B7D8020EE12613
:10052000080E515C000E52580DE251C0DEFF52C061
:10053000DDFF535002E1010E03D0530406E1020E29
:10054000536E03D0080EDE6EDD6A0401049304913D
:10055000010EDB500413DFCF05F4DE50515EDD5099
:10056000525A0001180EE26F040EE36F56A20CD02F
:1005700085D810E0E0C0F6FFE1C0F7FF0800F550B5
:1005800068D8F6E2DB06F4D779D804E087D8FCE235
:10059000DB06FAD7020EE15C02E2E16AE552E16EA7
:1005A00079D073D8020EE126030E04010015E76E20
:1005B000010EE7CFDBFF01C4DFFFDE505126DD5027
:1005C00052220001180EE06F040EE16F57D804E0CC
:1005D00065D8FCE2DB06FAD7020EE15C02E2E16AD2
:1005E000E552E16E57D06598505005E13FD8840E32
:1005F000006F040118D0040110AF17D05150165DE0
:100600005250175904E216C451F017C452F085DF56
:10061000010E4F6E2BD8800E006F0401180E066F6E
:10062000040E076FC80E046F1200020E4F6E040115
:10063000056BC80E046F0401080E016F180E026FDF
:10064000040E036FC80E006F12004F6A0401046BA2
:100650001200E2C0E9FFE3C0EAFFEF6EE22B000EFA
:10066000E323E02BE123DF06010E12000401080E54
:10067000016F100E026F040E036F1200D9CFE9FF55
:10068000DACFEAFFEE50ED101200D9CFE6FFE1CF4E
:10069000D9FF1200E552E7CFD9FF1200E0C0E9FF11
:1006A000E1C0EAFFEF5029EF03F004011051600BA5
:1006B000E842E842E842E842E842000901E012006C
:1006C0001151070A43E00B0A41E0070A34E0010A2E
:1006D00024E00B0A20E0020A1EE0030A1AE0080ADE
:1006E00010E0010A0CE00F0A08E0030A01E0120022
:1006F000010E506E040E556E1200A7EF03F0DDEFF1
:1007000003F0010E506E0001570EE06F000EE16F16
:100710000ED0F7EF03F025EF04F0010E506E1451E8
:100720000001E06FE16B580EE027000EE1235692C6
:10073000010E516E1200010E506E1451EA6A580FEC
:10074000E96E000EEA2212C4EFFF12001200800EC2
:100750000401105D31E11351030A20E0010A0BE0AE
:10076000030A29E1010E506E00013A0EE06F0D0EF2
:10077000E16F120E1ED0AAD8F00EF6260D0EB8D8D4
:10078000020E0001F76AE025F66EE151F72209003A
:10079000F5CF51F00A00F5CF52F00DD097D8F40EF6
:1007A000F6260D0EA5D8E0C0F6FFE1C0F7FF080061
:1007B000F550516E526A56821200010E506E0F0EA5
:1007C000E66E270EE66E0F0E9BD8010EE66E580EF3
:1007D000E66E000E95D812C457F00401125103E1E1
:1007E000050E556E1200060E556EEFEF04F0040173
:1007F000186B196B040110511F0B020A0EE0030A5B
:1008000009E0010A17E1010E506E56A013D0040151
:10081000188310D0010E506E0DD04AD801E0010EA1
:100820005ED8E2C0E9FFEA6EEF50040B03E004017A
:10083000010E186F500408E10001180EE06F040E5D
:10084000E16F5692020E516E1200040112050CE186
:1008500010511F0B000908E1010E506E030E115DCF
:1008600002E1568001D05690125121E110511F0B28
:1008700002081DE114510F0B000919E019D801E01D
:10088000010E2DD8030E0401115D02E1840E03D088
:1008900014AF07D0400EE2C0E9FFE3C0EAFFEF6EFD
:1008A0001200880EE2C0E9FFE3C0EAFFEF6E12001B
:1008B000010E506E14510F0B080DF3505A6A000FC1
:1008C000596E040E5A221451800B1200010E506E04
:1008D0001251F66EF76AD890F636F7361200040D0C
:1008E000F35000015924E26F000E5A20E36F12000A
:1008F000F7220900F5CFE0F00A00F5CFE1F0120091
:10090000E66E15EC06F0E552E552E55212000401E0
:1009100010511F0B010801E01200145101E01200F8
:10092000060E115D21E11351230A1DE0010A0DE0BD
:10093000030A19E1020E506E570405E100015E0E34
:10094000E06F0D0EE16F090E0CD0020E506E5704D1
:1009500005E10001D30EE06F0D0EE16F570403E1D6
:100960001D0E516E526A568204011051600BE8420E
:10097000E842E842E842E842010801E01200115171
:100980000B0A26E0080A19E0090A12E0080A09E041
:100990000B0A05E0080A01E01200EDEF04F0EEEFAB
:1009A00004F0020E506E00014A0EE06F000E0BD0F4
:1009B000020E506E13C44AF01200020E506E000177
:1009C0004B0EE06F000EE16F5692010E516E120059
:1009D000020E506E12C44BF01200120012004C6A4C
:1009E0000F011E0E276F0401400E096F200E0A6FC3
:1009F000040E0B6F880E086F0401600E0E6F040E5C
:100A00000F6F400E0C6F1200D9CFE6FFE1CFD9FF78
:100A1000E652FC0EDB50400805E2400EF36EFC0E81
:100A2000F3CFDBFFDF6AFC0EDB50DF5C0FE2DF5051
:100A30004DD8EF50E66EDF50EA6A600FE96E040EA3
:100A4000EA22E552E750EF6EDF2AEDD7FC0EDBCF4E
:100A50000DF4400E04010C170C7D880E0C13E552AA
:100A6000E552E7CFD9FF1200D9CFE6FFE1CFD9FF9A
:100A70004C6A040108BF25D0FC0EDBCF59F00951A8
:100A8000D880595403E2FC0E09C4DBFF4C6AFC0E0B
:100A9000DB504C5C0FE24C50EA6A200FE96E040E0A
:100AA000EA22EF50E66E4C5011D8E552E750EF6E57
:100AB0004C2AEDD70401400E096F0817087D880EF7
:100AC00008134C50E552E7CFD9FF1200E76EFD0E38
:100AD000DBCFE9FFFE0EDBCFEAFFE750E926000E91
:100AE000EA22120082AE04D065B604D00FD802D03C
:100AF00065B613D8550409E165BA07D0626A0F01DB
:100B0000366B36813689020E556E1200656A0F010A
:100B1000366B6586010E556E1200656A0F01366BE5
:100B2000556A12008DEF05F0555001E11200625038
:100B3000040B05E00F013651040B01E032D865B219
:100B400012006250010B05E00F013651010B01E06C
:100B50003BD86250100B05E00F013651100B01E03D
:100B60001FD86250200B05E00F013651200B01E029
:100B700019D8030E555C01E21200546A040E545C4D
:100B80000EE26250080B0BE00F013651080B07E034
:100B9000E5EC01F0000901E16296542AEFD712005A
:100BA000120012000F0126A10DD0800E0401005D7D
:100BB00007E1840E0401045D03E104018C0E006F63
:100BC0000F012691629A1200636A626A0F019F0EFA
:100BD000376F0F017B0E366F0F01386B0F0EE66E0D
:100BE000270EE66E0F0EE66E20D8E552E552E5526E
:100BF0000F01160E266F62A605D0629600D000D0B7
:100C00000000F9D7659825EC03F00401080E016F88
:100C10000401100E026F040E036F04018C0E006FAE
:100C20005690576A030E556E1200D9CFE6FFE1CFFA
:100C3000D9FFFD0EDBCFE9FFFE0EDBCFEAFFFC0E96
:100C4000DB5004E0EE6AFC0EDB06F9D7E552E7CF95
:100C5000D9FF12001DEE00F02DEE00F0F86AF66AE2
:100C6000100EF76E0800F550FF0808E1010EF66E51
:100C7000100EF76E0800F550FF0806E080AE02D0B7
:100C800000EF08F080AEFED701D812000DD80400A6
:100C900033D836D8060E555C05E16550020B02E1EB
:100CA0002BEC00F0F4D71200600ED36E9B8C580E24
:100CB0004D6E020E4E6E4DC059F04EC05AF04D06AC
:100CC000000E4E5A59505A10F6E165A604D06592AE
:100CD000656ACDEC01F0948E0F01140E396F556AE0
:100CE000566A576A1FEC00F08C968C9495969594F2
:100CF0000F01486B496B120072EC05F094EF05F0A0
:100D0000060E555C02E28C868C94060E555C14E14E
:100D10000001200EE65D4E0EE75902E38C868C94AE
:100D2000400EE65D9C0EE75904E38C968C84E66BDE
:100D3000E76BE62B000EE723120012010002000011
:100D40000008D8043C000200010200010902290049
:100D5000010100C032090400000203000000092163
:100D600011010001221D0007058103400001070554
:100D700001034000010403090434034D00690063CA
:100D80000072006F0063006800690070002000546A
:100D9000006500630068006E006F006C006F006704
:100DA000007900200049006E0063002E00260348F1
:100DB000004900440020005500530042002000423A
:100DC000006F006F0074006C006F006100640065CC
:100DD0000072000600FF0901A10119012940150058
:100DE00026FF00750895408100190129409100C037
:100DF0004C0D4C0D750D790DAD0D0E09C00EF36E39
:100E000000EE00F00E0E01D81200EA6002D0EE6A89
:0E0E1000FCD7F350E9601200EE6AFCD7000038
:06100000C9EF6FF01200C1
:061008002EEF08F01200BB
:0610180059EF41F0120047
:10102A00040076E0000000050000ED00000074E016
:10103A000000B90E00000200000072E00000B70EC6
:10104A00000002000000F4DF0000800200007E00C1
:10105A000000DACFE4FFE9CFE4FFEACFE4FFF3CF01
:10106A00E4FFF4CFE4FFE6529E90FE0ECF6E300E00
:10107A00CE6E0101C8B38C82BF8180A933D0C3511F
:10108A0004E15F0E831481118C6EC1A116D0C8A52C
:10109A0002D0FCEC20F090EC23F0B2AF0ED0B29F5D
:1010AA00818D02EC21F0C8A504D0CE2BCF23D0230A
:1010BA00D123D2EC20F001E1C191C2A10BD099EC6D
:1010CA0023F0B6AF07D0B69F46EC21F00BEC21F027
:1010DA0001E1C291010EC11540E1010EC21501E103
:1010EA006ED03BD080AB3BD0C1A11DD0C8A502D0E9
:1010FA00FCEC20F0E6EC1EF0B2AF15D07F0EB21574
:10110A00B26F818D02EC21F0C8A504D0CE2BCF237B
:10111A00D023D1238AAF02D0818F01D0819FD2EC14
:10112A0020F001E1C191C2A112D0F8EC1EF0B6AFD5
:10113A000ED07F0EB615B66F46EC21F08EAF02D0F8
:10114A00818B01D0819B0BEC21F001E1C291010E50
:10115A00C11503E1010EC21532E0BF9130D080AD56
:10116A002ED0C1A12CD0BF9102EC21F0D2EC20F0FC
:10117A0001E1C191C8A502D0FCEC20F0E6EC1EF01A
:10118A00B2AF10D07F0EB215B26F818DC8A505D04F
:10119A00CE2B000ECF23D023D1238AAF02D0818F4A
:1011AA0001D0819FF8EC1EF0B6AF09D07F0EB615BC
:1011BA00B66F81898EAF02D0818B01D0819B500E90
:1011CA00811542E0C35105E10F0E831481118C6E23
:1011DA000ED081AF02D08B8401D08B9481AB02D028
:1011EA00898401D0899481BD8B8C81B9898A81AD2A
:1011FA0019D081AF0CD0B707000EB85BB95BBA5BE8
:10120A00C8A510D0D207D35BD45BD55B0BD0B72B64
:10121A00000EB823B923BA23C8A504D0D22BD323EE
:10122A00D423D52381A90DD081AB06D0BB07000EEC
:10123A00BC5BBD5BBE5B05D0BB2B000EBC23BD23D4
:10124A00BE23AF0E8117DCD080A35CD08B80C4A1F3
:10125A003BD0AA05C96FA851A9111BE1CBEC20F01C
:10126A00EF500E01EA6AAC25E96EAD51EA22EF6A47
:10127A000101D2EC23F0EE6AED6AD9EC23F0EE6AB2
:10128A00ED6ACBEC20F0EF6A10EC24F0EE6AED6A1E
:10129A001BD0D2EC23F0ABC1EEFFACC1EDFFD9EC11
:1012AA0023F0A8C1EEFFA9C1EDFFCBEC20F0A7C146
:1012BA00EFFF10EC24F0EE50ED1006E110EC24F0F4
:1012CA00A8C1EEFFA9C1EDFF0E01B6510101A75D4C
:1012DA0019E10E01B0510101A8190DE10E01B15138
:1012EA000101A91908E10501010EF46FF16BFD5125
:1012FA0009E08A9807D00501F46B010EF16FFD51E0
:10130A0001E08A88030E010180150EE010EC21F03D
:10131A0001E176D08207000E835B845B855B10EC6B
:10132A0021F06EE0BF916CD080A52BD0865123E0CE
:10133A00ADC138F0AEC139F0D89039323832D890D0
:10134A00393238323850BB6EFBC53AF0FCC53BF037
:10135A00040ED8903A363B36E804FBE1300E3A16D2
:10136A00000E3B16CF0EBA1400013A10386E3BC07D
:10137A0039F0E85003D0BB6ACF0EBA14BA6E010135
:10138A003ED080A73DD08151000823E2C35102E13B
:10139A008D9001D08C92810503E18D848D82898C98
:1013AA00020E815D03E18D848D82899C030E815D2D
:1013BA0003E18D948D82899C040E815D03E18D8405
:1013CA008D92899C050E815D09E18D948D92899C8F
:1013DA0005D0C35102E18D8001D08C82A75100084B
:1013EA0006E2C35102E18B9207D0899205D0C3511C
:1013FA0002E18B8201D089824DEC1FF0D96BBF814B
:10140A00C8A555D2010EBF1504E1080EC81501E1A1
:10141A004ED2700E801501E14AD2C88FADA2FED716
:10142A00540EAE6EADA2FED72C0EAE6ECAC1DAF164
:10143A00CBC1DBF1CCC1DCF1CDC1DDF173EC24F021
:10144A0005E3ADA2FED732EC1EF004D0ADA2FED762
:10145A0081EC1DF0BEEC22F005E3ADA2FED732EC22
:10146A001EF004D0ADA2FED781EC1DF077EC24F07B
:10147A0005E3ADA2FED732EC1EF004D0ADA2FED732
:10148A0081EC1DF0C3EC22F005E3ADA2FED732ECED
:10149A001EF004D0ADA2FED781EC1DF07BEC24F047
:1014AA0005E3ADA2FED732EC1EF004D0ADA2FED702
:1014BA0081EC1DF0C8EC22F005E3ADA2FED732ECB8
:1014CA001EF004D0ADA2FED781EC1DF07FEC24F013
:1014DA0005E3ADA2FED732EC1EF004D0ADA2FED7D2
:1014EA0081EC1DF0CDEC22F005E3ADA2FED732EC83
:1014FA001EF004D0ADA2FED781EC1DF0AE6EADA2F7
:10150A00FED72C0EAE6EADA2FED7530EAE6EADA2B6
:10151A00FED72C0EAE6ECEC1DAF1CFC1DBF1D0C14F
:10152A00DCF1D1C1DDF173EC24F005E3ADA2FED705
:10153A0032EC1EF004D0ADA2FED781EC1DF0BEEC59
:10154A0022F005E3ADA2FED732EC1EF004D0ADA224
:10155A00FED781EC1DF077EC24F005E3ADA2FED7AF
:10156A0032EC1EF004D0ADA2FED781EC1DF0C3EC24
:10157A0022F005E3ADA2FED732EC1EF004D0ADA2F4
:10158A00FED781EC1DF07BEC24F005E3ADA2FED77B
:10159A0032EC1EF004D0ADA2FED781EC1DF0C8ECEF
:1015AA0022F005E3ADA2FED732EC1EF004D0ADA2C4
:1015BA00FED781EC1DF07FEC24F005E3ADA2FED747
:1015CA0032EC1EF004D0ADA2FED781EC1DF0CDECBA
:1015DA0022F005E3ADA2FED732EC1EF004D0ADA294
:1015EA00FED781EC1DF0AE6EADA2FED72C0EAE6E0C
:1015FA00ADA2FED7430EAE6EADA2FED72C0EAE6ED6
:10160A00AFC1DAF1B0C1DBF1B1C1DCF1B2C1DDF1D8
:10161A0073EC24F005E3ADA2FED732EC1EF004D041
:10162A00ADA2FED781EC1DF0BEEC22F005E3ADA21F
:10163A00FED732EC1EF004D0ADA2FED781EC1DF02D
:10164A0077EC24F005E3ADA2FED732EC1EF004D00D
:10165A00ADA2FED781EC1DF0C3EC22F005E3ADA2EA
:10166A00FED732EC1EF004D0ADA2FED781EC1DF0FD
:10167A007BEC24F005E3ADA2FED732EC1EF004D0D9
:10168A00ADA2FED781EC1DF0C8EC22F005E3ADA2B5
:10169A00FED732EC1EF004D0ADA2FED781EC1DF0CD
:1016AA007FEC24F005E3ADA2FED732EC1EF004D0A5
:1016BA00ADA2FED781EC1DF0CDEC22F005E3ADA280
:1016CA00FED732EC1EF004D0ADA2FED781EC1DF09D
:1016DA00AE6EADA2FED72C0EAE6EADA2FED7520EE6
:1016EA00AE6EADA2FED72C0EAE6E87C1DAF188C1FE
:1016FA00DBF189C1DCF18AC1DDF173EC24F005E389
:10170A00ADA2FED732EC1EF004D0ADA2FED781EC1A
:10171A001DF0BEEC22F005E3ADA2FED732EC1EF0BE
:10172A0004D0ADA2FED781EC1DF077EC24F005E3DE
:10173A00ADA2FED732EC1EF004D0ADA2FED781ECEA
:10174A001DF0C3EC22F005E3ADA2FED732EC1EF089
:10175A0004D0ADA2FED781EC1DF07BEC24F005E3AA
:10176A00ADA2FED732EC1EF004D0ADA2FED781ECBA
:10177A001DF0C8EC22F005E3ADA2FED732EC1EF054
:10178A0004D0ADA2FED781EC1DF07FEC24F005E376
:10179A00ADA2FED732EC1EF004D0ADA2FED781EC8A
:1017AA001DF0CDEC22F005E3ADA2FED732EC1EF01F
:1017BA0004D0ADA2FED781EC1DF0AE6EADA2FED76D
:1017CA002C0EAE6EADA2FED7500EAE6EADA2FED7F7
:1017DA002C0EAE6ED2C1DAF1D3C1DBF1D4C1DCF189
:1017EA00D5C1DDF173EC24F005E3ADA2FED732ECEE
:1017FA001EF004D0ADA2FED781EC1DF0BEEC22F0A3
:10180A0005E3ADA2FED732EC1EF004D0ADA2FED79E
:10181A0081EC1DF077EC24F005E3ADA2FED732ECA3
:10182A001EF004D0ADA2FED781EC1DF0C3EC22F06D
:10183A0005E3ADA2FED732EC1EF004D0ADA2FED76E
:10184A0081EC1DF07BEC24F005E3ADA2FED732EC6F
:10185A001EF004D0ADA2FED781EC1DF0C8EC22F038
:10186A0005E3ADA2FED732EC1EF004D0ADA2FED73E
:10187A0081EC1DF07FEC24F005E3ADA2FED732EC3B
:10188A001EF004D0ADA2FED781EC1DF0CDEC22F003
:10189A0005E3ADA2FED732EC1EF004D0ADA2FED70E
:1018AA0081EC1DF0AE6EADA2FED70A0EAE6E01013E
:1018BA00D75120E081CFD6F1D651D819E81CD715D7
:1018CA0019E0D6C122F5D981C16BC26BBF81DF6B2A
:1018DA00E06BE16BBBEC20F0EF6A2F0E0E01E8EC37
:1018EA001FF05E0EE8EC1FF08D0EE8EC1FF0BC0E48
:1018FA00E8EC1FF00101BFA1D7D0806BDF5101E1F5
:10190A00CBD0C8B38C80C5B18C94E1518EEC1CF05D
:10191A00EFCFE2F10101E2A903D0EEEC24F004D00A
:10192A00E2AB14D0B0EC21F035EC23F0EAEC20F075
:10193A0035EC23F0040EE0EC1DF0EECF93F1EECF80
:10194A0094F1EECF95F1EFCF96F108D0E2AD10D039
:10195A00B0EC21F035EC23F0EAEC20F03DEC23F07A
:10196A00020EE0EC1DF036EC1FF072EC23F043D0CF
:10197A00E2A323D0FDEC21F036EC24F0280EE0ECB3
:10198A001DF0EECFA8F1EDCFA9F136EC24F0270E29
:10199A00E0EC1DF0EFCFA7F136EC24F02A0EE0ECD4
:1019AA001DF0EFCFAAF136EC24F02B0EE0EC1DF07F
:1019BA00EECFABF1EDCFACF11ED0E2A103D0FDEC3E
:1019CA0021F019D0E2A50ED0FDEC21F072EC23F043
:1019DA0036EC24F02D0EE0EC1DF0EECFADF1EDCF9C
:1019EA00AEF109D06AEC24F03DEC23F0270EE0ECCE
:1019FA001DF0EFCFA7F1700E0101801531E086A925
:101A0A0009D082C1AFF183C1B0F184C1B1F185C1FE
:101A1A00B2F11AD086A104D0AF6BB06BB16BB26BC6
:101A2A0086A304D0B36BB46BB56BB66B86A505D031
:101A3A00AF69B069B1697F0EB26F86A705D0B36985
:101A4A00B469B5697F0EB66FD2EC20F002E0C181AD
:101A5A0001D0C1910BEC21F002E0C28101D0C29108
:101A6A00C8A50CD0CA6BCB6BCC6BCD6BCE6BCF6BD6
:101A7A00D06BD16BD26BD36BD46BD56BE1518EEC3F
:101A8A001CF0EF6A0101E12B140EE15D01E3E16B49
:101A9A00DF510AE0DF0708D0826B836B846B856BAA
:101AAA00C5B18C84C8B3898280AEC681C7A102D071
:101ABA0081A0C681C35103E18C9C8C9802D08B9C77
:101ACA00899AC8AF06D09E90FE0ECF6E300ECE6EAB
:101ADA00C89FC8A303D089928C908C92E552E5CF17
:101AEA00F4FFE5CFF3FFE5CFEAFFE5CFE9FFE5CF66
:101AFA00DAFF1100D9CFE6FFE1CFD9FFE652DF6A5C
:101B0A00020EDF5C2DE2DF50040DF3CFE9FFF4CFC4
:101B1A00EAFF870EE926010EEA22010EEE6EEE6A50
:101B2A00EE6AEE6ADF50040DF3CFE9FFF4CFEAFF65
:101B3A008F0EE926010EEA22EE6AEE6AEE6AEE6A74
:101B4A00DF50040DF3CFE9FFF4CFEAFF9F0EE92639
:101B5A00010EEA22EE6AEE6AEE6AEE6ADF2AD0D750
:101B6A000101806B0101816B0101826B836B846BC4
:101B7A00856B0101A86BA96B0101A76B0101AA6B17
:101B8A000101AB6BAC6B0101C5910101C86BCD8240
:101B9A00CD9ECD9CCD9ACD98CD96CD94CF6ACE6A66
:101BAA009F809E909D80CD8092809F9C010EE66EC4
:101BBA00E66AD6EC4BF0E552E552010EE66E0B0EE4
:101BCA00E66ED6EC4BF0E552E5528D8496948D8202
:101BDA009692898C929C8D8096908B8294928C9C02
:101BEA00959C8C9E959E8C9895988C9A959A949E85
:101BFA00828E0000000000000000000000000000CB
:101C0A0000000000000000000000000000000000CA
:101C1A000000000000000000948E829E0501010E63
:101C2A00FD6F0101C4818A9893988996929605015D
:101C3A00010EF16F0101C36B0501010EF46F05017D
:101C4A00F96B0501F56BF66BF76BF86B0101C66B67
:101C5A000501FF6B0501010EFE6F0101DF6B01013A
:101C6A00E06B0101E16B0101E36B0101E46B01012E
:101C7A00050EE56F0101E66B9380F19E0101C781B4
:101C8A00939681960101D66B0101D76B0101D86B3E
:101C9A000101D96B80EC1CF0E552E552E7CFD9FF80
:101CAA001200DBEC1DF0030E3FEC1FF0CDEC24F02C
:101CBA00E66ABFEC1EF00601B45101E0B2D0DF04BF
:101CCA0022E114EC24F008E10501010EFD6F010187
:101CDA00C4918FEC1FF00FD0E2EC1EF0010EEE184B
:101CEA0005E1ED5003E10501FD6B03D00501010E8D
:101CFA00FD6F0101C481000EE66EE66AF4C5E6FFD7
:101D0A0008EC21F08CD0020EDF5C30E114EC24F0F8
:101D1A0009E10101C36B96909492959C959E9598C2
:101D2A00959A1DD0E2EC1EF0010EEE180DE1ED5071
:101D3A000BE10101010E1AEC21F094949294949C07
:101D4A00929A959292926BD0E2EC1EF0020EEE18E5
:101D5A0066E1ED5064E10101020E1AEC21F094846F
:101D6A009284948C928A9582928259D0040EDF5C76
:101D7A0007E1010EDBCFB0FE020EDBCFB1FE4FD082
:101D8A00050EDF5C07E1010EDBCFAEFE020EDBCFF4
:101D9A00AFFE45D0080EDF5C0FE1E2EC1EF0180E34
:101DAA00D880EE54000EED5403E2180E4DEC21F0EB
:101DBA00010EDBCFAAFE33D0090EDF5C0FE1E2ECA5
:101DCA001EF0060ED880EE54000EED5403E2060E05
:101DDA004DEC21F0010EDBCFABFE21D00A0EDF5C09
:101DEA0003E154EC21F009D00B0EDF5C03E154EC63
:101DFA0021F015D00C0EDF5C07E1010EDBCFB4FE3B
:101E0A00020EDBCFB5FE0BD00D0EDF5C08E114EC41
:101E1A0024F003E00101C78102D00101C79136EC29
:101E2A001EF0030EE15C02E2E16AE552A6EF1DF044
:101E3A0019EC24F048EC24F099EC1DF0D950FB0F72
:101E4A0080EC1EF002E6E6EC1CF016E31CEC22F035
:101E5A0015E1E4EC1DF0D950F70F80EC1EF002E614
:101E6A00E6EC1CF009E31CEC22F008E1C7EC23F0D5
:101E7A0002E6E6EC1CF002E2010E01D0000E006E52
:101E8A00040EE15C02E2E16AE5525BEF21F0DBEC71
:101E9A001DF04C0EC1EC1CF0470EDB6A480EDB6AE3
:101EAA00490EDB6A4A0EDB6A59EC24F04BEC24F04B
:101EBA00140F04EC22F0470F92EC24F04B0EFEECC8
:101ECA001FF053E10501FE513FE01CEC22F005E151
:101EDA0034EC22F0FEEC1DF00DE0080EDBCF08F02A
:101EEA00090EDBCF09F00A0EDBCF0AF00B0E5EEC0F
:101EFA0021F02AE1040EDBCF0CF0050EDBCF0DF04A
:101F0A00060EDBCF0EF0070E65EC21F00DE1140E84
:101F1A00DBCF10F0150EDBCF11F0160EDBCF12F06F
:101F2A00170E6CEC21F00DE00C0EDBCF14F00D0E49
:101F3A00DBCF15F00E0EDBCF16F00F0E73EC21F08F
:101F4A0003E10601B48D11D04B0E42EC21F0470F8C
:101F5A0070EC24F0E66A23EC1FF0140F55EC24F021
:101F6A00040F56EC22F086EC24F04C0EE15C02E2FF
:101F7A00E16AE552A6EF1DF0CBEC23F0200EDB6AF6
:101F8A007AEC21F059EC24F0180FEBEC21F04BEC31
:101F9A0024F0140FEBEC21F01C0F04EC22F0200FBC
:101FAA0092EC24F0240EFEEC1FF001E07AD0050139
:101FBA00FE5161E01CEC22F012E134EC22F0FEEC5E
:101FCA001DF00DE1180EDBCF08F0190EDBCF09F07A
:101FDA001A0EDBCF0AF01B0E5EEC21F00DE0080EA4
:101FEA00DBCF0CF0090EDBCF0DF00A0EDBCF0EF0C3
:101FFA000B0E65EC21F03FE1040EDBCF10F0050E6D
:10200A00DBCF11F0060EDBCF12F0070E6CEC21F0DD
:10201A001EE1140EDBCF14F0150EDBCF15F0160EF1
:10202A00DBCF16F0170E73EC21F011E1180EDBCF9F
:10203A0018F0190EDBCF19F01A0EDBCF1AF01B0EAF
:10204A00DBCF1BF0185019101A101B1011E00C0EE0
:10205A00DBCF1CF00D0EDBCF1DF00E0EDBCF1EF01A
:10206A000F0EDBCF1FF01C501D101E101F1003E1B6
:10207A000601B48D16D0240E42EC21F0200F70EC2C
:10208A0024F0E66AD9501C0FD7EC21F0140F55EC56
:10209A0024F0040FD7EC21F0180FD7EC21F086ECCE
:1020AA0024F0250EE15C02E2E16AE552A6EF1DF09A
:1020BA00DBEC1DF0500EC1EC1CF0A2EC23F04B0E31
:1020CA00DB6A4C0EDB6A4D0EDB6A4E0EDB6AB7EC3E
:1020DA0022F04BEC24F0140FEBEC21F00EEC25F07F
:1020EA00180F04EC22F04B0F92EC24F04F0EFEEC8A
:1020FA001FF01FE10501FE5106E01CEC22F003E18E
:10210A000601B48D16D04F0E42EC21F04B0F1EEC97
:10211A0024F0E66ED950180FD7EC21F0100F56ECC8
:10212A0022F0080FD7EC21F0140FD7EC21F08CEC39
:10213A0024F0500EE15C02E2E16AE552A6EF1DF0DE
:10214A00DBEC1DF0190EC1EC1CF0B7EC22F04BECE5
:10215A0024F0080FEBEC21F0100F04EC22F0140F1E
:10216A0092EC24F0180EFEEC1FF01AE10501FE5164
:10217A0006E01CEC22F003E10601B48D11D0180E22
:10218A0042EC21F0140F1EEC24F0E66E23EC1FF053
:10219A00100F56EC22F0080F56EC22F08CEC24F0CB
:1021AA00190EE15C02E2E16AE552A6EF1DF0DBECF2
:1021BA001DF02F0EE1260101D9B107D2C8B515D0FD
:1021CA00F6EC1FF0D880030E8CEC23F0000E8CEC9A
:1021DA0023F00BE2030EF36ED60EF3CFDBFFD70E1E
:1021EA00DB6AD80EDB6AD90EDB6ADA0EDB5001E055
:1021FA0083D0C7EC23F002E6E6EC1CF022E221ECE5
:10220A0024F002E6E6EC1CF02CE38DEC22F07FECE5
:10221A0022F0EF0EDBCF26F0F00EDBCF27F0F10E27
:10222A00DBCF28F0F20E79EC1DF0EF0E22C0DBFFB7
:10223A00F00E23C0DBFFF10E24C0DBFFF20E25C037
:10224A00DBFFD950E30FCDEC1DF002E6E6EC1CF003
:10225A0053E2D950E70FCDEC1DF002E6E6EC1CF094
:10226A0003E20601B48DB1D1E30EDBCF26F0E40E12
:10227A00DBCF27F0E50EDBCF28F0E60E79EC1DF078
:10228A00E30E22C0DBFFE40E23C0DBFFE50E24C011
:10229A00DBFFE60E25C0DBFFE70EDBCF26F0E80EFC
:1022AA00DBCF27F0E90EDBCF28F0EA0E79EC1DF040
:1022BA00E70E22C0DBFFE80E23C0DBFFE90E24C0D5
:1022CA00DBFFEA0E25C0DBFFDF0EDBCF26F0E00ED8
:1022DA00DBCF27F0E10EDBCF28F0E20E79EC1DF020
:1022EA00DF0E22C0DBFFE00E23C0DBFFE10E24C0BD
:1022FA00DBFFE20E25C0DBFF010EDB6A020E22ECD9
:10230A0021F048EC23F0A6EC1EF0F70F64EC1FF066
:10231A00EB0EDBCF08F0EC0EDBCF09F0ED0EDBCFD6
:10232A000AF0EE0E52EC1EF0F70E00C0DBFFF80EBC
:10233A0001C0DBFFF90E02C0DBFFFA0EE0EC22F06F
:10234A00A6EC1EF0E70F64EC1FF0DB0EDBCF08F003
:10235A00DC0EDBCF09F0DD0EDBCF0AF0DE0E52EC2D
:10236A001EF0E70E00C0DBFFE80E01C0DBFFE90E3E
:10237A0002C0DBFFEA0E03C0DBFF060EDB6A0101C7
:10238A00C8A520D0D50EDB5014E1100EF36E060E50
:10239A00F3CFDBFFF6EC1FF0020EEECFDBFF030EEE
:1023AA00EECFDBFF040EEECFDBFF050EEECFDBFF39
:1023BA002BD09BEC22F003E0060EDB8425D0060E20
:1023CA00DB8022D0010E5CEC22F008E09BEC22F0CC
:1023DA0003E0060EDB8402D0060EDB80020E5CEC04
:1023EA0022F012E0D950DB0FA1EC24F0DF0FA1ECB0
:1023FA0024F0E70FE2EC1CF0B3EC20F003E0060E49
:10240A00DB8602D0060EDB8248EC23F0DBCF07F036
:10241A00D950EB0FF5EC21F0F1EC1DF0EF0E00C0F6
:10242A00DBFFF00E01C0DBFFF10E02C0DBFFF20E94
:10243A00E0EC22F0DBCF07F0D950DB0FF5EC21F00E
:10244A00F1EC1DF0DF0E00C0DBFFE00E01C0DBFF88
:10245A00E10E02C0DBFFE20E03C0DBFF050121052E
:10246A0002E18D908B92D950F70FF5EC21F0070E0F
:10247A00EECFDBFF080EEECFDBFF090EEECFDBFF60
:10248A000A0EEECFDBFFDA0EDB5003E0D950FB0F6A
:10249A0002D0D950F30FF5EC21F034EC20F0D950EA
:1024AA00EF0F72EC1FF0D950EB0FF5EC21F0E6ECD0
:1024BA0023F0E70FF5EC21F00B0EEECFDBFF19EC62
:1024CA001FF0DA0EDB5005E0A8EC24F0160EDB6AEA
:1024DA0009D0D950E30FF5EC21F0130EEECFDBFF54
:1024EA0079EC23F0D950DF0F7BEC1FF0D950DB0FCA
:1024FA00F5EC21F041EC20F0DA0EDB5002E0400E60
:10250A0001D0200EDF6EACEC21F0FDE2D9B138D05B
:10251A00EBEC24F0DFCFEEFF010EDBCFEEFF020E75
:10252A00DBCFEEFF030EDBCFEEFF040EDBCFEEFFB9
:10253A00050EDBCFEEFF060EDBCFEEFF070EDBCF7D
:10254A00EEFF080EDBCFEEFF090EDBCFEEFF0A0E21
:10255A00DBCFEEFF0B0EDBCFEEFF0C0EDBCFEEFF79
:10256A000D0EDBCFEEFF0E0EDBCFEEFF0F0EDBCF35
:10257A00EEFF13EC1DF015EC21F001E3E06BDF2B0D
:10258A00C8A921D0D9501B0FD7EC21F0230FD7ECC3
:10259A0021F0130FD7EC21F00B0FD7EC21F0170F16
:1025AA00D7EC21F01F0FD7EC21F00F0FD7EC21F059
:1025BA00070F70EC24F0E10E006ECA0E6EEC23F0E9
:1025CA00230E5FEC23F036EC1EF02F0EE15C02E2E4
:1025DA00E16AE552A6EF1DF0DBEC1DF0110EDAEC14
:1025EA0021F0100EDB6AB7EC22F0040F04EC22F0A3
:1025FA00080F04EC22F0100F83EC24F00501FE51C1
:10260A0001E17CD01CEC22F002E10601B48D060146
:10261A00B45101E079D003EC20F004E2B00E006E70
:10262A00CA0E63D09AEC1FF002E686EC1DF005E2B2
:10263A00D950040F9AEC24F004D0EDEC22F04EECC1
:10264A0020F059EC22F002E639EC1EF004E2840E86
:10265A00006ECA0E4AD0F9EC22F004E2560E006E61
:10266A00CA0E43D0AFEC24F0E8AE02D02A3402D02E
:10267A0072EC1EF009E33FEC22F0FEEC1DF004E0E0
:10268A00320E006ECA0E31D0A5EC1FF002E686ECBF
:10269A001DF005E2D950080F9AEC24F004D005EC9D
:1026AA0023F04EEC20F059EC22F002E639EC1EF051
:1026BA0004E2060E006ECA0E18D0F9EC22F004E20B
:1026CA00D80E006EC90E11D0AFEC24F0E8AE02D0DD
:1026DA002A3402D072EC1EF00BE33FEC22F0FEEC3F
:1026EA001DF006E0B40E006EC90ED1EC24F009D03C
:1026FA00100EDB50030802E2100EDB6A100E61ECCA
:10270A0024F055EC49F0E552110EE15C02E2E16A6F
:10271A00E552A6EF1DF0CBEC23F0010EF36E200E6E
:10272A00F3CFDBFF7AEC21F0240EDB6A0BEC1DF011
:10273A00ACEC1DF0010EE66ED950040F04EC22F049
:10274A00080F97EC1CF00501FE5106E01CEC22F084
:10275A0003E10601B48DA5D1ACEC21F0FDE2200E17
:10276A00DB040AE1F29E10EC21F004E1805102E15F
:10277A00200EDB6AF28EF3D7B7C104F0B8C105F0B8
:10278A00B9C106F0BAC107F0D7EC20F0040F05EC86
:10279A001EF05BEC20F0BBC104F0BCC105F0BDC16A
:1027AA0006F0BEC107F0D7EC20F0080F05EC1EF0CA
:1027BA0068EC20F063EC23F002E6E6EC1CF005E29C
:1027CA0011EC23F029EC1FF004D0D9500C0F9FEC28
:1027DA001EF067EC23F002E6E6EC1CF00FE21DECBB
:1027EA0023F0180E22C0DBFF190E23C0DBFF1A0EDE
:1027FA0024C0DBFF1B0E25C0DBFF09D0D950100F08
:10280A007BEC22F085EC1FF01B0EEECFDBFFB9EC60
:10281A0023F002E639EC1EF009E375EC20F02A34C5
:10282A00000E2A1802E639EC1EF004E2860E006E4B
:10283A00C90EA2D0C5EC1EF0DBCF03F0D950140F9D
:10284A007BEC22F0030EEBCFF3FF0350F318E8AE54
:10285A0002D0F33408D0EE50005CEE500158EE502E
:10286A000258EE50035801E37DD047EC1EF09CEC71
:10287A001CF090EC1EF004E2550E006EC90E7CD0DE
:10288A00A5EC22F075EC20F003502A18E8AE02D02D
:10289A002A3402D072EC1EF001E2D4D0180EDBCF3B
:1028AA0004F0190EDBCF05F01A0EDBCF06F01B0E73
:1028BA00FEEC1DF001E1C6D0C5EC1EF09CEC1CF04C
:1028CA0059EC22F002E686EC1DF006E214EC1EF04A
:1028DA0002E686EC1DF029E363EC23F002E6E6EC5F
:1028EA001CF006E214EC1EF002E686EC1DF00CE386
:1028FA0059EC22F002E686EC1DF00BE267EC23F0BD
:10290A0002E6E6EC1CF005E21DEC23F082EC20F076
:10291A0010D063EC23F002E6E6EC1CF00AE267EC66
:10292A0023F002E6E6EC1CF004E2D950100FB0ECFA
:10293A001FF0030EE66ED950100FD7EC21F0210FCD
:10294A00D7EC21F058EC23F00CEC20F0210FD5EC59
:10295A0024F05BEC20F0B5EC24F0130EDB6A47ECB4
:10296A001EF06ED0C5EC1EF09CEC1CF090EC1EF034
:10297A0006E2240E006EC90ED1EC24F08FD0A5EC2D
:10298A0022F025EC24F0E8AE02D02A3402D072EC10
:10299A001EF058E310EC22F055E047EC1EF09CECD8
:1029AA001CF014EC1EF002E686EC1DF006E259EC6F
:1029BA0022F002E686EC1DF029E367EC23F002E63A
:1029CA00E6EC1CF006E259EC22F002E686EC1DF079
:1029DA000CE314EC1EF002E686EC1DF00BE263EC4D
:1029EA0023F002E6E6EC1CF005E211EC23F082EC9F
:1029FA0020F010D067EC23F002E6E6EC1CF00AE2C5
:102A0A0063EC23F002E6E6EC1CF004E2D9500C0F6A
:102A1A00B0EC1FF0030EE66ED950210F55EC24F0EE
:102A2A0058EC23F034EC22F0DBCF07F0D950210F19
:102A3A00D5EC24F068EC20F000EC25F0C5EC1EF093
:102A4A009CEC1CF0D9501C0F7BEC22F00A0EEE5CB9
:102A5A00000EBCEC23F007E20A0EF36E1C0EF3CF55
:102A6A00DBFFEDEC23F00101C8A90FD0D950100FFC
:102A7A0055EC24F01C0F70EC24F0040E006EC90E05
:102A8A006EEC23F00F0E5FEC23F0030EE66ED950C6
:102A9A00100F55EC24F058EC23F0E66A55EC49F097
:102AAA00E552250EE15C02E2E16AE552A6EF1DF06D
:102ABA00DBEC1DF0190EC1EC1CF0180EDB6AB7EC4A
:102ACA0022F00C0FEBEC21F0100F04EC22F0180F9F
:102ADA0083EC24F0180EDB50030805E2030EF36EB4
:102AEA00180EF3CFDBFF0501FE5105E01CEC22F0C6
:102AFA0002E10601B48D100EDBCF00F0110EDBCF20
:102B0A0001F0120EDBCF02F0130EDBCF03F0D95027
:102B1A000C0F7BEC22F0ABEC23F0040E00C0DBFFC1
:102B2A00050E01C0DBFF060E02C0DBFF070E03C065
:102B3A00DBFF0CEC20F0100FD5EC24F0080E00C0DF
:102B4A00DBFF090E01C0DBFF0A0E02C0DBFF0B0E22
:102B5A0003C0DBFF9AEC1FF002E686EC1DF005E2EB
:102B6A00D950040F9FEC1EF004D0EDEC22F029ECB2
:102B7A001FF00501FE512CE003EC20F004E2B00E38
:102B8A00006ECA0E5BD0B9EC23F002E639EC1EF0F7
:102B9A0004E2840E006ECA0E51D047EC1EF071ECAE
:102BAA001DF004E2560E006ECA0E48D043EC23F024
:102BBA0025EC24F0E8AE02D02A3402D072EC1EF0E2
:102BCA0007E310EC22F004E0320E006ECA0E36D093
:102BDA00A5EC1FF002E686EC1DF005E2D950080FBD
:102BEA009FEC1EF004D005EC23F029EC1FF0050140
:102BFA00FE5127E0B9EC23F002E639EC1EF004E2BC
:102C0A00060E006ECA0E1AD047EC1EF071EC1DF0CB
:102C1A0004E2D80E006EC90E11D043EC23F025EC65
:102C2A0024F0E8AE02D02A3402D072EC1EF009E396
:102C3A0010EC22F006E0B40E006EC90ED1EC24F0BE
:102C4A0006D00601B45106E1180E61EC24F055ECE9
:102C5A0049F0E552190EE15C02E2E16AE552A6EF9B
:102C6A001DF0DBEC1DF03F0EDAEC21F00101D9B1C9
:102C7A000DD2C8A912D0D950F30FA1EC24F0F70F46
:102C8A00A1EC24F0FB0FE2EC1CF0E70E006EC80E7C
:102C9A006EEC23F00F0E5FEC23F0F20EDB5003080C
:102CAA0005E2030EF36EF20EF3CFDBFFF20EDB50FA
:102CBA00E76E160EE7CFDBFF99EC1DF07BEC1EF0FA
:102CCA0026E129EC23F023E1010EF36E100EF3CF77
:102CDA00DBFFAFEC1DF0120E22C0DBFF130E23C088
:102CEA00DBFF140E24C0DBFF150E25C0DBFFD95015
:102CFA00120F7BEC22F0D880000E8CEC23F0190E18
:102D0A008CEC23F001E384D1B3EC22F081D1B3EC53
:102D1A0022F0110EDB6A0501210502E18D908B92EA
:102D2A0021EC24F002E6E6EC1CF009E2110EDB507D
:102D3A008009E76E110EE7CFDBFF7FEC22F0C7ECCC
:102D4A0023F002E6E6EC1CF009E2110EDB50200942
:102D5A00E76E110EE7CFDBFF8DEC22F00101C8A967
:102D6A0038D0D950F70FF5EC21F0E40EEE5C550E91
:102D7A00BCEC23F02EE299EC1DF0FB0E2B6E020E3A
:102D8A002C6E2D6A2E6AD8EC24F025C003F0D95097
:102D9A00FB0FF5EC21F0EE50225CEE502358EE507A
:102DAA002458EE50255815E2D950FB0FE2EC1CF0DE
:102DBA00B70E006EC80E39EC23F02AEC1EF048EC70
:102DCA0024F0F70EDB6AF80EDB6AF90EDB6AFA0EFC
:102DDA00DB6A99EC1DF07BEC1EF06DE021EC24F02F
:102DEA0002E6F3EC20F026E2AFEC1DF08FEC20F0C7
:102DFA0099EC1DF00F0E1F0B03E089EC1EF0FDE1AC
:102E0A00FDEC1CF0D0EC1EF099EC1DF00F0E1F0B20
:102E1A0003E089EC1EF0FDE16BEC22F014E2B5EC64
:102E2A001FF003E089EC1EF0FDE1FDEC1CF09CECC8
:102E3A0020F009D099EC1DF00AEC1FF081EC21F08A
:102E4A00FDE14FEC22F011EC20F007E2DBEC24F07C
:102E5A00840E006EC80EBCEC24F01CEC22F012E1C9
:102E6A00F70EDBCF04F0F80EDBCF05F0F90EDBCF5F
:102E7A0006F0FA0EFEEC1DF005E05B0E006EC80EC1
:102E8A00C1EC24F020EC1EF00BE2C4EC1FF003E0CE
:102E9A0088EC21F0FDE1D9500C0F05EC1EF008D0AA
:102EAA00CEEC1CF0100E1F0B03E089EC1EF0FDE1C6
:102EBA0028EC22F002D048EC24F0A9EC20F002E33E
:102ECA0032EC21F04AEC22F0E6EC23F0F70F72EC38
:102EDA001FF02F0EDB6A300EDB6A310EDB6A320E10
:102EEA00DB6AE4EC1DF07BEC1EF062E0C7EC23F039
:102EFA0002E6F3EC20F026E2AFEC1DF08FEC20F0B6
:102F0A00E4EC1DF00F0E1F0B03E089EC1EF0FDE14F
:102F1A00FDEC1CF0D0EC1EF0E4EC1DF00F0E1F0BC4
:102F2A0003E089EC1EF0FDE16BEC22F014E2B5EC53
:102F3A001FF003E089EC1EF0FDE1FDEC1CF09CECB7
:102F4A0020F009D0E4EC1DF00AEC1FF081EC21F02E
:102F5A00FDE14FEC22F011EC20F007E2DBEC24F06B
:102F6A00280E006EC80EBCEC24F01CEC22F008E11E
:102F7A0029EC23F005E0FF0E006EC70EC1EC24F029
:102F8A0020EC1EF00BE2C4EC1FF003E088EC21F009
:102F9A00FDE1D9500C0F05EC1EF008D0CEEC1CF068
:102FAA00100E1F0B03E089EC1EF0FDE128EC22F065
:102FBA00A9EC20F002E332EC21F04AEC22F041ECD9
:102FCA0020F0D950F30F7BEC1FF0330EDB6A340E7E
:102FDA00DB6A350EDB6A360EDB6A100EF36EDB6EC9
:102FEA000101C8A915D0D950230FD7EC21F01B0F26
:102FFA00D7EC21F01F0FD7EC21F0170F70EC24F05B
:10300A00E30E006EC70E6EEC23F0130E5FEC23F096
:10301A00ACEC21F0FDE2D9B139D0EBEC24F013ECA1
:10302A001DF02F0EDBCFEEFF300EDBCFEEFF310EA1
:10303A00DBCFEEFF320EDBCFEEFF330EDBCFEEFF40
:10304A00340EDBCFEEFF350EDBCFEEFF360EDBCFD5
:10305A00EEFF370EDBCFEEFF380EDBCFEEFF390E79
:10306A00DBCFEEFF3A0EDBCFEEFF3B0EDBCFEEFF00
:10307A003C0EDBCFEEFF3D0EDBCFEEFF3E0EDBCF8D
:10308A00EEFF15EC21F001E3E06BDF2B3F0EE15C74
:10309A0002E2E16AE552A6EF1DF0DBEC1DF0130E29
:1030AA00E126DF6A010E22EC21F03AEC24F0B5ECBD
:1030BA0024F043EC1EF08FEC21F0F0EC21F0060135
:1030CA00B45101E08ED0F29EBBEC20F0EF50100814
:1030DA000AE0BBEC20F0EF50200805E0BBEC20F042
:1030EA00EF50400814E1DE52010EDD6EBBEC20F019
:1030FA000F0EE0EC1DF00B0EEECFDBFF19EC1FF00C
:10310A00BBEC20F00F0E50EC24F034EC20F001015F
:10311A00806B030E8FC1DBFF040E90C1DBFF050E2F
:10312A0091C1DBFF060E92C1DBFF070E93C1DBFFE5
:10313A00080E94C1DBFF090E95C1DBFF0A0E96C18A
:10314A00DBFF8F6B906B916B926B936B946B956BB0
:10315A00966B9F6BA06BA16BA26BA36BA46BA56B09
:10316A00A66B020EDB6A140EF36E020EDBCFF4FFBF
:10317A00F350F45C07E2020EDB50CBDBEF6A020E7F
:10318A00DB2AF1D70101E06BE16BDF6BDF0409E1B8
:10319A00C35103E18D808B8204D0C30502E18C8286
:1031AA008982F28ED950070FD7EC21F0030FD7ECA2
:1031BA0021F00F0FD7EC21F00B0F1EEC24F0DBCF20
:1031CA00E6FFE66AD00E006EC70E6EEC23F0150E0F
:1031DA00E15E03500501FFB102D02AEC1EF036EC85
:1031EA001EF0130EE15C02E2E16AE552A6EF1DF061
:1031FA0043EC1EF0F4C500F0016A00BE016800C08D
:10320A00E6FF01C0E6FFCD0E026EC70ED0EC1FF03E
:10321A00FFB102D02AEC1EF036EF1EF0DBEC1DF0F7
:10322A00030EE126DF6A010EDB6AE66E0AEC22F083
:10323A008450040B08E18450020B05E18050400BD6
:10324A0002E1010E23D08450040B09E08450020BE2
:10325A0006E18050400B03E1020EF36E19D0845050
:10326A00040B08E18450020B05E08050400B02E198
:10327A00040E0CD08450040B08E08450020B05E0C5
:10328A008050400B02E1080E01D0100EF36E020EC0
:10329A00F3CFDBFF0101C35108E184B003D0020E72
:1032AA00DB50DF6E82B210D009D0C3050DE183B2C4
:1032BA0003D0020EDB50DF6E80B206D0020EDB5066
:1032CA00E76E010EE7CFDBFF3AEC21F0C70E006E86
:1032DA00C70E39EC23F00501FFB102D02AEC1EF02B
:1032EA0036EC1EF0030EE15C02E2E16AE552A6EF5B
:1032FA001DF0DBEC1DF0020EE126DE6ADD6AA5ECAC
:10330A0024F08FEC21F0030EF0EC21F00601B45109
:10331A000FE10501F40504E1A2EC21F0E66A04D00C
:10332A00A2EC21F0010EE66E08EC21F036EC1EF05C
:10333A00020EE15C02E2E16AE552A6EF1DF0C2EC80
:10334A0023F0C5EC20F0B4EC23F0010EE66ED95060
:10335A00030F83EC24F0E76E040EFEEC1FF024E169
:10336A00030EDB50070802E2C5EC20F0DF5001082B
:10337A0002E2010EDF6E030EDB50030F0E01B65D93
:10338A0007E08FEC1FF0030EDB50030F0E01B66F40
:10339A00010EDBCFE6FF020EDBCFE6FFDFCFE6FF53
:1033AA0008EC21F036EC1EF0050EE15C02E2E16A5F
:1033BA00E552C7D319EC24F0FE0EDB040BE1B0CEC4
:1033CA00DEFFB1CEDDFF020EB2CEDBFF030EB3CEBF
:1033DA00DBFF0AD0AECEDEFFAFCEDDFF020EB4CEEB
:1033EA00DBFF030EB5CEDBFF89861DC519F51EC5A9
:1033FA001AF51FC51BF520C51CF5FC0EDBCFE6FF31
:10340A00FD0EDBCFE6FF020EDBCFE6FF030EDBCFBE
:10341A00E6FFB6CEE6FFA2EC21F0F4EC23F0040EB0
:10342A00E15C02E2E16AE5528CD319EC24F0CDECBE
:10343A0024F0E76E020EFEEC1FF02AE1020EDB50CA
:10344A0027E1010EE66ED950010F83EC24F0E76EF6
:10345A00030EFEEC1FF01CE1030EDB5019E1ACEC8D
:10346A0021F0FDE2EBEC24F0EE52DFCFEFFF6BEC44
:10347A0023F0270EA0DB010EDBCFEFFF6BEC23F06E
:10348A00080EEF6E15EC21F001E3E06BDF2BE9DBB0
:10349A00040EE15C02E2E16AE55253D3A5EC24F0A2
:1034AA00FE0E0501F55DFF0EF659FF0EF759FF0EE8
:1034BA00F85905E2F52B000EF623F723F82336EF29
:1034CA001EF0A5EC24F00501F551F611F711F811DB
:1034DA0005E0F507000EF65BF75BF85B36EF1EF0CA
:1034EA0065DB050EE12692DA32EC24F0040EE7CF12
:1034FA00DBFFDB500BE1DFCFF5F5010EDBCFF6F595
:10350A00020EDBCFF7F5030EDBCFF8F5AADB050ECB
:10351A00E15C02E2E16AE55214D3B0DBF5C5E6FFED
:10352A00F6C5E6FFF7C5E6FFF8C5E6FFC00E006E72
:10353A00C70E39EC23F00501FFB102D0FAEC1FF0F7
:10354A0036EF1EF0A5EC24F0E66AF90EE66E050EDB
:10355A00E66EFADA0601B45101E0120036EF1EF007
:10356A008DDBF9C500F0016A00BE016800C0E6FF04
:10357A0001C0E6FFBB0E026EC70ED0EC1FF0FFB112
:10358A0002D0FAEC1FF036EF1EF078DB0101C651CB
:10359A00E66EE66AB70E006EC70E6EEC23F0050EF5
:1035AA00E15E03500501FFB102D0FAEC1FF0010100
:1035BA00C6B1C69136EF1EF09DBCFED75FDB16C1C1
:1035CA00E6FF17C1E6FF00C1E6FF01C1E6FFAD0E47
:1035DA00006EC70E39EC23F00501FFB102D0FAECF8
:1035EA001FF036EF1EF0E2DAE652D4D8DF6E46DB81
:1035FA000F0EDF14DF6E0501F45103E0100EDF1029
:10360A00DF6E0101C6A103D0200EDF10DF6E81A498
:10361A0003D0400EDF10DF6ED95103E0800EDF10B9
:10362A00DF6EDFCFE6FFE66AA80E006EC70E6EEC0D
:10363A0023F0050EE15E0350FAEC1FF00101C6B15A
:10364A00C691E5522AEF24F0C2EC23F0030EDB6A9E
:10365A00B4EC23F096EC21F0D950030F83EC24F05C
:10366A000601B45101E08FD0A8DBFF0ED880EE54DA
:10367A00030EED5405E2010EDB68030EA7EC21F000
:10368A00DF50010802E2010EDF6E030EDB50010873
:10369A0002E2C5EC20F0DF0409E1040EDB50030866
:1036AA0005E10501FB6B020EFC6F06D0010EDBCFB4
:1036BA00FBF5020EDBCFFCF5CAB415D0CB68FC0EC5
:1036CA00CA140009CA6E9D920F0152815293F00EDC
:1036DA00BA140C09BA6E3F0EBA140009BA6E0E017A
:1036EA000E0ECC6FCA84030EDB502AE1DF5023E0B2
:1036FA00FBC500F0FCC501F0D89001320032D89029
:10370A00013200320050BB6EFBC502F0FCC503F06B
:10371A00040ED89002360336E804FBE1300E021696
:10372A00000E0316CF0EBA1400010210006E03C079
:10373A0001F0E85003D0BB6ACF0EBA14BA6E22D099
:10374A00ACEC21F0FDE2EBEC24F02D0E34DAFBC5F3
:10375A00EEFFFCC5EDFF6BEC23F0020E2CDAEE6AED
:10376A00EE6AEE6AEE6A6BEC23F0060E24DADFCF1D
:10377A00EFFF6BEC23F0040EEF6E15EC21F001E382
:10378A00E06BDF2B6EDA050EE15C02E2E16AE552DC
:10379A00D8D112000BDA040E6DDB030EDB6AF29E3F
:1037AA00010110EC21F002E0010EDF6E805102E00F
:1037BA00010EDF6EDF5106E0010EDF6EF36E030EBF
:1037CA00F3CFDBFFDF5006E0D2EC20F003E0DE525D
:1037DA00010EDD6EDF5006E00BEC21F003E0010E76
:1037EA00A7EC21F0F28E030EDBCFE6FF020EDB50D0
:1037FA00E824016E010EDB50040DF3CF00F0DF5018
:10380A00080DF35000100110E552E710006E040E87
:10381A00E15C02E2E16AE5525BEF21F0C2EC23F0DF
:10382A00030EDB6AB7DF96EC21F0E66E37EC49F05F
:10383A00E552E552040EDBA002D0C5EC20F0040EDE
:10384A00DBA203D0010EA7EC21F0040EDBA403D007
:10385A00DE52010EDD6E040EDBA602D0010EDF6E13
:10386A00030EDBCFE6FFE66A020EDBCFE6FFE66A6F
:10387A003AEC21F09C0E006EC70E6EEC23F00B0E94
:10388A005FEC23F0050EE15C02E2E16AE55259D1F0
:10389A008DD9080EE126F2D9F29EB7C1DFFF010EDB
:1038AA00B8C1DBFF020EB9C1DBFF030EBAC1DBFFF1
:1038BA00040EBBC1DBFF050EBCC1DBFF060EBDC19A
:1038CA00DBFF070EBEC1DBFFF28ED950040FFAEC04
:1038DA0021F0940E006EC70E6EEC23F00B0EE15E23
:1038EA0003500501FFA1B1D9BCD9080EE15C02E27F
:1038FA00E16AE55226D1F29E0101CADAF28E12007D
:10390A00A5EC24F0F8DF36EF1EF0DACFEAFF83EFFA
:10391A0023F02F0D0E01B951F324E96EBA51F420A8
:10392A00EA6E120020EC22F0060EF0EF21F0DBCF57
:10393A0003F0FBEC23F0D8EC24F022C000F023C003
:10394A0001F024C002F025C003F022C026F023C0F3
:10395A0027F024C028F025C029F0D5EC22F01C0E4F
:10396A0026C0DBFF1D0E27C0DBFF1E0E28C0DBFFB3
:10397A001F0E29C0DBFF1200DAEC21F0100EDB6A01
:10398A00110EDB6AB3EC22F0160EDB6A170EDB6A45
:10399A0012004AEC22F0EECF00F0EECF01F0EECFAB
:1039AA0002F0EFCF03F01200016E026A00C0E6FFD8
:1039BA00E66E02C0E6FFDDEF6DF0F5EC21F083EF75
:1039CA0023F0000EEE5C000EBCEF23F02B6E050E0A
:1039DA002C6E2D6A2E6AE2EC21F077EC6FF026C08D
:1039EA0000F027C001F028C002F029C003F012003D
:1039FA00E2EC21F0040EDBCF2BF0050EDBCF2CF02E
:103A0A00060EDBCF2DF0070EDFEF24F0A5EC24F035
:103A1A00E66AD9CFE6FFDACFE6FF1200100EDBCF57
:103A2A00EEFF110EDBCFEEFF120EDBCFEEFF130E11
:103A3A00DBCFEEFF140EDBCFEEFF150EDBCFEEFF72
:103A4A00160EDBCFEEFF170EDBCFEEFF180EDBCF25
:103A5A00EEFF190EDBCFEEFF1A0EDBCFEEFF1B0EC9
:103A6A00DBCFEEFF1C0EDBCFEEFF1D0EDBCFEEFF32
:103A7A001E0EDBCFEEFF1F0EDBCFEEFF200EDBCFDD
:103A8A00EEFF210EDBCFEEFF220EDBCFEEFF230E81
:103A9A00DBCFEEFF240EDBCFEEFF250EDBCFEEFFF2
:103AAA00260EDBCFEEFF270EDBCFEEFF280EDBCF95
:103ABA00EEFF290EDBCFEEFF2A0EDBCFEEFF2B0E39
:103ACA00DBCFEEFF2C0EDBCFEEFF2D0EDBCFEEFFB2
:103ADA002E0EDBCFEEFF1200DBCF03F0E2EC21F07B
:103AEA00D5EC22F053EF23F0DBCF29F02B682C68BA
:103AFA002D682E68EDEF6EF0410E0101DE25F60FFE
:103B0A001200D880C6EC24F0000E2A5412000C0EC3
:103B1A00DBCF27F00D0EDBCF28F00E0EDBCF29F01E
:103B2A000F0EDBCF2AF01200F70EDBCF00F0F80EF3
:103B3A00DBCF01F0F90EDBCF02F0FA0EDBCF03F098
:103B4A001200E16E2AEF24F0010EF0EF21F0070EC9
:103B5A00F0EF21F0FB0EDBCF00F0FC0EDBCF01F023
:103B6A00FD0EDBCF02F0FE0EDBCF03F0190E95EC53
:103B7A0024F0D8EF24F0140EDBCF27F0150EDBCF9C
:103B8A0028F0160EDBCF29F0170EDBCF2AF0120031
:103B9A00F5EC21F0D890030EEB50000A12007BECF2
:103BAA0022F0D890030EEB50000A1200D9CFE6FF9C
:103BBA00E1CFD9FF1200E926000EEA221200F30E25
:103BCA00DBCF00F0F40EDBCF01F0F50EDBCF02F015
:103BDA00F60EDBCF03F01200EE50045C006EEE50DE
:103BEA000558016EEE500658026EEE500758036EE5
:103BFA001200DBCF07F00450051006100710120060
:103C0A007BEC22F00450EE24006E0550EE20016E8B
:103C1A000650EE20026E0750EE20036E1200100EC0
:103C2A00DBCF27F0110EDBCF28F0120EDBCF29F005
:103C3A00130E5CEF23F0D950FB0FD2DBD8801E0E97
:103C4A008CEC23F0000E8CEF23F0020EE66E2EEFC2
:103C5A0024F0DE6FE85009081200300E0101DE255B
:103C6A001200E66A2EEF24F0D880FF0E2754FF0ECA
:103C7A002854FF0E2954000E2A541200010EE66E33
:103C8A000AEF22F0140EDBCF00F0150EDBCF01F0A5
:103C9A00160EDBCF02F0170E1200DBCF0BF0060E6A
:103CAA0095EC24F008C026F009C027F00AC028F0D5
:103CBA000BC029F0E0EC6CF026C008F027C009F030
:103CCA0028C00AF029C00BF02650002627500122EE
:103CDA00285002222950032212002750005C285043
:103CEA000158295002582A50035812000050011056
:103CFA0002100310120074DBABEC23F0A4DBC5DB6B
:103D0A00D890EB50000A1200D890003601360236DD
:103D1A000336E8061200B9DBEECF26F0EECF27F025
:103D2A00EECF28F0EFCF29F0FBEC23F077EC6FF021
:103D3A0053EF23F0DBDB79EC23F0170EEECFDBFF3A
:103D4A001200DBCF07F0020E95EC24F004C026F037
:103D5A0005C027F006C028F007C029F0E0EC6CF097
:103D6A0026C004F027C005F028C006F029C007F0D5
:103D7A00D9501200D950010F5EDB030EF0EF21F08B
:103D8A00180EDBCF00F0190EDBCF01F01A0EDBCFD5
:103D9A0002F01B0E120026C0DEFF27C0DEFF28C07D
:103DAA00DEFF29C0DDFFDD52DD521200C951E96E86
:103DBA00EA6AD890E936EA361200D950010F7BEF49
:103DCA0022F097519F279851A0239951A1239A51E4
:103DDA00A2239F518727A0518823A1518923A25149
:103DEA008A2390EF23F09B51A3279C51A4239D5132
:103DFA00A5239E51A623A3518B27A4518C23A551F9
:103E0A008D23A6518E2399EF23F0D7DAFB0EDBCF51
:103E1A002BF0FC0EDBCF2CF0FD0EDBCF2DF0FE0ECF
:103E2A00DFEC24F00F0E12000C0EEECFDBFF0D0EAE
:103E3A00EECFDBFF0E0EEECFDBFF1200E66AE66A7C
:103E4A00E66AE66AD9501200140E22C0DBFF150E8C
:103E5A0023C0DBFF160E24C0DBFF170E25C0DBFFD5
:103E6A001200EECF82F1EECF83F1EECF84F1EFCFE5
:103E7A0085F11200E126DF6A010EDB6A020EDB6AB7
:103E8A00120036EC16F0006E0D0EE15E00501200C4
:103E9A00B76BB86BB96BBA6BBB6BBC6BBD6BBE6BEC
:103EAA00AF6BB06BB16BB26BB36BB46BB56BB66B1C
:103EBA001200A2EC23F01C0EDB6AEDEF23F090DA7D
:103ECA002650EE5C006E2750EE58016E2850EE58D0
:103EDA00026E2950EE58036E120082DA1F0EEECFE0
:103EEA00DBFF200EEECFDBFF02EF24F079DA09ECDC
:103EFA0024F0250EEECFDBFF260EEECFDBFF1200FD
:103F0A00180EEECFDBFF190EEECFDBFF1A0EEECF47
:103F1A00DBFF1200000EE66EE66AE66EE66AB6CED1
:103F2A00E6FFE66EE66AF4EF23F0040EDBCF27F035
:103F3A00050EDBCF28F0060EDBCF29F0070EB7D32C
:103F4A00080EDBCF27F0090EDBCF28F00A0EDBCFF5
:103F5A0029F00B0EACD3CADA02EC24F009EF24F0F4
:103F6A00080EDBCF00F0090EDBCF01F00A0EDBCF23
:103F7A0002F00B0EDBCF03F0100E1F0B120085DAD6
:103F8A00EECF04F0EECF05F0EECF06F0EFCF07F05C
:103F9A00100E1F0B1200036E046A02C0E6FFE66EE3
:103FAA0004C0E6FFDDEC6DF0056E050EE15E05501E
:103FBA0005011200EECF8BF1EECF8CF1EECF8DF131
:103FCA00EFCF8EF11200EA6AB925E96EBA51EA22F8
:103FDA00EF6A1200DCEC10F0006E2A0EE15E00506F
:103FEA001200D950D60FF5EF21F0010EE66E2EEF32
:103FFA0024F0E7CFDBFF0601B451120046DAD8807D
:10400A00FF0EEE54FF0EEE54FF0E8CEF23F032DA61
:10401A00DBCF07F0D950120038DAD880000EEE5400
:10402A00800EEE54000E8CEF23F0F70E22C0DBFF59
:10403A00F80E23C0DBFFF90E24C0DBFFFA0E25C001
:10404A00DBFF1200F30E22C0DBFFF40E23C0DBFFFE
:10405A00F50E24C0DBFFF60E25C0DBFF12000F0EA3
:10406A00EECFDBFF100EEECFDBFF110EEECFDBFF44
:10407A00120EEECFDBFF12001B0EEECFDBFF1C0E83
:10408A00EECFDBFF1D0EEECFDBFF1E0EEECFDBFF0A
:10409A0012000C0E22C0DBFF0D0E23C0DBFF0E0E3A
:1040AA0024C0DBFF0F0E25C0DBFF12000C0E00C080
:1040BA00DBFF0D0E01C0DBFF0E0E02C0DBFF0F0E91
:1040CA0003C0DBFF1200100E00C0DBFF110E01C09F
:1040DA00DBFF120E02C0DBFF130E03C0DBFF120070
:1040EA00180EDBCF27F0190EDBCF28F01A0EDBCF24
:1040FA0029F01B0EDBCF2AF01200210E22C0DBFFB3
:10410A00220E23C0DBFF230E24C0DBFF240E25C0B2
:10411A00DBFF1200040E22C0DBFF050E23C0DBFF0B
:10412A00060E24C0DBFF070E25C0DBFF12000C0EB3
:10413A0026C0DBFF0D0E27C0DBFF0E0E28C0DBFFFB
:10414A000F0E29C0DBFF1200A0D9FF0EEE5CFF0E96
:10415A00EE58FF0EEE587F0EEE5812001DEC0FF0CF
:10416A00006E0C0EE15E005000091200B9CEE9FFA4
:10417A00BACEEAFF1200036E070EE15E0350120088
:10418A00010EF36E030EF3CFDBFF1200C951EA6A88
:10419A00310FE96E0E0EEA2212008F519011911121
:1041AA0092111200000E046C051E0522061E06223C
:1041BA00071E0722D9501200EECF9BF1EECF9CF1D9
:1041CA00EECF9DF1EFCF9EF11200EECF8FF1EECF41
:1041DA0090F1EECF91F1EFCF92F11200FF0EEE5C6B
:1041EA00FF0EEE58010EEE58000EEE581200CA2BC2
:1041FA00000ECB23CC23CD2312008F07000E905B39
:10420A00915B925B1200DFEC19F0D8D393519411B1
:10421A009511961112008251831184118511120091
:10422A000101E02B140EE05D1200C36F96809482A8
:10423A00958C958E9588958A1200DB6A030EDB6A47
:10424A00040EDB6A050EDB6A1200DE6A800EDE6E81
:10425A00DBD3010EDE6EDE6AD7D3DE68DE68DE6887
:10426A007F0EDD6EDD52DD521200010EDBCFE6FF5E
:10427A00E66ADFCFE6FFE66A1200DBCFE6FFD95037
:10428A00120081899307000E945B955B965B12007E
:10429A00F36E010EF3CFDBFF020EDB6A1200010E92
:1042AA00DBCFB2FE020EDBCFB3FE1200E16E00508E
:1042BA00CCD2DBCF0BF0085009100A100B101200F9
:1042CA00DBCF0FF00C500D100E100F101200DBCFC9
:1042DA0013F010501110121013101200DBCF17F048
:1042EA0014501510161017101200210EDB6A220E38
:1042FA00DB6A230EDB6A1200D89026362736283668
:10430A002936E8061200D8900436053606360736EE
:10431A00E8061200010EE66ED9CFE6FFDACFE6FF15
:10432A001200E76E040EE7CFDBFF010EE66E120005
:10433A00010EE9260E0EEA221200DECFE6FFDDCFDD
:10434A00E6FF1200F36E020EF3CFDBFF1200140E2B
:10435A000101DF5D12003DDB84DA1F0E2CDCEECF9B
:10436A009FF1EECFA0F1EECFA1F1EFCFA2F179DA72
:10437A001F0E91DAEECFA3F1EECFA4F1EECFA5F1A5
:10438A00EFCFA6F16EDA170E16DCEECF97F1EECF6D
:10439A0098F1EECF99F1EFCF9AF163DA170E7BDA43
:1043AA00E1EF20F098DAD9501200E1266CDA040E17
:1043BA00DB6A050EDB6A3AEF24F000C026F001C082
:1043CA0027F002C028F003C029F0120097EC1CF075
:1043DA00E66AD9501200E66EEFEC51F0E552EED2E1
:1043EA00E96EFF0EDA20EA6E120075DADBEF24F0CE
:1043FA006CDA37DA020EE0EC1DF036EF1FF097ECBC
:10440A001CF0010EE66ED9501200E66A37EC49F04C
:10441A00E552E5521200140EDBCF04F0150EDBCF85
:10442A0005F0160EDBCF06F0170EFEEF1DF0CEECF0
:10443A001CF07BEF1EF0E66E000EDA20E66E12002C
:10444A000F0B2EEF1EF000C0DFFF010E01C0DBFFD5
:10445A00020E02C0DBFF030E03C0DBFF1200100EC8
:10446A00DBCF04F0110EDBCF05F0120EDBCF06F026
:10447A00130E12000C0EDBCF04F00D0EDBCF05F08D
:10448A000E0EDBCF06F00F0E1200D9CFE9FFDACFFE
:10449A00EAFF1200190E44DA77EC6FF07CDC00EFC9
:1044AA0025F019DA23EF1FF08CEC1DF08BD2006E89
:1044BA00016A026A036A95DDEE500016EE50011693
:1044CA00EE500216EE5003167BEF1EF0FDEC1CF0C8
:1044DA00080E22C0DBFF090E23C0DBFF0A0E24C030
:1044EA00DBFF0B0E25C0DBFF20EF1EF0E96EDACFF3
:1044FA00EAFF1200F70EDBCF26F0F80EDBCF27F02B
:10450A00F90EDBCF28F0FA0E79EC1DF01AEF20F045
:10451A00F30EDBCF26F0F40EDBCF27F0F50EDBCF60
:10452A0028F0F60E79EC1DF027EF20F0D950EB0FAA
:10453A0003DAEF0F01DAF70FE2EC1CF0B3EF20F029
:10454A001C0EDBCF00F01D0EDBCF01F01E0EDBCF01
:10455A0002F01F0EDBCF03F0EBEF1CF0120EDB6A4A
:10456A00A8EF24F00BEC1DF0ACEC1DF0E66AD95074
:10457A001200AE6E0F0EDD152EEF1EF0AE6E0F0E90
:10458A00DC152EEF1EF0AE6E0F0EDB152EEF1EF0B1
:10459A00AE6E0F0EDA152EEF1EF0D9EC1CF00ED20D
:1045AA00DFCF2BF0010EDBCF2CF0020EDBCF2DF08C
:1045BA00030EDFEF24F003C0DBFFDF0EDBCF04F0D6
:1045CA00E00EDBCF05F0E10EDBCF06F0E20E1200C3
:1045DA00040EDBCF26F0050EDBCF27F0060EDBCF6D
:1045EA0028F0070E79EF1DF00C0EDBCF00F00D0E50
:1045FA00DBCF01F00E0EDBCF02F00F0E71EF1DF0D4
:10460A00080EDBCF26F0090EDBCF27F00A0EDBCF30
:10461A0028F00B0E79EF1DF00C0EDBCF26F00D0EF5
:10462A00DBCF27F00E0EDBCF28F00F0E79EF1DF04F
:10463A00100EDBCF26F0110EDBCF27F0120EDBCFE8
:10464A0028F0130E79EF1DF0F30EDBCF04F0F40E11
:10465A00DBCF05F0F50EDBCF06F0F60EFEEF1DF010
:10466A0000D90F0EE0EF1DF0D9EC1CF0C0EF20F0DE
:10467A00F8D8EE52EFCF81F136EF24F0CEEC1CF0F1
:10468A001F0EEBEF1CF0EF0EDBCF04F0F00EDBCFCA
:10469A0005F0F10EDBCF06F0F20E1200D880190EEB
:1046AA002654C6EF24F01C0F16D946EF1FF0DBCFB5
:1046BA002AF088D1E15E03502AEF1EF0D9500C0F80
:1046CA00D4EF1DF0D950100FD4EF1DF00101EBEF1C
:1046DA0024F0D9EC1CF0036E1200C3D8060EE0ECED
:1046EA001DF0EFCF86F11200140EEECFDBFF150E90
:1046FA00EECFDBFF160EEECFDBFF1200EECFE6FFAA
:10470A00EECFE6FFEECFE6FFEFCFE6FF1200EE5464
:10471A00000EEE5412008751AF278851B0238951F9
:10472A00B1238A51B22312008B51B3278C51B4237F
:10473A008D51B5238E51B6231200180EDB6A190E5D
:10474A00DB6A1A0EDB6A1B0EDB6A1200EE500026C9
:10475A00EE500122EE500222EE500322120018D926
:10476A00010EE66EBFEF1EF0C0EC1DF02BD1EE5825
:10477A00000EEE58000EEE581200DBEC1DF0050E8E
:10478A003FEF1FF0D950F30FCDEF1DF0DBEC1DF01A
:10479A00250EC1EC1CF05EEF1FF0DBEC1EF0790E6B
:1047AA00E9260E0EEA221200DBEC1EF0490EE9267B
:1047BA000E0EEA221200E66AE66AE66AE66AEFEF97
:1047CA001FF0170EEECFDBFF85EC1FF0D950120059
:1047DA001D0EDB6A1E0EDB6A1F0EDB6A12004DEC31
:1047EA0067F0006E070EE15E00501200E80E2B6EB5
:1047FA00030E2C6E2D6A2E6A1200210EEECFDBFFFD
:10480A00220EEECFDBFF1200230EEECFDBFF240ECB
:10481A00EECFDBFF1200DBEC1EF09DEF21F0E2ECA5
:10482A001EF0EE50ED101200DBEC1DF0040EE12636
:10483A00120051D8010E1200D950F70FCDEF1DF01A
:10484A00C0EC1DF003502A181200E552E7CFD9FF39
:10485A00120055EC49F0E5521200ACEC1DF0E76E7F
:10486A0012000101E1518EEF1CF0060EDB6A070E01
:10487A00DB6A080EDB6A090EDB6A0A0EDB6A0B0EBC
:10488A00DB6A00EF25F0DE6ADE6ABED0040F9EDD29
:10489A000C0FEBEF21F0E0EC1DF0040EE0EF1DF041
:1048AA0081DD0C0FD7EF21F00BEC1DF0060E93DD26
:1048BA00E66AD9500EEF25F0E0DC080F73DD040F2D
:1048CA0094DD46EC1FF0E66A1200E1518EEC1CF012
:1048DA00EFCF80F11200E96E8AEF1CF00101DD3999
:1048EA0025EF22F0AE6EDC3925EF22F0AE6EDB3911
:1048FA0025EF22F0AE6EDA3925EF22F09CDDA9EF22
:10490A001DF0100F4FDD080F70DDE0EF23F00C0FE4
:10491A00C8DD040F6ADDEFEF1FF08DDD32EF24F002
:10492A002B6E2C6A2D6A2E6A1200E0DD19EC1FF03C
:10493A000F0EEECFDBFF1200E2EC1CF0D950120092
:10494A00E66A0AEF22F0130EDB6A140EDB6A150E12
:10495A00DB6A120093DE8CEC1DF003502A18120059
:10496A00100EDB6A110EDB6A120EDB6A12007CDEA5
:10497A002AEC1EF02AEF21F010DE2AEC1EF02EEFB0
:10498A0021F0000E2754000E2854000E295412005C
:10499A000BEC1DF0A9EF1DF000DE020EE66E120010
:1049AA00A5DDF1EF1DF009DDEDEF6EF0D9CFE9FFDE
:1049BA008AEF1CF0DBCF2EF077EF6FF0E552E5526D
:1049CA00E55212002A34000E2A181200E0518EEF26
:1049DA001CF07BDF46DF070EE0EC1DF0EECF87F11F
:1049EA00EECF88F1EECF89F1EFCF8AF13ADF070EE9
:1049FA0052DFDFEF1FF00C0EDB6A0D0EDB6A0E0EC4
:104A0A00DB6A0F0EDB6A1200DE6ADD6ADD52DD52F6
:104A1A001200080FDBDC100FEBEF21F0020100009F
:104A2A00000000013200000000000180004D00007B
:104A3A000002000000000000013200000000000136
:104A4A00A700FBFFDFFF015700EFFF0400014E0044
:104A5A00F2FF0700014C00F3FF0800014A00F5FFCE
:104A6A000A00014400F8FF0B00014800FAFF0D009C
:104A7A00014E00FCFF0F00015000FFFF1000013241
:104A8A000000000A00012E000200090001330002A2
:104A9A00000A00012D0004000800012D000400088E
:104AAA0000012F000500080001310007000700017E
:104ABA002E0007000600013200080006000133003C
:104ACA00090005000136000A0004000134000A004A
:104ADA0003000139000B000300013D000C00020035
:104AEA000141000D0001000146000E0001000146CF
:104AFA00000E00FFFF0141000D00FFFF013D000C09
:104B0A0000FEFF013E000C00FDFF0139000B00FD15
:104B1A00FF0136000A00FCFF0133000900FBFF0118
:104B2A0032000800FAFF0135000800F9FF012E00E3
:104B3A000600F9FF012E000600F9FF012D0004000E
:104B4A00F8FF012D000400F8FF012E000200F7FF14
:104B5A00012E000200F7FF0132000000F6FF012DCE
:104B6A00000000F7FF012E00FEFFF7FF012900FEFB
:104B7A00FFF8FF012B00FDFFF8FF012F00FBFFF8F4
:104B8A00FF012B00FBFFF9FF013100F9FFF9FF01DB
:104B9A002E00F9FFFAFF013200F8FFFAFF01330095
:104BAA00F7FFFBFF013600F6FFFCFF013900F5FFB6
:104BBA00FDFF013900F5FFFDFF013D00F4FFFEFF97
:104BCA00014100F3FFFFFF014600F2FFFFFF013240
:104BDA0000F6FF010001C60200008E00015B00EE34
:104BEA00FFFEFF015100F0FFFDFF014800F3FFFA4D
:104BFA00FF014100F5FFF9FF013C00F7FFF8FF0153
:104C0A003A00FAFFF6FF013600FCFFF6FF013C000E
:104C1A00FFFFF4FF0128000100F8FF01290002004C
:104C2A00F8FF0126000300F9FF012B000500F9FF38
:104C3A00012E000700FAFF012F000800FBFF0133D5
:104C4A00000900FBFF013F000C00FCFF010000000F
:104C5A000000000201000000000001320000000014
:104C6A000001CE003F006A000200000000000001BF
:104C7A00320000000000011202000096FF0141000C
:104C8A000D000100013E000C0003000134000A007F
:104C9A000300012F00080005000140000A00080077
:104CAA00013D0007000A00011B0002000500011B6C
:104CBA000002000500013C0001000C00013700FF62
:104CCA00FF0B00012F00FDFF0900013600FAFF0962
:104CDA0000013500F9FF0800013D00F6FF07000159
:104CEA003C00F5FF0500014400F3FF040001460003
:104CFA00F2FF0100010000000000000201000000B4
:104D0A0000000132000000000001900164FF4AFF28
:104D1A00020000000000000132000000000001A2B1
:104D2A0000FBFFE0FF012D00F7FFFFFF012600F95E
:104D3A00FFFDFF011D00FBFFFDFF012000FBFFFC43
:104D4A00FF012700FBFFFAFF012B00FDFFF8FF011F
:104D5A002E00FEFFF7FF013200FFFFF6FF013200CF
:104D6A000100F6FF0133000200F6FF012B000300E9
:104D7A00F8FF0127000500FAFF012A000600FAFFE2
:104D8A00012B000700FBFF012B000800FDFF012F8C
:104D9A00000900FDFF0160001300FEFF019B001FD8
:104DAA00000000012B00F9FF0500012A00FAFF06A6
:104DBA0000012700FBFF0600012800FCFF07000195
:104DCA002400FCFF0600012400FEFF070001280062
:104DDA00FFFF0800012800FFFF0800012D00010065
:104DEA000900012D0001000900012F00030009003C
:104DFA00012D000400080001280004000700012E0C
:104E0A000006000700012E00070006000132000814
:104E1A000006000133000900050001310009000401
:104E2A00000136000A0004000134000A00030001F0
:104E3A006B00150004000173001700010001500007
:104E4A00100000000151001000FEFF0148000E0092
:104E5A00FDFF014A000E00FBFF014A000E00FBFFA6
:104E6A000141000B00F9FF0140000A00F8FF013977
:104E7A00000800F8FF013D000700F6FF013C0005AD
:104E8A0000F5FF0138000200F5FF0141000100F3BF
:104E9A00FF0128000000F8FF012900FEFFF8FF01CA
:104EAA002400FEFFF9FF012800FCFFF9FF0128009A
:104EBA00FCFFF9FF012E00FAFFF9FF012E00F9FFAE
:104ECA00FAFF012B00F9FFFBFF0187001B0000001E
:104EDA000196000000E2FF01DE033AFF0000017DB7
:104EEA0000E7FF0000016900EBFF0200015600EF36
:104EFA00FF0300014400F3FF0400013800F6FF0538
:104F0A0000013D00F6FF0700013500F8FF07000128
:104F1A003D00F9FF0A00013A00FAFF0A00013F00CA
:104F2A00FCFF0C00013D00FEFF0C00014600FFFFE4
:104F3A000E0001500001001000014E0004000F0095
:104F4A0001480006000D0001440008000B00012082
:104F5A0000040005000127000600050001220006E2
:104F6A0000030001260007000300012400070002D5
:104F7A00000129000800020001550011000100018A
:104F8A0000000000000002010000000000013200E1
:104F9A000000000001EA008A00E5FF0200000000AC
:104FAA00000001320000000000016900EBFFFFFF72
:104FBA00015B00EEFFFDFF014F00F1FFFBFF012245
:104FCA0000FAFFFDFF012200FAFFFDFF013C00F796
:104FDA00FFF8FF013900F9FFF7FF013400FDFFF682
:104FEA00FF013300FEFFF6FF0138000200F5FF0162
:104FFA0034000300F6FF0139000700F7FF013C0007
:10500A000900F8FF011D000500FDFF012600070049
:10501A00FDFF014A000E00FBFF015B001200FDFFCD
:10502A000164001400FFFF0164001400010001562E
:10503A000011000300014F000F0005000145000C9C
:10504A00000700013C0009000800013900070009B7
:10505A00000131000400090001370001000B0001C2
:10506A003200FFFF0A00013600FCFF0A0001390086
:10507A00F9FF0900013C00F7FF0800014300F4FFB3
:10508A000600014A00F2FF0500015600EFFF030087
:10509A00015F00EDFF0100010000000000000201B5
:1050AA0000000000000132000000000001770176D4
:1050BA00FF4EFF0200000000000001320000000065
:1050CA000001A200FBFFE0FF012D00F7FFFFFF0137
:1050DA002600F9FFFDFF011D00FBFFFDFF01200077
:1050EA00FBFFFCFF012700FBFFFAFF012B00FDFF7E
:1050FA00F8FF012E00FEFFF7FF013200FFFFF6FF67
:10510A000132000100F6FF0133000200F6FF012B15
:10511A00000300F8FF0127000500FAFF012A000634
:10512A0000FAFF012B000700FBFF012B000800FD1E
:10513A00FF012F000900FDFF0160001300FEFF01BF
:10514A009B001F000000012B00F9FF0500012A0047
:10515A00FAFF0600012700FBFF0600012400FCFFFE
:10516A000600012800FCFF0700012400FEFF0700DB
:10517A00012800FFFF0800012800FFFF0800012D99
:10518A000001000900012D0001000900012F0003A0
:10519A0000090001280004000700012D000400088E
:1051AA0000012E0006000700012E0007000600017C
:1051BA003200080006000133000900050001310031
:1051CA00090004000136000A0004000134000A0044
:1051DA000300016B001500040001730017000100B1
:1051EA000150001000FFFF0150001000FFFF0148AE
:1051FA00000E00FDFF014A000E00FBFF014A000EEF
:10520A0000FBFF0141000B00F9FF0140000A00F812
:10521A00FF0139000800F8FF013D000700F6FF0111
:10522A003C000500F5FF0138000200F5FF014100CE
:10523A000100F3FF0128000000F8FF012900FEFF2A
:10524A00F8FF012400FEFFF9FF012800FCFFF9FF27
:10525A00012800FCFFF9FF012E00FAFFF9FF012ED9
:10526A0000F9FFFAFF012B00F9FFFBFF0187001B82
:10527A000000000196000000E2FF01DE033AFF0091
:10528A0000017D00E7FF0000016900EBFF02000159
:10529A005600EFFF0300014400F3FF040001380049
:1052AA00F6FF0500013D00F6FF0700013500F8FF93
:1052BA000700013D00F9FF0A00013A00FAFF0A005F
:1052CA00013F00FCFF0C00013D00FEFF0C000146FF
:1052DA0000FFFF0E0001500001001000014E000403
:1052EA00000F0001480006000D0001440008000BF1
:1052FA00000120000400050001240006000400014A
:10530A00240006000400012600070003000124000F
:10531A0007000200012900080002000155001100DF
:10532A00010001000000000000020100000000006E
:10533A000132000000000001EA008A00E5FF0200D5
:10534A00000000000001320000000000016900EBCB
:10535A00FFFFFF015B00EEFFFDFF014F00F1FFFBC6
:10536A00FF012200FAFFFDFF012200FAFFFDFF0103
:10537A003C00F7FFF8FF013900F9FFF7FF0134009D
:10538A00FDFFF6FF013800FEFFF5FF0133000200C2
:10539A00F6FF0134000300F6FF0139000700F7FFAA
:1053AA00013C000900F8FF011D000500FDFF01286E
:1053BA00000700FCFF0149000E00FCFF015B001220
:1053CA0000FDFF0164001400FFFF016400140001E6
:1053DA000001560011000300014F000F00050001F3
:1053EA0045000C000700013C0009000800013900D3
:1053FA00070009000131000400090001370001001B
:10540A000B00013200FFFF0A00013600FCFF0A0010
:10541A00013900F9FF0900013C00F7FF08000143C8
:10542A0000F4FF0600014A00F2FF0500015600EFF2
:10543A00FF0300015F00EDFF010001000000000012
:10544A00000201000000000001320000000000011B
:10545A008D0189FF32FF02000000000000013200C6
:10546A000000000001960000001E00012C063C010D
:10547A00000001A5000000DFFF01300290FF0000DC
:10548A00012B000700FBFF012A000600FAFF012793
:10549A00000500FAFF0127000500FAFF01260003B4
:1054AA0000F9FF0124000200F9FF0124000200F9BB
:1054BA00FF0128000000F8FF012D000000F7FF019E
:1054CA002900FEFFF8FF012900FEFFF8FF012D0069
:1054DA00FCFFF8FF012F00FBFFF8FF012B00FBFF89
:1054EA00F9FF012E00F9FFFAFF012B00F9FFFBFF7C
:1054FA00012F00F8FFFBFF013100F7FFFCFF013627
:10550A0000F6FFFCFF013400F6FFFDFF013900F54C
:10551A00FFFDFF013C00F4FFFFFF017800E8FFFEFA
:10552A00FF014600F2FF0000014700F2FF020001FE
:10553A003D00F4FF0200013D00F4FF0200013B00C0
:10554A00F5FF0400013600F6FF0400013300F7FFFF
:10555A000500013300F7FF0500013100F9FF0700DC
:10556A00012E00F9FF0600012B00FBFF0700012BAB
:10557A0000FBFF0700012D00FCFF0800012400FECC
:10558A00FF0700012900FEFF0800012D00000009A5
:10559A00000128000000080001290002000800019B
:1055AA002600030007000126000300070001270068
:1055BA0005000600012A0006000600012E00070069
:1055CA000600012F0008000500019100E3FF00001A
:1055DA00020100000000000132000000000001C1C9
:1055EA000074000000020000000000000132000008
:1055FA00000000015F00EDFFFFFF015000F0FFFF18
:10560A00FF014800F2FFFDFF013600F6FFFCFF0133
:10561A002800F9FFFCFF012700FAFFFBFF01200029
:10562A00FBFFFCFF012300FBFFFBFF012200FDFF44
:10563A00FAFF011B00FEFFFBFF012000FEFFFAFF3D
:10564A000123000000F9FF0132000100F6FF0131D9
:10565A00000400F7FF0139000700F7FF0140000AC4
:10566A0000F8FF0145000C00F9FF0154001000FB8F
:10567A00FF0156001100FDFF0169001500FFFF013F
:10568A00690015000100015B0012000300014F00D0
:10569A000F00050001220006000300012200060097
:1056AA000300013C0009000800013500070008005A
:1056BA0001360004000A0001320001000A0001322A
:1056CA0000FFFF0A00013600FCFF0A00013900F959
:1056DA00FF0900014000F6FF0800014300F4FF063D
:1056EA0000014F00F1FF0500015600EFFF03000122
:1056FA006400ECFF0100010000000000000201004C
:10570A000000000001320000000000011001FFFF4C
:10571A005DFF0200000000000001320000000000EE
:10572A00014B000F00FFFF0146000E00FFFF01487A
:10573A00000E00FDFF013E000C00FDFF013B000BC7
:10574A0000FCFF013C000B00FBFF0136000900FAD8
:10575A00FF0135000800F9FF012A000600FAFF01DF
:10576A002B000500F9FF0128000400F9FF012800B9
:10577A000400F9FF012B000300F8FF0129000200D1
:10578A00F8FF0128000100F8FF012D000000F7FFD3
:10579A000132000000F6FF012E00FEFFF7FF012E86
:1057AA0000FEFFF7FF012B00FDFFF8FF012F00FBB2
:1057BA00FFF8FF012B00FBFFF9FF012E00FAFFF9AA
:1057CA00FF013200F8FFFAFF013200F8FFFAFF0189
:1057DA002F00F8FFFBFF013800F6FFFBFF01340042
:1057EA00F6FFFDFF013900F5FFFDFF013D00F4FF63
:1057FA00FEFF014100F3FFFFFF014100F3FF00003C
:10580A00016900EBFF0000016000EDFF0200015298
:10581A0000F0FF0400014A00F2FF0500014300F412
:10582A00FF0600013D00F6FF0700014000F7FF09EF
:10583A0000014000F8FF0A00013F00FAFF0B0001D7
:10584A003C00FBFF0B00013D00FEFF0C00013C0089
:10585A00FFFF0C0001320000000A00012E000200C6
:10586A000900012E0002000900012D0004000800B1
:10587A00012D0004000800012F0005000800012E78
:10588A000007000600013100070007000132000886
:10589A00000600013300090005000136000A000471
:1058AA00000134000A000300013E000C000300015D
:1058BA003D000C0002000146000E000100014600F6
:1058CA000E000100010000000000000201000000BB
:1058DA000000013200000000000139000000DEFF74
:1058EA00020000000000000132000000000001690F
:1058FA0000EBFFFFFF015B00EEFFFDFF014F00F130
:10590A00FFFBFF012200FAFFFDFF012400FAFFFC62
:10591A00FF014000F6FFF8FF013D00F9FFF6FF0125
:10592A003600FCFFF6FF013C00FFFFF4FF013C00DC
:10593A000100F4FF0136000400F6FF013D000700F4
:10594A00F6FF0140000A00F8FF0124000600FCFFF0
:10595A000122000600FDFF0154001000FBFF015B5D
:10596A00001200FDFF0169001500FFFF0164001429
:10597A0000010001560011000300014F000F00054D
:10598A0000012600070003000120000500040001B1
:10599A0043000A00090001390007000900013B0021
:1059AA0004000B0001370001000B00013C00FFFF5F
:1059BA000C00013600FCFF0A00013D00F9FF0A0055
:1059CA00014000F6FF0800012000FBFF0400012649
:1059DA0000F9FF0300014F00F1FF0500015B00EE33
:1059EA00FF0300016400ECFF010001000000000059
:1059FA000002010000000000013200000000000166
:105A0A00BC01B0FF02FF02000000000000013200EA
:105A1A000000000001AC00DEFFFBFF014300FDFFB8
:105A2A000D00013C00FFFF0C0001280001000800E6
:105A3A000123000100070001240002000700011DE4
:105A4A0000030005000119000300040001200005FD
:105A5A0000040001190004000300011D00050003F1
:105A6A0000012300070001000133000A00020001BF
:105A7A0091001D00010001940284000000017300DE
:105A8A00000017000196001E0000000173000000CC
:105A9A00E9FF011D013900000001C9001700DFFFFD
:105AAA00019001B0FF000001A0000000E0FF019694
:105ABA0000E2FF000001A00000002000019E027A1F
:105ACA00FF0000014600F2FF0000012300F9FFFF7A
:105ADA00FF011D00FBFFFDFF011500FDFFFDFF019A
:105AEA001B00FEFFFBFF011E00FFFFFAFF0147003C
:105AFA000200F2FF010000000000000201000000A5
:105B0A000000013200000000000158075AFF5C043F
:105B1A00020000000000000132000000000001C77E
:105B2A0001A8FFE9FF0141000000F3FF015C014405
:105B3A0000F1FF014C00F1FFFEFF011001CBFFF461
:105B4A00FF0141000000F3FF01C7015800E9FF010E
:105B5A003C0000000C00010701CDFF0D00015700B9
:105B6A00EFFF040001570011000400010501330092
:105B7A000B00013C0000000C00010601CDFF0C00E7
:105B8A00016100EDFF040001610013000400010639
:105B9A000133000C0001410000000D00010000006B
:105BAA0000000002010000000000013200000000B5
:105BBA000001FF00A8FF83FF0200000000000001AF
:105BCA0032000000000001C6015800160001410021
:105BDA000000F3FF010501CDFFF5FF016200EDFFB3
:105BEA00FBFF0161001300FCFF0105013300F5FF13
:105BFA000141000000F3FF010501CDFFF5FF015748
:105C0A0000EFFFFCFF0157001100FCFF0107013301
:105C1A0000F3FF013C000000F4FF01C701A8FF17D1
:105C2A000001410000000D0001100135000C0001C7
:105C3A004C000F000300015C01BCFF0F0001410092
:105C4A0000000D0002010000000000013200000007
:105C5A00000001AC00000099FF02000000000000F3
:105C6A000132000000000001C60158001600013C84
:105C7A00000000F4FF010601CDFFF4FF016200ED10
:105C8A00FFFBFF0160001300FDFF0106013300F472
:105C9A00FF0141000000F3FF010501CDFFF5FF01FF
:105CAA005700EFFFFCFF0157001100FCFF0107013D
:105CBA003300F3FF013C000000F4FF01C701A8FF15
:105CCA00170001410000000D0001100135000C0011
