:020000040000FA
:06100000CDEF48F01200E4
:0610080028EF08F01200C1
:06101800DBEF21F01200E5
:06102A0003004E920000DD
:10103000F9010000070000004C920000FA000000D7
:1010400002000000CE910000800200007E0000003F
:10105000DACFE4FFE9CFE4FFEACFE4FFF3CFE4FF28
:10106000F4CFE4FFE6529E90FE0ECF6E300ECE6EB1
:1010700009B28C820080010180A933D0045004E1C0
:101080005F0E831481118C6E02A016D009A402D0C9
:101090006AEC1EF05EEC20F026AE0ED0269E818D0E
:1010A00070EC1EF009A404D02F2A30223122322203
:1010B000CFEC1DF001E1029003A00BD067EC20F013
:1010C0002AAE07D02A9ED9EC1EF07FEC1EF001E17B
:1010D0000390010E021444E1010E031401E176D0E5
:1010E0003FD080AB3FD002A01FD009A402D06AEC51
:1010F0001EF071EC1CF026AE17D07F0E2614266E63
:10110000818D70EC1EF009A404D02F2A30223122E8
:1011100032228AAF03D0818F8C8E02D0819F8C9E29
:10112000CFEC1DF001E1029003A014D083EC1CF081
:101130002AAE10D07F0E2A142A6ED9EC1EF08EAF84
:1011400003D0818B8C8A02D0819B8C9A7FEC1EF01D
:1011500001E10390010E021403E1010E031436E0D5
:10116000009034D080AD32D002A030D0009070EC2E
:101170001EF0CFEC1DF001E1029009A402D06AEC50
:101180001EF071EC1CF026AE12D07F0E2614266ED7
:10119000818D09A405D02F2A000E3022312232225F
:1011A0008AAF03D0818F8C8E02D0819F8C9E83EC7E
:1011B0001CF02AAE0BD07F0E2A142A6E81898EAFC6
:1011C00003D0818B8C8A02D0819B8C9A500E811522
:1011D00042E0045005E10F0E831481118C6E0ED095
:1011E00081AF02D08B8401D08B9481AB02D08984F3
:1011F00001D0899481BD8B8C81B9898A81AD19D048
:1012000081AF0CD01B06000E1C5A1D5A1E5A09A491
:1012100010D03306345A355A365A0BD01B2A000EDA
:101220001C221D221E2209A404D0332A3422352276
:10123000362281A90DD081AB06D01F06000E205AA0
:10124000215A225A05D01F2A000E202221222222B2
:10125000AF0E8117D4D080A358D005A03AD0AA05EC
:101260000A6EA851A9111AE1C8EC1DF0EF50000157
:10127000EA6A8025E96E8151EA22EF6AD7EC20F014
:10128000EE6AED6ADEEC20F0EE6AED6AC8EC1DF065
:10129000EF6AFFEC20F0EE6AED6A1BD0D7EC20F08D
:1012A000ABC1EEFFACC1EDFFDEEC20F0A8C1EEFF5C
:1012B000A9C1EDFFC8EC1DF0A7C1EFFFFFEC20F0C6
:1012C000EE50ED1006E1FFEC20F0A8C1EEFFA9C141
:1012D000EDFF00018A510101A75D17E10001845172
:1012E0000101A8190CE1000185510101A91907E1CB
:1012F000010EB46FB16BBC5108E08A9806D0B46B94
:10130000010EB16FBC5101E08A88030E80150DE01B
:1013100084EC1EF074E08207000E835B845B855BC7
:1013200084EC1EF06CE000906AD080A529D0865134
:1013300022E0ADC153F0AEC154F0D89054325332D4
:10134000D890543253325350BB6EBAC155F0BBC122
:1013500056F0040ED89055365636E804FBE1300EB0
:101360005516000E5616CF0EBA145510536E56C0B1
:1013700054F0E85003D0BB6ACF0EBA14BA6E3ED018
:1013800080A73DD08151000823E2045002E18D90F6
:1013900001D08C92810503E18D848D82898C020EAF
:1013A000815D03E18D848D82899C030E815D03E163
:1013B0008D948D82899C040E815D03E18D848D92D4
:1013C000899C050E815D09E18D948D92899C05D0E3
:1013D000045002E18D8001D08C82A751000806E202
:1013E000045002E18B9207D0899205D0045002E1AB
:1013F0008B8201D0898213EC1DF00E90008009A42D
:1014000083D2010E001404E1080E091401E17CD21C
:10141000700E0101801501E177D2098EADA2FED7D1
:10142000540EAE6EADA2FED72C0EAE6E2BC00FF0DA
:101430002CC010F02DC011F02EC012F02E388FEC01
:101440001FF005E3ADA2FED7300E132405D0ADA2E8
:10145000FED7410E1324F60FFFEC1FF005E3ADA2FB
:10146000FED7300E132405D0ADA2FED7410E1324B3
:10147000F60F69EC21F005E3ADA2FED7300E132480
:1014800005D0ADA2FED7410E1324F60F04EC20F0D8
:1014900005E3ADA2FED7300E132405D0ADA2FED7D2
:1014A000410E1324F60F6DEC21F005E3ADA2FED73B
:1014B000300E132405D0ADA2FED7410E1324F60F33
:1014C00009EC20F005E3ADA2FED7300E132405D0C1
:1014D000ADA2FED7410E1324F60F71EC21F005E307
:1014E000ADA2FED7300E132405D0ADA2FED7410E1B
:1014F0001324F60F0EEC20F005E3ADA2FED7300E5C
:10150000132405D0ADA2FED7410E1324F60FAE6E04
:10151000ADA2FED72C0EAE6EADA2FED7530EAE6EB0
:10152000ADA2FED72C0EAE6E2FC00FF030C010F063
:1015300031C011F032C012F032388FEC1FF005E3E9
:10154000ADA2FED7300E132405D0ADA2FED7410EBA
:101550001324F60FFFEC1FF005E3ADA2FED7300E0B
:10156000132405D0ADA2FED7410E1324F60F69EC6B
:1015700021F005E3ADA2FED7300E132405D0ADA2B5
:10158000FED7410E1324F60F04EC20F005E3ADA2C4
:10159000FED7300E132405D0ADA2FED7410E132482
:1015A000F60F6DEC21F005E3ADA2FED7300E13244B
:1015B00005D0ADA2FED7410E1324F60F09EC20F0A2
:1015C00005E3ADA2FED7300E132405D0ADA2FED7A1
:1015D000410E1324F60F71EC21F005E3ADA2FED706
:1015E000300E132405D0ADA2FED7410E1324F60F02
:1015F0000EEC20F005E3ADA2FED7300E132405D08B
:10160000ADA2FED7410E1324F60FAE6EADA2FED7EB
:101610002C0EAE6EADA2FED7430EAE6EADA2FED7BF
:101620002C0EAE6E23C00FF024C010F025C011F0B8
:1016300026C012F026388FEC1FF005E3ADA2FED7CE
:10164000300E132405D0ADA2FED7410E1324F60FA1
:10165000FFEC1FF005E3ADA2FED7300E132405D03A
:10166000ADA2FED7410E1324F60F69EC21F005E37D
:10167000ADA2FED7300E132405D0ADA2FED7410E89
:101680001324F60F04EC20F005E3ADA2FED7300ED4
:10169000132405D0ADA2FED7410E1324F60F6DEC36
:1016A00021F005E3ADA2FED7300E132405D0ADA284
:1016B000FED7410E1324F60F09EC20F005E3ADA28E
:1016C000FED7300E132405D0ADA2FED7410E132451
:1016D000F60F71EC21F005E3ADA2FED7300E132416
:1016E00005D0ADA2FED7410E1324F60F0EEC20F06C
:1016F00005E3ADA2FED7300E132405D0ADA2FED770
:10170000410E1324F60FAE6EADA2FED72C0EAE6EB8
:10171000ADA2FED7520EAE6EADA2FED72C0EAE6EAF
:1017200087C10FF088C110F089C111F08AC112F091
:1017300012388FEC1FF005E3ADA2FED7300E132454
:1017400005D0ADA2FED7410E1324F60FFFEC1FF01B
:1017500005E3ADA2FED7300E132405D0ADA2FED70F
:10176000410E1324F60F69EC21F005E3ADA2FED77C
:10177000300E132405D0ADA2FED7410E1324F60F70
:1017800004EC20F005E3ADA2FED7300E132405D003
:10179000ADA2FED7410E1324F60F6DEC21F005E348
:1017A000ADA2FED7300E132405D0ADA2FED7410E58
:1017B0001324F60F09EC20F005E3ADA2FED7300E9E
:1017C000132405D0ADA2FED7410E1324F60F71EC01
:1017D00021F005E3ADA2FED7300E132405D0ADA253
:1017E000FED7410E1324F60F0EEC20F005E3ADA258
:1017F000FED7300E132405D0ADA2FED7410E132420
:10180000F60FAE6EADA2FED72C0EAE6EADA2FED719
:10181000500EAE6EADA2FED72C0EAE6E33C00FF0E2
:1018200034C010F035C011F036C012F036388FECED
:101830001FF005E3ADA2FED7300E132405D0ADA2F4
:10184000FED7410E1324F60FFFEC1FF005E3ADA207
:10185000FED7300E132405D0ADA2FED7410E1324BF
:10186000F60F69EC21F005E3ADA2FED7300E13248C
:1018700005D0ADA2FED7410E1324F60F04EC20F0E4
:1018800005E3ADA2FED7300E132405D0ADA2FED7DE
:10189000410E1324F60F6DEC21F005E3ADA2FED747
:1018A000300E132405D0ADA2FED7410E1324F60F3F
:1018B00009EC20F005E3ADA2FED7300E132405D0CD
:1018C000ADA2FED7410E1324F60F71EC21F005E313
:1018D000ADA2FED7300E132405D0ADA2FED7410E27
:1018E0001324F60F0EEC20F005E3ADA2FED7300E68
:1018F000132405D0ADA2FED7410E1324F60FAE6E11
:10190000ADA2FED70A0EAE6E0C5019E081500B6EE0
:10191000E8500D18E81C0C1412E00BC0DCF00E802F
:10192000026A036A0080146A156A166A016A200E48
:10193000015C05E2015024EC1DF0012AF8D700A05B
:10194000ECD00101806B145001E1CFD009B28C8042
:1019500006B08C940001A85102E0010EA86F165049
:1019600082EC1FF0EF50176E17A803D022EC21F085
:1019700004D017AA14D030EC1FF0A6EC20F0FEEC37
:101980001DF0A6EC20F0040EE9EC1BF0EECF93F175
:10199000EECF94F1EECF95F1EFCF96F108D017ACE2
:1019A00010D030EC1FF0A6EC20F0FEEC1DF0C2ECE5
:1019B00020F0020EE9EC1BF09FEC1CF0BAEC20F0DA
:1019C00045D017A223D092EC1FF0CBEC1AF0280ED2
:1019D000E9EC1BF0EECFA8F1EDCFA9F1CBEC1AF0BA
:1019E000270EE9EC1BF0EFCFA7F1CBEC1AF02A0E93
:1019F000E9EC1BF0EFCFAAF1CBEC1AF02B0EE9ECDF
:101A00001BF0EECFABF1EDCFACF120D017A003D09F
:101A100092EC1FF01BD017A40ED092EC1FF0BAEC82
:101A200020F0CBEC1AF02D0EE9EC1BF0EECFADF16F
:101A3000EDCFAEF10BD0CBEC1AF0EFCF80F1C2ECD2
:101A400020F0270EE9EC1BF0EFCFA7F1700E01019B
:101A5000801531E086A909D082C123F083C124F02A
:101A600084C125F085C126F01AD086A104D0236A4E
:101A7000246A256A266A86A304D0276A286A296A06
:101A80002A6A86A505D02368246825687F0E266EFD
:101A900086A705D02768286829687F0E2A6ECFECB4
:101AA0001DF002E0028001D002907FEC1EF002E007
:101AB000038001D0039009A40CD02B6A2C6A2D6AF4
:101AC0002E6A2F6A306A316A326A336A346A356A3A
:101AD000366A165024EC1DF0162A1850165C01E3E5
:101AE000166A14501AE0140618D00001A8050CE17B
:101AF0000001E80EAB6F030EAC6FA9C0ADF0AAC039
:101B0000AEF00001020EA86F0101826B836B846B43
:101B1000856B06B08C8409B2898280AE078008A0EC
:101B200002D081A00780045003E18C9C8C9802D0E5
:101B30008B9C899A09AE06D09E90FE0ECF6E300E19
:101B4000CE6E099E09A203D089928C908C92E552A8
:101B5000E5CFF4FFE5CFF3FFE5CFEAFFE5CFE9FFFF
:101B6000E5CFDAFF11000101BF6BC06BC16BC26B27
:101B7000D4EC1DF0C76BC86BC96BCA6BCB6BCC6B5D
:101B8000CD6BCE6B44EC1DF0D76BD86BD96BDA6B99
:101B9000DB6BDC6BDD6BDE6B3BEC1DF0E76BE86B4E
:101BA000E96BEA6B1200D9CFE6FFE1CFD9FFE6522D
:101BB000DF6A020EDF5C2DE2DF50040DF3CFE9FF98
:101BC000F4CFEAFF870EE926010EEA22010EEE6E3F
:101BD000EE6AEE6AEE6ADF50040DF3CFE9FFF4CF50
:101BE000EAFF8F0EE926010EEA22EE6AEE6AEE6A3D
:101BF000EE6ADF50040DF3CFE9FFF4CFEAFF9F0E4A
:101C0000E926010EEA22EE6AEE6AEE6AEE6ADF2A41
:101C1000D0D70101806B0101816B0101826B836B65
:101C2000846B856B0101A86BA96B0101A76B010196
:101C3000AA6B0101AB6BAC6B0690096ACD82CD9E9D
:101C4000CD9CCD9ACD98CD96CD94CF6ACE6A9F800B
:101C50009E909D80CD8092809F9C010EE66EE66AEC
:101C6000BBEC2CF0E552E552010EE66E0B0EE66E73
:101C7000BBEC2CF0E552E5528D8496948D829692C1
:101C8000898C929C8D8096908B8294928C9C959C52
:101C90008C9E959E8C9895988C9A959A949E828EFF
:101CA0000000000000000000000000000000000034
:101CB0000000000000000000000000000000000024
:101CC000000000000000948E829E0101010EBC6F96
:101CD00005808A989398899692960101010EB16FBA
:101CE000046A0101010EB46FDF6A200EDF5C09E2B5
:101CF000DF50EA6A580FE96E010EEA22EF6ADF2A26
:101D0000F4D70101B56BB66BB76BB86B076A01010D
:101D1000BE6B0101010EBD6F146A156A166A010ED1
:101D2000186E050E196E1A6A9380F19E08809396BC
:101D300081960B6A0C6A0D6A0E90B1EC1AF0E552AE
:101D4000E552E7CFD9FF1200C8EC1BF0030EDDEC23
:101D50001CF085EC1FF0E66AD950010FB5EC20F0BD
:101D6000030E34EC20F001E0ABD0DF0420E103EC03
:101D700021F007E10101010EBC6F059027EC1DF079
:101D80000ED039EC1CF0010EEE1805E1ED5003E128
:101D90000101BC6B03D00101010EBC6F0580000E78
:101DA000E66EE66AB4C1E6FF76EC1EF087D0020E5E
:101DB000DF5C2DE103EC21F008E1046A9690949237
:101DC000959C959E9598959A1BD039EC1CF0010E28
:101DD000EE180CE1ED500AE1010E8EEC1EF0949429
:101DE0009294949C929A9592929268D039EC1CF0BD
:101DF000020EEE1863E1ED5061E1020E8EEC1EF072
:101E000094849284948C928A9582928257D0040E04
:101E1000DF5C07E1010EDBCF84F0020EDBCF85F043
:101E20004DD0050EDF5C07E1010EDBCF82F0020E24
:101E3000DBCF83F043D0080EDF5C0FE139EC1CF000
:101E4000040ED880EE54000EED5403E2040EE0ECD4
:101E50001EF0010EDBCF7EF031D0090EDF5C0FE10A
:101E600039EC1CF0060ED880EE54000EED5403E25F
:101E7000060EE0EC1EF0010EDBCF7FF01FD00A0E45
:101E8000DF5C03E1E7EC1EF009D00B0EDF5C03E141
:101E9000E7EC1EF013D00C0EDF5C07E1010EDBCF88
:101EA00088F0020EDBCF89F009D00D0EDF5C06E171
:101EB00003EC21F002E0088001D00890F5EC1BF063
:101EC000030EE15C02E2E16AE552C5EF1BF034EC7F
:101ED00021F0B9EC21F05FEC21F0DF6E00019751A9
:101EE00022E10101BD5119E0C751C811C911CA1140
:101EF00003E108EC1FF003E0D9EC1DF00EE1CB513B
:101F0000CC11CD11CE1103E10DEC1FF003E0DEEC9E
:101F10001DF003E10001978D06D0D4EC1DF03BECE1
:101F20001DF096EC1EF079EF1DF034EC21F0DF0E81
:101F3000E66E010E5BEC1FF0B9EC21F046EC21F0EF
:101F40002AE10101BD5123E0C751C811C911CA11CD
:101F500008E108EC1FF005E1DF51E011E111E211A9
:101F600003E0D9EC1DF013E1CB51CC11CD11CE1112
:101F700008E10DEC1FF005E1DF51E011E111E21184
:101F800003E0DEEC1DF003E10001978D04D0D4ECFA
:101F90001DF096EC1EF079EF1DF03EEC21F0DF0E07
:101FA000E66E010E5BEC1FF0CB0EE66E010E46EC0A
:101FB00021F00DE10101BD5106E0E3EC1DF003E16C
:101FC0000001978D04D044EC1DF007EC1EF079EF72
:101FD0001DF03EEC21F0CB0EE66E010E5FEC21F021
:101FE000DF6E000197510FE10101BD5106E0E3EC06
:101FF0001DF003E10001978D06D044EC1DF03BEC91
:102000001DF007EC1EF079EF1DF0C8EC1BF0050E7B
:10201000F9EC1CF00EB0F2D109B405D046EC1CF07E
:1020200002E207EC1DF0FE0EDB5028E10101800EFC
:10203000D2150FE0800ECA1512E1000EA6EC1EF0BC
:10204000C76DC81FC823C91FC923CA1FCA239EEC56
:102050001EF0800ED61512E0800ECE1503E00001B2
:10206000978DCCD1000EB6EC1EF0CB6DCC1FCC23DF
:10207000CD1FCD23CE1FCE23AEEC1EF001012A6B67
:1020800012EC1FF04AEC1DF0020E6EEC1DF03D50FC
:102090000101C75D476E3E50C859486E3F50C9594F
:1020A000496E4050CA594A6EDFC13DF0E0C13EF072
:1020B000E1C13FF0E2C140F0060E6EEC1DF047506A
:1020C0003D240101C76F48503E20C86F49503F2052
:1020D000C96F4A504020CA6F53EC1DF0020E6EECDF
:1020E0001DF03D500101CB5D476E3E50CC59486E0E
:1020F0003F50CD59496E4050CE594A6EE3C13DF034
:10210000E4C13EF0E5C13FF0E6C140F0060E6EECE2
:102110001DF047503D240101CB6F48503E20CC6F4D
:1021200049503F20CD6F4A504020CE6F01012F6BA8
:1021300009A42ED0FD0EDB500BE1100E2F6FE7C16E
:102140002BF1E8C12CF1E9C12DF1EAC12EF187D0C4
:10215000ACEC1FF002E627EC1CF00FE3A1EC1BF047
:102160000EE1E5EC1FF002E627EC1CF006E3A1EC23
:102170001BF005E1800EE21502E079EC1EF0040E82
:10218000DB5003E001012F856AD001012F8167D068
:10219000E7C147F0010E10EC1EF01FE0ACEC1FF0A1
:1021A00002E627EC1CF00FE3A1EC1BF00EE1E5ECDE
:1021B0001FF002E627EC1CF006E3A1EC1BF005E1A2
:1021C000800EE21502E079EC1EF0040EDB5003E015
:1021D00001012F8502D001012F81E7C147F0020ED6
:1021E00010EC1EF03CE0040EDB6A21EC1FF0010154
:1021F000CB51EE24476ECC51EE20486ECD51EE20EF
:10220000496ECE5173EC1BF002E627EC1CF01DE387
:10221000A1EC1BF01CE1E30EE96E010EEA6EDB514E
:10222000EE24476EDC51EE20486EDD51EE20496E03
:10223000DE5173EC1BF002E627EC1CF006E3A1EC88
:102240001BF005E1800EE61502E079EC1EF0040EAD
:10225000DB5003E001012F8702D001012F831CEC2A
:102260001FF0EE500101D75DD76FEE50D859D86FEF
:10227000EE50D959D96FEE50DA59DA6FE30EE96EA4
:10228000010EEA6EEE50DB5DDB6FEE50DC59DC6F69
:10229000EE50DD59DD6FEE50DE59DE6F0001D905DD
:1022A00002E18D908B92C7C130F1C8C131F1C9C133
:1022B00032F1CAC133F1FE0EDB5009E0C3C138F17F
:1022C000C4C139F1C5C13AF1C6C13BF102D019EC24
:1022D0001EF0D7C148F1D8C149F1D9C14AF1DAC1DC
:1022E0004BF1DFC140F1E0C141F1E1C142F1E2C196
:1022F00043F1CBC134F1CCC135F1CDC136F1CEC102
:1023000037F1FE0EDB5006E001013C6B3D6B3E6B8E
:102310003F6B02D022EC1EF0DBC14CF1DCC14DF171
:10232000DDC14EF1DEC14FF1E3C144F1E4C145F13D
:10233000E5C146F1E6C147F1FE0EDB5003E00101C5
:10234000400E02D00101200E296F1850145CFDE2EE
:102350000EB005D00EEC1BF001E3156A142A09AA91
:102360004BD0C9EC20F0BBEC1BF0CBEC1FF06E0E99
:10237000476E7D0EC0EC1AF048C1E6FF49C1E6FF8A
:102380004AC1E6FF4BC1E6FFBBEC1BF0690E476E8E
:102390007D0EC0EC1AF040C1E6FF41C1E6FF42C12C
:1023A000E6FF43C1E6FFBBEC1BF0D0EC20F0BBEC3A
:1023B0001BF05F0E476E7D0E13EC20F05A0E476E39
:1023C0007D0EC0EC1AF04CC1E6FF4DC1E6FF4EC1D8
:1023D000E6FF4FC1E6FFBBEC1BF0550E476E7D0ECE
:1023E000C0EC1AF044C1E6FF45C1E6FF46C1E6FF76
:1023F00047C1E6FFA9EC21F0F5EC1BF0050EE15C0E
:1024000002E2E16AE552C5EF1BF099EC21F0CF0E34
:10241000E66E010E65EC21F0D30EE66E010E5EEC69
:102420001FF00101BD5101E17BD0BF51C011C111AD
:10243000C21102E10001978D0001975101E075D0B2
:10244000D880FF0E0101BEEC1EF004E2240E476EA0
:102450007D0E5CD0D1EC1EF002E6F8EC1BF003E23E
:102460007EEC1DF004D051EC1CF0CDEC1BF00CEC1C
:102470001CF002E695EC1CF004E2F80E476E7C0EB0
:1024800045D086EC1BF004E2CA0E476E7C0E3ED0AF
:10249000F3EC1AF0E8AE02D0413402D0A8EC1CF004
:1024A00007E3DAEC1BF004E0A60E476E7C0E2ED09C
:1024B0000101D5EC1EF002E602EC1CF003E28AEC0E
:1024C0001DF004D0B1EC1CF0CDEC1BF00CEC1CF0BA
:1024D00002E695EC1CF004E27A0E476E7C0E16D0F4
:1024E00086EC1BF004E24C0E476E7C0E0FD0F3EC32
:1024F0001AF0E8AE02D0413402D0A8EC1CF009E397
:10250000DAEC1BF006E0280E476E7C0E08EC21F09A
:1025100009D046EC1CF004E2E76BE86BE96BEA6B70
:102520008EDAE66A56EC29F0E552040EE15C02E22E
:10253000E16AE552C5EF1BF0C8EC1BF0050EE12681
:10254000010EDF6EDB6A020EDB6A030EDB6A040E2D
:10255000DB6A8AEC1FF02BEC20F0010EE66EDF0E3A
:10256000E66E010E65EC21F0E30EE66E010ED2EC94
:1025700021F00101BD5106E0E3EC1DF003E1000193
:10258000978DA7D11850145CFDE2DF040AE1F29E9A
:10259000010184EC1EF003E1805101E1DF6AF28E5B
:1025A000F4D71BC03DF01CC03EF01DC03FF01EC064
:1025B00040F0C6EC1EF00101DF25CF6F3A50E0215C
:1025C000D06F3B50E121D16F3C50E221D26F1FC050
:1025D0003DF020C03EF021C03FF022C040F0C6ECEC
:1025E0001EF00101E325D36F3A50E421D46F3B5034
:1025F000E521D56F3C50E621D66F800ED21506E05E
:102600003DEC1EF0000E9EEC1EF002D03DEC1EF0E4
:10261000800ED61506E046EC1EF0000EAEEC1EF065
:1026200002D046EC1EF0DA35000EDA1909E6D88041
:10263000FF0ED755FF0ED855FF0ED955000EDA55AF
:102640000EE3DE35000EDE1909E6D880FF0EDB55FD
:10265000FF0EDC55FF0EDD55000EDE5504E2FA0ECE
:10266000476E7B0E9DD017EC1FF0030EEBCFF3FFF0
:10267000DE51F318E8AE02D0F33408D0EE50DB5D43
:10268000EE50DC59EE50DD59EE50DE5901E380D0BA
:1026900076EC20F09DEC21F004E2C90E476E7B0E33
:1026A0007FD0E2EC1CF00101DE19E8AE02D0DE358D
:1026B00008D0DB513D5CDC513E58DD513F58DE51C6
:1026C000405801E2E8D00DEC1FF001E1E4D07CECD1
:1026D00020F00101D1EC1EF002E6F8EC1BF006E25E
:1026E000D5EC1EF002E602EC1CF01DE3800ED215C4
:1026F00006E0D5EC1EF002E602EC1CF009E3D1EC9A
:102700001EF002E6F8EC1BF008E2800ED61505E09C
:10271000B1EC1CF0C3EC1CF012D0800ED2150FE00F
:10272000800ED6150CE0010ED3C1DBFF020ED4C122
:10273000DBFF030ED5C1DBFF040ED6C1DBFFCFC12B
:10274000C7F1D0C1C8F1D1C1C9F1D2C1CAF1010EDE
:10275000DBCFCFF1020EDBCFD0F1030EDBCFD1F117
:10276000040EDBCFD2F182EC20F00101C75DCF6F08
:10277000EE50C859D06FEE50C959D16FEE50CA59BA
:10278000D26FD36BD46BD56BD66B5CEC1DF07DD068
:102790007CEC20F09DEC21F006E2980E476E7B0E5B
:1027A00008EC21F093D0E2EC1CF00101DA19E8AE5C
:1027B00002D0DA3508D0D7513D5CD8513E58D951B6
:1027C0003F58DA51405867E308EC1FF064E076ECBC
:1027D00020F00101D5EC1EF002E602EC1CF006E24E
:1027E000D1EC1EF002E6F8EC1BF01DE3800ED615CE
:1027F00006E0D1EC1EF002E6F8EC1BF009E3D5ECA4
:102800001EF002E602EC1CF008E2800ED21505E094
:1028100051EC1CF0C3EC1CF012D0800ED6150FE06A
:10282000800ED2150CE0010ECFC1DBFF020ED0C12D
:10283000DBFF030ED1C1DBFF040ED2C1DBFFD3C12E
:10284000CBF1D4C1CCF1D5C1CDF1D6C1CEF1010EC1
:10285000DBCFD3F1020EDBCFD4F1030EDBCFD5F10A
:10286000040EDBCFD6F182EC20F00101CB5DD36FFB
:10287000EE50CC59D46FEE50CD59D56FEE50CE59A5
:10288000D66F0DEC21F065EC1DF06AEC1CF08AECC3
:1028900020F0CEEC1AF00A0E0101BF5D000EC05907
:1028A000000EC159000EC25905E20A0EBF6FC06B7F
:1028B000C16BC26B09AA05D08B0E476E7B0E64EC10
:1028C0001FF0010107EC1DF0BAD8E66A56EC29F0BA
:1028D000E552050EE15C02E2E16AE552C5EF1BF04C
:1028E00099EC21F0D70EE66E010E5FEC21F046EC7C
:1028F0001CF002E207EC1DF0BD5107E0BF51C01112
:10290000C111C21102E10001978D21EC1FF00101FC
:10291000D751EE24CF6FD851EE20D06FD951EE2091
:10292000D16FDA51EE20D26F21EC1FF0EE50D75D5F
:10293000D36FEE50D859D46FEE50D959D56FEE50B1
:10294000DA59D66FD1EC1EF002E6F8EC1BF003E288
:102950007EEC1DF004D051EC1CF0CDEC1BF001011D
:10296000BD512AE0D880FF0EBEEC1EF004E2240E1A
:10297000476E7D0E52D00CEC1CF002E695EC1CF07C
:1029800004E2F80E476E7C0E48D086EC1BF004E2A1
:10299000CA0E476E7C0E41D0F3EC1AF0E8AE02D0BE
:1029A000413402D0A8EC1CF007E3DAEC1BF004E0A1
:1029B000A60E476E7C0E31D00101D5EC1EF002E66A
:1029C00002EC1CF003E28AEC1DF004D0B1EC1CF028
:1029D000CDEC1BF00101BD5123E00CEC1CF002E634
:1029E00095EC1CF004E27A0E476E7C0E16D086EC55
:1029F0001BF004E24C0E476E7C0E0FD0F3EC1AF085
:102A0000E8AE02D0413402D0A8EC1CF009E3DAECC5
:102A10001BF006E0280E476E7C0E08EC21F005D076
:102A20000001975105E10BD8E66A56EC29F0E55212
:102A3000040EE15C02E2E16AE552C5EF1BF0ABEC8B
:102A400020F00EB09ED109AA05D0750E476E7B0E00
:102A500064EC1FF046EC1CF002E207EC1DF0E7C14D
:102A60002FF1D9EC1DF027E1DEEC1DF024E101018E
:102A7000010E296FBFC12BF1C0C12CF1C1C12DF1D5
:102A8000C2C12EF175EC21F039C02BF13AC02CF106
:102A90003BC02DF13CC02EF1D880000E010139540D
:102AA000000E3A54190E3B54000E3C5401E35FD122
:102AB00012EC1FF05CD1010112EC1FF02A6B000137
:102AC000D90502E18D908B920101800ED21508E0AC
:102AD000800E01012A112A6F000E0101A6EC1EF0E2
:102AE000800ED61508E0200E01012A112A6F000E73
:102AF0000101B6EC1EF009AA29D0E40ECF5D550EF7
:102B0000D059000ED159000ED25920E251EC1CF0E0
:102B1000FB0E426E020E436E446A456ABCEC47F0FF
:102B20000101BF51395CC0513A58C1513B58C251A3
:102B30003C580CE2480E476E7B0E53EC21F0EDEC56
:102B40001BF00101D4EC1DF00DEC21F0D9EC1DF0CF
:102B500063E0D890D251000A08E6FF0ECF5DFF0E69
:102B6000D059010ED159000ED25924E212EC1CF0BA
:102B70004FEC1EF003E03FEC1CF0FDE193EC20F085
:102B80004FEC1EF003E03FEC1CF0FDE1E5EC20F023
:102B9000F5AE02D058EC1EF0D1EC1CF016E29CEC25
:102BA0001DF003E03FEC1CF0FDE1B0EC1BF0A7ECE6
:102BB0001DF009D051EC1CF0F2EC1FF072EC1DF08E
:102BC000FDE1DAEC1FF0DD52DD52B2EC1DF005E262
:102BD000180E476E7B0EBCEC1FF0E3EC1DF008E115
:102BE000D9EC1DF005E0EF0E476E7A0EEBEC20F00D
:102BF000E8EC1DF009E2BDEC1DF003E03FEC1CF039
:102C0000FDE1E9EC1CF00AD0100E1F0B07E00101FA
:102C100072EC1DF0FDE102D0D4EC1DF0EBEC1DF0E8
:102C200005E3C369C469C5697F0EC66FC3C130F1CE
:102C3000C4C131F1C5C132F1C6C133F119EC1EF086
:102C40000101486B496B4A6B4B6B0101DEEC1DF0D7
:102C500062E0D890D651000A08E6FF0ED35DFF0E61
:102C6000D459010ED559000ED65924E212EC1CF0AD
:102C700061EC1EF003E03FEC1CF0FDE193EC20F072
:102C800061EC1EF003E03FEC1CF0FDE1E5EC20F010
:102C9000F5AE02D058EC1EF0D1EC1CF016E29CEC24
:102CA0001DF003E03FEC1CF0FDE1B0EC1BF0A7ECE5
:102CB0001DF009D0B1EC1CF0F2EC1FF072EC1DF02D
:102CC000FDE1DAEC1FF0DD52DD52B2EC1DF005E261
:102CD000BF0E476E7A0EBCEC1FF0E3EC1DF008E16E
:102CE000DEEC1DF005E0960E476E7A0EEBEC20F060
:102CF000E8EC1DF009E2BDEC1DF003E03FEC1CF038
:102D0000FDE1E9EC1CF007D0100E1F0B04E00101FF
:102D100072EC1DF0FDE1EBEC1DF005E3C369C46945
:102D2000C5697F0EC66FC3C134F1C4C135F1C5C1D9
:102D300036F1C6C137F122EC1EF001014C6B4D6B30
:102D40004E6B4F6B100E296F09AA11D0C9EC20F001
:102D5000C0EC1BF0CBEC1FF0D0EC20F0C0EC1BF073
:102D60005A0E476E7D0E13EC20F0EDEC1BF0185060
:102D7000145CFDE20EB005D00EEC1BF001E3156A09
:102D8000142A040EE15C02E2E16AE552C5EF1BF091
:102D9000C8EC1BF0030E30EC20F0FCEC1EF034EC21
:102DA00020F03CE1F29E100E0101805D06E0200E55
:102DB000805D03E0400E805D03E1DE52010EDD6EBA
:102DC000145003E0DE52010EDD6E806B020EDB6AF2
:102DD000200EF36E020EDBCFF4FFF350F45C07E23B
:102DE000020EDB5024EC1DF0020EDB2AF1D7156A2F
:102DF000166A146ADF0409E1045003E18D808B82B6
:102E000004D0040402E18C828982F28EA3EC21F0CA
:102E1000BEB102D0EDEC1BF0F5EC1BF0030EE15C53
:102E200002E2E16AE552C5EF1BF039EC20F0B4C1D3
:102E300047F0486A496A4A6A47AE03D04868496819
:102E40004A6847C0E6FF4DEC20F0C0EC1BF00101E2
:102E5000BEB102D0EDEC1BF0F5EF1BF0C8EC1BF09F
:102E6000030E30EC20F08450040B08E18450020B78
:102E700005E18050400B02E1010E23D08450040B89
:102E800009E08450020B06E18050400B03E1020E82
:102E9000F36E19D08450040B08E18450020B05E056
:102EA0008050400B02E1040E0CD08450040B08E06B
:102EB0008450020B05E08050400B02E1080E01D067
:102EC000100EF36E020EF3CFDBFF045008E184B066
:102ED00003D0020EDB50DF6E82B210D009D00404A2
:102EE0000DE183B203D0020EDB50DF6E80B206D05C
:102EF000020EDB50E76E010EE7CFDBFFDFCF47F0BE
:102F00003DEC20F00DEC1DF0A3EC21F0BEB102D0A1
:102F1000EDEC1BF0F5EC1BF0030EE15C02E2E16A64
:102F2000E552C5EF1BF0C8EC1BF0020EE126DE6A8D
:102F3000DD6A88EC21F0FCEC1EF0030E34EC20F08E
:102F40000FE10101B40504E126EC1FF0E66A04D0AC
:102F500026EC1FF0010EE66E76EC1EF0F5EC1BF091
:102F6000020EE15C02E2E16AE552C5EF1BF0B0EC53
:102F700020F096EC1DF0ADEC21F0030EFBDA8BECAB
:102F800021F012EC21F00001975124E1030EDB50F7
:102F9000070802E296EC1DF0DF50010802E2010E84
:102FA000DF6E030EDB50030F00018A5D07E027ECA4
:102FB0001DF0030EDB50030F00018A6F010EDBCF03
:102FC000E6FF020EDBCFE6FFDFCFE6FF76EC1EF07A
:102FD000F5EC1BF0050EE15C02E2E16AE552D5D3A7
:102FE000D7DB040EE126FE0EDB040BE184C0DEFF1E
:102FF00085C0DDFF020E86C0DBFF030E87C0DBFF4E
:103000000AD082C0DEFF83C0DDFF020E88C0DBFF76
:10301000030E89C0DBFF8986D5C0D1F0D6C0D2F0BF
:10302000D7C0D3F0D8C0D4F0FC0EDBCFE6FFFD0E46
:10303000DBCFE6FF020EDBCFE6FF030EDBCFE6FFC2
:103040008AC0E6FF26EC1FF0F1EC20F0040EE15CF4
:1030500002E2E16AE55299D39BDB040EE12685EC9E
:103060001FF0E76E020EE7CFDBFF000197512CE166
:10307000020EDB5029E15AEC1CF0010E7BDAE76E00
:10308000030EE7CFDBFF000197511EE1030EDB507B
:103090001BE11850145CFDE2155082EC1FF0EE525B
:1030A000DFCFEFFF60EC1CF0270E93DB010EDBCFD0
:1030B000EFFF60EC1CF0080EEF6E152A1850155C3F
:1030C00001E3156A142A91DB040EE15C02E2E16A75
:1030D000E5525BD388EC21F0FE0E0101B55DFF0ED9
:1030E000B659FF0EB759FF0EB85905E2B52B000EC1
:1030F000B623B723B823F5EF1BF088EC21F00101CC
:10310000B551B611B711B81105E0B507000EB65BA1
:10311000B75BB85BF5EF1BF03BDB050EE12688ECF7
:1031200021F001EC1DF0070E12EC21F0DB500BE159
:10313000DFCFB5F1010EDBCFB6F1020EDBCFB7F179
:10314000030EDBCFB8F151DB050EE15C02E2E16A70
:10315000E5521BD339EC20F0B5C1E6FFB6C1E6FF5E
:10316000B7C1E6FFB8C1E6FF0BDB0101BEB102D07B
:103170007BEC1DF0F5EF1BF00BDB020EB0EC21F049
:10318000ADEC21F0010E34EC20F00CE1010EDB502F
:103190001F0803E2DE521F0EDD6EC9EC1EF0DFCF0A
:1031A000EFFF23DB020EE15C02E2E16AE552EDD2C1
:1031B000EFDA020E30EC20F07DDB010E34EC20F073
:1031C00013E1010EDB501F0803E2DE521F0EDD6E1D
:1031D000C9EC1EF0EFCF47F03DEC20F00101BEB18D
:1031E00002D07BEC1DF001DB020EE15C02E2E16A41
:1031F000E552CBD239EC20F00750476E486A496A55
:103200004A6AE66E4DEC20F0BBDA0101BEB102D095
:103210007BEC1DF007B00790F5EF1BF09DBCFED7CF
:1032200039EC20F000C147F001C148F0F9EC1FF083
:1032300016C147F017C148F078DA9DDA0101BEB136
:1032400002D07BEC1DF0F5EF1BF01EEC21F0D2D884
:10325000DF6E39EC20F00F0EDF14DF6E0101B45188
:1032600003E0100EDF10DF6E07A003D0200EDF108A
:10327000DF6E0001A75104E0400EDF10DF6EA76B88
:103280000EA003D0800EDF10DF6E020EE66EDFCFE1
:1032900047F0486A4ADA88EC43F04B6E050EE15E6F
:1032A0004B507BEC1DF007B0079079EF1DF0B0ECB0
:1032B00020F0030EDB6AADEC21F0030E12EC21F0DE
:1032C0008BEC21F034EC20F001E08ED0D2DAFF0E4E
:1032D000D880EE54030EED5405E2010EDB68030EB8
:1032E0002BEC1FF0DF50010802E2010EDF6E030E2F
:1032F000DB50010802E296EC1DF0DF0409E1040E48
:10330000DB50030805E10101BA6B020EBB6F06D06A
:10331000010EDBCFBAF1020EDBCFBBF1CAB415D080
:10332000CB68FC0ECA140009CA6E9D920F0152812F
:103330005293F00EBA140C09BA6E3F0EBA1400097B
:10334000BA6E0E010E0ECC6FCA84030EDB502AE15A
:10335000DF5023E0BAC147F0BBC148F0D8904832F3
:103360004732D890483247324750BB6EBAC149F015
:10337000BBC14AF0040ED89049364A36E804FBE156
:10338000300E4916000E4A16CF0EBA14000149102D
:10339000476E4AC048F0E85003D0BB6ACF0EBA145B
:1033A000BA6E21D01850145CFDE2155082EC1FF06B
:1033B0002D0E0FDABAC1EEFFBBC1EDFF81DA020EAE
:1033C00008DAEE6AEE6AEE6AEE6A7ADA060E01DA78
:1033D000DFCFEFFF75DA040EEF6E152A1850155C7B
:1033E00001E3156A142A01DA050EE15C02E2E16AE2
:1033F000E552CBD1CDD9040EE0DA030EDB6AF29EA2
:10340000010184EC1EF002E0010EDF6E805102E04B
:10341000010EDF6E145006E0010EDF6EF36E030E38
:10342000F3CFDBFFDF5005E0BADB03E0DE52010E35
:10343000DD6EDF5006E07FEC1EF003E0010E2BECAA
:103440001FF0F28E030EDBCFE6FF020EDB50E82406
:10345000486E010EDB50040DF3CF47F0DF50080D2E
:10346000F35047104810E552E710476E040EE15C38
:1034700002E2E16AE552E16E475016EF21F0B0EC4E
:1034800020F0030EDB6AB6DF89EC1EF0010EE66E5B
:10349000E66E38EC29F0E552E552040EDBB046DB6F
:1034A000040EDBA203D0010E2BEC1FF0040EDBA4F4
:1034B00003D0DE52010EDD6E040EDBA602D0010E3B
:1034C000DF6EDFCF47F0486AF9EC1FF0010EDBCF6B
:1034D00047F0486AF9EC1FF0020EDBCF47F0486A6C
:1034E000F9EC1FF0030EDBCF47F0486A1ED9A9ECB8
:1034F00021F0050EE15C02E2E16AE55246D148D9CD
:10350000080EE12639EC20F0F29E1BC0DFFF010E11
:103510001CC0DBFF020E1DC0DBFF030E1EC0DBFF65
:10352000040E1FC0DBFF050E20C0DBFF060E21C00E
:10353000DBFF070E22C0DBFFF28ED9CFE9FF1FECC5
:1035400020F06BDAD950040FE96E1FEC20F0010176
:10355000BEA143D94AD9080EE15C02E2E16AE55214
:1035600014D1F29E60DAF28E120088EC21F0F9DFBD
:10357000F5EF1BF0E66EB4EC31F0E5525AEF20F0B7
:10358000486E496A47C0E6FFE66E49C0E6FF6BEC4D
:1035900043F05AEF20F016509CEF20F0BCEC47F0BF
:1035A00039C047F03AC048F03BC049F03CC04AF04F
:1035B00039C03DF03AC03EF03BC03FF03CC040F067
:1035C000C3C142F0C4C143F0C5C144F0C6C145F017
:1035D00054EC48F03DC0BFF13EC0C0F13FC0C1F166
:1035E00040C0C2F11200BFC147F0C0C148F0C1C124
:1035F00049F0C2C14AF0F8EC20F0A3EC1FF054EC03
:1036000048F03DC047F03EC048F03FC049F040C0E0
:103610004AF042EC20F04A5041181200155082EC5A
:103620001FF029C1EEFF2AC1EEFF2BC1EEFF2CC116
:10363000EEFF2DC1EEFF2EC1EEFF2FC1EEFF30C118
:10364000EEFF31C1EEFF32C1EEFF33C1EEFF34C1F8
:10365000EEFF35C1EEFF36C1EEFF37C1EEFF38C1D8
:10366000EEFF39C1EEFF3AC1EEFF3BC1EEFF3CC1B8
:10367000EEFF3DC1EEFF3EC1EEFF3FC1EEFF40C198
:10368000EEFF41C1EEFF42C1EEFF43C1EEFF44C178
:10369000EEFF45C1EEFF46C1EEFF47C1EEFF48C158
:1036A000EEFF49C1EEFF4AC1EEFF4BC1EEFF4CC138
:1036B000EEFF4DC1EEFF4EC1EEFF4FC1EEFF50C118
:1036C000EEFF51C1EEFF52C1EEFF53C1EEFF54C1F8
:1036D000EEFF55C1EEFF56C1EEFF57C1EEFF152AB2
:1036E0001850155C1200EE204A6E47C0DFFF010E35
:1036F00048C0DBFF020E49C0DBFF030E4AC0DBFF00
:1037000083EC21F0D890EB50000A12007AEC21F003
:10371000DFCF3DF0010EDBCF3EF0020EDBCF3FF0FE
:10372000030EDBCF40F097EF1FF0496A4A6A47C0AB
:10373000E6FF4DEF20F0E66A38EC29F0E552E5525D
:10374000120083EC21F0EECF47F0EECF48F0EECF41
:1037500049F0EFCF4AF04750481049104A10120084
:103760008AEC20F0C7C142F0C8C143F0C9C144F09F
:10377000CAC145F01200DEEC43F0E5525AEF20F0EA
:10378000C2EC43F0E5525AEF20F0E16E16EF21F063
:10379000D9CFE6FFE1CFD9FF120054EC20F039C0B9
:1037A000DEFF3AC0DEFF3BC0DEFF3CC0DDFFDD5286
:1037B000DD52120083EC21F0EECF4BF0EECF4CF057
:1037C000EECF4DF0EFCF4EF04B504C104D104E1051
:1037D0001200E926000EEA221200020EE66E1AEF2F
:1037E00021F0136EE85009081200E66A1AEF21F082
:1037F000D880000ECF55000ED055000ED155000ECA
:10380000D2551200D880000ED355000ED455000EAC
:10381000D555000ED655120042EC20F04134000E72
:1038200041181200BFC1C7F1C0C1C8F1C1C1C9F17F
:10383000C2C1CAF175EC21F039C0C7F13AC0C8F174
:103840003BC0C9F13CC0CAF10F0E1F0B1200000EA5
:10385000EE5C000EEE58000EEE58000EEE58120010
:103860003DC0C3F13EC0C4F13FC0C5F140C0C6F188
:103870001200D950010FE96EDACFEAFF1200D8909A
:103880004736483649364A36E8061200D880030ED5
:103890000101E755000EE855000EE955000EEA5506
:1038A0001200CFC13DF0D0C13EF0D1C13FF0D2C136
:1038B00040F01200010EE66ED950010FB5EF20F076
:1038C00015509CEF20F00A50E96EEA6AD890E9366C
:1038D000EA361200E80E426E030E436E446A456AF1
:1038E000120097519F279851A0239951A1239A51D3
:1038F000A2239F518727A0518823A1518923A25138
:103900008A235EEF20F09B51A3279C51A4239D5155
:10391000A5239E51A623A3518B27A4518C23A551E7
:103920008D23A6518E2367EF20F0D880FF0E3E54E2
:10393000FF0E3F54FF0E4054000E41541200EECFD4
:1039400082F1EECF83F1EECF84F1EFCF85F112005B
:103950003E50475C3F5048584050495841504A58A3
:103960001200D3C13DF0D4C13EF0D5C13FF0D6C165
:1039700040F01200C3C13DF0C4C13EF0C5C13FF0EC
:10398000C6C140F0120090DB010E39C0DBFF020E11
:103990003AC0DBFF030E3BC0DBFF040E3CC0DBFF85
:1039A000120039C0CBF13AC0CCF13BC0CDF13CC0E4
:1039B000CEF1D8801E0E0101C1D3B0EC21F0020E71
:1039C000DB6A1200C0DAF8EC20F054EC48F040500A
:1039D000120083EC21F04750EE240101C36F4850E0
:1039E000EE20C46F4950EE20C56F4A50EE20C66FDE
:1039F0001200E126DE6ADE6ADE6ADD6ADD52DD5231
:103A00001200E66AD9CFE6FFDACFE6FF1200030E16
:103A1000E76FE86BE96BEA6B12002C0EE66EE6ECE2
:103A200025F0E55212001B6A1C6A1D6A1E6A1F6A95
:103A3000206A216A226A236A246A256A266A276A1A
:103A4000286A296A2A6A12005DDAEF6A1200000EFB
:103A5000E66EE66AE66EE66A8AC0E6FFE66EE66A4B
:103A6000F1EF20F0EECF8BF1EECF8CF1EECF8DF1B8
:103A7000EFCF8EF11200DF6BE06BE16BE26BE36B7B
:103A8000E46BE56BE66B1200C8DBD36BD46BD56BD4
:103A9000D66B1200D7C13DF0D8C13EF0D9C13FF07E
:103AA000DAC140F01200DBC13DF0DCC13EF0DDC107
:103AB0003FF0DEC140F01200D7C147F0D8C148F056
:103AC000D9C149F0DAC14AF01200DBC147F0DCC1CC
:103AD00048F0DDC149F0DEC14AF01200D6EC21F019
:103AE000F4EF47F0D890C337C437C537C637E80678
:103AF0001200E5529BD3010EE66E9CD3CFC1DFFFCF
:103B0000010ED0C1DBFF020ED1C1DBFF030ED2C11B
:103B1000DBFF1200D3C1DFFF010ED4C1DBFF020EB9
:103B2000D5C1DBFF030ED6C1DBFF1200010EF36E21
:103B3000030EF3CFDBFF1200100E1F0BCBC147F0BB
:103B4000CCC148F0CDC149F0CEC14AF01200F4EC2E
:103B500047F03DC0DEFF3EC0DEFF3FC0DEFF40C09D
:103B6000DDFF1200D880000E0101C355800EC45540
:103B7000000EC555000EC6551200100E1F0BC3C116
:103B800047F0C4C148F0C5C149F0C6C14AF01200AF
:103B90000A50EA6A690FE96E000EEA2212008F519C
:103BA0009011911192111200C36BC46BC56BC66B5F
:103BB0001200CF51D011D111D2111200D351D41112
:103BC000D511D6111200C351C411C511C61112006E
:103BD000D8801E0EB3D2FF0E0101C35DFF0EC45983
:103BE000FF0EC5597F0EC6591200EECF9BF1EECFE6
:103BF0009CF1EECF9DF1EFCF9EF11200EECF8FF151
:103C0000EECF90F1EECF91F1EFCF92F11200DFCF36
:103C1000E6FF010EE66E05EC10F0E552E5521200EB
:103C20004716486A496A4A6A4750481049104A107C
:103C30001200CFC138F1D0C139F1D1C13AF1D2C1AE
:103C40003BF11200D3C13CF1D4C13DF1D5C13EF1ED
:103C5000D6C13FF1120030C1E6FF31C1E6FF32C1EB
:103C6000E6FF33C1E6FF120034C1E6FF35C1E6FFCF
:103C700036C1E6FF37C1E6FF1200CFC1D7F1D0C190
:103C8000D8F1D1C1D9F1D2C1DAF11200D3C1DBF13F
:103C9000D4C1DCF1D5C1DDF1D6C1DEF11200CFC156
:103CA00047F0D0C148F0D1C149F0D2C14AF012006A
:103CB000000E396C3A1E3A223B1E3B223C1E3C222F
:103CC0001200D3C147F0D4C148F0D5C149F0D6C1E4
:103CD0004AF012002B2A000E2C222D222E22120036
:103CE0008F07000E905B915B925B1200F0EC17F077
:103CF000E1D1010EF36E040EF3CFDBFF12009351FE
:103D0000941195119611120082518311841185111D
:103D10001200E76E040EE7CFDBFF1200046E968000
:103D20009482958C958E9588958A1200DFCFE6FF58
:103D3000E66A05EC10F0E552E5521200D76DD81F87
:103D4000D823D91FD923DA1FDA231200CF6DD01F51
:103D5000D023D11FD123D21FD2231200DB6DDC1F51
:103D6000DC23DD1FDD23DE1FDE231200D36DD41F15
:103D7000D423D51FD523D61FD6231200BF55FF0E3F
:103D8000C055FF0EC155000EC25512008DD93950D5
:103D90001200010EDB50EA6A580FE96E010EEA22AA
:103DA0001200D235000ED2191200D635000ED619E7
:103DB000120081899307000E945B955B965B12005D
:103DC000F36E010EF3CFDBFF020EDB6A1200010E71
:103DD000DBCF86F0020EDBCF87F012000101C36B50
:103DE000800EC46FC56BC66B12000101010EC36F5C
:103DF000C46BC56BC66B1200010EE66ED9CFE6FF31
:103E0000DACFE6FF1200610EE926000EEA22120068
:103E1000D751D811D911DA111200DB51DC11DD11A3
:103E2000DE1112002B6B2C6B2D6B2E6B1200D70E3C
:103E3000E96E010EEA6E1200DF0EE96E010EEA6E07
:103E40001200DB0EE96E010EEA6E1200DECFE6FF15
:103E5000DDCFE6FF1200F36E020EF3CFDBFF1200A0
:103E6000F1D9CBEC1AF01F0EB4DCEECF9FF1EECF00
:103E7000A0F1EECFA1F1EFCFA2F1CBEC1AF01F0E23
:103E800086DAEECFA3F1EECFA4F1EECFA5F1EFCF1E
:103E9000A6F1CBEC1AF0170E9CDCEECF97F1EECF2B
:103EA00098F1EECF99F1EFCF9AF1CBEC1AF0170E13
:103EB0006EDAF5EF1DF076DAE66A120006DAE70E42
:103EC000E66E010EB5EF21F0EED9850E476E7B0E42
:103ED000C0EC1AF0CFC1E6FFD0C1E6FFD1C1E6FFCA
:103EE000D2C1E6FF48DC7F0E476E7B0EC0EC1AF0B5
:103EF000D3C1E6FFD4C1E6FFD5C1E6FFD6C1E6FFD8
:103F0000A9EF21F02F0D00010DD202DA7ADD010EAA
:103F1000BAEF1AF0B3EC0DF0FBD9E66A12000F0B02
:103F2000F1EF1BF039DA020E54DC9FEF1CF054EC79
:103F300048F0D880190E3D54000E3E54000E3F54F8
:103F4000000E40541200BFC13DF0C0C13EF0C1C1DF
:103F50003FF0C2C140F01200040EDB6A68DF0101CD
:103F6000C751EE24476EC851EE20486EC951EE206D
:103F7000496ECA5173EF1BF0C0EC1AF0C3C1E6FFE3
:103F8000C4C1E6FFC5C1E6FFC6C1E6FFC0EC1BF039
:103F900024DCEEEF1EF0730E476E7D0EC0EC1AF0BF
:103FA00038C1E6FF39C1E6FF3AC1E6FF3BC1E6FF93
:103FB000C0EF1BF0190EFAD9DDDC54EC48F050DCF0
:103FC000DE6ADE6ADE6ADD6A120036DFD751EE2471
:103FD000476ED851EE20486ED951EE20496EDA5125
:103FE00073EF1BF087D954EC48F03ADC0F0E010157
:103FF000120095EC1BF0BBEC1BF00DEF1DF0AE6E4C
:104000000F0E1214F1EF1BF0AE6E0F0E1114F1EF44
:104010001BF0AE6E0F0E1014F1EF1BF0AE6E0F0E14
:104020000F14F1EF1BF0C0EC1AF03CC1E6FF3DC1EC
:10403000E6FF3EC1E6FF3FC1E6FFC0EF1BF0DACF6F
:10404000EAFFEECFE6FFEECFE6FFEECFE6FFEFCFE3
:10405000E6FFBBEF1BF0C30EE66E010EB5EF21F0DD
:104060007FD9E66E9BEF1BF0BAEC1AF00001975176
:104070001200010EE66E9BEF1BF0486A95EC1BF0F8
:10408000C0EF1BF0DECF3EF0DECF3FF0DECF40F0E2
:10409000DDCF41F0DD52DD52120048C0E6FF49C0DD
:1040A000E6FF4AC0E6FF120042684368446845687C
:1040B000BCEF47F0E552E552E55212008751232646
:1040C00088512422895125228A51262212008B519F
:1040D00027268C5128228D5129228E512A22120006
:1040E000BF0EE66E010E41D9E66A1200E5DC6AEC0D
:1040F0001CF0D0DCCEEF1AF0E8DC6AEC1CF0D3DC6C
:10410000CEEF1AF0010183DC1FEC15F039EC1CF046
:10411000EE50120047C03DF048C03EF049C03FF0AD
:104120004AC040F01200B0EC1BF0F4EC47F030EC69
:104130001CF00F0E1F0B12002F0DF4D0BF55000EF8
:10414000C055000EC155000EC2551200CBEC1AF03E
:104150000F0EE9EF1BF0C8EC1BF0040EF9EF1CF09A
:10416000C8EC1BF0050EDDEF1CF0E66E000EDA2049
:10417000E66E1200CBEC1AF0060EE9EC1BF0EFCF66
:1041800086F11200CBEC1AF0EE52EFCF81F1CBEFBB
:104190001AF0780E476E7D0EC0EC1AF02BEF1EF071
:1041A000640E476E7D0EC0EC1AF034EF1EF063EC27
:1041B0001CF0750EE926000EEA22120063EC1CF0DA
:1041C0006D0EE926000EEA221200B0EC1BF0CAC107
:1041D000F5FFF4EF47F0C0EC1AF0EDEC1BF0F5EF53
:1041E0001EF060EC40F0476E070EE15E4750120093
:1041F0001F0E426E050E436E446A456A120063EC60
:104200001CF003EF1FF039EC1CF0EE50ED10120023
:10421000C0EC1AF0020EE66E1200CF6BD06BD16BC1
:10422000D26B1200BAEC1AF089EF1EF0E552E7CF1C
:10423000D9FF120056EC29F0E5521200C8EC1BF031
:10424000E6521200A9D8070EE9EC1BF0EECF87F179
:10425000EECF88F1EECF89F1EFCF8AF1CBEC1AF0F7
:10426000070E95D832EF1DF0E9DF54DEC70EE66E7B
:10427000010E21DECF0EE66E010E83D0DFDF4ADEB7
:10428000EADEE66AC70EE66E010E7BD014DEDB0EB8
:10429000E66E010E10DEE30EE66E010E0FDEDF6E3F
:1042A000000197511200C0EC1AF0BFC1E6FFC0C177
:1042B000E6FFC1C1E6FFC2C1E6FFC0EF1BF0FBDDB8
:1042C000DB0EE66E010E5EEF1FF06CD8010EE66E9F
:1042D0001200AE6E11388FEF1FF0AE6E10388FEFF8
:1042E0001FF0AE6E0F388FEF1FF0190E5FD82BDE68
:1042F000BCEF47F0BFC142F0C0C143F0C1C144F0C0
:10430000C2C145F01200D9CFE9FFDACFEAFF1200AF
:10431000E66A9BEF1BF0010EE66ED950030F25DF16
:10432000010E1200FA51F324E96EFB51F420EA6EFB
:10433000120011DFEFDD70EF20F0BAEC1CF06AEC38
:104340001CF097EF1FF0010EDBCF47F096DE010166
:104350001200BBEC1BF0EDEF1BF0D7DD5AEF1CF0A9
:10436000E126DF6A010EDB6A1200E66E070EBAEF85
:104370001AF0CB0EE66E010E9EDDD30EE66E010E38
:10438000120099DDD70EE66E010E5BEF1FF0E9EC2F
:104390001BF0040EE9EF1BF0CBEC1AF0EFCF80F12D
:1043A000CBEF1AF0E66E060EBAEF1AF0426E436AD1
:0643B000446A456A120098
:0A43B600D8CFE4FFE0CFE4FFE46E8F
:1043C000DACFE4FFE9CFE4FFEACFE4FFF3CFE4FF85
:1043D000F4CFE4FFE652E1EC35F0A4A641D1A49677
:1043E0000001602B00017F510001605D01E29BD064
:1043F000606B0001FAEC34F0EF6A79907B6A7A6ABC
:1044000000017D2B00017E5100017D5D01E37D6B8C
:1044100077EC36F0EA22EE50ED1001E184D066EC44
:1044200036F0EECF51F0EFCF52F051504F1802E17D
:10443000525050185DE0B6EC35F0EA22EE50ED1027
:1044400051E066EC36F00001EE504F5CE26FEE504A
:104450005058E36FE83422E2E2510008000EE355C1
:104460001DE20001B6EC35F076EC34F0000150505E
:10447000E319E8AE02D0E33504D0E2514F5CE351DA
:1044800050580AE20001B6EC35F087EC35F04F5099
:10449000EE265050ED222CD0000124D0E2C04FF087
:1044A000E3C050F04F6C501E000E50220001B6ECDD
:1044B00035F0EA22EECF51F0EFCF52F052505018C3
:1044C000E8AE02D0503404D04F50515C5050525896
:1044D00009E2B6EC35F087EC35F04F50EE5E505007
:1044E000ED5A06D066EC36F04FC0EEFF50C0EDFF3F
:1044F000FAEC34F0120EEF6EF29E000102EC36F090
:1045000050C04FF0506A4F50B66E02EC36F04F502C
:10451000B56EF00EB4140009B46EF00EB4140909AF
:10452000B46E7980F28E0001000ED8808D55000E99
:104530008E552EE29B2B000E9C238D519B5D8E5140
:104540009C5926E39B6B9C6B030E915D1FE28F5180
:10455000EA6A200FE96E010EEA2280CFEFFF8F5149
:10456000EA6A230FE96E010EEA2281CFEFFF8F5135
:10457000EA6A260FE96E010EEA2282CFEFFF8F2B47
:10458000030E8F5D01E38F6B912B02D08D6B8E6BD1
:10459000000ED8809255000E93551CE2000ED88074
:1045A000A155000EA25516E29D2B000E9E2392519E
:1045B0009D5D93519E590EE39D6B9E6B030E965D20
:1045C00007E2942B030E945D01E3946B962B02D0CB
:1045D000926B936BA151A2110BE0050EA05D07E356
:1045E000C18C9E9C9D8CC280C282A06B01D0A02BEE
:1045F0000101B95101E0B9070001D151D211D31124
:10460000D4110BE0D107000ED25BD35BD45BD15148
:10461000D211D311D41101E18996020EA85D20E1D7
:10462000AB51AC111DE0AB07000EAC5BAB51AC1154
:1046300017E1AD51AE1114E0AD07000EAE5BAD5108
:10464000AE110AE1045003E18D808B8202D08C828E
:104650008982030EA86F04D0E80EAB6F030EAC6F17
:104660009EAC4FD09E9CC1AC07D0C19C010E0001F6
:10467000A36FA46B9F6B2AD0C450516E526E516AC7
:10468000C350000151104F6E52C050F000019F51B5
:10469000E96EEA6AD1EC35F0EA224FC0EEFF50C075
:1046A000EDFF0B0E9F5D0EE19F51E96EEA6AD1ECC2
:1046B00035F076EC34F0A5514F5CA651505802E22B
:1046C000010EA76FD890A337A4379F2B100E9F5DC4
:1046D0000EE2A351A1154F6EA451A215506E4F507A
:1046E000501005E19F2BD890A337A437EFD7100EB9
:1046F0009F5D02E39D9C05D09F51040DF328C26E7F
:10470000C282E552E552E7CFD9FFE552E5CFF4FF8B
:10471000E5CFF3FFE5CFEAFFE5CFE9FFE5CFDAFF2D
:10472000E550E5CFE0FFE5CFD8FF1000D9CFE6FF99
:10473000E1CFD9FF020EE126DE6ADD6AE2CFE4F0C6
:10474000E1CFE5F0E4C047F047C048F0476A000118
:10475000E55100014710E66F48C0E7F0E6C0DEFF14
:10476000E7C0DDFF080EDE26000EDD22D9CFE9FF0F
:10477000DACFEAFFBF0ED880EE540E0EED540BE3F5
:10478000DECFE9FFDDCFEAFFEE0EEF6EDF2A010E8E
:1047900001E3DB2AEBD7020EE15C02E2E16AE552BB
:1047A000E16EE552E7CFD9FF120080EC36F0BF0E84
:1047B000F36E010EF3CFDBFF0E0EF36E020EF3CF9E
:1047C000DBFFF28C010EDBCFE9FF020EDBCFEAFF4D
:1047D000EF50EE0806E1010EDB06020EF3E2DB0607
:1047E000F1D74AEC35F000014750E05D4850E159FF
:1047F00006E2010EDBCFE0F0020EDBCFE1F0F28C3F
:10480000030EE15C02E2E16AE552E16E48EF34F04A
:1048100088EC36F0896A92680001A16BA26B8A6A03
:1048200093688B6A94688C968C9495969594928EE6
:10483000010ED06F976B956B946B966B906B8F6B33
:10484000916B8D6B8E6B926B936B9B6B9C6B9D6B6B
:104850009E6B9F6B76827680769C769A768876962B
:10486000FA0E776EDE6ADD6A0DEC35F0100E475CED
:10487000000E485813E212EC35F0010ED890E936DC
:10488000EA36E806FBE1000EE926010EEA22EE6AAE
:10489000ED6ADF2A010EE8E3DB2AE6D70001CA6BE6
:1048A000CB6BC86BC96BDE6ADD6A19EC36F00AE2C5
:1048B00012EC35F0000EE926020E74EC35F0F5E34B
:1048C000DB2AF3D7DE6ADD6A19EC36F00AE212EC75
:1048D00035F0400EE926020E74EC35F0F5E3DB2AE4
:1048E000F3D7DE6ADD6A0DEC35F0000E475C010E91
:1048F00048580AE212EC35F0000EE926030E74EC7B
:1049000035F0F1E3DB2AEFD70001CC6BCD6BCE6B3A
:10491000CF6B986B996B9A6B0F01498FBE0EC16E6E
:10492000D08E7694A386A596D3EC0DF093EC3FF051
:104930007684E0EC30F00001DC6BDD6BDE6BDF6B6E
:10494000D16BD26BD36BD46B600ED56FEA0ED66F82
:10495000D76BD86B010ED96FE06BE16BA56BA66BC3
:10496000A96BAA6BAB6BAC6BAD6BAE6BA86BA76B9B
:104970009592959092929490929A020EE66EE66AC3
:104980001C0EE66E83EC47F073EC36F0020EE15C31
:1049900002E2E16AE552E16E48EF34F043EC34F0B4
:1049A000050EE12651EC35F05DEC33F0000191513C
:1049B00000080AE274EC2DF00001902B030E905DCC
:1049C00001E1906B9107F2D7965100080AE291EC51
:1049D0002DF00001952B030E955D01E1956B960777
:1049E000F3D7200E0501E76EA819E8AE02D0E73430
:1049F00002D0E750A85D01E2E1D06550020B01E072
:104A0000DDD0400EE66E400EE66E020EE66E15EC50
:104A100042F073EC36F0E76E020EE7CFDBFFDB50BF
:104A2000000870E2030EDB6A020EDB50F36E030E29
:104A300017EC35F067E2030EDB50EA6A400FE96ECF
:104A4000020EEA22040EEFCFDBFF09A805D0DBCF70
:104A5000E6FF92EC48F0E5520101F95119E10D0E23
:104A6000476E040EDB50475C06E00A0E486E040EEB
:104A7000DB50485C0DE1010EF96F000131EC35F0BF
:104A80000D0EEF6ECA2BF7D80001CA6BCB6B2AD084
:104A9000040EDB5008080EE10001CA5100080AE2CA
:104AA000CA0731EC35F0EF6A230E476E7F0E27EC14
:104AB00034F018D0040EDB500D0814E0040EDB5067
:104AC0000A0810E0200EF36E040E17EC35F00AE32E
:104AD000000131EC35F0040EDBCFEFFF0101F96B83
:104AE0000001CA2B0001CA51476E486A000E4718E0
:104AF00006E1010E481803E19787CA6BCB6B030EE2
:104B0000DB2A92D70001975139E097A105D01F0EFB
:104B1000476E7F0EB3EC35F0000197A305D0020E6F
:104B2000476E7F0EB3EC35F0000197A505D0E80E77
:104B3000476E7E0EB3EC35F0000197A705D0CE0E80
:104B4000476E7E0EB3EC35F0000197A905D0B10E8B
:104B5000476E7E0EB3EC35F0000197AD05D0910E97
:104B6000476E7E0EB3EC35F0000197AF05D0790E9D
:104B7000476E7E0EB3EC35F00001976BDD511DE002
:104B8000010E0E1414E0DE5112E15A0E476E7E0E35
:104B900027EC34F0020EE66EDCC047F0486A4CECBD
:104BA00034F031EC34F00001010EDE6F06D0010E5E
:104BB0000E1403E1DE5101E0DE6B37D8050EE15C37
:104BC00002E2E16AE552E16E48EF34F0E1EC35F0E3
:104BD000C8C0DFFFDF2A400E85EC34F001E1DF6A58
:104BE0000001C951DF5C01E120D80001C851EA6A27
:104BF000000FE96E020EEA22FE0EDBCFEFFFC82B9C
:104C0000400EC85D01E1C86BC951C85D01E19785DF
:104C1000FE0EDBCF47F0486A47BE486847C0F3FF47
:104C200048C0F4FFE55248EF34F0E1EC35F0000104
:104C3000C851C95D1DE00501905105E0A1EC42F0AD
:104C400012EC37F0F8D70001C951D880C85507E2F7
:104C5000C951C85DB8EC34F0C8C0C9F007D0400EE7
:104C6000D880C955B8EC34F00001C96BA1EC42F012
:104C7000E55248EF34F043EC34F0090EE126DE6AE9
:104C8000DD6A020EDB6A030EDB6A050EDB6A010ECB
:104C9000F36E060EF3CFDBFF0001DA6BDB6BDF5147
:104CA00001E18ED0060EDB6A040ECAC0DBFFDB50CA
:104CB00003E0040EDB0602D0040EDB68040EEDEC0C
:104CC00034F0EF502C0816E0050EF36EDBCFF4FF46
:104CD000E850F45C0FE2040EDB50CB5D0BE0040EF9
:104CE000DB5003E0040EDB0602D0040EDB68050E89
:104CF000DB2AE4D7040EEDEC34F0EF502C0857E13A
:104D0000070ECBC0DBFF040EDBCFCBF0E66AD95039
:104D1000020F83EC35F0070EDBCFCBF0080ECBC0D3
:104D2000DBFF040EDB50F36E080EDB50F35C18E083
:104D3000080EEDEC34F0030EDBCFE7FFEF50E72673
:104D4000030EE7CFDBFF080EDB2ADB50476E486A15
:104D5000E850E7E1010E4818E4E1080EDB6AE1D70C
:104D6000030EDB1C010FE76E030EE7CFDBFF020E25
:104D7000DB50F36E030EDB50F35C0BE1010EF36EC0
:104D8000060EF3CFDBFF040EEDEC34F00D0EEF6EEC
:104D900017D0340E476E7E0E27EC34F0030E2DEC48
:104DA00035F0A8EC36F0C2EC43F0E55205D00B0E1E
:104DB000476E7E0ED8EC35F073EC36F031EC34F003
:104DC000060EDB5001E14AD2000134EC34F058EC1D
:104DD00035F0F3CFDAF000015BEC34F004E1010EC2
:104DE000481801E1CB6BDA51DE6EDD6A34EC34F049
:104DF0002C0823E034EC34F00D081FE034EC34F0E0
:104E00000A081BE034EC34F058EC35F0F3CFDBF05B
:104E100000015BEC34F004E1010E481801E1CB6BBA
:104E2000DAC04AF0496ADB5100014924476E000E9E
:104E30004A20486E47C0DEFFDD6E000EDFCF3FF038
:104E4000010EDBCF40F0550E3F1802E1510E401825
:104E500001E1D4D14D0E3F1802E1480E401801E1A6
:104E6000CAD1520E3F1802E1530E401801E1C0D1E1
:104E7000520E3F1802E1510E401801E1B6D1420E28
:104E80003F1802E1520E401801E1ACD1540E3F1818
:104E900002E1510E401801E1A2D1540E3F1802E187
:104EA000530E401801E198D1530E3F1802E1430E12
:104EB000401801E18ED1530E3F1802E1510E401807
:104EC00001E184D14D0E3F1802E1580E401801E176
:104ED0007AD1530E3F1802E1450E401801E170D11E
:104EE000430E3F1802E1410E401801E166D14D0E1C
:104EF0003F1802E1510E401801E15CD1320E3F181B
:104F000002E1530E401801E152D1450E3F1802E173
:104F1000530E401801E148D1470E3F1802E1510EEF
:104F2000401801E13ED1430E3F1802E1510E4018F6
:104F300001E134D14B0E3F1802E1430E401801E16C
:104F40002AD14C0E3F1802E1420E401801E120D157
:104F5000440E3F1802E14E0E401801E116D1490EF1
:104F60003F1802E14E0E401801E10CD1420E3F18ED
:104F700002E1510E401801E102D14C0E3F1802E14E
:104F8000510E401801E1F8D04C0E3F1802E1530ECB
:104F9000401801E1EED04E0E3F1802E1510E4018CC
:104FA00001E1E4D04E0E3F1802E1530E401801E13A
:104FB000DAD0430E3F1802E1530E401801E1D0D081
:104FC0004D0E3F1802E1450E401801E1C6D0450ED6
:104FD0003F1802E1510E401801E1BCD0500E3F18BD
:104FE00002E1510E401801E1B2D0500E3F1802E12B
:104FF000540E401801E1A8D0500E3F1802E1530EA4
:10500000401801E19ED04D0E3F1802E1530E4018AA
:1050100001E194D0570E3F1802E14D0E401801E116
:105020008AD0520E3F1802E14D0E401801E180D0A7
:10503000440E3F1802E1500E401801E176D04F0EA9
:105040003F1802E1500E40186DE0490E3F1802E192
:10505000500E401864E0410E3F1801E140505CE002
:10506000560E3F1801E1405054E0490E3F1801E14F
:1050700040504CE04F0E3F1801E1405044E0550EC7
:105080003F1802E1430E40183CE0430E3F1801E197
:10509000405034E0520E3F1801E140502DE04D0EDB
:1050A0003F1802E14C0E401824E0330E3F1802E195
:1050B000540E40181BE0330E3F1802E14C0E40180E
:1050C00012E0540E3F1802E14C0E401809E00001B6
:1050D000DB5101E095D005EC36F00BEC36F0A4D0B6
:1050E000E9EC0FF0A9D095EC0FF0A6D0CDEC0FF0C5
:1050F000A3D067EC0FF0A0D0FCD89ED08EEC2CF0A3
:105100009BD0FED899D03EEC2DF096D074EC2DF0CB
:1051100093D08AEC2DF090D091EC2DF08DD0C9EC8D
:105120002EF08AD03EEC2FF087D02DEC2EF084D0DC
:105130000EEC2EF081D0F3EC2DF07ED005EC12F0C9
:105140007BD0B7EC17F078D093EC17F075D015EC56
:1051500017F072D02EEC17F06FD02CEC18F06CD04A
:10516000A4EC0EF069D08CEC18F066D0AAEC18F024
:1051700063D0BCEC18F060D0D8EC18F05DD0FAEC3D
:1051800018F05AD06AEC18F057D07DEC18F054D0D3
:10519000F2EC2FF051D044EC30F04ED00EEC19F080
:1051A0004BD025EC19F048D057EC19F045D00BEC5A
:1051B00040F042D03FEC1AF03FD024EC2DF03CD030
:1051C000C8EC16F039D070EC14F036D07FEC1AF041
:1051D00033D0B5EC1AF030D023EC31F02DD059ECAF
:1051E00031F02AD0FAEC2FF027D001EC30F024D0A7
:1051F00011EC30F021D09CEC12F01ED0FFDA1CD064
:1052000005EC36F0DBC0E6FFE1DCE5520BEC36F0F6
:1052100057EC36F0DAC0E6FF8BEC35F01FEC36F0D9
:10522000020EE66EDBC047F0486A4CEC34F0270E05
:1052300051EC34F031EC34F0000134EC34F00D0872
:105240000DE097510BE1520E476E486ADF50471848
:1052500003E1DE52DD50481801E0978FCAC0CBF061
:10526000090EE15C02E2E16AE552E16E48EF34F0DA
:10527000E1EC35F02C0EDF6E010E0101BE1503E1ED
:10528000FE0EDB5010E039EC35F00001DB5104E09C
:10529000DBC0E6FF9BDCE552FD0EDB5004E0DFCF18
:1052A000E6FF94DCE552E55248EF34F043EC34F08D
:1052B0000101BEA104D0EF0E476E7D0E16D0000195
:1052C000D05108E0FE0EDB5005E1EC0E476E7D0E7E
:1052D00027EC34F0FE0EDB50020804E1E90E476EC5
:1052E0007D0E03D0E60E476E7D0E27EC34F048EFBE
:1052F00034F08CEC36F07CEC34F097DC08EF24F0E2
:10530000D9CFE6FFE1CFD9FF030EE126E66AE66AD0
:10531000AFDFE552E552E66AD9CFE6FFDACFE6FF26
:10532000010EE66EB4EC31F0E552E552E552E5527D
:10533000E66AD950010FE66E000EDA20E66E020E24
:10534000E66EB4EC31F0E552E552E552E55200016B
:10535000975101E049D2DF041AE1D950010FE96EFB
:10536000DACFEAFFEE50ED100BE0010E476E486A0F
:10537000010EDB50471803E1020EDB50481804E130
:10538000010EDBCFD0F002D00001978D2AD2020EA1
:10539000476EDF50475C1AE1D950010FE96EDACF52
:1053A000EAFFEE50ED100BE0010E476E486A010E69
:1053B000DB50471803E1020EDB50481804E1010EF0
:1053C000DBCFBDF102D00001978D0BD2030E476EEB
:1053D000DF50475C1CE1D950010FE96EDACFEAFFDC
:1053E000EE50ED1003E106908C9410D0010E476E44
:1053F000486A010EDB50471803E1020EDB504818E3
:1054000003E106808C9402D00001978DEAD1040E4E
:10541000476EDF50475C1DE1010EDBCF47F0020E07
:10542000DBCF48F0483404E247502008000E4854CF
:1054300007E2200EF36E010EF3CFDBFF020EDB6AF4
:10544000FAEC19F0000901E0FBD7010EDB50186EF1
:10545000C8D10A0E476EDF50475C1CE1D950010FDE
:10546000E96EDACFEAFFEE50ED1003E10101BE91E3
:1054700010D0010E476E486A010EDB50471803E159
:10548000020EDB50481803E10101BE8102D0000189
:10549000978DA7D1320E476EDF50475C0FE1D95090
:1054A000010FE96EDACFEAFFEE50ED1003E10001E3
:1054B000D96B03D00001010ED96F93D1330E476E23
:1054C000DF50475C11E1FF0EE76E010EDBCF47F0C6
:1054D000020EDBCF48F0E7504716486A47500C6E83
:1054E0000C5001E10E907DD1340E476EDF50475CC9
:1054F0000EE1FF0EE76E010EDBCF47F0020EDBCFB1
:1055000048F0E7504716486A47500D6E6AD1350E8D
:10551000476EDF50475C14E1010E476E486A010E8A
:10552000DB50471803E1020EDB50481804E100018C
:10553000010EDD6F04D00001DD6B0001DE6B51D187
:10554000360E476EDF50475C12E1010E476E486A27
:10555000010EDB50471803E1020EDB50481804E14E
:105560000001010EDF6F02D00001DF6B3AD13C0E6B
:10557000476EDF50475C0DE1010EDBCFA5F0020E58
:10558000DBCFA6F0FF0E0001A517030E0001A61742
:1055900028D13D0E476EDF50475C37E1F29EF29C0A
:1055A000010EDBCFA9F0020EDBCFAAF00001A9515A
:1055B000AA1109E10001A86B0001AB6BAC6B000103
:1055C000AD6BAE6B1FD00001A851030A14E0020AB4
:1055D0000FE0010A0DE0020A01E00AD0A9C0ADF017
:1055E000AAC0AEF00001E80EAB6F030EAC6F0AD09C
:1055F0000001010EA86F0001AB6BAC6B0001AD6B3D
:10560000AE6B00D0F28CF28EECD0FA0E476EDF500B
:10561000475C1FE1D950010FE96EDACFEAFFEE5087
:10562000ED1002E1099214D0010E476E486A010E96
:10563000DB50471803E1020EDB50481807E10982EE
:105640009592959092929490929A02D00001978DA3
:10565000C8D0FB0E476EDF50475C26E1D950010FE2
:10566000E96EDACFEAFFEE50ED1003E109960994F6
:105670001AD0010E476E486A010EDB50471803E14D
:10568000020EDB5048180DE109840996020EE66E01
:10569000E66A1C0EE66E83EC47F0E552E552E552F1
:1056A00002D00001978D9DD0FC0E476EDF50475C05
:1056B00026E1D950010FE96EDACFEAFFEE50ED1086
:1056C00003E1099609941AD0010E476E486A010E4B
:1056D000DB50471803E1020EDB5048180DE1098644
:1056E0000984020EE66EE66A1C0EE66E83EC47F055
:1056F000E552E552E55202D00001978D72D0FD0EC1
:10570000476EDF50475C24E1D950010FE96EDACFD4
:10571000EAFFEE50ED1002E1099819D0010E476E34
:10572000486A010EDB50471803E1020EDB504818AF
:105730000CE10988020EE66EE66A1C0EE66E83EC4A
:1057400047F0E552E552E55202D00001978D49D06D
:10575000FE0E476EDF50475C1AE1098295929590E4
:1057600092928C908C808C908C808C908C808C9081
:105770008C808C908C808C908C808C908C808C9089
:105780008C808C908C808C908C80EBD72AD0476852
:10579000DF50475C24E1D950010FE96EDACFEAFF10
:1057A000EE50ED1002E1099A19D0010E476E486AD9
:1057B000010EDB50471803E1020EDB5048180CE1E4
:1057C000098A020EE66EE66A1C0EE66E83EC47F06E
:1057D000E552E552E55202D00001978D02D000015A
:1057E000978DE66A63DDE552030EE15C02E2E16A51
:1057F000E552E16EE552E7CFD9FF1200E1EC35F05A
:10580000F4EC35F0010E2DEC34F00001975101E07D
:1058100082D0DF0408E17EEC35F0020EE66EDCC0DB
:1058200047F0486A20D0020E85EC34F008E17EECA7
:1058300035F0200EE66EE66AE66AE66A44D0030EAC
:1058400085EC34F006E17EEC35F01850AEEC34F027
:1058500038D0040E85EC34F009E1D5EC23F07EEC71
:1058600035F05FEC35F04CEC34F04FD0050E85ECA4
:1058700034F00EE17EEC35F05FEC35F04CEC34F0BA
:1058800031EC34F0F29C0001E06BE16BF28C41D022
:105890003C0E85EC34F007E17EEC35F0A5C047F016
:1058A000A6C048F00AD03D0E85EC34F00FE17EEC46
:1058B00035F0A9C047F0AAC048F0496A4A6A47C013
:1058C000E6FF8BEC35F06FEC36F01FD0C80E85ECA0
:1058D00034F01EE17EEC35F0F29E23C0E6FF24C0DA
:1058E000E6FF25C0E6FF26C0E6FF6FEC36F02C0E83
:1058F00051EC34F027C0E6FF28C0E6FF29C0E6FFE0
:105900002AC0E6FF6FEC36F0F28E31EC34F001D0B5
:10591000978D7CEC34F0E55248EF34F043EC34F0F2
:10592000050E92EC35F0010E5BEC36F05FEC36F0D4
:10593000E66AD950030F83EC35F0E66AD950040FBC
:105940009AEC36F010E1DF50926E010EDB50936E50
:10595000020EDB50946E030EDB50956E040EDB508E
:10596000966E7CEC34F0050EE15C02E2E16AE552F1
:10597000E16E48EF34F043EC34F0FE0EDB501008DB
:1059800005E2100EF36EFE0EF3CFDBFFFD0EDB50D3
:105990002BE0FE0EDB50DBEC48F0F3500001A113CE
:1059A000F450A213080EF36EFE0E17EC35F00DE264
:1059B000010EF36EFE0EDB5003E072EC34F0FDE1FD
:1059C000F350F31C0F0148173DD0FE0EDB500C08BE
:1059D00039E366EC35F004E0E846FE0B4706FCE1EF
:1059E000E81C0F0149172ED0FE0EDB50DBEC48F00F
:1059F000F3CF47F0F4CF48F0471E481E4750000150
:105A0000A1174850A217080EF36EFE0E17EC35F0E2
:105A10000CE2010EF36EFE0EDB5003E072EC34F08C
:105A2000FDE1F3500F0148130DD0FE0EDB500C08C2
:105A300009E366EC35F004E0E846FE0B4706FCE1BE
:105A40000F01491348EF34F09EEC36F05BEC36F072
:105A5000010F9AEC36F00AE1010EDBCFE6FFDFCF53
:105A6000E6FF89DFE552E5527CEC34F0020EE15CA2
:105A700002E2E16AE552E16E48EF34F09EEC36F066
:105A80002DEC34F0C9EC34F027E1010EDB5002E1DB
:105A9000DF50896EAAEC35F01FE1010EDB5002E108
:105AA000DF508A6EAAEC35F017E1010EDB5002E1FF
:105AB000DF508B6EAAEC35F00FE1010EDB5002E1F6
:105AC000DF508C6EAAEC35F007E1010EDB5002E1ED
:105AD000DF508D6E7CEC34F0020EE15C02E2E16A94
:105AE000E552E16E48EF34F0010EE66EE66EC1EC71
:105AF00035F08050AFEC35F08150AFEC35F082508E
:105B0000AFEC35F08350AFEC35F0845090EC36F0CC
:105B100031EF34F008EC35F02A0E476E8D0EB3EFFE
:105B200035F080EC36F0DF6A010EF36EDB6E020EAC
:105B3000DB6AE66A010EE66EC1EC35F09DBCFED76D
:105B4000DF6ADFCF47F0100EE76E4718E8AE02D0ED
:105B5000E73402D0E750475C3BE2010EDB50000126
:105B6000A1150001476E020EDB500001A2150001D5
:105B7000486E475048101FE02C0E51EC34F06EEC8C
:105B800034F047AE03D0486849684A6884EC36F080
:105B90003A0E51EC34F0DFCFE9FFEA6AE9BEEA6879
:105BA000D1EC35F0EA22EECF47F0EFCF48F0496A6A
:105BB0004A6A84EC36F04AEC35F0D89047364836DD
:105BC000010E47C0DBFF020E48C0DBFFDF2AB9D75A
:105BD000020E44EC36F0030EE15C02E2E16AE552AB
:105BE000E16E48EF34F07CEC36F0030E5BEC36F0FF
:105BF000020F9AEC36F00AE126EC36F005E212ECE0
:105C000035F0020EDBCFEFFF7CEC34F0030EE15CED
:105C100002E2E16AE552E16E48EF34F080EC36F0E2
:105C2000F4EC35F0030E2DEC34F0000197510DE14A
:105C300026EC36F005E212EC35F0020EEFCFDBFF7A
:105C4000020E2DEC35F09AEC35F0030EE15C02E229
:105C5000E16AE552E16E48EF34F093EC36F001E092
:105C600090D0020EDB50010801E287D0010EDB501C
:105C7000070801E282D0410E85EC34F016E1020EF5
:105C8000DB500AE181EC34F003E072EC34F0FDE12A
:105C9000F350F31C921673D081EC34F003E072ECF5
:105CA00034F0FDE1F35092126AD0420E85EC34F0EC
:105CB00016E1020EDB500AE181EC34F003E072ECF5
:105CC00034F0FDE1F350F31C931659D081EC34F01D
:105CD00003E072EC34F0FDE1F350931250D0430E28
:105CE00085EC34F016E1020EDB500AE181EC34F071
:105CF00003E072EC34F0FDE1F350F31C94163FD056
:105D000081EC34F003E072EC34F0FDE1F3509412D6
:105D100036D0440E85EC34F016E1020EDB500AE179
:105D200081EC34F003E072EC34F0FDE1F350F31C4D
:105D3000951625D081EC34F003E072EC34F0FDE1EF
:105D4000F35095121CD0450E85EC34F016E1020E8E
:105D5000DB500AE181EC34F003E072EC34F0FDE159
:105D6000F350F31C96160BD081EC34F003E072EC88
:105D700034F0FDE1F350961202D0978D02D07CEC06
:105D800034F0030EE15C02E2E16AE552E16E48EFB5
:105D900034F080EC36F0020EDB6AF4EC35F0050EE0
:105DA0005BEC36F0010F9AEC36F060E1010EDB504F
:105DB000070850E3410E85EC34F00AE181EC34F041
:105DC00003E072EC34F0FDE1F350801439E029D0A7
:105DD000420E85EC34F00AE181EC34F003E072EC21
:105DE00034F0FDE1F35081141CE12AD0430E85EC20
:105DF00034F00AE181EC34F003E072EC34F0FDE1C0
:105E0000F35082140EE11CD0440E85EC34F00BE10B
:105E100081EC34F003E072EC34F0FDE1F3508314D4
:105E20000FE0010E10D0450E85EC34F013E181EC4B
:105E300034F003E072EC34F0FDE1F350841402E13D
:105E4000000E01D0010EE76E020EE7CFDBFFDB5044
:105E500008E002D0978D0AD0010EF36E020EF3CF48
:105E6000DBFF020E2DEC35F09AEC35F0030EE15C11
:105E700002E2E16AE552E16E48EF34F093EC36F06D
:105E800001E090D0020EDB50010801E287D0010E44
:105E9000DB50070801E282D0410E85EC34F016E1B8
:105EA000020EDB500AE181EC34F003E072EC34F0D6
:105EB000FDE1F350F31C891673D081EC34F003E05C
:105EC00072EC34F0FDE1F35089126AD0420E85EC99
:105ED00034F016E1020EDB500AE181EC34F003E00D
:105EE00072EC34F0FDE1F350F31C8A1659D081ECCA
:105EF00034F003E072EC34F0FDE1F3508A1250D03C
:105F0000430E85EC34F016E1020EDB500AE181EC21
:105F100034F003E072EC34F0FDE1F350F31C8B1627
:105F20003FD081EC34F003E072EC34F0FDE1F3504B
:105F30008B1236D0440E85EC34F016E1020EDB50A5
:105F40000AE181EC34F003E072EC34F0FDE1F3504F
:105F5000F31C8C1625D081EC34F003E072EC34F0A5
:105F6000FDE1F3508C121CD0450E85EC34F016E1A7
:105F7000020EDB500AE181EC34F003E072EC34F005
:105F8000FDE1F350F31C8D160BD081EC34F003E0EF
:105F900072EC34F0FDE1F3508D1202D0978D02D0F7
:105FA0007CEC34F0030EE15C02E2E16AE552E16E62
:105FB00048EF34F0D9CFE6FFE1CFD9FFE652DF6AF0
:105FC000FF0EDF5C0AE2E868E85005E0E80600D072
:105FD00000D000D0F9D7DF2AF3D7E552E552E7CF5A
:105FE000D9FF1200F29EF29C6592656AE3DF0FEF23
:105FF00000F01200F29EF29C6592656ADBDFFF0002
:10600000120008EC35F08050080B01E0010E90EC16
:1060100036F00101BEB103D0020E44EC36F07CEF45
:1060200034F043EC34F0060E92EC35F0070E2DEC14
:1060300034F0010EE66ED950040F83EC35F0E76EB4
:10604000050EE7CFDBFF0001975116E1DFCFD5F05A
:10605000010EDBCFD6F0020EDBCFD7F0030EDBCF85
:10606000D8F0050EDB5006E1040EDB5002E0898615
:1060700001D089967CEC34F0060EE15C02E2E16A24
:10608000E552E16E48EF34F043EC34F0100EE126B7
:106090008CEC36F0E6DBE66AD950010F56EC34F0B2
:1060A000E66A62D997EC35F0E66A49EC36F0010E03
:1060B0005BEC36F0040F56EC34F0020E5BEC36F07D
:1060C000020F56EC34F0030E5BEC36F00A0FEEDBF9
:1060D000060E5BEC36F0060FE9DB070E5BEC36F0E4
:1060E0000E0FE4DB040E5BEC36F00F0FDFDB050E6A
:1060F000B4DBDE0E476E7D0EAADB010E2DEC35F013
:1061000047AE03D0486849684A686CEC36F0D60E52
:10611000476E7D0E9CDBE2DB9AEC35F0CE0E476ECF
:106120007D0E95DB040EDBCF47F0050EDBCF48F08C
:10613000496A4A6A48AE02D049684A686CEC36F04F
:10614000C60E476E7D0E83DB020EDBCF47F0030EDB
:10615000DBCF48F0496A4A6A9AEC35F0BE0E476ECA
:106160007D0E75DBD9500A0FADDBA3EC36F0F9ECF0
:1061700035F0D950060FA6DB6FEC36F072DBAE0EB1
:10618000476E7D0E64DB0E0E12EC36F0A60E476EE7
:106190007D0E5DDB0F0E12EC36F0F9EC35F0080EDB
:1061A000E66EC6EC35F0F9EC35F0E66AC6EC35F093
:1061B000A3DB100EE15C02E2E16AE552E16E68D316
:1061C000E1EC35F0DF6A110EDF5C04E2B7DBEF6A69
:1061D000DF2AF9D72CEC36F0DF6A100EDF5C21E203
:1061E000ADDBEF5080081DE3A9DBEFCF47F0200EB9
:1061F000475C17E3A3DBEF50E66E180E0201486A16
:10620000FA25476EFB5121EC35F098DBEF50E66E36
:10621000020E486AFC25476EFD5121EC35F0DF2A5D
:10622000DCD7DF50E824180FFAC2E9FFFBC2EAFF0F
:10623000EF6EDF50E824020FFCC2E9FFFDC2EAFF67
:10624000EF6EE55225D388EC36F0DF6A8CEC36F041
:10625000010EDB6A110EF36E010EE9DB0BE2010E9B
:10626000DB50EA6AE80FE96E000EEA22EF6A010EDF
:10627000DB2AF0D7100EE66E4EEC36F03AD873EC0F
:1062800036F0DF6EE668FB0EE66EE66A31EC36F05D
:1062900019EC46F045EC35F04CDB83EC44F045EC72
:1062A00035F02ADB020EE15C02E2E16AE552E16EC2
:1062B000EFD2E1EC35F0ACDBDF6A110EDF5C04E21B
:1062C0003DDBEF6ADF2AF9D72CEC36F0800E0001B7
:1062D000E85D09E2E851200806E24EEC36F07CEC7D
:1062E00043F0E552E5520101BEA1BBDA05DBE55200
:1062F000CFD2E1EC35F0DF6A53DBEF6A38EC36F0F1
:1063000002E1978905D0B0DA2C0804E09DEC35F065
:10631000000E28D0D0DA04E1010E481801E1CB6B61
:106320000D0E53EC36F009E02C0E486E9DDA485CF9
:1063300004E0FC0EDB50DF5C02E3DF5013D094DAA4
:10634000E66E2EDBE552E750EF6EB5DA04E1010EA2
:10635000481801E1CB6BDF2AFD0EDB2AFE0EE0E3DD
:10636000DB2ADED7E55294D28EDA090EE126080E3A
:10637000DB6A38EC36F005E1FB0EDB5019E197895A
:1063800017D072DA2C0806E0FB0EDB5001E1D5DBFA
:10639000020E1AD190DA04E1010E481801E1CB6B2C
:1063A0000D0E53EC36F006E1FB0EDB5001E1978950
:1063B000030E0AD12D0E53EC36F020E1040E54DB0F
:1063C0001DE0050E496EFE0EDB50495C17E0FE0E27
:1063D000DB0401E1C0D0030E2FDB01E1BCD0070ECE
:1063E00043DB01E1B8D0010EF36E080EF3CFDBFF03
:1063F00062DA04E1010E481801E1CB6B040E1CDBEC
:1064000009E0050E31DB06E00A0EF1DAE6D873EC9E
:1064100036F031D0CB51AFDBEFCF47F0000E47C0A5
:10642000DFFF3FDB050E08DB1FE1000EDFCFE6FFDD
:10643000010EDBCFE6FFA9EC48F0E552E552F3CFC1
:1064400047F0F4CF48F0496A4A6A48AE02D049683A
:106450004A6847C0DFFF010E48C0DBFF020E49C09B
:10646000DBFF030E4AC0DBFF000125DA04E1010E69
:10647000481801E1CB6B080EDB5040E0FE0EDB500C
:1064800006E151DA800E6EDA000EEE5412E3020ECF
:10649000D3DA06E148DA000EEE54800E63DA09E33F
:1064A000060EE2DA08E13FDA000E5CDA800EEE5406
:1064B00002E2000150D07BDA080EDB5053E0040EFC
:1064C000DBCF3DF0050EDBCF3EF0060EDBCF3FF01D
:1064D000070EDBCF40F04268436844684568BCEC77
:1064E00047F0040E39C0DBFF050E3AC0DBFF060E95
:1064F0003BC0DBFF070E3CC0DBFF34D0FE0EDB50A1
:1065000006E111DA7F0EEE54000E2CDA23E3FE0EC4
:10651000DB0404E173DB000E25DA1CE3020E8CDAE7
:1065200004E16CDB7F0E1EDA15E3030E9DDA04E155
:1065300065DBFF0E17DA0EE3060E496EFE0EDB502A
:10654000495C0CE15BDBFF0EEE54FF0EEE547F0E58
:10655000EE5404E20001978D010E36D0070E6CDA7E
:1065600001E025DAFE0EDB50070A21E0010A17E000
:10657000050A11E0010A0FE0030A08E0050A06E037
:10658000010A04E0050A02E0040E1ED029DA040E16
:10659000DBCFEFFF18D072DBDBCFEDFF14D06EDB6B
:1065A000DBCFEEFF060EDBCFEEFF070E0AD018DAC8
:1065B000DFCFEEFF010EDBCFEEFF020EDBCFEEFFF3
:1065C000030EDBCFEEFF000E476E090EE15C02E228
:1065D000E16AE552E16E47505BD19ADBE1D9EE6AA0
:1065E000EE6AEE6AEE6A010EDB6AFC0EDB50F36EB9
:1065F000010E1DDA4FE20001CB51BDDAEFCFDFFF14
:10660000300EDF5C42E3DF5039083FE3C9D9EECFFB
:1066100047F0EECF48F0EECF49F0EFCF4AF00A0E48
:10662000426E436A446A456A47C03DF048C03EF046
:1066300049C03FF04AC040F0BCEC47F039C047F0D9
:106640003AC048F03BC049F03CC04AF0300EDF5C35
:106650004B6E4C6A4D6A4E6AE85047264C504822B1
:106660004D5049224E504A229BD947C0EEFF48C0A8
:10667000EEFF49C0EEFF4AC0EEFF00011CD907E162
:10668000010E481804E1CB6B02D0000E04D0010EBD
:10669000DB2AABD7010E476E020EE15C02E2E16A33
:1066A000E552E16E4750F4D07C0E476E7D0ECFD898
:1066B00091C047F0FCDA9AEF35F00501A85108E0E7
:1066C000010E476E6550020B01E0010E475C17E1B9
:1066D000D6D90BE1FD51FE1111E18C86A00EFD6FA4
:1066E0000F0EFE6F010EFF6F1200FD51FE1152E101
:1066F0008C96A00EFD6F0F0EFE6FFF6B1200A805AB
:1067000009E0020EA85D06E0040EA85D03E0100E8D
:10671000A85D17E1B4D90BE1FD51FE1111E18C86A2
:10672000200EFD6F4E0EFE6F010EFF6F1200FD5129
:10673000FE1130E18C96200EFD6F4E0EFE6FFF6B4A
:106740001200200EA85D26E19AD907E1FD51FE1145
:1067500021E18C86CED9010E15D0FF0507E1FD5150
:10676000FE1118E18C96C5D9020E0CD0020EFF5D09
:106770000BE1FD51FE110EE18C86A00EFD6F860E21
:10678000FE6F030EFF6F1200FD51FE1103E18C96A8
:10679000B0D9FF6B120077D8A0D9E8AE02D0473449
:1067A00003D0E750D880475423E3FD0EDB5010E0C0
:1067B0000FD9F6BEF768ADD804E0E846FE0B4806F0
:1067C000FCE1476E05D9F6BEF768FED9EF1210D08E
:1067D000FFD8F6BEF7689DD804E0E846FE0B4806F1
:1067E000FCE1E81C476EF4D8F6BEF768EDD9EF1669
:1067F0004FD049D872D9E8AE02D0473403D0E75021
:10680000D880475423E3FD0EDB5011E1E1D8F6BEFA
:10681000F7687FD804E0E846FE0B4806FCE1E81C78
:10682000476ED6D8F6BEF768D7D9EF160FD0D0D8B6
:10683000F6BEF7686ED804E0E846FE0B4806FCE1B9
:10684000476EC6D8F6BEF768C7D9EF1221D0B0D9C7
:1068500073EF36F060D96FEF36F0E66E85DD97EFB7
:1068600035F0010E44EF36F0CB5185D9EF501200D0
:1068700088D9E66A49EF36F07D51E96EEA6AD89028
:10688000E936EA361200D9CFE6FFE1CFD9FF120090
:10689000E552E7CFD9FF1200496A4A6A59DA1FEF79
:1068A00036F0E66EE6EC25F0E5521200E66E000EDC
:1068B000DA20E66E1200CB2BCB51476E486A000EF1
:1068C00047181200E96EDACFEAFFEECFE6FFEECF0F
:1068D000E6FFEECFE6FFEFCFE6FF1200DFCF47F097
:1068E00057EF36F0D890F336E8061200EA22EECFE2
:1068F0004FF0EFCF50F01200E66A56EC29F0E55267
:106900001200010EF36EDB501200476EDF50475C41
:106910001200BD0EF6268D0EF7220800F550486EC7
:10692000010E48521200D9CFE9FFDACFEAFFD88032
:106930001200B4D9100EE66E31EF36F0DF50EA6A7D
:10694000E80FE96E000EEA221200F7220900F5CFE7
:10695000E9FF0800F5CFEAFF47501200476EA7D9BC
:10696000E66E1200EE54000EEE54000EEE541200CD
:10697000DF6EDFCFE6FFC951486A000F476E020E97
:10698000482247C0E6FF48C0E6FF54EC42F073EFF0
:1069900036F0E76E010EE7CFDBFF000197511200E2
:1069A000FD0EDBCFE9FFFE0EDBCFEAFF1200D9CFF1
:1069B000E9FFDACFEAFF040EEECFDBFF050EEECFE4
:1069C000DBFF060EEECFDBFF070EEECFDBFF120084
:1069D000FE0EDBCFF6FFF76A1200DB50BBEF35F09F
:1069E000FC0EDBCFE9FFFD0EDBCFEAFF1200E66E07
:1069F00049EF36F07D51EA6A690FE96E000EEA222E
:106A0000EF500001EA6A8025E96E8151EA22120006
:106A1000010EE66EE66AC1EF35F0DECF47F0DDCF5E
:106A200048F01200DECFE9FFDDCFEAFF1200DBCF36
:106A3000F4FFF350F45C1200476EFE0EDB50475C2F
:106A400012004822DF50E8244724E96E000E482057
:106A5000EA6EE552E750EF6E1200DBCF47F057EFDA
:106A600036F0CA51BBEF35F0486EFE0EDB50485C85
:106A70001200DAC0E6FFE6EC25F0E5521200010153
:106A8000FD07000EFE5BFF511200476E080EE15E2F
:106A900047501200010EDBCF47F0020EDBCF48F06B
:106AA0001200010EDB6A020EDB6A030EDB6A1200C3
:106AB000E66EE66AA9EC48F0E552E5521200030ED4
:106AC000E66EE0C047F0E1C048F01200FE0EDB5079
:106AD000F80F476E010E47521200FE0EDBCF47F053
