:060000002AEF06F01200D9
:0600080004EF08F01200F5
:100018000CEF08F012001DEE00F02DEE00F0F86A6B
:0600280046EF06F0120095
:1000300001001C0E0000E6000000020000003E0E61
:10004000006E016AFC0E026E036A046A07680868A3
:100050000968066A1200D9CFE6FFE1CFD9FFE65260
:1000600004501EE1040108BF1AD0400EE66E600E77
:10007000E66E000EE66E34EC05F0E552E552E55210
:10008000010E046EDF6A400EDF5C09E2DF50EA6AAF
:10009000A00FE96E000EEA22EF6ADF2AF4D717D12B
:1000A00000016051080A01E10DD10F0A01E1D3D02E
:1000B000010A01E1CAD0030A67E0010A58E0070A11
:1000C00044E0010A01E003D10001020EA06F00012B
:1000D0003A0EA16F0001010EA26F0001010EA36F85
:1000E0000001A46B100EA56FA66BA76B01C0A8F052
:1000F00002C0A9F003C0AAF0100E0001A95F000E13
:100100000001AA5B0001AB6B0001030EAC6F0001A4
:10011000F80EAD6FAE69AF6BB06B0001080EB16F3A
:10012000B26BB36BB46B0001B56904010CBF0CD0AA
:10013000400EE66EA00EE66E000EE66E04EC05F0D4
:10014000E552E552E552046AC2D00001615107E16F
:100150003F0E006EF80E016E0268036A06D03E0E76
:10016000006E016AFC0E026E036A046AB0D0040ECF
:10017000056E0028055C06E20400AED894EC05F09C
:10018000052AF7D7046AA3D0E868071805E1E868EC
:10019000081802E1E868091806E161C007F062C0CA
:1001A00008F063C009F007500001611908E1085028
:1001B0000001621904E109500001631900E143E103
:1001C000DF6A00016551DF5C3EE2000E075C100E45
:1001D0000858000E09582CE30028596E5A6A0A0E76
:1001E000D89059365A36E806FBE15B6A5ABE5B681E
:1001F0005950075C5A5008585B50095819E23A0E9A
:100200000001D8806555DF24EA6A660FE96E000EAA
:10021000EA22EF50E66E0650E96EEA6AE9BEEA6845
:100220000A0EE926000EEA22E552E750EF6E062A92
:10023000072A000E0822000E09223A0E065C01E190
:100240005ED8DF2ABED7046A42D059D8076808684A
:100250000968046A3CD00001070EA06F61C0A1F0DC
:1002600062C0A2F063C0A3F064C0A4F065C0A5F0B2
:1002700061C0F6FF62C0F7FF63C0F8FFDF6A0001EC
:100280006551DF5C0FE209003A0E0001D880655528
:10029000DF24EA6AA60FE96E000EEA22F5CFEFFF2F
:1002A000DF2AEDD704010CBF0CD0400EE66EA00E85
:1002B000E66E000EE66E04EC05F0E552E552E552FE
:1002C000046A05D06592656A68D8FF0000D0E552DF
:1002D000E552E7CFD9FF1200F66A0550F76EF86ACB
:1002E000D890F736F836F736F836140EA66EF29E2A
:1002F000550EA76EAA0EA76EA682A6941200D9CF9D
:10030000E6FFE1CFD9FFE652DF6A000EE76E06187E
:10031000E8AE02D0063403D0E750D880065436E267
:100320000650596E5A6A5B6A59AE02D05A685B68C9
:100330005950075CF66E5A500858F76E5B500958D2
:10034000F86EDF50EA6A0A0FE96E000EEA22EF50FB
:10035000F56E0D00DF2A0606065009E0DF50EA6A56
:100360000A0FE96E000EEA22EF50F56E01D0F56833
:100370000C00DF2A240EA66EF29E550EA76EAA0E62
:10038000A76EA682065001E00606BFD7A694066AAD
:10039000E552E552E7CFD9FF1200D9CFE6FFE1CF12
:1003A000D9FFE652DF6AFF0EDF5C0AE2E868E85038
:1003B00005E0E80600D000D000D0F9D7DF2AF3D757
:1003C000E552E552E7CFD9FF12005FD9E6526450FB
:1003D00032E16296040100513C0BE842E8420D080C
:1003E00028E1180E021923E1040E031920E1100E72
:1003F000026F040E036FDF6ADF50596E5A6A080EEF
:10040000595C000E5A5813E2DF50EA6A180FE96E81
:10041000040EEA22EF50E66EDF50EA6A100FE96E32
:10042000040EEA22E552E750EF6EDF2AE5D70ED838
:100430000AD03DD808D0040E645C03E162964DD822
:1004400002D0000E01D0010EE55224D11ED9E65291
:10045000040104BF046B536A4F6A506A516A526ABE
:1004600055EC03F0DF6ADF50596E5A6A010E595C91
:10047000000E5A5819E2505017E1F76ADF34FE0BAC
:10048000F736F66EFA0EF6260D0EF7220900F5CFB6
:1004900059F00800F5CF5AF004D05AC0FAFF59506D
:1004A000F96EFBDFDF2ADFD79ED8E552F3D0020ECC
:1004B0004F5C0EE176D80401180E026F040E036F34
:1004C000080E016F00BD02D0C80E05D0880E03D003
:1004D000BCD8CCD88C0E006F1200040E555C0AE11B
:1004E00012C438FF0F013851000802E2050E01D096
:1004F000030E556E4F040FE110D8020E535C03E15A
:100500000401840E06D0040104BD02D0C80E01D03F
:10051000880E046F120025EF03F0B7D8020EE12613
:10052000080E515C000E52580DE251C0DEFF52C061
:10053000DDFF535002E1010E03D0530406E1020E29
:10054000536E03D0080EDE6EDD6A0401049304913D
:10055000010EDB500413DFCF05F4DE50515EDD5099
:10056000525A0001180EE26F040EE36F56A20CD02F
:1005700085D810E0E0C0F6FFE1C0F7FF0800F550B5
:1005800068D8F6E2DB06F4D779D804E087D8FCE235
:10059000DB06FAD7020EE15C02E2E16AE552E16EA7
:1005A00079D073D8020EE126030E04010015E76E20
:1005B000010EE7CFDBFF01C4DFFFDE505126DD5027
:1005C00052220001180EE06F040EE16F57D804E0CC
:1005D00065D8FCE2DB06FAD7020EE15C02E2E16AD2
:1005E000E552E16E57D06598505005E13FD8840E32
:1005F000006F040118D0040110AF17D05150165DE0
:100600005250175904E216C451F017C452F085DF56
:10061000010E4F6E2BD8800E006F0401180E066F6E
:10062000040E076FC80E046F1200020E4F6E040115
:10063000056BC80E046F0401080E016F180E026FDF
:10064000040E036FC80E006F12004F6A0401046BA2
:100650001200E2C0E9FFE3C0EAFFEF6EE22B000EFA
:10066000E323E02BE123DF06010E12000401080E54
:10067000016F100E026F040E036F1200D9CFE9FF55
:10068000DACFEAFFEE50ED101200D9CFE6FFE1CF4E
:10069000D9FF1200E552E7CFD9FF1200E0C0E9FF11
:1006A000E1C0EAFFEF5029EF03F004011051600BA5
:1006B000E842E842E842E842E842000901E012006C
:1006C0001151070A43E00B0A41E0070A34E0010A2E
:1006D00024E00B0A20E0020A1EE0030A1AE0080ADE
:1006E00010E0010A0CE00F0A08E0030A01E0120022
:1006F000010E506E040E556E1200A7EF03F0DDEFF1
:1007000003F0010E506E0001570EE06F000EE16F16
:100710000ED0F7EF03F025EF04F0010E506E1451E8
:100720000001E06FE16B580EE027000EE1235692C6
:10073000010E516E1200010E506E1451EA6A580FEC
:10074000E96E000EEA2212C4EFFF12001200800EC2
:100750000401105D31E11351030A20E0010A0BE0AE
:10076000030A29E1010E506E00013A0EE06F0D0EF2
:10077000E16F120E1ED0AAD8F00EF6260D0EB8D8D4
:10078000020E0001F76AE025F66EE151F72209003A
:10079000F5CF51F00A00F5CF52F00DD097D8F40EF6
:1007A000F6260D0EA5D8E0C0F6FFE1C0F7FF080061
:1007B000F550516E526A56821200010E506E0F0EA5
:1007C000E66E270EE66E0F0E9BD8010EE66E580EF3
:1007D000E66E000E95D812C457F00401125103E1E1
:1007E000050E556E1200060E556EEFEF04F0040173
:1007F000186B196B040110511F0B020A0EE0030A5B
:1008000009E0010A17E1010E506E56A013D0040151
:10081000188310D0010E506E0DD04AD801E0010EA1
:100820005ED8E2C0E9FFEA6EEF50040B03E004017A
:10083000010E186F500408E10001180EE06F040E5D
:10084000E16F5692020E516E1200040112050CE186
:1008500010511F0B000908E1010E506E030E115DCF
:1008600002E1568001D05690125121E110511F0B28
:1008700002081DE114510F0B000919E019D801E01D
:10088000010E2DD8030E0401115D02E1840E03D088
:1008900014AF07D0400EE2C0E9FFE3C0EAFFEF6EFD
:1008A0001200880EE2C0E9FFE3C0EAFFEF6E12001B
:1008B000010E506E14510F0B080DF3505A6A000FC1
:1008C000596E040E5A221451800B1200010E506E04
:1008D0001251F66EF76AD890F636F7361200040D0C
:1008E000F35000015924E26F000E5A20E36F12000A
:1008F000F7220900F5CFE0F00A00F5CFE1F0120091
:10090000E66E15EC06F0E552E552E55212000401E0
:1009100010511F0B010801E01200145101E01200F8
:10092000060E115D21E11351230A1DE0010A0DE0BD
:10093000030A19E1020E506E570405E100015E0E34
:10094000E06F0D0EE16F090E0CD0020E506E5704D1
:1009500005E10001D30EE06F0D0EE16F570403E1D6
:100960001D0E516E526A568204011051600BE8420E
:10097000E842E842E842E842010801E01200115171
:100980000B0A26E0080A19E0090A12E0080A09E041
:100990000B0A05E0080A01E01200EDEF04F0EEEFAB
:1009A00004F0020E506E00014A0EE06F000E0BD0F4
:1009B000020E506E13C44AF01200020E506E000177
:1009C0004B0EE06F000EE16F5692010E516E120059
:1009D000020E506E12C44BF01200120012004C6A4C
:1009E0000F011E0E276F0401400E096F200E0A6FC3
:1009F000040E0B6F880E086F0401600E0E6F040E5C
:100A00000F6F400E0C6F1200D9CFE6FFE1CFD9FF78
:100A1000E652FC0EDB50400805E2400EF36EFC0E81
:100A2000F3CFDBFFDF6AFC0EDB50DF5C0FE2DF5051
:100A30004DD8EF50E66EDF50EA6A600FE96E040EA3
:100A4000EA22E552E750EF6EDF2AEDD7FC0EDBCF4E
:100A50000DF4400E04010C170C7D880E0C13E552AA
:100A6000E552E7CFD9FF1200D9CFE6FFE1CFD9FF9A
:100A70004C6A040108BF25D0FC0EDBCF59F00951A8
:100A8000D880595403E2FC0E09C4DBFF4C6AFC0E0B
:100A9000DB504C5C0FE24C50EA6A200FE96E040E0A
:100AA000EA22EF50E66E4C5011D8E552E750EF6E57
:100AB0004C2AEDD70401400E096F0817087D880EF7
:100AC00008134C50E552E7CFD9FF1200E76EFD0E38
:100AD000DBCFE9FFFE0EDBCFEAFFE750E926000E91
:100AE000EA22120082AE04D065B604D00FD802D03C
:100AF00065B613D8550409E165BA07D0626A0F01DB
:100B0000366B36813689020E556E1200656A0F010A
:100B1000366B6586010E556E1200656A0F01366BE5
:100B2000556A12008DEF05F0555001E11200625038
:100B3000040B05E00F013651040B01E032D865B219
:100B400012006250010B05E00F013651010B01E06C
:100B50003BD86250100B05E00F013651100B01E03D
:100B60001FD86250200B05E00F013651200B01E029
:100B700019D8030E555C01E21200546A040E545C4D
:100B80000EE26250080B0BE00F013651080B07E034
:100B9000E5EC01F0000901E16296542AEFD712005A
:100BA000120012000F0126A10DD0800E0401005D7D
:100BB00007E1840E0401045D03E104018C0E006F63
:100BC0000F012691629A1200636A626A0F019F0EFA
:100BD000376F0F017B0E366F0F01386B0F0EE66E0D
:100BE000270EE66E0F0EE66E20D8E552E552E5526E
:100BF0000F01160E266F62A605D0629600D000D0B7
:100C00000000F9D7659825EC03F00401080E016F88
:100C10000401100E026F040E036F04018C0E006FAE
:100C20005690576A030E556E1200D9CFE6FFE1CFFA
:100C3000D9FFFD0EDBCFE9FFFE0EDBCFEAFFFC0E96
:100C4000DB5004E0EE6AFC0EDB06F9D7E552E7CF95
:100C5000D9FF12001DEE00F02DEE00F0F86AF66AE2
:100C6000100EF76E0800F550FF0808E1010EF66E51
:100C7000100EF76E0800F550FF0806E080AE02D0B7
:100C800000EF08F080AEFED701D812000DD80400A6
:100C900033D836D8060E555C05E16550020B02E1EB
:100CA0002BEC00F0F4D71200600ED36E9B8C580E24
:100CB0004D6E020E4E6E4DC059F04EC05AF04D06AC
:100CC000000E4E5A59505A10F6E165A604D06592AE
:100CD000656ACDEC01F0948E0F01140E396F556AE0
:100CE000566A576A1FEC00F08C968C9495969594F2
:100CF0000F01486B496B120072EC05F094EF05F0A0
:100D0000060E555C02E28C868C94060E555C14E14E
:100D10000001200EE65D4E0EE75902E38C868C94AE
:100D2000400EE65D9C0EE75904E38C968C84E66BDE
:100D3000E76BE62B000EE723120012010002000011
:100D40000008D8043C000200010200010902290049
:100D5000010100C032090400000203000000092163
:100D600011010001221D0007058103400001070554
:100D700001034000010403090434034D00690063CA
:100D80000072006F0063006800690070002000546A
:100D9000006500630068006E006F006C006F006704
:100DA000007900200049006E0063002E00260348F1
:100DB000004900440020005500530042002000423A
:100DC000006F006F0074006C006F006100640065CC
:100DD0000072000600FF0901A10119012940150058
:100DE00026FF00750895408100190129409100C037
:100DF0004C0D4C0D750D790DAD0D0E09C00EF36E39
:100E000000EE00F00E0E01D81200EA6002D0EE6A89
:0E0E1000FCD7F350E9601200EE6AFCD7000038
:0610000025EF6AF012006A
:0610080028EF08F01200C1
:0610180045EF41F012005B
:10102A000300FED40000A80500004B000000FCD419
:10103A000000FD050000020000007ED400008002CE
:10104A0000007E000000DACFE4FFE9CFE4FFEACF38
:10105A00E4FFF3CFE4FFF4CFE4FFE6529E90FE0EE6
:10106A00CF6E300ECE6E09B28C820080010180A94B
:10107A0033D0045004E15F0E831481118C6E02A0F8
:10108A0016D009A402D0B6EC20F04BEC23F0B2AF94
:10109A000ED0B29F818DBCEC20F009A404D0BB2BEA
:1010AA00BC23BD23BE2368EC20F001E1029003A01B
:1010BA000BD054EC23F0B6AF07D0B69FF5EC20F076
:1010CA00C5EC20F001E10390010E021444E1010E87
:1010DA00031401E176D03FD080AB3FD002A01FD0ED
:1010EA0009A402D0B6EC20F0DFEC1EF0B2AF17D0A4
:1010FA007F0EB215B26F818DBCEC20F009A404D02A
:10110A00BB2BBC23BD23BE238AAF03D0818F8C8E19
:10111A0002D0819F8C9E68EC20F001E1029003A02E
:10112A0014D0F1EC1EF0B6AF10D07F0EB615B66F24
:10113A00F5EC20F08EAF03D0818B8C8A02D0819B94
:10114A008C9AC5EC20F001E10390010E021403E130
:10115A00010E031436E0009034D080AD32D002A0E4
:10116A0030D00090BCEC20F068EC20F001E1029055
:10117A0009A402D0B6EC20F0DFEC1EF0B2AF12D018
:10118A007F0EB215B26F818D09A405D0BB2B000E5C
:10119A00BC23BD23BE238AAF03D0818F8C8E02D09D
:1011AA00819F8C9EF1EC1EF0B6AF0BD07F0EB61568
:1011BA00B66F81898EAF03D0818B8C8A02D0819BD6
:1011CA008C9A500E811542E0045005E10F0E8314EB
:1011DA0081118C6E0ED081AF02D08B8401D08B949A
:1011EA0081AB02D0898401D0899481BD8B8C81B96D
:1011FA00898A81AD19D081AF0CD01B06000E1C5A0A
:10120A001D5A1E5A09A410D0BF07C05BC15BC25B3E
:10121A000BD01B2A000E1C221D221E2209A404D058
:10122A00BF2BC023C123C22381A90DD081AB06D015
:10123A001F06000E205A215A225A05D01F2A000ED4
:10124A00202221222222AF0E8117DAD080A35AD07F
:10125A0005A03AD0AA050A6EA851A9111AE15DECB7
:10126A0020F0EF500001EA6A8025E96E8151EA22F6
:10127A00EF6AD8EC23F0EE6AED6ADFEC23F0EE6A4F
:10128A00ED6A5DEC20F0EF6A0DEC24F0EE6AED6A8F
:10129A001BD0D8EC23F0ABC1EEFFACC1EDFFDFEC05
:1012AA0023F0A8C1EEFFA9C1EDFF5DEC20F0A7C1B4
:1012BA00EFFF0DEC24F0EE50ED1006E10DEC24F0FA
:1012CA00A8C1EEFFA9C1EDFF00018A510101A75D86
:1012DA0019E1000184510101A8190DE100018551AC
:1012EA000101A91908E10401010EAE6FAB6BD651D9
:1012FA0009E08A9807D00401AE6B010EAB6FD65194
:10130A0001E08A88030E010180150EE0CAEC20F084
:10131A0001E176D08207000E835B845B855BCAECB1
:10132A0020F06EE000906CD080A529D0865122E092
:10133A00ADC157F0AEC158F0D89058325732D89054
:10134A00583257325750BB6ED4C459F0D5C45AF0EC
:10135A00040ED89059365A36E804FBE1300E591675
:10136A00000E5A16CF0EBA145910576E5AC058F0BA
:10137A00E85003D0BB6ACF0EBA14BA6E40D080A729
:10138A003FD08151000823E2045002E18D9001D040
:10139A008C92810503E18D848D82898C020E815D98
:1013AA0003E18D848D82899C030E815D03E18D9416
:1013BA008D82899C040E815D03E18D848D92899CC6
:1013CA00050E815D09E18D948D92899C05D00450AA
:1013DA0002E18D8001D08C82A751000806E20450F8
:1013EA0002E18B9207D0899205D0045002E18B82E8
:1013FA0001D0898277EC20F080EC20F00E900080FA
:10140A0009A47ED2010E001404E1080E091401E1B8
:10141A0077D2700E0101801501E172D2098EADA258
:10142A00FED7540EAE6EADA2FED72C0EAE6EB7C16D
:10143A000FF0B8C110F0B9C111F0BAC112F0D8EC6E
:10144A0024F005E3ADA2FED7300E132405D0ADA2D9
:10145A00FED7410E1324F60F7BEC22F005E3ADA272
:10146A00FED7300E132405D0ADA2FED7410E1324A9
:10147A00F60F67EC24F005E3ADA2FED7300E132475
:10148A0005D0ADA2FED7410E1324F60F80EC22F050
:10149A0005E3ADA2FED7300E132405D0ADA2FED7C8
:1014AA00410E1324F60F6BEC24F005E3ADA2FED730
:1014BA00300E132405D0ADA2FED7410E1324F60F29
:1014CA0085EC22F005E3ADA2FED7300E132405D039
:1014DA00ADA2FED7410E1324F60F6FEC24F005E3FC
:1014EA00ADA2FED7300E132405D0ADA2FED7410E11
:1014FA001324F60F8AEC22F005E3ADA2FED7300ED4
:10150A00132405D0ADA2FED7410E1324F60FAE6EFA
:10151A00ADA2FED72C0EAE6EADA2FED7530EAE6EA6
:10152A00ADA2FED72C0EAE6EBBC10FF0BCC110F03F
:10153A00BDC111F0BEC112F0D8EC24F005E3ADA292
:10154A00FED7300E132405D0ADA2FED7410E1324C8
:10155A00F60F7BEC22F005E3ADA2FED7300E132482
:10156A0005D0ADA2FED7410E1324F60F67EC24F086
:10157A0005E3ADA2FED7300E132405D0ADA2FED7E7
:10158A00410E1324F60F80EC22F005E3ADA2FED73C
:10159A00300E132405D0ADA2FED7410E1324F60F48
:1015AA006BEC24F005E3ADA2FED7300E132405D070
:1015BA00ADA2FED7410E1324F60F85EC22F005E307
:1015CA00ADA2FED7300E132405D0ADA2FED7410E30
:1015DA001324F60F6FEC24F005E3ADA2FED7300E0C
:1015EA00132405D0ADA2FED7410E1324F60F8AECC0
:1015FA0022F005E3ADA2FED7300E132405D0ADA22A
:10160A00FED7410E1324F60FAE6EADA2FED72C0EF6
:10161A00AE6EADA2FED7430EAE6EADA2FED72C0EB5
:10162A00AE6EAFC10FF0B0C110F0B1C111F0B2C1CE
:10163A0012F0D8EC24F005E3ADA2FED7300E132445
:10164A0005D0ADA2FED7410E1324F60F7BEC22F093
:10165A0005E3ADA2FED7300E132405D0ADA2FED706
:10166A00410E1324F60F67EC24F005E3ADA2FED772
:10167A00300E132405D0ADA2FED7410E1324F60F67
:10168A0080EC22F005E3ADA2FED7300E132405D07C
:10169A00ADA2FED7410E1324F60F6BEC24F005E33E
:1016AA00ADA2FED7300E132405D0ADA2FED7410E4F
:1016BA001324F60F85EC22F005E3ADA2FED7300E17
:1016CA00132405D0ADA2FED7410E1324F60F6FECFA
:1016DA0024F005E3ADA2FED7300E132405D0ADA247
:1016EA00FED7410E1324F60F8AEC22F005E3ADA2D1
:1016FA00FED7300E132405D0ADA2FED7410E132417
:10170A00F60FAE6EADA2FED72C0EAE6EADA2FED710
:10171A00520EAE6EADA2FED72C0EAE6E87C10FF082
:10172A0088C110F089C111F08AC112F0D8EC24F0F6
:10173A0005E3ADA2FED7300E132405D0ADA2FED725
:10174A00410E1324F60F7BEC22F005E3ADA2FED77F
:10175A00300E132405D0ADA2FED7410E1324F60F86
:10176A0067EC24F005E3ADA2FED7300E132405D0B2
:10177A00ADA2FED7410E1324F60F80EC22F005E34A
:10178A00ADA2FED7300E132405D0ADA2FED7410E6E
:10179A001324F60F6BEC24F005E3ADA2FED7300E4E
:1017AA00132405D0ADA2FED7410E1324F60F85EC03
:1017BA0022F005E3ADA2FED7300E132405D0ADA268
:1017CA00FED7410E1324F60F6FEC24F005E3ADA209
:1017DA00FED7300E132405D0ADA2FED7410E132436
:1017EA00F60F8AEC22F005E3ADA2FED7300E1324E1
:1017FA0005D0ADA2FED7410E1324F60FAE6EADA2F0
:10180A00FED72C0EAE6EADA2FED7500EAE6EADA2B6
:10181A00FED72C0EAE6EBFC10FF0C0C110F0C1C111
:10182A0011F0C2C112F0D8EC24F005E3ADA2FED744
:10183A00300E132405D0ADA2FED7410E1324F60FA5
:10184A007BEC22F005E3ADA2FED7300E132405D0BF
:10185A00ADA2FED7410E1324F60F67EC24F005E380
:10186A00ADA2FED7300E132405D0ADA2FED7410E8D
:10187A001324F60F80EC22F005E3ADA2FED7300E5A
:10188A00132405D0ADA2FED7410E1324F60F6BEC3C
:10189A0024F005E3ADA2FED7300E132405D0ADA285
:1018AA00FED7410E1324F60F85EC22F005E3ADA214
:1018BA00FED7300E132405D0ADA2FED7410E132455
:1018CA00F60F6FEC24F005E3ADA2FED7300E132419
:1018DA0005D0ADA2FED7410E1324F60F8AEC22F0F2
:1018EA0005E3ADA2FED7300E132405D0ADA2FED774
:1018FA00410E1324F60FAE6EADA2FED70A0EAE6EDF
:10190A000C5019E081500B6EE8500D18E81C0C14AD
:10191A0012E00BC0DCF00E80026A036A0080146ACF
:10192A00156A166A016A1C0E015C05E2015052EC46
:10193A001FF0012AF8D700A0ECD00101806B1450E7
:10194A0001E1CFD009B28C8006B08C940001A85175
:10195A0002E0010EA86F1650B0EC21F0EF50176E9E
:10196A0017A803D032EC24F004D017AA14D062ECE2
:10197A0021F08CEC23F092EC20F08CEC23F0040E96
:10198A00D5EC1DF0EECF93F1EECF94F1EECF95F1B9
:10199A00EFCF96F108D017AC10D062EC21F08CECA6
:1019AA0023F092EC20F0B9EC23F0020ED5EC1DF0F6
:1019BA0025EC1FF0B1EC23F045D017A223D0C6ECDA
:1019CA0021F0A8EC1CF0280ED5EC1DF0EECFA8F102
:1019DA00EDCFA9F1A8EC1CF0270ED5EC1DF0EFCF46
:1019EA00A7F1A8EC1CF02A0ED5EC1DF0EFCFAAF156
:1019FA00A8EC1CF02B0ED5EC1DF0EECFABF1EDCF21
:101A0A00ACF120D017A003D0C6EC21F01BD017A44C
:101A1A000ED0C6EC21F0B1EC23F0A8EC1CF02D0E90
:101A2A00D5EC1DF0EECFADF1EDCFAEF10BD0A8ECB9
:101A3A001CF0EFCF80F1B9EC23F0270ED5EC1DF0A6
:101A4A00EFCFA7F1700E0101801531E086A909D008
:101A5A0082C1AFF183C1B0F184C1B1F185C1B2F1E4
:101A6A001AD086A104D0AF6BB06BB16BB26B86A3F0
:101A7A0004D0B36BB46BB56BB66B86A505D0AF69F2
:101A8A00B069B1697F0EB26F86A705D0B369B46930
:101A9A00B5697F0EB66F68EC20F002E0028001D0D3
:101AAA000290C5EC20F002E0038001D0039009A463
:101ABA000CD0B76BB86BB96BBA6BBB6BBC6BBD6B3D
:101ACA00BE6BBF6BC06BC16BC26B165052EC1FF082
:101ADA00162A1850165C01E3166A14501AE0140606
:101AEA0018D00001A8050CE10001E80EAB6F030E47
:101AFA00AC6FA9C0ADF0AAC0AEF00001020EA86F8B
:101B0A000101826B836B846B856B06B08C8409B28E
:101B1A00898280AE078008A002D081A00780045085
:101B2A0003E18C9C8C9802D08B9C899A09AE06D0D2
:101B3A009E90FE0ECF6E300ECE6E099E09A203D085
:101B4A0089928C908C92E552E5CFF4FFE5CFF3FFB2
:101B5A00E5CFEAFFE5CFE9FFE5CFDAFF1100D9CFFC
:101B6A00E6FFE1CFD9FFE652DF6A020EDF5C2DE223
:101B7A00DF50040DF3CFE9FFF4CFEAFF870EE92621
:101B8A00010EEA22010EEE6EEE6AEE6AEE6ADF508E
:101B9A00040DF3CFE9FFF4CFEAFF8F0EE926010E19
:101BAA00EA22EE6AEE6AEE6AEE6ADF50040DF3CFBD
:101BBA00E9FFF4CFEAFF9F0EE926010EEA22EE6A58
:101BCA00EE6AEE6AEE6ADF2AD0D70101806B010164
:101BDA00816B0101826B836B846B856B0101A86B3E
:101BEA00A96B0101A76B0101AA6B0101AB6BAC6B7D
:101BFA000690096ACD82CD9ECD9CCD9ACD98CD9680
:101C0A00CD94CF6ACE6A9F809E909D80CD8092802F
:101C1A009F9C010EE66EE66AD6EC4DF0E552E5525F
:101C2A00010EE66E0B0EE66ED6EC4DF0E552E5526D
:101C3A008D8496948D829692898C929C8D809690B2
:101C4A008B8294928C9C959C8C9E959E8C98959850
:101C5A008C9A959A949E828E0000000000000000E3
:101C6A00000000000000000000000000000000006A
:101C7A000000000000000000000000000000948E38
:101C8A00829E0401010ED66F05808A9893988996E0
:101C9A0092960401010EAB6F046A0401010EAE6F45
:101CAA00DF6A200EDF5C09E2DF50EA6AB30FE96EF1
:101CBA00040EEA22EF6ADF2AF4D70401AF6BB06B95
:101CCA00B16BB26B076A0401D86B0401010ED76FBE
:101CDA00146A156A166A010E186E050E196E1A6ACA
:101CEA009380F19E0880939681960B6A0C6A0D6A1E
:101CFA000E9054EC1CF0E552E552E7CFD9FF1200E2
:101D0A00A8EC1DF0030E2EEC1FF08FEC22F0E66A11
:101D1A00D95023EC23F00001975101E0ABD0DF0446
:101D2A0020E111EC24F007E10401010ED66F0590C1
:101D3A0055EC1FF00ED0DBEC1EF0010EEE1805E19B
:101D4A00ED5003E10401D66B03D00401010ED66FF6
:101D5A000580000EE66EE66AAEC4E6FFC2EC20F02D
:101D6A0087D0020EDF5C2DE111EC24F008E1046A51
:101D7A0096909492959C959E9598959A1BD0DBEC9B
:101D8A001EF0010EEE180CE1ED500AE1010ECFEC47
:101D9A0020F094949294949C929A9592929268D0FC
:101DAA00DBEC1EF0020EEE1863E1ED5061E1020E6B
:101DBA00CFEC20F094849284948C928A95829282B9
:101DCA0057D0040EDF5C07E1010EDBCF84F0020E70
:101DDA00DBCF85F04DD0050EDF5C07E1010EDBCFCE
:101DEA0082F0020EDBCF83F043D0080EDF5C0FE1F6
:101DFA00DBEC1EF0040ED880EE54000EED5403E224
:101E0A00040EFCEC20F0010EDBCF7EF031D0090E7F
:101E1A00DF5C0FE1DBEC1EF0060ED880EE54000EFC
:101E2A00ED5403E2060EFCEC20F0010EDBCF7FF04E
:101E3A001FD00A0EDF5C03E103EC21F009D00B0E80
:101E4A00DF5C03E103EC21F013D00C0EDF5C07E149
:101E5A00010EDBCF88F0020EDBCF89F009D00D0E20
:101E6A00DF5C06E111EC24F002E0088001D0089062
:101E7A0023EC1EF0030EE15C02E2E16AE55291EF07
:101E8A001DF016EC24F050EC24F084EC1DF0D9502F
:101E9A00FB0F6CEC1EF002E6C2EC1CF016E3BFEC82
:101EAA0021F015E1B4EC1DF0D950F70F6CEC1EF0DF
:101EBA0002E6C2EC1CF009E3BFEC21F008E1A5EC54
:101ECA0023F002E6C2EC1CF002E2010E01D0000E81
:101EDA00236E040EE15C02E2E16AE5520AEF21F0A8
:101EEA00A8EC1DF01D0E9BEC1CF05DEC23F058ECE9
:101EFA0024F053EC24F0140FADEC21F0180F6EEC23
:101F0A0022F01C0EC1EC1FF056E10401D7513FE04C
:101F1A00BFEC21F005E1E1EC21F0CEEC1DF00DE083
:101F2A00080EDBCF2BF0090EDBCF2CF00A0EDBCF2D
:101F3A002DF00B0E0DEC21F02AE1040EDBCF2FF071
:101F4A00050EDBCF30F0060EDBCF31F0070E14ECB6
:101F5A0021F00DE1140EDBCF33F0150EDBCF34F098
:101F6A00160EDBCF35F0170E1BEC21F00DE00C0E30
:101F7A00DBCF37F00D0EDBCF38F00E0EDBCF39F0AA
:101F8A000F0E22EC21F003E10001978D14D01C0EF4
:101F9A00F1EC20F0180FA1EC21F0E66A12EC1FF028
:101FAA00140FDBEC24F0040FDFEC24F0100F44ECE8
:101FBA0024F091EC24F01D0EE15C02E2E16AE552A4
:101FCA0091EF1DF0C0EC23F0200EDB6A29EC21F022
:101FDA0058EC24F0180F5EEC21F053EC24F0140FA7
:101FEA005EEC21F01C0FADEC21F0200F6EEC22F01C
:101FFA00240EC1EC1FF001E07DD00401D75161E04D
:10200A00BFEC21F012E1E1EC21F0CEEC1DF00DE184
:10201A00180EDBCF2BF0190EDBCF2CF01A0EDBCF0C
:10202A002DF01B0E0DEC21F00DE0080EDBCF2FF08A
:10203A00090EDBCF30F00A0EDBCF31F00B0E14ECB9
:10204A0021F03FE1040EDBCF33F0050EDBCF34F095
:10205A00060EDBCF35F0070E1BEC21F01EE1140E45
:10206A00DBCF37F0150EDBCF38F0160EDBCF39F0A9
:10207A00170E22EC21F011E1180EDBCF3BF0190EFE
:10208A00DBCF3CF01A0EDBCF3DF01B0EDBCF3EF070
:10209A003B503C103D103E1011E00C0EDBCF3FF0E0
:1020AA000D0EDBCF40F00E0EDBCF41F00F0EDBCF73
:1020BA0042F03F5040104110421003E10001978D59
:1020CA0019D0240EF1EC20F0200FA1EC21F0E66AE1
:1020DA00D9501C0F44EC24F0140FDBEC24F0040F4D
:1020EA0044EC24F0180F44EC24F0100F44EC24F0D4
:1020FA0091EC24F0250EE15C02E2E16AE55291EFEF
:10210A001DF0A8EC1DF0210E9BEC1CF076EC1EF0E5
:10211A0004EC22F053EC24F0140F5EEC21F0F1EC05
:10212A0024F0180FADEC21F01C0F6EEC22F0200EFB
:10213A00C1EC1FF01FE10401D75106E0BFEC21F00A
:10214A0003E10001978D16D0200EF1EC20F01C0F50
:10215A00A1EC21F03AEC1FF0180F44EC24F0100F18
:10216A00DFEC24F0080F44EC24F0140F44EC24F0C4
:10217A0061EC24F0210EE15C02E2E16AE55291EFA2
:10218A001DF0A8EC1DF0190E9BEC1CF004EC22F0DB
:10219A0053EC24F0080F5EEC21F0100FADEC21F0A7
:1021AA00140F6EEC22F0180EC1EC1FF01BE10401B3
:1021BA00D75106E0BFEC21F003E10001978D12D060
:1021CA00180EF1EC20F0140FA1EC21F0010EE66ECE
:1021DA0012EC1FF0100FDFEC24F0080FDFEC24F0F4
:1021EA0061EC24F0190EE15C02E2E16AE55291EF3A
:1021FA001DF0A8EC1DF00EB028D209B414D064EC7E
:10220A0020F0D880030E91EC23F0000EEE540BE27E
:10221A00030EF36ED60EF3CFDBFFD70EDB6AD80EB2
:10222A00DB6AD90EDB6ADA0EDB5001E083D0A5EC5B
:10223A0023F002E6C2EC1CF022E21BEC24F002E6D8
:10224A00C2EC1CF02CE338EC22F02AEC22F0EF0E60
:10225A00DBCF49F0F00EDBCF4AF0F10EDBCF4BF0CB
:10226A00F20E54EC1DF0EF0E45C0DBFFF00E46C037
:10227A00DBFFF10E47C0DBFFF20E48C0DBFFD9508F
:10228A00E30FA1EC1DF002E6C2EC1CF053E2D950B8
:10229A00E70FA1EC1DF002E6C2EC1CF003E200011C
:1022AA00978DD3D1E30EDBCF49F0E40EDBCF4AF0B2
:1022BA00E50EDBCF4BF0E60E54EC1DF0E30E45C005
:1022CA00DBFFE40E46C0DBFFE50E47C0DBFFE60E90
:1022DA0048C0DBFFE70EDBCF49F0E80EDBCF4AF060
:1022EA00E90EDBCF4BF0EA0E54EC1DF0E70E45C0C9
:1022FA00DBFFE80E46C0DBFFE90E47C0DBFFEA0E54
:10230A0048C0DBFFDF0EDBCF49F0E00EDBCF4AF03F
:10231A00E10EDBCF4BF0E20E54EC1DF0DF0E45C0B0
:10232A00DBFFE00E46C0DBFFE10E47C0DBFFE20E3B
:10233A0048C0DBFF0401796B4AEC21F013EC23F06F
:10234A00A2EC1EF0F70F44EC1FF0EB0EDBCF2BF0E4
:10235A00EC0EDBCF2CF0ED0EDBCF2DF0EE0E3EECCB
:10236A001EF0F70E23C0DBFFF80E24C0DBFFF90EC8
:10237A0025C0DBFFFA0EA8EC22F0A2EC1EF0E70F54
:10238A0044EC1FF0DB0EDBCF2BF0DC0EDBCF2CF0A6
:10239A00DD0EDBCF2DF0DE0E3EEC1EF0E70E23C085
:1023AA00DBFFE80E24C0DBFFE90E25C0DBFFEA0EE7
:1023BA0026C0DBFF04017E6B09A41BD0D50EDB50BF
:1023CA000FE1100E7E6FD60EDBCF7AF4D70EDBCF7D
:1023DA007BF4D80EDBCF7CF4D90EDBCF7DF42DD085
:1023EA0046EC22F003E004017E8527D004017E81B9
:1023FA0024D0010E54EC22F008E046EC22F003E06F
:10240A0004017E8502D004017E81020E54EC22F082
:10241A0014E0D950DB0FB6EC1CF0D950DF0FB6EC44
:10242A001CF0D950E70FB6EC1CF04FEC20F003E09B
:10243A0004017E8702D004017E8313EC23F0DBCFF4
:10244A002AF0D950EB0FDCEC21F0C1EC1DF0EF0EB5
:10245A0023C0DBFFF00E24C0DBFFF10E25C0DBFF3B
:10246A00F20EA8EC22F0DBCF2AF0D950DB0FDCEC1D
:10247A0021F0C1EC1DF0DF0E23C0DBFFE00E24C00B
:10248A00DBFFE10E25C0DBFFE20E26C0DBFF000109
:10249A00D90502E18D908B92F70EDBCF7FF4F80E0F
:1024AA00DBCF80F4F90EDBCF81F4FA0EDBCF82F4B6
:1024BA00DA0EDB500BE0FB0EDBCF87F4FC0EDBCF32
:1024CA0088F4FD0EDBCF89F4FE0E0AD0F30EDBCFC3
:1024DA0087F4F40EDBCF88F4F50EDBCF89F4F60E21
:1024EA00DBCF8AF4EF0EDBCF97F4F00EDBCF98F454
:1024FA00F10EDBCF99F4F20EDBCF9AF4EB0EDBCFC1
:10250A008FF4EC0EDBCF90F4ED0EDBCF91F4EE0EF0
:10251A00DBCF92F4E70EDBCF83F4E80EDBCF84F453
:10252A00E90EDBCF85F4EA0EDBCF86F4DA0EDB5058
:10253A0006E004018B6B8C6B8D6B8E6B0CD0E30EFB
:10254A00DBCF8BF4E40EDBCF8CF4E50EDBCF8DF41E
:10255A00E60EDBCF8EF4DF0EDBCF9BF4E00EDBCF93
:10256A009CF4E10EDBCF9DF4E20EDBCF9EF4DB0E92
:10257A00DBCF93F4DC0EDBCF94F4DD0EDBCF95F4E6
:10258A00DE0EDBCF96F4DA0EDB5003E00401400ED8
:10259A0002D00401200E786F1850145CFDE20EB0D0
:1025AA0005D0D9EC1CF001E3156A142A09AA4BD00C
:1025BA00C7EC23F07AEC1DF01BEC22F0F80E236E28
:1025CA00BF0E6BEC1CF097C4E6FF98C4E6FF99C4F3
:1025DA00E6FF9AC4E6FF7AEC1DF0F30E236EBF0EF7
:1025EA006BEC1CF08FC4E6FF90C4E6FF91C4E6FFD3
:1025FA0092C4E6FF7AEC1DF0CEEC23F07AEC1DF0E3
:10260A00E90E236EBF0EB5EC22F0E40E236EBF0E68
:10261A006BEC1CF09BC4E6FF9CC4E6FF9DC4E6FF7E
:10262A009EC4E6FF7AEC1DF0DF0E236EBF0E6BEC44
:10263A001CF093C4E6FF94C4E6FF95C4E6FF96C473
:10264A00E6FFA9EC23F023EC1EF0ADEF23F0A8EC93
:10265A001DF0110E8DEC21F0100EDB6A04EC22F055
:10266A00040FADEC21F0080FADEC21F0100FD7EC00
:10267A0021F00401D75101E17CD0BFEC21F002E145
:10268A000001978D0001975101E079D0C6EC1FF047
:10269A0004E2AE0E236EBF0E63D060EC1FF002E6BA
:1026AA0067EC1DF005E2D950040F6BEC1FF004D063
:1026BA00C1EC22F0F7EC1FF008EC22F002E626EC5F
:1026CA001EF004E2820E236EBF0E4AD0CDEC22F039
:1026DA0004E2540E236EBF0E43D09CEC24F0E8AE05
:1026EA0002D04D3402D05EEC1EF009E3ECEC21F08E
:1026FA00CEEC1DF004E0300E236EBF0E31D079EC23
:10270A001FF002E667EC1DF005E2D950080F6BECEA
:10271A001FF004D0D9EC22F0F7EC1FF008EC22F0FD
:10272A0002E626EC1EF004E2040E236EBF0E18D059
:10273A00CDEC22F004E2D60E236EBE0E11D09CEC34
:10274A0024F0E8AE02D04D3402D05EEC1EF00BE36A
:10275A00ECEC21F0CEEC1DF006E0B20E236EBE0EBC
:10276A001FEC24F009D0100EDB50030802E2100E11
:10277A00DB6A100EECEC24F094EC4AF0E552110EF0
:10278A00E15C02E2E16AE55291EF1DF0C0EC23F050
:10279A00010EF36E200EF3CFDBFF29EC21F0240E9D
:1027AA00DB6A7EEC24F03AEC1FF0040FADEC21F06A
:1027BA00080F83EC24F00401D75106E0BFEC21F0A6
:1027CA0003E10001978DB0D11850145CFDE2200E90
:1027DA00DB040BE1F29E0101CAEC20F004E1805116
:1027EA0002E1200EDB6AF28EF2D71BC027F01CC072
:1027FA0028F01DC029F01EC02AF06DEC20F0040F4D
:10280A00D9EC1DF004EC20F01FC027F020C028F0FE
:10281A0021C029F022C02AF06DEC20F0080FD9EC73
:10282A001DF011EC20F036EC23F002E6C2EC1CF0AD
:10283A0005E2E5EC22F018EC1FF004D0D9500C0F99
:10284A0093EC1EF03AEC23F002E6C2EC1CF00FE225
:10285A00F1EC22F0180E45C0DBFF190E46C0DBFF73
:10286A001A0E47C0DBFF1B0E48C0DBFF10D0D95041
:10287A00100F99EC22F0180EEECFDBFF190EEECFF7
:10288A00DBFF1A0EEECFDBFF1B0EEECFDBFF97EC62
:10289A0023F002E626EC1EF009E31EEC20F04D348C
:1028AA00000E4D1802E626EC1EF004E2840E236E9A
:1028BA00BE0EA0D0BBEC1EF0DBCF26F0D950140F11
:1028CA0099EC22F0030EEBCFF3FF2650F318E8AE93
:1028DA0002D0F33408D0EE50235CEE502458EE5068
:1028EA002558EE50265801E37BD030EC1EF076ECEA
:1028FA001CF083EC1EF004E2530E236EBE0E7AD057
:10290A0060EC22F01EEC20F026504D18E8AE02D002
:10291A004D3402D05EEC1EF001E2D2D0180EDBCFAD
:10292A0027F0190EDBCF28F01A0EDBCF29F01B0E89
:10293A00CEEC1DF001E1C4D0BBEC1EF076EC1CF02D
:10294A0008EC22F002E667EC1DF006E2E8EC1DF066
:10295A0002E667EC1DF029E336EC23F002E6C2EC4E
:10296A001CF006E2E8EC1DF002E667EC1DF00CE351
:10297A0008EC22F002E667EC1DF00BE23AEC23F0D9
:10298A0002E6C2EC1CF005E2F1EC22F02BEC20F09E
:10299A0010D036EC23F002E6C2EC1CF00AE23AEC64
:1029AA0023F002E6C2EC1CF004E2D950100F84ECCA
:1029BA001FF0030EE66ED950100F44EC24F0210FDD
:1029CA0044EC24F088EC24F0D1EC1FF0210FC5EC84
:1029DA0024F004EC20F066EC23F030EC1EF06ED00C
:1029EA00BBEC1EF076EC1CF083EC1EF006E2220E25
:1029FA00236EBE0E1FEC24F094D060EC22F024EC7F
:102A0A0024F0E8AE02D04D3402D05EEC1EF058E35A
:102A1A00B3EC21F055E030EC1EF076EC1CF0E8EC5B
:102A2A001DF002E667EC1DF006E208EC22F002E671
:102A3A0067EC1DF029E33AEC23F002E6C2EC1CF045
:102A4A0006E208EC22F002E667EC1DF00CE3E8EC83
:102A5A001DF002E667EC1DF00BE236EC23F002E60D
:102A6A00C2EC1CF005E2E5EC22F02BEC20F010D0D1
:102A7A003AEC23F002E6C2EC1CF00AE236EC23F050
:102A8A0002E6C2EC1CF004E2D9500C0F84EC1FF0F1
:102A9A00030EE66ED950210FDBEC24F088EC24F00B
:102AAA00E1EC21F0DBCF2AF0D950210FC5EC24F05C
:102ABA0011EC20F047EC24F0BBEC1EF076EC1CF095
:102ACA00D9501C0F99EC22F00A0EEE5C000E9AEC1B
:102ADA0023F007E20A0EF36E1C0EF3CFDBFFECECD9
:102AEA0023F009AA15D0150E236EBE0E6BEC1CF04E
:102AFA00D9501C0FA1EC21F06FEC23F00C0FA1ECC4
:102B0A0021F078EC23F0100FA1EC21F0A9EC23F0CE
:102B1A00030EE66ED950100FDBEC24F088EC24F09B
:102B2A00E66A94EC4AF0E552250EE15C02E2E16ABB
:102B3A00E55291EF1DF0A8EC1DF0190E9BEC1CF06C
:102B4A00180EDB6A04EC22F00C0F5EEC21F0100F79
:102B5A00ADEC21F0180FD7EC21F0180EDB5003086A
:102B6A0005E2030EF36E180EF3CFDBFF0401D75113
:102B7A0005E0BFEC21F002E10001978D100EDBCFDA
:102B8A0023F0110EDBCF24F0120EDBCF25F0130E4B
:102B9A00DBCF26F0D9500C0F99EC22F081EC23F010
:102BAA00040E23C0DBFF050E24C0DBFF060E25C082
:102BBA00DBFF070E26C0DBFFD1EC1FF0100FC5ECC0
:102BCA0024F0080E23C0DBFF090E24C0DBFF0A0E27
:102BDA0025C0DBFF0B0E26C0DBFF60EC1FF002E610
:102BEA0067EC1DF005E2D950040F93EC1EF004D0F7
:102BFA00C1EC22F018EC1FF00401D7512CE0C6EC0E
:102C0A001FF004E2AE0E236EBF0E5BD097EC23F0EA
:102C1A0002E626EC1EF004E2820E236EBF0E51D0AD
:102C2A0030EC1EF04CEC1DF004E2540E236EBF0E85
:102C3A0048D009EC23F024EC24F0E8AE02D04D345D
:102C4A0002D05EEC1EF007E3B3EC21F004E0300E94
:102C5A00236EBF0E36D079EC1FF002E667EC1DF04A
:102C6A0005E2D950080F93EC1EF004D0D9EC22F0FB
:102C7A0018EC1FF00401D75127E097EC23F002E685
:102C8A0026EC1EF004E2040E236EBF0E1AD030ECBE
:102C9A001EF04CEC1DF004E2D60E236EBE0E11D0CF
:102CAA0009EC23F024EC24F0E8AE02D04D3402D033
:102CBA005EEC1EF009E3B3EC21F006E0B20E236EDF
:102CCA00BE0E1FEC24F006D00001975106E1180E43
:102CDA00ECEC24F094EC4AF0E552190EE15C02E2C5
:102CEA00E16AE55291EF1DF0A8EC1DF0100E8DEC93
:102CFA0021F00EB0E7D109AA11D0FF0E236EBD0E46
:102D0A00A2EC24F06FEC23F0F70FB6EC1CF078EC91
:102D1A0023F0F30FB6EC1CF0A9EC23F0F20EDB5013
:102D2A00030805E2030EF36EF20EF3CFDBFFF20E99
:102D3A00DBCF7EF484EC1DF067EC1EF036E1FDEC8F
:102D4A0022F033E10401010E786FFB0EDBCF7AF437
:102D5A00FC0EDBCF7BF4FD0EDBCF7CF4FE0EDBCF6B
:102D6A007DF4190E73EC24F07AC449F07BC44AF05E
:102D7A007CC44BF07DC44CF014EC69F045C07AF485
:102D8A0046C07BF447C07CF448C07DF4D880000E6E
:102D9A0004014554000E4654190E4754000E485477
:102DAA0001E386D14AEC21F083D104014AEC21F0F7
:102DBA00796B0001D90502E18D908B921BEC24F00E
:102DCA0002E6C2EC1CF006E2800E04017911796F6A
:102DDA002AEC22F0A5EC23F002E6C2EC1CF006E293
:102DEA00200E04017911796F38EC22F009AA36D045
:102DFA00D950F70FDCEC21F0E40EEE5C550E9AEC9C
:102E0A0023F02CE284EC1DF0FB0E4E6E020E4F6E88
:102E1A00506A516AC8EC24F048C026F0D950FB0F1A
:102E2A00DCEC21F0EE50455CEE504658EE50475827
:102E3A00EE50485813E2D20E236EBD0EA2EC24F0D7
:102E4A007FEC1DF0FDEC1DF050EC24F0F70EDB6A70
:102E5A00F80EDB6AF90EDB6AFA0EDB6A84EC1DF007
:102E6A0067EC1EF069E01BEC24F002E6ADEC20F002
:102E7A0024E205EC1EF084EC1DF00F0E1F0B03E09C
:102E8A007CEC1EF0FDE13EEC1DF0C6EC1EF084EC7D
:102E9A001DF00F0E1F0B03E07CEC1EF0FDE10BECA6
:102EAA0022F014E292EC1FF003E07CEC1EF0FDE14C
:102EBA003EEC1DF038EC20F009D084EC1DF003EC58
:102ECA001FF030EC21F0FDE1FDEC21F0D6EC1FF013
:102EDA0005E2A20E236EBD0EA8EC24F0BFEC21F091
:102EEA0012E1F70EDBCF27F0F80EDBCF28F0F90E50
:102EFA00DBCF29F0FA0ECEEC1DF005E0790E236E39
:102F0A00BD0EF9EC23F0F4EC1DF00BE2A1EC1FF07E
:102F1A0003E037EC21F0FDE1D9500C0FD9EC1DF09C
:102F2A0008D0ABEC1CF0100E1F0B03E07CEC1EF07B
:102F3A00FDE1CBEC21F002D050EC24F045EC20F07E
:102F4A0002E3E1EC20F0DFCF7FF4010EDBCF80F467
:102F5A00020EDBCF81F4030EDBCF82F4F70EDBCF58
:102F6A0087F4F80EDBCF88F4F90EDBCF89F4FA0E7A
:102F7A00DBCF8AF40401976B986B996B9A6BB4EC6C
:102F8A001DF067EC1EF05EE0A5EC23F002E6ADEC66
:102F9A0020F024E205EC1EF0B4EC1DF00F0E1F0B1E
:102FAA0003E07CEC1EF0FDE13EEC1DF0C6EC1EF0E9
:102FBA00B4EC1DF00F0E1F0B03E07CEC1EF0FDE1DC
:102FCA000BEC22F014E292EC1FF003E07CEC1EF012
:102FDA00FDE13EEC1DF038EC20F009D0B4EC1DF018
:102FEA0003EC1FF030EC21F0FDE1FDEC21F0D6EC12
:102FFA001FF005E2490E236EBD0EA8EC24F0BFECCB
:10300A0021F008E1FDEC22F005E0200E236EBD0E52
:10301A00F9EC23F0F4EC1DF00BE2A1EC1FF003E055
:10302A0037EC21F0FDE1D9500C0FD9EC1DF008D096
:10303A00ABEC1CF0100E1F0B03E07CEC1EF0FDE164
:10304A00CBEC21F045EC20F002E3E1EC20F0DFCFFD
:10305A0083F4010EDBCF84F4020EDBCF85F4030E7A
:10306A00DBCF86F4F30EDBCF8BF4F40EDBCF8CF4DC
:10307A00F50EDBCF8DF4F60EDBCF8EF404019B6BDD
:10308A009C6B9D6B9E6B100E786F09AA11D0C7ECD2
:10309A0023F07FEC1DF01BEC22F0CEEC23F07FEC4A
:1030AA001DF0E40E236EBF0EB5EC22F0FDEC1DF010
:1030BA001850145CFDE20EB005D0D9EC1CF001E307
:1030CA00156A142A100EE15C02E2E16AE55291EFF8
:1030DA001DF0A8EC1DF0030E29EC23F03EEC21F0C4
:1030EA0065EC1CF0000197513CE1F29E100E0101C3
:1030FA00805D06E0200E805D03E0400E805D03E106
:10310A00DE52010EDD6E145003E0DE52010EDD6E5A
:10311A00806B020EDB6A1C0EF36E020EDBCFF4FF2D
:10312A00F350F45C07E2020EDB5052EC1FF0020E81
:10313A00DB2AF1D7156A166A146ADF0409E104501A
:10314A0003E18D808B8204D0040402E18C8289829F
:10315A00F28EADEC24F0D8B102D0FDEC1DF023ECD8
:10316A001EF0030EE15C02E2E16AE55291EF1DF006
:10317A00D5EC23F0AEC423F0246A256A266A23AE6E
:10318A0003D024682568266823C0E6FF2CEC23F0C8
:10319A007FEC1DF00401D8B102D0FDEC1DF023EF45
:1031AA001EF0A8EC1DF0030E29EC23F08450040B4A
:1031BA0008E18450020B05E18050400B02E1010E48
:1031CA0023D08450040B09E08450020B06E180509E
:1031DA00400B03E1020EF36E19D08450040B08E190
:1031EA008450020B05E08050400B02E1040E0CD023
:1031FA008450040B08E08450020B05E08050400B19
:10320A0002E1080E01D0100EF36E020EF3CFDBFFBF
:10321A00045008E184B003D0020EDB50DF6E82B2A4
:10322A0010D009D004040DE183B203D0020EDB50A2
:10323A00DF6E80B206D0020EDB50E76E010EE7CFDA
:10324A00DBFFDFCF23F00EEC23F03EEC1FF0ADECFA
:10325A0024F0D8B102D0FDEC1DF023EC1EF0030ED1
:10326A00E15C02E2E16AE55291EF1DF0A8EC1DF083
:10327A00020EE126DE6ADD6AF7EC21F03EEC21F06F
:10328A00030E1EDB000197510FE10401AE0504E1B4
:10329A0054EC21F0E66A04D054EC21F0010EE66EFB
:1032AA00C2EC20F023EC1EF0020EE15C02E2E16ABD
:1032BA00E55291EF1DF0A0EC23F057EC20F0B3ECAF
:1032CA0024F03AEC1FF0030FD7EC21F0E76E040E5E
:1032DA00C1EC1FF024E1030EDB50070802E257ECB1
:1032EA0020F0DF50010802E2010EDF6E030EDB5010
:1032FA00030F00018A5D07E055EC1FF0030EDB5057
:10330A00030F00018A6F010EDBCFE6FF020EDBCF4F
:10331A00E6FFDFCFE6FFC2EC20F023EC1EF0050E3D
:10332A00E15C02E2E16AE55291EF1DF016EC24F04D
:10333A00FE0EDB040BE184C0DEFF85C0DDFF020E5A
:10334A0086C0DBFF030E87C0DBFF0AD082C0DEFF28
:10335A0083C0DDFF020E88C0DBFF030E89C0DBFFDE
:10336A008986D5C0D1F0D6C0D2F0D7C0D3F0D8C0A4
:10337A00D4F0FC0EDBCFE6FFFD0EDBCFE6FF020E3C
:10338A00DBCFE6FF030EDBCFE6FF8AC0E6FF54EC95
:10339A0021F0FFEC23F0040EE15C02E2E16AE5525F
:1033AA00BBD316EC24F08FEC22F0E76E020EC1ECD0
:1033BA001FF029E1020EDB5026E18CEC24F0E76EC7
:1033CA00030EC1EC1FF01FE1030EDB501CE1185085
:1033DA00145CFDE21550B0EC21F0EE52DFCFEFFFA6
:1033EA00D1EC1EF0270EDCDB010EDBCFEFFFD1ECB8
:1033FA001EF0080EEF6E152A1850155C01E3156AC7
:10340A00142A23EC1EF0040EE15C02E2E16AE552A2
:10341A0083D3F7EC21F0FE0E0401AF5DFF0EB05925
:10342A00FF0EB159FF0EB25905E2AF2B000EB023C1
:10343A00B123B22323EF1EF0F7EC21F00401AF51C0
:10344A00B011B111B21105E0AF07000EB05BB15B6C
:10345A00B25B23EF1EF077DB050EE1267EEC24F04B
:10346A0029EC24F0DB500BE1DFCFAFF4010EDBCF08
:10347A00B0F4020EDBCFB1F4030EDBCFB2F4DEDB25
:10348A00050EE15C02E2E16AE55246D3D5EC23F08F
:10349A00AFC4E6FFB0C4E6FFB1C4E6FFB2C4E6FFBC
:1034AA0029DB0401D8B102D0BDEC1FF023EF1EF0D6
:1034BA004ADB020ECBEC24F08FEC22F08CEC24F0E9
:1034CA00000197510CE1010EDB501F0803E2DE52A6
:1034DA001F0EDD6EE9EC20F0DFCFEFFFAFDB020E4F
:1034EA00E15C02E2E16AE55217D32DDB020E29EC18
:1034FA0023F08CEC24F00001975113E1010EDB500C
:10350A001F0803E2DE521F0EDD6EE9EC20F0EFCF5A
:10351A0023F00EEC23F00401D8B102D0BDEC1FF069
:10352A008DDB020EE15C02E2E16AE552F5D2D5ECEE
:10353A0023F007504FEC21F0E66E2CEC23F0DADA98
:10354A000401D8B102D0BDEC1FF007B0079023EFF9
:10355A001EF09DBCFED7D5EC23F000C123F001C1BB
:10356A0024F075EC22F016C123F017C124F0A4DA76
:10357A00BCDA0401D8B102D0BDEC1FF023EF1EF073
:10358A00E2DAE652D5D8DF6ED5EC23F00F0EDF145F
:10359A00DF6E0401AE5103E0100EDF10DF6E07A0EC
:1035AA0003D0200EDF10DF6E0001A75104E0400EA9
:1035BA00DF10DF6EA76B0EA003D0800EDF10DF6E68
:1035CA00020EE66EDFCF23F0246A76DAD3EC64F0DB
:1035DA00276E050EE15E2750BDEC1FF007B007907D
:1035EA00E552ADEF23F0A0EC23F0030EDB6AB3EC57
:1035FA0024F029EC24F03AEC1FF0030FD7EC21F069
:10360A000001975101E08ED0D1DBFF0ED880EE5435
:10361A00030EED5405E2010EDB68030E59EC21F0AE
:10362A00DF50010802E2010EDF6E030EDB500108D3
:10363A0002E257EC20F0DF0409E1040EDB50030834
:10364A0005E10401D46B020ED56F06D0010EDBCF63
:10365A00D4F4020EDBCFD5F4CAB415D0CB68FC0E75
:10366A00CA140009CA6E9D920F0152815293F00E3C
:10367A00BA140C09BA6E3F0EBA140009BA6E0E01DA
:10368A000E0ECC6FCA84030EDB502AE1DF5023E012
:10369A00D4C423F0D5C424F0D89024322332D8904D
:1036AA00243223322350BB6ED4C425F0D5C426F06D
:1036BA00040ED89025362636E804FBE1300E25168E
:1036CA00000E2616CF0EBA1400012510236E26C04E
:1036DA0024F0E85003D0BB6ACF0EBA14BA6E21D0D8
:1036EA001850145CFDE21550B0EC21F02D0E58DA9A
:1036FA00D4C4EEFFD5C4EDFF4FDB020E51DAEE6AF9
:10370A00EE6AEE6AEE6A48DB060E4ADADFCFEFFFB0
:10371A0043DB040EEF6E152A1850155C01E3156A97
:10372A00142A8CDA050EE15C02E2E16AE552F4D170
:10373A000ADA040E8EDB030EDB6AF29E0101CAEC82
:10374A0020F002E0010EDF6E805102E0010EDF6E12
:10375A00145006E0010EDF6EF36E030EF3CFDBFFAB
:10376A00DF5006E068EC20F003E0DE52010EDD6E69
:10377A00DF5006E0C5EC20F003E0010E59EC21F021
:10378A00F28E030EDBCFE6FF020EDB50E824246E36
:10379A00010EDB50040DF3CF23F0DF50080DF35078
:1037AA0023102410E552E710236E040EE15C02E2B6
:1037BA00E16AE5520AEF21F0A0EC23F0030EDB6A7E
:1037CA00B7DF29EC24F0010EE66EE66E76EC4AF0DD
:1037DA00E552E552040EDBA002D057EC20F0040EAD
:1037EA00DBA203D0010E59EC21F0040EDBA403D0B6
:1037FA00DE52010EDD6E040EDBA602D0010EDF6E74
:10380A00DFCF23F0246A75EC22F0010EDBCF23F020
:10381A00246A75EC22F0020EDBCF23F0246A75ECE1
:10382A0022F0030EDBCF23F0246A46D9A9EC23F059
:10383A00050EE15C02E2E16AE5526ED184D9080E16
:10384A00E126D5EC23F0F29E1BC0DFFF010E1CC05F
:10385A00DBFF020E1DC0DBFF030E1EC0DBFF040EE2
:10386A001FC0DBFF050E20C0DBFF060E21C0DBFFF9
:10387A00070E22C0DBFFF28EF9EC21F036D9F9DA15
:10388A00D950040FA1EC21F030D90401D8A1B0D944
:10389A00D5D9080EE15C02E2E16AE5523DD1F29E19
:1038AA0077EC20F0010180EC20F0F28E1200F7ECA8
:1038BA0021F0F5DF23EF1EF0DACFEAFF42EF23F023
:1038CA00E66ED2EC52F0E5523EEF23F0246E256A02
:1038DA0023C0E6FFE66E25C0E6FFB6EC64F03EEFD5
:1038EA0023F0DBCF26F006EC24F0C8EC24F045C028
:1038FA0023F046C024F047C025F048C026F045C052
:10390A0049F046C04AF047C04BF048C04CF09DEC25
:10391A0022F01C0E49C0DBFF1D0E4AC0DBFF1E0E43
:10392A004BC0DBFF1F0E4CC0DBFF12008DEC21F0F9
:10393A0066EC23F0140EDB6A150EDB6A160EDB6AE0
:10394A00170EDB6A120016508AEF23F094EC22F06D
:10395A00EECF23F0EECF24F0EECF25F0EFCF26F016
:10396A001200DCEC21F042EF23F0F7EC21F0E66ADA
:10397A00D9CFE6FFDACFE6FF1200000EEE5C000EAA
:10398A009AEF23F04E6E050E4F6E506A516AA4EC00
:10399A0021F0ACEC69F049C023F04AC024F04BC0D6
:1039AA0025F04CC026F012001550B0EC21F078C476
:1039BA00EEFF79C4EEFF7AC4EEFF7BC4EEFF7CC44F
:1039CA00EEFF7DC4EEFF7EC4EEFF7FC4EEFF80C42F
:1039DA00EEFF81C4EEFF82C4EEFF83C4EEFF84C40F
:1039EA00EEFF85C4EEFF86C4EEFF87C4EEFF88C4EF
:1039FA00EEFF89C4EEFF8AC4EEFF8BC4EEFF8CC4CF
:103A0A00EEFF8DC4EEFF8EC4EEFF8FC4EEFF90C4AE
:103A1A00EEFF91C4EEFF92C4EEFF93C4EEFF94C48E
:103A2A00EEFF95C4EEFF96C4EEFF97C4EEFF98C46E
:103A3A00EEFF99C4EEFF9AC4EEFF9BC4EEFF9CC44E
:103A4A00EEFF9DC4EEFF9EC4EEFF9FC4EEFFA0C42E
:103A5A00EEFFA1C4EEFFA2C4EEFFA3C4EEFFA4C40E
:103A6A00EEFFA5C4EEFFA6C4EEFF152A1850155C9A
:103A7A001200A4EC21F0040EDBCF4EF0050EDBCFD2
:103A8A004FF0060EDBCF50F0070ED0EF24F0DBCF5D
:103A9A0026F0A4EC21F09DEC22F01EEF23F0DBCF00
:103AAA004CF04E684F685068516814EF69F0E66E42
:103ABA00000EDA20E66E1200256A266A23C0E6FFA7
:103ACA002CEF23F0D880B8EC24F0000E4D541200ED
:103ADA000C0EDBCF4AF00D0EDBCF4BF00E0EDBCF18
:103AEA004CF00F0EDBCF4DF0120029EC65F0E552D9
:103AFA003EEF23F00DEC65F0E5523EEF23F0F70EB2
:103B0A00DBCF23F0F80EDBCF24F0F90EDBCF25F064
:103B1A00FA0EDBCF26F01200E16EADEF23F0140EA1
:103B2A00DBCF4AF0150EDBCF4BF0160EDBCF4CF095
:103B3A00170EDBCF4DF01200DCEC21F0D890030E0B
:103B4A00EB50000A1200D9CFE6FFE1CFD9FF1200ED
:103B5A0099EC22F0D890030EEB50000A1200F30EF3
:103B6A00DBCF23F0F40EDBCF24F0F50EDBCF25F00C
:103B7A00F60EDBCF26F01200EE50275C236EEE50D5
:103B8A002858246EEE502958256EEE502A58266E73
:103B9A001200DBCF2AF02750281029102A10120011
:103BAA00E926000EEA22120099EC22F02750EE24B0
:103BBA00236E2850EE20246E2950EE20256E2A50BE
:103BCA00EE20266E1200100EDBCF4AF0110EDBCF6C
:103BDA004BF0120EDBCF4CF0130E33EF23F0D9501B
:103BEA00FB0FE5DBD8801E0EEE54000E91EF23F09A
:103BFA00020EE66E2EEF24F0136EE850090812004A
:103C0A00FB0EDBCF23F0FC0EDBCF24F0FD0EDBCF67
:103C1A0025F0FE0EDBCF26F0190E73EC24F0C8EC6B
:103C2A0024F0040E45C0DBFF050E46C0DBFF060E7E
:103C3A0047C0DBFF070E48C0DBFF1200E66A2EEF23
:103C4A0024F0D880FF0E4A54FF0E4B54FF0E4C54FA
:103C5A00000E4D541200140EDBCF23F0150EDBCFED
:103C6A0024F0160EDBCF25F0170E1200E66EBFEF1A
:103C7A0024F0DBCF2EF0060E73EC24F02BC049F0B3
:103C8A002CC04AF02DC04BF02EC04CF04CEC69F021
:103C9A0049C02BF04AC02CF04BC02DF04CC02EF07E
:103CAA00495023264A5024224B5025224C50262282
:103CBA0012004A50235C4B5024584C5025584D5002
:103CCA0026581200235024102510261012006FDBEC
:103CDA0081EC23F05BDB94EC22F0D890EB50000AE5
:103CEA0012005DEC23F01C0EDB6AECEF23F0D89097
:103CFA002336243625362636E806120094EC22F0BE
:103D0A00EECF49F0EECF4AF0EECF4BF0EFCF4CF0CA
:103D1A0006EC24F0ACEC69F01EEF23F099EC22F0EB
:103D2A00140EEECFDBFF150EEECFDBFF160EEECF35
:103D3A00DBFF170EEECFDBFF1200DBCF2AF0020EFD
:103D4A0073EC24F027C049F028C04AF029C04BF090
:103D5A002AC04CF04CEC69F049C027F04AC028F060
:103D6A004BC029F04CC02AF0D9501200180EDBCFF4
:103D7A0023F0190EDBCF24F01A0EDBCF25F01B0E31
:103D8A00120049C0DEFF4AC0DEFF4BC0DEFF4CC056
:103D9A00DDFFDD52DD52120015508AEF23F00A5082
:103DAA00E96EEA6AD890E936EA361200D950010F6C
:103DBA0099EF22F097519F279851A0239951A12357
:103DCA009A51A2239F518727A0518823A151892361
:103DDA00A2518A234BEF23F09B51A3279C51A42382
:103DEA009D51A5239E51A623A3518B27A4518C2311
:103DFA00A5518D23A6518E2354EF23F0A0DAFB0E92
:103E0A00DBCF4EF0FC0EDBCF4FF0FD0EDBCF50F0D8
:103E1A00FE0ED0EC24F00F0E1200E66AE66AE66A9D
:103E2A00E66AD9501200140E45C0DBFF150E46C0D3
:103E3A00DBFF160E47C0DBFF170E48C0DBFF120080
:103E4A00EECF82F1EECF83F1EECF84F1EFCF85F1A1
:103E5A001200CBEC24F0020EDB6A120079EC16F0A9
:103E6A00236E0D0EE15E23501200010EE66ED9504C
:103E7A0012002C0EE66E1DEC47F0E552120097DA9E
:103E8A004950EE5C236E4A50EE58246E4B50EE5861
:103E9A00256E4C50EE58266E12005DDAEF6A12005B
:103EAA00000EE66EE66AE66EE66A8AC0E6FFE66E2F
:103EBA00E66AFFEF23F0040EDBCF4AF0050EDBCFF4
:103ECA004BF0060EDBCF4CF0070EC8D32DDB0C0EE1
:103EDA00EECFDBFF0D0EEECFDBFF0E0EEECFDBFFDC
:103EEA000F0EEECFDBFF1200080EDBCF4AF0090EF1
:103EFA00DBCF4BF00A0EDBCF4CF00B0EAFD314DB4B
:103F0A00210EEECFDBFF220EEECFDBFF230EEECF2C
:103F1A00DBFF240EEECFDBFF1200080EDBCF23F00F
:103F2A00090EDBCF24F00A0EDBCF25F00B0EDBCF18
:103F3A0026F0100E1F0B1200F2DAEECF27F0EECFAA
:103F4A0028F0EECF29F0EFCF2AF0100E1F0B120047
:103F5A00EECF8BF1EECF8CF1EECF8DF1EFCF8EF16C
:103F6A001200FEEC10F0236E2A0EE15E23501200BE
:103F7A00010EE66E2EEF24F0E7CFDBFF000197512A
:103F8A001200CDDAD880FF0EEE54FF0EEE54FF0E6B
:103F9A00EE54000EEE5412001ADADBCF2AF0D95092
:103FAA001200BDDAD880000EEE54800E91EF23F095
:103FBA00F70E45C0DBFFF80E46C0DBFFF90E47C01F
:103FCA00DBFFFA0E48C0DBFF1200F30E45C0DBFF31
:103FDA00F40E46C0DBFFF50E47C0DBFFF60E48C005
:103FEA00DBFF12000C0E45C0DBFF0D0E46C0DBFFE7
:103FFA000E0E47C0DBFF0F0E48C0DBFF12000C0E8F
:10400A0023C0DBFF0D0E24C0DBFF0E0E25C0DBFF35
:10401A000F0E26C0DBFF1200100E23C0DBFF110EAD
:10402A0024C0DBFF120E25C0DBFF130E26C0DBFF08
:10403A001200180EDBCF4AF0190EDBCF4BF01A0E26
:10404A00DBCF4CF01B0EDBCF4DF01200210E45C02A
:10405A00DBFF220E46C0DBFF230E47C0DBFF240E28
:10406A0048C0DBFF12000C0E49C0DBFF0D0E4AC030
:10407A00DBFF0E0E4BC0DBFF0F0E4CC0DBFF120046
:10408A004EDAFF0EEE5CFF0EEE58FF0EEE587F0E74
:10409A00EE58120046EC0FF0236E0C0EE15E235030
:1040AA0000091200010EF36E030EF3CFDBFF1200BC
:1040BA000A50EA6A690FE96E000EEA221200D95024
:1040CA00D60FDCEF21F08F5190119111921112004D
:1040DA00000E276C281E2822291E29222A1E2A227F
:1040EA00D95012001B6A1C6A1D6A1E6A1F6A206A5E
:1040FA00216A226A1200AF6BB06BB16BB26BB36B01
:10410A00B46BB56BB66B1200EECF9BF1EECF9CF1A0
:10411A00EECF9DF1EFCF9EF11200EECF8FF1EECFF1
:10412A0090F1EECF91F1EFCF92F112007FC4E6FF4A
:10413A0080C4E6FF81C4E6FF82C4E6FF120083C49E
:10414A00E6FF84C4E6FF85C4E6FF86C4E6FF1200E4
:10415A00FF0EEE5CFF0EEE58010EEE58000EEE5802
:10416A001200B72B000EB823B923BA2312008F0707
:10417A00000E905B915B925B12009BEC19F079D276
:10418A009351941195119611120082518311841141
:10419A0085111200046E96809482958C958E95886E
:1041AA00958A1200DE6A800EDE6EE2EF24F0010EBE
:1041BA00DE6EDE6AE2EF24F0DE68DE68DE687F0E1D
:1041CA00DD6EDD52DD521200010EDB50EA6AB30FDA
:1041DA00E96E040EEA221200DBCFE6FFD950120084
:1041EA0081899307000E945B955B965B1200F36ED0
:1041FA00010EF3CFDBFF020EDB6A1200010EDBCFEA
:10420A0086F0020EDBCF87F01200E16E2350A0D2B7
:10421A00DBCF2EF02B502C102D102E101200DBCFDE
:10422A0032F02F503010311032101200DBCF36F03E
:10423A0033503410351036101200DBCF3AF03750B5
:10424A00381039103A101200210EDB6A220EDB6A8E
:10425A00230EDB6A1200D89049364A364B364C3662
:10426A00E8061200D8902736283629362A36E80674
:10427A001200010EE66ED9CFE6FFDACFE6FF120092
:10428A00610EE926000EEA2212007A6B7B6B7C6BC8
:10429A007D6B1200236E246A256A266A1200DECF1D
:1042AA00E6FFDDCFE6FF1200F36E020EF3CFDBFF6F
:1042BA00120024DBE66AD9501200CFDAA8EC1CF00F
:1042CA001F0E6EDCEECF9FF1EECFA0F1EECFA1F183
:1042DA00EFCFA2F1A8EC1CF01F0E74DBEECFA3F116
:1042EA00EECFA4F1EECFA5F1EFCFA6F1A8EC1CF02A
:1042FA00170E56DCEECF97F1EECF98F1EECF99F18B
:10430A00EFCF9AF1A8EC1CF0170E5CDB89EF20F0D6
:10431A00E126C1DA040EDB6A050EDB6A060EDB6AE9
:10432A00070EDB6A080EDB6A090EDB6A0A0EDB6A15
:10433A000B0EDB6A47EF24F0E96E61EF1CF023C035
:10434A0049F024C04AF025C04BF026C04CF01200B8
:10435A00D5DA3AEF1FF02F0D0501E2D2140EDBCFAA
:10436A0027F0150EDBCF28F0160EDBCF29F0170E3B
:10437A00CEEF1DF0ABEC1CF067EF1EF00F0B01EF58
:10438A001EF02FDB020E0CDC25EF1FF023C0DFFF2F
:10439A00010E24C0DBFF020E25C0DBFF030E26C080
:1043AA00DBFF12005CEC1DF0010E65EF1CF0E96EFC
:1043BA00FF0EDA20EA6E1200100EDBCF27F0110E84
:1043CA00DBCF28F0120EDBCF29F0130E12000C0EF1
:1043DA00DBCF27F00D0EDBCF28F00E0EDBCF29F056
:1043EA000F0E1200E66AC6D2D9CFE9FF61EF1CF0C0
:1043FA00190E74DAACEC69F0C4DC47EF24F079DA10
:10440A00E66AD95012006DEC1DF0C9D23EEC1DF0DF
:10441A00080E45C0DBFF090E46C0DBFF0A0E47C087
:10442A00DBFF0B0E48C0DBFFF4EF1DF0FD0E236E21
:10443A00BF0E6BEC1CF087C4E6FF88C4E6FF89C494
:10444A00E6FF8AC4E6FF7FEF1DF0F70EDBCF49F0E7
:10445A00F80EDBCF4AF0F90EDBCF4BF0FA0E54EC34
:10446A001DF0DDEF1FF0F30EDBCF49F0F40EDBCFCA
:10447A004AF0F50EDBCF4BF0F60E54EC1DF0EAEFE6
:10448A001FF0D950EB0FB6EC1CF0D950EF0FB6EC79
:10449A001CF0D950F70FB6EC1CF04FEF20F0FADE03
:1044AA000EDEEE502316EE502416EE502516EE5070
:1044BA00261667EF1EF01C0EDBCF23F01D0EDBCF96
:1044CA0024F01E0EDBCF25F01F0EDBCF26F0C7EF40
:1044DA001CF05CEC1DF0070E65EC1CF0E76E120098
:1044EA0061EC1DF07AEC1DF03EEF1FF0AE6E0F0E80
:1044FA00121401EF1EF0AE6E0F0E111401EF1EF032
:10450A00AE6E0F0E101401EF1EF0AE6E0F0E0F14EA
:10451A0001EF1EF0BAEC1CF0010E65EF1CF0D9CFCA
:10452A00E9FFDACFEAFF1200E96EDACFEAFF1200FA
:10453A00DFCF4EF0010EDBCF4FF0020EDBCF50F093
:10454A00030ED0EF24F026C0DBFFDF0EDBCF27F00F
:10455A00E00EDBCF28F0E10EDBCF29F0E20E1200ED
:10456A006BEC1CF08BC4E6FF8CC4E6FF8DC4E6FF3F
:10457A008EC4E6FF7FEF1DF0040EDBCF49F0050E77
:10458A00DBCF4AF0060EDBCF4BF0070E54EF1DF0DF
:10459A000C0EDBCF23F00D0EDBCF24F00E0EDBCF9B
:1045AA0025F00F0E4CEF1DF0080EDBCF49F0090E77
:1045BA00DBCF4AF00A0EDBCF4BF00B0E54EF1DF0A7
:1045CA000C0EDBCF49F00D0EDBCF4AF00E0EDBCF1F
:1045DA004BF00F0E54EF1DF0100EDBCF49F0110E09
:1045EA00DBCF4AF0120EDBCF4BF0130E54EF1DF067
:1045FA00F30EDBCF27F0F40EDBCF28F0F50EDBCF7E
:10460A0029F0F60ECEEF1DF0ABEC1CF01F0EC7EF33
:10461A001CF0246A61EC1DF07FEF1DF0EF0EDBCF7A
:10462A0027F0F00EDBCF28F0F10EDBCF29F0F20EE7
:10463A001200D880190E4954B8EF24F0010F5CEC2F
:10464A001DF0030E65EF1CF0A1D93BEF1EF024C04C
:10465A00E6FF25C0E6FF26C0E6FF1200DBCF4DF0DD
:10466A009ED1D9500C0FADEF1DF0D950100FADEF00
:10467A001DF0E552E552E5521200EECFE6FFEECF0D
:10468A00E6FFEECFE6FFEFCFE6FF12008751AF2736
:10469A008851B0238951B1238A51B22312008B5118
:1046AA00B3278C51B4238D51B5238E51B6231200F2
:1046BA00180EDB6A190EDB6A1A0EDB6A1B0EDB6A3E
:1046CA001200100EDB6A110EDB6A120EDB6A130E81
:1046DA00DB6A12007FEC1DF00F0E236EBE0E6BEC30
:1046EA001CF0D95012007AEC1DF0090E236EBE0E92
:1046FA006BEC1CF0D9501200EE502326EE50242207
:10470A00EE502522EE50262212002F0D09D1A8ECD8
:10471A001CF00F0ED5EF1DF0EE54000EEE54000EF5
:10472A00EE54120094EC1DF03AD1EE58000EEE58F9
:10473A00000EEE581200A8EC1DF0050E2EEF1FF029
:10474A00D950F30FA1EF1DF07AEC1DF0FDEF1DF02B
:10475A00E552E7CFD9FF1200A8EC1CF0060ED5EC03
:10476A001DF0EFCF86F11200A8EC1CF0EE52EFCF4D
:10477A0081F1A8EF1CF0A8EC1DF0250E9BEC1CF0B3
:10478A0076EF1EF0020E236EC00E6BEC1CF09BEF50
:10479A0020F0EE0E236EBF0E6BEC1CF0A4EF20F09F
:1047AA00010E3BEF1EF0D4EC1EF0750EE926000E4A
:1047BA00EA221200D4EC1EF06D0EE926000EEA225F
:1047CA001200E66AE66AE66AE66AB6EF1FF01D0EAE
:1047DA00DB6A1E0EDB6A1F0EDB6A12007FEC1DF01D
:1047EA00FDEC1DF0D7EF20F06BEC1CF0FDEC1DF09A
:1047FA00DCEF20F0ABEC61F0236E070EE15E235094
:10480A001200E80E4E6E030E4F6E506A516A120085
:10481A00D4EC1EF045EF21F0DBEC1EF0EE50ED106B
:10482A001200A8EC1DF0040EE1261200D950F70F71
:10483A00A1EF1DF06BEC1CF0020EE66E120094EC78
:10484A001DF026504D181200E76E040EE7CFDBFF6D
:10485A00120094EC4AF0E5521200C3D8070ED5ECC8
:10486A001DF0EECF87F1EECF88F1EECF89F1EFCFD1
:10487A008AF1A8EC1CF0070EA5D8ADEF1FF05CDD9D
:10488A00D95012000C0EDB6A0D0EDB6A0E0EDB6AC3
:10489A000F0EDB6A1200DE6ADE6A8FD0040F09DDB2
:1048AA000C0F5EEF21F0BAEC1CF0060E65EC1CF062
:1048BA00E66AD950F1EF24F00C0F7CD8040F97D890
:1048CA00B6EF1FF0AE6E1138C3EF21F0AE6E10389E
:1048DA00C3EF21F0AE6E0F38C3EF21F04E6E4F6A70
:1048EA00506A516A1200040F82D833EC1FF0E66A4C
:1048FA001200BAEC1CF0070E65EF1CF05CEC1DF020
:10490A00060E65EF1CF01C0F17DD33EF1FF03AECB3
:10491A001FF0010FD7EF21F0080F69D8E6EF23F057
:10492A00FD51F324E96EFE51F420EA6E12006CDEAA
:10493A006DEC1DF026504D1812006BEC1CF0D9508E
:10494A00FB0FB6EF1CF06BEC1CF04EDDF3EF23F01F
:10495A00010EDBCF23F05DDE04011200DBDD3AEC51
:10496A001FF023EF23F0000E4A54000E4B54000EA2
:10497A004C541200E66A76EC4AF0E552E55212000F
:10498A00D3DDC1EF1DF0DBDC14EF69F0E126DF6A4D
:10499A00010EDB6A1200DBCF51F0ACEF69F04D3447
:1049AA00000E4D1812001238C3EF21F068DF0C0F09
:1049BA0044EF24F0C1DC12EF1FF0DE6ADD6ADD523B
:1049CA00DD521200D5EC1DF0040ED5EF1DF004DC0B
:1049DA00080F55DF78EF24F0080F6BDC100F5EEF3D
:1049EA0021F0A8EC1CF0EFCF80F1A8EF1CF0A4DCBA
:1049FA00F9EF21F00201000000000001320000007E
:104A0A0000000180004D00000002000000000000CC
:104A1A000132000000000001A700FBFFDFFF015781
:104A2A0000EFFF0400014E00F2FF0700014C00F303
:104A3A00FF0800014A00F5FF0A00014400F8FF0BD5
:104A4A0000014800FAFF0D00014E00FCFF0F0001B3
:104A5A005000FFFF100001320000000A00012E0082
:104A6A000200090001330002000A00012D000400BF
:104A7A000800012D0004000800012F0005000800AD
:104A8A0001310007000700012E000700060001326D
:104A9A000008000600013300090005000136000A7B
:104AAA000004000134000A0003000139000B00036E
:104ABA0000013D000C0002000141000D000100014F
:104ACA0046000E0001000146000E00FFFF014100F2
:104ADA000D00FFFF013D000C00FEFF013E000C002F
:104AEA00FDFF0139000B00FDFF0136000A00FCFF43
:104AFA000133000900FBFF0132000800FAFF01350B
:104B0A00000800F9FF012E000600F9FF012E000639
:104B1A0000F9FF012D000400F8FF012D000400F840
:104B2A00FF012E000200F7FF012E000200F7FF012D
:104B3A0032000000F6FF012D000000F7FF012E00F1
:104B4A00FEFFF7FF012900FEFFF8FF012B00FDFF22
:104B5A00F8FF012F00FBFFF8FF012B00FBFFF9FF15
:104B6A00013100F9FFF9FF012E00F9FFFAFF0132C6
:104B7A0000F8FFFAFF013300F7FFFBFF013600F6EA
:104B8A00FFFCFF013900F5FFFDFF013900F5FFFDCC
:104B9A00FF013D00F4FFFEFF014100F3FFFFFF01AB
:104BAA004600F2FFFFFF013200F6FF010001C602D4
:104BBA0000008E00015B00EEFFFEFF015100F0FFD6
:104BCA00FDFF014800F3FFFAFF014100F5FFF9FF7D
:104BDA00013C00F7FFF8FF013A00FAFFF6FF013641
:104BEA0000FCFFF6FF013C00FFFFF4FF0128000173
:104BFA0000F8FF0129000200F8FF0126000300F96E
:104C0A00FF012B000500F9FF012E000700FAFF0142
:104C1A002F000800FBFF0133000900FBFF013F00E2
:104C2A000C00FCFF0100000000000002010000006F
:104C3A0000000132000000000001CE003F006A00BF
:104C4A000200000000000001320000000000011212
:104C5A0002000096FF0141000D000100013E000C18
:104C6A000003000134000A000300012F00080005B8
:104C7A00000140000A000800013D0007000A000187
:104C8A001B0002000500011B0002000500013C0098
:104C9A0001000C00013700FFFF0B00012F00FDFF90
:104CAA000900013600FAFF0900013500F9FF080082
:104CBA00013D00F6FF0700013C00F5FF0500014435
:104CCA0000F3FF0400014600F2FF010001000000AA
:104CDA000000000201000000000001320000000094
:104CEA000001900164FF4AFF020000000000000179
:104CFA0032000000000001A200FBFFE0FF012D00CE
:104D0A00F7FFFFFF012600F9FFFDFF011D00FBFF72
:104D1A00FDFF012000FBFFFCFF012700FBFFFAFF5C
:104D2A00012B00FDFFF8FF012E00FEFFF7FF013205
:104D3A0000FFFFF6FF0132000100F6FF0133000217
:104D4A0000F6FF012B000300F8FF0127000500FA17
:104D5A00FF012A000600FAFF012B000700FBFF01F2
:104D6A002B000800FDFF012F000900FDFF01600074
:104D7A001300FEFF019B001F000000012B00F9FF3A
:104D8A000500012A00FAFF0600012700FBFF0600C2
:104D9A00012800FCFF0700012400FCFF0600012493
:104DAA0000FEFF0700012800FFFF0800012800FF9E
:104DBA00FF0800012D0001000900012D0001000972
:104DCA0000012F0003000900012D00040008000162
:104DDA00280004000700012E0006000700012E002B
:104DEA00070006000132000800060001330009002E
:104DFA000500013100090004000136000A00040020
:104E0A000134000A000300016B001500040001735D
:104E1A0000170001000150001000000001510010AD
:104E2A0000FEFF0148000E00FDFF014A000E00FBD4
:104E3A00FF014A000E00FBFF0141000B00F9FF01D0
:104E4A0040000A00F8FF0139000800F8FF013D00A0
:104E5A000700F6FF013C000500F5FF0138000200DB
:104E6A00F5FF0141000100F3FF0128000000F8FFEF
:104E7A00012900FEFFF8FF012400FEFFF9FF0128C7
:104E8A0000FCFFF9FF012800FCFFF9FF012E00FAE0
:104E9A00FFF9FF012E00F9FFFAFF012B00F9FFFBD2
:104EAA00FF0187001B0000000196000000E2FF01DD
:104EBA00DE033AFF0000017D00E7FF000001690000
:104ECA00EBFF0200015600EFFF0300014400F3FF6D
:104EDA000400013800F6FF0500013D00F6FF070057
:104EEA00013500F8FF0700013D00F9FF0A00013A09
:104EFA0000FAFF0A00013F00FCFF0C00013D00FE22
:104F0A00FF0C00014600FFFF0E00015000010010D7
:104F1A0000014E0004000F0001480006000D0001C8
:104F2A00440008000B0001200004000500012700CE
:104F3A000600050001220006000300012600070002
:104F4A0003000124000700020001290008000200F2
:104F5A0001550011000100010000000000000201DB
:104F6A0000000000000132000000000001EA008A8F
:104F7A0000E5FF020000000000000132000000000E
:104F8A0000016900EBFFFFFF015B00EEFFFDFF017F
:104F9A004F00F1FFFBFF012200FAFFFDFF01220093
:104FAA00FAFFFDFF013C00F7FFF8FF013900F9FFA6
:104FBA00F7FF013400FDFFF6FF013300FEFFF6FFA5
:104FCA000138000200F5FF0134000300F6FF013941
:104FDA00000700F7FF013C000900F8FF011D00056A
:104FEA0000FDFF0126000700FDFF014A000E00FB3D
:104FFA00FF015B001200FDFF0164001400FFFF01C6
:10500A0064001400010001560011000300014F0062
:10501A000F0005000145000C000700013C000900D3
:10502A0008000139000700090001310004000900E5
:10503A0001370001000B00013200FFFF0A000136B0
:10504A0000FCFF0A00013900F9FF0900013C00F7E2
:10505A00FF0800014300F4FF0600014A00F2FF05C1
:10506A0000015600EFFF0300015F00EDFF010001A0
:10507A0000000000000002010000000000013200F0
:10508A000000000001770176FF4EFF0200000000D9
:10509A0000000132000000000001A200FBFFE0FF57
:1050AA00012D00F7FFFFFF012600F9FFFDFF011D9B
:1050BA0000FBFFFDFF012000FBFFFCFF012700FBB7
:1050CA00FFFAFF012B00FDFFF8FF012E00FEFFF79C
:1050DA00FF013200FFFFF6FF0132000100F6FF0177
:1050EA0033000200F6FF012B000300F8FF0127003E
:1050FA000500FAFF012A000600FAFF012B0007004B
:10510A00FBFF012B000800FDFF012F000900FDFF36
:10511A000160001300FEFF019B001F000000012B2D
:10512A0000F9FF0500012A00FAFF0600012700FB2B
:10513A00FF0600012400FCFF0600012800FCFF070F
:10514A0000012400FEFF0700012800FFFF080001FC
:10515A002800FFFF0800012D0001000900012D00B1
:10516A0001000900012F00030009000128000400C2
:10517A000700012D0004000800012E0006000700A8
:10518A00012E000700060001320008000600013364
:10519A000009000500013100090004000136000A77
:1051AA000004000134000A000300016B001500042A
:1051BA0000017300170001000150001000FFFF01F9
:1051CA0050001000FFFF0148000E00FDFF014A00D9
:1051DA000E00FBFF014A000E00FBFF0141000B001D
:1051EA00F9FF0140000A00F8FF0139000800F8FF42
:1051FA00013D000700F6FF013C000500F5FF0138FC
:10520A00000200F5FF0141000100F3FF0128000040
:10521A0000F8FF012900FEFFF8FF012400FEFFF954
:10522A00FF012800FCFFF9FF012800FCFFF9FF013C
:10523A002E00FAFFF9FF012E00F9FFFAFF012B00F9
:10524A00F9FFFBFF0187001B000000019600000028
:10525A00E2FF01DE033AFF0000017D00E7FF0000E4
:10526A00016900EBFF0200015600EFFF0300014451
:10527A0000F3FF0400013800F6FF0500013D00F6C7
:10528A00FF0700013500F8FF0700013D00F9FF0A9A
:10529A0000013A00FAFF0A00013F00FCFF0C00017E
:1052AA003D00FEFF0C00014600FFFF0E000150000A
:1052BA0001001000014E0004000F00014800060022
:1052CA000D0001440008000B000120000400050045
:1052DA00012400060004000124000600040001263F
:1052EA00000700030001240007000200012900084A
:1052FA000002000155001100010001000000000039
:10530A00000201000000000001320000000000015C
:10531A00EA008A00E5FF02000000000000013200F6
:10532A0000000000016900EBFFFFFF015B00EEFFD8
:10533A00FDFF014F00F1FFFBFF012200FAFFFDFF15
:10534A00012200FAFFFDFF013C00F7FFF8FF0139D7
:10535A0000F9FFF7FF013400FDFFF6FF013800FEF8
:10536A00FFF5FF0133000200F6FF0134000300F6E7
:10537A00FF0139000700F7FF013C000900F8FF01AF
:10538A001D000500FDFF0128000700FCFF01490080
:10539A000E00FCFF015B001200FDFF016400140017
:1053AA00FFFF016400140001000156001100030010
:1053BA00014F000F0005000145000C000700013CE9
:1053CA000009000800013900070009000131000442
:1053DA0000090001370001000B00013200FFFF0A3B
:1053EA0000013600FCFF0A00013900F9FF0900013B
:1053FA003C00F7FF0800014300F4FF0600014A00E1
:10540A00F2FF0500015600EFFF0300015F00EDFF08
:10541A00010001000000000000020100000000007D
:10542A0001320000000000018D0189FF32FF0200F5
:10543A000000000000013200000000000196000098
:10544A00001E00012C063C01000001A5000000DF3F
:10545A00FF01300290FF0000012B000700FBFF0153
:10546A002A000600FAFF0127000500FAFF012700BB
:10547A000500FAFF0126000300F9FF0124000200DB
:10548A00F9FF0124000200F9FF0128000000F8FFDB
:10549A00012D000000F7FF012900FEFFF8FF012996
:1054AA0000FEFFF8FF012D00FCFFF8FF012F00FBB3
:1054BA00FFF8FF012B00FBFFF9FF012E00F9FFFAAD
:1054CA00FF012B00F9FFFBFF012F00F8FFFBFF0193
:1054DA003100F7FFFCFF013600F6FFFCFF01340044
:1054EA00F6FFFDFF013900F5FFFDFF013C00F4FF67
:1054FA00FFFF017800E8FFFEFF014600F2FF00000F
:10550A00014700F2FF0200013D00F4FF0200013DE5
:10551A0000F4FF0200013B00F5FF0400013600F62B
:10552A00FF0400013300F7FF0500013300F7FF0510
:10553A0000013100F9FF0700012E00F9FF06000102
:10554A002B00FBFF0700012B00FBFF0700012D00CA
:10555A00FCFF0800012400FEFF0700012900FEFFEE
:10556A000800012D000000090001280000000800C1
:10557A000129000200080001260003000700012695
:10558A00000300070001270005000600012A0006A3
:10559A00000600012E0007000600012F0008000582
:1055AA0000019100E3FF0000020100000000000179
:1055BA0032000000000001C1007400000002000077
:1055CA000000000001320000000000015F00EDFF52
:1055DA00FFFF015000F0FFFFFF014800F2FFFDFF4F
:1055EA00013600F6FFFCFF012800F9FFFCFF012746
:1055FA0000FAFFFBFF012000FBFFFCFF012300FB79
:10560A00FFFBFF012200FDFFFAFF011B00FEFFFB6B
:10561A00FF012000FEFFFAFF0123000000F9FF014D
:10562A0032000100F6FF0131000400F7FF013900E2
:10563A000700F7FF0140000A00F8FF0145000C00CF
:10564A00F9FF0154001000FBFF0156001100FDFF95
:10565A000169001500FFFF01690015000100015BE7
:10566A000012000300014F000F000500012200068E
:10567A0000030001220006000300013C00090008A3
:10568A00000135000700080001360004000A000185
:10569A00320001000A00013200FFFF0A0001360051
:1056AA00FCFF0A00013900F9FF0900014000F6FF7A
:1056BA000800014300F4FF0600014F00F1FF050056
:1056CA00015600EFFF0300016400ECFF0100010036
:1056DA00000000000002010000000000013200008A
:1056EA00000000011001FFFF5DFF02000000000042
:1056FA000001320000000000014B000F00FFFF0113
:10570A0046000E00FFFF0148000E00FDFF013E00AB
:10571A000C00FDFF013B000B00FCFF013C000B00ED
:10572A00FBFF0136000900FAFF0135000800F9FF06
:10573A00012A000600FAFF012B000500F9FF0128E3
:10574A00000400F9FF0128000400F9FF012B0003FF
:10575A0000F8FF0129000200F8FF0128000100F803
:10576A00FF012D000000F7FF0132000000F6FF01E3
:10577A002E00FEFFF7FF012E00FEFFF7FF012B00B0
:10578A00FDFFF8FF012F00FBFFF8FF012B00FBFFD5
:10579A00F9FF012E00FAFFF9FF013200F8FFFAFFC4
:1057AA00013200F8FFFAFF012F00F8FFFBFF013872
:1057BA0000F6FFFBFF013400F6FFFDFF013900F59B
:1057CA00FFFDFF013D00F4FFFEFF014100F3FFFF73
:1057DA00FF014100F3FF0000016900EBFF00000137
:1057EA006000EDFF0200015200F0FF0400014A00D0
:1057FA00F2FF0500014300F4FF0600013D00F6FF39
:10580A000700014000F7FF0900014000F8FF0A0005
:10581A00013F00FAFF0B00013C00FBFF0B00013DBA
:10582A0000FEFF0C00013C00FFFF0C0001320000EB
:10583A00000A00012E0002000900012E00020009E0
:10584A0000012D0004000800012D000400080001D9
:10585A002F0005000800012E000700060001310094
:10586A0007000700013200080006000133000900A2
:10587A0005000136000A0004000134000A00030092
:10588A00013E000C000300013D000C00020001462D
:10589A00000E0001000146000E0001000100000098
:1058AA0000000002010000000000013200000000B8
:1058BA00000139000000DEFF0200000000000001C4
:1058CA00320000000000016900EBFFFFFF015B00EE
:1058DA00EEFFFDFF014F00F1FFFBFF012200FAFF7F
:1058EA00FDFF012400FAFFFCFF014000F6FFF8FF6C
:1058FA00013D00F9FFF6FF013600FCFFF6FF013C0F
:10590A0000FFFFF4FF013C000100F4FF0136000430
:10591A0000F6FF013D000700F6FF0140000A00F80B
:10592A00FF0124000600FCFF0122000600FDFF0122
:10593A0054001000FBFF015B001200FDFF0169002B
:10594A001500FFFF01640014000100015600110058
:10595A000300014F000F00050001260007000300A5
:10596A00012000050004000143000A000900013972
:10597A000007000900013B0004000B000137000189
:10598A00000B00013C00FFFF0C00013600FCFF0A7F
:10599A0000013D00F9FF0A00014000F6FF0800017E
:1059AA002000FBFF0400012600F9FF0300014F005D
:1059BA00F1FF0500015B00EEFF0300016400ECFF4C
:1059CA0001000100000000000002010000000000C8
:1059DA000132000000000001BC01B0FF02FF02001A
:1059EA0000000000000132000000000001AC00DEEF
:1059FA00FFFBFF014300FDFF0D00013C00FFFF0C10
:105A0A00000128000100080001230001000700012D
:105A1A00240002000700011D00030005000119000F
:105A2A00030004000120000500040001190004001D
:105A3A000300011D00050003000123000700010007
:105A4A000133000A0002000191001D0001000194C7
:105A5A000284000000017300000017000196001E76
:105A6A000000000173000000E9FF011D0139000078
:105A7A000001C9001700DFFF019001B0FF0000011B
:105A8A00A0000000E0FF019600E2FF000001A00074
:105A9A0000002000019E027AFF0000014600F2FF8A
:105AAA000000012300F9FFFFFF011D00FBFFFDFFBE
:105ABA00011500FDFFFDFF011B00FEFFFBFF011E9C
:105ACA0000FFFFFAFF0147000200F2FF0100000099
:105ADA000000000201000000000001320000000086
:105AEA00000158075AFF5C04020000000000000190
:105AFA0032000000000001C701A8FFE9FF014100D0
:105B0A000000F3FF015C014400F1FF014C00F1FFCA
:105B1A00FEFF011001CBFFF4FF0141000000F3FF7B
:105B2A0001C7015800E9FF013C0000000C00010711
:105B3A0001CDFF0D00015700EFFF040001570011CE
:105B4A0000040001050133000B00013C0000000CB9
:105B5A0000010601CDFF0C00016100EDFF04000108
:105B6A0061001300040001060133000C000141002A
:105B7A0000000D000100000000000002010000000A
:105B8A0000000132000000000001FF00A8FF83FFAF
:105B9A00020000000000000132000000000001C6FF
:105BAA0001580016000141000000F3FF010501CD74
:105BBA00FFF5FF016200EDFFFBFF0161001300FC2E
:105BCA00FF0105013300F5FF0141000000F3FF0169
:105BDA000501CDFFF5FF015700EFFFFCFF0157005C
:105BEA001100FCFF0107013300F3FF013C00000034
:105BFA00F4FF01C701A8FF170001410000000D00D2
:105C0A0001100135000C00014C000F000300015C7B
:105C1A0001BCFF0F0001410000000D00020100005D
:105C2A000000000132000000000001AC00000099F1
:105C3A00FF02000000000000013200000000000125
:105C4A00C60158001600013C000000F4FF010601DD
:105C5A00CDFFF4FF016200EDFFFBFF0160001300BE
:105C6A00FDFF0106013300F4FF0141000000F3FFCC
:105C7A00010501CDFFF5FF015700EFFFFCFF0157BA
:105C8A00001100FCFF0107013300F3FF013C000093
:105C9A0000F4FF01C701A8FF170001410000000D31
:105CAA000001100135000C00014C000F0003000137
:105CBA005C01BCFF0F0001410000000D0002010061
:105CCA000000000001320000000000019B000000FB
