:060000002AEF06F01200D9
:0600080004EF08F01200F5
:100018000CEF08F012001DEE00F02DEE00F0F86A6B
:0600280046EF06F0120095
:1000300001001C0E0000E6000000020000003E0E61
:10004000006E016AFC0E026E036A046A07680868A3
:100050000968066A1200D9CFE6FFE1CFD9FFE65260
:1000600004501EE1040108BF1AD0400EE66E600E77
:10007000E66E000EE66E34EC05F0E552E552E55210
:10008000010E046EDF6A400EDF5C09E2DF50EA6AAF
:10009000A00FE96E000EEA22EF6ADF2AF4D717D12B
:1000A00000016051080A01E10DD10F0A01E1D3D02E
:1000B000010A01E1CAD0030A67E0010A58E0070A11
:1000C00044E0010A01E003D10001020EA06F00012B
:1000D0003A0EA16F0001010EA26F0001010EA36F85
:1000E0000001A46B100EA56FA66BA76B01C0A8F052
:1000F00002C0A9F003C0AAF0100E0001A95F000E13
:100100000001AA5B0001AB6B0001030EAC6F0001A4
:10011000F80EAD6FAE69AF6BB06B0001080EB16F3A
:10012000B26BB36BB46B0001B56904010CBF0CD0AA
:10013000400EE66EA00EE66E000EE66E04EC05F0D4
:10014000E552E552E552046AC2D00001615107E16F
:100150003F0E006EF80E016E0268036A06D03E0E76
:10016000006E016AFC0E026E036A046AB0D0040ECF
:10017000056E0028055C06E20400AED894EC05F09C
:10018000052AF7D7046AA3D0E868071805E1E868EC
:10019000081802E1E868091806E161C007F062C0CA
:1001A00008F063C009F007500001611908E1085028
:1001B0000001621904E109500001631900E143E103
:1001C000DF6A00016551DF5C3EE2000E075C100E45
:1001D0000858000E09582CE30028596E5A6A0A0E76
:1001E000D89059365A36E806FBE15B6A5ABE5B681E
:1001F0005950075C5A5008585B50095819E23A0E9A
:100200000001D8806555DF24EA6A660FE96E000EAA
:10021000EA22EF50E66E0650E96EEA6AE9BEEA6845
:100220000A0EE926000EEA22E552E750EF6E062A92
:10023000072A000E0822000E09223A0E065C01E190
:100240005ED8DF2ABED7046A42D059D8076808684A
:100250000968046A3CD00001070EA06F61C0A1F0DC
:1002600062C0A2F063C0A3F064C0A4F065C0A5F0B2
:1002700061C0F6FF62C0F7FF63C0F8FFDF6A0001EC
:100280006551DF5C0FE209003A0E0001D880655528
:10029000DF24EA6AA60FE96E000EEA22F5CFEFFF2F
:1002A000DF2AEDD704010CBF0CD0400EE66EA00E85
:1002B000E66E000EE66E04EC05F0E552E552E552FE
:1002C000046A05D06592656A68D8FF0000D0E552DF
:1002D000E552E7CFD9FF1200F66A0550F76EF86ACB
:1002E000D890F736F836F736F836140EA66EF29E2A
:1002F000550EA76EAA0EA76EA682A6941200D9CF9D
:10030000E6FFE1CFD9FFE652DF6A000EE76E06187E
:10031000E8AE02D0063403D0E750D880065436E267
:100320000650596E5A6A5B6A59AE02D05A685B68C9
:100330005950075CF66E5A500858F76E5B500958D2
:10034000F86EDF50EA6A0A0FE96E000EEA22EF50FB
:10035000F56E0D00DF2A0606065009E0DF50EA6A56
:100360000A0FE96E000EEA22EF50F56E01D0F56833
:100370000C00DF2A240EA66EF29E550EA76EAA0E62
:10038000A76EA682065001E00606BFD7A694066AAD
:10039000E552E552E7CFD9FF1200D9CFE6FFE1CF12
:1003A000D9FFE652DF6AFF0EDF5C0AE2E868E85038
:1003B00005E0E80600D000D000D0F9D7DF2AF3D757
:1003C000E552E552E7CFD9FF12005FD9E6526450FB
:1003D00032E16296040100513C0BE842E8420D080C
:1003E00028E1180E021923E1040E031920E1100E72
:1003F000026F040E036FDF6ADF50596E5A6A080EEF
:10040000595C000E5A5813E2DF50EA6A180FE96E81
:10041000040EEA22EF50E66EDF50EA6A100FE96E32
:10042000040EEA22E552E750EF6EDF2AE5D70ED838
:100430000AD03DD808D0040E645C03E162964DD822
:1004400002D0000E01D0010EE55224D11ED9E65291
:10045000040104BF046B536A4F6A506A516A526ABE
:1004600055EC03F0DF6ADF50596E5A6A010E595C91
:10047000000E5A5819E2505017E1F76ADF34FE0BAC
:10048000F736F66EFA0EF6260D0EF7220900F5CFB6
:1004900059F00800F5CF5AF004D05AC0FAFF59506D
:1004A000F96EFBDFDF2ADFD79ED8E552F3D0020ECC
:1004B0004F5C0EE176D80401180E026F040E036F34
:1004C000080E016F00BD02D0C80E05D0880E03D003
:1004D000BCD8CCD88C0E006F1200040E555C0AE11B
:1004E00012C438FF0F013851000802E2050E01D096
:1004F000030E556E4F040FE110D8020E535C03E15A
:100500000401840E06D0040104BD02D0C80E01D03F
:10051000880E046F120025EF03F0B7D8020EE12613
:10052000080E515C000E52580DE251C0DEFF52C061
:10053000DDFF535002E1010E03D0530406E1020E29
:10054000536E03D0080EDE6EDD6A0401049304913D
:10055000010EDB500413DFCF05F4DE50515EDD5099
:10056000525A0001180EE26F040EE36F56A20CD02F
:1005700085D810E0E0C0F6FFE1C0F7FF0800F550B5
:1005800068D8F6E2DB06F4D779D804E087D8FCE235
:10059000DB06FAD7020EE15C02E2E16AE552E16EA7
:1005A00079D073D8020EE126030E04010015E76E20
:1005B000010EE7CFDBFF01C4DFFFDE505126DD5027
:1005C00052220001180EE06F040EE16F57D804E0CC
:1005D00065D8FCE2DB06FAD7020EE15C02E2E16AD2
:1005E000E552E16E57D06598505005E13FD8840E32
:1005F000006F040118D0040110AF17D05150165DE0
:100600005250175904E216C451F017C452F085DF56
:10061000010E4F6E2BD8800E006F0401180E066F6E
:10062000040E076FC80E046F1200020E4F6E040115
:10063000056BC80E046F0401080E016F180E026FDF
:10064000040E036FC80E006F12004F6A0401046BA2
:100650001200E2C0E9FFE3C0EAFFEF6EE22B000EFA
:10066000E323E02BE123DF06010E12000401080E54
:10067000016F100E026F040E036F1200D9CFE9FF55
:10068000DACFEAFFEE50ED101200D9CFE6FFE1CF4E
:10069000D9FF1200E552E7CFD9FF1200E0C0E9FF11
:1006A000E1C0EAFFEF5029EF03F004011051600BA5
:1006B000E842E842E842E842E842000901E012006C
:1006C0001151070A43E00B0A41E0070A34E0010A2E
:1006D00024E00B0A20E0020A1EE0030A1AE0080ADE
:1006E00010E0010A0CE00F0A08E0030A01E0120022
:1006F000010E506E040E556E1200A7EF03F0DDEFF1
:1007000003F0010E506E0001570EE06F000EE16F16
:100710000ED0F7EF03F025EF04F0010E506E1451E8
:100720000001E06FE16B580EE027000EE1235692C6
:10073000010E516E1200010E506E1451EA6A580FEC
:10074000E96E000EEA2212C4EFFF12001200800EC2
:100750000401105D31E11351030A20E0010A0BE0AE
:10076000030A29E1010E506E00013A0EE06F0D0EF2
:10077000E16F120E1ED0AAD8F00EF6260D0EB8D8D4
:10078000020E0001F76AE025F66EE151F72209003A
:10079000F5CF51F00A00F5CF52F00DD097D8F40EF6
:1007A000F6260D0EA5D8E0C0F6FFE1C0F7FF080061
:1007B000F550516E526A56821200010E506E0F0EA5
:1007C000E66E270EE66E0F0E9BD8010EE66E580EF3
:1007D000E66E000E95D812C457F00401125103E1E1
:1007E000050E556E1200060E556EEFEF04F0040173
:1007F000186B196B040110511F0B020A0EE0030A5B
:1008000009E0010A17E1010E506E56A013D0040151
:10081000188310D0010E506E0DD04AD801E0010EA1
:100820005ED8E2C0E9FFEA6EEF50040B03E004017A
:10083000010E186F500408E10001180EE06F040E5D
:10084000E16F5692020E516E1200040112050CE186
:1008500010511F0B000908E1010E506E030E115DCF
:1008600002E1568001D05690125121E110511F0B28
:1008700002081DE114510F0B000919E019D801E01D
:10088000010E2DD8030E0401115D02E1840E03D088
:1008900014AF07D0400EE2C0E9FFE3C0EAFFEF6EFD
:1008A0001200880EE2C0E9FFE3C0EAFFEF6E12001B
:1008B000010E506E14510F0B080DF3505A6A000FC1
:1008C000596E040E5A221451800B1200010E506E04
:1008D0001251F66EF76AD890F636F7361200040D0C
:1008E000F35000015924E26F000E5A20E36F12000A
:1008F000F7220900F5CFE0F00A00F5CFE1F0120091
:10090000E66E15EC06F0E552E552E55212000401E0
:1009100010511F0B010801E01200145101E01200F8
:10092000060E115D21E11351230A1DE0010A0DE0BD
:10093000030A19E1020E506E570405E100015E0E34
:10094000E06F0D0EE16F090E0CD0020E506E5704D1
:1009500005E10001D30EE06F0D0EE16F570403E1D6
:100960001D0E516E526A568204011051600BE8420E
:10097000E842E842E842E842010801E01200115171
:100980000B0A26E0080A19E0090A12E0080A09E041
:100990000B0A05E0080A01E01200EDEF04F0EEEFAB
:1009A00004F0020E506E00014A0EE06F000E0BD0F4
:1009B000020E506E13C44AF01200020E506E000177
:1009C0004B0EE06F000EE16F5692010E516E120059
:1009D000020E506E12C44BF01200120012004C6A4C
:1009E0000F011E0E276F0401400E096F200E0A6FC3
:1009F000040E0B6F880E086F0401600E0E6F040E5C
:100A00000F6F400E0C6F1200D9CFE6FFE1CFD9FF78
:100A1000E652FC0EDB50400805E2400EF36EFC0E81
:100A2000F3CFDBFFDF6AFC0EDB50DF5C0FE2DF5051
:100A30004DD8EF50E66EDF50EA6A600FE96E040EA3
:100A4000EA22E552E750EF6EDF2AEDD7FC0EDBCF4E
:100A50000DF4400E04010C170C7D880E0C13E552AA
:100A6000E552E7CFD9FF1200D9CFE6FFE1CFD9FF9A
:100A70004C6A040108BF25D0FC0EDBCF59F00951A8
:100A8000D880595403E2FC0E09C4DBFF4C6AFC0E0B
:100A9000DB504C5C0FE24C50EA6A200FE96E040E0A
:100AA000EA22EF50E66E4C5011D8E552E750EF6E57
:100AB0004C2AEDD70401400E096F0817087D880EF7
:100AC00008134C50E552E7CFD9FF1200E76EFD0E38
:100AD000DBCFE9FFFE0EDBCFEAFFE750E926000E91
:100AE000EA22120082AE04D065B604D00FD802D03C
:100AF00065B613D8550409E165BA07D0626A0F01DB
:100B0000366B36813689020E556E1200656A0F010A
:100B1000366B6586010E556E1200656A0F01366BE5
:100B2000556A12008DEF05F0555001E11200625038
:100B3000040B05E00F013651040B01E032D865B219
:100B400012006250010B05E00F013651010B01E06C
:100B50003BD86250100B05E00F013651100B01E03D
:100B60001FD86250200B05E00F013651200B01E029
:100B700019D8030E555C01E21200546A040E545C4D
:100B80000EE26250080B0BE00F013651080B07E034
:100B9000E5EC01F0000901E16296542AEFD712005A
:100BA000120012000F0126A10DD0800E0401005D7D
:100BB00007E1840E0401045D03E104018C0E006F63
:100BC0000F012691629A1200636A626A0F019F0EFA
:100BD000376F0F017B0E366F0F01386B0F0EE66E0D
:100BE000270EE66E0F0EE66E20D8E552E552E5526E
:100BF0000F01160E266F62A605D0629600D000D0B7
:100C00000000F9D7659825EC03F00401080E016F88
:100C10000401100E026F040E036F04018C0E006FAE
:100C20005690576A030E556E1200D9CFE6FFE1CFFA
:100C3000D9FFFD0EDBCFE9FFFE0EDBCFEAFFFC0E96
:100C4000DB5004E0EE6AFC0EDB06F9D7E552E7CF95
:100C5000D9FF12001DEE00F02DEE00F0F86AF66AE2
:100C6000100EF76E0800F550FF0808E1010EF66E51
:100C7000100EF76E0800F550FF0806E080AE02D0B7
:100C800000EF08F080AEFED701D812000DD80400A6
:100C900033D836D8060E555C05E16550020B02E1EB
:100CA0002BEC00F0F4D71200600ED36E9B8C580E24
:100CB0004D6E020E4E6E4DC059F04EC05AF04D06AC
:100CC000000E4E5A59505A10F6E165A604D06592AE
:100CD000656ACDEC01F0948E0F01140E396F556AE0
:100CE000566A576A1FEC00F08C968C9495969594F2
:100CF0000F01486B496B120072EC05F094EF05F0A0
:100D0000060E555C02E28C868C94060E555C14E14E
:100D10000001200EE65D4E0EE75902E38C868C94AE
:100D2000400EE65D9C0EE75904E38C968C84E66BDE
:100D3000E76BE62B000EE723120012010002000011
:100D40000008D8043C000200010200010902290049
:100D5000010100C032090400000203000000092163
:100D600011010001221D0007058103400001070554
:100D700001034000010403090434034D00690063CA
:100D80000072006F0063006800690070002000546A
:100D9000006500630068006E006F006C006F006704
:100DA000007900200049006E0063002E00260348F1
:100DB000004900440020005500530042002000423A
:100DC000006F006F0074006C006F006100640065CC
:100DD0000072000600FF0901A10119012940150058
:100DE00026FF00750895408100190129409100C037
:100DF0004C0D4C0D750D790DAD0D0E09C00EF36E39
:100E000000EE00F00E0E01D81200EA6002D0EE6A89
:0E0E1000FCD7F350E9601200EE6AFCD7000038
:06100000C5EF46F01200EE
:0610080028EF08F01200C1
:06101800D3EF1DF01200F1
:10102A0003003E8E0000F9010000070000003C8E1C
:10103A000000FA00000002000000BE8D00008002DD
:10104A0000007E000000DACFE4FFE9CFE4FFEACF38
:10105A00E4FFF3CFE4FFF4CFE4FFE6529E90FE0EE6
:10106A00CF6E360ECE6E09B28C820080010180A945
:10107A0033D0045004E15F0E831481118C6E02A0F8
:10108A0016D009A402D007EC1BF0B8EC1CF026AE6F
:10109A000ED0269E818D0DEC1BF009A404D02F2AB8
:1010AA0030223122322290EC1AF001E1029003A0A0
:1010BA000BD0C1EC1CF02AAE07D02A9E75EC1BF0AF
:1010CA001CEC1BF001E10390010E021444E1010E35
:1010DA00031401E176D03FD080AB3FD002A01FD0ED
:1010EA0009A402D007EC1BF088EC19F026AE17D041
:1010FA007F0E2614266E818D0DEC1BF009A404D0F8
:10110A002F2A3022312232228AAF03D0818F8C8E4D
:10111A0002D0819F8C9E90EC1AF001E1029003A00C
:10112A0014D09AEC19F02AAE10D07F0E2A142A6E27
:10113A0075EC1BF08EAF03D0818B8C8A02D0819B19
:10114A008C9A1CEC1BF001E10390010E021403E1DE
:10115A00010E031436E0009034D080AD32D002A0E4
:10116A0030D000900DEC1BF090EC1AF001E10290E7
:10117A0009A402D007EC1BF088EC19F026AE12D0B5
:10118A007F0E2614266E818D09A405D02F2A000E03
:10119A003022312232228AAF03D0818F8C8E02D044
:1011AA00819F8C9E9AEC19F02AAE0BD07F0E2A14DE
:1011BA002A6E81898EAF03D0818B8C8A02D0819B63
:1011CA008C9A500E811542E0045005E10F0E8314EB
:1011DA0081118C6E0ED081AF02D08B8401D08B949A
:1011EA0081AB02D0898401D0899481BD8B8C81B96D
:1011FA00898A81AD19D081AF0CD01B06000E1C5A0A
:10120A001D5A1E5A09A410D03306345A355A365A72
:10121A000BD01B2A000E1C221D221E2209A404D058
:10122A00332A34223522362281A90DD081AB06D049
:10123A001F06000E205A215A225A05D01F2A000ED4
:10124A00202221222222AF0E8117D4D080A358D087
:10125A0005A03AD0AA050A6EA851A9111AE189EC8B
:10126A001AF0EF500001EA6A8025E96E8151EA22FC
:10127A00EF6AFFEC1CF0EE6AED6A05EC1DF0EE6A0F
:10128A00ED6A89EC1AF0EF6A20EC1DF0EE6AED6A5D
:10129A001BD0FFEC1CF0ABC1EEFFACC1EDFF05ECBF
:1012AA001DF0A8C1EEFFA9C1EDFF89EC1AF0A7C194
:1012BA00EFFF20EC1DF0EE50ED1006E120EC1DF0E2
:1012CA00A8C1EEFFA9C1EDFF00018A510101A75D86
:1012DA0017E1000184510101A8190CE100018551AF
:1012EA000101A91907E1010EB46FB16BBC5108E005
:1012FA008A9806D0B46B010EB16FBC5101E08A889E
:10130A00030E80150DE021EC1BF074E08207000E3D
:10131A00835B845B855B21EC1BF06CE000906AD0F8
:10132A0080A529D0865122E0ADC157F0AEC158F050
:10133A00D89058325732D890583257325750BB6EDD
:10134A00BAC159F0BBC15AF0040ED89059365A3670
:10135A00E804FBE1300E5916000E5A16CF0EBA14E5
:10136A005910576E5AC058F0E85003D0BB6ACF0ED6
:10137A00BA14BA6E3ED080A73DD08151000823E24C
:10138A00045002E18D9001D08C92810503E18D8495
:10139A008D82898C020E815D03E18D848D82899C08
:1013AA00030E815D03E18D948D82899C040E815D1B
:1013BA0003E18D848D92899C050E815D09E18D94EE
:1013CA008D92899C05D0045002E18D8001D08C82D7
:1013DA00A751000806E2045002E18B9207D08992D5
:1013EA0005D0045002E18B8201D08982DCEC19F02D
:1013FA000E90008009A489D0010E001404E1080EA1
:10140A00091401E182D0700E0101801501E17DD03D
:10141A00098E2BC00FF02CC010F02DC011F02EC079
:10142A0012F0ADA2FED71250AE6EADA2FED7115089
:10143A00AE6EADA2FED71050AE6EADA2FED70F5063
:10144A00AE6E2FC00FF030C010F031C011F032C0B4
:10145A0012F0ADA2FED71250AE6EADA2FED7115059
:10146A00AE6EADA2FED71050AE6EADA2FED70F5033
:10147A00AE6E23C00FF024C010F025C011F026C0B4
:10148A0012F0ADA2FED71250AE6EADA2FED7115029
:10149A00AE6EADA2FED71050AE6EADA2FED70F5003
:1014AA00AE6E87C10FF088C110F089C111F08AC1F0
:1014BA0012F0ADA2FED71250AE6EADA2FED71150F9
:1014CA00AE6EADA2FED71050AE6EADA2FED70F50D3
:1014DA00AE6E33C00FF034C010F035C011F036C014
:1014EA0012F0ADA2FED71250AE6EADA2FED71150C9
:1014FA00AE6EADA2FED71050AE6EADA2FED70F50A3
:10150A00AE6EADA2FED70A0EAE6E0C501CE0815034
:10151A000B6EE8500D18E81C0C1415E0010E0E14A1
:10152A0012E10BC0DCF00E80026A036A0080146AC2
:10153A00156A166A016A200E015C05E20150FBEC8D
:10154A0019F0012AF8D700A0ECD00101806B1450E1
:10155A0001E1CFD009B28C8006B08C940001A85169
:10156A0002E0010EA86F16501BEC1CF0EF50176E2C
:10157A0017A803D034EC1DF004D017AA14D0C6EC77
:10158A001BF0D2EC1CF0ADEC1AF0D2EC1CF0040EFD
:10159A0009EC19F0EECF93F1EECF94F1EECF95F17D
:1015AA00EFCF96F108D017AC10D0C6EC1BF0D2ECF6
:1015BA001CF0ADEC1AF0EAEC1CF0020E09EC19F082
:1015CA00B2EC19F0E3EC1CF045D017A223D032ECB0
:1015DA001CF01BEC18F0280E09EC19F0EECFA8F15C
:1015EA00EDCFA9F11BEC18F0270E09EC19F0EFCF9B
:1015FA00A7F11BEC18F02A0E09EC19F0EFCFAAF1AB
:10160A001BEC18F02B0E09EC19F0EECFABF1EDCF75
:10161A00ACF120D017A003D032EC1CF01BD017A4D9
:10162A000ED032EC1CF0E3EC1CF01BEC18F02D0E83
:10163A0009EC19F0EECFADF1EDCFAEF10BD01BEC0A
:10164A0018F0EFCF80F1EAEC1CF0270E09EC19F044
:10165A00EFCFA7F1700E0101801531E086A909D0FC
:10166A0082C123F083C124F084C125F085C126F00C
:10167A001AD086A104D0236A246A256A266A86A318
:10168A0004D0276A286A296A2A6A86A505D02368A7
:10169A00246825687F0E266E86A705D027682868E5
:1016AA0029687F0E2A6E90EC1AF002E0028001D0BF
:1016BA0002901CEC1BF002E0038001D0039009A405
:1016CA000CD02B6A2C6A2D6A2E6A2F6A306A316A0C
:1016DA00326A336A346A356A366A1650FBEC19F094
:1016EA00162A1850165C01E3166A14501AE01406FA
:1016FA0018D00001A8050CE10001E80EAB6F030E3B
:10170A00AC6FA9C0ADF0AAC0AEF00001020EA86F7E
:10171A000101826B836B846B856B06B08C8409B282
:10172A00898280AE078008A002D081A00780045079
:10173A0003E18C9C8C9802D08B9C899A09AE06D0C6
:10174A009E90FE0ECF6E360ECE6E099E09A203D073
:10175A0089928C908C92E552E5CFF4FFE5CFF3FFA6
:10176A00E5CFEAFFE5CFE9FFE5CFDAFF1100010196
:10177A00BF6BC06BC16BC26B96EC1BF0C76BC86BBF
:10178A00C96BCA6BCB6BCC6BCD6BCE6B1BEC1AF0F7
:10179A00D76BD86BD96BDA6BDB6BDC6BDD6BDE6B13
:1017AA0012EC1AF0E76BE86BE96BEA6B1200D9CF1F
:1017BA00E6FFE1CFD9FFE652DF6A020EDF5C2DE2D7
:1017CA00DF50040DF3CFE9FFF4CFEAFF870EE926D5
:1017DA00010EEA22010EEE6EEE6AEE6AEE6ADF5042
:1017EA00040DF3CFE9FFF4CFEAFF8F0EE926010ECD
:1017FA00EA22EE6AEE6AEE6AEE6ADF50040DF3CF71
:10180A00E9FFF4CFEAFF9F0EE926010EEA22EE6A0B
:10181A00EE6AEE6AEE6ADF2AD0D70101806B010117
:10182A00816B0101826B836B846B856B0101A86BF1
:10183A00A96B0101A76B0101AA6B0101AB6BAC6B30
:10184A000690096ACD82CD9ECD9CCD9ACD98CD9633
:10185A00CD94CF6ACE6A9F809E909D80CD809280E3
:10186A009F9C010EE66EE66A2FEC29F0E552E552DE
:10187A00010EE66E0B0EE66E2FEC29F0E552E552EC
:10188A008D8496948D829692898C929C8D80969066
:10189A008B8294928C9C959C8C9E959E8C98959804
:1018AA008C9A959A949E828E000000000000000097
:1018BA00000000000000000000000000000000001E
:1018CA000000000000000000000000000000948EEC
:1018DA00829E0101010EBC6F05808A9893988996B1
:1018EA0092960101010EB16F046A0101010EB46FF3
:1018FA00DF6A200EDF5C09E2DF50EA6A580FE96E00
:10190A00010EEA22EF6ADF2AF4D70101B56BB66B42
:10191A00B76BB86B076A0101BE6B0101010EBD6F9F
:10192A00146A156A166A010E186E050E196E1A6A7D
:10193A009380F19E0880939681960B6A0C6A0D6AD1
:10194A000E900CEC18F0E552E552E7CFD9FF1200E1
:10195A00EBEC18F0030EC6EC19F01EEC1CF0E66A6C
:10196A000BEC1DF0030EA0EC1DF001E0ABD0DF0480
:10197A0020E123EC1DF007E10101010EBC6F059087
:10198A00FEEC19F00ED040EC19F0010EEE1805E14C
:10199A00ED5003E10101BC6B03D00101010EBC6FE4
:1019AA000580000EE66EE66AB4C1E6FF13EC1BF092
:1019BA0087D0020EDF5C2DE123EC1DF008E1046AFA
:1019CA0096909492959C959E9598959A1BD040ECEA
:1019DA0019F0010EEE180CE1ED500AE1010E35EC9A
:1019EA001BF094949294949C929A9592929268D0B5
:1019FA0040EC19F0020EEE1863E1ED5061E1020EBF
:101A0A0035EC1BF094849284948C928A958292820B
:101A1A0057D0040EDF5C07E1010EDBCF84F0020E23
:101A2A00DBCF85F04DD0050EDF5C07E1010EDBCF81
:101A3A0082F0020EDBCF83F043D0080EDF5C0FE1A9
:101A4A0040EC19F0040ED880EE54000EED5403E277
:101A5A00040E7CEC1BF0010EDBCF7EF031D0090EB8
:101A6A00DF5C0FE140EC19F0060ED880EE54000E50
:101A7A00ED5403E2060E7CEC1BF0010EDBCF7FF087
:101A8A001FD00A0EDF5C03E183EC1BF009D00B0EBA
:101A9A00DF5C03E183EC1BF013D00C0EDF5C07E183
:101AAA00010EDBCF88F0020EDBCF89F009D00D0ED4
:101ABA00DF5C06E123EC1DF002E0088001D008900B
:101ACA000DEC19F0030EE15C02E2E16AE552E8EF7F
:101ADA0018F046EC1DF0B6EC1DF071EC1DF0DF6E4F
:101AEA000001975122E10101BD5119E0C751C81106
:101AFA00C911CA1103E19BEC1BF003E026EC1BF0B1
:101B0A000EE1CB51CC11CD11CE1103E1A0EC1BF0AB
:101B1A0003E02BEC1BF003E10001978D06D096EC55
:101B2A001BF012EC1AF03DEC1BF064EF1AF046ECD5
:101B3A001DF0DF0EE66E010EEDEC1BF0B6EC1DF0AB
:101B4A0058EC1DF02AE10101BD5123E0C751C8112B
:101B5A00C911CA1108E19BEC1BF005E1DF51E01144
:101B6A00E111E21103E026EC1BF013E1CB51CC1199
:101B7A00CD11CE1108E1A0EC1BF005E1DF51E01117
:101B8A00E111E21103E02BEC1BF003E10001978D58
:101B9A0004D096EC1BF03DEC1BF064EF1AF050EC0D
:101BAA001DF0DF0EE66E010EEDEC1BF0CB0EE66EBD
:101BBA00010E58EC1DF00DE10101BD5106E095EC56
:101BCA001AF003E10001978D04D01BEC1AF0B6EC71
:101BDA001AF064EF1AF050EC1DF0CB0EE66E010E0F
:101BEA0071EC1DF0DF6E000197510FE10101BD514B
:101BFA0006E095EC1AF003E10001978D06D01BEC84
:101C0A001AF012EC1AF0B6EC1AF064EF1AF0EBECD8
:101C1A0018F0050E45EC1BF00EB0F6D109B405D04C
:101C2A00BBEC19F002E2D7EC1CF0FE0EDB5028E107
:101C3A000101800ED2150FE0800ECA1512E1000EC6
:101C4A0055EC1BF0C76DC81FC823C91FC923CA1F7B
:101C5A00CA234DEC1BF0800ED61512E0800ECE156D
:101C6A0003E00001978DD0D1000E65EC1BF0CB6D1F
:101C7A00CC1FCC23CD1FCD23CE1FCE235DEC1BF072
:101C8A0001012A6B2B6B2C6B2D6B2E6B24EC1AF03B
:101C9A00020E5EEC1AF03D500101C75D4B6E3E50DC
:101CAA00C8594C6E3F50C9594D6E4050CA594E6E74
:101CBA00DFC13DF0E0C13EF0E1C13FF0E2C140F0DA
:101CCA00060E5EEC1AF04B503D240101C76F4C50D2
:101CDA003E20C86F4D503F20C96F4E504020CA6FFA
:101CEA002DEC1AF0020E5EEC1AF03D500101CB5DAC
:101CFA004B6E3E50CC594C6E3F50CD594D6E4050B4
:101D0A00CE594E6EE3C13DF0E4C13EF0E5C13FF06D
:101D1A00E6C140F0060E5EEC1AF04B503D2401017C
:101D2A00CB6F4C503E20CC6F4D503F20CD6F4E5064
:101D3A004020CE6F01012F6B09A42ED0FD0EDB507F
:101D4A000BE1100E2F6FE7C12BF1E8C12CF1E9C1AD
:101D5A002DF1EAC12EF187D040EC1CF002E637ECF7
:101D6A0019F00FE3D1EC18F00EE15FEC1CF002E67B
:101D7A0037EC19F006E3D1EC18F005E1800EE21514
:101D8A0002E016EC1BF0040EDB5003E001012F8584
:101D9A006AD001012F8167D0E7C14BF0010EBFEC79
:101DAA001AF01FE040EC1CF002E637EC19F00FE3E2
:101DBA00D1EC18F00EE15FEC1CF002E637EC19F0FA
:101DCA0006E3D1EC18F005E1800EE21502E016EC0C
:101DDA001BF0040EDB5003E001012F8502D0010144
:101DEA002F81E7C14BF0020EBFEC1AF03CE0040E63
:101DFA00DB6AAFEC1BF00101CB51EE244B6ECC51E8
:101E0A00EE204C6ECD51EE204D6ECE51B2EC18F054
:101E1A0002E637EC19F01DE3D1EC18F01CE1E30EF1
:101E2A00E96E010EEA6EDB51EE244B6EDC51EE20B8
:101E3A004C6EDD51EE204D6EDE51B2EC18F002E62A
:101E4A0037EC19F006E3D1EC18F005E1800EE6153F
:101E5A0002E016EC1BF0040EDB5003E001012F87B1
:101E6A0002D001012F83AAEC1BF0EE500101D75DCD
:101E7A00D76FEE50D859D86FEE50D959D96FEE5066
:101E8A00DA59DA6FE30EE96E010EEA6EEE50DB5DA7
:101E9A00DB6FEE50DC59DC6FEE50DD59DD6FEE5032
:101EAA00DE59DE6F0001D90502E18D908B92C7C120
:101EBA0030F1C8C131F1C9C132F1CAC133F1FE0EE4
:101ECA00DB5009E0C3C138F1C4C139F1C5C13AF1E7
:101EDA00C6C13BF102D0C8EC1AF0D7C148F1D8C14B
:101EEA0049F1D9C14AF1DAC14BF1DFC140F1E0C190
:101EFA0041F1E1C142F1E2C143F1CBC134F1CCC1BC
:101F0A0035F1CDC136F1CEC137F1FE0EDB5006E018
:101F1A0001013C6B3D6B3E6B3F6B02D0D1EC1AF07A
:101F2A00DBC14CF1DCC14DF1DDC14EF1DEC14FF137
:101F3A00E3C144F1E4C145F1E5C146F1E6C147F127
:101F4A00FE0EDB5003E00101400E02D00101200E1B
:101F5A00296F09AA4BD0F1EC1CF0E0EC18F050EC18
:101F6A001CF0070E4B6E760E1EEC18F048C1E6FF09
:101F7A0049C1E6FF4AC1E6FF4BC1E6FFE0EC18F0B3
:101F8A00020E4B6E760E1EEC18F040C1E6FF41C100
:101F9A00E6FF42C1E6FF43C1E6FFE0EC18F0F8ECC9
:101FAA001CF0E0EC18F0F80E4B6E750E70EC1CF09D
:101FBA00F30E4B6E750E1EEC18F04CC1E6FF4DC1C8
:101FCA00E6FF4EC1E6FF4FC1E6FFE0EC18F0EE0E69
:101FDA004B6E750E1EEC18F044C1E6FF45C1E6FFD4
:101FEA0046C1E6FF47C1E6FF7BEC1DF009BC0AD0FB
:101FFA001850145CFDE20EB005D04EEC18F001E367
:10200A00156A142A0DEC19F0050EE15C02E2E16A88
:10201A00E552E8EF18F021EC1CF0CAEC1CF0CF0EE8
:10202A00E66E010E77EC1DF0D30EE66E010EF0ECB3
:10203A001BF00001975101E01200C1DA0DEF19F00F
:10204A00EBEC18F0050EE126010EDF6EDB6A020EDC
:10205A00DB6A030EDB6A040EDB6A21EC1CF088ECF7
:10206A001CF0010EE66EDF0EE66E010E77EC1DF037
:10207A00E30EE66E010ECFEC1DF00101BD5106E044
:10208A0095EC1AF003E10001978DBFD11850145C4A
:10209A00FDE2DF040AE1F29E010121EC1BF003E1FB
:1020AA00805101E1DF6AF28EF4D71BC03DF01CC0FB
:1020BA003EF01DC03FF01EC040F0ACEC19F03950A4
:1020CA000101DF25CF6F3A50E021D06F3B50E1216B
:1020DA00D16F3C50E221D26F1FC03DF020C03EF0CC
:1020EA0021C03FF022C040F0ACEC19F03950010198
:1020FA00E325D36F3A50E421D46F3B50E521D56FE5
:10210A003C50E621D66F800ED21506E0ECEC1AF0B0
:10211A00000E4DEC1BF002D0ECEC1AF0800ED61536
:10212A0006E0F5EC1AF0000E5DEC1BF002D0F5ECBF
:10213A001AF0DA35000EDA1909E6D880FF0ED755FB
:10214A00FF0ED855FF0ED955000EDA550EE3DE35CF
:10215A00000EDE1909E6D880FF0EDB55FF0EDC55AE
:10216A00FF0EDD55000EDE5504E2C00E4B6E750EF5
:10217A00A4D0A5EC1BF0030EEBCFF3FFDE51F3184E
:10218A00E8AE02D0F33408D0EE50DB5DEE50DC59F5
:10219A00EE50DD59EE50DE5901E387D090EC1DF088
:1021AA0026EC1CF004E28F0E4B6E750E86D0CAEC3C
:1021BA0019F00101DE19E8AE02D0DE3508D0DB5194
:1021CA003D5CDC513E58DD513F58DE51405801E23A
:1021DA0000D1A0EC1BF001E1FCD095EC1DF029EC3C
:1021EA0018F00101BEEC1BF002E65BEC19F006E206
:1021FA00C2EC1BF002E665EC19F01FE3800ED21563
:10220A0006E0C2EC1BF002E665EC19F009E3BEEC4D
:10221A001BF002E65BEC19F00AE2800ED61507E025
:10222A0048EC1AF0ACEC19F06BEC1AF012D0800EF4
:10223A00D2150FE0800ED6150CE0010ED3C1DBFFDC
:10224A00020ED4C1DBFF030ED5C1DBFF040ED6C1DB
:10225A00DBFFCFC1C7F1D0C1C8F1D1C1C9F1D2C129
:10226A00CAF1010EDBCFCFF1020EDBCFD0F1030EA4
:10227A00DBCFD1F1040EDBCFD2F151EC1AF040ECF6
:10228A0019F0EE500101C75DCF6FEE50C859D06FFB
:10229A00EE50C959D16FEE50CA59D26FD36BD46B75
:1022AA00D56BD66B36EC1AF088D095EC1DF026EC7F
:1022BA001CF008E25E0E4B6E750E1EEC18F0020E54
:1022CA00E66EA0D0CAEC19F00101DA19E8AE02D024
:1022DA00DA3508D0D7513D5CD8513E58D9513F58CC
:1022EA00DA51405876E39BEC1BF073E090EC1DF05A
:1022FA0029EC18F00101C2EC1BF002E665EC19F0BA
:10230A0006E2BEEC1BF002E65BEC19F01FE3800E5E
:10231A00D61506E0BEEC1BF002E65BEC19F009E309
:10232A00C2EC1BF002E665EC19F00AE2800ED21547
:10233A0007E055EC1AF0ACEC19F06BEC1AF012D07D
:10234A00800ED6150FE0800ED2150CE0010ECFC11B
:10235A00DBFF020ED0C1DBFF030ED1C1DBFF040E8F
:10236A00D2C1DBFFD3C1CBF1D4C1CCF1D5C1CDF100
:10237A00D6C1CEF1010EDBCFD3F1020EDBCFD4F101
:10238A00030EDBCFD5F1040EDBCFD6F151EC1AF0F8
:10239A0040EC19F0EE500101CB5DD36FEE50CC59F1
:1023AA00D46FEE50CD59D56FEE50CE59D66FCF6B54
:1023BA00D06BD16BD26B3FEC1AF081EC19F04BC0A9
:1023CA003DF04CC03EF04DC03FF04EC040F029EC0D
:1023DA0018F00A0E0101BF5D000EC059000EC15966
:1023EA00000EC25905E20A0EBF6FC06BC16BC26B09
:1023FA0009AA05D0510E4B6E750EF6EC1BF051EC86
:10240A001AF0E66A43EC25F0E552050EE15C02E2B9
:10241A00E16AE552E8EF18F0EBEC18F0040E45EC2F
:10242A001BF021EC1CF0CAEC1CF0D70EE66E010E74
:10243A0071EC1DF0BBEC19F002E2D7EC1CF0BD51B7
:10244A0007E0BF51C011C111C21102E10001978D0D
:10245A00AFEC1BF00101D751EE24CF6FD851EE201B
:10246A00D06FD951EE20D16FDA51EE20D26FAFEC96
:10247A001BF0EE50D75DD36FEE50D859D46FEE50A3
:10248A00D959D56FEE50DA59D66FBEEC1BF002E679
:10249A005BEC19F00CE2CFC1DFFF010ED0C1DBFF0C
:1024AA00020ED1C1DBFF030ED2C1DBFF06D055EC11
:1024BA001AF0ACEC19F07EEC1AF00101BD512FE0D4
:1024CA00D880FF0EBF55FF0EC055FF0EC155000E36
:1024DA00C25504E2140E4B6E750E5DD066EC1AF00E
:1024EA0002E69AEC1AF004E2E80E4B6E740E53D030
:1024FA0046EC19F004E2BA0E4B6E740E4CD0F0ECB6
:10250A0018F0E8AE02D0413402D0FEEC1AF007E32C
:10251A00EDEC19F004E0960E4B6E740E3CD00101FE
:10252A00C2EC1BF002E665EC19F00CE2D3C1DFFF46
:10253A00010ED4C1DBFF020ED5C1DBFF030ED6C1EB
:10254A00DBFF06D048EC1AF0ACEC19F07EEC1AF07E
:10255A000101BD5125E066EC1AF002E69AEC1AF088
:10256A0004E26A0E4B6E740E16D046EC19F004E2C1
:10257A003C0E4B6E740E0FD0F0EC18F0E8AE02D0A1
:10258A00413402D0FEEC1AF00BE3EDEC19F008E04E
:10259A00180E4B6E740E1EEC18F0020EE66E05D085
:1025AA000001975105E10BD8E66A43EC25F0E552A4
:1025BA00040EE15C02E2E16AE552E8EF18F027EC6A
:1025CA001DF08B8C0EB039D109AA05D00E0E4B6EB8
:1025DA00740EF6EC1BF00101BD5110E0BF51C011A1
:1025EA00C111C21102E10001978DBBEC19F002E2A0
:1025FA000001978D0001975101E01FD1E7C12FF12A
:10260A00010126EC1BF031E12BEC1BF02EE101015C
:10261A00010E296FA00E0101BF5D860EC059010E81
:10262A00C159000EC25907E3A00EBF6F860EC06FD4
:10263A00010EC16FC26BBFC12BF1C0C12CF1C1C168
:10264A002DF1C2C12EF1190E426E436A446A456ADF
:10265A0037EC1CF0D7EC45F039C02BF13AC02CF11D
:10266A003BC02DF13CC02EF1DBD001012B6B2C6B52
:10267A002D6B2E6B2A6B0001D90502E18D908B928E
:10268A000101800ED21508E0800E01012A112A6F7D
:10269A00000E010155EC1BF0800ED61508E0200E45
:1026AA0001012A112A6F000E010165EC1BF00A0EC6
:1026BA004B6ED70E4C6EA30E4D6E4C0E4E6E37EC13
:1026CA001CF0BAEC3FF03EC04FF03FC050F040C0A3
:1026DA0051F041C052F03EC043F03FC044F040C008
:1026EA0045F041C046F04BC03EF04CC03FF04DC0F3
:1026FA0040F04EC041F0D5EC3FF03EC0DEFF3FC097
:10270A00DEFF40C0DEFF41C0DDFFDD52DD520101C8
:10271A0026EC1BF027E055EC1AF012EC19F00BE24C
:10272A00BD5104E0EA0E4B6E730E44D0C36BC46B0A
:10273A00C56B800EC66F95EC1AF00BE1BD5104E033
:10274A00C60E4B6E730E36D0010EC36FC46BC56BCB
:10275A00C66BC3C130F1C4C131F1C5C132F1C6C1C2
:10276A0033F105D00101306B316B326B336BC8EC3E
:10277A001AF00101486B496B4A6B4B6B01012BEC58
:10278A001BF02CE048EC1AF012EC19F00BE2BD51E8
:10279A0004E0A20E4B6E730E0DD0C36BC46BC56BF7
:1027AA00800EC66F95EC1AF010E1BD5109E07E0E5D
:1027BA004B6E730E1EEC18F0020E6FEC19F03DD042
:1027CA00010EC36FC46BC56BC66BC3C134F1C4C100
:1027DA0035F1C5C136F1C6C137F105D00101346BF7
:1027EA00356B366B376BD1EC1AF001014C6B4D6BC4
:1027FA004E6B4F6B100E296F09AA12D0F1EC1CF028
:10280A00E4EC18F050EC1CF0F8EC1CF0E4EC18F0D6
:10281A00F30E4B6E750E70EC1CF0020E6FEC19F095
:10282A0009BC0AD01850145CFDE20EB005D04EEC7B
:10283A0018F001E3156A142A8B9C040EE15C02E28B
:10284A00E16AE552E8EF18F0EBEC18F0030E8DECB4
:10285A001CF08AEC1BF0A0EC1DF03DE1F29E100E7C
:10286A000101805D06E0200E805D03E0400E805D80
:10287A0003E1DE52010EDD6E145003E0DE52010E5A
:10288A00DD6E806B020EDB6A200EF36E020EDBCF6A
:10289A00F4FFF350F45C07E2020EDB50FBEC19F094
:1028AA00020EDB2AF1D7156A166A146ADF0409E1F7
:1028BA00045003E18D808B8204D0040402E18C82EF
:1028CA008982F28E9AEC1DF0BEB103D0020E6FEC33
:1028DA0019F00DEC19F0030EE15C02E2E16AE5522F
:1028EA00E8EF18F091EC1CF0B4C14BF04C6A4D6A59
:1028FA004E6A4BAE03D04C684D684E684BC0E6FF3B
:10290A00ADEC1CF0E4EC18F00101BEB103D0020EEC
:10291A006FEC19F00DEF19F0EBEC18F0030E8DECDB
:10292A001CF08450040B08E18450020B05E180502E
:10293A00400B02E1010E23D08450040B09E08450BD
:10294A00020B06E18050400B03E1020EF36E19D030
:10295A008450040B08E18450020B05E08050400BC0
:10296A0002E1040E0CD08450040B08E08450020BE0
:10297A0005E08050400B02E1080E01D0100EF36E04
:10298A00020EF3CFDBFF045008E184B003D0020E3D
:10299A00DB50DF6E82B210D009D004040DE183B29D
:1029AA0003D0020EDB50DF6E80B206D0020EDB507F
:1029BA00E76E010EE7CFDBFFDFCF4BF09EEC1CF09A
:1029CA00D6EC19F09AEC1DF0BEB103D0020E6FECF2
:1029DA0019F00DEC19F0030EE15C02E2E16AE5522E
:1029EA00E8EF18F0EBEC18F0020EE126DE6ADD6A79
:1029FA0080EC1DF08AEC1BF0030EA0EC1DF00FE139
:102A0A000101B40504E1B4EC1BF0E66A04D0B4ECAD
:102A1A001BF0010EE66E13EC1BF00DEC19F0020E22
:102A2A00E15C02E2E16AE552CED3DDEC1CF078EC1F
:102A3A001AF083EC1DF095EC1CF030EC1BF0000151
:102A4A00975123E1030EDB50070802E278EC1AF0F3
:102A5A00DF50010802E2010EDF6E030EDB50030FA6
:102A6A0000018A5D07E0FEEC19F0030EDB50030F4C
:102A7A0000018A6F010EDBCFE6FF020EDBCFE6FF15
:102A8A00DFCFE6FF13EC1BF0C3DB050EE15C02E2CD
:102A9A00E16AE55298D327EC1DF0FE0EDB040BE148
:102AAA0084C0DEFF85C0DDFF020E86C0DBFF030E99
:102ABA0087C0DBFF0AD082C0DEFF83C0DDFF020EC3
:102ACA0088C0DBFF030E89C0DBFF8986D5C0D1F041
:102ADA00D6C0D2F0D7C0D3F0D8C0D4F0FC0EDBCF2A
:102AEA00E6FFFD0EDBCFE6FF020EDBCFE6FF030EAD
:102AFA00DBCFE6FF8AC0E6FFB4EC1BF012EC1DF058
:102B0A00040EE15C02E2E16AE5525DD327EC1DF0B6
:102B1A001EEC1CF0E76E020EE7CFDBFF00019751B7
:102B2A002AE1020EDB5027E1E1EC1CF0E76E030E0E
:102B3A00E7CFDBFF000197511EE1030EDB501BE1DB
:102B4A0009BC18D01850145CFDE215501BEC1CF09F
:102B5A00EE52DFCFEFFFC7DB270E56DB010EDBCFCE
:102B6A00EFFFC1DB080EEF6E152A1850155C01E362
:102B7A00156A142A4DDB040EE15C02E2E16AE552B1
:102B8A0022D380EC1DF0FE0E0101B55DFF0EB65991
:102B9A00FF0EB759FF0EB85905E2B52B000EB62342
:102BAA00B723B8230DEF19F080EC1DF00101B551E0
:102BBA00B611B711B81105E0B507000EB65BB75BE1
:102BCA00B85B0DEF19F002DB050EE12680EC1DF073
:102BDA00E2DB070E25DA30EC1BF0DB500BE1DFCF2E
:102BEA00B5F1010EDBCFB6F1020EDBCFB7F1030E62
:102BFA00DBCFB8F10DDB050EE15C02E2E16AE552DA
:102C0A00E2D291EC1CF0B5C1E6FFB6C1E6FFB7C14E
:102C1A00E6FFB8C1E6FFD3DA0101BEB102D0010E68
:102C2A0059DB0DEF19F0D2DA020EA5EC1DF01EECFD
:102C3A001CF0E1EC1CF0000197510CE1010EDB5095
:102C4A001F0803E2DE521F0EDD6E6DEC1BF0DFCFB4
:102C5A00EFFFDEDA020EE15C02E2E16AE552B3D28C
:102C6A00B5DA020E8DEC1CF0E1EC1CF00001975174
:102C7A0013E1010EDB501F0803E2DE521F0EDD6E68
:102C8A006DEC1BF0EFCF4BF09EEC1CF00101BEB1D6
:102C9A0002D0010E1FDBBCDA020EE15C02E2E16A3D
:102CAA00E55291D291EC1CF007504B6E4C6A4D6A7A
:102CBA004E6AE66EADEC1CF082DA0101BEB102D0BA
:102CCA00010E08DB07B007900DEF19F09DBCFED787
:102CDA0091EC1CF000C14BF001C14CF06CEC1CF003
:102CEA0016C14BF017C14CF04BDA65DA0101BEB1DF
:102CFA0002D0010EEFDA0DEF19F030EC1DF0D1D849
:102D0A00DF6E91EC1CF00F0EDF14DF6E0101B4517F
:102D1A0003E0100EDF10DF6E07A003D0200EDF10D5
:102D2A00DF6E0001A75104E0400EDF10DF6EA76BD3
:102D3A000EA003D0800EDF10DF6E020EE66EDFCF2C
:102D4A004BF04C6A1DDAA3EC41F04F6E050EE15EC2
:102D5A004F50010EBFDA07B00790B1D3DDEC1CF07B
:102D6A00030EDB6A83EC1DF030EC1BF095EC1CF0D3
:102D7A000001975101E08FD07EDAFF0ED880EE5421
:102D8A00030EED5405E2010EDB68030EB9EC1BF0ED
:102D9A00DF50010802E2010EDF6E030EDB5001086C
:102DAA0001E2A1DBDF0409E1040EDB50030805E1BF
:102DBA000101BA6B020EBB6F06D0010EDBCFBAF16E
:102DCA00020EDBCFBBF1CAB415D0CB68FC0ECA1415
:102DDA000009CA6E9D920F0152815293F00EBA14E5
:102DEA000C09BA6E3F0EBA140009BA6E0E010E0E25
:102DFA00CC6FCA84030EDB502AE1DF5023E0BAC14C
:102E0A004BF0BBC14CF0D8904C324B32D8904C327C
:102E1A004B324B50BB6EBAC14DF0BBC14EF0040EE3
:102E2A00D8904D364E36E804FBE1300E4D16000EB2
:102E3A004E16CF0EBA1400014D104B6E4EC04CF018
:102E4A00E85003D0BB6ACF0EBA14BA6E23D009BCBD
:102E5A0021D01850145CFDE215501BEC1CF02D0E0D
:102E6A00D3D9BAC1EEFFBBC1EDFF3DDA020ECCD910
:102E7A00EE6AEE6AEE6AEE6A36DA060EC5D9DFCF78
:102E8A00EFFF31DA040EEF6E152A1850155C01E3D4
:102E9A00156A142ABDD9050EE15C02E2E16AE5521F
:102EAA0092D194D9040E6DDA030EDB6AF29E010107
:102EBA00C3DB02E0010EDF6E805102E0010EDF6E1D
:102ECA00145006E0010EDF6EF36E030EF3CFDBFF44
:102EDA00DF5005E020DB03E0DE52010EDD6EDF503D
:102EEA0005E0A5DB03E0010EB9EC1BF0F28E030E40
:102EFA00DBCFE6FF020EDB50E8244C6E010EDB50FE
:102F0A00040DF3CF4BF0DF50080DF3504B104C106B
:102F1A00E552E7104B6E040EE15C02E2E16AE5520B
:102F2A00E16E4B502CEF1DF0DDEC1CF0030EDB6A5A
:102F3A00B8DF91DB010EE66EE66E25EC25F0E55270
:102F4A00E552040EDBB0CFDA040EDBA203D0010E89
:102F5A00B9EC1BF0040EDBA403D0DE52010EDD6EC9
:102F6A00040EDBA602D0010EDF6EDFCF4BF04C6AF7
:102F7A006CEC1CF0010EDBCF4BF04C6A6CEC1CF0D5
:102F8A00020EDBCF4BF04C6A6CEC1CF0030EDBCF6D
:102F9A004BF04C6AF5D87BEC1DF0050EE15C02E2C1
:102FAA00E16AE55210D112D9080EE12691EC1CF023
:102FBA00F29E1BC0DFFF010E1CC0DBFF020E1DC00C
:102FCA00DBFF030E1EC0DBFF040E1FC0DBFF050E76
:102FDA0020C0DBFF060E21C0DBFF070E22C0DBFF8D
:102FEA00F28ED9CFE9FF7CEC1CF0DBD9D950040F63
:102FFA00E96E7CEC1CF00101BEB102D0020E6AD966
:10300A0007D9080EE15C02E2E16AE552DCD0F29EE1
:10301A00CED9F28E120080EC1DF0F9DF0DEF19F017
:10302A00E66E28EC2EF0E552B4EF1CF01650D0EF05
:10303A001CF04C6E4D6A4BC0E6FFE66E4DC0E6FFD3
:10304A0086EC41F0B4EF1CF0D7EC45F039C04BF0F8
:10305A003AC04CF03BC04DF03CC04EF039C03DF098
:10306A003AC03EF03BC03FF03CC040F0C3C142F022
:10307A00C4C143F0C5C144F0C6C145F03BEC46F0BB
:10308A003DC0BFF13EC0C0F13FC0C1F140C0C2F176
:10309A0012001550CBDB29C1EEFF2AC1EEFF2BC16E
:1030AA00EEFF2CC1EEFF2DC1EEFF2EC1EEFF2FC1A8
:1030BA00EEFF30C1EEFF31C1EEFF32C1EEFF33C188
:1030CA00EEFF34C1EEFF35C1EEFF36C1EEFF37C168
:1030DA00EEFF38C1EEFF39C1EEFF3AC1EEFF3BC148
:1030EA00EEFF3CC1EEFF3DC1EEFF3EC1EEFF3FC128
:1030FA00EEFF40C1EEFF41C1EEFF42C1EEFF43C108
:10310A00EEFF44C1EEFF45C1EEFF46C1EEFF47C1E7
:10311A00EEFF48C1EEFF49C1EEFF4AC1EEFF4BC1C7
:10312A00EEFF4CC1EEFF4DC1EEFF4EC1EEFF4FC1A7
:10313A00EEFF50C1EEFF51C1EEFF52C1EEFF53C187
:10314A00EEFF54C1EEFF55C1EEFF56C1EEFF57C167
:10315A00EEFF152A1850155C1200EE204E6E4BC079
:10316A00DFFF010E4CC0DBFF020E4DC0DBFF030E7A
:10317A004EC0DBFFAAEC1DF0D890EB50000A1200FB
:10318A004D6A4E6A4BC0E6FFADEF1CF0E66A25ECCD
:10319A0025F0E552E5521200AAEC1DF0EECF4BF0F5
:1031AA00EECF4CF0EECF4DF0EFCF4EF04B504C102F
:1031BA004D104E101200F9EC41F0E552D0D3DDEC7F
:1031CA0041F0E552CCD3E16E2CEF1DF0D9CFE6FFEA
:1031DA00E1CFD9FF1200BFC14BF0C0C14CF0C1C151
:1031EA004DF0C2C14EF019EC1DF03CDB3BEC46F051
:1031FA003DC04BF03EC04CF03FC04DF040C04EF0D9
:10320A009CDB4E5041181200E926000EEA221200F9
:10321A00E66A43EC25F0E5521200BCEC3FF0000EE2
:10322A00DFCF43F0010EDBCF44F0020EDBCF45F0D7
:10323A00030EDBCF46F028EC40F0C9EC40F03DC06D
:10324A00C3F13EC0C4F13FC0C5F140C0C6F1D88049
:10325A00000E01013D54000E3E54000E3F54800EF4
:10326A0040541200000EEE5C000EEE58000EEE58AE
:10327A00000EEE581200D950010FE96EDACFEAFFBC
:10328A001200BFC142F0C0C143F0C1C144F0C2C183
:10329A0045F0DFCF3DF0010EDBCF3EF0020EDBCF73
:1032AA003FF0030EDBCF40F065EF1DF0D880000E33
:1032BA00CF55000ED055000ED155000ED255120032
:1032CA00D880000ED355000ED455000ED555000EE9
:1032DA00D6551200E66E43EC25F0E5521200010EB7
:1032EA00E66E0BEF1DF0155056D30A50E96EEA6AE6
:1032FA00D890E936EA361200E80E426E030E436EA3
:10330A00446A456A120097519F279851A023995100
:10331A00A1239A51A2239F518727A0518823A15103
:10332A008923A2518A23B8EF1CF09B51A3279C51F1
:10333A00A4239D51A5239E51A623A3518B27A451B3
:10334A008C23A5518D23A6518E23C1EF1CF0426810
:10335A00436844684568D7EF45F0EECF82F1EECF77
:10336A0083F1EECF84F1EFCF85F11200D880030EFE
:10337A000101E755000EE855000EE955000EEA5521
:10338A001200DEDB020EDB6A12006CDA4DDB3BEC6C
:10339A0046F040501200E66AD9CFE6FFDACFE6FFE0
:1033AA0012002C0EE66ED3EC21F0E55212001B6AD5
:1033BA001C6A1D6A1E6A1F6A206A216A226A236AB7
:1033CA00246A256A266A276A286A296A2A6A1200EA
:1033DA00BCDBEECF4FF0EECF50F0EECF51F0EFCF97
:1033EA0052F04F5050105110521012001FDAEF6A6B
:1033FA001200000EE66EE66AE66EE66A8AC0E6FF2C
:10340A00E66EE66A12EF1DF0EECF8BF1EECF8CF18D
:10341A00EECF8DF1EFCF8EF11200DF6BE06BE16B37
:10342A00E26BE36BE46BE56BE66B1200CF6BD06B80
:10343A00D16BD26BD36BD46BD56BD66B1200D7C161
:10344A003DF0D8C13EF0D9C13FF0DAC140F01200D8
:10345A00DBC13DF0DCC13EF0DDC13FF0DEC140F032
:10346A001200D7C14BF0D8C14CF0D9C14DF0DAC126
:10347A004EF01200DBC14BF0DCC14CF0DDC14DF067
:10348A00DEC14EF01200D3C13DF0D4C13EF0D5C129
:10349A003FF0D6C140F01200010184DAE4EF12F0E5
:1034AA00CFC13DF0D0C13EF0D1C13FF0D2C140F012
:1034BA001200426E436A446A456A95EF40F0E5524B
:1034CA00C6D23BDA4134000E41181200010E39C04F
:1034DA00DBFF020E3AC0DBFF030E3BC0DBFF040E2C
:1034EA003CC0DBFF1200010EF36E030EF3CFDBFFCD
:1034FA00120039C0DEFF3AC0DEFF3BC0DEFF3CC02F
:10350A00DDFFDD52DD5212000A50EA6A690FE96EE8
:10351A00000EEA2212008F5190119111921112009D
:10352A00C351C411C511C6111200D880FF0E3E54F2
:10353A00FF0E3F54FF0E4054000E41541200EECFCE
:10354A009BF1EECF9CF1EECF9DF1EFCF9EF11200F1
:10355A00EECF8FF1EECF90F1EECF91F1EFCF92F166
:10356A001200DFCFE6FF010EE66E0CEC0EF0E5521C
:10357A00E55212004B164C6A4D6A4E6A4B504C107B
:10358A004D104E101200CFC138F1D0C139F1D1C15E
:10359A003AF1D2C13BF11200D3C13CF1D4C13DF1A1
:1035AA00D5C13EF1D6C13FF1120030C1E6FF31C1AB
:1035BA00E6FF32C1E6FF33C1E6FF120034C1E6FF7F
:1035CA0035C1E6FF36C1E6FF37C1E6FF1200CFC1BB
:1035DA00D7F1D0C1D8F1D1C1D9F1D2C1DAF11200F3
:1035EA00D3C1DBF1D4C1DCF1D5C1DDF1D6C1DEF145
:1035FA0012003E504B5C3F504C5840504D58415081
:10360A004E5812002B2A000E2C222D222E22120096
:10361A008F07000E905B915B925B120050EC15F0E5
:10362A009ED1010EF36E040EF3CFDBFF120093510D
:10363A0094119511961112008251831184118511EA
:10364A001200CF51D011D111D2111200D351D4117D
:10365A00D511D6111200E76E040EE7CFDBFF120078
:10366A00046E96809482958C958E9588958A120020
:10367A00DFCFE6FFE66A0CEC0EF0E552E5521200E7
:10368A00E126DE6ADE6ADE6ADD6ADD52DD5212009A
:10369A00D76DD81FD823D91FD923DA1FDA231200EE
:1036AA00CF6DD01FD023D11FD123D21FD223120016
:1036BA00DB6DDC1FDC23DD1FDD23DE1FDE231200B2
:1036CA00D36DD41FD423D51FD523D61FD6231200DA
:1036DA00010EDB50EA6A580FE96E010EEA22120067
:1036EA0081899307000E945B955B965B1200F36EDB
:1036FA00010EF3CFDBFF020EDB6A1200010EDBCFF5
:10370A0086F0020EDBCF87F01200010EE66ED9CFEB
:10371A00E6FFDACFE6FF1200610EE926000EEA2282
:10372A001200C36BC46BC56BC66B1200D751D8119C
:10373A00D911DA111200DB51DC11DD11DE11120090
:10374A00D70EE96E010EEA6E1200DF0EE96E010E67
:10375A00EA6E1200DB0EE96E010EEA6E1200DECF8F
:10376A00E6FFDDCFE6FF1200F36E020EF3CFDBFFBA
:10377A001200D235000ED2191200D635000ED61913
:10378A0012006DD953DC1F0E3FDDEECF9FF1EECF55
:10379A00A0F1EECFA1F1EFCFA2F148DC1F0EEFD9D5
:1037AA00EECFA3F1EECFA4F1EECFA5F1EFCFA6F1C4
:1037BA003DDC170E29DDEECF97F1EECF98F1EECF73
:1037CA0099F1EFCF9AF132DC170ED9D9A4EF1AF09A
:1037DA00E1D9E66A120086D9E70EE66E010EAFEF6E
:1037EA001DF027DCBFC1E6FFC0C1E6FFC1C1E6FF8D
:1037FA00C2C1E6FFE4DC4B0E4B6E750E1ADCCFC17C
:10380A00E6FFD0C1E6FFD1C1E6FFD2C1E6FFD3DCB5
:10381A00450E4B6E750E0DDCD3C1E6FFD4C1E6FF33
:10382A00D5C1E6FFD6C1E6FF7BEF1DF02F0D0001E3
:10383A006BD161D9B0DD92D1BCEC0BF05CD9E66AF0
:10384A00120029EC18F0C3C13DF0C4C13EF0C5C155
:10385A003FF0C6C140F050DD33D196D9020ED4DC18
:10386A00B2EF19F0BFC13DF0C0C13EF0C1C13FF097
:10387A00C2C140F01200040EDB6A62DF0101C751C7
:10388A00EE244B6EC851EE204C6EC951EE204D6E9F
:10389A00CA51B2EF18F00C0E4B6E760E1EEC18F0F1
:1038AA0038C1E6FF39C1E6FF3AC1E6FF3BC1E6FF90
:1038BA00E4EF18F04ADFD751EE244B6ED851EE20D0
:1038CA004C6ED951EE204D6EDA51B2EF18F058DC39
:1038DA0072DCD6EF19F01EEC18F03CC1E6FF3DC1D0
:1038EA00E6FF3EC1E6FF3FC1E6FFE4EF18F0DACF9C
:1038FA00EAFFEECFE6FFEECFE6FFEECFE6FFEFCF31
:10390A00E6FFE0EF18F0C30EE66E010EAFEF1DF012
:10391A0017D9E66ECBEF18F0010EE66ECBEF18F072
:10392A00010EE66ED950030FE66E000EDA20E66E3F
:10393A0015D14C6A25DCE4EF18F0DECF3EF0DECF7D
:10394A003FF0DECF40F0DDCF41F0DD52DD52120014
:10395A004CC0E6FF4DC0E6FF4EC0E6FF1200E5523E
:10396A00E552E552120087512326885124228951B3
:10397A0025228A51262212008B5127268C51282271
:10398A008D5129228E512A221200BF0EE66E010E97
:10399A00E1D8E66A12002F0DB7D01BEC18F00F0E13
:1039AA0009EF19F0030EE76FE86BE96BEA6B120097
:1039BA000DDC050EC6EF19F092DCD0D01BEC18F026
:1039CA00060E22DCEFCF86F112001BEC18F0EE5245
:1039DA00EFCF81F11BEF18F0110E4B6E760E1EEC35
:1039EA0018F0DAEF1AF0FD0E4B6E750E1EEC18F099
:1039FA00E3EF1AF07ADC750EE926000EEA221200CD
:103A0A0074DC6D0EE926000EEA221200D950010F6D
:103A1A00E66E000EDA20E66E1200ADEC3CF04B6E5C
:103A2A00070EE15E4B5012001F0E426E050E436EEA
:103A3A00446A456A120059DC91EF1BF01CDCEE5017
:103A4A00ED101200EBEC18F0040EE1261200E5521C
:103A5A00E7CFD9FF1200EBEC18F0E652120094D827
:103A6A00070E09EC19F0EECF87F1EECF88F1EECF11
:103A7A0089F1EFCF8AF11BEC18F0070E80D809EF15
:103A8A001AF0E9DFD9DEC70EE66E010EA1DECF0E0F
:103A9A00E66E010E6ED0DFDFCFDE35DFE66AC70ED7
:103AAA00E66E010E66D094DEDB0EE66E010E90DE47
:103ABA00E30EE66E010E8FDEDF6E000197511200F3
:103ACA003BEC46F0D880190E3D54000E3E54000ED1
:103ADA003F54000E405412007BDEDB0EE66E010EF0
:103AEA00F0EF1BF057D8010EE66E1200E0EC18F06A
:103AFA00020E6FEF19F0E66ACBEF18F09ADE74EC5B
:103B0A0019F0030E15EF18F0FA51F324E96EFB5180
:103B1A00F420EA6E1200A5DC81EC19F024EF1AF009
:103B2A00A9DC81EC19F02DEF1AF0010EDBCF4BF076
:103B3A0000DF0101120015EC18F000019751120084
:103B4A00E126DF6A010EDB6A1200D9CFE9FFDACF7C
:103B5A00EAFF1200E66E070E15EF18F0010E15EFD8
:103B6A0018F0CB0EE66E010E33DED30EE66E010EB2
:103B7A0012002EDED70EE66E010EEDEF1BF009ECF9
:103B8A0019F0040E09EF19F01BEC18F0EFCF80F1D1
:103B9A001BEF18F0E66E060E15EF18F0D8CFE4FF0B
:103BAA00E0CFE4FFE46EDACFE4FFE9CFE4FFEACF47
:103BBA00E4FFF3CFE4FFF4CFE4FFE65255EC32F032
:103BCA00A4A641D1A4960001602B00017F510001F7
:103BDA00605D01E29BD0606B00016EEC31F0EF6A30
:103BEA0079907B6A7A6A00017D2B00017E5100017F
:103BFA007D5D01E37D6BE7EC32F0EA22EE50ED10D9
:103C0A0001E184D0DAEC32F0EECF55F0EFCF56F086
:103C1A005550531802E1565054185DE02AEC32F020
:103C2A00EA22EE50ED1051E0DAEC32F00001EE50EB
:103C3A00535CE26FEE505458E36FE83422E2E251EB
:103C4A000008000EE3551DE200012AEC32F0EAEC0E
:103C5A0030F000015450E319E8AE02D0E33504D045
:103C6A00E251535CE35154580AE200012AEC32F063
:103C7A00FBEC31F05350EE265450ED222CD00001CB
:103C8A0024D0E2C053F0E3C054F0536C541E000E2B
:103C9A00542200012AEC32F0EA22EECF55F0EFCF9F
:103CAA0056F056505418E8AE02D0543404D053504B
:103CBA00555C5450565809E22AEC32F0FBEC31F0CC
:103CCA005350EE5E5450ED5A06D0DAEC32F053C03F
:103CDA00EEFF54C0EDFF6EEC31F0120EEF6EF29E65
:103CEA00000176EC32F054C053F0546A5350B66E69
:103CFA0076EC32F05350B56EF00EB4140009B46E7F
:103D0A00F00EB4140909B46E7980F28E0001000E27
:103D1A00D8808D55000E8E552EE29B2B000E9C23CB
:103D2A008D519B5D8E519C5926E39B6B9C6B030EB8
:103D3A00915D1FE28F51EA6A200FE96E010EEA22B5
:103D4A0080CFEFFF8F51EA6A230FE96E010EEA2254
:103D5A0081CFEFFF8F51EA6A260FE96E010EEA2240
:103D6A0082CFEFFF8F2B030E8F5D01E38F6B912BB9
:103D7A0002D08D6B8E6B000ED8809255000E935533
:103D8A001CE2000ED880A155000EA25516E29D2B0A
:103D9A00000E9E2392519D5D93519E590EE39D6B99
:103DAA009E6B030E965D07E2942B030E945D01E36E
:103DBA00946B962B02D0926B936BA151A2110BE0DC
:103DCA00050EA05D07E3C18C9E9C9D8CC280C282B9
:103DDA00A06B01D0A02B0101B95101E0B907000184
:103DEA00D151D211D311D4110BE0D107000ED25BFD
:103DFA00D35BD45BD151D211D311D41101E189968D
:103E0A00020EA85D20E1AB51AC111DE0AB07000E1C
:103E1A00AC5BAB51AC1117E1AD51AE1114E0AD077B
:103E2A00000EAE5BAD51AE110AE1045003E18D8084
:103E3A008B8202D08C828982030EA86F04D0E80E8E
:103E4A00AB6F030EAC6F9EAC4FD09E9CC1AC07D03B
:103E5A00C19C010E0001A36FA46B9F6B2AD0C450B2
:103E6A00556E566E556AC35000015510536E56C0B2
:103E7A0054F000019F51E96EEA6A45EC32F0EA22F9
:103E8A0053C0EEFF54C0EDFF0B0E9F5D0EE19F5134
:103E9A00E96EEA6A45EC32F0EAEC30F0A551535C7F
:103EAA00A651545802E2010EA76FD890A337A4373F
:103EBA009F2B100E9F5D0EE2A351A115536EA451C4
:103ECA00A215546E5350541005E19F2BD890A33776
:103EDA00A437EFD7100E9F5D02E39D9C05D09F513A
:103EEA00040DF328C26EC282E552E552E7CFD9FF2C
:103EFA00E552E5CFF4FFE5CFF3FFE5CFEAFFE5CFE3
:103F0A00E9FFE5CFDAFFE550E5CFE0FFE5CFD8FFDF
:103F1A001000D9CFE6FFE1CFD9FF020EE126DE6A13
:103F2A00DD6AE2CFE4F0E1CFE5F0E4C04BF04BC04C
:103F3A004CF04B6A0001E55100014B10E66F4CC092
:103F4A00E7F0E6C0DEFFE7C0DDFF080EDE26000E62
:103F5A00DD22D9CFE9FFDACFEAFFBF0ED880EE54CF
:103F6A000E0EED540BE3DECFE9FFDDCFEAFFEE0ED6
:103F7A00EF6EDF2A010E01E3DB2AEBD7020EE15CCA
:103F8A0002E2E16AE552E16EE552E7CFD9FF12009B
:103F9A00F0EC32F0BF0EF36E010EF3CFDBFF0E0E24
:103FAA00F36E020EF3CFDBFFF28C010EDBCFE9FFDB
:103FBA00020EDBCFEAFFEF50EE0806E1010EDB0648
:103FCA00020EF3E2DB06F1D7BEEC31F000014B50F2
:103FDA00E05D4C50E15906E2010EDBCFE0F0020E43
:103FEA00DBCFE1F0F28C030EE15C02E2E16AE5521A
:103FFA00E16EBCEF30F0FCEC32F0896A92680001A5
:10400A00A16BA26B8A6A93688B6A94688C968C946B
:10401A0095969594928E010ED06F976B956B946BD3
:10402A00966B906B8F6B916B8D6B8E6B926B936BA8
:10403A009B6B9C6B9D6B9E6B9F6B76827680769C4E
:10404A00769A76887696FA0E776EDE6ADD6A81EC63
:10405A0031F0100E4B5C000E4C5813E286EC31F036
:10406A00010ED890E936EA36E806FBE1000EE926A9
:10407A00010EEA22EE6AED6ADF2A010EE8E3DB2A84
:10408A00E6D70001CA6BCB6BC86BC96BDE6ADD6A07
:10409A008DEC32F00AE286EC31F0000EE926020ECF
:1040AA00E8EC31F0F5E3DB2AF3D7DE6ADD6A8DEC62
:1040BA0032F00AE286EC31F0400EE926020EE8EC14
:1040CA0031F0F5E3DB2AF3D7DE6ADD6A81EC31F001
:1040DA00000E4B5C010E4C580AE286EC31F0000EE1
:1040EA00E926030EE8EC31F0F1E3DB2AEFD7000111
:1040FA00CC6BCD6BCE6BCF6B986B996B9A6B0F01B8
:10410A00498FBE0EC16ED08E7694A386A596DCEC3E
:10411A000BF0E0EC3BF0F28EF28C768454EC2DF04E
:10412A000001DC6BDD6BDE6BDF6B0E6AD16BD26B71
:10413A00D36BD46B600ED56FEA0ED66FD76BD86B84
:10414A00010ED96FE06BE16BA56BA66BA96BAA6B2D
:10415A00AB6BAC6BAD6BAE6BA86BA76B020EE15C85
:10416A0002E2E16AE552E16EBCEF30F0B7EC30F002
:10417A00050EE126C5EC31F0D1EC2FF0000191518A
:10418A0000080AE2E8EC29F00001902B030E905D8A
:10419A0001E1906B9107F2D7965100080AE205EC0B
:1041AA002AF00001952B030E955D01E1956B9607A8
:1041BA00F3D7200E0501E76EA819E8AE02D0E7345E
:1041CA0002D0E750A85D01E2E1D06550020B01E0A0
:1041DA00DDD0400EE66E400EE66E020EE66E64EC30
:1041EA003EF0F8EC32F0E76E020EE7CFDBFFDB5071
:1041FA00000870E2030EDB6A020EDB50F36E030E58
:10420A008BEC31F067E2030EDB50EA6A400FE96E8D
:10421A00020EEA22040EEFCFDBFF09A805D0DBCF9E
:10422A00E6FF79EC46F0E5520101F95119E10D0E6C
:10423A004B6E040EDB504B5C06E00A0E4C6E040E0D
:10424A00DB504C5C0DE1010EF96F0001A5EC31F079
:10425A000D0EEF6ECA2BF7D80001CA6BCB6B2AD0B2
:10426A00040EDB5008080EE10001CA5100080AE2F8
:10427A00CA07A5EC31F0EF6ABC0E4B6E770E9BECC9
:10428A0030F018D0040EDB500D0814E0040EDB5099
:10429A000A0810E0200EF36E040E8BEC31F00AE3EC
:1042AA000001A5EC31F0040EDBCFEFFF0101F96B41
:1042BA000001CA2B0001CA514B6E4C6A000E4B1802
:1042CA0006E1010E4C1803E19787CA6BCB6B030E0C
:1042DA00DB2A92D70001975139E097A105D0B80E91
:1042EA004B6E770E27EC32F0000197A305D09B0E98
:1042FA004B6E770E27EC32F0000197A505D0810EA0
:10430A004B6E770E27EC32F0000197A705D0670EA7
:10431A004B6E770E27EC32F0000197A905D04A0EB2
:10432A004B6E770E27EC32F0000197AD05D02A0EBE
:10433A004B6E770E27EC32F0000197AF05D0120EC4
:10434A004B6E770E27EC32F00001976BDD511DE0C2
:10435A00010E0E1414E0DE5112E1F30E4B6E760ECE
:10436A009BEC30F0020EE66EDCC04BF04C6AC0ECFF
:10437A0030F0A5EC30F00001010EDE6F06D0010E20
:10438A000E1403E1DE5101E0DE6B37D8050EE15C65
:10439A0002E2E16AE552E16EBCEF30F055EC32F030
:1043AA00C8C0DFFFDF2A400EF9EC30F001E1DF6A16
:1043BA000001C951DF5C01E120D80001C851EA6A55
:1043CA00000FE96E020EEA22FE0EDBCFEFFFC82BCA
:1043DA00400EC85D01E1C86BC951C85D01E197850E
:1043EA00FE0EDBCF4BF04C6A4BBE4C684BC0F3FF62
:1043FA004CC0F4FFE552BCEF30F055EC32F000014E
:10440A00C851C95D1DE00501905105E0F0EC3EF090
:10441A0086EC33F0F8D70001C951D880C85507E2B5
:10442A00C951C85D2CEC31F0C8C0C9F007D0400EA4
:10443A00D880C9552CEC31F00001C96BF0EC3EF084
:10444A00E552BCEF30F0B7EC30F0090EE126DE6A37
:10445A00DD6A020EDB6A030EDB6A050EDB6A010EF9
:10446A00F36E060EF3CFDBFF0001DA6BDB6BDF5175
:10447A0001E18ED0060EDB6A040ECAC0DBFFDB50F8
:10448A0003E0040EDB0602D0040EDB68040E61ECC6
:10449A0031F0EF502C0816E0050EF36EDBCFF4FF77
:1044AA00E850F45C0FE2040EDB50CB5D0BE0040E27
:1044BA00DB5003E0040EDB0602D0040EDB68050EB7
:1044CA00DB2AE4D7040E61EC31F0EF502C0857E1F7
:1044DA00070ECBC0DBFF040EDBCFCBF0E66AD95068
:1044EA00020FF7EC31F0070EDBCFCBF0080ECBC092
:1044FA00DBFF040EDB50F36E080EDB50F35C18E0B2
:10450A00080E61EC31F0030EDBCFE7FFEF50E72630
:10451A00030EE7CFDBFF080EDB2ADB504B6E4C6A3B
:10452A00E850E7E1010E4C18E4E1080EDB6AE1D736
:10453A00030EDB1C010FE76E030EE7CFDBFF020E53
:10454A00DB50F36E030EDB50F35C0BE1010EF36EEE
:10455A00060EF3CFDBFF040E61EC31F00D0EEF6EA9
:10456A0017D0CD0E4B6E760E9BEC30F0030EA1ECFD
:10457A0031F01CEC33F0DDEC41F0E55205D0A40E2D
:10458A004B6E760E4CEC32F0F8EC32F0A5EC30F0D3
:10459A00060EDB5001E14AD20001A8EC30F0CCEC67
:1045AA0031F0F3CFDAF00001CFEC30F004E1010E84
:1045BA004C1801E1CB6BDA51DE6EDD6AA8EC30F003
:1045CA002C0823E0A8EC30F00D081FE0A8EC30F02E
:1045DA000A081BE0A8EC30F0CCEC31F0F3CFDBF0AA
:1045EA000001CFEC30F004E1010E4C1801E1CB6B75
:1045FA00DAC04EF04D6ADB5100014D244B6E000EBD
:10460A004E204C6E4BC0DEFFDD6E000EDFCF3FF05A
:10461A00010EDBCF40F0550E3F1802E1510E401853
:10462A0001E1D4D14D0E3F1802E1480E401801E1D4
:10463A00CAD1520E3F1802E1530E401801E1C0D10F
:10464A00520E3F1802E1510E401801E1B6D1420E56
:10465A003F1802E1520E401801E1ACD1540E3F1846
:10466A0002E1510E401801E1A2D1540E3F1802E1B5
:10467A00530E401801E198D1530E3F1802E1430E40
:10468A00401801E18ED1530E3F1802E1510E401835
:10469A0001E184D14D0E3F1802E1580E401801E1A4
:1046AA007AD1530E3F1802E1450E401801E170D14C
:1046BA00430E3F1802E1410E401801E166D14D0E4A
:1046CA003F1802E1510E401801E15CD1320E3F1849
:1046DA0002E1530E401801E152D1450E3F1802E1A2
:1046EA00530E401801E148D1470E3F1802E1510E1E
:1046FA00401801E13ED1430E3F1802E1510E401825
:10470A0001E134D14B0E3F1802E1430E401801E19A
:10471A002AD14C0E3F1802E1420E401801E120D185
:10472A00440E3F1802E14E0E401801E116D1490E1F
:10473A003F1802E14E0E401801E10CD1420E3F181B
:10474A0002E1510E401801E102D14C0E3F1802E17C
:10475A00510E401801E1F8D04C0E3F1802E1530EF9
:10476A00401801E1EED04E0E3F1802E1510E4018FA
:10477A0001E1E4D04E0E3F1802E1530E401801E168
:10478A00DAD0430E3F1802E1530E401801E1D0D0AF
:10479A004D0E3F1802E1450E401801E1C6D0450E04
:1047AA003F1802E1510E401801E1BCD0500E3F18EB
:1047BA0002E1510E401801E1B2D0500E3F1802E159
:1047CA00540E401801E1A8D0500E3F1802E1530ED2
:1047DA00401801E19ED04D0E3F1802E1530E4018D9
:1047EA0001E194D0570E3F1802E14D0E401801E145
:1047FA008AD0520E3F1802E14D0E401801E180D0D6
:10480A00440E3F1802E1500E401801E176D04F0ED7
:10481A003F1802E1500E40186DE0490E3F1802E1C0
:10482A00500E401864E0410E3F1801E140505CE030
:10483A00560E3F1801E1405054E0490E3F1801E17D
:10484A0040504CE04F0E3F1801E1405044E0550EF5
:10485A003F1802E1430E40183CE0430E3F1801E1C5
:10486A00405034E0520E3F1801E140502DE04D0E09
:10487A003F1802E14C0E401824E0330E3F1802E1C3
:10488A00540E40181BE0330E3F1802E14C0E40183C
:10489A0012E0540E3F1802E14C0E401809E00001E4
:1048AA00DB5101E095D079EC32F07FEC32F0A4D004
:1048BA00F0EC0DF0A9D09CEC0DF0A6D0D4EC0DF0E4
:1048CA00A3D06EEC0DF0A0D0FCD89ED002EC29F05B
:1048DA009BD0FED899D0B2EC29F096D0E8EC29F01A
:1048EA0093D0FEEC29F090D005EC2AF08DD03DEC67
:1048FA002BF08AD0B2EC2BF087D0A1EC2AF084D02E
:10490A0082EC2AF081D067EC2AF07ED010EC10F00D
:10491A007BD01AEC15F078D0F7EC14F075D077EC60
:10492A0014F072D091EC14F06FD08BEC15F06CD0BF
:10493A00ADEC0CF069D0E8EC15F066D006EC16F098
:10494A0063D018EC16F060D035EC16F05DD057EC59
:10495A0016F05AD0C6EC15F057D0D9EC15F054D051
:10496A0066EC2CF051D0B8EC2CF04ED06BEC16F073
:10497A004BD082EC16F048D0B3EC16F045D058EC88
:10498A003CF042D099EC17F03FD098EC29F03CD09B
:10499A0029EC14F039D011EC12F036D0D8EC17F01B
:1049AA0033D010EC18F030D097EC2DF02DD0CDECA0
:1049BA002DF02AD06EEC2CF027D075EC2CF024D0F8
:1049CA0085EC2CF021D025EC10F01ED086DB1CD013
:1049DA0079EC32F0DBC0E6FFE1DCE5527FEC32F045
:1049EA00CBEC32F0DAC0E6FFFFEC31F093EC32F0B8
:1049FA00020EE66EDBC04BF04C6AC0EC30F0270EBC
:104A0A00C5EC30F0A5EC30F00001A8EC30F00D0850
:104A1A000DE097510BE1520E4B6E4C6ADF504B186A
:104A2A0003E1DE52DD504C1801E0978FCAC0CBF08B
:104A3A00090EE15C02E2E16AE552E16EBCEF30F098
:104A4A0055EC32F02C0EDF6E010E0101BE1503E1AA
:104A5A00FE0EDB5010E0ADEC31F00001DB5104E05A
:104A6A00DBC0E6FF9BDCE552FD0EDB5004E0DFCF46
:104A7A00E6FF94DCE552E552BCEF30F0B7EC30F0DB
:104A8A000101BEA104D0880E4B6E760E16D000012D
:104A9A00D05108E0FE0EDB5005E1850E4B6E760E16
:104AAA009BEC30F0FE0EDB50020804E1820E4B6EE6
:104ABA00760E03D07F0E4B6E760E9BEC30F0BCEF79
:104ACA0030F000EC33F0F0EC30F097DC00EF20F03F
:104ADA00D9CFE6FFE1CFD9FF040EE126E66AE66AFE
:104AEA00AFDFE552E552E66AD9CFE6FFDACFE6FF55
:104AFA00030EE66E28EC2EF0E552E552E552E55239
:104B0A00E66AD950020FE66E000EDA20E66E020E51
:104B1A00E66E28EC2EF0E552E552E552E552000128
:104B2A00975101E0D0D2010E4B6E4C6ADF504B1800
:104B3A0003E1DE52DD504C181AE1D950020FE96E3A
:104B4A00DACFEAFFEE50ED100BE0010E4B6E4C6A25
:104B5A00020EDB504B1803E1030EDB504C1804E144
:104B6A00020EDBCFD0F002D00001978DA9D2020E3F
:104B7A004B6E4C6ADF504B1803E1DE52DD504C1885
:104B8A001AE1D950020FE96EDACFEAFFEE50ED10C2
:104B9A000BE0010E4B6E4C6A020EDB504B1803E120
:104BAA00030EDB504C1804E1020EDBCFBDF102D03C
:104BBA000001978D85D2030E4B6E4C6ADF504B185D
:104BCA0003E1DE52DD504C181CE1D950020FE96EA8
:104BDA00DACFEAFFEE50ED1003E106908C9410D084
:104BEA00010E4B6E4C6A020EDB504B1803E1030EAA
:104BFA00DB504C1803E106808C9402D00001978D9B
:104C0A005FD2040E4B6E4C6ADF504B1803E1DE5242
:104C1A00DD504C181DE1020EDBCF4BF0030EDBCF4B
:104C2A004CF04C3404E24B502008000E4C5407E27E
:104C3A00200EF36E020EF3CFDBFF030EDB6A56EC97
:104C4A0017F0000901E0FBD7020EDB50186E38D2CC
:104C5A000A0E4B6E4C6ADF504B1803E1DE52DD50F0
:104C6A004C181CE1D950020FE96EDACFEAFFEE5078
:104C7A00ED1003E10101BE9110D0010E4B6E4C6A9A
:104C8A00020EDB504B1803E1030EDB504C1803E114
:104C9A000101BE8102D00001978D12D2320E4B6EF5
:104CAA004C6ADF504B1803E1DE52DD504C180FE11D
:104CBA00D950020FE96EDACFEAFFEE50ED1003E1A8
:104CCA000001D96B03D00001010ED96FF9D1330E5F
:104CDA004B6E4C6ADF504B1803E1DE52DD504C1824
:104CEA0011E1FF0EE76E020EDBCF4BF0030EDBCFB6
:104CFA004CF0E7504B164C6A4B500C6E0C5001E1CD
:104D0A000E90DED1340E4B6E4C6ADF504B1803E125
:104D1A00DE52DD504C180EE1FF0EE76E020EDBCFBD
:104D2A004BF0030EDBCF4CF0E7504B164C6A4B505E
:104D3A000D6EC6D1350E4B6E4C6ADF504B1803E12F
:104D4A00DE52DD504C1814E1010E4B6E4C6A020E15
:104D5A00DB504B1803E1030EDB504C1804E1000151
:104D6A00010EDD6F04D00001DD6B0001DE6BA8D1FE
:104D7A00360E4B6E4C6ADF504B1803E1DE52DD50A3
:104D8A004C1812E1010E4B6E4C6A020EDB504B18A6
:104D9A0003E1030EDB504C1804E10001010EDF6F42
:104DAA0002D00001DF6B8CD13C0E4B6E4C6ADF5097
:104DBA004B1803E1DE52DD504C180DE1020EDBCF39
:104DCA00A5F0030EDBCFA6F0FF0E0001A517030E18
:104DDA000001A61775D13D0E4B6E4C6ADF504B1879
:104DEA0003E1DE52DD504C1837E1F29EF29C020ECE
:104DFA00DBCFA9F0030EDBCFAAF00001A951AA115B
:104E0A0009E10001A86B0001AB6BAC6B0001AD6B53
:104E1A00AE6B1FD00001A851030A14E0020A0FE08A
:104E2A00010A0DE0020A01E00AD0A9C0ADF0AAC049
:104E3A00AEF00001E80EAB6F030EAC6F0AD00001B2
:104E4A00010EA86F0001AB6BAC6B0001AD6BAE6BD2
:104E5A0000D0F28CF28E34D1FA0E4B6E4C6ADF50CF
:104E6A004B1803E1DE52DD504C1820E1D950020FF5
:104E7A00E96EDACFEAFFEE50ED1002E1099215D0A1
:104E8A00010E4B6E4C6A020EDB504B1803E1030E07
:104E9A00DB504C1808E10982959295909292949071
:104EAA00929A949C02D00001978D0AD1FB0E4B6E08
:104EBA004C6ADF504B1803E1DE52DD504C182BE1EF
:104ECA00D950020FE96EDACFEAFFEE50ED1003E196
:104EDA00099609941FD0010E4B6E4C6A020EDB50E4
:104EEA004B1803E1030EDB504C1812E109840996B2
:104EFA00EC0EE66EA4EC46F0E552020EE66EE66AA9
:104F0A001C0EE66E9EEC45F0E552E552E55202D0E3
:104F1A000001978DD5D0FC0E4B6E4C6ADF504B18B2
:104F2A0003E1DE52DD504C182BE1D950020FE96E35
:104F3A00DACFEAFFEE50ED1003E1099609941FD08B
:104F4A00010E4B6E4C6A020EDB504B1803E1030E46
:104F5A00DB504C1812E109860984EC0EE66EA4ECCB
:104F6A0046F0E552020EE66EE66A1C0EE66E9EEC0E
:104F7A0045F0E552E552E55202D00001978DA0D0E6
:104F8A00FD0E4B6E4C6ADF504B1803E1DE52DD50CA
:104F9A004C1829E1D950020FE96EDACFEAFFEE5038
:104FAA00ED1002E109981ED0010E4B6E4C6A020EFA
:104FBA00DB504B1803E1030EDB504C1811E1098852
:104FCA00EC0EE66EA4EC46F0E552020EE66EE66AD8
:104FDA001C0EE66E9EEC45F0E552E552E55202D013
:104FEA000001978D6DD0FE0E4B6E4C6ADF504B1848
:104FFA0003E1DE52DD504C181AE109829592959030
:10500A0092928C908C808C908C808C908C808C90DE
:10501A008C808C908C808C908C808C908C808C90E6
:10502A008C808C908C808C908C80EBD749D04B688C
:10503A004C6ADF504B1803E1DE52DD504C181AE17E
:10504A00D950020FE96EDACFEAFFEE50ED1002E115
:10505A00099A0FD0010E4B6E4C6A020EDB504B18A8
:10506A0003E1030EDB504C1802E1098A02D0000169
:10507A00978D26D04B6A010E4C6EDF504B1803E118
:10508A00DE52DD504C181AE1D950020FE96EDACF20
:10509A00EAFFEE50ED1002E1099C0FD0010E4B6EB3
:1050AA004C6A020EDB504B1803E1030EDB504C181E
:1050BA0002E1098C02D00001978D02D00001978D80
:1050CA00E66ADCDCE552040EE15C02E2E16AE552E2
:1050DA00E16EE552E7CFD9FF120055EC32F068ECE9
:1050EA0032F0010EA1EC30F00001975101E082D0BC
:1050FA00DF0408E1F2EC31F0020EE66EDCC04BF0A0
:10510A004C6A20D0020EF9EC30F008E1F2EC31F0F2
:10511A00200EE66EE66AE66AE66A44D0030EF9EC09
:10512A0030F006E1F2EC31F0185022EC31F038D0D0
:10513A00040EF9EC30F009E1CDEC1FF0F2EC31F09D
:10514A00D3EC31F0C0EC30F04FD0050EF9EC30F072
:10515A000EE1F2EC31F0D3EC31F0C0EC30F0A5EC1A
:10516A0030F0F29C0001E06BE16BF28C41D03C0E16
:10517A00F9EC30F007E1F2EC31F0A5C04BF0A6C033
:10518A004CF00AD03D0EF9EC30F00FE1F2EC31F0C0
:10519A00A9C04BF0AAC04CF04D6A4E6A4BC0E6FF5C
:1051AA00FFEC31F0E3EC32F01FD0C80EF9EC30F02E
:1051BA001EE1F2EC31F0F29E23C0E6FF24C0E6FFC6
:1051CA0025C0E6FF26C0E6FFE3EC32F02C0EC5EC64
:1051DA0030F027C0E6FF28C0E6FF29C0E6FF2AC054
:1051EA00E6FFE3EC32F0F28EA5EC30F001D0978DB9
:1051FA00F0EC30F0E552BCEF30F0B7EC30F0050ED1
:10520A0006EC32F0010ECFEC32F0D3EC32F0E66A63
:10521A00D950030FF7EC31F0E66AD950040F0EECBF
:10522A0033F010E1DF50926E010EDB50936E020EE6
:10523A00DB50946E030EDB50956E040EDB50966EB7
:10524A00F0EC30F0050EE15C02E2E16AE552E16E53
:10525A00BCEF30F0B7EC30F0FE0EDB50100805E280
:10526A00100EF36EFE0EF3CFDBFFFD0EDB502BE0CC
:10527A00FE0EDB50D3EC46F0F3500001A113F450BC
:10528A00A213080EF36EFE0E8BEC31F00DE2010E46
:10529A00F36EFE0EDB5003E0E6EC30F0FDE1F35076
:1052AA00F31C0F0148173DD0FE0EDB500C0839E302
:1052BA00DAEC31F004E0E846FE0B4B06FCE1E81CB0
:1052CA000F0149172ED0FE0EDB50D3EC46F0F3CF78
:1052DA004BF0F4CF4CF04B1E4C1E4B500001A11763
:1052EA004C50A217080EF36EFE0E8BEC31F00CE256
:1052FA00010EF36EFE0EDB5003E0E6EC30F0FDE14A
:10530A00F3500F0148130DD0FE0EDB500C0809E3D1
:10531A00DAEC31F004E0E846FE0B4B06FCE10F0143
:10532A004913BCEF30F012EC33F0CFEC32F0010F3E
:10533A000EEC33F00AE1010EDBCFE6FFDFCFE6FF2A
:10534A0089DFE552E552F0EC30F0020EE15C02E250
:10535A00E16AE552E16EBCEF30F012EC33F0A1ECF9
:10536A0030F03DEC31F027E1010EDB5002E1DF5075
:10537A00896E1EEC32F01FE1010EDB5002E1DF50B4
:10538A008A6E1EEC32F017E1010EDB5002E1DF50AB
:10539A008B6E1EEC32F00FE1010EDB5002E1DF50A2
:1053AA008C6E1EEC32F007E1010EDB5002E1DF5099
:1053BA008D6EF0EC30F0020EE15C02E2E16AE55239
:1053CA00E16EBCEF30F0010EE66EE66E35EC32F0BF
:1053DA00805023EC32F0815023EC32F0825023ECDF
:1053EA0032F0835023EC32F0845004EC33F0A5EF12
:1053FA0030F07CEC31F0600E4B6E890E27EF32F004
:10540A00F0EC32F0DF6A010EF36EDB6E020EDB6A3D
:10541A00E66A010EE66E35EC32F09DBCFED7DF6A15
:10542A00DFCF4BF0100EE76E4B18E8AE02D0E73430
:10543A0002D0E7504B5C3BE2010EDB500001A115A4
:10544A0000014B6E020EDB500001A21500014C6EEA
:10545A004B504C101FE02C0EC5EC30F0E2EC30F053
:10546A004BAE03D04C684D684E68F4EC32F03A0EFD
:10547A00C5EC30F0DFCFE9FFEA6AE9BEEA6845EC3D
:10548A0032F0EA22EECF4BF0EFCF4CF04D6A4E6A83
:10549A00F4EC32F0BEEC31F0D8904B364C36010EBB
:1054AA004BC0DBFF020E4CC0DBFFDF2AB9D7020E6E
:1054BA00B8EC32F0030EE15C02E2E16AE552E16E19
:1054CA00BCEF30F0ECEC32F0030ECFEC32F0020F0E
:1054DA000EEC33F00AE19AEC32F005E286EC31F098
:1054EA00020EDBCFEFFFF0EC30F0030EE15C02E2DC
:1054FA00E16AE552E16EBCEF30F0F0EC32F068ECB4
:10550A0032F0030EA1EC30F0000197510DE19AEC54
:10551A0032F005E286EC31F0020EEFCFDBFF020E2D
:10552A00A1EC31F00EEC32F0030EE15C02E2E16A2A
:10553A00E552E16EBCEF30F007EC33F001E090D0B9
:10554A00020EDB50010801E287D0010EDB5007088A
:10555A0001E282D0410EF9EC30F016E1020EDB5086
:10556A000AE1F5EC30F003E0E6EC30F0FDE1F3504F
:10557A00F31C921673D0F5EC30F003E0E6EC30F051
:10558A00FDE1F35092126AD0420EF9EC30F016E1C6
:10559A00020EDB500AE1F5EC30F003E0E6EC30F005
:1055AA00FDE1F350F31C931659D0F5EC30F003E00B
:1055BA00E6EC30F0FDE1F350931250D0430EF9ECD3
:1055CA0030F016E1020EDB500AE1F5EC30F003E0B0
:1055DA00E6EC30F0FDE1F350F31C94163FD0F5EC05
:1055EA0030F003E0E6EC30F0FDE1F350941236D0EF
:1055FA00440EF9EC30F016E1020EDB500AE1F5EC4C
:10560A0030F003E0E6EC30F0FDE1F350F31C9516C0
:10561A0025D0F5EC30F003E0E6EC30F0FDE1F35094
:10562A0095121CD0450EF9EC30F016E1020EDB5053
:10563A000AE1F5EC30F003E0E6EC30F0FDE1F3507E
:10564A00F31C96160BD0F5EC30F003E0E6EC30F0E4
:10565A00FDE1F350961202D0978D02D0F0EC30F0B3
:10566A00030EE15C02E2E16AE552E16EBCEF30F062
:10567A00F0EC32F0020EDB6A68EC32F0050ECFEC89
:10568A0032F0010F0EEC33F060E1010EDB50070837
:10569A0050E3410EF9EC30F00AE1F5EC30F003E0AA
:1056AA00E6EC30F0FDE1F350801439E029D0420EE7
:1056BA00F9EC30F00AE1F5EC30F003E0E6EC30F01A
:1056CA00FDE1F35081141CE12AD0430EF9EC30F0CD
:1056DA000AE1F5EC30F003E0E6EC30F0FDE1F350DE
:1056EA0082140EE11CD0440EF9EC30F00BE1F5EC1B
:1056FA0030F003E0E6EC30F0FDE1F35083140FE004
:10570A00010E10D0450EF9EC30F013E1F5EC30F053
:10571A0003E0E6EC30F0FDE1F350841402E1000E00
:10572A0001D0010EE76E020EE7CFDBFFDB5008E087
:10573A0002D0978D0AD0010EF36E020EF3CFDBFF73
:10574A00020EA1EC31F00EEC32F0030EE15C02E243
:10575A00E16AE552E16EBCEF30F007EC33F001E0AC
:10576A0090D0020EDB50010801E287D0010EDB5017
:10577A00070801E282D0410EF9EC30F016E1020E80
:10578A00DB500AE1F5EC30F003E0E6EC30F0FDE145
:10579A00F350F31C891673D0F5EC30F003E0E6EC15
:1057AA0030F0FDE1F35089126AD0420EF9EC30F084
:1057BA0016E1020EDB500AE1F5EC30F003E0E6EC0C
:1057CA0030F0FDE1F350F31C8A1659D0F5EC30F0B5
:1057DA0003E0E6EC30F0FDE1F3508A1250D0430EBC
:1057EA00F9EC30F016E1020EDB500AE1F5EC30F08C
:1057FA0003E0E6EC30F0FDE1F350F31C8B163FD0EA
:10580A00F5EC30F003E0E6EC30F0FDE1F3508B12FA
:10581A0036D0440EF9EC30F016E1020EDB500AE104
:10582A00F5EC30F003E0E6EC30F0FDE1F350F31C68
:10583A008C1625D0F5EC30F003E0E6EC30F0FDE113
:10584A00F3508C121CD0450EF9EC30F016E1020E22
:10585A00DB500AE1F5EC30F003E0E6EC30F0FDE174
:10586A00F350F31C8D160BD0F5EC30F003E0E6ECA8
:10587A0030F0FDE1F3508D1202D0978D02D0F0EC9A
:10588A0030F0030EE15C02E2E16AE552E16EBCEF40
:10589A0030F0D9CFE6FFE1CFD9FFE652DF6AFF0E3B
:1058AA00DF5C0AE2E868E85005E0E80600D000D0CC
:1058BA0000D0F9D7DF2AF3D7E552E552E7CFD9FF6F
:1058CA001200F29EF29C6592656AE3DF0FEF00F028
:1058DA001200F29EF29C6592656ADBDFFF001200FD
:1058EA007CEC31F08050080B01E0010E04EC33F03F
:1058FA000101BEB103D0020EB8EC32F0F0EF30F085
:10590A00B7EC30F0060E06EC32F0070EA1EC30F0E0
:10591A00010EE66ED950040FF7EC31F0E76E050E72
:10592A00E7CFDBFF0001975116E1DFCFD5F0010E7B
:10593A00DBCFD6F0020EDBCFD7F0030EDBCFD8F0E9
:10594A00050EDB5006E1040EDB5002E0898601D029
:10595A008996F0EC30F0060EE15C02E2E16AE5526B
:10596A00E16EBCEF30F0B7EC30F0100EE12600EC3F
:10597A0033F0E6DBE66AD950010FCAEC30F0E66A8A
:10598A0062D90BEC32F0E66ABDEC32F0010ECFECD4
:10599A0032F0040FCAEC30F0020ECFEC32F0020FF4
:1059AA00CAEC30F0030ECFEC32F00A0FEEDB060E33
:1059BA00CFEC32F0060FE9DB070ECFEC32F00E0F18
:1059CA00E4DB040ECFEC32F00F0FDFDB050EB4DBA5
:1059DA00770E4B6E760EAADB010EA1EC31F04BAEC0
:1059EA0003D04C684D684E68E0EC32F06F0E4B6E97
:1059FA00760E9CDBE2DB0EEC32F0670E4B6E760E17
:105A0A0095DB040EDBCF4BF0050EDBCF4CF04D6A75
:105A1A004E6A4CAE02D04D684E68E0EC32F05F0E32
:105A2A004B6E760E83DB020EDBCF4BF0030EDBCF21
:105A3A004CF04D6A4E6A0EEC32F0570E4B6E760EF3
:105A4A0075DBD9500A0FADDB17EC33F06DEC32F091
:105A5A00D950060FA6DBE3EC32F072DB470E4B6E31
:105A6A00760E64DB0E0E86EC32F03F0E4B6E760E2F
:105A7A005DDB0F0E86EC32F06DEC32F0080EE66E4E
:105A8A003AEC32F06DEC32F0E66A3AEC32F0A3DB33
:105A9A00100EE15C02E2E16AE552E16E68D355EC70
:105AAA0032F0DF6A110EDF5C04E2B7DBEF6ADF2A4D
:105ABA00F9D7A0EC32F0DF6A100EDF5C21E2ADDB31
:105ACA00EF5080081DE3A9DBEFCF4BF0200E4B5CB3
:105ADA0017E3A3DBEF50E66E180E02014C6AFA25B3
:105AEA004B6EFB5195EC31F098DBEF50E66E020EEF
:105AFA004C6AFC254B6EFD5195EC31F0DF2ADCD760
:105B0A00DF50E824180FFAC2E9FFFBC2EAFFEF6E82
:105B1A00DF50E824020FFCC2E9FFFDC2EAFFEF6E84
:105B2A00E55225D3FCEC32F0DF6A00EC33F0010ECB
:105B3A00DB6A110EF36E010EE9DB0BE2010EDB509C
:105B4A00EA6AE80FE96E000EEA22EF6A010EDB2A22
:105B5A00F0D7100EE66EC2EC32F03AD8F8EC32F01A
:105B6A00DF6EE668FB0EE66EE66AA5EC32F034EC10
:105B7A0044F0B9EC31F04CDB9EEC42F0B9EC31F078
:105B8A002ADB020EE15C02E2E16AE552E16EEFD243
:105B9A0055EC32F0ACDBDF6A110EDF5C04E23DDB70
:105BAA00EF6ADF2AF9D7A0EC32F0800E0001E85D37
:105BBA0009E2E851200806E2C2EC32F097EC41F023
:105BCA00E552E5520101BEA1BBDA05DBE552CFD2AF
:105BDA0055EC32F0DF6A53DBEF6AACEC32F002E1EB
:105BEA00978905D0B0DA2C0804E011EC32F0000EE7
:105BFA0028D0D0DA04E1010E4C1801E1CB6B0D0E6E
:105C0A00C7EC32F009E02C0E4C6E9DDA4C5C04E0D5
:105C1A00FC0EDB50DF5C02E3DF5013D094DAE66E51
:105C2A002EDBE552E750EF6EB5DA04E1010E4C18AF
:105C3A0001E1CB6BDF2AFD0EDB2AFE0EE0E3DB2A55
:105C4A00DED7E55294D28EDA090EE126080EDB6A17
:105C5A00ACEC32F005E1FB0EDB5019E1978917D065
:105C6A0072DA2C0806E0FB0EDB5001E1D5DB020EEE
:105C7A001AD190DA04E1010E4C1801E1CB6B0D0E3A
:105C8A00C7EC32F006E1FB0EDB5001E19789030E07
:105C9A000AD12D0EC7EC32F020E1040E54DB1DE0D0
:105CAA00050E4D6EFE0EDB504D5C17E0FE0EDB045A
:105CBA0001E1C0D0030E2FDB01E1BCD0070E43DBAC
:105CCA0001E1B8D0010EF36E080EF3CFDBFF62DA02
