:020000040000FA
:06100000C6EF6FF01200C4
:061008002EEF08F01200BB
:061018000EEF41F0120092
:06102A00040070E000006C
:10103000A80500004B0000006EE00000F70500006E
:10104000020000006CE00000F50500000200000056
:0C105000EEDF0000780400007E000000CD
:04105C00DACFE4FF04
:10106000E9CFE4FFEACFE4FFF3CFE4FFF4CFE4FFFE
:10107000E6529E90FE0ECF6E300ECE6E09B28C827E
:101080000080010180A933D0045004E15F0E831475
:1010900081118C6E02A016D009A402D0D7EC20F0EA
:1010A00051EC23F0B2AF0ED0B29F818DDDEC20F079
:1010B00009A404D0BB2BBC23BD23BE2392EC20F09B
:1010C00001E1029003A00BD05AEC23F0B6AF07D099
:1010D000B69F14EC21F0E6EC20F001E10390010E44
:1010E000021444E1010E031401E176D03FD080AB3D
:1010F0003FD002A01FD009A402D0D7EC20F0E1EC31
:101100001EF0B2AF17D07F0EB215B26F818DDDEC3D
:1011100020F009A404D0BB2BBC23BD23BE238AAF7F
:1011200003D0818F8C8E02D0819F8C9E92EC20F018
:1011300001E1029003A014D0F3EC1EF0B6AF10D082
:101140007F0EB615B66F14EC21F08EAF03D0818BF5
:101150008C8A02D0819B8C9AE6EC20F001E103900E
:10116000010E021403E1010E031436E0009034D0A6
:1011700080AD32D002A030D00090DDEC20F092ECB7
:1011800020F001E1029009A402D0D7EC20F0E1ECBC
:101190001EF0B2AF12D07F0EB215B26F818D09A4CE
:1011A00005D0BB2B000EBC23BD23BE238AAF03D0CA
:1011B000818F8C8E02D0819F8C9EF3EC1EF0B6AF97
:1011C0000BD07F0EB615B66F81898EAF03D0818BA1
:1011D0008C8A02D0819B8C9A500E811542E004507B
:1011E00005E10F0E831481118C6E0ED081AF02D0F9
:1011F0008B8401D08B9481AB02D0898401D08994F7
:1012000081BD8B8C81B9898A81AD19D081AF0CD019
:101210001B06000E1C5A1D5A1E5A09A410D0BF07E7
:10122000C05BC15BC25B0BD01B2A000E1C221D22BF
:101230001E2209A404D0BF2BC023C123C22381A92D
:101240000DD081AB06D01F06000E205A215A225A1B
:1012500005D01F2A000E202221222222AF0E811744
:10126000DCD080A35CD08B8005A03AD0AA050A6EA2
:10127000A851A9111AE187EC20F0EF500001EA6AA9
:101280008025E96E8151EA22EF6AB3EC23F0EE6A21
:10129000ED6ABAEC23F0EE6AED6A87EC20F0EF6AB3
:1012A000DCEC23F0EE6AED6A1BD0B3EC23F0ABC1AB
:1012B000EEFFACC1EDFFBAEC23F0A8C1EEFFA9C16F
:1012C000EDFF87EC20F0A7C1EFFFDCEC23F0EE5040
:1012D000ED1006E1DCEC23F0A8C1EEFFA9C1EDFFA3
:1012E00000018A510101A75D19E10001845101014A
:1012F000A8190DE1000185510101A91908E10001BA
:10130000010EC16FBE6BCA5109E08A9807D0000177
:10131000C16B010EBE6FCA5101E08A888B90030E2B
:10132000010180150EE0EBEC20F001E176D08207A0
:10133000000E835B845B855BEBEC20F06EE000903D
:101340006CD080A529D0865122E0ADC15BF0AEC142
:101350005CF0D8905C325B32D8905C325B325B5090
:10136000BB6EC8C05DF0C9C05EF0040ED8905D369B
:101370005E36E804FBE1300E5D16000E5E16CF0E01
:10138000BA145D105B6E5EC05CF0E85003D0BB6ABF
:10139000CF0EBA14BA6E40D080A73FD0815100085A
:1013A00023E2045002E18D9001D08C92810503E18B
:1013B0008D848D82898C020E815D03E18D848D8206
:1013C000899C030E815D03E18D948D82899C040EBE
:1013D000815D03E18D848D92899C050E815D09E11B
:1013E0008D948D92899C05D0045002E18D8001D0AE
:1013F0008C82A751000806E2045002E18B9207D0CC
:10140000899205D0045002E18B8201D08982A6EC3A
:1014100020F0AFEC20F00E6A008009A47ED2010E0D
:10142000001404E1080E091401E177D2700E0101E5
:10143000801501E172D2098EADA2FED7540EAE6EB8
:10144000ADA2FED72C0EAE6EB7C10FF0B8C110F032
:10145000B9C111F0BAC112F0B1EC24F005E3ADA2AC
:10146000FED7300E132405D0ADA2FED7410E1324B3
:10147000F60F95EC22F005E3ADA2FED7300E132453
:1014800005D0ADA2FED7410E1324F60F38EC24F0A0
:1014900005E3ADA2FED7300E132405D0ADA2FED7D2
:1014A000410E1324F60F9AEC22F005E3ADA2FED70D
:1014B000300E132405D0ADA2FED7410E1324F60F33
:1014C0003CEC24F005E3ADA2FED7300E132405D08A
:1014D000ADA2FED7410E1324F60F9FEC22F005E3D8
:1014E000ADA2FED7300E132405D0ADA2FED7410E1B
:1014F0001324F60F40EC24F005E3ADA2FED7300E26
:10150000132405D0ADA2FED7410E1324F60FA4EC90
:1015100022F005E3ADA2FED7300E132405D0ADA214
:10152000FED7410E1324F60FAE6EADA2FED72C0EE1
:10153000AE6EADA2FED7530EAE6EADA2FED72C0E90
:10154000AE6EBBC10FF0BCC110F0BDC111F0BEC189
:1015500012F0B1EC24F005E3ADA2FED7300E132457
:1015600005D0ADA2FED7410E1324F60F95EC22F064
:1015700005E3ADA2FED7300E132405D0ADA2FED7F1
:10158000410E1324F60F38EC24F005E3ADA2FED78C
:10159000300E132405D0ADA2FED7410E1324F60F52
:1015A0009AEC22F005E3ADA2FED7300E132405D04D
:1015B000ADA2FED7410E1324F60F3CEC24F005E358
:1015C000ADA2FED7300E132405D0ADA2FED7410E3A
:1015D0001324F60F9FEC22F005E3ADA2FED7300EE8
:1015E000132405D0ADA2FED7410E1324F60F40EC14
:1015F00024F005E3ADA2FED7300E132405D0ADA232
:10160000FED7410E1324F60FA4EC22F005E3ADA2A1
:10161000FED7300E132405D0ADA2FED7410E132401
:10162000F60FAE6EADA2FED72C0EAE6EADA2FED7FB
:10163000430EAE6EADA2FED72C0EAE6EAFC10FF054
:10164000B0C110F0B1C111F0B2C112F0B1EC24F090
:1016500005E3ADA2FED7300E132405D0ADA2FED710
:10166000410E1324F60F95EC22F005E3ADA2FED750
:10167000300E132405D0ADA2FED7410E1324F60F71
:1016800038EC24F005E3ADA2FED7300E132405D0CC
:10169000ADA2FED7410E1324F60F9AEC22F005E31B
:1016A000ADA2FED7300E132405D0ADA2FED7410E59
:1016B0001324F60F3CEC24F005E3ADA2FED7300E68
:1016C000132405D0ADA2FED7410E1324F60F9FECD4
:1016D00022F005E3ADA2FED7300E132405D0ADA253
:1016E000FED7410E1324F60F40EC24F005E3ADA223
:1016F000FED7300E132405D0ADA2FED7410E132421
:10170000F60FA4EC22F005E3ADA2FED7300E1324B1
:1017100005D0ADA2FED7410E1324F60FAE6EADA2DA
:10172000FED72C0EAE6EADA2FED7520EAE6EADA29F
:10173000FED72C0EAE6E87C10FF088C110F089C1A4
:1017400011F08AC112F0B1EC24F005E3ADA2FED78E
:10175000300E132405D0ADA2FED7410E1324F60F90
:1017600095EC22F005E3ADA2FED7300E132405D090
:10177000ADA2FED7410E1324F60F38EC24F005E39A
:10178000ADA2FED7300E132405D0ADA2FED7410E78
:101790001324F60F9AEC22F005E3ADA2FED7300E2B
:1017A000132405D0ADA2FED7410E1324F60F3CEC56
:1017B00024F005E3ADA2FED7300E132405D0ADA270
:1017C000FED7410E1324F60F9FEC22F005E3ADA2E5
:1017D000FED7300E132405D0ADA2FED7410E132440
:1017E000F60F40EC24F005E3ADA2FED7300E132433
:1017F00005D0ADA2FED7410E1324F60FA4EC22F0C3
:1018000005E3ADA2FED7300E132405D0ADA2FED75E
:10181000410E1324F60FAE6EADA2FED72C0EAE6EA7
:10182000ADA2FED7500EAE6EADA2FED72C0EAE6EA0
:10183000BFC10FF0C0C110F0C1C111F0C2C112F0A0
:10184000B1EC24F005E3ADA2FED7300E132405D091
:10185000ADA2FED7410E1324F60F95EC22F005E35E
:10186000ADA2FED7300E132405D0ADA2FED7410E97
:101870001324F60F38EC24F005E3ADA2FED7300EAA
:10188000132405D0ADA2FED7410E1324F60F9AEC17
:1018900022F005E3ADA2FED7300E132405D0ADA291
:1018A000FED7410E1324F60F3CEC24F005E3ADA265
:1018B000FED7300E132405D0ADA2FED7410E13245F
:1018C000F60F9FEC22F005E3ADA2FED7300E1324F5
:1018D00005D0ADA2FED7410E1324F60F40EC24F044
:1018E00005E3ADA2FED7300E132405D0ADA2FED77E
:1018F000410E1324F60FA4EC22F005E3ADA2FED7AF
:10190000300E132405D0ADA2FED7410E1324F60FDE
:10191000AE6EADA2FED70A0EAE6E0C5019E081502D
:101920000B6EE8500D18E81C0C1412E00BC0E3F22B
:101930000E80026A036A0080146A156A166A016AD8
:10194000200E015C05E201506CEC1FF0012AF8D773
:1019500000A0D7D00101806B145001E1CAD009B2B8
:101960008C8006B08C941650D5EC21F0EF50176E99
:1019700017A803D003EC24F004D017AA14D07FECEE
:1019800021F07CEC23F0C1EC20F07CEC23F0040E81
:10199000AFEC1DF0EECF93F1EECF94F1EECF95F1D9
:1019A000EFCF96F108D017AC10D07FEC21F07CEC93
:1019B00023F0C1EC20F0A5EC23F0020EAFEC1DF0FB
:1019C00027EC1FF09DEC23F045D017A223D0F4ECB8
:1019D00021F0A9EC1CF0280EAFEC1DF0EECFA8F121
:1019E000EDCFA9F1A9EC1CF0270EAFEC1DF0EFCF65
:1019F000A7F1A9EC1CF02A0EAFEC1DF0EFCFAAF175
:101A0000A9EC1CF02B0EAFEC1DF0EECFABF1EDCF3F
:101A1000ACF120D017A003D0F4EC21F01BD017A418
:101A20000ED0F4EC21F09DEC23F0A9EC1CF02D0E6F
:101A3000AFEC1DF0EECFADF1EDCFAEF10BD0A9ECD8
:101A40001CF0EFCF80F1A5EC23F0270EAFEC1DF0DA
:101A5000EFCFA7F1700E0101801531E086A909D002
:101A600082C1AFF183C1B0F184C1B1F185C1B2F1DE
:101A70001AD086A104D0AF6BB06BB16BB26B86A3EA
:101A800004D0B36BB46BB56BB66B86A505D0AF69EC
:101A9000B069B1697F0EB26F86A705D0B369B4692A
:101AA000B5697F0EB66F92EC20F002E0028001D0A3
:101AB0000290E6EC20F002E0038001D0039009A43C
:101AC0000CD0B76BB86BB96BBA6BBB6BBC6BBD6B37
:101AD000BE6BBF6BC06BC16BC26B16506CEC1FF062
:101AE000162A1850165C01E3166A14500AE0140610
:101AF00008D0826B836B846B856B06B08C8409B2D3
:101B0000898280AE078008A002D081A0078004509F
:101B100003E18C9C8C9802D08B9C899A09AE06D0EC
:101B20009E90FE0ECF6E300ECE6E099E09A203D09F
:101B300089928C908C92E552E5CFF4FFE5CFF3FFCC
:101B4000E5CFEAFFE5CFE9FFE5CFDAFF1100D9CF16
:101B5000E6FFE1CFD9FFE652DF6A020EDF5C2DE23D
:101B6000DF50040DF3CFE9FFF4CFEAFF870EE9263B
:101B7000010EEA22010EEE6EEE6AEE6AEE6ADF50A8
:101B8000040DF3CFE9FFF4CFEAFF8F0EE926010E33
:101B9000EA22EE6AEE6AEE6AEE6ADF50040DF3CFD7
:101BA000E9FFF4CFEAFF9F0EE926010EEA22EE6A72
:101BB000EE6AEE6AEE6ADF2AD0D70101806B01017E
:101BC000816B0101826B836B846B856B0101A86B58
:101BD000A96B0101A76B0101AA6B0101AB6BAC6B97
:101BE0000690096ACD82CD9ECD9CCD9ACD98CD969A
:101BF000CD94CF6ACE6A9F809E909D80CD8092804A
:101C00009F9C010EE66EE66A3BEC4DF0E552E55214
:101C1000010EE66E0B0EE66E3BEC4DF0E552E55222
:101C20008D8496948D829692898C929C8D809690CC
:101C30008B8294928C9C959C8C9E959E8C9895986A
:101C40008C9A959A949E828E0000000000000000FD
:101C50000000000000000000000000000000000084
:101C60000000000000000000000000000000948E52
:101C7000829E0001010ECA6F05808A98939889960A
:101C800092960001010EBE6F046A0001010EC16F41
:101C90000001C66B0001C26BC36BC46BC56B076AE6
:101CA0000001CC6B0001010ECB6F146A156A166A35
:101CB000010E186E050E196E1A6A9380F19E088047
:101CC000939681960B6A0C6A0D6A0E6A5FEC1CF0A3
:101CD000E552E552E7CFD9FF1200AAEC1DF0030E42
:101CE00030EC1FF090EC24F0E66AB7EC1EF0020135
:101CF0008C5101E0ABD0DF0420E1E0EC23F007E100
:101D00000001010ECA6F059079EC1FF00ED0DDECDA
:101D10001EF0010EEE1805E1ED5003E10001CA6B63
:101D200003D00001010ECA6F0580000EE66EE66A60
:101D3000C1C0E6FFE3EC20F087D0020EDF5C2DE1AE
:101D4000E0EC23F008E1046A96909492959C959EAD
:101D50009598959A1BD0DDEC1EF0010EEE180CE163
:101D6000ED500AE1010EF0EC20F094949294949CD2
:101D7000929A9592929268D0DDEC1EF0020EEE18C7
:101D800063E1ED5061E1020EF0EC20F09484928466
:101D9000948C928A9582928257D0040EDF5C07E180
:101DA000010EDBCF84F0020EDBCF85F04DD0050EA7
:101DB000DF5C07E1010EDBCF82F0020EDBCF83F0A8
:101DC00043D0080EDF5C0FE1DDEC1EF0040ED8807E
:101DD000EE54000EED5403E2040E1BEC21F0010E54
:101DE000DBCF7EF031D0090EDF5C0FE1DDEC1EF0C1
:101DF000060ED880EE54000EED5403E2060E1BECE6
:101E000021F0010EDBCF7FF01FD00A0EDF5C03E173
:101E100022EC21F009D00B0EDF5C03E122EC21F073
:101E200013D00C0EDF5C07E1010EDBCF88F0020E51
:101E3000DBCF89F009D00D0EDF5C06E1E0EC23F08A
:101E400002E0088001D008901FEC1EF0030EE15C58
:101E500002E2E16AE5528CEF1DF0E5EC23F0EAECDA
:101E600021F079EC1DF0D950FB0F69EC1EF002E671
:101E7000C4EC1CF016E3EDEC21F015E1B3EC1DF021
:101E8000D950F70F69EC1EF002E6C4EC1CF009E330
:101E9000EDEC21F008E195EC23F002E6C4EC1CF037
:101EA00002E2010E01D0000E236E040EE15C02E29C
:101EB000E16AE55229EF21F0AAEC1DF01D0E9AEC23
:101EC0001CF063EC23F027EC24F01EEC24F0140F3C
:101ED00070EC1CF0CAEC20F0FFEC23F01C0EE6ECDA
:101EE0001FF053E10001CB513FE0EDEC21F005E1A3
:101EF00010EC22F0CDEC1DF00DE0080EDBCF2BF046
:101F0000090EDBCF2CF00A0EDBCF2DF00B0E2CECE4
:101F100021F02AE1040EDBCF2FF0050EDBCF30F0ED
:101F2000060EDBCF31F0070E33EC21F00DE1140E7D
:101F3000DBCF33F0150EDBCF34F0160EDBCF35F0F0
:101F4000170E3AEC21F00DE00C0EDBCF37F00D0E42
:101F5000DBCF38F00E0EDBCF39F00F0E41EC21F065
:101F600003E102018C8D11D01C0E10EC21F0180F32
:101F700049EC24F0E66A14EC1FF0140F23EC24F073
:101F8000040F2DEC22F04CEC24F01D0EE15C02E27B
:101F9000E16AE5528CEF1DF0ACEC23F0200EDB6A19
:101FA00048EC21F027EC24F0180FC8EC21F01EECCF
:101FB00024F0140FC8EC21F01C0F30EC22F0200F9D
:101FC00094EC24F0240EE6EC1FF001E07AD000013E
:101FD000CB5161E0EDEC21F012E110EC22F0CDEC00
:101FE0001DF00DE1180EDBCF2BF0190EDBCF2CF01E
:101FF0001A0EDBCF2DF01B0E2CEC21F00DE0080E9D
:10200000DBCF2FF0090EDBCF30F00A0EDBCF31F043
:102010000B0E33EC21F03FE1040EDBCF33F0050E65
:10202000DBCF34F0060EDBCF35F0070E3AEC21F0B3
:102030001EE1140EDBCF37F0150EDBCF38F0160E95
:10204000DBCF39F0170E41EC21F011E1180EDBCF98
:102050003BF0190EDBCF3CF01A0EDBCF3DF01B0E30
:10206000DBCF3EF03B503C103D103E1011E00C0E1B
:10207000DBCF3FF00D0EDBCF40F00E0EDBCF41F09B
:102080000F0EDBCF42F03F5040104110421003E1F1
:1020900002018C8D16D0240E10EC21F0200F49EC9B
:1020A00024F0E66AD9501C0FBCEC21F0140F23EC8D
:1020B00024F0040FBCEC21F0180FBCEC21F04CEC28
:1020C00024F0250EE15C02E2E16AE5528CEF1DF09E
:1020D000AAEC1DF0210E9AEC1CF073EC1EF08EECB5
:1020E00022F01EEC24F0140FC8EC21F0BDEC24F01B
:1020F000180F30EC22F01C0F94EC24F0200EE6ECCC
:102100001FF01FE10001CB5106E0EDEC21F003E1EF
:1021100002018C8D16D0200E10EC21F01C0FEAEC81
:1021200023F0E66ED950180FBCEC21F0100F2DEC07
:1021300022F0080FBCEC21F0140FBCEC21F052ECA3
:1021400024F0210EE15C02E2E16AE5528CEF1DF021
:10215000AAEC1DF0190E9AEC1CF08EEC22F01EEC8D
:1021600024F0080FC8EC21F0100F30EC22F0140F0F
:1021700094EC24F0180EE6EC1FF01AE10001CB51AC
:1021800006E0EDEC21F003E102018C8D11D0180E78
:1021900010EC21F0140FEAEC23F0E66E14EC1FF0C3
:1021A000100F2DEC22F0080F2DEC22F052EC24F051
:1021B000190EE15C02E2E16AE5528CEF1DF0AAEC37
:1021C0001DF00EB007D209B414D08EEC20F0D880E8
:1021D000030E81EC23F0000EEE540BE2030EF36EBF
:1021E000D60EF3CFDBFFD70EDB6AD80EDB6AD90E33
:1021F000DB6ADA0EDB5001E083D095EC23F002E6D7
:10220000C4EC1CF022E2EDEC23F002E6C4EC1CF07E
:102210002CE368EC22F05AEC22F0EF0EDBCF49F011
:10222000F00EDBCF4AF0F10EDBCF4BF0F20E5EEC9E
:102230001DF0EF0E45C0DBFFF00E46C0DBFFF10ED8
:1022400047C0DBFFF20E48C0DBFFD950E30F9CEC28
:102250001DF002E6C4EC1CF053E2D950E70F9CECF1
:102260001DF002E6C4EC1CF003E202018C8DB2D139
:10227000E30EDBCF49F0E40EDBCF4AF0E50EDBCF17
:102280004BF0E60E5EEC1DF0E30E45C0DBFFE40E06
:1022900046C0DBFFE50E47C0DBFFE60E48C0DBFFB4
:1022A000E70EDBCF49F0E80EDBCF4AF0E90EDBCFDB
:1022B0004BF0EA0E5EEC1DF0E70E45C0DBFFE80ECA
:1022C00046C0DBFFE90E47C0DBFFEA0E48C0DBFF7C
:1022D000DF0EDBCF49F0E00EDBCF4AF0E10EDBCFC3
:1022E0004BF0E20E5EEC1DF0DF0E45C0DBFFE00EB2
:1022F00046C0DBFFE10E47C0DBFFE20E48C0DBFF5C
:1023000000018C6B70EC21F01AEC23F09EEC1EF0B7
:10231000F70F3CEC1FF0EB0EDBCF2BF0EC0EDBCF1E
:102320002CF0ED0EDBCF2DF0EE0E3BEC1EF0F70E99
:1023300023C0DBFFF80E24C0DBFFF90E25C0DBFF56
:10234000FA0EBCEC22F09EEC1EF0E70F3CEC1FF006
:10235000DB0EDBCF2BF0DC0EDBCF2CF0DD0EDBCF8A
:102360002DF0DE0E3BEC1EF0E70E23C0DBFFE80E87
:1023700024C0DBFFE90E25C0DBFFEA0E26C0DBFF31
:102380000001916B09A41BD0D50EDB500FE1100E9C
:10239000916FD60EDBCF8DF0D70EDBCF8EF0D80E3F
:1023A000DBCF8FF0D90EDBCF90F02BD076EC22F084
:1023B00003E00001918525D00001918122D0010E1A
:1023C00037EC22F008E076EC22F003E00001918582
:1023D00002D000019181020E37EC22F012E0D950B8
:1023E000DB0F72EC24F0DF0F72EC24F0E70FC0EC8F
:1023F0001CF074EC20F003E00001918702D0000192
:1024000091831AEC23F0DBCF2AF0D950EB0F0BECC1
:1024100022F0C0EC1DF0EF0E23C0DBFFF00E24C055
:10242000DBFFF10E25C0DBFFF20EBCEC22F0DBCFB0
:102430002AF0D950DB0F0BEC22F0C0EC1DF0DF0EC0
:1024400023C0DBFFE00E24C0DBFFE10E25C0DBFF75
:10245000E20E26C0DBFF0201E00502E18D908B92C7
:10246000F70EDBCF92F0F80EDBCF93F0F90EDBCF57
:1024700094F0FA0EDBCF95F0DA0EDB500BE0FB0E9A
:10248000DBCF9AF0FC0EDBCF9BF0FD0EDBCF9CF098
:10249000FE0E0AD0F30EDBCF9AF0F40EDBCF9BF0EA
:1024A000F50EDBCF9CF0F60EDBCF9DF0EF0EDBCF11
:1024B000AAF0F00EDBCFABF0F10EDBCFACF0F20EFA
:1024C000DBCFADF0EB0EDBCFA2F0EC0EDBCFA3F059
:1024D000ED0EDBCFA4F0EE0EDBCFA5F0E70EDBCFE9
:1024E00096F0E80EDBCF97F0E90EDBCF98F0EA0E1E
:1024F000DBCF99F0DA0EDB5006E000019E6B9F6B9C
:10250000A06BA16B0CD0E30EDBCF9EF0E40EDBCF13
:102510009FF0E50EDBCFA0F0E60EDBCFA1F0DF0EE3
:10252000DBCFAEF0E00EDBCFAFF0E10EDBCFB0F0F3
:10253000E20EDBCFB1F0DB0EDBCFA6F0DC0EDBCFA3
:10254000A7F0DD0EDBCFA8F0DE0EDBCFA9F0DA0EB0
:10255000DB5003E00001400E02D00001200E8B6F23
:102560001850145CFDE20EB005D0DBEC1CF001E36A
:10257000156A142A09A82CD0A6C0E6FFA7C0E6FF5A
:10258000A8C0E6FFA9C0E6FFAEC0E6FFAFC0E6FF09
:10259000B0C0E6FFB1C0E6FF4AEC1FF0A2C0E6FF04
:1025A000A3C0E6FFA4C0E6FFA5C0E6FFAAC0E6FF01
:1025B000ABC0E6FFACC0E6FFADC0E6FF5BEC1FF0D2
:1025C0000D0E236ECB0E44EC23F0230E38EC23F0DB
:1025D0001FEC1EF099EF23F0AAEC1DF0110E58EC41
:1025E00024F0100EDB6A8EEC22F0040F30EC22F0A7
:1025F000080F30EC22F0100F61EC24F00001CB51F9
:1026000001E17CD0EDEC21F002E102018C8D0201B0
:102610008C5101E079D0EBEC1FF004E2DC0E236E6C
:10262000CA0E63D084EC1FF002E666EC1DF005E2F2
:10263000D950040F64EC24F004D0C9EC22F01CEC57
:1026400020F034EC22F002E622EC1EF004E2B00EA0
:10265000236ECA0E4AD0D5EC22F004E2820E236E1D
:10266000CA0E43D079EC24F0E8AE02D04D3402D04B
:102670005BEC1EF009E31BEC22F0CDEC1DF004E056
:102680005E0E236ECA0E31D08FEC1FF002E666ECB0
:102690001DF005E2D950080F64EC24F004D0E1EC01
:1026A00022F01CEC20F034EC22F002E622EC1EF0CA
:1026B00004E2320E236ECA0E18D0D5EC22F004E2EA
:1026C000040E236ECA0E11D079EC24F0E8AE02D0CD
:1026D0004D3402D05BEC1EF00BE31BEC22F0CDEC92
:1026E0001DF006E0E00E236EC90E97EC24F009D031
:1026F000100EDB50030802E2100EDB6A100E2FEC06
:1027000024F05EEC4AF0E552110EE15C02E2E16A6F
:10271000E5528CEF1DF0ACEC23F0010EF36E200EB1
:10272000F3CFDBFF48EC21F0240EDB6A4EEC1DF00A
:1027300089EC1DF0B4EC24F0040F30EC22F0080F0B
:1027400070EC1CF00001CB5106E0EDEC21F003E150
:1027500002018C8DACD11850145CFDE2200EDB041C
:102760000BE1F29E0101EBEC20F004E1805102E16B
:10277000200EDB6AF28EF2D71BC027F01CC028F0B7
:102780001DC029F01EC02AF09CEC20F0040FD4ECF0
:102790001DF029EC20F01FC027F020C028F021C038
:1027A00029F022C02AF09CEC20F0080FD4EC1DF098
:1027B00036EC20F03CEC23F002E6C4EC1CF005E221
:1027C000EDEC22F01AEC1FF004D0D9500C0F90EC75
:1027D0001EF040EC23F002E6C4EC1CF00FE2F9EC32
:1027E00022F0180E45C0DBFF190E46C0DBFF1A0EA3
:1027F00047C0DBFF1B0E48C0DBFF10D0D950100FC5
:1028000056EC22F0180EEECFDBFF190EEECFDBFFF9
:102810001A0EEECFDBFF1B0EEECFDBFF87EC23F0B3
:1028200002E622EC1EF009E343EC20F04D34000EEA
:102830004D1802E622EC1EF004E2B20E236EC90E21
:10284000A2D0BDEC1EF0DBCF26F0D950140F56EC11
:1028500022F0030EEBCFF3FF2650F318E8AE02D0C0
:10286000F33408D0EE50235CEE502458EE50255837
:10287000EE50265801E37DD030EC1EF075EC1CF0D4
:1028800080EC1EF004E2810E236EC90E7CD080EC39
:1028900022F043EC20F026504D18E8AE02D04D3423
:1028A00002D05BEC1EF001E2D4D0180EDBCF27F093
:1028B000190EDBCF28F01A0EDBCF29F01B0ECDEC62
:1028C0001DF001E1C6D0BDEC1EF075EC1CF034EC3F
:1028D00022F002E666EC1DF006E2E3EC1DF002E6F3
:1028E00066EC1DF029E33CEC23F002E6C4EC1CF09E
:1028F00006E2E3EC1DF002E666EC1DF00CE334ECBE
:1029000022F002E666EC1DF00BE240EC23F002E65A
:10291000C4EC1CF005E2F9EC22F050EC20F010D0F1
:102920003CEC23F002E6C4EC1CF00AE240EC23F09D
:1029300002E6C4EC1CF004E2D950100F9AEC1FF030
:10294000030EE66ED950100FBCEC21F0210FBCEC49
:1029500021F02AEC23F0F6EC1FF0210F9BEC24F081
:1029600029EC20F02EEC23F0130EDB6A30EC1EF085
:102970006ED0BDEC1EF075EC1CF080EC1EF006E293
:10298000500E236EC90E97EC24F08ED080EC22F00E
:10299000F1EC23F0E8AE02D04D3402D05BEC1EF037
:1029A00058E3DEEC21F055E030EC1EF075EC1CF045
:1029B000E3EC1DF002E666EC1DF006E234EC22F0DA
:1029C00002E666EC1DF029E340EC23F002E6C4ECDD
:1029D0001CF006E234EC22F002E666EC1DF00CE39B
:1029E000E3EC1DF002E666EC1DF00BE23CEC23F09C
:1029F00002E6C4EC1CF005E2EDEC22F050EC20F015
:102A000010D040EC23F002E6C4EC1CF00AE23CECEF
:102A100023F002E6C4EC1CF004E2D9500C0F9AEC4F
:102A20001FF0030EE66ED950210F23EC24F02AECA0
:102A300023F010EC22F0DBCF2AF0D950210F9BECD1
:102A400024F036EC20F015EC24F0BDEC1EF075EC13
:102A50001CF0D9501C0F56EC22F00A0EEE5C000E52
:102A60008AEC23F007E20A0EF36E1C0EF3CFDBFFB5
:102A7000C7EC23F009A80FD0D950100F23EC24F095
:102A80001C0F49EC24F0300E236EC90E44EC23F0E9
:102A90000F0E38EC23F0030EE66ED950100F23EC26
:102AA00024F02AEC23F0E66A5EEC4AF0E552250EAB
:102AB000E15C02E2E16AE5528CEF1DF0AAEC1DF048
:102AC000190E9AEC1CF0180EDB6A8EEC22F00C0F3B
:102AD000C8EC21F0100F70EC1CF0CAEC20F086EC72
:102AE0001DF0180EDB50030805E2030EF36E180EFE
:102AF000F3CFDBFF0001CB5105E0EDEC21F002E16B
:102B000002018C8D100EDBCF23F0110EDBCF24F0F1
:102B1000120EDBCF25F0130EDBCF26F0D9500C0FB1
:102B200056EC22F06CEC23F0040E23C0DBFF050E04
:102B300024C0DBFF060E25C0DBFF070E26C0DBFF2F
:102B4000F6EC1FF0100F9BEC24F0080E23C0DBFF07
:102B5000090E24C0DBFF0A0E25C0DBFF0B0E26C0CA
:102B6000DBFF84EC1FF002E666EC1DF005E2D950B5
:102B7000040F90EC1EF004D0C9EC22F01AEC1FF008
:102B80000001CB512CE0EBEC1FF004E2DC0E236ED5
:102B9000CA0E5BD087EC23F002E622EC1EF004E2C2
:102BA000B00E236ECA0E51D030EC1EF056EC1DF064
:102BB00004E2820E236ECA0E48D015EC23F0F1EC2D
:102BC00023F0E8AE02D04D3402D05BEC1EF007E3F8
:102BD000DEEC21F004E05E0E236ECA0E36D08FECE0
:102BE0001FF002E666EC1DF005E2D950080F90ECEC
:102BF0001EF004D0E1EC22F01AEC1FF00001CB51E2
:102C000027E087EC23F002E622EC1EF004E2320E0D
:102C1000236ECA0E1AD030EC1EF056EC1DF004E202
:102C2000040E236ECA0E11D015EC23F0F1EC23F044
:102C3000E8AE02D04D3402D05BEC1EF009E3DEECCE
:102C400021F006E0E00E236EC90E97EC24F006D0CA
:102C500002018C5106E1180E2FEC24F05EEC4AF0D4
:102C6000E552190EE15C02E2E16AE5528CEF1DF0DB
:102C7000AAEC1DF0100E58EC24F00EB0E9D109A812
:102C800012D0D950F30F72EC24F0F70F72EC24F04D
:102C9000FB0FC0EC1CF0130E236EC90E44EC23F0A6
:102CA0000F0E38EC23F0F20EDB50030805E2030EA2
:102CB000F36EF20EF3CFDBFFF20EDBCF91F079EC87
:102CC0001DF064EC1EF036E105EC23F033E1000169
:102CD000010E8B6FFB0EDBCF8DF0FC0EDBCF8EF089
:102CE000FD0EDBCF8FF0FE0EDBCF90F0190E44EC23
:102CF00024F08DC049F08EC04AF08FC04BF090C0D8
:102D00004CF0F1EC6EF045C08DF046C08EF047C03F
:102D10008FF048C090F0D880000E00014554000E9E
:102D20004654190E4754000E485401E387D170EC05
:102D300021F084D1000170EC21F08C6B0201E005E0
:102D400002E18D908B92EDEC23F002E6C4EC1CF0D6
:102D500006E2800E00018C118C6F5AEC22F095EC8B
:102D600023F002E6C4EC1CF006E2200E00018C11F8
:102D70008C6F68EC22F009A838D0D950F70F0BEC13
:102D800022F0E40EEE5C550E8AEC23F02EE279EC94
:102D90001DF0FB0E4E6E020E4F6E506A516A9EEC95
:102DA00024F048C026F0D950FB0F0BEC22F0EE5077
:102DB000455CEE504658EE504758EE50485815E2E4
:102DC000D950FB0FC0EC1CF0E30E236EC80E11ECC3
:102DD00023F0F9EC1DF0EAEC21F0F70EDB6AF80EB7
:102DE000DB6AF90EDB6AFA0EDB6A79EC1DF064EC43
:102DF0001EF06BE0EDEC23F002E6CEEC20F024E2D6
:102E000001EC1EF079EC1DF00F0E1F0B03E079ECC6
:102E10001EF0FDE140EC1DF0C8EC1EF079EC1DF059
:102E20000F0E1F0B03E079EC1EF0FDE146EC22F0E3
:102E300014E2A8EC1FF003E079EC1EF0FDE140EC99
:102E40001DF05DEC20F009D079EC1DF005EC1FF0D1
:102E50004FEC21F0FDE126EC22F0FBEC1FF007E245
:102E6000A1EC24F0B00E236EC80E7FEC24F0EDEC44
:102E700021F012E1F70EDBCF27F0F80EDBCF28F0C0
:102E8000F90EDBCF29F0FA0ECDEC1DF005E0870E30
:102E9000236EC80E84EC24F0EFEC1DF00BE2B7ECCF
:102EA0001FF003E056EC21F0FDE1D9500C0FD4ECFB
:102EB0001DF008D0ACEC1CF0100E1F0B03E079ECF9
:102EC0001EF0FDE1FAEC21F002D0EAEC21F06AEC10
:102ED00020F002E300EC21F0DFCF92F0010EDBCF17
:102EE00093F0020EDBCF94F0030EDBCF95F0F70EDC
:102EF000DBCF9AF0F80EDBCF9BF0F90EDBCF9CF026
:102F0000FA0EDBCF9DF00001AA6BAB6BAC6BAD6B27
:102F1000B3EC1DF064EC1EF060E095EC23F002E6EB
:102F2000CEEC20F024E201EC1EF0B3EC1DF00F0E0D
:102F30001F0B03E079EC1EF0FDE140EC1DF0C8EC46
:102F40001EF0B3EC1DF00F0E1F0B03E079EC1EF02A
:102F5000FDE146EC22F014E2A8EC1FF003E079EC6E
:102F60001EF0FDE140EC1DF05DEC20F009D0B3EC6B
:102F70001DF005EC1FF04FEC21F0FDE126EC22F0F6
:102F8000FBEC1FF007E2A1EC24F0540E236EC80EF8
:102F90007FEC24F0EDEC21F008E105EC23F005E0F6
:102FA0002B0E236EC80E84EC24F0EFEC1DF00BE228
:102FB000B7EC1FF003E056EC21F0FDE1D9500C0F07
:102FC000D4EC1DF008D0ACEC1CF0100E1F0B03E08D
:102FD00079EC1EF0FDE1FAEC21F06AEC20F002E35E
:102FE00000EC21F0DFCF96F0010EDBCF97F0020E60
:102FF000DBCF98F0030EDBCF99F0F30EDBCF9EF022
:10300000F40EDBCF9FF0F50EDBCFA0F0F60EDBCF9A
:10301000A1F00001AE6BAF6BB06BB16B100E8B6F9C
:1030200009A80CD04AEC1FF05BEC1FF00F0E236ECA
:10303000C80E44EC23F0130E38EC23F01850145C47
:10304000FDE20EB005D0DBEC1CF001E3156A142A9A
:10305000100EE15C02E2E16AE5528CEF1DF0AAEC91
:103060001DF0130EF6EC23F0030EDB6AAAEC21F040
:103070002EEC23F02CEC1EF05DEC21F0CDEC21F0D9
:1030800002018C5101E097D0F29E97EC20F0EF50B6
:1030900010080AE097EC20F0EF50200805E097ECCC
:1030A00020F0EF5040081EE1DE52010EDD6E97EC7D
:1030B00020F00F0EAFEC1DF00B0EEECFDBFF6FEC30
:1030C0001FF097EC20F00F0EB8EC24F00F0EEECFAF
:1030D000DBFF100EEECFDBFF110EEECFDBFF120E8B
:1030E000EECFDBFF0101806B030E8FC1DBFF040E0F
:1030F00090C1DBFF050E91C1DBFF060E92C1DBFF25
:10310000070E93C1DBFF080E94C1DBFF090E95C1CA
:10311000DBFF0A0E96C1DBFF8F6B906B916B926B9E
:10312000936B946B956B966B9F6BA06BA16BA26B73
:10313000A36BA46BA56BA66B020EDB6A200EF36E6D
:10314000020EDBCFF4FFF350F45C07E2020EDB501B
:103150006CEC1FF0020EDB2AF1D7156A166A146AAE
:10316000DF0409E1045003E18D808B8204D0040464
:1031700002E18C828982F28ED950070FBCEC21F0DB
:10318000030FBCEC21F00F0FBCEC21F00B0FEAECAD
:1031900023F0DBCFE6FFE66AFC0E236EC70E44EC9D
:1031A00023F0150EE15E26500001CCB102D0F9ECFF
:1031B0001DF01FEC1EF0130EE15C02E2E16AE55225
:1031C0008CEF1DF02CEC1EF0C1C023F0246A23BE4E
:1031D000246823C0E6FF24C0E6FFF90E256EC70E63
:1031E000C3EC1FF0CCB102D0F9EC1DF01FEF1EF0C4
:1031F000AAEC1DF0030EF6EC23F0E66ED8EC21F0FD
:103200008450040B08E18450020B05E18050400B10
:1032100002E1010E23D08450040B09E08450020B1C
:1032200006E18050400B03E1020EF36E19D084508A
:10323000040B08E18450020B05E08050400B02E1D2
:10324000040E0CD08450040B08E08450020B05E0FF
:103250008050400B02E1080E01D0100EF36E020EFA
:10326000F3CFDBFF045008E184B003D0020EDB5043
:10327000DF6E82B210D009D004040DE183B203D016
:10328000020EDB50DF6E80B206D0020EDB50E76E1E
:10329000010EE7CFDBFF08EC21F0F30E236EC70E23
:1032A00011EC23F00001CCB102D0F9EC1DF01FECC1
:1032B0001EF0030EE15C02E2E16AE5528CEF1DF0C4
:1032C000AAEC1DF0020EE126DE6ADD6A76EC24F03F
:1032D0005DEC21F0030ECDEC21F002018C510FE1E9
:1032E0000001C10504E175EC21F0E66A04D075EC3B
:1032F00021F0010EE66EE3EC20F01FEC1EF0020E52
:10330000E15C02E2E16AE5528CEF1DF090EC23F003
:1033100081EC20F075EC23F0B4EC24F0030F61ECA9
:1033200024F0E76E040EE6EC1FF024E1030EDB5000
:10333000070802E281EC20F0DF50010802E2010EF2
:10334000DF6E030EDB50030F00018A5D07E079ECAE
:103350001FF0030EDB50030F00018A6F010EDBCF5D
:10336000E6FF020EDBCFE6FFDFCFE6FFE3EC20F067
:103370001FEC1EF0050EE15C02E2E16AE552CCD3DF
:10338000E5EC23F0FE0EDB040BE184C0DEFF85C01C
:10339000DDFF020E86C0DBFF030E87C0DBFF0AD015
:1033A00082C0DEFF83C0DDFF020E88C0DBFF030E9C
:1033B00089C0DBFF8986DCC2D8F2DDC2D9F2DEC269
:1033C000DAF2DFC2DBF2FC0EDBCFE6FFFD0EDBCF75
:1033D000E6FF020EDBCFE6FF030EDBCFE6FF8AC07F
:1033E000E6FF75EC21F0CEEC23F0040EE15C02E286
:1033F000E16AE55291D3E5EC23F090EC24F0E76E1E
:10340000020EE6EC1FF02CE1020EDB5029E1B4ECD9
:1034100024F0010F61EC24F0E76E030EE6EC1FF0E0
:103420001FE1030EDB501CE11850145CFDE2155047
:10343000D5EC21F0EE52DFCFEFFFD3EC1EF0270EDC
:103440008EDB010EDBCFEFFFD3EC1EF0080EEF6E2C
:10345000152A1850155C01E3156A142A1FEC1EF09A
:10346000040EE15C02E2E16AE55256D376EC24F008
:10347000FE0E0001C25DFF0EC359FF0EC459FF0EC0
:10348000C55905E2C22B000EC323C423C5231FEF79
:103490001EF076EC24F00001C251C311C411C51115
:1034A00005E0C207000EC35BC45BC55B1FEF1EF0E7
:1034B00051DB050EE126F2DAFFEC23F0040EE7CF34
:1034C000DBFFDB500BE1DFCFC2F0010EDBCFC3F03F
:1034D000020EDBCFC4F0030EDBCFC5F0B0DB050E70
:1034E000E15C02E2E16AE55217D3B6DBC2C0E6FF57
:1034F000C3C0E6FFC4C0E6FFC5C0E6FFEC0E236E06
:10350000C70E11EC23F00001CCB102D0E2EC1FF0A9
:103510001FEF1EF076EC24F0E66AC60EE66E000E93
:10352000E66EF4DA02018C5101E012001FEF1EF08A
:1035300093DBC6C023F0246A23BE246823C0E6FFC1
:1035400024C0E6FFE70E256EC70EC3EC1FF0CCB11A
:1035500002D0E2EC1FF01FEF1EF07EDB0750E66E9C
:10356000E66AE30E236EC70E44EC23F0050EE15E1F
:1035700026500001CCB102D0E2EC1FF007B007905A
:103580001FEF1EF09DBCFED767DB16C1E6FF17C11B
:10359000E6FF00C1E6FF01C1E6FFD90E236EC70EAC
:1035A00011EC23F00001CCB102D0E2EC1FF01FEFD0
:1035B0001EF0D0DAE652D2D8DF6E4EDB0F0EDF14EB
:1035C000DF6E0001C15103E0100EDF10DF6E07A0B7
:1035D00003D0200EDF10DF6E02019C5104E0400E8C
:1035E000DF10DF6E9C6B0E5003E0800EDF10DF6E8D
:1035F000DFCFE6FFE66AD40E236EC70E44EC23F05D
:10360000050EE15E2650E2EC1FF007B00790E55290
:1036100099EF23F090EC23F0030EDB6A75EC23F0B6
:1036200064EC21F0D950030F61EC24F002018C51BD
:1036300001E08ED0C2DBFF0ED880EE54030EED54B5
:1036400005E2010EDB68030E7AEC21F0DF50010881
:1036500002E2010EDF6E030EDB50010802E281EC94
:1036600020F0DF0409E1040EDB50030805E100014E
:10367000C86B020EC96F06D0010EDBCFC8F0020E78
:10368000DBCFC9F0CAB415D0CB68FC0ECA14000950
:10369000CA6E9D920F0152815293F00EBA140C091A
:1036A000BA6E3F0EBA140009BA6E0E010E0ECC6F40
:1036B000CA84030EDB502AE1DF5023E0C8C023F0A8
:1036C000C9C024F0D89024322332D8902432233237
:1036D0002350BB6EC8C025F0C9C026F0040ED89098
:1036E00025362636E804FBE1300E2516000E261698
:1036F000CF0EBA1400012510236E26C024F0E85026
:1037000003D0BB6ACF0EBA14BA6E21D01850145C25
:10371000FDE21550D5EC21F02D0E21DAC8C0EEFFE8
:10372000C9C0EDFF40DB020E1ADAEE6AEE6AEE6AFD
:10373000EE6A39DB060E13DADFCFEFFF34DB040E5F
:10374000EF6E152A1850155C01E3156A142A77DA12
:10375000050EE15C02E2E16AE552DED1FBD9040E1E
:103760007FDB030EDB6AF29E0101EBEC20F002E04E
:10377000010EDF6E805102E0010EDF6E145006E094
:10378000010EDF6EF36E030EF3CFDBFFDF5006E0BA
:1037900092EC20F003E0DE52010EDD6EDF5006E019
:1037A000E6EC20F003E0010E7AEC21F0F28E030E3D
:1037B000DBCFE6FF020EDB50E824246E010EDB5067
:1037C000040DF3CF23F0DF50080DF3502310241025
:1037D000E552E710236E040EE15C02E2E16AE55275
:1037E00029EF21F090EC23F0030EDB6AB7DF64ECE5
:1037F00021F0E66E40EC4AF0E552E552040EDBA003
:1038000002D081EC20F0040EDBA203D0010E7AEC92
:1038100021F0040EDBA403D0DE52010EDD6E040E97
:10382000DBA602D0010EDF6E030EDBCFE6FFE66AF9
:10383000020EDBCFE6FFE66A08EC21F0C80E236E2D
:10384000C70E44EC23F00B0E38EC23F0050EE15CC0
:1038500002E2E16AE55260D17DD9080EE126FCD989
:10386000F29E1BC0DFFF010E1CC0DBFF020E1DC05D
:10387000DBFF030E1EC0DBFF040E1FC0DBFF050EC7
:1038800020C0DBFF060E21C0DBFF070E22C0DBFFDE
:10389000F28ED950040FD2EC21F0C00E236EC70E69
:1038A00044EC23F00B0EE15E26500001CCA1A1D91F
:1038B000C6D9080EE15C02E2E16AE5522DD1F29E22
:1038C000A6EC20F00101AFEC20F0F28E120076ECB5
:1038D00024F0F5DF1FEF1EF0DACFEAFF48EF23F008
:1038E00006EC22F0060ECDEF21F0DBCF26F0D5EC72
:1038F00023F09EEC24F045C023F046C024F047C0DE
:1039000025F048C026F045C049F046C04AF047C0FF
:103910004BF048C04CF0B1EC22F01C0E49C0DBFF6C
:103920001D0E4AC0DBFF1E0E4BC0DBFF1F0E4CC03E
:10393000DBFF120058EC24F02EEC23F0130EDB6AB0
:10394000140EDB6A150EDB6A160EDB6A170EDB6AD5
:10395000120016507AEF23F0ACEC22F0EECF23F0F9
:10396000EECF24F0EECF25F0EFCF26F01200246E3C
:10397000256A23C0E6FFE66E25C0E6FFE1EF6DF0A5
:103980000BEC22F048EF23F0000EEE5C000E8AEF05
:1039900023F04E6E050E4F6E506A516ABFEC21F057
:1039A0007BEC6FF049C023F04AC024F04BC025F0F7
:1039B0004CC026F012001550D5EC21F08BC0EEFF64
:1039C0008CC0EEFF8DC0EEFF8EC0EEFF8FC0EEFF0D
:1039D00090C0EEFF91C0EEFF92C0EEFF93C0EEFFED
:1039E00094C0EEFF95C0EEFF96C0EEFF97C0EEFFCD
:1039F00098C0EEFF99C0EEFF9AC0EEFF9BC0EEFFAD
:103A00009CC0EEFF9DC0EEFF9EC0EEFF9FC0EEFF8C
:103A1000A0C0EEFFA1C0EEFFA2C0EEFFA3C0EEFF6C
:103A2000A4C0EEFFA5C0EEFFA6C0EEFFA7C0EEFF4C
:103A3000A8C0EEFFA9C0EEFFAAC0EEFFABC0EEFF2C
:103A4000ACC0EEFFADC0EEFFAEC0EEFFAFC0EEFF0C
:103A5000B0C0EEFFB1C0EEFFB2C0EEFFB3C0EEFFEC
:103A6000B4C0EEFFB5C0EEFFB6C0EEFFB7C0EEFFCC
:103A7000B8C0EEFFB9C0EEFF152A1850155C120051
:103A8000BFEC21F0040EDBCF4EF0050EDBCF4FF084
:103A9000060EDBCF50F0070EA5EF24F076EC24F0F5
:103AA000E66AD9CFE6FFDACFE6FF1200DBCF26F0D9
:103AB000BFEC21F0B1EC22F025EF23F0DBCF4CF08E
:103AC0004E684F6850685168F1EF6EF0D88089EC0D
:103AD00024F0000E4D5412000C0EDBCF4AF00D0EF8
:103AE000DBCF4BF00E0EDBCF4CF00F0EDBCF4DF0EB
:103AF0001200F70EDBCF23F0F80EDBCF24F0F90E27
:103B0000DBCF25F0FA0EDBCF26F01200010ECDEF51
:103B100021F0070ECDEF21F0E16E99EF23F0140EA6
:103B2000DBCF4AF0150EDBCF4BF0160EDBCF4CF09F
:103B3000170EDBCF4DF012000BEC22F0D890030EE5
:103B4000EB50000A120056EC22F0D890030EEB5016
:103B5000000A1200D9CFE6FFE1CFD9FF1200E92613
:103B6000000EEA221200F30EDBCF23F0F40EDBCFBF
:103B700024F0F50EDBCF25F0F60EDBCF26F0120099
:103B8000EE50275C236EEE502858246EEE502958D4
:103B9000256EEE502A58266E1200DBCF2AF02750F1
:103BA000281029102A10120056EC22F02750EE247B
:103BB000236E2850EE20246E2950EE20256E2A50C8
:103BC000EE20266E1200100EDBCF4AF0110EDBCF76
:103BD0004BF0120EDBCF4CF0130E35EF23F0D95023
:103BE000FB0F0BEC22F0D8801E0EEE54000E81EF7E
:103BF00023F0020EE66EFBEF23F0136EE850090887
:103C00001200FB0EDBCF23F0FC0EDBCF24F0FD0E09
:103C1000DBCF25F0FE0EDBCF26F0190E44EC24F0AE
:103C20009EEC24F0040E45C0DBFF050E46C0DBFF12
:103C3000060E47C0DBFF070E48C0DBFF1200E66A36
:103C4000FBEF23F0D880FF0E4A54FF0E4B54FF0EBB
:103C50004C54000E4D541200010EE66ED8EF21F0C8
:103C6000140EDBCF23F0150EDBCF24F0160EDBCFC6
:103C700025F0170E1200DBCF2EF0060E44EC24F0D8
:103C80002BC049F02CC04AF02DC04BF02EC04CF098
:103C90008EEC6CF049C02BF04AC02CF04BC02DF0DC
:103CA0004CC02EF0495023264A5024224B50252246
:103CB0004C50262212004A50235C4B5024584C5042
:103CC00025584D5026581200235024102510261038
:103CD0001200A1DB6CEC23F08DDBACEC22F0D89071
:103CE000EB50000A120063EC23F01C0EDB6AC7EFF6
:103CF00023F0D8902336243625362636E8061200DF
:103D0000ACEC22F0EECF49F0EECF4AF0EECF4BF024
:103D1000EFCF4CF0D5EC23F07BEC6FF025EF23F0E8
:103D2000C5DB140EEECFDBFF150EEECFDBFF160E5C
:103D3000EECFDBFF170EEECFDBFF1200DBCF2AF05A
:103D4000020E44EC24F027C049F028C04AF029C0F4
:103D50004BF02AC04CF08EEC6CF049C027F04AC002
:103D600028F04BC029F04CC02AF0D9501200D9508D
:103D7000010F4CDB030ECDEF21F0180EDBCF23F04B
:103D8000190EDBCF24F01A0EDBCF25F01B0E12002C
:103D900049C0DEFF4AC0DEFF4BC0DEFF4CC0DDFF86
:103DA000DD52DD52120015507AEF23F00A50E96E11
:103DB000EA6AD890E936EA361200D950010F56EF78
:103DC00022F097519F279851A0239951A1239A51EE
:103DD000A2239F518727A0518823A1518923A25153
:103DE0008A2351EF23F09B51A3279C51A4239D517B
:103DF000A5239E51A623A3518B27A4518C23A55103
:103E00008D23A6518E235AEF23F0B9DAFB0EDBCFB8
:103E10004EF0FC0EDBCF4FF0FD0EDBCF50F0FE0E70
:103E2000A5EC24F00F0E1200E66AE66AE66AE66A7E
:103E3000D9501200140E45C0DBFF150E46C0DBFF43
:103E4000160E47C0DBFF170E48C0DBFF1200EECF97
:103E500082F1EECF83F1EECF84F1EFCF85F1120046
:103E6000F6EC23F0020EDB6A120038EC16F0236E3B
:103E70000D0EE15E23501200CEDA4950EE5C236E47
:103E80004A50EE58246E4B50EE58256E4C50EE586A
:103E9000266E12009EC0E6FF9FC0E6FFA0C0E6FFB0
:103EA000A1C0E6FF96C0E6FF97C0E6FF98C0E6FF18
:103EB00099C0E6FF12009AC0E6FF9BC0E6FF9CC0D7
:103EC000E6FF9DC0E6FF92C0E6FF93C0E6FF94C008
:103ED000E6FF95C0E6FF120068DAEF6A12000C0EEA
:103EE000EECFDBFF0D0EEECFDBFF0E0EEECFDBFFD6
:103EF0001200000EE66EE66AE66EE66A8AC0E6FF2B
:103F0000E66EE66ACEEF23F0040EDBCF4AF0050E34
:103F1000DBCF4BF0060EDBCF4CF0070EA6D3080E1E
:103F2000DBCF4AF0090EDBCF4BF00A0EDBCF4CF0B3
:103F30000B0E9BD3BBDA210EEECFDBFF220EEECFB2
:103F4000DBFF230EEECFDBFF240EEECFDBFF1200F4
:103F5000080EDBCF23F0090EDBCF24F00A0EDBCFF7
:103F600025F00B0EDBCF26F0100E1F0B1200F4DA3B
:103F7000EECF27F0EECF28F0EECF29F0EFCF2AF0EA
:103F8000100E1F0B1200266E276A25C0E6FFE66E94
:103F900027C0E6FFE1EC6DF0286E050EE15E2850CB
:103FA00000011200EECF8BF1EECF8CF1EECF8DF150
:103FB000EFCF8EF11200DFEC10F0236E2A0EE15EDF
:103FC00023501200010EE66EFBEF23F0E7CFDBFF7C
:103FD00002018C511200C0DAD880FF0EEE54FF0EA1
:103FE000EE54FF0EEE54000EEE54120024DADBCF36
:103FF0002AF0D9501200B0DAD880000EEE54800EAC
:1040000081EF23F0F70E45C0DBFFF80E46C0DBFF63
:10401000F90E47C0DBFFFA0E48C0DBFF1200F30EBB
:1040200045C0DBFFF40E46C0DBFFF50E47C0DBFFEB
:10403000F60E48C0DBFF12000C0E45C0DBFF0D0E74
:1040400046C0DBFF0E0E47C0DBFF0F0E48C0DBFF94
:1040500012000C0E23C0DBFF0D0E24C0DBFF0E0E82
:1040600025C0DBFF0F0E26C0DBFF1200100E23C0A1
:10407000DBFF110E24C0DBFF120E25C0DBFF130E89
:1040800026C0DBFF1200180EDBCF4AF0190EDBCF83
:104090004BF01A0EDBCF4CF01B0EDBCF4DF01200B5
:1040A000210E45C0DBFF220E46C0DBFF230E47C0BA
:1040B000DBFF240E48C0DBFF12000C0E49C0DBFF03
:1040C0000D0E4AC0DBFF0E0E4BC0DBFF0F0E4CC0C7
:1040D000DBFF120041DAFF0EEE5CFF0EEE58FF0E22
:1040E000EE587F0EEE5812002DEC0FF0236E0C0EE2
:1040F000E15E235000091200266E070EE15E265095
:104100001200010EF36E030EF3CFDBFF12000A5014
:10411000EA6A690FE96E000EEA221200D950D60F42
:104120000BEF22F08F519011911192111200F7C5EF
:10413000E9FFF8C5EAFF1200000E276C281E2822AE
:10414000291E29222A1E2A22D95012001B6A1C6A03
:104150001D6A1E6A1F6A206A216A226A1200AF6BFA
:10416000B06BB16BB26BB36BB46BB56BB66B12006B
:10417000EECF9BF1EECF9CF1EECF9DF1EFCF9EF114
:104180001200EECF8FF1EECF90F1EECF91F1EFCFA5
:1041900092F11200E9DB180F06EF22F0FF0EEE5C41
:1041A000FF0EEE58010EEE58000EEE581200B72B1F
:1041B000000EB823B923BA2312008F07000E905BBC
:1041C000915B925B1200C0EC19F0C3D39351941130
:1041D00095119611120082518311841185111200DC
:1041E000046E96809482958C958E9588958A12009F
:1041F000DE6A800EDE6E60D3010EDE6EDE6A5CD398
:10420000DE68DE68DE687F0EDD6EDD52DD52120094
:10421000010EDBCFE6FFE66ADFCFE6FFE66A1200BB
:10422000DBCFE6FFD950120081899307000E945B23
:10423000955B965B1200F36E010EF3CFDBFF020E6F
:10424000DB6A1200010EDBCF86F0020EDBCF87F0B7
:104250001200E16E23506DD2DBCF2EF02B502C10CC
:104260002D102E101200DBCF32F02F5030103110F5
:1042700032101200DBCF36F03350341035103610C8
:104280001200DBCF3AF03750381039103A101200D4
:10429000210EDB6A220EDB6A230EDB6A1200D89045
:1042A00049364A364B364C36E8061200D890273647
:1042B000283629362A36E8061200010EE66ED9CFD6
:1042C000E6FFDACFE6FF1200E76E040EE7CFDBFF72
:1042D000010EE66E1200610EE926000EEA221200BF
:1042E0008D6B8E6B8F6B906B1200DECFE6FFDDCF98
:1042F000E6FF1200F36E020EF3CFDBFF120083DA4B
:10430000A9EC1CF01F0E2BDCEECF9FF1EECFA0F13D
:10431000EECFA1F1EFCFA2F1A9EC1CF01F0E28DB2C
:10432000EECFA3F1EECFA4F1EECFA5F1EFCFA6F142
:10433000A9EC1CF0170E13DCEECF97F1EECF98F13D
:10434000EECF99F1EFCF9AF1A9EC1CF0170E10DB2C
:10435000B8EF20F0040EDB6A050EDB6A060EDB6A9E
:10436000070EDB6A080EDB6A090EDB6A0A0EDB6ADF
:104370000B0EDB6A15EF24F08CDAD950120023C043
:1043800049F024C04AF025C04BF026C04CF0120082
:1043900070EC1CF0E66AD9501200E66E9FEC52F009
:1043A000E552D7D276DAA1EF24F02F0D050193D292
:1043B000E66A40EC4AF0E552E5521200140EDBCFFB
:1043C00027F0150EDBCF28F0160EDBCF29F0170EE5
:1043D000CDEF1DF0DE6ADE6A6FD2ACEC1CF064EF4C
:1043E0001EF00F0BFDEF1DF0CDDA020EAFEC1DF04D
:1043F00027EF1FF023C0DFFF010E24C0DBFF020EFA
:1044000025C0DBFF030E26C0DBFF1200E66E000EA8
:10441000DA20E66E1200E96EFF0EDA20EA6E120074
:10442000100EDBCF27F0110EDBCF28F0120EDBCF02
:1044300029F0130E12000C0EDBCF27F00D0EDBCF90
:1044400028F00E0EDBCF29F00F0E1200190E1CDA29
:104450007BEC6FF09DDC15EF24F01BDA14EF1FF0FE
:1044600070EC1CF0B4EF24F06CEC1DF076D2236EEF
:10447000246A256A266A52DEEE502316EE50241670
:10448000EE502516EE50261664EF1EF040EC1DF09F
:10449000080E45C0DBFF090E46C0DBFF0A0E47C011
:1044A000DBFF0B0E48C0DBFFEFEF1DF0E96EDACF4C
:1044B000EAFF1200F70EDBCF49F0F80EDBCF4AF02F
:1044C000F90EDBCF4BF0FA0E5EEC1DF002EF20F0A0
:1044D000F30EDBCF49F0F40EDBCF4AF0F50EDBCF65
:1044E0004BF0F60E5EEC1DF00FEF20F0D950EB0F05
:1044F000F9D9EF0FF7D9F70FC0EC1CF074EF20F0EB
:104500001C0EDBCF23F01D0EDBCF24F01E0EDBCF05
:1045100025F01F0EDBCF26F0C9EF1CF04EEC1DF08E
:1045200089EC1DF0E66AD9501200AE6E0F0E12141F
:10453000FDEF1DF0AE6E0F0E1114FDEF1DF0AE6E0F
:104540000F0E1014FDEF1DF0AE6E0F0E0F14FDEFE9
:104550001DF0B7EC1CF0FDD1D9CFE9FFDACFEAFFAF
:104560001200DFCF4EF0010EDBCF4FF0020EDBCF9B
:1045700050F0030EA5EF24F026C0DBFFDF0EDBCFEB
:1045800027F0E00EDBCF28F0E10EDBCF29F0E20EC2
:104590001200040EDBCF49F0050EDBCF4AF0060E09
:1045A000DBCF4BF0070E5EEF1DF00C0EDBCF23F0E0
:1045B0000D0EDBCF24F00E0EDBCF25F00F0E56EFE5
:1045C0001DF0080EDBCF49F0090EDBCF4AF00A0ED2
:1045D000DBCF4BF00B0E5EEF1DF00C0EDBCF49F086
:1045E0000D0EDBCF4AF00E0EDBCF4BF00F0E5EEF61
:1045F0001DF0100EDBCF49F0110EDBCF4AF0120E8A
:10460000DBCF4BF0130E5EEF1DF0F30EDBCF27F088
:10461000F40EDBCF28F0F50EDBCF29F0F60ECDEF50
:104620001DF0B7EC1CF07CEF20F0ACEC1CF01F0E82
:10463000C9EF1CF0EF0EDBCF27F0F00EDBCF28F038
:10464000F10EDBCF29F0F20E1200D880190E49547A
:1046500089EF24F01C0F1DD935EF1FF0100EDB6A17
:10466000110EDB6A120EDB6A1200DBCF4DF075D142
:10467000E15E2650F9EF1DF0D9500C0FA3EF1DF0AD
:10468000D950100FA3EF1DF0B7EC1CF0266E1200EE
:10469000EECFE6FFEECFE6FFEECFE6FFEFCFE6FF91
:1046A00012008751AF278851B0238951B1238A5115
:1046B000B22312008B51B3278C51B4238D51B523F3
:1046C0008E51B6231200180EDB6A190EDB6A1A0E21
:1046D000DB6A1B0EDB6A1200EE502326EE5024220A
:1046E000EE502522EE50262212001AD9010EE66E57
:1046F000B7EF1EF02F0DEFD0A9EC1CF00F0EAFEFAF
:104700001DF0EE54000EEE54000EEE5412008FEC2D
:104710001DF023D1EE58000EEE58000EEE58120098
:10472000AAEC1DF0050E30EF1FF0D950F30F9CEFEF
:104730001DF0E552E7CFD9FF1200A9EC1CF0060EE0
:10474000AFEC1DF0EFCF86F11200A9EC1CF0EE5299
:10475000EFCF81F1A9EF1CF0AAEC1DF0250E9AEC29
:104760001CF073EF1EF0D6EC1EF0750EE926000E5D
:10477000EA221200D6EC1EF06D0EE926000EEA22A7
:104780001200E66AE66AE66AE66ADBEF1FF01D0ED3
:10479000DB6A1E0EDB6A1F0EDB6A120073EC67F029
:1047A000236E070EE15E23501200E80E4E6E030EDC
:1047B0004F6E506A516A1200D6EC1EF06BEF21F07A
:1047C000DDEC1EF0EE50ED101200AAEC1DF0040E10
:1047D000E12612005ED8010E1200D950F70F9CEFAF
:1047E0001DF08FEC1DF026504D181200E126DF6AF7
:1047F000010EDB6A12005EEC4AF0E552120089EC11
:104800001DF0E76E1200BED8070EAFEC1DF0EECF24
:1048100087F1EECF88F1EECF89F1EFCF8AF1A9ECE5
:104820001CF0070EA5D8D2EF1FF00C0EDB6A0D0EA0
:10483000DB6A0E0EDB6A0F0EDB6A1200040FA8DDC6
:104840000C0FC8EF21F098DD0C0FBCEF21F04EECFF
:104850001DF0060EA2DDE66AD950BDEF24F0E0DCC3
:10486000080F8ADD040F9EDD35EC1FF0E66A1200AA
:10487000AE6E1138F1EF21F0AE6E1038F1EF21F08D
:10488000AE6E0F38F1EF21F04E6E4F6A506A516AEA
:104890001200E96E6CEF1CF0100F6EDD080F82DD68
:1048A000C1EF23F00C0FD9DD040F7CDDDBEF1FF02F
:1048B000E12690DDAAEF21F0DE6ADD6ADD52DD52ED
:1048C0001200A4DD86EF1DF0F1DD6FEC1FF00F0E7E
:1048D000EECFDBFF1200F751F324E96EF851F4201C
:1048E000EA6E1200C0EC1CF0D9501200E66AD8EF54
:1048F00021F09BDE6CEC1DF026504D18120091DE6D
:10490000F9EC1DF0F8EF20F024DEF9EC1DF0FCEFDF
:1049100020F0000E4A54000E4B54000E4C5412006E
:104920004EEC1DF086EF1DF071DDFFEF23F011DE80
:10493000020EE66E1200BADDC0EF1DF020DDF1EFD1
:104940006EF0D9CFE9FF6CEF1CF0DBCF51F07BEFBD
:104950006FF0E552E552E55212004D34000E4D184D
:1049600012001238F1EF21F0010EE66ED95012005C
:10497000AFEC1DF0040EAFEF1DF0080F09DD100FB6
:10498000C8EF21F0A9EC1CF0EFCF80F1A9EF1CF0EB
:104990000201000000000001320000000000018060
:1049A000004D000000020000000000000132000085
:1049B00000000001A700FBFFDFFF015700EFFF042D
:1049C00000014E00F2FF0700014C00F3FF08000158
:1049D0004A00F5FF0A00014400F8FF0B00014800FF
:1049E000FAFF0D00014E00FCFF0F00015000FFFF19
:1049F000100001320000000A00012E000200090030
:104A000001330002000A00012D0004000800012DFE
:104A10000004000800012F00050008000131000714
:104A2000000700012E000700060001320008000602
:104A300000013300090005000136000A00040001EE
:104A400034000A0003000139000B000300013D009F
:104A50000C0002000141000D0001000146000E00A3
:104A600001000146000E00FFFF0141000D00FFFFA5
:104A7000013D000C00FEFF013E000C00FDFF01396E
:104A8000000B00FDFF0136000A00FCFF01330009A6
:104A900000FBFF0132000800FAFF0135000800F9B1
:104AA000FF012E000600F9FF012E000600F9FF01AC
:104AB0002D000400F8FF012D000400F8FF012E0076
:104AC0000200F7FF012E000200F7FF013200000094
:104AD000F6FF012D000000F7FF012E00FEFFF7FF9B
:104AE000012900FEFFF8FF012B00FDFFF8FF012F59
:104AF00000FBFFF8FF012B00FBFFF9FF013100F97C
:104B0000FFF9FF012E00F9FFFAFF013200F8FFFA6A
:104B1000FF013300F7FFFBFF013600F6FFFCFF014A
:104B20003900F5FFFDFF013900F5FFFDFF013D00F4
:104B3000F4FFFEFF014100F3FFFFFF014600F2FF1B
:104B4000FFFF013200F6FF010001C60200008E00E7
:104B5000015B00EEFFFEFF015100F0FFFDFF014889
:104B600000F3FFFAFF014100F5FFF9FF013C00F7F8
:104B7000FFF8FF013A00FAFFF6FF013600FCFFF6EE
:104B8000FF013C00FFFFF4FF0128000100F8FF01D6
:104B900029000200F8FF0126000300F9FF012B00A5
:104BA0000500F9FF012E000700FAFF012F000800A1
:104BB000FBFF0133000900FBFF013F000C00FCFF7D
:104BC00001000000000000020100000000000132AE
:104BD000000000000001CE003F006A00020000005B
:104BE00000000001320000000000011202000096E7
:104BF000FF0141000D000100013E000C0003000117
:104C000034000A000300012F0008000500014000E5
:104C10000A000800013D0007000A00011B00020015
:104C20000500011B0002000500013C0001000C0012
:104C3000013700FFFF0B00012F00FDFF09000136C7
:104C400000FAFF0900013500F9FF0800013D00F6F8
:104C5000FF0700013C00F5FF0500014400F3FF04DD
:104C600000014600F2FF0100010000000000000208
:104C7000010000000000013200000000000190016E
:104C800064FF4AFF02000000000000013200000043
:104C9000000001A200FBFFE0FF012D00F7FFFFFF76
:104CA000012600F9FFFDFF011D00FBFFFDFF0120B4
:104CB00000FBFFFCFF012700FBFFFAFF012B00FDBB
:104CC000FFF8FF012E00FEFFF7FF013200FFFFF6A5
:104CD000FF0132000100F6FF0133000200F6FF0180
:104CE0002B000300F8FF0127000500FAFF012A004E
:104CF0000600FAFF012B000700FBFF012B00080054
:104D0000FDFF012F000900FDFF0160001300FEFF01
:104D1000019B001F000000012B00F9FF0500012A84
:104D200000FAFF0600012700FBFF0600012800FC37
:104D3000FF0700012400FCFF0600012400FEFF071E
:104D400000012800FFFF0800012800FFFF08000104
:104D50002D0001000900012D0001000900012F00B4
:104D600003000900012D00040008000128000400D0
:104D70000700012E0006000700012E0007000600B4
:104D8000013200080006000133000900050001316E
:104D900000090004000136000A0004000134000A82
:104DA000000300016B0015000400017300170001EF
:104DB00000015000100000000151001000FEFF0132
:104DC00048000E00FDFF014A000E00FBFF014A00F3
:104DD0000E00FBFF0141000B00F9FF0140000A003B
:104DE000F8FF0139000800F8FF013D000700F6FF59
:104DF000013C000500F5FF0138000200F5FF01410C
:104E0000000100F3FF0128000000F8FF012900FE67
:104E1000FFF8FF012400FEFFF9FF012800FCFFF965
:104E2000FF012800FCFFF9FF012E00FAFFF9FF0146
:104E30002E00F9FFFAFF012B00F9FFFBFF018700AD
:104E40001B0000000196000000E2FF01DE033AFFB4
:104E50000000017D00E7FF0000016900EBFF020098
:104E6000015600EFFF0300014400F3FF0400013886
:104E700000F6FF0500013D00F6FF0700013500F8D0
:104E8000FF0700013D00F9FF0A00013A00FAFF0A9E
:104E900000013F00FCFF0C00013D00FEFF0C000183
:104EA0004600FFFF0E0001500001001000014E00FF
:104EB00004000F0001480006000D00014400080036
:104EC0000B0001200004000500012700060005007A
:104ED0000122000600030001260007000300012450
:104EE000000700020001290008000200015500111E
:104EF00000010001000000000000020100000000AD
:104F0000000132000000000001EA008A00E5FF0213
:104F100000000000000001320000000000016900F4
:104F2000EBFFFFFF015B00EEFFFDFF014F00F1FF14
:104F3000FBFF012200FAFFFDFF012200FAFFFDFF47
:104F4000013C00F7FFF8FF013900F9FFF7FF0134DA
:104F500000FDFFF6FF013300FEFFF6FF01380002FF
:104F600000F5FF0134000300F6FF0139000700F7E8
:104F7000FF013C000900F8FF011D000500FDFF01D5
:104F800026000700FDFF014A000E00FBFF015B0049
:104F90001200FDFF0164001400FFFF016400140013
:104FA000010001560011000300014F000F00050031
:104FB0000145000C000700013C0009000800013910
:104FC0000007000900013100040009000137000159
:104FD000000B00013200FFFF0A00013600FCFF0A4F
:104FE00000013900F9FF0900013C00F7FF0800014A
:104FF0004300F4FF0600014A00F2FF0500015600DD
:10500000EFFF0300015F00EDFF0100010000000061
:10501000000002010000000000013200000000005A
:1050200001770176FF4EFF02000000000000013210
:10503000000000000001A200FBFFE0FF012D00F7CF
:10504000FFFFFF012600F9FFFDFF011D00FBFFFD33
:10505000FF012000FBFFFCFF012700FBFFFAFF011F
:105060002B00FDFFF8FF012E00FEFFF7FF013200CD
:10507000FFFFF6FF0132000100F6FF0133000200DE
:10508000F6FF012B000300F8FF0127000500FAFFDF
:10509000012A000600FAFF012B000700FBFF012B8D
:1050A000000800FDFF012F000900FDFF0160001353
:1050B00000FEFF019B001F000000012B00F9FF050F
:1050C00000012A00FAFF0600012700FBFF0600018D
:1050D0002400FCFF0600012800FCFF07000124005B
:1050E000FEFF0700012800FFFF0800012800FFFF66
:1050F0000800012D0001000900012D000100090038
:10510000012F000300090001280004000700012D01
:105110000004000800012E0006000700012E000711
:1051200000060001320008000600013300090005F6
:1051300000013100090004000136000A00040001EA
:1051400034000A000300016B001500040001730025
:10515000170001000150001000FFFF015000100077
:10516000FFFF0148000E00FDFF014A000E00FBFF9B
:10517000014A000E00FBFF0141000B00F9FF014056
:10518000000A00F8FF0139000800F8FF013D0007A0
:1051900000F6FF013C000500F5FF0138000200F5B4
:1051A000FF0141000100F3FF0128000000F8FF01AA
:1051B0002900FEFFF8FF012400FEFFF9FF0128008F
:1051C000FCFFF9FF012800FCFFF9FF012E00FAFFA8
:1051D000F9FF012E00F9FFFAFF012B00F9FFFBFF99
:1051E0000187001B0000000196000000E2FF01DEC5
:1051F000033AFF0000017D00E7FF0000016900EBBA
:10520000FF0200015600EFFF0300014400F3FF041A
:1052100000013800F6FF0500013D00F6FF07000120
:105220003500F8FF0700013D00F9FF0A00013A00D0
:10523000FAFF0A00013F00FCFF0C00013D00FEFFE9
:105240000C00014600FFFF0E00015000010010009D
:10525000014E0004000F0001480006000D0001444B
:105260000008000B000120000400050001240006D6
:1052700000040001240006000400012600070003CA
:1052800000012400070002000129000800020001BB
:1052900055001100010001000000000000020100A3
:1052A000000000000132000000000001EA008A0056
:1052B000E5FF0200000000000001320000000000D5
:1052C000016900EBFFFFFF015B00EEFFFDFF014FF7
:1052D00000F1FFFBFF012200FAFFFDFF012200FAAF
:1052E000FFFDFF013C00F7FFF8FF013900F9FFF770
:1052F000FF013400FDFFF6FF013800FEFFF5FF015E
:1053000033000200F6FF0134000300F6FF0139000C
:105310000700F7FF013C000900F8FF011D00050030
:10532000FDFF0128000700FCFF0149000E00FCFF03
:10533000015B001200FDFF0164001400FFFF016427
:10534000001400010001560011000300014F000F7E
:105350000005000145000C000700013C00090008A1
:1053600000013900070009000131000400090001B3
:10537000370001000B00013200FFFF0A0001360078
:10538000FCFF0A00013900F9FF0900013C00F7FFAA
:105390000800014300F4FF0600014A00F2FF050087
:1053A000015600EFFF0300015F00EDFF0100010067
:1053B00000000000000201000000000001320000B7
:1053C000000000018D0189FF32FF02000000000093
:1053D000000132000000000001960000001E0001E4
:1053E0002C063C01000001A5000000DFFF01300297
:1053F00090FF0000012B000700FBFF012A000600C0
:10540000FAFF0127000500FAFF0127000500FAFF57
:105410000126000300F9FF0124000200F9FF012426
:10542000000200F9FF0128000000F8FF012D000034
:1054300000F7FF012900FEFFF8FF012900FEFFF839
:10544000FF012D00FCFFF8FF012F00FBFFF8FF011B
:105450002B00FBFFF9FF012E00F9FFFAFF012B00E3
:10546000F9FFFBFF012F00F8FFFBFF013100F7FF01
:10547000FCFF013600F6FFFCFF013400F6FFFDFFE4
:10548000013900F5FFFDFF013C00F4FFFFFF01784B
:1054900000E8FFFEFF014600F2FF0000014700F2B6
:1054A000FF0200013D00F4FF0200013D00F4FF0295
:1054B00000013B00F5FF0400013600F6FF04000187
:1054C0003300F7FF0500013300F7FF05000131004D
:1054D000F9FF0700012E00F9FF0600012B00FBFF7A
:1054E0000700012B00FBFF0700012D00FCFF080057
:1054F000012400FEFF0700012900FEFF0800012D26
:105500000000000900012800000008000129000235
:105510000008000126000300070001260003000721
:105520000001270005000600012A00060006000110
:105530002E0007000600012F000800050001910061
:10554000E3FF000002010000000000013200000043
:10555000000001C100740000000200000000000013
:1055600001320000000000015F00EDFFFFFF01506D
:1055700000F0FFFFFF014800F2FFFDFF013600F6DB
:10558000FFFCFF012800F9FFFCFF012700FAFFFBE9
:10559000FF012000FBFFFCFF012300FBFFFBFF01DD
:1055A0002200FDFFFAFF011B00FEFFFBFF012000B0
:1055B000FEFFFAFF0123000000F9FF0132000100A5
:1055C000F6FF0131000400F7FF0139000700F7FF83
:1055D0000140000A00F8FF0145000C00F9FF0154EA
:1055E000001000FBFF0156001100FDFF01690015CE
:1055F00000FFFF01690015000100015B00120003BC
:1056000000014F000F000500012200060003000109
:10561000220006000300013C0009000800013500DB
:105620000700080001360004000A000132000100F2
:105630000A00013200FFFF0A00013600FCFF0A00E9
:10564000013900F9FF0900014000F6FF080001439D
:1056500000F4FF0600014F00F1FF0500015600EFC6
:10566000FF0300016400ECFF0100010000000000E6
:1056700000020100000000000132000000000001F3
:105680001001FFFF5DFF020000000000000132007A
:1056900000000000014B000F00FFFF0146000E005C
:1056A000FFFF0148000E00FDFF013E000C00FDFF62
:1056B000013B000B00FCFF013C000B00FBFF01362F
:1056C000000900FAFF0135000800F9FF012A000671
:1056D00000FAFF012B000500F9FF0128000400F982
:1056E000FF0128000400F9FF012B000300F8FF016F
:1056F00029000200F8FF0128000100F8FF012D0039
:105700000000F7FF0132000000F6FF012E00FEFF4F
:10571000F7FF012E00FEFFF7FF012B00FDFFF8FF52
:10572000012F00FBFFF8FF012B00FBFFF9FF012E0B
:1057300000FAFFF9FF013200F8FFFAFF013200F82A
:10574000FFFAFF012F00F8FFFBFF013800F6FFFB17
:10575000FF013400F6FFFDFF013900F5FFFDFF01F9
:105760003D00F4FFFEFF014100F3FFFFFF01410098
:10577000F3FF0000016900EBFF0000016000EDFF96
:105780000200015200F0FF0400014A00F2FF050090
:10579000014300F4FF0600013D00F6FF0700014051
:1057A00000F7FF0900014000F8FF0A00013F00FA7E
:1057B000FF0B00013C00FBFF0B00013D00FEFF0C56
:1057C00000013C00FFFF0C0001320000000A000154
:1057D0002E0002000900012E0002000900012D0028
:1057E00004000800012D0004000800012F0005003E
:1057F0000800012E00070006000131000700070025
:1058000001320008000600013300090005000136DE
:10581000000A0004000134000A000300013E000CED
:10582000000300013D000C0002000146000E0001D3
:10583000000146000E00010001000000000000020F
:1058400001000000000001320000000000013900EA
:105850000000DEFF02000000000000013200000036
:105860000000016900EBFFFFFF015B00EEFFFDFFA1
:10587000014F00F1FFFBFF012200FAFFFDFF0124B1
:1058800000FAFFFCFF014000F6FFF8FF013D00F9C0
:10589000FFF6FF013600FCFFF6FF013C00FFFFF4BE
:1058A000FF013C000100F4FF0136000400F6FF0197
:1058B0003D000700F6FF0140000A00F8FF01240048
:1058C0000600FCFF0122000600FDFF01540010004D
:1058D000FBFF015B001200FDFF0169001500FFFFE7
:1058E0000164001400010001560011000300014F83
:1058F000000F00050001260007000300012000053D
:105900000004000143000A000900013900070009F2
:1059100000013B0004000B0001370001000B0001F7
:105920003C00FFFF0C00013600FCFF0A00013D00B7
:10593000F9FF0A00014000F6FF0800012000FBFF0C
:105940000400012600F9FF0300014F00F1FF0500EC
:10595000015B00EEFF0300016400ECFF01000100A9
:105960000000000000020100000000000132000001
:1059700000000001BC01B0FF02FF020000000000B7
:10598000000132000000000001AC00DEFFFBFF015F
:105990004300FDFF0D00013C00FFFF0C000128004B
:1059A000010008000123000100070001240002009B
:1059B0000700011D00030005000119000300040099
:1059C0000120000500040001190004000300011D6E
:1059D0000005000300012300070001000133000A55
:1059E0000002000191001D000100019402840000EA
:1059F00000017300000017000196001E0000000166
:105A000073000000E9FF011D013900000001C90019
:105A10001700DFFF019001B0FF000001A0000000AF
:105A2000E0FF019600E2FF000001A000000020005E
:105A3000019E027AFF0000014600F2FF00000123F0
:105A400000F9FFFFFF011D00FBFFFDFF011500FD39
:105A5000FFFDFF011B00FEFFFBFF011E00FFFFFA21
:105A6000FF0147000200F2FF0100000000000002F9
:105A70000100000000000132000000000001580792
:105A80005AFF5C0402000000000000013200000028
:105A9000000001C701A8FFE9FF0141000000F3FF7A
:105AA000015C014400F1FF014C00F1FFFEFF011019
:105AB00001CBFFF4FF0141000000F3FF01C70158D3
:105AC00000E9FF013C0000000C00010701CDFF0DC3
:105AD00000015700EFFF040001570011000400010E
:105AE000050133000B00013C0000000C0001060121
:105AF000CDFF0C00016100EDFF0400016100130007
:105B0000040001060133000C0001410000000D00FB
:105B1000010000000000000201000000000001324E
:105B2000000000000001FF00A8FF83FF020000004A
:105B30000000000132000000000001C601580016FC
:105B4000000141000000F3FF010501CDFFF5FF0159
:105B50006200EDFFFBFF0161001300FCFF01050186
:105B60003300F5FF0141000000F3FF010501CDFF07
:105B7000F5FF015700EFFFFCFF0157001100FCFF8C
:105B80000107013300F3FF013C000000F4FF01C7EF
:105B900001A8FF170001410000000D0001100135B0
:105BA000000C00014C000F000300015C01BCFF0F62
:105BB0000001410000000D00020100000000000192
:105BC00032000000000001AC00000099FF0200005C
:105BD000000000000132000000000001C601580072
:105BE0001600013C000000F4FF010601CDFFF4FFA8
:105BF000016200EDFFFBFF0160001300FDFF0106E5
:105C0000013300F4FF0141000000F3FF010501CD65
:105C1000FFF5FF015700EFFFFCFF0157001100FCEB
:105C2000FF0107013300F3FF013C000000F4FF0116
:105C3000C701A8FF170001410000000D000110017D
:105C400035000C00014C000F000300015C01BCFF9B
:105C50000F0001410000000D0002010000000000E3
:105C600001320000000000019B000000A3FF0200C1
:105C7000000000000001320000000000015500118A
:105C80000000000146000000F2FF015500EFFF0098
:105C90000001460000000E000201000000000001AB
:105CA0003200000000000197001C00AAFF02000063
:105CB0000000000001320000000000014100FFFF71
:105CC000F3FF012400F9FF0200012000FAFF0200A7
:105CD000011900FCFF0300012000FBFF0400011D6F
:105CE00000FDFF0500011B00FEFF0500011B00FE7B
:105CF000FF0500011E000000060001280001000849
:105D00000001240002000700012400040006000135
:105D100023000500050001240006000400012B00FB
:105D200008000300012E00090002000132000A00F1
:105D300000000137000B000000012E000900FEFFEB
:105D4000012B000800FDFF0128000700FCFF0123D4
:105D5000000500FBFF0124000400FAFF01260003F8
:105D600000F9FF0123000000F9FF0123000000F902
:105D7000FF012200FDFFFAFF012200FDFFFAFF01F3
:105D80002700FAFFFBFF012400FAFFFCFF012B00B4
:105D9000F8FFFDFF012E00F7FFFEFF013700F5FFC2
:105DA000FFFF011500FCFF01000113010000370097
:105DB000012300F9FFFFFF012000FAFFFEFF011B96
:105DC00000FBFFFEFF011600FCFFFEFF011900FDB6
:105DD000FFFCFF011500FDFFFDFF011500FFFFFCAB
:105DE000FF011900FFFFFBFF011E000100FAFF0188
:105DF00020000400FBFF0123000500FBFF012B0036
:105E00000800FDFF0100000000000002010000008A
:105E100000000132000000000001500019002900BC
:105E2000020000000000000132000000000001CD6F
:105E3000000000D7FF012D00090001000126000726
:105E4000000300011C00040004000115000300030E
:105E50000001160002000400011900000005000105
:105E6000140000000400011600FEFF0400011200EF
:105E7000FEFF0300011500FDFF0300011900FCFFF8
:105E80000300011600FCFF0200011900FBFF0100E6
:105E9000011900FBFF0100010000000000000201E9
:105EA000000000000001320000000000019700C463
:105EB000FFBCFF02000000000000013200000000F3
:105EC00000013E00FDFFF4FF011900FBFFFFFF0191
:105ED0001900FCFFFDFF011D00FDFFFBFF01290074
:105EE000FEFFF8FF0124000200F9FF012200030079
:105EF000FAFF0120000500FCFF0120000600FEFF64
:105F00000123000700FFFF0141000D0000000124F4
:105F100000FAFF0400011D00FDFF0500011B00FE4B
:105F2000FF0500011E00FFFF06000123000100071E
:105F30000001240002000700012000040005000108
:105F400027000600050001260007000300012B00C2
:105F50000800030001280008000100012D000900CD
:105F60000100013C000C00FFFF0139000B00FDFFA8
:105F70000138000A00FBFF012E000700FAFF01169E
:105F8000000200FCFF0116000200FCFF01150001E9
:105F900000FCFF0119000000FBFF011E000000FAD9
:105FA000FF012200FDFFFAFF012000FCFFFBFF01C3
:105FB0002300FBFFFBFF0132000A00000001370055
:105FC0000000F5FF017C01B4FF0000015A00EEFF64
:105FD0000100011E00FAFF0100011900FBFF010092
:105FE000012F00F8FF0500012E00FAFF0700012D28
:105FF00000FCFF0800013200FFFF0A00012300013E
:1060000000070001190001000500011B0002000546
:1060100000011D0003000500011900040003000138
:106020001D0005000300011E000600010001230001
:106030000700000001000000000000020100000055
:10604000000001320000000000015A003500F6FF98
:1060500002000000000000013200000000000128E2
:1060600000F8FF0000012300F9FFFFFF012000FA04
:10607000FFFEFF011D00FBFFFDFF011500FDFFFD01
:10608000FF011500FDFFFDFF011500FFFFFCFF01F3
:106090001500FFFFFCFF0115000100FCFF011500CA
:1060A0000100FCFF0115000300FDFF0119000300C2
:1060B000FCFF011B000500FEFF0120000600FEFFA3
:1060C000011E000600FFFF01280008000000012853
:1060D0000008000000011E0006000100012000066B
:1060E000000200011D00050003000115000300036C
:1060F0000001150003000300011500010004000168
:10610000150001000400011500FFFF040001150047
:10611000FFFF0400011500FDFF0300011500FDFF56
:106120000300011D00FBFF0300011B00FBFF020039
:10613000012300F9FF0100012300F9FF0000010025
:106140000000000000020100000000000132000019
:10615000000000019100CBFFBBFF02000000000027
:106160000001320000000000013E00FDFFF4FF01CD
:106170001900FBFFFFFF011900FCFFFDFF012200DA
:10618000FDFFFAFF012400FEFFF9FF0129000200D4
:10619000F8FF011D000300FBFF0120000500FCFFCC
:1061A0000122000600FDFF0123000700000001415D
:1061B000000D00FFFF012700FAFF0500011D00FD93
:1061C000FF0500011B00FEFF0500011E00FFFF068A
:1061D0000001230001000700012000020006000169
:1061E0002400040006000124000600040001280029
:1061F00007000400012B000800030001280008002C
:106200000100012D0009000100013C000C00FFFF0E
:106210000139000B00FDFF0138000A00FBFF012ED1
:10622000000700FAFF0116000200FCFF0116000241
:1062300000FCFF0115000100FCFF0119000000FB3C
:10624000FF011E000000FAFF012200FDFFFAFF011E
:106250002000FCFFFBFF012300FBFFFBFF013200DE
:106260000A0000000137000000F5FF017C01B4FFC7
:106270000000015A00EEFF0100011E00FAFF0100BC
:10628000011900FBFF0100012F00F8FF0500012AA2
:1062900000FAFF0600013100FCFF0900013200FF97
:1062A000FF0A00011E0001000600011E0001000699
:1062B00000011B0002000500011900030004000199
:1062C0001C0004000400011B000500020001200066
:1062D000060002000123000700000001000000008A
:1062E0000000020100000000000132000000000078
:1062F000015A003500F6FF020000000000000132E4
:106300000000000000012800F8FF0000012400F94F
:10631000FFFEFF011E00FAFFFFFF011D00FBFFFD56
:10632000FF011500FDFFFDFF011500FDFFFDFF0151
:106330001500FFFFFCFF011500FFFFFCFF0115002A
:106340000100FCFF0115000100FCFF011900030022
:10635000FCFF0115000300FDFF011B000500FEFF0F
:106360000120000600FEFF011E000600FFFF0128BD
:10637000000800FFFF01280008000100011E0006C0
:1063800000010001200006000200011B00050002C0
:1063900000011900030004000115000300030001BF
:1063A00015000100040001150001000400011500A2
:1063B000FFFF0400011500FFFF0400011500FDFFB1
:1063C0000300011500FDFF0300011D00FBFF03009A
:1063D000011900FBFF0100012400F9FF0200012365
:1063E00000F9FF00000100000000000002010000B1
:1063F00000000001320000000000016F00F7FFBE46
:10640000FF02000000000000013200000000000157
:106410004B000F00000001C3000000D9FF014B003A
:10642000F1FF000001C3000000270002010000008E
:10643000000001320000000000017B00DBFFC0FF14
:1064400002000000000000013200000000000137DF
:106450000000000B000162027A000000013C000015
:1064600000F4FF01DC00D4FF00000124000600FC62
:10647000FF011D000300FBFF011D000300FBFF01E6
:106480001E000000FAFF0123000000F9FF012200B6
:10649000FDFFFAFF012400FCFFFAFF012000FBFFD3
:1064A000FCFF012800F9FFFCFF012900F8FFFEFFB7
:1064B000012900F8FFFEFF012D00F7FFFFFF013764
:1064C00000F5FF0100013300F6FF0200012B00F888
:1064D000FF0300012800F9FF0400012300FBFF0572
:1064E00000012000FCFF0500012000FEFF06000166
:1064F0001E00FFFF0600011E000100060001200033
:10650000020006000120000400050001240006002E
:106510000400013700F5FF00000201000000000048
:1065200001320000000000014B002D0000000200BD
:10653000000000000001320000000000014600F2EF
:10654000FFFFFF012F00F7FFFDFF011D00FBFFFD17
:10655000FF011C00FCFFFCFF011600FEFFFCFF0119
:106560001900FFFFFBFF0115000100FCFF011000F7
:106570000100FDFF0119000300FCFF0119000400E8
:10658000FDFF011B000500FEFF011B000500FEFFD3
:106590000123000700FFFF0128000800FFFF01287A
:1065A000000800010001230007000100011E000691
:1065B000000100011D000500030001150003000398
:1065C0000001150003000300011600020004000191
:1065D0001400000004000114000000040001120077
:1065E000FEFF0300011900FDFF0400011500FDFF7F
:1065F0000300011D00FBFF0300011E00FAFF010064
:10660000012400F9FF0200012300F9FF000001004E
:106610000000000000020100000000000132000044
:10662000000000016900FFFFC1FF02000000000040
:106630000001320000000000013C000C00FFFF01DF
:1066400033000A00FEFF012D000800FCFF012B00B3
:106650000700FBFF0120000400FBFF011D000300F9
:10666000FBFF0120000200FAFF0123000000F9FFF8
:106670000123000000F9FF012600FDFFF9FF011DC5
:1066800000FDFFFBFF012A00FAFFFAFF012400FAD8
:10669000FFFCFF012B00F8FFFDFF012E00F7FFFEBE
:1066A000FF013200F6FF0000014B00F1FF01000185
:1066B0001E00FAFF0100011B00FBFF020001330076
:1066C000F7FF0500013100F9FF0700013100FCFF71
:1066D0000900012D00FFFF0900012800010008004A
:1066E000012000020006000124000400060001232E
:1066F000000500050001240006000400012B00082D
:106700000003000133000A0002000132000A000108
:106710000001000000000000020100000000000174
:106720003200000000000116000000F3FF0200002C
:106730000000000001320000000000012800F8FF06
:106740000000012400F9FFFEFF011E00FAFFFFFF19
:10675000011900FCFFFDFF011900FCFFFDFF0119FD
:1067600000FDFFFCFF011500FFFFFCFF011900FF0A
:10677000FFFBFF0115000100FCFF0115000100FCFB
:10678000FF0119000300FCFF0119000400FDFF01D7
:106790001D000500FDFF011B000500FEFF01280094
:1067A0000800FFFF01280008000000012300070087
:1067B0000000012300070001000120000600020084
:1067C000011D00050003000115000300030001196D
:1067D0000003000400011500010004000115000180
:1067E000000400011900FFFF0500011500FFFF0470
:1067F00000011900FDFF0400011500FDFF03000169
:106800001D00FBFF0300011E00FAFF010001240030
:10681000F9FF0200012800F8FF000001000000005D
:106820000000020100000000000132000000000032
:1068300001AB00E1FF9EFF020000000000000132FA
:106840000000000000014200F3FFFEFF012D00FFE9
:10685000FF0900011E0000000600011B00020005E8
:1068600000011500030003000116000400020001EE
:106870002300070001000137000B00010001FF00A9
:1068800033000000012D00000009000137000B005B
:106890000000012D000000F7FF016E00160000004F
:1068A000014F000900F3FF019B00E1FF0000013CE4
:1068B000000000F4FF013700F5FF0000013C00007C
:1068C000000C00010401CCFF0000012800F8FF00CB
:1068D00000011500FDFFFDFF011500FFFFFCFF019A
:1068E00019000000FBFF0100000000000002010091
:1068F0000000000001320000000000012200F3FF50
:10690000F0FF020000000000000132000000000063
:10691000015500110000000146000000F2FF015582
:1069200000EFFF000001460000000E000201000021
:10693000000000013200000000000196002000ACC1
:10694000FF02000000000000013200000000000112
:106950003D00FEFFF4FF012300F9FF0100012000CC
:10696000FAFF0200012200FAFF0300011C00FCFFF5
:106970000400011C00FCFF0400011D00FDFF0500D8
:10698000012000FEFF06000119000000050001289B
:10699000000100080001200002000600012400049C
:1069A0000006000123000500050001240006000484
:1069B00000012B0008000300012D00090001000167
:1069C00037000B0001000141000D00FFFF013E00F8
:1069D0000C00FDFF011B000500FEFF011900040073
:1069E000FDFF0119000400FDFF0119000300FCFF79
:1069F000012D000400F8FF0132000100F6FF01192B
:106A0000000000FBFF011E00FFFFFAFF011900FD5F
:106A1000FFFCFF011900FDFFFCFF011C00FCFFFC57
:106A2000FF011D00FBFFFDFF011B00FBFFFEFF013F
:106A30002300F9FFFFFF013D00FEFF0C00012900CC
:106A40000800020001240006000400011D000300EC
:106A50000500011E000100060001140000000400F2
:106A6000011600FEFF0400011900FDFF04000115DE
:106A700000FDFF0300011D00FBFF0300012000FAE1
:106A8000FF0200012300F9FF0100012800F8FF00C8
:106A900000012800F8FF0000012300F9FFFFFF01BB
:106AA0002000FAFFFEFF011D00FBFFFDFF011500A6
:106AB000FDFFFDFF011500FDFFFDFF011500FFFFBC
:106AC000FCFF011500FFFFFCFF0124000200F9FF9D
:106AD0000124000400FAFF0112000300FEFF01166A
