:020000040000FA
:06100000E6EF39F01200DA
:06100800CFEF25F01200FD
:0610180022EF08F01200B7
:06102A0002001A74000030
:10103000990100006400000018740000B70E000061
:0410400002000000AA
:0C104400D8CFE4FFE0CFE4FFE46EDACF89
:10105000E4FFE2CFDAFFE9CFE4FFEACFE4FFF3CF2A
:10106000E4FFF4CFE4FFE652D9CFE6FFE1CFD9FFAA
:10107000040EE126020EDB6A030EDB6A9EA27AD31F
:101080009E920401D45101E1A1D0030E526E2D5065
:10109000EA6A510FE96E010EEA22EF50525C30E12C
:1010A0002D50E96EEA6AD890E936EA36690EE926EB
:1010B000010EEA22EECF52F0EFCF53F053C052F0C0
:1010C000536A5250D76E2D50E96EEA6AD890E936CD
:1010D000EA36690EE926010EEA22EECF52F0EFCF92
:1010E00053F05250D66EF28AF294D58E2D50EA6AA1
:1010F000510FE96E010EEA22040EEF6E2D502F6E95
:10110000020E526E2E50EA6A510FE96E010EEA226B
:10111000EF50525C49E12E50E96EEA6AD890E93608
:10112000EA36690EE926010EEA22EE50ED1009E1D9
:101130002E50EA6A510FE96E010EEA22010EEF6E9F
:1011400033D0080E2E5C0CE2070E2E14526E010EE8
:10115000525204E0E846FE0B5206FCE189121AD016
:10116000100E2E5C0CE2070E2E14526E010E52521F
:1011700004E0E846FE0B5206FCE18A120BD0070E93
:101180002E14526E010E525204E0E846FE0B520637
:10119000FCE18B122E50EA6A510FE96E010EEA2231
:1011A000030EEF6E2E502D6E2E2A060E2E5C02E1DF
:1011B000080E04D0130E2E5C03E1160E2E6E59D1CC
:1011C000180E2E5C01E055D12E6A53D10E0100514C
:1011D00001E14FD10E01012B0E01AC510E01015D59
:1011E00001E247D1016B0E01AA51EA6A320FE96EA2
:1011F0000E0EEA22EF500E01EA6AAD25E96EAE51FD
:10120000EA22EF6A79907B6A7A6A0E01AA2B0E01B4
:10121000AB510E01AA5D01E3AA6BAA51E96EEA6A1D
:10122000D890E936EA36020EE9260E0EEA22EE5092
:10123000ED1001E11ED1AA51E96EEA6AD890E936B3
:10124000EA364A0EE9260E0EEA22EECF52F0EFCF32
:1012500053F0AA51E96EEA6AD890E936EA36020EEE
:10126000E9260E0EEA22EECF54F0EFCF55F054509F
:10127000521802E15550531801E1BDD0AA51E96E50
:10128000EA6AD890E936EA364A0EE9260E0EEA22D4
:10129000EECF54F0EFCF55F0AA51E96EEA6AD8903C
:1012A000E936EA36020EE9260E0EEA22EE50545CCA
:1012B000526EEE505558536E020E52C0DBFF030EB5
:1012C00053C0DBFF020EDBCF52F0030EDBCF53F037
:1012D00053343BE252500008000E535436E2020EE3
:1012E000DBCF52F0030EDBCF53F0AA51E96EEA6A6E
:1012F000D890E936EA367A0EE9260E0EEA22EECFCB
:1013000054F0EFCF55F05250545C5350555857E2BB
:10131000AA51E96EEA6AD890E936EA367A0EE926E9
:101320000E0EEA22EECF52F0EFCF53F0AA51E96E43
:10133000EA6AD890E936EA36020EE9260E0EEA226B
:101340005250EE265350ED2256D0020EDBCF52F013
:10135000030EDBCF53F0526C531E000E5322AA51E2
:10136000E96EEA6AD890E936EA367A0EE9260E0E78
:10137000EA22EECF54F0EFCF55F05250545C535068
:1013800055581DE2AA51E96EEA6AD890E936EA3664
:101390007A0EE9260E0EEA22EECF52F0EFCF53F08E
:1013A000AA51E96EEA6AD890E936EA36020EE926D1
:1013B0000E0EEA225250EE5E5350ED5A1CD0AA5146
:1013C000E96EEA6AD890E936EA364A0EE9260E0E48
:1013D000EA22EECF52F0EFCF53F0AA51E96EEA6A5B
:1013E000D890E936EA36020EE9260E0EEA2252C0FD
:1013F000EEFF53C0EDFFAA51EA6A320FE96E0E0EFE
:10140000EA22EF500E01EA6AAD25E96EAE51EA22FA
:10141000120EEF6EF29E0E01AA51E96EEA6AD890A2
:10142000E936EA36020EE9260E0EEA22EECF52F037
:10143000EFCF53F053C052F0536A5250B66EAA51D8
:10144000E96EEA6AD890E936EA36020EE9260E0E0F
:10145000EA22EECF52F0EFCF53F05250B56EF00EBD
:10146000B4140009B46EF00EB4140909B46E798096
:10147000F28E000ED8802154000E22542EE2302A23
:10148000000E31222150305C2250315826E3306A60
:10149000316A030E255C1FE22350EA6A480FE96EA9
:1014A000010EEA2280CFEFFF2350EA6A4B0FE96E6C
:1014B000010EEA2281CFEFFF2350EA6A4E0FE96E58
:1014C000010EEA2282CFEFFF232A030E235C01E301
:1014D000236A252A02D0216A226A000ED880265467
:1014E000000E275419E22B50000816E2322A000E93
:1014F00033222650325C275033580EE3326A336A67
:10150000030E2A5C07E2282A030E285C01E3286AFE
:101510002A2A02D0266A276A2B5000080AE2346A77
:101520003450040DF328C26E9E9C9F9C9D8CC280FB
:10153000C2820101995101E11DD1DE6ADD6ADECF6F
:1015400052F0DDCF53F0040E525C000E535801E30D
:1015500011D1DECFE9FFDDCFEAFF010ED890E936E9
:10156000EA36E806FBE19A0EE926010EEA22EE5081
:10157000ED1001E1D3D0DECFE9FFDDCFEAFF010EB0
:10158000D890E936EA36E806FBE1AA0EE926010E14
:10159000EA22EE50ED1026E1D9CFE9FFDACFEAFFDB
:1015A000EE50ED1001E18180D9CFE9FFDACFEAFFFB
:1015B000010EEE1803E1ED5001E18182D9CFE9FF80
:1015C000DACFEAFF020EEE1803E1ED5001E181846B
:1015D000D9CFE9FFDACFEAFF030EEE1803E1ED50B1
:1015E00001E18186DECFE9FFDDCFEAFF010ED89071
:1015F000E936EA36E806FBE1AA0EE926010EEA2200
:10160000EECF52F0EFCF53F0DECFE9FFDDCFEAFFB0
:10161000010ED890E936EA36E806FBE19A0EE92693
:10162000010EEA22EECF54F0EFCF55F0545052188D
:1016300029E15550531826E1D9CFE9FFDACFEAFF67
:10164000EE50ED1001E18190D9CFE9FFDACFEAFF4A
:10165000010EEE1803E1ED5001E18192D9CFE9FFCF
:10166000DACFEAFF020EEE1803E1ED5001E18194BA
:10167000D9CFE9FFDACFEAFF030EEE1803E1ED5010
:1016800001E18196DECFE9FFDDCFEAFF010ED890C0
:10169000E936EA36E806FBE1AA0EE926010EEA225F
:1016A000EE2A000EEF22DECFE9FFDDCFEAFF010ECA
:1016B000D890E936EA36E806FBE1AA0EE926010EE3
:1016C000EA22EECF52F0EFCF53F0DECFE9FFDDCFCD
:1016D000EAFF010ED890E936EA36E806FBE1A20EF1
:1016E000E926010EEA22EECF54F0EFCF55F0545028
:1016F00052183AE15550531837E1DECFE9FFDDCFFC
:10170000EAFF010ED890E936EA36E806FBE1AA0EB8
:10171000E926010EEA22EE6AED6A26D0D9CFE9FF6A
:10172000DACFEAFFEE50ED1001E18190D9CFE9FF69
:10173000DACFEAFF010EEE1803E1ED5001E18192EC
:10174000D9CFE9FFDACFEAFF020EEE1803E1ED5040
:1017500001E18194D9CFE9FFDACFEAFF030EEE1859
:1017600003E1ED5001E18196DF2A010E01E2E7D6A7
:10177000DB2AE5D69EAC2CD09E9CC450566E576E8C
:10178000566AC35000015610546E57C055F034507D
:10179000060DF3CF52F0F4CF53F0000E5226010E97
:1017A00053222850020D5250F324E96E5350F42076
:1017B000EA6E54C0EEFF55C0EDFF342A2B50345C66
:1017C00002E39D9C05D03450040DF328C26EC28202
:1017D000F2A442D0D59EF294F29A040E526E2F508B
:1017E000EA6A510FE96E010EEA22EF50525C34E1D1
:1017F000080E2F5C0DE2070E2F14526E010E52528E
:1018000004E0E846FE0B5206FCE1E81C89161CD0F9
:10181000100E2F5C0DE2070E2F14526E010E525265
:1018200004E0E846FE0B5206FCE1E81C8A160CD0E8
:10183000070E2F14526E010E525204E0E846FE0BC2
:101840005206FCE1E81C8B162F50EA6A510FE96E34
:10185000010EEA22020EEF6E040EE15C02E2E16A82
:10186000E552E16EE552E7CFD9FFE552E5CFF4FF4F
:10187000E5CFF3FFE5CFEAFFE5CFE9FFE5CFDAFFFC
:10188000E550E5CFE0FFE5CFD8FF1000D9CFE6FF68
:10189000E1CFD9FF020EE126896A92682B6A8A6A33
:1018A00093688B6A94688C968C9495969594928E96
:1018B0000401010ED36F0E01B769B869296A286A5D
:1018C0002A6A246A236A256A216A226A266A276AA2
:1018D000306A316A326A336A346ACA82CA80CA9C00
:1018E000CA9ACA88CA96FA0ECB6EDF6ADFCF49F071
:1018F0000C0EE76E4918E8AE02D0E73402D0E7508C
:10190000495C36E2010EDB6ADBCF49F0030EE76E7D
:101910004918E8AE02D0E73402D0E750495C26E22D
:10192000DFCF49F04A6A49BE4A68060E4A02F3CF41
:101930004AF04902F3CF49F0F4504A26000E4926F6
:10194000010E4A22010EDBCF4BF04C6A4BBE4C68B5
:10195000D8904B364C3649504B24E96E4A504C20B7
:10196000EA6EEE6AED6A010EDB2ACED7DF2ABED719
:101970000401CD6BCE6BCB6BCC6BCF6BD06BD16BD3
:10198000D26B2D6A2E6A2F6ADF6ADFCF49F0180EFC
:10199000E76E4918E8AE02D0E73402D0E750495C60
:1019A0001BE2DFCFE9FFEA6AE9BEEA68D890E936D0
:1019B000EA36690EE926010EEA22EE6AED6ADFCF09
:1019C000E9FFEA6AE9BEEA68510EE926010EEA2259
:1019D000010EEF6EDF2AD9D7D586D59AD59CF29421
:1019E000F29AF194D08ECA949D829F9253EC27F084
:1019F0008CEC34F0F28EF28CCA84020EE15C02E2CE
:101A0000E16AE552E16EE552E7CFD9FF1200D9CF86
:101A1000E6FFE1CFD9FF050EE126020EDB6A030ED9
:101A2000DB6A040EDB6AD5EC1CF02550000809E2E5
:101A3000D4EC13F0242A030E245C01E1246A250669
:101A4000F4D72A50000809E204EC14F0292A030E06
:101A5000295C01E1296A2A06F4D7200E0501E76E08
:101A6000A819E8AE02D0E73402D0E750A85D01E241
:101A7000B7D16550020B01E0B3D1400EE66E400EC7
:101A8000E66E020EE66EEFEC32F0E552E552E552FC
:101A9000E76E030EE7CFDBFFDB50000801E324D144
:101AA000040EDB6A030EDB50F36E040EDBCFF4FF93
:101AB000F350F45C01E318D1040EDB50EA6A400FE6
:101AC000E96E020EEA22EFCFDFFF0101F65141E19C
:101AD0000D0E496EDF50495C05E00A0E4A6EDF507C
:101AE0004A5C37E1010EF66F0401CD51EA6A000F3E
:101AF000E96E030EEA220D0EEF6ECD2B010EDB6AAE
:101B0000CD51F36E010EDBCFF4FFF350F45C1CE219
:101B1000010EDBCFE9FFEA6AE9BEEA68000EE926BA
:101B2000030EEA22EF50E66E010EDBCFE9FFEA6A10
:101B3000E9BEEA68B20EE926010EEA22E552E75054
:101B4000EF6E010EDB2ADCD7D5D90401CD6BCE6B4D
:101B5000BBD01B0EDF5C09E1F25107E1010EF26F11
:101B60001B0EF36FF46BF56BAFD0F2050BE15B0E60
:101B7000DF5C08E11B0EF35D05E1F45103E15B0E50
:101B8000F46FA2D0F20566E1410EDF5C63E11B0E4B
:101B9000F35D60E15B0EF45D5DE1F36BF46BF56B9F
:101BA000F26B010EDB6ADBCFE9FFEA6AE9BEEA68A5
:101BB000000EE926030EEA22EF500D081CE0010E8C
:101BC000DBCFE9FFEA6AE9BEEA68B20EE926010E58
:101BD000EA22EF50E66E010EDBCFE9FFEA6AE9BECA
:101BE000EA68000EE926030EEA22E552E750EF6E9E
:101BF000010EDB2AD8D7010EDBCFCDF40401CD5185
:101C0000EA6A000FE96E030EEA22EF6AD10E496E0E
:101C10006D0E4A6E4B6A49C0E6FFE66E4BC0E6FFAA
:101C20001DEC38F0E552E552E552000EE66E030E6B
:101C3000E66ECE0E496E6D0E4A6E4B6A49C0E6FFE7
:101C4000E66E4BC0E6FF1DEC38F04C6E050EE15E13
:101C50004C503AD0080EDF5C1CE10401CD51000865
:101C600018E2CD07CD51EA6A000FE96E030EEA22B1
:101C7000EF6ACB0E496E6D0E4A6E4B6A49C0E6FFA5
:101C8000E66E4BC0E6FF1DEC38F0E552E552E5523A
:101C90001BD00D0EDF5C18E00A0EDF5C15E0200E95
:101CA000DF5C12E30101F36BF46BF56BF26B040183
:101CB000CD51EA6A000FE96E030EEA22DFCFEFFF93
:101CC0000101F66B0401CD2B0401CD51496E4A6A26
:101CD000000E491806E1010E4A1803E12C86CD6B6F
:101CE000CE6B040EDB2ADED62C5001E178D02CA07E
:101CF0000FD0C50E496E6D0E4A6E4B6A49C0E6FFA5
:101D0000E66E4BC0E6FF1DEC38F0E552E552E552B9
:101D10002CA20FD0A60E496E6D0E4A6E4B6A49C0BA
:101D2000E6FFE66E4BC0E6FF1DEC38F0E552E552EB
:101D3000E5522CA40FD08A0E496E6D0E4A6E4B6A86
:101D400049C0E6FFE66E4BC0E6FF1DEC38F0E552F9
:101D5000E552E5522CA60FD06E0E496E6D0E4A6EFE
:101D60004B6A49C0E6FFE66E4BC0E6FF1DEC38F05B
:101D7000E552E552E5522CA80FD04F0E496E6D0E7C
:101D80004A6E4B6A49C0E6FFE66E4BC0E6FF1DECAB
:101D900038F0E552E552E5522CAC0FD02E0E496ECC
:101DA0006D0E4A6E4B6A49C0E6FFE66E4BC0E6FF19
:101DB0001DEC38F0E552E552E5522CAE0FD0150E71
:101DC000496E6D0E4A6E4B6A49C0E6FFE66E4BC027
:101DD000E6FF1DEC38F0E552E552E5522C6A3FD89B
:101DE000050EE15C02E2E16AE552E16EE552E7CF01
:101DF000D9FF1200D9CFE6FFE1CFD9FFE652CBC41D
:101E0000DFFFDF2A400E496EDF50495C01E1DF6AE7
:101E10000401CC51DF5C01E122D80401CB51EA6A14
:101E2000000FE96E020EEA22FE0EDBCFEFFFCB2B96
:101E3000400ECB5D01E1CB6BCC51CB5D01E12C843D
:101E4000FE0EDBCF49F04A6A49BE4A6849C0F3FF3B
:101E50004AC0F4FFE552E552E7CFD9FF1200D9CFCF
:101E6000E6FFE1CFD9FFE6520401CB51CC5D3DE066
:101E70000501905105E0E7EC33F0C6EC1DF0F8D712
:101E80000401CC51D880CB5517E2CC51CB5DDF6E2D
:101E9000DFCFE6FFCC514A6A000F496E020E4A229C
:101EA00049C0E6FF4AC0E6FF4FEC33F0E552E55289
:101EB000E552CBC4CCF417D0400ED880CC55DF6EA1
:101EC000DFCFE6FFCC514A6A000F496E020E4A226C
:101ED00049C0E6FF4AC0E6FF4FEC33F0E552E55259
:101EE000E5520401CC6BE7EC33F0E552E552E7CF65
:101EF000D9FF1200D9CFE6FFE1CFD9FF040EE126CA
:101F0000DE6ADD6A020EDB6A030EDB6A0401CE5173
:101F1000EA6A000FE96E030EEA22EF50E66EE66A07
:101F200076EC39F0E552E552020EF3CFDBFF040107
:101F3000CE2BCE51496E4A6A000E491804E1010EBB
:101F40004A1801E1CE6B020EDB50DE6EDD6ACE5127
:101F5000EA6A000FE96E030EEA22EF502C0836E021
:101F6000CE51EA6A000FE96E030EEA22EF500D0827
:101F70002DE0CE51EA6A000FE96E030EEA22EF501F
:101F8000E66EE66A76EC39F0E552E552030EF3CFE1
:101F9000DBFF0401CE2BCE51496E4A6A000E491870
:101FA00004E1010E4A1801E1CE6B020EDBCF4BF0CB
:101FB0004BC04CF04B6A030EDB5000014B24496EC2
:101FC000000E4C204A6E49C0DEFFDD6E000EDFCFF2
:101FD0003DF0010EDBCF3EF0320E3D1802E1530E14
:101FE0003E1801E1AAD14B0E3D1802E1430E3E1806
:101FF00001E1A0D14C0E3D1802E1420E3E1801E174
:1020000096D1440E3D1802E14E0E3E1801E18CD1EE
:10201000490E3D1802E14E0E3E1801E182D1420EFA
:102020003D1802E1510E3E1801E178D14C0E3D18E9
:1020300002E1510E3E1801E16ED14C0E3D1802E155
:10204000530E3E1801E164D14E0E3D1802E1510ECF
:102050003E1801E15AD14E0E3D1802E1530E3E18D2
:1020600001E150D1430E3D1802E1530E3E1801E14B
:1020700046D14D0E3D1802E1450E3E1801E13CD11E
:10208000500E3D1802E1510E3E1801E132D1500EC2
:102090003D1802E1540E3E1801E128D1500E3D18C2
:1020A00002E1530E3E1801E11ED14D0E3D1802E132
:1020B000530E3E1801E114D1470E3D1802E1500EB7
:1020C0003E1801E10AD1430E3D1802E1500E3E18C0
:1020D00001E100D1490E3D1802E1430E3E1801E135
:1020E000F6D0490E3D1802E1520E3E1801E1ECD047
:1020F000490E3D1802E1530E3E1801E1E2D0530EA5
:102100003D1802E1430E3E1801E1D8D0530E3D18B0
:1021100002E1520E3E1801E1CED0530E3D1802E10D
:10212000530E3E1801E1C4D0530E3D1802E1420E99
:102130003E1801E1BAD0430E3D1802E1420E3E18AE
:1021400001E1B0D0430E3D1802E1520E3E1801E10C
:10215000A6D04F0E3D1802E1420E3E1801E19CD080
:10216000570E3D1802E14D0E3E1801E193D0520E7C
:102170003D1802E14D0E3E1801E18AD0440E3D1893
:1021800002E1500E3E1801E181D04F0E3D1802E1F0
:10219000500E3E1801E177D0490E3D1802E1500E75
:1021A0003E186EE0580E3D1802E1540E3E1865E0F0
:1021B000540E3D1801E13E505EE0410E3D1801E134
:1021C0003E5057E0560E3D1801E13E5050E0490E9A
:1021D0003D1801E13E5049E04F0E3D1801E13E50EF
:1021E00042E0550E3D1802E1430E3E183AE0580E0B
:1021F0003D1802E1430E3E1831E0430E3D1801E167
:102200003E502AE0520E3D1801E13E5023E0580EA8
:102210003D1802E1520E3E181AE0030EDB5001E0B9
:102220008FD0020EDBCFE6FFE66ADBCFE6FFE66A81
:10223000F20E496E6C0E4A6E4B6A49C0E6FFE66EBE
:102240004BC0E6FF1DEC38F04C6E070E97D04AEC01
:1022500017F096D0CBD894D060D992D04CEC17F030
:102260008FD0C8D88DD017DA8BD09EDA89D0BCDA5F
:1022700087D0CADA85D006D983D048EC17F080D051
:10228000C7EC15F07DD064EC16F07AD09ADB78D0EC
:1022900056DB76D016DB74D000EC18F071D04EEC23
:1022A00017F06ED0FEEC17F06BD002EC18F068D08F
:1022B00004EC18F065D006EC18F062D008EC18F0C9
:1022C0005FD00AEC18F05CD00CEC18F059D00EEC92
:1022D00018F056D010EC18F053D0A1EC18F050D0F4
:1022E000D5EC28F04DD0C7EC2AF04AD08FEC2AF07C
:1022F00047D074EC2AF044D02DEC2BF041D09EEC6A
:1023000027F03ED0C9EC2BF03BD0F9EC2BF038D0C5
:1023100013EC2CF035D025EC2CF032D040EC2CF026
:102320002FD0ABEC2BF02CD0BCEC2BF029D0C6EC92
:1023300018F026D0CBEC18F023D016EC35F020D0D6
:10234000030EDBCFE6FFE66A020EDBCFE6FFE66AAE
:10235000030EDBCFE6FFE66A020EDBCFE6FFE66A9E
:10236000CA0E496E6C0E4A6E4B6A49C0E6FFE66EB5
:102370004BC0E6FF1DEC38F04C6E0B0EE15E4C508E
:102380000401CE51EA6A000FE96E030EEA22EF5013
:102390000D080DE02C500BE1520E496E4A6ADF50D9
:1023A000491803E1DE52DD504A1801E02C8ECDC4FD
:1023B000CEF4040EE15C02E2E16AE552E16EE55220
:1023C000E7CFD9FF12000401D3510FE0800E496E10
:1023D000730E4A6E4B6A49C0E6FFE66E4BC0E6FFDD
:1023E0001DEC38F0E552E552E552120046EC0CF0D7
:1023F000E3EF11F0D9CFE6FFE1CFD9FF030EE126DD
:10240000E66AD9CFE6FFDACFE6FF010EE66E05EC0D
:102410001AF0E552E552E552E552E66AD950010F4D
:10242000E66E000EDA20E66E020EE66E05EC1AF09D
:10243000E552E552E552E5522C501AE1DF0417E16E
:10244000D950010FE96EDACFEAFFEE50ED100AE045
:10245000010E496E4A6ADB50491808E1020EDB5052
:102460004A1804E1010EDBCFD3F401D02C8CABDF92
:10247000030EE15C02E2E16AE552E16EE552E7CF6C
:10248000D9FF1200D9CFE6FFE1CFD9FF030EE12635
:10249000020EDB6AE66A1F0EE66E000EE66E030EA3
:1024A000E66E05EC1AF0E552E552E552E552E66AB1
:1024B000D950020FE66E000EDA20E66E010EE66ECF
:1024C00005EC1AF0E552E552E552E5522C501BE1BD
:1024D000020EDB500CE11F50201003E1216A226A3A
:1024E00011D0CA841FC021F020C022F00BD01F5091
:1024F000201003E1266A276A05D0CA841FC026F08F
:1025000020C027F060DF030EE15C02E2E16AE552E1
:10251000E16EE552E7CFD9FF1200D9CFE6FFE1CF58
:10252000D9FF0A0EE126E66AD9CFE6FFDACFE6FF49
:10253000010EE66E05EC1AF0E552E552E552E55261
:10254000E66AD950010FE66E000EDA20E66E010E43
:10255000E66E05EC1AF0E552E552E552E552E66A00
:10256000D950020FE66E000EDA20E66E010EE66E1E
:1025700005EC1AF0E552E552E552E552E66AD9500B
:10258000040FE66E000EDA20E66E010EE66E05EC34
:102590001AF0E552E552E552E552E66AD950050FC8
:1025A000E66E000EDA20E66E010EE66E05EC1AF01D
:1025B000E552E552E552E552E66AD950060FE66E5D
:1025C000000EDA20E66E010EE66E05EC1AF0E5521A
:1025D000E552E552E552E66AD950070FE66E000E65
:1025E000DA20E66E010EE66E05EC1AF0E552E552D1
:1025F000E552E552E66AD950080FE66E000EDA2081
:10260000E66E010EE66E05EC1AF0E552E552E55273
:10261000E552E66AD950090FE66E000EDA20E66E42
:10262000010EE66E05EC1AF0E552E552E552E55270
:10263000E66AD950030FE66E000EDA20E66E010E50
:10264000E66E05EC1AF0E552E552E552E5522C50E3
:1026500018E1DF50926E010EDB50936E020EDB50DC
:10266000946E040EDB50956E050EDB50966E030ED5
:10267000DB500C0805E20C0EF36E030EF3CFDBFF0C
:10268000A2DE0A0EE15C02E2E16AE552E16EE55289
:10269000E7CFD9FF1200D9CFE6FFE1CFD9FF020E75
:1026A000E126E66AD9CFE6FFDACFE6FF010EE66E55
:1026B00005EC1AF0E552E552E552E552E76E010EDF
:1026C000E7CFDBFF2C5066E1010EDB5002E1DF506B
:1026D000896E010EE66ED9CFE6FFDACFE6FFE66E31
:1026E00005EC1AF0E552E552E552E552E76E010EAF
:1026F000E7CFDBFF2C504EE1010EDB5002E1DF5053
:102700008A6E010EE66ED9CFE6FFDACFE6FFE66EFF
:1027100005EC1AF0E552E552E552E552E76E010E7E
:10272000E7CFDBFF2C5036E1010EDB5002E1DF503A
:102730008B6E010EE66ED9CFE6FFDACFE6FFE66ECE
:1027400005EC1AF0E552E552E552E552E76E010E4E
:10275000E7CFDBFF2C501EE1010EDB5002E1DF5022
:102760008C6E010EE66ED9CFE6FFDACFE6FFE66E9D
:1027700005EC1AF0E552E552E552E552E76E010E1E
:10278000E7CFDBFF2C5006E1010EDB5002E1DF500A
:102790008D6E19DE020EE15C02E2E16AE552E16E45
:1027A000E552E7CFD9FF12008450E66EE66A835007
:1027B000E66EE66A8250E66EE66A8150E66EE66A8A
:1027C0008050E66EE66AAD0E496E6C0E4A6E4B6A3C
:1027D00049C0E6FFE66E4BC0E6FF1DEC38F04C6EDC
:1027E0000D0EE15E4C501200880E496E730E4A6E5B
:1027F0004B6A49C0E6FFE66E4BC0E6FF1DEC38F0C1
:10280000E552E552E5521200D9CFE6FFE1CFD9FFFC
:10281000E652DF6AAB0E496E6C0E4A6E4B6A49C0D7
:10282000E6FFE66E4BC0E6FF1DEC38F0E552E552E0
:10283000E552DF6A2B50DF5C30E2DFCF49F04A6AB5
:1028400049BE4A68060E4A02F3CF4AF04902F3CF66
:1028500049F0F4504A26000E4926010E4A2229501A
:10286000020D4950F324E96E4A50F420EA6EEECF8F
:10287000E6FFEFCFE6FFA50E4B6E6C0E4C6E4D6A79
:102880004BC0E6FFE66E4DC0E6FF1DEC38F04E6E25
:10289000050EE15E4E50DF2ACDD7850E496E730ED0
:1028A0004A6E4B6A49C0E6FFE66E4BC0E6FF1DEC80
:1028B00038F0E552E552E552E552E552E7CFD9FF4F
:1028C0001200D9CFE6FFE1CFD9FF030EE126E66A79
:1028D000D9CFE6FFDACFE6FFE66E05EC1AF0E55257
:1028E000E552E552E552E66AD950020FE66E000E57
:1028F000DA20E66E010EE66E05EC1AF0E552E552BE
:10290000E552E5522C5011E1DECF49F0DDCF4AF01F
:10291000000E495C100E4A5807E2DECFE9FFDDCF1A
:10292000EAFF020EDBCFEFFF4EDD030EE15C02E2B9
:10293000E16AE552E16EE552E7CFD9FF1200D9CF47
:10294000E6FFE1CFD9FF030EE126E66AD9CFE6FF25
:10295000DACFE6FFE66E05EC1AF0E552E552E552F5
:10296000E5522C5024E1DECF49F0DDCF4AF0000ED5
:10297000495C100E4A5807E2DECFE9FFDDCFEAFFDF
:10298000020EEFCFDBFF020EDBCFE6FFE66A9B0E07
:10299000496E6C0E4A6E4B6A49C0E6FFE66E4BC04C
:1029A000E6FF1DEC38F04C6E050EE15E4C50030E58
:1029B000E15C02E2E16AE552E16EE552E7CFD9FF60
:1029C0001200D9CFE6FFE1CFD9FF030EE126E66A78
:1029D000D9CFE6FFDACFE6FF050EE66E05EC1AF07A
:1029E000E552E552E552E552E66AD950010FE66E2E
:1029F000000EDA20E66E010EE66E05EC1AF0E552E6
:102A0000E552E552E552E66AD950020FE66E000E35
:102A1000DA20E66E010EE66E05EC1AF0E552E5529C
:102A2000E552E5522C5001E0A8D0020EDB5001081F
:102A300001E2A0D0010EDB50070801E29BD0410E5D
:102A4000496EDF50495C1AE1020EDB500CE1010EC9
:102A5000F36EDB5004E0D890F336E806FCE1F35067
:102A6000F31C921689D0010EF36EDB5004E0D8906F
:102A7000F336E806FCE1F35092127ED0420E496E26
:102A8000DF50495C1AE1020EDB500CE1010EF36EDF
:102A9000DB5004E0D890F336E806FCE1F350F31C79
:102AA00093166AD0010EF36EDB5004E0D890F33633
:102AB000E806FCE1F35093125FD0430E496EDF50FD
:102AC000495C1AE1020EDB500CE1010EF36EDB50A3
:102AD00004E0D890F336E806FCE1F350F31C9416BA
:102AE0004BD0010EF36EDB5004E0D890F336E806CD
:102AF000FCE1F350941240D0440E496EDF50495C23
:102B00001AE1020EDB500CE1010EF36EDB5004E023
:102B1000D890F336E806FCE1F350F31C95162CD060
:102B2000010EF36EDB5004E0D890F336E806FCE1CA
:102B3000F350951221D0450E496EDF50495C1AE1E1
:102B4000020EDB500CE1010EF36EDB5004E0D89076
:102B5000F336E806FCE1F350F31C96160DD0010E97
:102B6000F36EDB5004E0D890F336E806FCE1F35056
:102B7000961202D02C8C01D026DC030EE15C02E21E
:102B8000E16AE552E16EE552E7CFD9FF1200D9CFF5
:102B9000E6FFE1CFD9FF030EE126020EDB6AE66A0B
:102BA000D9CFE6FFDACFE6FF050EE66E05EC1AF0A8
:102BB000E552E552E552E552E66AD950010FE66E5C
:102BC000000EDA20E66E010EE66E05EC1AF0E55214
:102BD000E552E552E5522C506DE1010EDB5007083D
:102BE00054E3410E496EDF50495C0BE1010EF36E78
:102BF000DB5004E0D890F336E806FCE1F350801493
:102C00003FD0420E496EDF50495C0BE1010EF36E7E
:102C1000DB5004E0D890F336E806FCE1F350811471
:102C20002FD0430E496EDF50495C0BE1010EF36E6D
:102C3000DB5004E0D890F336E806FCE1F350821450
:102C40001FD0440E496EDF50495C0BE1010EF36E5C
:102C5000DB5004E0D890F336E806FCE1F35083142F
:102C60000FD0450E496EDF50495C0FE1010EF36E47
:102C7000DB5004E0D890F336E806FCE1F35084140E
:102C8000E76E020EE7CFDBFF02D02C8C13D0DBCF38
:102C9000E6FFE66A920E496E6C0E4A6E4B6A49C0B8
:102CA000E6FFE66E4BC0E6FF1DEC38F04C6E050EFD
:102CB000E15E4C50030EE15C02E2E16AE552E16E36
:102CC000E552E7CFD9FF1200D9CFE6FFE1CFD9FF18
:102CD000030EE126E66AD9CFE6FFDACFE6FF050E5E
:102CE000E66E93DBE552E552E552E552E66AD950CD
:102CF000010FE66E000EDA20E66E010EE66E85DB51
:102D0000E552E552E552E552E66AD950020FE66E09
:102D1000000EDA20E66E010EE66E77DBE552E55234
:102D2000E552E5522C5001E0A9D0020EDB5001081B
:102D300001E2A0D0010EDB50070801E29BD0410E5A
:102D4000496EDF50495C1AE1020EDB500CE1010EC6
:102D5000F36EDB5004E0D890F336E806FCE1F35064
:102D6000F31C891689D0010EF36EDB5004E0D89075
:102D7000F336E806FCE1F35089127ED0420E496E2C
:102D8000DF50495C1AE1020EDB500CE1010EF36EDC
:102D9000DB5004E0D890F336E806FCE1F350F31C76
:102DA0008A166AD0010EF36EDB5004E0D890F33639
:102DB000E806FCE1F3508A125FD0430E496EDF5003
:102DC000495C1AE1020EDB500CE1010EF36EDB50A0
:102DD00004E0D890F336E806FCE1F350F31C8B16C0
:102DE0004BD0010EF36EDB5004E0D890F336E806CA
:102DF000FCE1F3508B1240D0440E496EDF50495C29
:102E00001AE1020EDB500CE1010EF36EDB5004E020
:102E1000D890F336E806FCE1F350F31C8C162CD066
:102E2000010EF36EDB5004E0D890F336E806FCE1C7
:102E3000F3508C1221D0450E496EDF50495C1AE1E7
:102E4000020EDB500CE1010EF36EDB5004E0D89073
:102E5000F336E806FCE1F350F31C8D160DD0010E9D
:102E6000F36EDB5004E0D890F336E806FCE1F35053
:102E70008D1202D02C8C02D0E3EC11F0030EE15C39
:102E800002E2E16AE552E16EE552E7CFD9FF1200B6
:102E9000E3EF11F0E3EF11F0E3EF11F0D9CFE6FF2C
:102EA000E1CFD9FF040EE126E66AD9CFE6FFDACFFB
:102EB000E6FF050EE66EA9DAE552E552E552E55267
:102EC000E66AD950010FE66E000EDA20E66E010EBA
:102ED000E66E9BDAE552E552E552E552E66AD950D4
:102EE000020FE66E000EDA20E66E030EE66E8DDA55
:102EF000E552E552E552E5522C5076E1D950020FE9
:102F0000E96EDACFEAFF720ED880EE542E0EED5441
:102F100041E3D950020FE96EDACFEAFFEE50ED102F
:102F20001FE04C684D684E6A2D0EE76E020EDBCF37
:102F30004FF0030EDBCF50F0E7504F26000E50222B
:102F4000516A4F504C5C496E50504D584A6E51502A
:102F50004E584B6E020E49C0DBFF030E4AC0DBFF2A
:102F6000010EDB50070816E3410E496EDF50495C45
:102F700002E1DF6A11D0420E496EDF50495C02E186
:102F8000080E06D0430E496EDF50495C03E1100E77
:102F9000DF6E02D02C8C28D0010EDB50DF24E96ECE
:102FA000EA6AD890E936EA36690EE926010EEA2285
:102FB000020EDBCFEEFF030EDBCFEDFF010EDB5089
:102FC000DF24EA6A510FE96E010EEA22EF040AE1FA
:102FD000010EDB50DF24EA6A510FE96E010EEA228E
:102FE000020EEF6EE3EC11F0040EE15C02E2E16A26
:102FF000E552E16EE552E7CFD9FF1200E3EF11F0A1
:10300000E3EF11F0E3EF11F0E3EF11F0E3EF11F074
:10301000E3EF11F0E3EF11F0E3EF11F0E3EF11F064
:10302000D9CFE6FFE1CFD9FF070EE126E66AD9CF77
:10303000E6FFDACFE6FF030EE66EE7D9E552E5528A
:10304000E552E552E66AD950020FE66E000EDA202C
:10305000E66E030EE66ED9D9E552E552E552E55229
:103060002C5065E1DECF9AF1DDCF9BF1020EDBCF74
:10307000A2F1030EDBCFA3F1040EDB6A030EF36EA5
:10308000040EDBCFF4FFF350F45C4FE2010EE66E6A
:10309000D9CFE6FFDACFE6FF030EE66EB6D9E552EA
:1030A000E552E552E552E76E050EE7CFDBFF010E74
:1030B000E66ED950020FE66E000EDA20E66E030EC1
:1030C000E66EA3D9E552E552E552E552E76E060EEB
:1030D000E7CFDBFF2C502BE1050EDB5026E1060E7F
:1030E000DB5023E1040EDB28E96EEA6AD890E9366A
:1030F000EA369A0EE926010EEA22DECFEEFFDDCF98
:10310000EDFF040EDB28E96EEA6AD890E936EA366C
:10311000A20EE926010EEA22020EDBCFEEFF030E1D
:10312000DBCFEDFF040EDB2AA9D7E3EC11F0070E8D
:10313000E15C02E2E16AE552E16EE552E7CFD9FFD8
:103140001200D9CFE6FFE1CFD9FFE652E66AD9CF28
:10315000E6FFDACFE6FF010EE66E57D9E552E552FB
:10316000E552E5522C500DE1DF5007E0F00E9314CC
:10317000936E0101010E996F02D00101996BE3EC8E
:1031800011F0E552E552E7CFD9FF1200F29EF29C12
:103190000FEF00F01200D9CFE6FFE1CFD9FF100EFC
:1031A000E126E66AD950010FE66E000EDA20E66EDF
:1031B000E66A2BD9E552E552E552E552E66AD9CFE7
:1031C000E6FFDACFE6FF010EE66E1FD9E552E552C3
:1031D000E552E552E66AD950040FE66E000EDA2099
:1031E000E66E020EE66E11D9E552E552E552E55261
:1031F000E66AD950020FE66E000EDA20E66E030E84
:10320000E66E03D9E552E552E552E552E66AD95039
:103210000A0FE66E000EDA20E66E060EE66EF5D8B0
:10322000E552E552E552E552E66AD950060FE66EE0
:10323000000EDA20E66E070EE66EE7D8E552E5529C
:10324000E552E552E66AD9500E0FE66E000EDA201E
:10325000E66E040EE66ED9D8E552E552E552E55227
:10326000E66AD9500F0FE66E000EDA20E66E050E04
:10327000E66ECBD8E552E552E552E552010EDBCFC2
:1032800049F04A6A49BE4A6849C0E6FF4AC0E6FFBB
:10329000860E4B6E6C0E4C6E4D6A4BC0E6FFE66EB2
:1032A0004DC0E6FF1DEC38F04E6E050EE15E4E504F
:1032B000DFCFE6FFE66A7A0E496E6C0E4A6E4B6A05
:1032C00049C0E6FFE66E4BC0E6FF1DEC38F04C6EE1
:1032D000050EE15E4C50040EDBCFE6FF050EDBCFA2
:1032E000E6FF6E0E496E6C0E4A6E4B6A49C0E6FFF1
:1032F000E66E4BC0E6FF1DEC38F04C6E050EE15E4D
:103300004C50020EDBCFE6FF030EDBCFE6FF620E72
:10331000496E6C0E4A6E4B6A49C0E6FFE66E4BC0C2
:10332000E6FF1DEC38F04C6E050EE15E4C50D950B6
:103330000A0FE96EDACFEAFFEECFE6FFEECFE6FF47
:10334000EECFE6FFEFCFE6FF550E496E6C0E4A6EEC
:103350004B6A49C0E6FFE66E4BC0E6FF1DEC38F055
:103360004C6E070EE15E4C50D950060FE96EDACF75
:10337000EAFFEECFE6FFEECFE6FFEECFE6FFEFCFC0
:10338000E6FF480E496E6C0E4A6E4B6A49C0E6FF76
:10339000E66E4BC0E6FF1DEC38F04C6E070EE15EAA
:1033A0004C500E0EDBCFE6FFE66A3C0E496E6C0E0B
:1033B0004A6E4B6A49C0E6FFE66E4BC0E6FF1DEC65
:1033C00038F04C6E050EE15E4C500F0EDBCFE6FF81
:1033D000E66A300E496E6C0E4A6E4B6A49C0E6FFD3
:1033E000E66E4BC0E6FF1DEC38F04C6E050EE15E5C
:1033F0004C50E3EC11F0100EE15C02E2E16AE552A0
:10340000E16EE552E7CFD9FF1200D9CFE6FFE1CF59
:10341000D9FF090EE126080EDB6A0D0E496E040184
:10342000CE51EA6A000FE96E030EEA22EF50495CC2
:1034300005E1FB0EDB5044E12C8842D0CE51EA6A14
:10344000000FE96E030EEA22EF502C081FE0FB0E7E
:10345000DB501AE1CE51EA6A000FE96E030EEA2250
:10346000EF50E66EE66A090E496E6C0E4A6E4B6AC4
:1034700049C0E6FFE66E4BC0E6FF1DEC38F04C6E2F
:10348000050EE15E4C502C8A020EE5D1CE2BCE51BA
:10349000496E4A6A000E491804E1010E4A1801E11A
:1034A000CE6B0D0E496ECE51EA6A000FE96E030E27
:1034B000EA22EF50495C06E1FB0EDB5001E12C886B
:1034C000030EC9D12D0E496ECE51EA6A000FE96E86
:1034D000030EEA22EF50495C2EE1040E4A6EFE0E06
:1034E000DB504A5C28E0050E4B6EFE0EDB504B5C59
:1034F00022E0FE0EDB0401E147D1030E496EFE0E11
:10350000DB50495C01E140D1070E4A6EFE0EDB50F4
:103510004A5C01E139D1010EF36E080EF3CFDBFFF7
:10352000CE2BCE51496E4A6A000E491804E1010EB5
:103530004A1801E1CE6B040E496EFE0EDB50495C69
:1035400011E0050E4A6EFE0EDB504A5C0BE00A0EDF
:10355000E66ED9CFE6FFDACFE6FF89D9E552E5522C
:10356000E55242D0CE51EA6A000FE96E030EEA221C
:10357000EFCF49F0000E49C0DFFF010EDB6A020EFB
:10358000DB6A030EDB6A050E496EFE0EDB50495CFA
:103590001FE1000EDFCFE6FF010EDBCFE6FF76EC8A
:1035A00039F0E552E552F3CF49F0F4CF4AF04B6AD7
:1035B0004C6A4AAE02D04B684C6849C0DFFF010E2E
:1035C0004AC0DBFF020E4BC0DBFF030E4CC0DBFF2B
:1035D0000401CE2BCE51496E4A6A000E491804E10F
:1035E000010E4A1801E1CE6B080EDB506FE0FE0EB3
:1035F000DB500FE1D9CFE9FFDACFEAFFD880800EA8
:10360000EE54000EEE54000EEE54000EEE5401E2A5
:10361000BBD0020E496EFE0EDB50495C0FE1D9CFE4
:10362000E9FFDACFEAFFD880000EEE54800EEE54A8
:10363000000EEE54000EEE5401E2A6D0060E4A6EC5
:10364000FE0EDB504A5C0FE1D9CFE9FFDACFEAFF8B
:10365000D880000EEE54000EEE54000EEE54800E94
:10366000EE5401E291D0D9CFE9FFDACFEAFF040EA0
:10367000EECFDBFF050EEECFDBFF060EEECFDBFF5E
:10368000070EEECFDBFF080EDB5001E196D0040EF3
:10369000DBCF3BF0050EDBCF3CF0060EDBCF3DF081
:1036A000070EDBCF3EF040684168426843683EEC5D
:1036B00039F0040E37C0DBFF050E38C0DBFF060E05
:1036C00039C0DBFF070E3AC0DBFF77D0FE0EDB50C0
:1036D0000EE1D9CFE9FFDACFEAFFD8807F0EEE54B2
:1036E000000EEE54000EEE54000EEE544DE3FE0EAE
:1036F000DB040EE1D9CFE9FFDACFEAFFD880FF0E75
:10370000EE54000EEE54000EEE54000EEE543CE368
:10371000020E496EFE0EDB50495C0EE1D9CFE9FF87
:10372000DACFEAFFD880FF0EEE547F0EEE54000E83
:10373000EE54000EEE5428E3030E4A6EFE0EDB50EC
:103740004A5C0EE1D9CFE9FFDACFEAFFD880FF0E5D
:10375000EE54FF0EEE54000EEE54000EEE5414E341
:10376000060E4B6EFE0EDB504B5C11E1D9CFE9FF2C
:10377000DACFEAFFD880FF0EEE54FF0EEE54FF0EB4
:10378000EE547F0EEE5403E22C8C010E64D0070E33
:10379000496EFE0EDB50495C10E0D9CFE9FFDACF6D
:1037A000EAFF040EEECFDBFF050EEECFDBFF060EC9
:1037B000EECFDBFF070EEECFDBFFFE0EDB50070A7E
:1037C00038E0010A25E0050A16E0010A14E0030AC0
:1037D00008E0050A06E0010A04E0050A02E0040E1A
:1037E0003AD0FC0EDBCFE9FFFD0EDBCFEAFF040E83
:1037F000DBCFEFFF2FD0FC0EDBCFE9FFFD0EDBCFE1
:10380000EAFF040EDBCFEEFF050EDBCFEDFF22D08B
:10381000FC0EDBCFE9FFFD0EDBCFEAFF040EDBCFB2
:10382000EEFF050EDBCFEEFF060EDBCFEEFF070E41
:103830000FD0FC0EDBCFE9FFFD0EDBCFEAFFDFCFC1
:10384000EEFF010EDBCFEEFF020EDBCFEEFF030E2D
:10385000DBCFEEFF000E496E090EE15C02E2E16A89
:10386000E552E16E4950E552E7CFD9FF1200D9CFBA
:10387000E6FFE1CFD9FF020EE126FD0EDBCFE9FF27
:10388000FE0EDBCFEAFFEE6AEE6AEE6AEE6A010E2A
:10389000DB6AFC0EDB50F36E010EDBCFF4FFF3505E
:1038A000F45C62E20401CE51EA6A000FE96E030E95
:1038B000EA22EFCFDFFF300EDF5C51E3DF50390843
:1038C0004EE3FD0EDBCFE9FFFE0EDBCFEAFFEECFCE
:1038D00049F0EECF4AF0EECF4BF0EFCF4CF00A0EAE
:1038E000406E416A426A436A49C03BF04AC03CF0BC
:1038F0004BC03DF04CC03EF03EEC39F037C049F0D3
:1039000038C04AF039C04BF03AC04CF0300EDF5CA2
:103910004D6E4E6A4F6A506AE85049264E504A2210
:103920004F504B2250504C22FD0EDBCFE9FFFE0ED4
:10393000DBCFEAFF49C0EEFF4AC0EEFF4BC0EEFF0F
:103940004CC0EEFF0401CE2BCE51496E4A6A000EE8
:10395000491807E1010E4A1804E1CE6B02D0000EAF
:1039600004D0010EDB2A95D7010E496E020EE15CF0
:1039700002E2E16AE552E16E4950E552E7CFD9FF34
:1039800012002550E66EE66AFD0E496E6B0E4A6E19
:103990004B6A49C0E6FFE66E4BC0E6FF1DEC38F00F
:1039A0004C6E050EE15E4C5012000501A85108E076
:1039B000010E496E6550020B01E0010E495C1BE1EE
:1039C0000101FA07000EFB5BFC510BE1FA51FB1100
:1039D00011E18C86A00EFA6F0F0EFB6F010EFC6FCB
:1039E0001200FA51FB1163E18C96A00EFA6F0F0ED4
:1039F000FB6FFC6B1200A80509E0020EA85D06E053
:103A0000040EA85D03E0100EA85D1BE10101FA079A
:103A1000000EFB5BFC510BE1FA51FB1111E18C86AE
:103A2000200EFA6F4E0EFB6F010EFC6F1200FA5162
:103A3000FB113DE18C96200EFA6F4E0EFB6FFC6B76
:103A40001200200EA85D33E10101FA07000EFB5BB6
:103A5000FC510AE1FA51FB112AE18C86100EFA6F33
:103A6000270EFB6F010E18D0FC050AE1FA51FB117D
:103A70001EE18C96100EFA6F270EFB6F020E0CD013
:103A8000020EFC5D0BE1FA51FB1111E18C86A00ED8
:103A9000FA6F860EFB6F030EFC6F1200FA51FB11DA
:103AA00006E18C96100EFA6F270EFB6FFC6B12006E
:103AB000D9CFE6FFE1CFD9FFE652A098636A626AE8
:103AC0000F01160E396F9F0E376F7B0E366F658CA8
:103AD000386B030EE66EE66AE66A270EE66E0F0E98
:103AE000E66ED0EC37F0496E050EE15E4950659CFC
:103AF000DF6ADF50496E4A6A100E495C000E4A5870
:103B000010E2DF50040DF3CFE9FFF4CFEAFF000E1F
:103B1000E926040EEA22EE6AEE6AEE6AEE6ADF2A0F
:103B2000E8D70F01160E266F62A602D06296FCD768
:103B30000501C36BC86BC96BCA6B6598DF6A040E5D
:103B4000DF5C18E2EA6ADF34FE0BEA36E96EB70E94
:103B5000E926050EEA22EE6AED6AEA6ADF34FE0B18
:103B6000EA36E96EAF0EE926050EEA22EE6AED6A44
:103B7000DF2AE5D70501080EB76F040EB86FA96BF1
:103B8000A86BE552E552E7CFD9FF1200D9CFE6FF87
:103B9000E1CFD9FFE65282BE06D0656A0F01366BCF
:103BA0000501A86B8AD00501A85110E1656A0F01D3
:103BB000366B160E396F9F0E376F7B0E366F65B6FC
:103BC00002D06586FCD70501010EA86FA8050AE1A1
:103BD00065BA08D0626A0F01366B368136890501F5
:103BE000020EA86F6250040B06E00F013651040B61
:103BF00002E06294BBD865B260D06250010B13E062
:103C00000F013651010B0FE053DF0501040EA86FC1
:103C10000401400E026F040E036F400E016F006B33
:103C20008C0E001362906250100B06E00F013651AB
:103C3000100B02E088D862986250400B14E00F012C
:103C40003651400B10E0010EE66EE66A000EE66E9D
:103C5000E66A730EE66EE66A36EC37F0496E060EDB
:103C6000E15E4950629C6250200B05E00F01365125
:103C7000200B01E04ED86250020B14E00F013651C8
:103C8000020B10E0010EE66EE66A000EE66EE66AD2
:103C9000E6687F0EE66E36EC37F0496E060EE15EA2
:103CA0004950636A040E0501E76EA819E8AE02D018
:103CB000E73402D0E750A85D02E2A19825D00F01B9
:103CC00036A721D0DF6A040EDF5C1DE262A61BD09E
:103CD00064CFD0F56296780E0501D01502E15CD86C
:103CE00010D0000EE66EE66AD00EE66E050EE66EA9
:103CF000720EE66EE66A36EC37F0496E060EE15E4D
:103D00004950DF2AE0D7A198E552E552E7CFD9FF25
:103D100012000F0126A115D0ABC5E9FFACC5EAFF23
:103D2000EF5080080DE1B7C5E9FFB8C5EAFFEF50D5
:103D3000840806E1ABC5E9FFACC5EAFF8C0EEF6E67
:103D40002691629A12000F01368562986582000EF4
:103D5000E66EE66AE66EE66A750EE66EE66A36ECD2
:103D600037F0496E060EE15E49501200000EE66E15
:103D7000E66AE66EE66A740EE66EE66A36EC37F0E0
:103D8000496E060EE15E495065920F01369562A4B8
:103D900002D06294FCD71200D9CFE6FFE1CFD9FF61
:103DA000E652FD0E0501D0155AE17E0ED015E84011
:103DB0007F0B040DF3CFABF5F4CFACF5000EAB27C2
:103DC000040EAC23ABC5ADF5ACC5AEF5AD75ABC55A
:103DD000E9FFACC5EAFFEF503C0BE842E8420D08B2
:103DE0003CE1ABC5E9FFACC5EAFF020EE926000ED7
:103DF000EA22EECF49F0EFCF4AF0480E49182BE106
:103E0000040E4A1828E1ABC5E9FFACC5EAFF020E73
:103E1000E926000EEA22400EEE6E040EED6EDF6A19
:103E2000DF50496E4A6A080E495C000E4A5813E298
:103E3000DF50EA6A480FE96E040EEA22EF50E66EA0
:103E4000DF50EA6A400FE96E040EEA22E552E750BD
:103E5000EF6EDF2AE5D70DD807D02ED805D0FD0E9E
:103E6000D015040801E14ED8E552E552E7CFD9FF5D
:103E70001200B7C5E9FFB8C5EAFFEF50800B05E0B7
:103E8000B7C5E9FFB8C5EAFFEF6A0501BF6BC06BB4
:103E9000C46BC56BC36BB5D8000EE66EE66AE66E02
:103EA000E66A030EE66EE66A36EC37F0496E060EF9
:103EB000E15E495096EF21F0020E0501C05D02E17E
:103EC000F1EF22F06CD80501D1511AE1ADC5E9FF3F
:103ED000AEC5EAFFEE52400EEF6EADC5E9FFAEC5CE
:103EE000EAFF020EE926000EEA22400EEE6E040EF4
:103EF000ED6EADC5E9FFAEC5EAFF8C0EEF6E1200A8
:103F0000D16B1200D9CFE6FFE1CFD9FFE652B7C59A
:103F1000E9FFB8C5EAFFEF50400B01E0010EDF6E8C
:103F20000501B775080EA85D0CE142C438FF0F010A
:103F30003851000803E20501100E02D00501040EFD
:103F4000A86FC00526E1B7C5E9FFB8C5EAFF020EB4
:103F5000E926000EEA22480EEE6E040EED6EB8DA87
:103F6000020E0501BF5D06E1B7C5E9FFB8C5EAFF6E
:103F7000840E0DD0DF5006E1B7C5E9FFB8C5EAFFF2
:103F8000C80E05D0B7C5E9FFB8C5EAFF880EEF6EC9
:103F900001D005D8E552E552E7CFD9FF1200D9CFBD
:103FA000E6FFE1CFD9FF020EE1260501C06BB7C5E0
:103FB000E9FFB8C5EAFFEF6A040EB719496EB8C544
:103FC0004AF0DE6EB8C5DDFFDECFE9FFDDCFEAFFE8
:103FD000EF6AC8AF0CD0CB51CC1107E005D0CCC5EF
:103FE000FAFF0501CB51F96EFADF0501C89F020EF9
:103FF000E15C02E2E16AE552E16EE552E7CFD9FF0A
:10400000120004014051600BE842E842E842E842F5
:10401000E842000901E0120041510C0A50E00B0A8D
:104020003FE00C0A31E0010A22E00B0A1EE0020A1E
:104030001CE0030A18E0080A10E0010A0CE00F0A6D
:1040400008E0030A01E012000501C38F080EA86F03
:104050001200E5EF20F08DEF23F00501A90EC16FEE
:10406000050EC26F0CD03CEF21F060EF20F0445100
:104070000501C16FC26BAA0EC127050EC223C38101
:10408000010EC46FC38F12000501C38F0401445198
:10409000EA6AAA0FE96E050EEA2242C4EFFF120097
:1040A000000EE66EE66AE66EE66A020EE66EE66A06
:1040B00036EC37F0496E060EE15E495012001200F0
:1040C000D9CFE6FFE1CFD9FF040EE1260401420576
:1040D00010E140511F0B00090CE10501C38F030ED5
:1040E0000401415D04E10501010ECF6F02D005011D
:1040F000CF6B040142515FE140511F0B02085BE1AD
:1041000044510F0B000957E00501C38F040144BF60
:104110000BD044510F0BE96EEA6AD890E936EA36C3
:10412000AF0EE926050E0AD044510F0BE96EEA6A7C
:10413000D890E936EA36B70EE926050EEA22EECF28
:10414000DEFFEDCFDDFF030E415D06E1DECFE9FFCF
:10415000DDCFEAFF840E2ED044510F0B4A6A260FA2
:10416000496E0F0E4A22020E49C0DBFF030E4AC001
:10417000DBFF020EDBCFE9FF030EDBCFEAFFEF90A0
:1041800044AF0CD0DECFE9FFDDCFEAFFEF6ADF748A
:10419000DECFE9FFDDCFEAFF400E0CD0DECFE9FF36
:1041A000DDCFEAFF880EEF6EDF74DECFE9FFDDCFF3
:1041B000EAFFC80EEF6E040EE15C02E2E16AE5522E
:1041C000E16EE552E7CFD9FF1200800E0401405D99
:1041D00052E10501C00EC36F04014351030A29E0F7
:1041E000010A09E0030A45E10501680EC16F710E7D
:1041F000C26F120E38D04251F66EF76AD890F6367A
:10420000F736EF0EF626710EF7220900F5CFC1F54D
:104210000A00F5CFC2F5020E0501F76AC125F66E58
:10422000C251F7220900F5CFC4F50A00F5CFC5F554
:104230001200030E425D1AE24251F66EF76AD89000
:10424000F636F736F10EF626710EF7220900F5CF95
:10425000C1F50A00F5CFC2F5C1C5F6FFC2C5F7FF2B
:104260000800F5500501C46FC56B12000501C36B52
:1042700012000501C36B1200D9CFE6FFE1CFD9FFD1
:10428000020EE1260401486B496B40511F0B020AE4
:1042900011E0030A0CE0010A35E10501C38F0401B6
:1042A00048810501CF052EE1040148832BD005018B
:1042B000C38F28D00501C38F040144BF0BD04451E4
:1042C0000F0BE96EEA6AD890E936EA36AF0EE926B6
:1042D000050E0AD044510F0BE96EEA6AD890E93610
:1042E000EA36B70EE926050EEA22EECFDEFFEDCF65
:1042F000DDFFDECFE9FFDDCFEAFFEF50040B02E088
:10430000010E486F0501C3AF07D0480EC16F040E00
:10431000C26FC381020EC46F020EE15C02E2E16A69
:10432000E552E16EE552E7CFD9FF1200659805012D
:10433000C3BF47D0C8AF26D0020EC06FB7C5E9FFD4
:10434000B8C5EAFFEE52EF6AB7C5E9FFB8C5EAFFA4
:10435000C80EEF6EADC5E9FFAEC5EAFFEE52400EE6
:10436000EF6EADC5E9FFAEC5EAFF020EE926000E0D
:10437000EA22480EEE6E040EED6EADC5E9FFAEC545
:10438000EAFF7AD0ADC5E9FFAEC5EAFFEE52400EB6
:10439000EF6EADC5E9FFAEC5EAFF020EE926000EDD
:1043A000EA22400EEE6E040EED6EADC5E9FFAEC51D
:1043B000EAFF8C0EEF6EB7C5E9FFB8C5EAFF840EC1
:1043C0005CD0C8BF84D0040140AF59D00501C451AE
:1043D0000401465D0501C5510401475904E246C484
:1043E000C4F547C4C5F574D80501010EC06FADC54D
:1043F000E9FFAEC5EAFFEE52400EEF6EADC5E9FF34
:10440000AEC5EAFF020EE926000EEA22400EEE6E6D
:10441000040EED6EADC5E9FFAEC5EAFF800EEF6E8E
:10442000D16BABC5E9FFACC5EAFFEE52400EEF6EB3
:10443000ABC5E9FFACC5EAFF020EE926000EEA2291
:10444000400EEE6E040EED6EABC5E9FFACC5EAFFA3
:10445000840EEF6E010ED16FB7C5E9FFB8C5EAFF54
:10446000020EE926000EEA22480EEE6E040EED6EF4
:10447000B7C5E9FFB8C5EAFFC80EEF6E1200050127
:10448000020EC06FB7C5E9FFB8C5EAFFEE52EF6A8A
:10449000B7C5E9FFB8C5EAFFC80EEF6EADC5E9FFC5
:1044A000AEC5EAFFEE52400EEF6EADC5E9FFAEC5F8
:1044B000EAFF020EE926000EEA22480EEE6E040E16
:1044C000ED6EADC5E9FFAEC5EAFFC80EEF6E120096
:1044D000D9CFE6FFE1CFD9FF020EE1260501400E5C
:1044E000C45D000EC5590DE2C4C5DEFFC5C5DDFFC4
:1044F000BF5102E1010E03D0BF0506E1020EBF6FFE
:1045000003D0400EDE6EDD6AB7C5E9FFB8C5EAFF2D
:10451000EF92B7C5E9FFB8C5EAFFEF90B7C5E9FF6D
:10452000B8C5EAFF010EDB50EF12B7C5E9FFB8C509
:10453000EAFFEE52DFCFEFFF000EDB50C45F010E4B
:10454000DB50C55B480ECD6F040ECE6FC3B120D0DB
:10455000D9CFE9FFDACFEAFFEE50ED1038E0C1C560
:10456000F6FFC2C5F7FFC12B000EC2230800F550AD
:10457000E66ECDC5E9FFCEC5EAFFCD2B000ECE23FA
:10458000E552E750EF6EDF06010EE2E2DB06E0D710
:10459000D9CFE9FFDACFEAFFEE50ED1018E0C1C540
:1045A000E9FFC2C5EAFFC12B000EC223EF50E66E41
:1045B000CDC5E9FFCEC5EAFFCD2B000ECE23E552D7
:1045C000E750EF6EDF06010EE3E2DB06E1D7020EF5
:1045D000E15C02E2E16AE552E16EE552E7CFD9FF24
:1045E0001200D9CFE6FFE1CFD9FF020EE126ABC51D
:1045F000E9FFACC5EAFFEE52EFCFDFFFDFCF49F0B6
:1046000049500501C95D000ECA5902E2C9C5DFFF64
:10461000DF50496E4A6AE850C95DC96F4A50CA59AD
:10462000CA6F010EDB6ADF50F36E010EDBCFF4FFC1
:10463000F350F45C16E2010EDB50EA6A480FE96EB3
:10464000040EEA22EF50E66EC6C5E9FFC7C5EAFFD1
:10465000C62B000EC723E552E750EF6E010EDB2A92
:10466000E2D7000ED880C955000ECA5527E2ADC565
:10467000E9FFAEC5EAFFEE52400EEF6EADC5E9FFB1
:10468000AEC5EAFF020EE926000EEA22480EEE6EE3
:10469000040EED6EABC5E9FFACC5EAFFEF50400B71
:1046A00006E1ADC5E9FFAEC5EAFFC80E05D0ADC550
:1046B000E9FFAEC5EAFF880EEF6E25D0ADC5E9FF74
:1046C000AEC5EAFFEE52400EEF6EADC5E9FFAEC5D6
:1046D000EAFF020EE926000EEA22400EEE6E040EFC
:1046E000ED6EADC5E9FFAEC5EAFF840EEF6ECB51AE
:1046F000CC1107E005D0CCC5FAFF0501CB51F96E0E
:10470000FADF0501C89F020EE15C02E2E16AE552B0
:10471000E16EE552E7CFD9FF1200D9CFE6FFE1CF36
:10472000D9FFE6520501C38F030EE66EE66AE66A1C
:10473000270EE66E0F0EE66ED0EC37F0496E050ED2
:10474000E15E4950DF6ADF50496E4A6A100E495CEB
:10475000000E4A5810E2DF50040DF3CFE9FFF4CF0A
:10476000EAFF000EE926040EEA22EE6AEE6AEE6A1D
:10477000EE6ADF2AE8D7658C010EE66EE66AE66A25
:10478000AA0EE66E050EE66ED0EC37F0496E050E09
:10479000E15E4950659C0501080EB76F040EB86FC5
:1047A000000EAB6F040EAC6FABC5ADF5AE6F42C47F
:1047B000A9F5A95102E1100E12D0010EE66EE66ACB
:1047C000A90EE66E050EE66E010EE66EE66A36ECA2
:1047D00037F0496E060EE15E49500501200EA86FC4
:1047E000E552E552E7CFD9FF1200D9CFE6FFE1CF7E
:1047F000D9FF020EE126000EDE6E040EDD6EFD0E08
:10480000DB50E8244B6EFE0EDB50040DF3504B24BE
:10481000040DF350496E4A6A020E0F0B05E0D89062
:104820004A324932E806FBE1D89049364A36D890F8
:1048300049364A36D9CFE9FFDACFEAFF4950EE26AA
:104840004A50ED22DECFE9FFDDCFEAFFEF9EFD0EFD
:10485000DB500AE1FE0EEA6ADB34FE0BEA36E96E53
:10486000AF0EE926050E09D0FE0EEA6ADB34FE0B18
:10487000EA36E96EB70EE926050EEA22DECFEEFF34
:10488000DDCFEDFFDECFE9FFDDCFEAFFEF9CDECF2E
:10489000E9FFDDCFEAFF040EE926000EEA22EF8CE5
:1048A000020EE15C02E2E16AE552E16EE552E7CF19
:1048B000D9FF1200D9CFE6FFE1CFD9FF020EE126E2
:1048C000FE0EDB504A6A260F496E0F0E4A2249C07F
:1048D000DEFF4AC0DDFFDECFE9FFDDCFEAFFFD0EE0
:1048E000DBCFEFFFDBA407D0E66AFE0EDBCFE6FFEF
:1048F0007CDFE552E552FD0EDBA208D0010EE66E2C
:10490000FE0EDBCFE6FF71DFE552E552020EE15C01
:1049100002E2E16AE552E16EE552E7CFD9FF12000B
:10492000D9CFE6FFE1CFD9FF020EE126FE0EDB5024
:1049300020E1ADC5E9FFAEC5EAFFEE52400EEF6ED5
:10494000ADC5E9FFAEC5EAFF020EE926000EEA2278
:10495000400EEE6E040EED6EADC5E9FFAEC5EAFF8A
:104960008C0EEF6EB7C5E9FFB8C5EAFF840EEF6E97
:104970003BD0FD0EDB50E8244B6EFE0EDB50040DE9
:10498000F3504B24040DF3CF49F0F4CF4AF0000E5E
:104990004926040E4A2249C0DEFF4AC0DDFF840ECC
:1049A000DECFE9FFDDCFEAFFE850EF12FD0EDB506E
:1049B000E8244B6EFE0EDB50040DF3504B24010F28
:1049C000040DF3CF49F0F4CF4AF0000E4926040E4F
:1049D0004A2249C0DEFF4AC0DDFF840EDECFE9FF78
:1049E000DDCFEAFFE850EF12020EE15C02E2E16A7D
:1049F000E552E16EE552E7CFD9FF1200D9CFE6FFCD
:104A0000E1CFD9FF020EE126FD0EDB500AE0FE0EDB
:104A1000EA6ADB34FE0BEA36E96EB70EE926050ECC
:104A200009D0FE0EEA6ADB34FE0BEA36E96EAF0E01
:104A3000E926050EEA22EECFDEFFEDCFDDFFD9CF6E
:104A4000E9FFDACFEAFFEE50ED1003E1F36AF46A12
:104A500044D0DECFE9FFDDCFEAFF020EE926000EEB
:104A6000EA22FB0EDBCFEEFFFC0EDBCFEDFFDECF4D
:104A7000E9FFDDCFEAFFEE52FA0EDBCFEFFF400E8B
:104A8000DECFE9FFDDCFEAFFE850EF16880EDECF7C
:104A9000E9FFDDCFEAFFE850EF12FD0EDB500AE040
:104AA000FE0EEA6ADB34FE0BEA36E96EB70EE92643
:104AB000050E09D0FE0EEA6ADB34FE0BEA36E96E1B
:104AC000AF0EE926050EEA22EF74DECF49F0DDCF06
:104AD0004AF049C0F3FF4AC0F4FF020EE15C02E273
:104AE000E16AE552E16EE552E7CFD9FF1200D9CF76
:104AF000E6FFE1CFD9FF65A84ED0FE0EEA6ADB34AF
:104B0000FE0BEA36E96EB70EE926050EEA22EE50F4
:104B1000EFCFEAFFE96E400EEE16EE6AEE6AEE6A3D
:104B2000FE0EEA6ADB34FE0BEA36E96EB70EE926C2
:104B3000050EEA22EE50EFCFEAFFE96EEE7CFE0EA4
:104B4000EA6ADB34FE0BEA36E96EB70EE926050E9B
:104B5000EA22EF74400E496EFE0EEA6ADB34FE0B69
:104B6000EA36E96EB70EE926050EEA22EE50EFCFDF
:104B7000EAFFE96E4950EF16FE0EEA6ADB34FE0BDF
:104B8000EA36E96EB70EE926050EEA22EE50EFCFBF
:0E4B9000EAFFE96EEF7CE552E7CFD9FF120095
:024B9E00DACF6C
:104BA000E4FFE2CFDAFFE9CFE4FFEACFE4FFE65229
:104BB0009EA071D19E908E0ECE6ECF681850196E49
:104BC0001A6A010E1B6E020E1E5C0EE104019C515E
:104BD0009D1104E004019C07000E9D5B04019C51A3
:104BE0009D1101E01B6A06D11E0401E097D0105010
:104BF00011100AE11250131007E11450151004E1CE
:104C00001650171001E189D00401A5510BE018A23C
:104C100002D08C8E01D08C9E18A602D08C8A01D036
:104C20008C9A0AD018A202D08C8E01D08C9E18A625
:104C300002D08C8A01D08C9A105011101DE00050C7
:104C40000824006E01500920016E000ED880005427
:104C5000800E015410E200C000F001C001F0000E0F
:104C6000005E800E015A010E1910196E010E1A6EA7
:104C70001006000E115A1B6A125013101DE002504C
:104C80000A24026E03500B20036E000ED8800254DB
:104C9000800E035410E202C002F003C003F0000EC5
:104CA000025E800E035A040E1910196E010E1A6E60
:104CB0001206000E135A1B6A1A502FE00401A55168
:104CC00005E019B08C8C19B48C8804D019B08B8293
:104CD00019B48C88000000000000000000000000F3
:104CE00000000000000000000000000000000000C4
:104CF00000000000000000000000000000000000B4
:104D0000000000000000000000000401A55103E0C5
:104D10008C9C8C9802D08B928C986CD0030E1E5C6D
:104D200033E10401D45105E0A9C47BF1AAC47CF1AC
:104D300019D00E01005114E0B3CE7AFEB4CE7BFE42
:104D4000B1CE4AFEB2CE4BFE0E01040E326F0E0102
:104D50000251031104E1B1CE02FEB2CE03FE02D035
:104D60000401A26B8A9804019C519D1104E0040186
:104D70009C07000E9D5B04019C519D1101E01B6A84
:104D80000401010EAB6F36D0040E1E5C33E104014A
:104D9000D45105E0A7C47BF1A8C47CF11AD00E0160
:104DA000005114E0B5CE7AFEB6CE7BFEAFCE4AFE01
:104DB000B0CE4BFE0E01040E326F0E0102510311F4
:104DC00004E1AFCE02FEB0CE03FE03D00401010E1B
:104DD000A26F8A8804019C519D1104E004019C0784
:104DE000000E9D5B04019C519D1101E01B6A0401B2
:104DF000AB6B00D01B504AE01E6A1D5047E01C6A96
:104E0000040E1C5C3AE21C50E96EEA6AD890E9365E
:104E1000EA36880EE926040EEA22EECF58F0EFCFEC
:104E200059F01C50E96EEA6AD890E936EA36080E65
:104E3000E926000EEA2258C0EEFF59C0EDFF1C50D3
:104E4000E96EEA6AD890E936EA36900EE926040E51
:104E5000EA22EECF58F0EFCF59F01C50E96EEA6A23
:104E6000D890E936EA36100EE926000EEA2258C03C
:104E7000EEFF59C0EDFF1C2AC3D798C418F099C49F
:104E80001EF09AC49CF49BC49DF41D6A80BE03D09E
:104E90000401010EB16FE552E5CFEAFFE5CFE9FF6E
:104EA000E5CFDAFF1100010E086E096A0A6E0B6A7F
:104EB0000C6E0D6A0E6E0F6A106A116A126A136A1E
:104EC000146A156A166A176A1D6ACD92CD9ECD9C2A
:104ED000CD8ACD98CD96CD948E0ECE6ECF68CD80F6
:104EE0009F809E909D8092800F01FE0E486F1F0E46
:104EF000496F8D8496948D829692898C929C8D8038
:104F000096908B8294928C9C959C8C9E959E8C986E
:104F100095988C9A959A8A9893980401010EA26F9D
:104F2000A56F0401D46B0E01006F0401AB6FB06B71
:104F3000AC6BAD6BAE6BAF6BB16B1200D9CFE6FF54
:104F4000E1CFD9FF030EE126DF6A010EDB6A020E14
:104F5000DB6AE66AD9CFE6FFDACFE6FF010EE66E3E
:104F600005EC1AF0E552E552E552E552E66AD950F1
:104F7000010FE66E000EDA20E66E030EE66E05EC1B
:104F80001AF0E552E552E552E5522C5001E003D10A
:104F9000DF0446E1D950010FE96EDACFEAFFEE50A7
:104FA000ED1008E10E01006B0401D46B01017B6B75
:104FB0007C6BEFD0D950010FE96EDACFEAFF010E1A
:104FC000EE180FE1ED500DE10401010ED46F0E015A
:104FD000006B939201015A0501E0DBD0020E5A6F7B
:104FE000D8D00401D46B9392B3CEE6FFB4CEE6FFE3
:104FF000040EE66EB1CEE6FFB2CEE6FF010EE66E1F
:105000008DEC35F0496E060EE15E4950000EE66EFD
:10501000E66A010EE66EFDDAE552E552E552B9D0D8
:10502000020EDF5C15E1D950010FE96EDACFEAFF1D
:10503000EE50ED100AE10401010EA56F959E959AC0
:10504000949295989690959CA4D00401A56BA1D0BC
:10505000040EDF5C07E1010EDBCFB1FE020EDBCFF9
:10506000B2FE97D0050EDF5C07E1010EDBCFAFFE8D
:10507000020EDBCFB0FE8DD0060EDF5C1CE1D950F6
:10508000010FE96EDACFEAFF720ED880EE542E0ED1
:10509000ED540AE2720EF36E010EF3CFDBFF2E0E1B
:1050A000F36E020EF3CFDBFF010EDBCFA9F4020E8D
:1050B000DBCFAAF46ED0070EDF5C1CE1D950010FE4
:1050C000E96EDACFEAFF720ED880EE542E0EED5460
:1050D0000AE2720EF36E010EF3CFDBFF2E0EF36EBB
:1050E000020EF3CFDBFF010EDBCFA7F4020EDBCF06
:1050F000A8F44FD0080EDF5C16E1D950010FE96E1D
:10510000DACFEAFF180ED880EE54000EED5407E215
:10511000180EF36E010EF3CFDBFF020EDB6A010EF9
:10512000DBCFABFE36D0090EDF5C16E1D950010FA4
:10513000E96EDACFEAFF060ED880EE54000EED5489
:1051400007E2060EF36E010EF3CFDBFF020EDB6A01
:10515000010EDBCFACFE1DD00A0EDF5C07E1010EB5
:10516000DBCFB3FE020EDBCFB4FE0DD00B0EDF5C47
:1051700007E1010EDBCFB3FE020EDBCFB4FE09D098
:105180000C0EDF5C06E1010EDBCFB5FE020EDBCFBD
:10519000B6FEE3EC11F0030EE15C02E2E16AE552D7
:1051A000E16EE552E7CFD9FF1200D9CFE6FFE1CF9C
:1051B000D9FF0A0EE126020EDB6A030EDB6A040E3B
:1051C000DB6A050EDB6A060EDB6A070EDB6A080E79
:1051D000DB6A090EDB6AE66AD9CFE6FFDACFE6FFC3
:1051E000030EE66E05EC1AF0E552E552E552E55283
:1051F000E66AD950020FE66E000EDA20E66E020E65
:10520000E66E05EC1AF0E552E552E552E552010E64
:10521000E66ED950040FE66E000EDA20E66E020E3E
:10522000E66E05EC1AF0E552E552E552E5522C50D7
:1052300023E1080EDBCFE6FF090EDBCFE6FF060E0B
:10524000DBCFE6FF070EDBCFE6FF040EDBCFE6FF8A
:10525000050EDBCFE6FF020EDBCFE6FF030EDBCF52
:10526000E6FFDECFE6FFDDCFE6FF10D8496E0A0E7F
:10527000E15E4950E3EC11F00A0EE15C02E2E16A02
:10528000E552E16EE552E7CFD9FF1200D9CFE6FF34
:10529000E1CFD9FF1D50FEE1D950FB0FE96EFF0EA3
:1052A000DA20EA6EEE50ED102EE1D950F90FE96EDA
:1052B000FF0EDA20EA6EEE50ED1025E1D950F70F1F
:1052C000E96EFF0EDA20EA6EEE50ED101CE1D950C7
:1052D000F50FE96EFF0EDA20EA6EEE50ED1013E1E5
:1052E0000401020E996F190E3D6E3E6AFD0EDBCF72
:1052F00042F0FE0EDBCF43F096EC38F03BC09AF460
:105300003CC09BF4EBD0010E04019A6F9B6B986B31
:105310008D908B92FB0EDBCF49F0FC0EDBCF4AF079
:10532000800E4A1413E0020E9811986F3D683E6893
:10533000FB0EDBCF42F0FC0EDBCF43F069EC38F024
:10534000FB0E3BC0DBFFFC0E3CC0DBFFF90EDBCFEE
:1053500049F0FA0EDBCF4AF00001800E4A1414E047
:10536000080E04019811986F3D683E68F90EDBCF76
:1053700042F0FA0EDBCF43F069EC38F0F90E3BC097
:10538000DBFFFA0E3CC0DBFFFD0EDBCF4DF0FE0E67
:10539000DBCF4EF04F6A506A190E406E416A426A86
:1053A000436A4DC03BF04EC03CF04FC03DF050C092
:1053B0003EF03EEC39F037C04DF038C04EF039C009
:1053C0004FF03AC050F0FB0EDBCF49F0FC0EDBCFC4
:1053D0004AF04B6A4C6A4AAE02D04B684C680F0EDA
:1053E000D89049364A364B364C36E806F9E149C082
:1053F0003BF04AC03CF04BC03DF04CC03EF04DC0CD
:1054000040F04EC041F04FC042F050C043F09CEC21
:1054100039F03BC088F43CC089F4010E04018827B0
:10542000000E8923FB0EDBCF90F4FC0EDBCF91F452
:10543000FD0EDBCF4DF0FE0EDBCF4EF04F6A506A13
:10544000190E406E416A426A436A4DC03BF04EC03D
:105450003CF04FC03DF050C03EF03EEC39F037C05C
:105460004DF038C04EF039C04FF03AC050F0F90E50
:10547000DBCF49F0FA0EDBCF4AF04B6A4C6A4AAEFA
:1054800002D04B684C680F0ED89049364A364B36DE
:105490004C36E806F9E149C03BF04AC03CF04BC04D
:1054A0003DF04CC03EF04DC040F04EC041F04FC00A
:1054B00042F050C043F09CEC39F03BC08AF43CC051
:1054C0008BF4010E04018A27000E8B23F90EDBCF2B
:1054D00092F4FA0EDBCF93F4010E996F010E1D6E5C
:1054E000E552E7CFD9FF1200ABC449F04A6A49BE82
:1054F0004A6849C0E6FF4AC0E6FFF80E4B6E6B0EE5
:105500004C6E4D6A4BC0E6FFE66E4DC0E6FF1DECEB
:1055100038F04E6E050EE15E4E50E3EF11F0D9CF3C
:10552000E6FFE1CFD9FF020EE126F40EDE6E010E9A
:10553000DD6EE66ED9CFE6FFDACFE6FF030EE66E4C
:1055400005EC1AF0E552E552E552E5522C5015E112
:105550000401AB0506E1DECFE6FFDDCFE6FFE66A3C
:1055600006D0DECFE6FFDDCFE6FF010EE66E51D8B6
:10557000E552E552E552E3EC11F0020EE15C02E285
:10558000E16AE552E16EE552E7CFD9FF1200D9CFCB
:10559000E6FFE1CFD9FF030EE126DF6A010EDB6AE9
:1055A000020EDB6AE66AD9CFE6FFDACFE6FF010E2C
:1055B000E66E05EC1AF0E552E552E552E552010EB1
:1055C000E66ED950010FE66E000EDA20E66E030E8D
:1055D000E66E05EC1AF0E552E552E552E5522C5024
:1055E0000EE1010EDBCFE6FF020EDBCFE6FFDFCFE1
:1055F000E6FF0FD8E552E552E552E3EC11F0030E59
:10560000E15C02E2E16AE552E16EE552E7CFD9FFE3
:105610001200D9CFE6FFE1CFD9FF1D50FEE1FE0E0B
:10562000DB0403E10401030E02D00401040E996FB0
:10563000190E3D6E3E6AFC0EDBCF42F0FD0EDBCF55
:1056400043F096EC38F03BC09AF43CC09BF4010E5A
:105650001D6EE552E7CFD9FF1200D9CFE6FFE1CFAB
:10566000D9FF050EE126E66AD9CFE6FFDACFE6FFDD
:10567000010EE66E05EC1AF0E552E552E552E552F0
:10568000E76E040EE7CFDBFFDB502FE12C5059E132
:105690000401A55124E0DF5000081FE28D90DF04D3
:1056A00003E18D848D82898C020EDF5C03E18D84A1
:1056B0008D82899C030EDF5C03E18D948D82899C31
:1056C000040EDF5C03E18D848D92899C050EDF5C06
:1056D0000CE18D948D92899C08D08D8006D0DF508E
:1056E000000802E28D9001D08D80010EE66ED95047
:1056F000010FE66E000EDA20E66E010EE66E05EC96
:105700001AF0E552E552E552E552E76E040EE7CF96
:10571000DBFFDB5014E12C5014E10401A55108E03B
:10572000010EDB50000802E28B9209D08B8207D079
:10573000010EDB50000802E28C9C01D08C8CE3EC63
:1057400011F0050EE15C02E2E16AE552E16EE5521C
:10575000E7CFD9FF1200FE0E0401AC5DFF0EAD597C
:10576000FF0EAE59FF0EAF5905E2AC2B000EAD2374
:10577000AE23AF23E3EF11F00401AC51AD11AE1134
:10578000AF1105E0AC07000EAD5BAE5BAF5BE3EFC6
:1057900011F0D9CFE6FFE1CFD9FF050EE126E66A89
:1057A000D9CFE6FFDACFE6FF070EE66E05EC1AF07A
:1057B000E552E552E552E552E76E040EE7CFDBFF16
:1057C000DB500BE1DFCFACF4010EDBCFADF4020E0A
:1057D000DBCFAEF4030EDBCFAFF4E3EC11F0050E3C
:1057E000E15C02E2E16AE552E16EE552E7CFD9FF02
:1057F0001200ACC4E6FFADC4E6FFAEC4E6FFAFC422
:10580000E6FFEF0E496E6B0E4A6E4B6A49C0E6FF2B
:10581000E66E4BC0E6FF1DEC38F04C6E070EE15E05
:105820004C50E3EF11F0E66AB00EE66E040EE66E41
:10583000010EE66E05EC1AF0E552E552E552E5522E
:105840002C5001E01200E3EF11F0B0C449F04A6AB5
:1058500049BE4A6849C0E6FF4AC0E6FFE80E4B6E03
:105860006B0E4C6E4D6A4BC0E6FFE66E4DC0E6FF18
:105870001DEC38F04E6E050EE15E4E50E3EF11F078
:10588000B1C449F04A6A49BE4A6849C0E6FF4AC005
:10589000E6FFE20E4B6E6B0E4C6E4D6A4BC0E6FFA0
:1058A000E66E4DC0E6FF1DEC38F04E6E050EE15E73
:0A58B0004E500401B16BE3EF11F05C
:0658BA0099EC31F0FB0E39
:1058C000DBCFF3FFDB06F35000090AE0E7EC31F031
:1058D000FA0E52EC32F0F3E14A1CF1E1010E01D074
:1058E000000EC8EF31F099EC31F03B0EE12402E3F9
:1058F000E168E652E16E010EDB6A020EDB6AF90E28
:10590000DBCFF6FFFA0EDBCFF7FFFB0EDBCFF8FFA6
:105910000800F550DF6EDF5002E1ECEF30F0250EAD
:10592000DF5C02E0DFEF30F0030EDB6A040EDB6ABF
:10593000050EDB6A060EDB6A070EDB6A01EC31F04E
:105940002D0EDF5C0CE02B0EDF5C09E0200EDF5C2F
:1059500006E0230EDF5C03E0300EDF5C1AE1DF506F
:10596000300A14E0130A0FE0030A0AE00B0A05E00C
:10597000060AE4E1030EDB80E1D7030EDB82DED70B
:10598000030EDB84DBD7030EDB86D8D7030EDB8860
:10599000D5D72A0EDF5C1BE1FDEC30F04BEC31F08B
:1059A00010E0030EDB803D683E68130EDBCF42F053
:1059B000140EDBCF43F069EC38F0040E3BC0DBFF84
:1059C00003D0130E34EC31F001EC31F00BD0090EA2
:1059D000DB6AA2EC31F003E016EC32F0FAD7090EE4
:1059E00034EC31F0030EDBB0DB982E0EDF5C1BE1F4
:1059F00001EC31F02A0EDF5C0BE1FDEC30F04BECFA
:105A000031F003E1130E86EC31F001EC31F00BD0F4
:105A1000090EDB6AA2EC31F003E016EC32F0FAD7A3
:105A2000090E86EC31F0680EDF5C07E101EC31F025
:105A3000680EDF5C1DE1030E18D0740EDF5C17E00A
:105A40007A0EDF5C14E0480EDF5C06E0540EDF5C8B
:105A500003E05A0EDF5C02E1020E07D06C0EDF5C41
:105A600003E06A0EDF5C04E1010ED9EC31F0C9DB22
:105A7000DF506E0A01E17FD31E0A01E192D1200AB4
:105A800001E18FD13F0A01E149D11A0A01E146D172
:105A90000D0A01E143D1200A01E140D13A0A01E1B6
:105AA0003DD1200A01E13AD1260A01E135D10D0AA2
:105AB00001E132D11A0A01E1D9D0200A4AE0300AC4
:105AC0001FE0460A0EE0250A01E083D3D950F90F02
:105AD000E96EFF0EDA20EA6E010EEE5E000EEE5A5F
:105AE000EE5AE7EC31F0250EE66E95DB03E14A1C39
:105AF00001E169D3E3EC31F001E26BD3DB2A69D336
:105B0000080EDB6A040EDB50010806E2040EDB041B
:105B1000ABEC31F0DB508BDB080EDB5009E0030E01
:105B2000DB50010B05E172DB01E04DD3080EDB6AAF
:105B300064DBEFCFDFFF5BEC32F003E14A1C01E1F5
:105B400042D3E3EC31F001E3DB2A60DB01E141D336
:105B50003AD3070EDB5002080FE127EC32F0030EB8
:105B6000EEEC31F00E0EEECFDBFF0F0EEECFDBFFD3
:105B7000100EEECFDBFF20D0F70EDBCF4CF0F80E8F
:105B8000DBCF4DF0020E4C5E000E4D5AF70E4CC0AE
:105B9000DBFFF80E4DC0DBFF4CC0E9FF4DC0EAFF54
:105BA000DEEC31F04B6A0E0E49C0DBFF0F0E4AC02F
:105BB000DBFF100E4BC0DBFF0E0EDBCFE6FF0F0E40
:105BC000DBCFE6FF100EDBCFE6FFF8EC37F0E55257
:105BD000E552E552130E3CC0DBFF140E3DC0DBFF67
:105BE000060EDB5005E0130E22EC32F001E26ADB18
:105BF00046EC32F002E2130E37DB09EC32F006E03D
:105C0000040E22EC32F002E2050E2EDB030EDBB0B6
:105C100005D0FCDA01E0D7D2080EDB6A090EDB6A98
:105C20000E0EDBCFF6FF0F0EDBCFF7FF100EDBCF34
:105C3000F8FF0800F550DF6EDF5014E04CEC32F056
:105C400011E25BEC32F003E14A1C01E1BCD2BBDBA8
:105C500001E3DB2A090EDB2AD9500E0FE96E000E94
:105C6000CBDBE7D7D3DA01E1B4D2ADD2C6DA110E7D
:105C7000EECFDBFF120EEDCFDBFF110EDBCFE6FF29
:105C8000120EDBCFE6FFEAEC37F0E552E552130ED9
:105C9000F3CFDBFF140EF4CFDBFF060EDB5004E086
:105CA000130ED0DB01E20EDB46EC32F002E2130E03
:105CB000DBDAAFDB05E0040EC5DB02E2050ED4DA69
:105CC000030EDBB005D0A2DA01E07DD2080EDB6A5C
:105CD000090EDB6A110EDBCFE9FF120EDBCFEAFF04
:105CE000EFCFDFFFDF5014E0D7DB12E2E4DB03E1AC
:105CF0004A1C01E168D267DB01E3DB2A090EDB2ADB
:105D0000110EDB2ADBCFE9FF120EE8E3DB2AE6D730
:105D10007DDA01E15ED257D2030EDB8E070EDB0483
:105D200010E195DB040E5ADB0A0EEECFDBFF0B0E03
:105D3000EECFDBFF0C0EEECFDBFF0D0EEECFDBFF69
:105D40006CD0070EDB5003082CE1030EDBAE0DD048
:105D5000B2DA020E76DAEFCF49F04A6A4B6A4C6A41
:105D600049AE39D04A684B6835D0F70EDBCF4AF0E0
:105D7000F80EDBCF4BF0020E4A5E000E4B5AF70EC8
:105D80004AC0DBFFF80E4BC0DBFF4AC0E9FF4BC047
:105D9000EAFFEFCF49F00A0E49C0DBFF0B0EDB6ACA
:105DA00038D0070EDB50020809E1030EDBAE04D049
:105DB00059DB4BAE10D00ED055DB0DD0030EDBAE51
:105DC00012D079DA020E3DDAF9DA4B6A4C6A4AAE41
:105DD00002D04B684C68E2DA0C0E4BC0DBFF0D0EB4
:105DE0004CC0DBFF1AD0F70EDBCF4BF0F80EDBCF49
:105DF0004CF0020E4B5E000E4C5AF70E4BC0DBFF10
:105E0000F80E4CC0DBFF4BC0E9FF4CC0EAFFD6DA0E
:105E1000C5DA0C0EDB6A0D0EDB6A060EDB5005E1FF
:105E2000010EF36E050EF3CFDBFF150EDB6A160EC7
:105E3000DB6AD950370F496E000EDA204A6E390EF0
:105E400049C0DBFF3A0E4AC0DBFF380EDB6A080EA2
:105E5000DB6A0A0EAEDADF50780A12E0200A10E0A0
:105E6000280A0CE0200A0AE03F0A06E00D0A02E0D8
:105E7000200A08E1020E05D0080E03D0080EDF2626
:105E8000100E97DA030EDBBE02D0DB92DB94DB5000
:105E9000800B24E08ADAD890030EEB50000A08E663
:105EA000000EEE5C000EEE58000EEE58000EEE589E
:105EB00015E213DA40684168426843683EEC39F005
:105EC0000A0E37C0DBFF0B0E38C0DBFF0C0E39C0EB
:105ED000DBFF0D0E3AC0DBFF2D0E08D0030EDBA258
:105EE00002D02B0E03D0DBA408D0200EF36E170EC9
:105EF000F3CFDBFF150EDB2A02D0170EDB6A050E8F
:105F0000DB5003E1B7D901E189D0040E496E740E6C
:105F10004A6E000E4B6E070EDBCF4CF04D6A4E6A98
:105F20004F6A4CC040F04DC041F04EC042F04FC0EF
:105F300043F0D3D99CEC39F049503724F36E4A50E2
:105F40003820F46E4B503920F86EF4CFF7FFF3CFC2
:105F5000F6FF0800090EF5CFDBFF580EDF5C0FE1FE
:105F6000610EF36E090E7BD90AE3200E496E090E0D
:105F7000DBCFE7FF4950E75E090EE7CFDBFF070EF7
:105F8000DBCF49F04A6A4B6A4C6A0FDA49C040F0ED
:105F90004AC041F04BC042F04CC043F0EECF3BF062
:105FA000EECF3CF0EECF3DF0EFCF3EF09CEC39F081
:105FB0003EC0EDFF3DC0EDFF3CC0EDFF3BC0EFFF3D
:105FC000390EDBCFE9FFDB063A0EDBCFEAFF01E259
:105FD000DB06090EDBCFEFFF150EDB2A4BD995E16F
:105FE000030EDBA61DD06F0EDF5C06E1C1D918E3FE
:105FF000150EDB285BDA14D0780EDF5C09E0580E52
:10600000DF5C06E0620EDF5C03E0420EDF5C08E16D
:10601000020EF36E160EF3CFDBFF02D0150EDB6A15
:10602000030EDB50100B0EE0040EDBCF49F0050E23
:10603000DB50D880495406E2060EDB5003E1040E23
:10604000DB5034DA95D90AE2050EDBCFE7FF150EF7
:10605000DB50E75E050EE7CFDBFF02D0050EDB6A03
:10606000040EDBCF49F0160E45D9D880495414E20E
:10607000160EDBCFE6FF150EDBCFE6FF040EDBCFFF
:10608000E6FF050EDB50E552E75CE552D880E754A9
:10609000E552D880E7545FD9030EDB50010B0BE1CA
:1060A000080EDB5008E0B2D801E08DD0080EDB50BE
:1060B000BED8080EDB6A170EDB5007E088D9170E32
:1060C000F1D903E14A1C01E17ED0160EDB5016E047
:1060D0007ED9300EE66E9FD802E14A1C74E077D973
:1060E000DFCFE6FFFCEC38F0E552E552E552F4CFA5
:1060F0004AF00001F31C02E14A1C65E0050EDBCF0B
:1061000049F0160EDB50D880495409E2050EDBCF6A
:10611000E7FF160EDB50E75E050EE7CFDBFF300E24
:10612000E66E050ECBD94FE1390EDB2ADBCFE9FF56
:106130003A0E01E3DB2ADBCFEAFF090EEFCFDBFFEC
:10614000DB500EE044D9090EADD902E14A1C3BE018
:10615000390EDB2ADBCFE9FF3A0EEDE3DB2AEBD782
:1061600055D831E1160EDBCFE6FF080EC3D8E55255
:10617000E7245DD82ED0070EDB50030A1CE0010A8D
:1061800014E0030A07E07BD9DBCFEEFF020EDBCF82
:10619000EDFF1FD0F5D84E6A4CAE02D04D684E6868
:1061A0002CD8BCD84EC0EEFF14D0EAD84CBE4D68F7
:1061B00024D8B4D80ED063D9DBCFEFFF0AD07BD977
:1061C00005E14A1C03E1F368F46810D0FCD801E350
:1061D000DB2A79D988EF2CF0010EDBCF49F0020ED3
:1061E000DBCF4AF049C0F3FF4AC0F4FF3B0EE15C4D
:1061F00002E2E16AE552E16ECBD029D9020EEEEF60
:1062000031F061D90800F550DF6E1200200EE66E05
:10621000080E5EEF32F0FCEC38F0E552E552E55244
:10622000F3CF49F0F4CF4AF00001F31C1200496E9D
:106230004A6AD950010F4DD94950EE264A50ED22F5
:1062400012004D5E000E4E5AF70E4DC0DBFFF80EE9
:106250004EC0DBFF4DC0E9FF4EC0EAFF1200DBCFAE
:10626000F4FFF350F45C1200DB50E76E040EE7CF4E
:10627000DBFF12000A0EDBCF49F00B0EDBCF4AF03A
:106280000C0EDBCF4BF00D0EDBCF4CF049504A101B
:106290004B104C101200130EEECFDBFF140EEDCF9F
:1062A000DBFF130EDBCF49F0140EDBCF4AF0000109
:1062B000800E4A141200F70EDBCF4DF0F80EDBCF44
:1062C0004EF01200050EDB50E66ED950130F01D9C7
:1062D000E552E750EE6EED6A12000A0EDBCF3BF09E
:1062E0000B0EDBCF3CF00C0EDBCF3DF00D0EDBCF09
:1062F0003EF01200DBCFE6FF150EDBCFE6FF050E0A
:10630000DB50E552E724E552E7241200DB50CED8FB
:10631000010EF36E060EF3CFDBFF1200EE50EFCF4F
:10632000EAFFE96E4BC0EEFF4CC0EEFF4DC0EEFF42
:106330001200D9CFE6FFDACFE6FFE1CFD9FFE2CFF7
:10634000DAFF1200DFCFE6FFE66A8AEC39F0E552A9
:10635000E552F3501200E76E080EE7CFDBFF1200A4
:10636000EECF49F0EECF4AF0EFCF4BF04C6A12007F
:10637000050EDBCF49F0150EDB50D88049541200D2
:10638000010EDBCF4BF0020EDBCF4CF04D6A12005A
:10639000E552E5CFDAFFE7CFD9FF12000A0E49C078
:1063A000DBFF0B0E4AC0DBFF1200D9500A0F69EF6A
:1063B00032F0F36E070EF3CFDBFF1200EECF49F0A1
:1063C000EFCF4AF01200010EDB2A020E1200FC0E83
:1063D000DBCFE6FFFD0EDBCFE6FF1200495E000ECD
:1063E0004A5AF70E49C0DBFFF80E4AC0DBFF49C02E
:1063F000E9FF4AC0EAFF1200DA20EA6EEF2AEECF88
:10640000F6FF000EEF22EECFF7FFEF22EECFF8FF00
:106410001200040EDBCFE6FF130EDB50E552E75C03
:106420009ADFDB5004DF060EDB501200090EDB5052
:106430000A0DF350DF24D00FE76E090EE7CFDBFF24
:1064400001EF31F0DB50F36E050E2FEF31F0F70E58
:10645000DBCF49F0F80EDBCF4AF01200DFCFE6FFCA
:106460000BEF31F028DF030EECDEB0EF31F05DEC26
:106470002CF0E552E552E552E55200091200BDDE6E
:10648000EE50EFCFEAFFE96E010E1200130EDB5063
:10649000F36E040E2FEF31F0040EDB50F36E090E95
:1064A0002FEF31F0DBCFE6FF0BEF31F0E76E050E9B
:1064B000E7CFDBFF12008BDF2EEF32F0DBCFE6FF02
:1064C00086DF37EF32F0D950F90FE96EFF0EFCEF9F
:0C64D00031F0E96E000EDA20EA6E1200D6
:0464DC000401405126
:1064E0001F0B010801E012004051600BE842E84236
:1064F000E842E842E842010801E01200445103E0AA
:10650000440501E012004151220A31E0030A24E06F
:10651000010A15E0210A0DE0010A01E0120005015F
:10652000A00EC16F050EC26F080EC46FC56BC3818C
:1065300021D00501A00EC16F050EC26F1BD046C44D
:10654000C9F547C4CAF50501880EC66F050EC76FA9
:10655000CB6BCC6BC88F12000501880EC16F050E86
:10656000C26F070EC46FC56BC10EC36F120042C469
:106570009BF50501C38F12000501886B4B0E896FD7
:106580008A6B8B6B8C6B8D6B080E8E6F906B8F6B29
:106590001A0EE66E020EE66E5AEC24F0E552E55253
:1065A0001E0EE66E030EE66E5AEC24F0E552E5523E
:1065B000400EE66E080EE66E050EE66EE66A030E07
:1065C000E66EFEEC24F0496E050EE15E4950F3CF15
:1065D00097F5F4CF98F50501996B9A6B1200D9CF16
:1065E000E6FFE1CFD9FF05018F6B9751981102E1CA
:1065F000000E08D097C5E9FF98C5EAFFEF50800B61
:1066000001E0010E000945E1FC0EDBCF49F097C522
:10661000E9FF98C5EAFFEE52EF50D880495408E2EE
:1066200097C5E9FF98C5EAFFEE52FC0EEFCFDBFFFE
:106630008F6BFC0EDB508F5D19E28F51EA6A080FF9
:10664000E96E050EEA22EF50E66E8F51E76EFD0E01
:10665000DBCFE9FFFE0EDBCFEAFFE750E926000EB5
:10666000EA22E552E750EF6E8F2BE3D7400EE66E3D
:10667000080EE66E050EE66EE66A030EE66EFEECAA
:1066800024F0496E050EE15E4950F3CF97F5F4CF43
:1066900098F505018F51E552E7CFD9FF1200D9CF08
:1066A000E6FFE1CFD9FF050190510CE1FD0EDBCFF4
:1066B00091F5FE0EDBCF92F5FC0EDBCF95F5010ECA
:1066C000966F906FE552E7CFD9FF1200D9CFE6FF62
:1066D000E1CFD9FF030EE126050190512DE1DF6ADC
:1066E000FD0EDBCF3DF0FE0EDBCF3EF0DE523DC0B7
:1066F000DEFF3EC0DDFFDD52DF2ADF50496E4A6A11
:10670000FF0E491802E14A500BE0010EDBCFE9FF12
:10671000DB2A020EDBCFEAFF01E3DB2AEF50ECE1DC
:10672000FD0EDBCF91F5FE0EDBCF92F5DFCF95F5B9
:106730000501010E966F906F030EE15C02E2E16AC3
:10674000E552E16EE552E7CFD9FF1200D9CFE6FF5F
:10675000E1CFD9FF030EE126050190512EE1DF6A5A
:10676000FD0EDBCF3DF0FE0EDBCF3EF0DE523DC036
:10677000DEFF3EC0DDFFDD52DF2ADF50496E4A6A90
:10678000FF0E491802E14A500CE0010EDBCFF6FF84
:10679000DB2A020EDBCFF7FF01E3DB2A0800F5500E
:1067A000EBE1FD0EDBCF91F5FE0EDBCF92F5DFCFF7
:1067B00095F50501966B010E906F030EE15C02E208
:1067C000E16AE552E16EE552E7CFD9FF1200D9CF79
:1067D000E6FFE1CFD9FF020EE126050199519A119A
:1067E00002E1000E08D099C5E9FF9AC5EAFFEF5013
:1067F000800B01E0010E000901E084D0030E905DE2
:1068000001E1906B905101E17DD0020E905D16E1A7
:10681000E66A000EE66EE66A010EE66E030EE66EAE
:10682000FEEC24F0496E050EE15E4950F3CF99F578
:10683000F4CF9AF50501030E906F64D0900562E1E4
:10684000400E496E4A6A9551495C000E4A5803E26F
:10685000400EDF6E02D095C5DFFFDF50955D956F6E
:10686000480E936F050E946F010EDFCFDBFF96513C
:1068700016E1010EDB5028E091C5F6FF92C5F7FF47
:106880000800F55093C5E9FF94C5EAFFEF6E932B1E
:10689000000E9423912B9223010EDB06EAD7010E02
:1068A000DB5012E091C5E9FF92C5EAFFEF5093C5B6
:1068B000E9FF94C5EAFFEF6E932B000E9423912B12
:1068C0009223010EDB06EBD70501955107E1400E3F
:1068D000DF5C02E1020E01D0030E906FDFCFE6FF16
:1068E000480EE66E050EE66E010EE66E030EE66ECF
:1068F000FEEC24F0496E050EE15E4950F3CF99F5A8
:10690000F4CF9AF5020EE15C02E2E16AE552E16E33
:08691000E552E7CFD9FF1200A8
:08691800D9CFE6FFE1CFD9FF62
:10692000E6520E01006B016BAA6BDF6A180EDF5C8A
:106930002AE2EA6ADF34FE0BEA36E96E020EE92645
:106940000E0EEA22EE6AED6ADF50EA6A320FE96E55
:106950000E0EEA22EF6AEA6ADF34FE0BEA36E96ECF
:106960004A0EE9260E0EEA22EE6AED6AEA6ADF3482
:10697000FE0BEA36E96E7A0EE9260E0EEA22EE6A80
:10698000ED6ADF2AD3D70E01C60EAD6F0E0EAE6FC5
:106990003F0E79140009796ECF0E79140009796ED3
:1069A00079827B6A7A6A79900F0152815293F00E54
:1069B000B4140909B46E0E01070EAB6F030EAC6F71
:1069C000E00EB16F2E0EB26F800EAF6F3E0EB06F45
:1069D0000401D46B93920E01010E006F900EB36F01
:1069E000010EB46F900EB56F010EB66FB3CEE6FF19
:1069F000B4CEE6FF040EE66EB1CEE6FFB2CEE6FF01
:106A0000010EE66E8AD8496E060EE15E4950000E10
:106A1000E66EE66A010EE66E09EC2BF0E552E552F1
:106A2000E552E552E552E7CFD9FF1200D9CFE6FF94
:106A3000E1CFD9FF050EE126DF6A010EDB6A020E07
:106A4000DB6A030EDB6A040EDB6AE66AD9CFE6FF77
:106A5000DACFE6FF010EE66E05EC1AF0E552E552DC
:106A6000E552E552010EE66ED950010FE66E000EBA
:106A7000DA20E66E030EE66E05EC1AF0E552E552FA
:106A8000E552E552010EE66ED950030FE66E000E98
:106A9000DA20E66E010EE66E05EC1AF0E552E552DC
:106AA000E552E552010EE66ED950040FE66E000E77
:106AB000DA20E66E030EE66E05EC1AF0E552E552BA
:106AC000E552E5522C501FE1DF50180804E3030E95
