:020000040000FA
:0600000024EF06F01200DF
:0600080004EF08F01200F5
:060018000CEF08F01200DD
:02001E001DEED5
:0E00200000F02DEE00F0F86A40EF06F012003E
:0E00300001000E0E0000E600000002000000BD
:02003E003E0E74
:10004000006E016AFC0E026E036A046A07680868A3
:100050000968066A1200D9CFE6FFE1CFD9FFE65260
:1000600004501EE1040108BF1AD0400EE66E600E77
:10007000E66E000EE66E34EC05F0E552E552E55210
:10008000010E046EDF6A400EDF5C09E2DF50EA6AAF
:10009000A00FE96E000EEA22EF6ADF2AF4D717D12B
:1000A00000016051080A01E10DD10F0A01E1D3D02E
:1000B000010A01E1CAD0030A67E0010A58E0070A11
:1000C00044E0010A01E003D10001020EA06F00012B
:1000D0003A0EA16F0001010EA26F0001010EA36F85
:1000E0000001A46B100EA56FA66BA76B01C0A8F052
:1000F00002C0A9F003C0AAF0100E0001A95F000E13
:100100000001AA5B0001AB6B0001030EAC6F0001A4
:10011000F80EAD6FAE69AF6BB06B0001080EB16F3A
:10012000B26BB36BB46B0001B56904010CBF0CD0AA
:10013000400EE66EA00EE66E000EE66E04EC05F0D4
:10014000E552E552E552046AC2D00001615107E16F
:100150003F0E006EF80E016E0268036A06D03E0E76
:10016000006E016AFC0E026E036A046AB0D0040ECF
:10017000056E0028055C06E20400AED88EEC05F0A2
:10018000052AF7D7046AA3D0E868071805E1E868EC
:10019000081802E1E868091806E161C007F062C0CA
:1001A00008F063C009F007500001611908E1085028
:1001B0000001621904E109500001631900E143E103
:1001C000DF6A00016551DF5C3EE2000E075C100E45
:1001D0000858000E09582CE30028596E5A6A0A0E76
:1001E000D89059365A36E806FBE15B6A5ABE5B681E
:1001F0005950075C5A5008585B50095819E23A0E9A
:100200000001D8806555DF24EA6A660FE96E000EAA
:10021000EA22EF50E66E0650E96EEA6AE9BEEA6845
:100220000A0EE926000EEA22E552E750EF6E062A92
:10023000072A000E0822000E09223A0E065C01E190
:100240005ED8DF2ABED7046A42D059D8076808684A
:100250000968046A3CD00001070EA06F61C0A1F0DC
:1002600062C0A2F063C0A3F064C0A4F065C0A5F0B2
:1002700061C0F6FF62C0F7FF63C0F8FFDF6A0001EC
:100280006551DF5C0FE209003A0E0001D880655528
:10029000DF24EA6AA60FE96E000EEA22F5CFEFFF2F
:1002A000DF2AEDD704010CBF0CD0400EE66EA00E85
:1002B000E66E000EE66E04EC05F0E552E552E552FE
:1002C000046A05D06592656A68D8FF0000D0E552DF
:1002D000E552E7CFD9FF1200F66A0550F76EF86ACB
:1002E000D890F736F836F736F836140EA66EF29E2A
:1002F000550EA76EAA0EA76EA682A6941200D9CF9D
:10030000E6FFE1CFD9FFE652DF6A000EE76E06187E
:10031000E8AE02D0063403D0E750D880065436E267
:100320000650596E5A6A5B6A59AE02D05A685B68C9
:100330005950075CF66E5A500858F76E5B500958D2
:10034000F86EDF50EA6A0A0FE96E000EEA22EF50FB
:10035000F56E0D00DF2A0606065009E0DF50EA6A56
:100360000A0FE96E000EEA22EF50F56E01D0F56833
:100370000C00DF2A240EA66EF29E550EA76EAA0E62
:10038000A76EA682065001E00606BFD7A694066AAD
:10039000E552E552E7CFD9FF1200D9CFE6FFE1CF12
:1003A000D9FFE652DF6AFF0EDF5C0AE2E868E85038
:1003B00005E0E80600D000D000D0F9D7DF2AF3D757
:0A03C000E552E552E7CFD9FF120025
:0603CA005FD9E652645009
:1003D00032E16296040100513C0BE842E8420D080C
:1003E00028E1180E021923E1040E031920E1100E72
:1003F000026F040E036FDF6ADF50596E5A6A080EEF
:10040000595C000E5A5813E2DF50EA6A180FE96E81
:10041000040EEA22EF50E66EDF50EA6A100FE96E32
:10042000040EEA22E552E750EF6EDF2AE5D70ED838
:100430000AD03DD808D0040E645C03E162964DD822
:1004400002D0000E01D0010EE55224D11ED9E65291
:10045000040104BF046B536A4F6A506A516A526ABE
:1004600055EC03F0DF6ADF50596E5A6A010E595C91
:10047000000E5A5819E2505017E1F76ADF34FE0BAC
:10048000F736F66EEC0EF6260D0EF7220900F5CFC4
:1004900059F00800F5CF5AF004D05AC0FAFF59506D
:1004A000F96EFBDFDF2ADFD79ED8E552F3D0020ECC
:1004B0004F5C0EE176D80401180E026F040E036F34
:1004C000080E016F00BD02D0C80E05D0880E03D003
:1004D000BCD8CCD88C0E006F1200040E555C0AE11B
:1004E00012C438FF0F013851000802E2050E01D096
:1004F000030E556E4F040FE110D8020E535C03E15A
:100500000401840E06D0040104BD02D0C80E01D03F
:10051000880E046F120025EF03F0B7D8020EE12613
:10052000080E515C000E52580DE251C0DEFF52C061
:10053000DDFF535002E1010E03D0530406E1020E29
:10054000536E03D0080EDE6EDD6A0401049304913D
:10055000010EDB500413DFCF05F4DE50515EDD5099
:10056000525A0001180EE26F040EE36F56A20CD02F
:1005700085D810E0E0C0F6FFE1C0F7FF0800F550B5
:1005800068D8F6E2DB06F4D779D804E087D8FCE235
:10059000DB06FAD7020EE15C02E2E16AE552E16EA7
:1005A00079D073D8020EE126030E04010015E76E20
:1005B000010EE7CFDBFF01C4DFFFDE505126DD5027
:1005C00052220001180EE06F040EE16F57D804E0CC
:1005D00065D8FCE2DB06FAD7020EE15C02E2E16AD2
:1005E000E552E16E57D06598505005E13FD8840E32
:1005F000006F040118D0040110AF17D05150165DE0
:100600005250175904E216C451F017C452F085DF56
:10061000010E4F6E2BD8800E006F0401180E066F6E
:10062000040E076FC80E046F1200020E4F6E040115
:10063000056BC80E046F0401080E016F180E026FDF
:10064000040E036FC80E006F12004F6A0401046BA2
:100650001200E2C0E9FFE3C0EAFFEF6EE22B000EFA
:10066000E323E02BE123DF06010E12000401080E54
:10067000016F100E026F040E036F1200D9CFE9FF55
:10068000DACFEAFFEE50ED101200D9CFE6FFE1CF4E
:10069000D9FF1200E552E7CFD9FF1200E0C0E9FF11
:0A06A000E1C0EAFFEF5029EF03F07C
:0606AA0004011051600B79
:1006B000E842E842E842E842E842000901E012006C
:1006C0001151070A43E00B0A41E0070A34E0010A2E
:1006D00024E00B0A20E0020A1EE0030A1AE0080ADE
:1006E00010E0010A0CE00F0A08E0030A01E0120022
:1006F000010E506E040E556E1200A7EF03F0DDEFF1
:1007000003F0010E506E0001570EE06F000EE16F16
:100710000ED0F7EF03F025EF04F0010E506E1451E8
:100720000001E06FE16B580EE027000EE1235692C6
:10073000010E516E1200010E506E1451EA6A580FEC
:10074000E96E000EEA2212C4EFFF12001200800EC2
:100750000401105D31E11351030A20E0010A0BE0AE
:10076000030A29E1010E506E00012C0EE06F0D0E00
:10077000E16F120E1ED0AAD8E20EF6260D0EB8D8E2
:10078000020E0001F76AE025F66EE151F72209003A
:10079000F5CF51F00A00F5CF52F00DD097D8E60E04
:1007A000F6260D0EA5D8E0C0F6FFE1C0F7FF080061
:1007B000F550516E526A56821200010E506E0F0EA5
:1007C000E66E270EE66E0F0E9BD8010EE66E580EF3
:1007D000E66E000E95D812C457F00401125103E1E1
:1007E000050E556E1200060E556EEFEF04F0040173
:1007F000186B196B040110511F0B020A0EE0030A5B
:1008000009E0010A17E1010E506E56A013D0040151
:10081000188310D0010E506E0DD04AD801E0010EA1
:100820005ED8E2C0E9FFEA6EEF50040B03E004017A
:10083000010E186F500408E10001180EE06F040E5D
:10084000E16F5692020E516E1200040112050CE186
:1008500010511F0B000908E1010E506E030E115DCF
:1008600002E1568001D05690125121E110511F0B28
:1008700002081DE114510F0B000919E019D801E01D
:10088000010E2DD8030E0401115D02E1840E03D088
:1008900014AF07D0400EE2C0E9FFE3C0EAFFEF6EFD
:1008A0001200880EE2C0E9FFE3C0EAFFEF6E12001B
:1008B000010E506E14510F0B080DF3505A6A000FC1
:1008C000596E040E5A221451800B1200010E506E04
:1008D0001251F66EF76AD890F636F7361200040D0C
:1008E000F35000015924E26F000E5A20E36F12000A
:1008F000F7220900F5CFE0F00A00F5CFE1F0120091
:0E090000E66E0FEC06F0E552E552E5521200ED
:02090E000401E2
:1009100010511F0B010801E01200145101E01200F8
:10092000060E115D21E11351230A1DE0010A0DE0BD
:10093000030A19E1020E506E570405E10001500E42
:10094000E06F0D0EE16F090E0CD0020E506E5704D1
:1009500005E10001C50EE06F0D0EE16F570403E1E4
:100960001D0E516E526A568204011051600BE8420E
:10097000E842E842E842E842010801E01200115171
:100980000B0A26E0080A19E0090A12E0080A09E041
:100990000B0A05E0080A01E01200EDEF04F0EEEFAB
:1009A00004F0020E506E00014A0EE06F000E0BD0F4
:1009B000020E506E13C44AF01200020E506E000177
:1009C0004B0EE06F000EE16F5692010E516E120059
:1009D000020E506E12C44BF01200120012004C6A4C
:1009E0000F011E0E276F0401400E096F200E0A6FC3
:1009F000040E0B6F880E086F0401600E0E6F040E5C
:100A00000F6F400E0C6F1200D9CFE6FFE1CFD9FF78
:100A1000E652FC0EDB50400805E2400EF36EFC0E81
:100A2000F3CFDBFFDF6AFC0EDB50DF5C0FE2DF5051
:100A30004DD8EF50E66EDF50EA6A600FE96E040EA3
:100A4000EA22E552E750EF6EDF2AEDD7FC0EDBCF4E
:100A50000DF4400E04010C170C7D880E0C13E552AA
:100A6000E552E7CFD9FF1200D9CFE6FFE1CFD9FF9A
:100A70004C6A040108BF25D0FC0EDBCF59F00951A8
:100A8000D880595403E2FC0E09C4DBFF4C6AFC0E0B
:100A9000DB504C5C0FE24C50EA6A200FE96E040E0A
:100AA000EA22EF50E66E4C5011D8E552E750EF6E57
:100AB0004C2AEDD70401400E096F0817087D880EF7
:100AC00008134C50E552E7CFD9FF1200E76EFD0E38
:100AD000DBCFE9FFFE0EDBCFEAFFE750E926000E91
:040AE000EA221200F4
:0C0AE40065A60CD8550409E165BA07D0DE
:100AF000626A0F01366B36813689020E556E12001E
:100B0000656A0F01366B6586010E556E1200656AC7
:100B10000F01366B556A120087EF05F0555001E161
:100B200012006250040B05E00F013651040B01E086
:100B300032D865B212006250010B05E00F01365148
:100B4000010B01E03BD86250100B05E00F0136515C
:100B5000100B01E01FD86250200B05E00F01365149
:100B6000200B01E019D8030E555C01E21200546A13
:100B7000040E545C0EE26250080B0BE00F0136517C
:100B8000080B07E0E5EC01F0000901E16296542A48
:100B9000EFD71200120012000F0126A10DD0800E17
:100BA0000401005D07E1840E0401045D03E104011A
:100BB0008C0E006F0F012691629A1200636A626ABE
:100BC0000F019F0E376F0F017B0E366F0F01386BD1
:100BD0000F0EE66E270EE66E0F0EE66E20D8E5527B
:100BE000E552E5520F01160E266F62A605D06296F9
:100BF00000D000D00000F9D7659825EC03F004017F
:100C0000080E016F0401100E026F040E036F040141
:100C10008C0E006F5690576A030E556E1200D9CF96
:100C2000E6FFE1CFD9FFFD0EDBCFE9FFFE0EDBCF04
:100C3000EAFFFC0EDB5004E0EE6AFC0EDB06F9D79F
:080C4000E552E7CFD9FF1200D5
:080C48001DEE00F02DEE00F09E
:100C5000F86AF66A100EF76E0800F550FF0808E112
:100C6000010EF66E100EF76E0800F550FF0806E054
:100C700080AC02D000EF08F080ACFED701D81200A3
:100C80000DD8040032D835D8060E555C05E1655004
:100C9000020B02E12BEC00F0F4D71200600ED36ED1
:100CA0009B8C580E4D6E020E4E6E4DC059F04EC0CC
:100CB0005AF04D06000E4E5A59505A10F6E165A6EC
:100CC00004D06592656ACDEC01F00F01140E396F06
:100CD000556A566A576A1FEC00F08C968C9495966C
:100CE00095940F01486B496B120072EC05F08EEF82
:100CF00005F0060E555C02E28C868C94060E555C5F
:100D000014E10001200EE65D4E0EE75902E38C86E9
:100D10008C94400EE65D9C0EE75904E38C968C841F
:0C0D2000E66BE76BE62B000EE7231200E9
:040D2C0012010002AE
:100D300000000008D8043C00020001020001090282
:100D40002900010100C03209040000020300000074
:100D5000092111010001221D000705810340000146
:100D6000070501034000010403090434034D006931
:100D700000630072006F006300680069007000206B
:100D80000054006500630068006E006F006C006F27
:100D90000067007900200049006E0063002E0026E5
:100DA0000348004900440020005500530042002041
:100DB0000042006F006F0074006C006F00610064FF
:100DC00000650072000600FF0901A1011901294018
:100DD000150026FF007508954081001901294091F2
:0E0DE00000C03E0D3E0D670D6B0D9F0D0E0900
:020DEE00C00E35
:100DF000F36E00EE00F00E0E01D81200EA6002D091
:0E0E0000EE6AFCD7F350E9601200EE6AFCD7F0
:020E0E000000E2
:01FFF800AC5C
:01FFF900F710
:01FFFA000AFC
:01FFFB00FF06
:01FFFC0063A1
:01FFFD00F80B
:01FFFE000101
:01FFFF00F011
:00000001FF
