:020000040000FA
:06000000AEEF38F0120023
:060008005EEF21F0120082
:0600180022EF00F01200CF
:06002A000200AA710000B3
:1000300000050000E1000000A8710000B90E0000FA
:0400400002000000BA
:0C004400D8CFE4FFE0CFE4FFE46EDACF99
:10005000E4FFE2CFDAFFE9CFE4FFEACFE4FFF3CF3A
:10006000E4FFF4CFE4FFE652D9CFE6FFE1CFD9FFBA
:10007000040EE126020EDB6A030EDB6AA4A632D36D
:10008000A4960E01002B0E01AB510E01005D01E2A2
:10009000A4D10E01006B0E01A951EA6A310FE96E7D
:1000A0000E0EEA22EF500E01EA6AAC25E96EAD5160
:1000B000EA22EF6A79907B6A7A6A0E01A92B0E0117
:1000C000AA510E01A95D02E30E01A96B0E01A9510F
:1000D000E96EEA6AD890E936EA36010EE9260E0E94
:1000E000EA22EE50ED1001E178D10E01A951E96E3E
:1000F000EA6AD890E936EA36490EE9260E0EEA2277
:10010000EECF4CF0EFCF4DF00E01A951E96EEA6A47
:10011000D890E936EA36010EE9260E0EEA22EECF35
:100120004EF0EFCF4FF04E504C1802E14F504D18AB
:1001300001E113D10E01A951E96EEA6AD890E936BE
:10014000EA36790EE9260E0EEA22EE50ED101FE196
:100150000E01A951E96EEA6AD890E936EA36490EED
:10016000E9260E0EEA22EECF4CF0EFCF4DF00E0155
:10017000A951E96EEA6AD890E936EA36010EE92615
:100180000E0EEA224CC0EEFF4DC0EDFFE6D00E0190
:10019000A951E96EEA6AD890E936EA36490EE926AD
:1001A0000E0EEA22EECF4EF0EFCF4FF00E01A95126
:1001B000E96EEA6AD890E936EA36010EE9260E0EB3
:1001C000EA22EE504E5C4C6EEE504F584D6E020ED1
:1001D0004CC0DBFF030E4DC0DBFF020EDBCF4CF04B
:1001E000030EDBCF4DF04D3404E24C500008000EFE
:1001F0004D5458E2020EDBCF4CF0030EDBCF4DF036
:100200000E01A951E96EEA6AD890E936EA36790E0C
:10021000E9260E0EEA22EECF4EF0EFCF4FF04C5013
:100220004E5C4D504F581FE20E01A951E96EEA6A2B
:10023000D890E936EA36790EE9260E0EEA22EECF9C
:100240004CF0EFCF4DF00E01A951E96EEA6AD8905B
:10025000E936EA36010EE9260E0EEA224C50EE2669
:100260004D50ED221ED00E01A951E96EEA6AD890D8
:10027000E936EA36490EE9260E0EEA22EECF4CF0B8
:10028000EFCF4DF00E01A951E96EEA6AD890E93638
:10029000EA36010EE9260E0EEA224CC0EEFF4DC0F2
:1002A000EDFF5BD0020EDBCF4CF0030EDBCF4DF049
:1002B0004C6C4D1E000E4D220E01A951E96EEA6AEA
:1002C000D890E936EA36790EE9260E0EEA22EECF0C
:1002D0004EF0EFCF4FF04C504E5C4D504F581FE258
:1002E0000E01A951E96EEA6AD890E936EA36790E2C
:1002F000E9260E0EEA22EECF4CF0EFCF4DF00E01C4
:10030000A951E96EEA6AD890E936EA36010EE92683
:100310000E0EEA224C50EE5E4D50ED5A1ED00E01EC
:10032000A951E96EEA6AD890E936EA36490EE9261B
:100330000E0EEA22EECF4CF0EFCF4DF00E01A95198
:10034000E96EEA6AD890E936EA36010EE9260E0E21
:10035000EA224CC0EEFF4DC0EDFF0E01A951EA6A42
:10036000310FE96E0E0EEA22EF500E01EA6AAC255B
:10037000E96EAD51EA22120EEF6EF29E0E01A95106
:10038000E96EEA6AD890E936EA36010EE9260E0EE1
:10039000EA22EECF4CF0EFCF4DF04DC04CF04D6A5D
:1003A0004C50B66E0E01A951E96EEA6AD890E93652
:1003B000EA36010EE9260E0EEA22EECF4CF0EFCF20
:1003C0004DF04C50B56EF00EB4140009B46EF00E42
:1003D000B4140909B46E7980F28E000ED8801B54D3
:1003E000000E1C542EE22A2A000E2B221B502A5CDF
:1003F0001C502B5826E32A6A2B6A030E1F5C1FE24F
:100400001D50EA6A480FE96E010EEA2280CFEFFF25
:100410001D50EA6A4B0FE96E010EEA2281CFEFFF11
:100420001D50EA6A4E0FE96E010EEA2282CFEFFFFD
:100430001D2A030E1D5C01E31D6A1F2A02D01B6AE0
:100440001C6A000ED8802054000E215419E2255059
:10045000000816E22C2A000E2D2220502C5C215080
:100460002D580EE32C6A2D6A030E245C07E2222A23
:10047000030E225C01E3226A242A02D0206A216A48
:10048000255000080AE22E6A2E50040DF328C26E91
:100490009E9C9F9C9D8CC280C2820501005101E1FF
:1004A0001CD1DE6ADD6ADECF4CF0DDCF4DF0040EEC
:1004B0004C5C000E4D5801E310D1DECFE9FFDDCFDB
:1004C000EAFF010ED890E936EA36E806FBE1010EB4
:1004D000E926050EEA22EE50ED1001E1D3D0DECF81
:1004E000E9FFDDCFEAFF010ED890E936EA36E806EB
:1004F000FBE1110EE926050EEA22EE50ED1026E191
:10050000D9CFE9FFDACFEAFFEE50ED1001E18180AB
:10051000D9CFE9FFDACFEAFF010EEE1801E1ED5085
:1005200001E18182D9CFE9FFDACFEAFF020EEE18AE
:1005300001E1ED5001E18184D9CFE9FFDACFEAFF93
:10054000030EEE1801E1ED5001E18186DECFE9FFF7
:10055000DDCFEAFF010ED890E936EA36E806FBE186
:10056000110EE926050EEA22EECF4CF0EFCF4DF04A
:10057000DECFE9FFDDCFEAFF010ED890E936EA369B
:10058000E806FBE1010EE926050EEA22EECF4EF069
:10059000EFCF4FF04E504C1802E14F504D1826E16E
:1005A000D9CFE9FFDACFEAFFEE50ED1001E18190FB
:1005B000D9CFE9FFDACFEAFF010EEE1801E1ED50E5
:1005C00001E18192D9CFE9FFDACFEAFF020EEE18FE
:1005D00001E1ED5001E18194D9CFE9FFDACFEAFFE3
:1005E000030EEE1801E1ED5001E18196DECFE9FF47
:1005F000DDCFEAFF010ED890E936EA36E806FBE1E6
:10060000110EE926050EEA22EE2A000EEF22DECFB9
:10061000E9FFDDCFEAFF010ED890E936EA36E806B9
:10062000FBE1110EE926050EEA22EECF4CF0EFCFEA
:100630004DF0DECFE9FFDDCFEAFF010ED890E936BD
:10064000EA36E806FBE1090EE926050EEA22EECFBE
:100650004EF0EFCF4FF04E504C1802E14F504D1876
:1006600010E1DECFE9FFDDCFEAFF010ED890E936D9
:10067000EA36E806FBE1110EE926050EEA22EE6AEB
:10068000ED6A26D0D9CFE9FFDACFEAFFEE50ED10C0
:1006900001E18190D9CFE9FFDACFEAFF010EEE1830
:1006A00001E1ED5001E18192D9CFE9FFDACFEAFF14
:1006B000020EEE1801E1ED5001E18194D9CFE9FF7E
:1006C000DACFEAFF030EEE1801E1ED5001E1819669
:1006D000DF2A010E01E3DB2AE6D60201E45102E043
:1006E0000201E4079EAC2DD09E9CC450506E50C0B9
:1006F00051F0506AC350000150104E6E51C04FF07F
:100700002E50060DF3CF4CF0F4CF4DF0000E4C26DA
:10071000010E4D222250020D4C50F324E96E4D5033
:10072000F420EA6E4EC0EEFF4FC0EDFF2E2A25509A
:100730002E5C02E39D9C05D02E50040DF328C26E62
:10074000C282F2A442D0D59EF294F29A040E4C6E6C
:100750002950EA6A510FE96E010EEA22EF504C5C13
:1007600034E1080E295C0DE2070E29144C6E010ECF
:100770004C5204E0E846FE0B4C06FCE1E81C8916EE
:100780001CD0100E295C0DE2070E29144C6E010ED0
:100790004C5204E0E846FE0B4C06FCE1E81C8A16CD
:1007A0000CD0070E29144C6E010E4C5204E0E846A2
:1007B000FE0B4C06FCE1E81C8B162950EA6A510F2F
:1007C000E96E010EEA22020EEF6E040EE15C02E217
:1007D000E16AE552E16EE552E7CFD9FFE552E5CF98
:1007E000F4FFE5CFF3FFE5CFEAFFE5CFE9FFE5CF83
:1007F000DAFFE550E5CFE0FFE5CFD8FF1000D9CF15
:10080000E6FFE1CFD9FF020EE126896A9268256AE8
:100810008A6A93688B6A94688C968C949596959462
:10082000928E0601010EFD6F0E01B969BA69236A45
:10083000226A246A1E6A1D6A1F6A1B6A1C6A206A71
:10084000216A2A6A2B6A2C6A2D6A2E6A7682768041
:10085000769C769A76887696FA0E776EDF6ADFCF88
:1008600043F00C0EE76E4318E8AE02D0E73402D036
:10087000E750435C38E2010EDB6A010EDBCF43F048
:10088000030EE76E4318E8AE02D0E73402D0E7501B
:10089000435C27E2DFCF43F0446A43BE4468060E60
:1008A0004402F3CF44F0060E4302F3CF43F0F4507A
:1008B0004426000E4326010E4422010EDBCF45F0F4
:1008C000466A45BE4668D89045364636435045246C
:1008D000E96E44504620EA6EEE6AED6A010EDB2AAC
:1008E000CCD7DF2ABCD70601F76B0601F86B0601EF
:1008F000F56B0601F66B0601F96B0601FA6B060152
:10090000FB6B0601FC6B276A286A296ADF6ADFCF66
:1009100043F0180EE76E4318E8AE02D0E73402D079
:10092000E750435C1BE2DFCFE9FFEA6AE9BEEA6811
:10093000D890E936EA36690EE926010EEA22EE6A17
:10094000ED6ADFCFE9FFEA6AE9BEEA68510EE926FF
:10095000010EEA22010EEF6EDF2AD9D7D586D59A8D
:10096000D59CF294F29AF194D08E7694A386A596B3
:100970001EEC23F09AEC32F0F28EF28C7684020EAA
:10098000E15C02E2E16AE552E16EE552E7CFD9FFB0
:100990001200D9CFE6FFE1CFD9FF050EE126020E06
:1009A000DB6A030EDB6A040EDB6AC6EC15F01F502F
:1009B000000809E20DEC0CF01E2A030E1E5C01E19A
:1009C0001E6A1F06F4D72450000809E23FEC0CF021
:1009D000232A030E235C01E1236A2406F4D7200EA8
:1009E0000601E76EA819E8AE02D0E73402D0E7505E
:1009F000A85D03E36550020B01E0DDD1400EE66E19
:100A0000400EE66E020EE66ED8EC30F0E552E5528E
:100A1000E552E76E030EE7CFDBFF030EDB50000865
:100A200001E343D1040EDB6A030EDB50F36E040EC8
:100A3000DBCFF4FFF350F45C01E337D1040EDB505D
:100A4000EA6A400FE96E020EEA22EFCFDFFF0501EE
:100A50005D5145E10D0E436EDF50435C05E00A0E2B
:100A6000446EDF50445C3BE10501010E5D6F060101
:100A7000F751EA6A000FE96E030EEA220D0EEF6EDF
:100A80000601F72B010EDB6A0601F751F36E010E2A
:100A9000DBCFF4FFF350F45C1CE2010EDBCFE9FF87
:100AA000EA6AE9BEEA68000EE926030EEA22EF5080
:100AB000E66E010EDBCFE9FFEA6AE9BEEA68190ECD
:100AC000E926050EEA22E552E750EF6E010EDB2A19
:100AD000DBD708DA0601F76B0601F86BD4D01B0EE2
:100AE000DF5C0EE1050159510BE10501010E596F63
:100AF00005011B0E5A6F05015B6B05015C6BC3D0D2
:100B0000050159050EE15B0EDF5C0BE11B0E0501D3
:100B10005A5D07E105015B5104E105015B0E5B6F66
:100B2000B2D0050159056FE1410EDF5C6CE11B0E8F
:100B300005015A5D68E15B0E05015B5D64E105013D
:100B40005A6B05015B6B05015C6B0501596B010E6E
:100B5000DB6A010EDBCFE9FFEA6AE9BEEA68000E54
:100B6000E926030EEA22EF500D081CE0010EDBCF50
:100B7000E9FFEA6AE9BEEA68190EE926050EEA22EB
:100B8000EF50E66E010EDBCFE9FFEA6AE9BEEA68E4
:100B9000000EE926030EEA22E552E750EF6E010E41
:100BA000DB2AD7D7010EDBCFF7F60601F751EA6A49
:100BB000000FE96E030EEA22EF6A4D0E436E6B0ED4
:100BC000446E456A43C0E6FF44C0E6FF45C0E6FF09
:100BD000FEEC36F0E552E552E552000EE66E030EED
:100BE000E66E4A0E436E6B0E446E456A43C0E6FFE6
:100BF00044C0E6FF45C0E6FFFEEC36F0466E050E4B
:100C0000E15E465040D0080EDF5C1FE10601F7515F
:100C100000081BE20601F7070601F751EA6A000F18
:100C2000E96E030EEA22EF6A470E436E6B0E446EC6
:100C3000456A43C0E6FF44C0E6FF45C0E6FFFEEC60
:100C400036F0E552E552E5521ED00D0EDF5C1BE09A
:100C50000A0EDF5C18E0200EDF5C15E305015A6B1D
:100C600005015B6B05015C6B0501596B0601F751D2
:100C7000EA6A000FE96E030EEA22DFCFEFFF0501FB
:100C80005D6B0601F72B0601F751436E446A000EB7
:100C9000431802E1010E441805E126860601F76BB0
:100CA0000601F86B040EDB2ABFD6265001E182D084
:100CB00026A010D0410E436E6B0E446E456A43C0B1
:100CC000E6FF44C0E6FF45C0E6FFFEEC36F0E55225
:100CD000E552E55226A210D0220E436E6B0E446EF2
:100CE000456A43C0E6FF44C0E6FF45C0E6FFFEECB0
:100CF00036F0E552E552E55226A410D0060E436EBA
:100D00006B0E446E456A43C0E6FF44C0E6FF45C033
:100D1000E6FFFEEC36F0E552E552E55226A610D08D
:100D2000EA0E436E6A0E446E456A43C0E6FF44C055
:100D3000E6FF45C0E6FFFEEC36F0E552E552E5522F
:100D400026A810D0CB0E436E6A0E446E456A43C08F
:100D5000E6FF44C0E6FF45C0E6FFFEEC36F0E55294
:100D6000E552E55226AA00D026AC10D0AA0E436E5A
:100D70006A0E446E456A43C0E6FF44C0E6FF45C0C4
:100D8000E6FFFEEC36F0E552E552E552000E261481
:100D900010E0910E436E6A0E446E456A43C0E6FF52
:100DA00044C0E6FF45C0E6FFFEEC36F0E552E552F2
:100DB000E552266A45D8050EE15C02E2E16AE55299
:100DC000E16EE552E7CFD9FF1200D9CFE6FFE1CFC0
:100DD000D9FFE652F5C6DFFFDF2A400E436EDF5033
:100DE000435C01E1DF6A0601F651DF5C01E128D8CE
:100DF0000601F551EA6A000FE96E020EEA22FE0EC4
:100E0000DBCFEFFF0601F52B400E0601F55D02E199
:100E10000601F56B0601F6510601F55D01E1268438
:100E2000FE0EDBCF43F0446A43BE446843C0F3FF89
:100E300044C0F4FF00D0E552E552E7CFD9FF1200DD
:100E4000D9CFE6FFE1CFD9FFE6520601F551060101
:100E5000F65D43E00601905105E0E1EC31F0DDEC98
:100E600017F0F8D70601F6510601D880F5551AE2B9
:100E70000601F6510601F55DDF6EDFCFE6FF0601E4
:100E8000F651446A000F436E020E442243C0E6FF4F
:100E900044C0E6FF3FEC31F0E552E552E552F5C6BD
:100EA000F6F619D0400E0601D880F655DF6EDFCF7A
:100EB000E6FF0601F651446A000F436E020E44221B
:100EC00043C0E6FF44C0E6FF3FEC31F0E552E55297
:100ED000E5520601F66BE1EC31F0E552E552E7CF61
:100EE000D9FF1200D9CFE6FFE1CFD9FF040EE126EA
:100EF000DE6ADD6A020EDB6A030EDB6A0601F85168
:100F0000EA6A000FE96E030EEA22EF50E66EE66A27
:100F100039EC38F0E552E552020EF3CFDBFF060163
:100F2000F82B0601F851436E446A000E431802E1A3
:100F3000010E441802E10601F86B020EDB50DE6E72
:100F4000DD6A0601F851EA6A000FE96E030EEA2233
:100F5000EF502C083BE00601F851EA6A000FE96EF9
:100F6000030EEA22EF500D0831E00601F851EA6A5B
:100F7000000FE96E030EEA22EF50E66EE66A39ECE6
:100F800038F0E552E552030EF3CFDBFF0601F82BF4
:100F90000601F851436E446A000E431802E1010E47
:100FA000441802E10601F86B020EDBCF45F045C0A4
:100FB00046F0456A030EDB5000014524436E000EE7
:100FC0004620446E43C0DEFF44C0DDFF000EDBCF91
:100FD00037F0010EDBCF38F04D0E371802E1510E1D
:100FE000381801E1B6D14D0E371802E1520E38180B
:100FF00001E1ACD1320E371802E1530E381801E18D
:10100000A2D1450E371802E1530E381801E198D1EC
:10101000430E371802E1510E381801E18ED14B0E04
:10102000371802E1430E381801E184D14C0E37180D
:1010300002E1420E381801E17AD1440E371802E17C
:101040004E0E381801E170D1490E371802E14E0EEC
:10105000381801E166D1420E371802E1510E3818F6
:1010600001E15CD14C0E371802E1510E381801E154
:1010700052D14C0E371802E1530E381801E148D115
:101080004E0E371802E1510E381801E13ED14E0ED6
:10109000371802E1530E381801E134D1430E3718E6
:1010A00002E1530E381801E12AD14D0E371802E142
:1010B000450E381801E120D1500E371802E1510ECB
:1010C000381801E116D1500E371802E1540E3818C5
:1010D00001E10CD1500E371802E1530E381801E12E
:1010E00002D14D0E371802E1530E381801E1F8D045
:1010F000470E371802E1500E381801E1EED0430ECA
:10110000371802E1500E381801E1E4D0490E3718C3
:1011100002E1430E381801E1DAD0490E371802E136
:10112000520E381801E1D0D0490E371802E1530EA3
:10113000381801E1C6D0530E371802E1430E3818B3
:1011400001E1BCD0530E371802E1520E381801E10C
:10115000B2D0530E371802E1530E381801E1A8D06F
:10116000530E371802E1420E381801E19ED0430EAB
:10117000371802E1420E381801E194D0430E3718B7
:1011800002E1520E381801E18AD04F0E371802E101
:10119000420E381801E180D0570E371802E14D0E8B
:1011A000381801E177D0520E371802E14D0E381889
:1011B0006FE0440E371802E1500E381867E04F0E0A
:1011C000371802E1500E38185EE0490E371802E178
:1011D000500E381855E0580E371802E1540E3818E2
:1011E0004CE0540E371801E1385045E0410E3718F5
:1011F00001E138503EE0560E371801E1385037E033
:10120000490E371801E1385030E04F0E371801E130
:10121000385029E0550E371802E1430E381821E006
:10122000580E371802E1430E381818E0430E3718ED
:1012300001E1385011E0520E371801E138500AE050
:10124000580E371802E1520E381801E085D0D4EC60
:101250000FF0C1D0F7D8BFD08FD9BDD0D7EC0FF0E9
:10126000BAD0F4D8B8D047DAB6D0D7DAB4D0F6DAF4
:10127000B2D005DBB0D034D9AED0D1EC0FF0ABD0CA
:1012800018EC0EF0A8D0E1EC0EF0A5D0DEDBA3D078
:1012900097DBA1D055DB9FD093EC10F09CD0DAEC1B
:1012A0000FF099D090EC10F096D096EC10F093D00F
:1012B00099EC10F090D09CEC10F08DD09FEC10F0D9
:1012C0008AD0A2EC10F087D0A5EC10F084D0A8EC66
:1012D00010F081D0ABEC10F07ED03FEC11F07BD061
:1012E000CAEC24F078D0B9EC26F075D07BEC26F06F
:1012F00072D05EEC26F06FD085EC27F06CD0C1EC9C
:1013000023F069D029EC28F066D05AEC28F063D09D
:1013100076EC28F060D089EC28F05DD0A6EC28F0BF
:101320005AD007EC28F057D01AEC28F054D07DECB6
:1013300011F051D085EC11F04ED0C5EC28F04BD017
:1013400036EC29F048D046EC33F045D0C5EC29F016
:1013500042D0C6EC29F03FD0030EDB501AE1020E5A
:10136000DBCFE6FFE66A020EDBCFE6FFE66A6E0E33
:10137000436E6A0E446E456A43C0E6FF44C0E6FF12
:1013800045C0E6FFFEEC36F0466E070EE15E4650C5
:1013900021D0030EDBCFE6FFE66A020EDBCFE6FFCD
:1013A000E66A030EDBCFE6FFE66A020EDBCFE6FF5E
:1013B000E66A460E436E6A0E446E456A43C0E6FF17
:1013C00044C0E6FF45C0E6FFFEEC36F0466E0B0E6D
:1013D000E15E465000D00601F851EA6A000FE96E5E
:1013E000030EEA22EF500D080DE026500BE1520EDD
:1013F000436E446ADF50431803E1DE52DD50441867
:1014000001E0268EF7C6F8F6040EE15C02E2E16A1E
:10141000E552E16EE552E7CFD9FF12000601FD511A
:1014200010E0060E436E710E446E456A43C0E6FF3F
:1014300044C0E6FF45C0E6FFFEEC36F0E552E5525B
:10144000E5521200FFEC03F0E9DF1200D9CFE6FF0E
:10145000E1CFD9FF030EE126E66AD9CFE6FFDACF66
:10146000E6FF010EE66EC7EC12F0E552E552E552DA
:10147000E552E66AD950010FE66E000EDA20E66EFC
:10148000020EE66EC7EC12F0E552E552E552E55267
:10149000265001E01BD0DF0418E1D950010FE96E9E
:1014A000DACFEAFFEE50ED100BE0010E436E446A16
:1014B000010EDB50431803E1020EDB50441804E137
:1014C000010EDBCFFDF601D0268CA8DF030EE15C18
:1014D00002E2E16AE552E16EE552E7CFD9FF120080
:1014E000D9CFE6FFE1CFD9FF030EE126020EDB6A7A
:1014F000E66A190EE66E000EE66E030EE66EC7ECA7
:1015000012F0E552E552E552E552E66AD950020F73
:10151000E66E000EDA20E66E010EE66EC7EC12F003
:10152000E552E552E552E552265001E01BD0020E8D
:10153000DB500CE119501A1003E11B6A1C6A05D03C
:10154000768419C01BF01AC01CF00BD019501A1069
:1015500003E1206A216A05D0768419C020F01AC000
:1015600021F05CDF030EE15C02E2E16AE552E16E2C
:10157000E552E7CFD9FF1200D9CFE6FFE1CFD9FF7F
:101580000A0EE126E66AD9CFE6FFDACFE6FF010EC2
:10159000E66EC7EC12F0E552E552E552E552E66A16
:1015A000D950010FE66E000EDA20E66E010EE66EEF
:1015B000C7EC12F0E552E552E552E552E66AD95021
:1015C000020FE66E000EDA20E66E010EE66EC7EC44
:1015D00012F0E552E552E552E552E66AD950040FA1
:1015E000E66E000EDA20E66E010EE66EC7EC12F033
:1015F000E552E552E552E552E66AD950050FE66E2E
:10160000000EDA20E66E010EE66EC7EC12F0E5522F
:10161000E552E552E552E66AD950060FE66E000E35
:10162000DA20E66E010EE66EC7EC12F0E552E552E6
:10163000E552E552E66AD950070FE66E000EDA2051
:10164000E66E010EE66EC7EC12F0E552E552E55289
:10165000E552E66AD950080FE66E000EDA20E66E13
:10166000010EE66EC7EC12F0E552E552E552E55286
:10167000E66AD950090FE66E000EDA20E66E010E1A
:10168000E66EC7EC12F0E552E552E552E552E66A25
:10169000D950030FE66E000EDA20E66E010EE66EFC
:1016A000C7EC12F0E552E552E552E552265001E052
:1016B00018D0DF50926E010EDB50936E020EDB509D
:1016C000946E040EDB50956E050EDB50966E030E85
:1016D000DB500C0805E20C0EF36E030EF3CFDBFFBC
:1016E0009DDE0A0EE15C02E2E16AE552E16EE5523E
:1016F000E7CFD9FF1200D9CFE6FFE1CFD9FF020E25
:10170000E126E66AD9CFE6FFDACFE6FF010EE66E04
:10171000C7EC12F0E552E552E552E552E76E010ED4
:10172000E7CFDBFF265001E06ED0010EDB5002E177
:10173000DF50896E010EE66ED9CFE6FFDACFE6FF05
:10174000010EE66EC7EC12F0E552E552E552E552A5
:10175000E76E010EE7CFDBFF265001E054D0010E0B
:10176000DB5002E1DF508A6E010EE66ED9CFE6FF54
:10177000DACFE6FF010EE66EC7EC12F0E552E55255
:10178000E552E552E76E010EE7CFDBFF265001E0A0
:101790003AD0010EDB5002E1DF508B6E010EE66E97
:1017A000D9CFE6FFDACFE6FF010EE66EC7EC12F006
:1017B000E552E552E552E552E76E010EE7CFDBFF59
:1017C000265001E020D0010EDB5002E1DF508C6E8C
:1017D000010EE66ED9CFE6FFDACFE6FF010EE66E28
:1017E000C7EC12F0E552E552E552E552E76E010E04
:1017F000E7CFDBFF265001E006D0010EDB5002E10F
:10180000DF508D6E0BDE020EE15C02E2E16AE55212
:10181000E16EE552E7CFD9FF12008450E66EE66A2A
:101820008350E66EE66A8250E66EE66A8150E66EA6
:10183000E66A8050E66EE66A290E436E6A0E446ED2
:10184000456A43C0E6FF44C0E6FF45C0E6FFFEEC44
:1018500036F0466E0D0EE15E465012000E0E436EDF
:10186000710E446E456A43C0E6FF44C0E6FF45C0C2
:10187000E6FFFEEC36F0E552E552E5521200D9CF14
:10188000E6FFE1CFD9FFE652DF6A270E436E6A0E0C
:10189000446E456A43C0E6FF44C0E6FF45C0E6FF2C
:1018A000FEEC36F0E552E552E552DF6A2550DF5C8A
:1018B00032E2DFCF43F0446A43BE4468060E44027E
:1018C000F3CF44F0060E4302F3CF43F0F450442626
:1018D000000E4326010E44222350020D4350F324F0
:1018E000E96E4450F420EA6EEECFE6FFEFCFE6FF5C
:1018F000210E456E6A0E466E476A45C0E6FF46C039
:10190000E6FF47C0E6FFFEEC36F0486E050EE15EEE
:101910004850DF2ACBD70B0E436E710E446E456ADA
:1019200043C0E6FF44C0E6FF45C0E6FFFEEC36F0EC
:10193000E552E552E552E552E552E7CFD9FF1200F4
:10194000D9CFE6FFE1CFD9FF030EE126E66AD9CF72
:10195000E6FFDACFE6FF030EE66EC7EC12F0E552C3
:10196000E552E552E552E66AD950020FE66E000EE6
:10197000DA20E66E010EE66EC7EC12F0E552E55293
:10198000E552E552265001E011D0DECF43F0DDCF25
:1019900044F0000E435C100E445807E2DECFE9FF2E
:1019A000DDCFEAFF020EDBCFEFFF38DD030EE15C97
:1019B00002E2E16AE552E16EE552E7CFD9FF12009B
:1019C000D9CFE6FFE1CFD9FF030EE126E66AD9CFF2
:1019D000E6FFDACFE6FF030EE66EC7EC12F0E55243
:1019E000E552E552E552265001E025D0DECF43F026
:1019F000DDCF44F0000E435C100E445807E2DECF0A
:101A0000E9FFDDCFEAFF020EEFCFDBFF020EDBCFF7
:101A1000E6FFE66A170E436E6A0E446E456A43C0DF
:101A2000E6FF44C0E6FF45C0E6FFFEEC36F0466E3A
:101A3000050EE15E4650030EE15C02E2E16AE5520A
:101A4000E16EE552E7CFD9FF1200D9CFE6FFE1CF33
:101A5000D9FF030EE126E66AD9CFE6FFDACFE6FF2B
:101A6000050EE66EC7EC12F0E552E552E552E5527E
:101A7000E66AD950010FE66E000EDA20E66E010E1E
:101A8000E66EC7EC12F0E552E552E552E552E66A21
:101A9000D950020FE66E000EDA20E66E010EE66EF9
:101AA000C7EC12F0E552E552E552E552265001E04E
:101AB000B5D0020EDB50010802E2268CAFD0010E39
:101AC000DB50070802E2268CA9D0410E436EDF509E
:101AD000435C1CE1020EDB500DE1010EF36E010EC2
:101AE000DB5004E0D890F336E806FCE1F350E81C44
:101AF00092160BD0010EF36E010EDB5004E0D8906D
:101B0000F336E806FCE1F350921286D0420E436EA3
:101B1000DF50435C1CE1020EDB500DE1010EF36E61
:101B2000010EDB5004E0D890F336E806FCE1F350F8
:101B3000E81C93160BD0010EF36E010EDB5004E08F
:101B4000D890F336E806FCE1F350931265D0430ECB
:101B5000436EDF50435C1CE1020EDB500DE1010ED1
:101B6000F36E010EDB5004E0D890F336E806FCE19A
:101B7000F350E81C94160BD0010EF36E010EDB50EF
:101B800004E0D890F336E806FCE1F350941244D018
:101B9000440E436EDF50435C1CE1020EDB500DE14E
:101BA000010EF36E010EDB5004E0D890F336E80628
:101BB000FCE1F350E81C95160BD0010EF36E010EFC
:101BC000DB5004E0D890F336E806FCE1F3509512C0
:101BD00023D0450E436EDF50435C1CE1020EDB5008
:101BE0000DE1010EF36E010EDB5004E0D890F336E8
:101BF000E806FCE1F350E81C96160BD0010EF36EDC
:101C0000010EDB5004E0D890F336E806FCE1F35017
:101C1000961202D0268C02D00EEC0AF0030EE15C84
:101C200002E2E16AE552E16EE552E7CFD9FF120028
:101C3000D9CFE6FFE1CFD9FF030EE126020EDB6A22
:101C4000E66AD9CFE6FFDACFE6FF050EE66EC7EC0F
:101C500012F0E552E552E552E552E66AD950010F1D
:101C6000E66E000EDA20E66E010EE66EC7EC12F0AC
:101C7000E552E552E552E552265001E098D0010EBA
:101C8000DB50070802E2268C92D0410E436EDF50F3
:101C9000435C12E1010EDB28436E010E435204E067
:101CA000E846FE0B4306FCE1E8407F0B8014E76E3C
:101CB000020EE7CFDBFF5ED0420E436EDF50435C87
:101CC00012E1010EDB28436E010E435204E0E846A8
:101CD000FE0B4306FCE1E8407F0B8114E76E020E29
:101CE000E7CFDBFF47D0430E436EDF50435C12E18A
:101CF000010EDB28436E010E435204E0E846FE0B62
:101D00004306FCE1E8407F0B8214E76E020EE7CF4A
:101D1000DBFF30D0440E436EDF50435C12E1010E16
:101D2000DB28436E010E435204E0E846FE0B4306F7
:101D3000FCE1E8407F0B8314E76E020EE7CFDBFF88
:101D400019D0450E436EDF50435C12E1010EDB28D3
:101D5000436E010E435204E0E846FE0B4306FCE1ED
:101D6000E8407F0B8414E76E020EE7CFDBFF02D062
:101D7000268C1DD0020EDB5005E0010EF36E020E24
:101D8000F3CFDBFF020EDBCFE6FFE66A0E0E436EFB
:101D90006A0E446E456A43C0E6FF44C0E6FF45C094
:101DA000E6FFFEEC36F0466E050EE15E4650030E91
:101DB000E15C02E2E16AE552E16EE552E7CFD9FF6C
:101DC0001200D9CFE6FFE1CFD9FF030EE126E66A84
:101DD000D9CFE6FFDACFE6FF050EE66ED8DBE55297
:101DE000E552E552E552E66AD950010FE66E000E63
:101DF000DA20E66E010EE66ECADBE552E552E552E8
:101E0000E552E66AD950020FE66E000EDA20E66E61
:101E1000010EE66EBCDBE552E552E552E552265076
:101E200001E0B5D0020EDB50010802E2268CAFD0F3
:101E3000010EDB50070802E2268CA9D0410E436E4A
:101E4000DF50435C1CE1020EDB500DE1010EF36E2E
:101E5000010EDB5004E0D890F336E806FCE1F350C5
:101E6000E81C89160BD0010EF36E010EDB5004E066
:101E7000D890F336E806FCE1F350891286D0420E82
:101E8000436EDF50435C1CE1020EDB500DE1010E9E
:101E9000F36E010EDB5004E0D890F336E806FCE167
:101EA000F350E81C8A160BD0010EF36E010EDB50C6
:101EB00004E0D890F336E806FCE1F3508A1265D0CE
:101EC000430E436EDF50435C1CE1020EDB500DE11C
:101ED000010EF36E010EDB5004E0D890F336E806F5
:101EE000FCE1F350E81C8B160BD0010EF36E010ED3
:101EF000DB5004E0D890F336E806FCE1F3508B1297
:101F000044D0440E436EDF50435C1CE1020EDB50B4
:101F10000DE1010EF36E010EDB5004E0D890F336B4
:101F2000E806FCE1F350E81C8C160BD0010EF36EB2
:101F3000010EDB5004E0D890F336E806FCE1F350E4
:101F40008C1223D0450E436EDF50435C1CE1020E21
:101F5000DB500DE1010EF36E010EDB5004E0D89072
:101F6000F336E806FCE1F350E81C8D160BD0010EA9
:101F7000F36E010EDB5004E0D890F336E806FCE186
:101F8000F3508D1202D0268C02D00EEC0AF0030E14
:101F9000E15C02E2E16AE552E16EE552E7CFD9FF8A
:101FA00012000EEC0AF012000EEC0AF012000EEC19
:101FB0000AF01200D9CFE6FFE1CFD9FF040EE126E7
:101FC000E66AD9CFE6FFDACFE6FF050EE66EDFDA86
:101FD000E552E552E552E552E66AD950010FE66E48
:101FE000000EDA20E66E010EE66ED1DAE552E55219
:101FF000E552E552E66AD950020FE66E000EDA208D
:10200000E66E030EE66EC3DAE552E552E552E5529E
:10201000265001E07BD0D950020FE96EDACFEAFFFB
:10202000720ED880EE542E0EED5402E2268C6ED045
:10203000D950020FE96EDACFEAFFEE50ED101FE043
:1020400046684768486A2D0EE76E020EDBCF49F0FE
:10205000030EDBCF4AF0E7504926000E4A224B6AB6
:102060004950465C436E4A504758446E4B5048585E
:10207000456E020E43C0DBFF030E44C0DBFF010EC2
:10208000DB50070802E2268C41D0410E436EDF5040
:10209000435C02E1DF6A12D0420E436EDF50435CC4
:1020A00003E1080EDF6E0AD0430E436EDF50435C3F
:1020B00003E1100EDF6E02D0268C28D0010EDB501B
:1020C000DF24E96EEA6AD890E936EA36690EE92635
:1020D000010EEA22020EDBCFEEFF030EDBCFEDFF97
:1020E000010EDB50DF24EA6A510FE96E010EEA228D
:1020F000EF040AE1010EDB50DF24EA6A510FE96EBA
:10210000010EEA22020EEF6E0EEC0AF0040EE15C04
:1021100002E2E16AE552E16EE552E7CFD9FF120033
:102120000EEC0AF012000EEC0AF012000EEC0AF0AF
:1021300012000EEC0AF012000EEC0AF012000EEC87
:102140000AF012000EEC0AF012000EEC0AF0120077
:102150000EEC0AF01200D9CFE6FFE1CFD9FF070E4F
:10216000E126E66AD9CFE6FFDACFE6FF030EE66E98
:102170000EDAE552E552E552E552E66AD950020F11
:10218000E66E000EDA20E66E030EE66E00DAE55229
:10219000E552E552E552265001E067D0DECF01F569
:1021A000DDCF02F5020EDBCF09F5030EDBCF0AF51A
:1021B000040EDB6A030EF36E040EDBCFF4FFF35064
:1021C000F45C51E2010EE66ED9CFE6FFDACFE6FF0E
:1021D000030EE66EDCD9E552E552E552E552E76EB4
:1021E000050EE7CFDBFF010EE66ED950020FE66E5B
:1021F000000EDA20E66E030EE66EC9D9E552E5520E
:10220000E552E552E76E060EE7CFDBFF265001E010
:102210002CD0050EDB5003E1060EDB5001E023D08D
:10222000040EDB28E96EEA6AD890E936EA36010E38
:10223000E926050EEA22DECFEEFFDDCFEDFF040E2C
:10224000DB28E96EEA6AD890E936EA36090EE92613
:10225000050EEA22020EDBCFEEFF030EDBCFEDFF11
:10226000040EDB2AA7D70EEC0AF0070EE15C02E2AF
:10227000E16AE552E16EE552E7CFD9FF1200D9CF0E
:10228000E6FFE1CFD9FFE652E66AD9CFE6FFDACF23
:10229000E6FF010EE66E7BD9E552E552E552E552C6
:1022A000265001E00DD0DF5007E0F00E9314936E3E
:1022B0000501010E006F02D00501006B0EEC0AF063
:1022C000E552E552E7CFD9FF1200D9CFE6FFE1CFC3
:1022D000D9FFE652DF6AFF0EDF5C0AE2E868E850E9
:1022E00005E0E80600D000D000D0F9D7DF2AF3D708
:1022F000E552E552E7CFD9FF1200F29EF29C6592BB
:10230000656AE3DF0FEF00F01200D9CFE6FFE1CFFF
:10231000D9FF100EE126E66AD950010FE66E000ED5
:10232000DA20E66EE66A33D9E552E552E552E55227
:10233000E66AD9CFE6FFDACFE6FF010EE66E27D9CF
:10234000E552E552E552E552E66AD950040FE66ED1
:10235000000EDA20E66E020EE66E19D9E552E5525D
:10236000E552E552E66AD950020FE66E000EDA2019
:10237000E66E030EE66E0BD9E552E552E552E552E4
:10238000E66AD9500A0FE66E000EDA20E66E060EF7
:10239000E66EFDD8E552E552E552E552E66AD950BF
:1023A000060FE66E000EDA20E66E070EE66EEFD838
:1023B000E552E552E552E552E66AD9500E0FE66E57
:1023C000000EDA20E66E040EE66EE1D8E552E55224
:1023D000E552E552E66AD9500F0FE66E000EDA209C
:1023E000E66E050EE66ED3D8E552E552E552E552AB
:1023F000010EDBCF43F0446A43BE446843C0E6FFAE
:1024000044C0E6FF020E456E6A0E466E476A45C03E
:10241000E6FF46C0E6FF47C0E6FFFEEC36F0486E3A
:10242000050EE15E4850DFCFE6FFE66AF60E436E2A
:10243000690E446E456A43C0E6FF44C0E6FF45C0EE
:10244000E6FFFEEC36F0466E050EE15E4650040EE9
:10245000DBCFE6FF050EDBCFE6FFEA0E436E690E2B
:10246000446E456A43C0E6FF44C0E6FF45C0E6FF50
:10247000FEEC36F0466E050EE15E4650020EDBCFF6
:10248000E6FF030EDBCFE6FFDE0E436E690E446E01
:10249000456A43C0E6FF44C0E6FF45C0E6FFFEECE8
:1024A00036F0466E050EE15E4650D9500A0FE96ED1
:1024B000DACFEAFFEECFE6FFEECFE6FFEECFE6FFA4
:1024C000EFCFE6FFD10E436E690E446E456A43C0FE
:1024D000E6FF44C0E6FF45C0E6FFFEEC36F0466E80
:1024E000070EE15E4650D950060FE96EDACFEAFFDB
:1024F000EECFE6FFEECFE6FFEECFE6FFEFCFE6FF53
:10250000C40E436E690E446E456A43C0E6FF44C084
:10251000E6FF45C0E6FFFEEC36F0466E070EE15ED4
:1025200046500E0EDBCFE6FFE66AB80E436E690E2C
:10253000446E456A43C0E6FF44C0E6FF45C0E6FF7F
:10254000FEEC36F0466E050EE15E46500F0EDBCF18
:10255000E6FFE66AAC0E436E690E446E456A43C000
:10256000E6FF44C0E6FF45C0E6FFFEEC36F0466EEF
:10257000050EE15E46500EEC0AF0100EE15C02E240
:10258000E16AE552E16EE552E7CFD9FF1200D9CFFB
:10259000E6FFE1CFD9FF090EE126080EDB6A0D0E3A
:1025A000436E0601F851EA6A000FE96E030EEA2253
:1025B000EF50435C06E1FB0EDB5001E12688030E81
:1025C00037D20601F851EA6A000FE96E030EEA22DB
:1025D000EF502C0821E0FB0EDB501CE10601F85106
:1025E000EA6A000FE96E030EEA22EF50E66EE66A31
:1025F000850E436E690E446E456A43C0E6FF44C0D3
:10260000E6FF45C0E6FFFEEC36F0466E050EE15EE5
:102610004650268A020E0CD20601F82B0601F8510C
:10262000436E446A000E431802E1010E441802E1B1
:102630000601F86B0D0E436E0601F851EA6A000FB1
:10264000E96E030EEA22EF50435C06E1FB0EDB501D
:1026500001E12688030EECD12D0E436E0601F851E0
:10266000EA6A000FE96E030EEA22EF50435C32E1A2
:10267000040E446EFE0EDB50445C2CE0050E456EED
:10268000FE0EDB50455C26E0FE0EDB040CE0030E84
:10269000436EFE0EDB50435C06E0070E446EFE0EFA
:1026A000DB50445C04E1268C010EC2D113D0010E34
:1026B000F36E080EF3CFDBFF0601F82B0601F8518D
:1026C000436E446A000E431802E1010E441802E111
:1026D0000601F86B040E436EFE0EDB50435C11E006
:1026E000050E446EFE0EDB50445C0BE00A0EE66EF7
:1026F000D9CFE6FFDACFE6FFA7D9E552E552E5529A
:1027000045D00601F851EA6A000FE96E030EEA228D
:10271000EFCF43F0000E43C0DBFF010EDB6A020E79
:10272000DB6A030EDB6A050E436EFE0EDB50435C74
:102730001FE1000EDBCFE6FF010EDBCFE6FF39EC39
:1027400038F0E552E552F3CF43F0F4CF44F0456A58
:10275000466A44AE02D04568466843C0DFFF010EBA
:1027600044C0DBFF020E45C0DBFF030E46C0DBFFAB
:102770000601F82B0601F851436E446A000E431817
:1027800002E1010E441802E10601F86B080EDB506D
:102790006EE0FE0EDB500EE1D9CFE9FFDACFEAFFA3
:1027A000D880800EEE54000EEE54000EEE54000E53
:1027B000EE5428E3020E436EFE0EDB50435C0EE146
:1027C000D9CFE9FFDACFEAFFD880000EEE54800EB1
:1027D000EE54000EEE54000EEE5414E3060E446E5A
:1027E000FE0EDB50445C11E1D9CFE9FFDACFEAFFFE
:1027F000D880000EEE54000EEE54000EEE54800E03
:10280000EE5403E2268C010E13D1D9CFE9FFDACFC3
:10281000EAFF040EEECFDBFF050EEECFDBFF060E68
:10282000EECFDBFF070EEECFDBFF080EDB501EE026
:10283000040EDBCF35F0050EDBCF36F0060EDBCF16
:1028400037F0070EDBCF38F03A683B683C683D68EC
:10285000D4EC37F0040E31C0DBFF050E32C0DBFFD5
:10286000060E33C0DBFF070E34C0DBFF77D0FE0E51
:10287000DB500EE1D9CFE9FFDACFEAFFD8807F0E37
:10288000EE54000EEE54000EEE54000EEE544DE3E6
:10289000FE0EDB040EE1D9CFE9FFDACFEAFFD880E4
:1028A000FF0EEE54000EEE54000EEE54000EEE54E9
:1028B0003CE3020E436EFE0EDB50435C0EE1D9CFCB
:1028C000E9FFDACFEAFFD880FF0EEE547F0EEE5418
:1028D000000EEE54000EEE5428E3030E446EFE0E7E
:1028E000DB50445C0EE1D9CFE9FFDACFEAFFD880B4
:1028F000FF0EEE54FF0EEE54000EEE54000EEE549A
:1029000014E3060E456EFE0EDB50455C11E1D9CF97
:10291000E9FFDACFEAFFD880FF0EEE54FF0EEE5447
:10292000FF0EEE547F0EEE5403E2268C010E80D093
:10293000070E436EFE0EDB50435C10E0D9CFE9FF7B
:10294000DACFEAFF040EEECFDBFF050EEECFDBFFA2
:10295000060EEECFDBFF070EEECFDBFFFE0EDB50E9
:10296000070A50E0010A3BE0050A2CE0010A1DE0DD
:10297000030A11E0050A0FE0010A0DE0050A01E073
:1029800053D0FC0EDBCFE9FFFD0EDBCFEAFF040ED8
:10299000DBCFEFFF4BD0FC0EDBCFE9FFFD0EDBCF33
:1029A000EAFF040EDBCFEFFF41D0FC0EDBCFE9FFE7
:1029B000FD0EDBCFEAFF040EDBCFEEFF050EDBCF13
:1029C000EDFF34D0FC0EDBCFE9FFFD0EDBCFEAFFDD
:1029D000040EDBCFEEFF050EDBCFEDFF27D0FC0EA4
:1029E000DBCFE9FFFD0EDBCFEAFF040EDBCFEEFF0E
:1029F000050EDBCFEEFF060EDBCFEEFF070EDBCFC3
:102A0000EEFF14D0FC0EDBCFE9FFFD0EDBCFEAFFBB
:102A1000DFCFEEFF010EDBCFEEFF020EDBCFEEFFCE
:102A2000030EDBCFEEFF02D0040E02D0000E00D06A
:102A3000436E090EE15C02E2E16AE552E16E435049
:102A4000E552E7CFD9FF1200D9CFE6FFE1CFD9FF9A
:102A5000020EE126FD0EDBCFE9FFFE0EDBCFEAFF23
:102A6000EE6AEE6AEE6AEE6A010EDB6AFC0EDB507D
:102A7000F36E010EDBCFF4FFF350F45C64E2060169
:102A8000F851EA6A000FE96E030EEA22EFCFDFFF8A
:102A9000300EDF5C53E3DF50390850E3FD0EDBCF2F
:102AA000E9FFFE0EDBCFEAFFEECF43F0EECF44F0BE
:102AB000EECF45F0EFCF46F00A0E3A6E3B6A3C6A25
:102AC0003D6A43C035F044C036F045C037F046C0DB
:102AD00038F0D4EC37F031C043F032C044F033C0AA
:102AE00045F034C046F0300EDF5C476E486A496AF4
:102AF0004A6A4750432648504422495045224A508A
:102B00004622FD0EDBCFE9FFFE0EDBCFEAFF43C01E
:102B1000EEFF44C0EEFF45C0EEFF46C0EEFF0601EB
:102B2000F82B0601F851436E446A000E431802E187
:102B3000010E441802E10601F86B02D0000E05D028
:102B4000010EDB2A93D7010E00D0436E020EE15C2A
:102B500002E2E16AE552E16E4350E552E7CFD9FF68
:102B600012001F50E66EE66A790E436E690E446EDF
:102B7000456A43C0E6FF44C0E6FF45C0E6FFFEEC01
:102B800036F0466E050EE15E465012000601A85171
:102B900008E0010E436E6550020B01E0010E435C3C
:102BA00022E105016107000E625B050163510EE140
:102BB00005016151621109E18C860501A00E616F6A
:102BC0000F0E626F0501010E636F0CD0050161519C
:102BD000621108E18C960501A00E616F0F0E626F05
:102BE0000501636B79D00601A8050CE0020E060111
:102BF000A85D08E0040E0601A85D04E0100E0601C1
:102C0000A85D22E105016107000E625B05016351C9
:102C10000EE105016151621109E18C860501200E6A
:102C2000616F4E0E626F0501010E636F0CD00501DE
:102C30006151621108E18C960501200E616F4E0E04
:102C4000626F0501636B48D0200E0601A85D44E168
:102C500005016107000E625B050163510EE105018C
:102C60006151621109E18C860501100E616F270E1A
:102C7000626F0501010E636F2FD0050163050EE140
:102C800005016151621109E18C960501100E616F19
:102C9000270E626F0501020E636F1ED0020E050142
:102CA000635D0EE105016151621109E18C86050148
:102CB000A00E616F860E626F0501030E636F0CD06C
:102CC00005016151621108E18C960501100E616FDA
:102CD000270E626F0501636B1200D9CFE6FFE1CFCB
:102CE000D9FFFE0EDBCF43F0190EE76E4318E8AEB6
:102CF00002D0433403D0E750D880435401E253D08C
:102D0000FD0EDB5028E0FE0EDBCFE9FFEA6AE9BEEC
:102D1000EA68C80EE926050EEA22EF50446E010E5D
:102D2000445204E0E846FE0B4406FCE1436EFE0E0E
:102D3000DBCFE9FFEA6AE9BEEA68D890E936EA360D
:102D4000960EE926050EEA22EE50EFCFEAFFE96E75
:102D50004350EF1228D0FE0EDBCFE9FFEA6AE9BE4E
:102D6000EA68C80EE926050EEA22EF50446E010E0D
:102D7000445204E0E846FE0B4406FCE1E81C436EC6
:102D8000FE0EDBCFE9FFEA6AE9BEEA68D890E936D1
:102D9000EA36960EE926050EEA22EE50EFCFEAFF5C
:102DA000E96E4350EF16E552E7CFD9FF1200D9CFB5
:102DB000E6FFE1CFD9FFFE0EDBCF43F0190EE76E41
:102DC0004318E8AE02D0433403D0E750D8804354D0
:102DD00001E253D0FD0EDB5029E1FE0EDBCFE9FF0F
:102DE000EA6AE9BEEA68C80EE926050EEA22EF5053
:102DF000446E010E445204E0E846FE0B4406FCE13A
:102E0000E81C436EFE0EDBCFE9FFEA6AE9BEEA6822
:102E1000D890E936EA36640EE926050EEA22EE502D
:102E2000EFCFEAFFE96E4350EF1627D0FE0EDBCF5F
:102E3000E9FFEA6AE9BEEA68C80EE926050EEA2259
:102E4000EF50446E010E445204E0E846FE0B440687
:102E5000FCE1436EFE0EDBCFE9FFEA6AE9BEEA68F9
:102E6000D890E936EA36640EE926050EEA22EE50DD
:102E7000EFCFEAFFE96E4350EF12E552E7CFD9FFFB
:022E800012003E
:0E2E8200D9CFE6FFE1CFD9FFE652A098636AF0
:102E9000626A0F01266B020EE66EE66AE66A270E8C
:102EA000E66E0F0EE66EB1EC36F0436E050EE15E97
:102EB00043500F01160E396F0F019F0E376F0F0130
:102EC0007B0E366FDF6ADF50436E446A0C0E435C44
:102ED000000E445810E2DF50040DF3CFE9FFF4CFA9
:102EE000EAFF000EE926040EEA22EE6AEE6AEE6AB6
:102EF000EE6ADF2AE8D7658C0F01386B6598659C10
:102F000062A609D062960601BF6B0601C46B06017A
:102F1000C56BC66BF5D70601010ED86F0601010E11
:102F2000D96F0601DA6B0601DB6B0601CC6BDF6A39
:102F3000030EDF5C26E2EA6ADF34FE0BEA36E96E56
:102F4000B50EE926060EEA22EE6AED6AEA6ADF3479
:102F5000FE0BEA36E96EAF0EE926060EEA22EE6AAD
:102F6000ED6ADF50EA6AD00FE96E060EEA22EF6AD8
:102F7000DF50EA6AD30FE96E060EEA22EF6ADF2A13
:102F8000D7D70601080EB56F040EB66F0F01160EE7
:102F9000266F0401300E026F040E036F0401400E11
:102FA000016F0401840E006F0601A96B0601A86B76
:102FB000E552E552E7CFD9FF1200D9CFE6FFE1CFC6
:102FC000D9FFE65282BE07D0656A0F01366B060153
:102FD000A86BA198DCD00601A85113E1656A0F0126
:102FE000366B0F01160E396F0F019F0E376F0F01F1
:102FF0007B0E366F65B602D06586FCD70601010EE2
:10300000A86F0601A8050CE165BA0AD0626A0F0133
:10301000366B0F0136810F0136890601020EA86F4B
:103020006250040B08E00F010F013651040B03E05E
:10303000629448EC1EF065A202D0A198A8D062501C
:10304000010B0AE00F010F013651010B05E019DFFA
:103050000601040EA86F62906250100B08E00F0189
:103060000F013651100B03E031EC1EF0629862AC98
:103070001CD00F0136AD0FD0010EE66EE66A000ED1
:10308000E66EE66A730EE66EE66A12EC36F0436EA2
:10309000060EE15E4350629C0601D65102E0060135
:1030A000D6070601D65101E1F9D96250200B07E09D
:1030B0000F010F013651200B02E016EC1EF062509A
:1030C000020B15E00F010F013651020B10E0010E4B
:1030D000E66EE66A000EE66EE66AE6687F0EE66E6B
:1030E00012EC36F0436E060EE15E4350636A040E46
:1030F0000601E76EA819E8AE02D0E73402D0E75027
:10310000A85D02E2A19843D00F0136A73FD0DF6A45
:10311000040EDF5C3BE262A636D064CFCDF606013A
:10312000CD51780BE842E842E8420601CE6F629644
:103130000601CDB509D00601CE51EA6AD30FE96E7A
:10314000060EEA22EF7008D00601CE51EA6AD00FCF
:10315000E96E060EEA22EF700601CE5103E161EC42
:103160001EF010D0000EE66EE66ACD0EE66E060E7C
:10317000E66E720EE66EE66A12EC36F0436E060EEE
:10318000E15E435001D002D0DF2AC2D7A198E552B8
:10319000E552E7CFD9FF1200D9CFE6FFE1CFD9FF43
:1031A000020EE126FD0EDBA407D0E66AFE0EDBCFA1
:1031B000E6FF0FDAE552E552FD0EDBA208D0010E64
:1031C000E66EFE0EDBCFE6FF04DAE552E552FE0EB8
:1031D000DB50446A260F436E0F0E442243C0DEFFCD
:1031E00044C0DDFFDECFE9FFDDCFEAFFFD0EDBCF20
:1031F000EFFF020EE15C02E2E16AE552E16EE552A8
:10320000E7CFD9FF1200D9CFE6FFE1CFD9FF020EF9
:10321000E126FD0EDB500FE0FE0EEA6ADB34FE0B0A
:10322000EA36E96EB50EE926060EEA22EECFDEFF9B
:10323000EDCFDDFF0ED0FE0EEA6ADB34FE0BEA3680
:10324000E96EAF0EE926060EEA22EECFDEFFEDCFE5
:10325000DDFFD9CFE9FFDACFEAFFEE50ED1003E151
:10326000F36AF46A49D0DECFE9FFDDCFEAFF020E50
:10327000E926000EEA22FB0EDBCFEEFFFC0EDBCFD1
:10328000EDFFDECFE9FFDDCFEAFFEE52FA0EDBCF36
:10329000EFFF400E436EDECFE9FFDDCFEAFF435084
:1032A000EF16880E436EDECFE9FFDDCFEAFF435015
:1032B000EF12FD0EDB500CE0FE0EEA6ADB34FE0B73
:1032C000EA36E96EB50EE926060EEA22EF740BD057
:1032D000FE0EEA6ADB34FE0BEA36E96EAF0EE92633
:1032E000060EEA22EF74DECF43F0DDCF44F043C098
:1032F000F3FF44C0F4FF00D0020EE15C02E2E16A99
:10330000E552E16EE552E7CFD9FF1200D9CFE6FFD3
:10331000E1CFD9FF020EE126FE0EDB5020E1ADC663
:10332000E9FFAEC6EAFFEE52400EEF6EADC6E9FF12
:10333000AEC6EAFF020EE926000EEA22300EEE6E5D
:10334000040EED6EADC6E9FFAEC6EAFF8C0EEF6E61
:10335000B5C6E9FFB6C6EAFF840EEF6E3DD0FD0E9E
:10336000DB50E824456EFE0EDB50040DF35045247F
:10337000040DF3CF43F0F4CF44F0000E4326040EC7
:10338000442243C0DEFF44C0DDFF840E436EDECF27
:10339000E9FFDDCFEAFF4350EF12FD0EDB50E824DA
:1033A000456EFE0EDB50040DF3504524010F040D55
:1033B000F3CF43F0F4CF44F0000E4326040E442232
:1033C00043C0DEFF44C0DDFF840E436EDECFE9FF65
:1033D000DDCFEAFF4350EF12020EE15C02E2E16A48
:1033E000E552E16EE552E7CFD9FF1200D9CFE6FFF3
:1033F000E1CFD9FF65A84ED0FE0EEA6ADB34FE0BA2
:10340000EA36E96EB50EE926060EEA22EE50EFCF57
:10341000EAFFE96E400EEE16EE6AEE6AEE6AFE0E06
:10342000EA6ADB34FE0BEA36E96EB50EE926060ED3
:10343000EA22EE50EFCFEAFFE96EEE7CFE0EEA6A7A
:10344000DB34FE0BEA36E96EB50EE926060EEA22FB
:10345000EF74400E436EFE0EEA6ADB34FE0BEA3672
:10346000E96EB50EE926060EEA22EE50EFCFEAFF2E
:10347000E96E4350EF16FE0EEA6ADB34FE0BEA36C5
:10348000E96EB50EE926060EEA22EE50EFCFEAFF0E
:10349000E96EEF7CE552E7CFD9FF12000601D85163
:1034A00054E10601010ED86F0601D9514EE1060123
:1034B000010ED96F020E0601BC5D0DE1B5C6E9FF34
:1034C000B6C6EAFFEE52EF6AB5C6E9FFB6C6EAFF36
:1034D000C80EEF6E3AD00601BC0537E10601CF6B8E
:1034E000ABC6E9FFACC6EAFFEE52400EEF6EABC6CC
:1034F000E9FFACC6EAFF020EE926000EEA22300E12
:10350000EE6E040EED6EABC6E9FFACC6EAFF840EAC
:10351000EF6E0601010ECF6FADC6E9FFAEC6EAFF42
:10352000EE52400EEF6EADC6E9FFAEC6EAFF020EE8
:10353000E926000EEA22300EEE6E040EED6EADC6E8
:10354000E9FFAEC6EAFF800EEF6E12000601DA6BED
:103550000601DB6B020E0601BC5D1AE1ADC6E9FF98
:10356000AEC6EAFFEE52400EEF6EADC6E9FFAEC644
:10357000EAFF020EE926000EEA22380EEE6E040E75
:10358000ED6EADC6E9FFAEC6EAFFC80EEF6E20D005
:103590000601C0510401365D0601C15104013759CD
:1035A00004E236C4C0F637C4C1F6DBD8B5C6E9FFBD
:1035B000B6C6EAFF020EE926000EEA22380EEE6ECB
:1035C000040EED6EB5C6E9FFB6C6EAFFC80EEF6E93
:1035D0001200D9CFE6FFE1CFD9FF020EE126000E9F
:1035E000DE6E040EDD6EFD0EDB50E824456EFE0E31
:1035F000DB50040DF3504524040DF3CF43F0F4CF1A
:1036000044F0D9CFE9FFDACFEAFF4350EE26445029
:10361000ED22DECFE9FFDDCFEAFFEF9EFD0EDB50AE
:103620000FE1FE0EEA6ADB34FE0BEA36E96EAF0EFE
:10363000E926060EEA22DECFEEFFDDCFEDFF0ED04B
:10364000FE0EEA6ADB34FE0BEA36E96EB50EE926B9
:10365000060EEA22DECFEEFFDDCFEDFFDECFE9FF83
:10366000DDCFEAFFEF9CDECFE9FFDDCFEAFF040EFE
:10367000E926000EEA22EF8C020EE15C02E2E16A2A
:10368000E552E16EE552E7CFD9FF120065980601D9
:10369000BFBF2FD00601C4AF0CD00601020EBC6F15
:1036A0000601DB5101E152DF0601D96B0601D86B3F
:1036B0001FD0ADC6E9FFAEC6EAFFEE52400EEF6E78
:1036C000ADC6E9FFAEC6EAFF020EE926000EEA2209
:1036D000300EEE6E040EED6EADC6E9FFAEC6EAFF2B
:1036E0008C0EEF6EB5C6E9FFB6C6EAFF840EEF6E2C
:1036F00037D0040130AF10D00601010EBC6F0601B7
:10370000DA5101E123DF0601D96B0601D86B06010E
:10371000D75101E1C3DE24D00601020EBC6FADC655
:10372000E9FFAEC6EAFFEE52400EEF6EADC6E9FF0E
:10373000AEC6EAFF020EE926000EEA22300EEE6E59
:10374000040EED6EADC6E9FFAEC6EAFF840EEF6E65
:103750000601D96B0601D86B0601D75101E19EDE47
:103760001200D9CFE6FFE1CFD9FFE652400EDF6E5F
:103770000601400EC05D000EC1590FE2C0C6DFFF5A
:103780000601BB5104E10601010EBB6F06D0060124
:10379000BB0503E10601020EBB6FDF50436E446AB6
:1037A00043500601C05D0601C06F44500601C15977
:1037B0000601C16FB5C6E9FFB6C6EAFFEE52DFCF1C
:1037C000EFFF0601380EC96F040ECA6F0601BFB1C4
:1037D0001BD0DF5018E00601BDC6F6FFBEC6F7FFDE
:1037E000BD2B000EBE230800F550E66E0601C9C6CB
:1037F000E9FFCAC6EAFFC92B000ECA23E552E7500B
:10380000EF6EDF06E6D719D0DF5017E00601BDC620
:10381000E9FFBEC6EAFFBD2B000EBE23EF50E66EE9
:103820000601C9C6E9FFCAC6EAFFC92B000ECA23B2
:10383000E552E750EF6EDF06E7D7E552E552E7CFF6
:10384000D9FF1200D9CFE6FFE1CFD9FF020EE12662
:10385000ABC6E9FFACC6EAFFEE52EFCFDFFFDFCF2A
:1038600043F043500601C55D000EC65902E2C5C6CD
:10387000DFFFDF50436E446A43500601C55D060119
:10388000C56F44500601C6590601C66F010EDB6ABA
:10389000DF50F36E010EDBCFF4FFF350F45C17E260
:1038A000010EDB50EA6A380FE96E040EEA22EF508F
:1038B000E66E0601C2C6E9FFC3C6EAFFC22B000ED0
:1038C000C323E552E750EF6E010EDB2AE1D7060174
:1038D000000ED880C555000EC65528E2ADC6E9FFDA
:1038E000AEC6EAFFEE52400EEF6EADC6E9FFAEC6C1
:1038F000EAFF020EE926000EEA22380EEE6E040EF2
:10390000ED6EABC6E9FFACC6EAFFEF50400B07E136
:10391000ADC6E9FFAEC6EAFFC80EEF6E06D0ADC673
:10392000E9FFAEC6EAFF880EEF6E2AD0ADC6E9FF0A
:10393000AEC6EAFFEE52400EEF6EADC6E9FFAEC670
:10394000EAFF020EE926000EEA22300EEE6E040EA9
:10395000ED6EADC6E9FFAEC6EAFF840EEF6E06015E
:10396000C751C81107E005D0C8C6FAFF0601C75104
:10397000F96EFADF0601C49F0601D75101E18EDD21
:10398000020EE15C02E2E16AE552E16EE552E7CF48
:10399000D9FF1200D9CFE6FFE1CFD9FFE6520601E9
:1039A000BF8F020EE66EE66AE66A270EE66E0F0E1F
:1039B000E66EB1EC36F0436E050EE15E4350300E1C
:1039C000E66EE66AE66A000EE66E040EE66EB1EC9E
:1039D00036F0436E050EE15E4350658CDF6A030EE0
:1039E000DF5C10E2DF50EA6AD00FE96E060EEA22D1
:1039F000EF6ADF50EA6AD30FE96E060EEA22EF6A39
:103A0000DF2AEDD7010EE66EE66AE66AAA0EE66EDA
:103A1000060EE66EB1EC36F0436E050EE15E4350E5
:103A2000659C0601080EB56F040EB66F0601000E08
:103A3000AB6F040EAC6FABC6ADF6ACC6AEF632C41F
:103A4000A9F60601A95104E10601100EA86F13D0D2
:103A5000010EE66EE66AA90EE66E060EE66E010E31
:103A6000E66EE66A12EC36F0436E060EE15E4350F7
:103A70000601200EA86FE552E552E7CFD9FF1200EC
:103A8000800E0401305D61E10601C00EBF6F0401CC
:103A90003351030A35E0010A0DE0030A01E052D078
:103AA0000601940EBD6F6E0EBE6F120E0601C06F42
:103AB000C16B4BD004013251F66EF76AD890F636DE
:103AC000F7361B0EF6266F0EF7220900F5CFBDF66E
:103AD0000A00F5CFBEF6020E0601F76ABD25F66EA6
:103AE000BE51F7220800F5CFC0F6030E0601F76AB3
:103AF000BD25F66EBE51F7220800F5CFC1F625D0E0
:103B0000030E0401325D1BE204013251F66EF76AC6
:103B1000D890F636F7361D0EF6266F0EF7220900FE
:103B2000F5CFBDF60A00F5CFBEF6BDC6F6FFBEC6A0
:103B3000F7FF0800F5500601C06FC16B02D0060107
:103B4000BF6B03D00601BF6B00D01200D9CFE6FFD8
:103B5000E1CFD9FF020EE1260401386B0401396B75
:103B6000040130511F0B020A12E0030A0DE0010AA2
:103B700001E045D00601BF8F040138810601CB0565
:103B800002E1040138833BD00601BF8F38D0060123
:103B9000BF8F040134BF11D0040134510F0BE96E03
:103BA000EA6AD890E936EA36AF0EE926060EEA222E
:103BB000EECFDEFFEDCFDDFF10D0040134510F0B4F
:103BC000E96EEA6AD890E936EA36B50EE926060EBD
:103BD000EA22EECFDEFFEDCFDDFFDECFE9FFDDCF66
:103BE000EAFFEF50800B0AE0DECFE9FFDDCFEAFF0E
:103BF000EF50040B03E00401010E386F00D0060102
:103C0000BFAF0AD00601380EBD6F040EBE6F0601AD
:103C1000BF810601020EC06F020EE15C02E2E16AA2
:103C2000E552E16EE552E7CFD9FF12000F0126A160
:103C300016D0ABC6E9FFACC6EAFFEF5080080DE135
:103C4000B5C6E9FFB6C6EAFFEF50840806E1ABC689
:103C5000E9FFACC6EAFF8C0EEF6E0F012691629A67
:103C600012000F013685629865820601010ECC6F45
:103C7000000EE66EE66A000EE66EE66A750EE66E09
:103C8000E66A12EC36F0436E060EE15E4350120017
:103C90000601CC6B000EE66EE66A000EE66EE66A82
:103CA000740EE66EE66A12EC36F0436E060EE15EC6
:103CB000435065920F01369562A402D06294FCD7FE
:103CC0001200D9CFE6FFE1CFD9FFE65206012D0E53
:103CD000D66FFD0E0601CD1558E17E0E0601CD15FD
:103CE000E8407F0B040DF3CFABF6F4CFACF6000E3B
:103CF0000601AB27040E0601AC23ABC6ADF6ACC67D
:103D0000AEF60601AD75ABC6E9FFACC6EAFFEF50F3
:103D10003C0BE842E8420D0836E1DF6A080EDF5C42
:103D200024E2ABC6E9FFACC6EAFF020EE926000EAC
:103D3000EA22EE50EFCFEAFFE96EEF50E66EDF5079
:103D4000EA6A300FE96E040EEA22E552E750EF6EA0
:103D5000ABC6E9FFACC6EAFF020EE926000EEA2276
:103D6000EE2A000EEF22DF2AD9D7ABC6E9FFACC698
:103D7000EAFF020EE926000EEA22300EEE6E040E75
:103D8000ED6E0ED801D047D806D0FD0E0601CD1538
:103D9000040801E168D8E552E552E7CFD9FF1200E7
:103DA0000601BB6B0601D76B0601DA6B0601DB6B04
:103DB0000601CF6B0601BC6BB5C6E9FFB6C6EAFFCC
:103DC000EF9E0601B575B5C6E9FFB6C6EAFFEF9EE0
:103DD0000601B575ADC6E9FFAEC6EAFFEF9E060166
:103DE000BF6B0601C06BC16B0601C46B0601C56BDE
:103DF000C66B9BD8000EE66EE66A000EE66EE66ABB
:103E0000030EE66EE66A12EC36F0436E060EE15ED5
:103E100043503CDC1200020E0601BC5D02E112DDE3
:103E200021D00601BC6B0601CF511AE1ADC6E9FFF6
:103E3000AEC6EAFFEE52400EEF6EADC6E9FFAEC66B
:103E4000EAFF020EE926000EEA22300EEE6E040EA4
:103E5000ED6EADC6E9FFAEC6EAFF8C0EEF6E02D086
:103E60000601CF6B1200D9CFE6FFE1CFD9FFE652B2
:103E7000B5C6E9FFB6C6EAFFEF50400B01E0010E00
:103E8000DF6E0601B575080E0601A85D0CE132C4AF
:103E900038FF0F01385104E00601100EA86F03D05F
:103EA0000601040EA86F0601BC0528E1B5C6E9FFAE
:103EB000B6C6EAFF020EE926000EEA22380EEE6EC2
:103EC000040EED6E4EDC020E0601BB5D07E1B5C6C9
:103ED000E9FFB6C6EAFF840EEF6E0FD0DF5007E1B0
:103EE000B5C6E9FFB6C6EAFFC80EEF6E06D0B5C686
:103EF000E9FFB6C6EAFF880EEF6E12D00601C4AF26
:103F00000DD00601C751C81107E005D0C8C6FAFF99
:103F10000601C751F96EFADF0601C49F0601BC6BAA
:103F2000E552E552E7CFD9FF120004013051600B92
:103F3000E842E842E842E842E842000901E064D091
:103F4000040131510C0A5FE00B0A4DE00C0A3FE01E
:103F5000010A2AE00B0A26E0020A24E0030A20E014
:103F6000080A11E0010A0DE00F0A09E0030A01E066
:103F70004AD00601BF8F0601080EA86F45D080DD2C
:103F800043D008DD41D00601A90EBD6F060EBE6FFD
:103F90000601BF810601010EC06F0601BF8F34D03C
:103FA000D5DD32D032D830D0040134510601BD6F96
:103FB000BE6BAA0E0601BD27060E0601BE23060132
:103FC000BF810601010EC06F0601BF8F1DD0060123
:103FD000BF8F04013451EA6AAA0FE96E060EEA2285
:103FE00032C4EFFF11D0000EE66EE66A000EE66EF8
:103FF000E66A020EE66EE66A12EC36F0436E060ED4
:10400000E15E435001D000D01200D9CFE6FFE1CFEE
:10401000D9FF050EE1260401320511E104013051FA
:104020001F0B00090CE10601BF8F030E0401315D77
:1040300004E10601010ECB6F02D00601CB6B040137
:10404000325101E031D1040130511F0B020801E06F
:104050002BD1040134510F0B000901E125D10401DA
:1040600034510F0B020801E21FD1200E0601A85D9A
:1040700001E01AD10601BF8F040134BF1CD0040136
:1040800034510F0BE96EEA6AD890E936EA36AF0E82
:10409000E926060EEA22EECFDEFFEDCFDDFF0401BA
:1040A00034510F0BEA6AD30FE96E060EEA22020EB4
:1040B000EFCFDBFF1BD0040134510F0BE96EEA6A2E
:1040C000D890E936EA36B50EE926060EEA22EECF9A
:1040D000DEFFEDCFDDFF040134510F0BEA6AD00F94
:1040E000E96E060EEA22020EEFCFDBFFD950020F77
:1040F000E96EDACFEAFFEF50010B03E1000EDB942B
:1041000001D0DF84040134BF11D0040134510F0BFE
:10411000E96EEA6AD890E936EA36AF0EE926060E6D
:10412000EA22DECFEEFFDDCFEDFF10D004013451E7
:104130000F0BE96EEA6AD890E936EA36B50EE92641
:10414000060EEA22DECFEEFFDDCFEDFF030E040107
:10415000315D26E1DECFE9FFDDCFEAFFEF50800BD6
:1041600016E0040134BF0AD0040134510F0BEA6A8F
:10417000D30FE96E060EEA22EF8209D00401345112
:104180000F0BEA6AD00FE96E060EEA22EF82840E68
:10419000436EDECFE9FFDDCFEAFF4350EF1284D05C
:1041A000DF74DECFE9FFDDCFEAFFEF50800B1BE0CD
:1041B000DECFE9FFDDCFEAFFEF9EDECFE9FFDDCF07
:1041C000EAFFEF8C020EE66EE66ADECFE6FFDDCF99
:1041D000E6FF050EE66EE66A12EC36F0436E060E5A
:1041E000E15E435005D0DECFE9FFDDCFEAFFEF8C83
:1041F000DF74D950020FE96EDACFEAFFEF50020BFD
:1042000007E1DECFE9FFDDCFEAFFEF50800B2FE0C3
:10421000040134BF0AD0040134510F0BEA6AD30FF2
:10422000E96E060EEA22EF9209D0040134510F0B19
:10423000EA6AD00FE96E060EEA22EF923B0E436E59
:10424000DECFE9FFDDCFEAFF4350EF16020EE66E48
:10425000E66ADECFE6FFDDCFE6FF050EE66EE66A34
:1042600012EC36F0436E060EE15E435008D03B0E72
:10427000436EDECFE9FFDDCFEAFF4350EF160401C6
:1042800034510F0B446A260F436E0F0E4422030E67
:1042900043C0DBFF040E44C0DBFF030EDBCFE9FFAE
:1042A000040EDBCFEAFFEF90050EE15C02E2E16A6B
:0C42B000E552E16EE552E7CFD9FF1200A5
:0442BC00DACFE4FF72
:1042C000E2CFDAFFE9CFE4FFEACFE4FFE652D9CF4D
:1042D000E6FFE1CFD9FFE6529EA0A4D19E908E0EBC
:1042E000CE6ECF6809C080F20201816B0201010E1F
:1042F000826F0A500B100C100D1013E00A06000E0E
:104300000B5A0C5A0D5AD880000E0A54000E0B544A
:10431000190E0C54000E0D5404E20A6A0B6A0C6A62
:104320000D6A0A500B100C100D1002E00201826B96
:10433000000401E09ED00550061004E1075008106B
:1043400001E196D00201DB510BE009A202D08C8E74
:1043500001D08C9E09A602D08C8A01D08C9A0AD0FA
:1043600009A202D08C8E01D08C9E09A602D08C8A24
:1043700001D08C9A0550061021E014500124146ECF
:1043800015500220156E000ED8801454800E15545E
:1043900013E214C014F015C015F0000E145E800E68
:1043A000155A010E020180110201806F0201010EF7
:1043B000816F0506000E065A0201826B0750081035
:1043C00021E016500324166E17500420176E000EBD
:1043D000D8801654800E175413E216C016F017C07A
:1043E00017F0000E165E800E175A040E020180119F
:1043F0000201806F0201010E816F0706000E085A4C
:104400000201826B0201815133E00201DB5107E0BE
:10441000020180B18C8C020180B58C8806D002012B
:1044200080B18B82020180B58C8800000000000002
:10443000000000000000000000000000000000007C
:10444000000000000000000000000000000000006C
:10445000000000000000000000000000000000005C
:104460000201DB5103E08C9C8C9802D08B928C98DB
:104470009DD0030E005C01E099D00201E85101E1FA
:1044800077D01104DF6E0E500F1037E1DF50EA6A6B
:10449000310FE96E0E0EEA22EF500E01EA6AAC25EA
:1044A000E96EAD51EA22EF6AEA6ADF34FE0BEA36C2
:1044B000E96E790EE9260E0EEA22EE6AED6AEA6AE4
:1044C000DF34FE0BEA36E96E490EE9260E0EEA22CB
:1044D000EE6AED6ADF50EA6A310FE96E0E0EEA22EB
:1044E000EF6AEA6ADF34FE0BEA36E96E010EE9266E
:1044F0000E0EEA22EE6AED6A3BD0EA6ADF34FE0B6A
:10450000EA36E96E790EE9260E0EEA2212C0EEFFB7
:1045100013C0EDFFEA6ADF34FE0BEA36E96E490E9E
:10452000E9260E0EEA220EC0EEFF0FC0EDFFDF50AF
:10453000EA6A310FE96E0E0EEA2210C0EFFFEA6A56
:10454000DF34FE0BEA36E96E010EE9260E0EEA2292
:10455000EE50ED100DE1EA6ADF34FE0BEA36E96E4B
:10456000010EE9260E0EEA220EC0EEFF0FC0EDFF8F
:104570000E01B651105C1AE10E01B0510E1802E1A5
:10458000B1510F180AE10201010EDC6F0201D86B74
:104590000201E75101E08A9809D00201DC6B0201B7
:1045A000010ED86F0201E75101E08A8802018251B1
:1045B0002DE0006A18502AE184C200F085C201F0A3
:1045C00086C202F087C203F088C204F089C205F0F7
:1045D0008AC206F08BC207F08CC208F08DC209F0C7
:1045E0008EC20AF08FC20BF090C20CF091C20DF097
:1045F00092C20EF093C20FF094C210F095C211F067
:1046000096C212F097C213F0010E186E8050800B04
:1046100006E00201E35106E08150010B03E10201D3
:10462000010EE26FE552E552E7CFD9FFE552E5CF43
:10463000EAFFE5CFE9FFE5CFDAFF1100D9CFE6FFCA
:10464000E1CFD9FFE652DF6ADFCF43F0020EE76E1B
:104650004318E8AE02D0E73402D0E750435C1FE2D3
:10466000DFCFE9FFEA6AE9BEEA68D890E936EA36C0
:10467000010EE926000EEA22010EEE6EED6ADFCF92
:10468000E9FFEA6AE9BEEA68D890E936EA36050E3B
:10469000E926000EEA22EE6AED6ADF2AD5D7006A23
:1046A000096A0A6A0B6A0C6A0D6A0E6A0F6A106A56
:1046B000116A126A136A010E186ECD92CD9ECD9CBE
:1046C000CD8ACD98CD96CD948E0ECE6ECF68CD800E
:1046D0009F809E909D8092800F01FE0E486F0F017B
:1046E000170E496F8D8496948D829692898C929C38
:1046F0008D8096908B8294928C9C959C8C9E959E9E
:104700008C9895988C9A959A949E828E00000000C1
:104710000000000000000000000000000000000099
:104720000000000000000000000000000000000089
:104730000000948E829E0201010EE76F0201010EBD
:10474000E86F8A9893980201010ED86F0201010E5A
:10475000DB6F0201010EDC6F0201E16B0201DD6B18
:10476000DE6BDF6BE06B0201E26B9380F19E020176
:10477000010EE36F93968196E552E552E7CFD9FF9C
:104780001200D9CFE6FFE1CFD9FF030EE126DF6AA1
:10479000010EDB6A020EDB6AE66AD9CFE6FFDACFEA
:1047A000E6FF010EE66EC7EC12F0E552E552E55267
:1047B000E552E66AD950010FE66E000EDA20E66E89
:1047C000030EE66EC7EC12F0E552E552E552E552F3
:1047D000265001E0D5D0DF043FE1D950010FE96E4A
:1047E000DACFEAFFEE50ED1017E10201010EE76F9C
:1047F0000201E86B000EE66EE66A000EE66EE66AFF
:10480000B6CEE6FF000EE66EE66ACFEC33F0436EFE
:10481000070EE15E435016D0D950010FE96EDACF92
:10482000EAFF010EEE1801E1ED5006E10201E76B2F
:104830000201010EE86F06D00201010EE76F0201CE
:10484000010EE86F000EE66EE66ADCC2E6FF1DDBD5
:10485000E552E552E55281D0020EDF5C15E1D950F8
:10486000010FE96EDACFEAFFEE50ED100AE1020126
:10487000010EDB6F959E959A949295989690959CD3
:1048800002D00201DB6B69D0040EDF5C07E1010E90
:10489000DBCFB0FE020EDBCFB1FE5FD0050EDF5CDA
:1048A00007E1010EDBCFAEFE020EDBCFAFFE55D02F
:1048B000080EDF5C16E1D950010FE96EDACFEAFF8E
:1048C000180ED880EE54000EED5407E2180EF36E69
:1048D000010EF3CFDBFF020EDB6A010EDBCFAAFE77
:1048E0003CD0090EDF5C16E1D950010FE96EDACF3A
:1048F000EAFF060ED880EE54000EED5407E2060ED5
:10490000F36E010EF3CFDBFF020EDB6A010EDBCF8D
:10491000ABFE23D00A0EDF5C0DE1010EDBCFB2FE51
:10492000020EDBCFB3FE010EDBCFB4FE020EDBCFF7
:10493000B5FE13D00B0EDF5C07E1010EDBCFB2FE3C
:10494000020EDBCFB3FE09D00C0EDF5C06E1010ED8
:10495000DBCFB4FE020EDBCFB5FE0D0EDF5C0EE149
:10496000D950010FE96EDACFEAFFEE50ED1004E006
:104970000201010EE36F02D00201E36B0EEC0AF0BC
:10498000030EE15C02E2E16AE552E16EE552E7CF37
:10499000D9FF1200D9CFE6FFE1CFD9FF060EE126FD
:1049A000020EDB6A030EDB6A040EDB6A050EDB6AAD
:1049B000E66AD9CFE6FFDACFE6FF030EE66EC7EC74
:1049C00012F0E552E552E552E552E66AD950020F7F
:1049D000E66E000EDA20E66E020EE66EC7EC12F00E
:1049E000E552E552E552E552010EE66ED950040F4C
:1049F000E66E000EDA20E66E020EE66EC7EC12F0EE
:104A0000E552E552E552E552265001E017D0040E7A
:104A1000DBCFE6FF050EDBCFE6FF020EDBCFE6FFC6
:104A2000030EDBCFE6FFDECFE6FFDDCFE6FF10D8DB
:104A3000436E060EE15E43500EEC0AF0060EE15C9A
:104A400002E2E16AE552E16EE552E7CFD9FF1200DA
:104A5000D9CFE6FFE1CFD9FF185001E1FDD7D950FA
:104A6000FB0FE96EFF0EDA20EA6EEE50ED102DE13D
:104A7000D950F90FE96EFF0EDA20EA6EEE50ED1014
:104A800024E10201020E846FFD0EDBCF8EF2FE0EDA
:104A9000DBCF8FF20201906B916B190E3A6E3B6A7D
:104AA0003C6A3D6A8EC235F08FC236F090C237F054
:104AB00091C238F0D4EC37F031C08EF232C08FF2B0
:104AC00033C090F234C091F2F4D002018E6B8F6B40
:104AD000906B916B02018D6B8D908B92FB0EDBCFF7
:104AE00043F0FC0EDBCF44F00001800E441415E0CF
:104AF000020E02018D1102018D6F37683868FB0EBE
:104B0000DBCF3CF0FC0EDBCF3DF00CEC38F0FB0EC5
:104B100035C0DBFFFC0E36C0DBFFF90EDBCF43F008
:104B2000FA0EDBCF44F00001800E441415E0080EAD
:104B300002018D1102018D6F37683868F90EDBCFE5
:104B40003CF0FA0EDBCF3DF00CEC38F0F90E35C03E
:104B5000DBFFFA0E36C0DBFFFD0EDBCF47F0FE0EAB
:104B6000DBCF48F0496A4A6A190E3A6E3B6A3C6AE2
:104B70003D6A47C035F048C036F049C037F04AC0FA
:104B800038F0D4EC37F031C047F032C048F033C0D1
:104B900049F034C04AF0FB0EDBCF43F0FC0EDBCF14
:104BA00044F0456A466A44AE02D0456846680F0E36
:104BB000D8904336443645364636E806F9E143C0D8
:104BC00035F044C036F045C037F046C038F047C035
:104BD0003AF048C03BF049C03CF04AC03DF05FECC1
:104BE00038F035C085F236C086F2010E0201852705
:104BF000000E02018623FB0EDBCF89F2FC0EDBCF19
:104C00008AF2FD0EDBCF47F0FE0EDBCF48F0496A9B
:104C10004A6A190E3A6E3B6A3C6A3D6A47C035F0F3
:104C200048C036F049C037F04AC038F0D4EC37F00D
:104C300031C047F032C048F033C049F034C04AF0C8
:104C4000F90EDBCF43F0FA0EDBCF44F0456A466A3B
:104C500044AE02D0456846680F0ED89043364436BD
:104C600045364636E806F9E143C035F044C036F033
:104C700045C037F046C038F047C03AF048C03BF076
:104C800049C03CF04AC03DF05FEC38F035C087F2D7
:104C900036C088F2010E02018727000E0201882328
:104CA000F90EDBCF8BF2FA0EDBCF8CF20201010E94
:104CB000846F186AE552E7CFD9FF1200DCC243F0D7
:104CC000446A43BE446843C0E6FF44C0E6FF740E36
:104CD000456E690E466E476A45C0E6FF46C0E6FF70
:104CE00047C0E6FFFEEC36F0486E050EE15E485028
:104CF0000EEC0AF01200D9CFE6FFE1CFD9FF020E89
:104D0000E126F40EDE6E010EDD6E010EE66ED9CFE9
:104D1000E6FFDACFE6FF030EE66EC7EC12F0E552CF
:104D2000E552E552E552265001E019D00201DC05BA
:104D30000AE1DECFE6FFDDCFE6FFE66AA6D8E55260
:104D4000E552E5520AD0DECFE6FFDDCFE6FF010EE9
:104D5000E66E9BD8E552E552E5520EEC0AF0020EE3
:104D6000E15C02E2E16AE552E16EE552E7CFD9FF8C
:104D70001200D9CFE6FFE1CFD9FF050EE126DF6AA9
:104D8000F40EF36E010EF3CFDBFF010EF36E020E95
:104D9000F3CFDBFF010EF36E030EF3CFDBFFE66A0A
:104DA000D9CFE6FFDACFE6FF010EE66EC7EC12F0D0
:104DB000E552E552E552E552010EE66ED950010F7B
:104DC000E66E000EDA20E66E030EE66EC7EC12F019
:104DD000E552E552E552E552010EE66ED950030F59
:104DE000E66E000EDA20E66E010EE66EC7EC12F0FB
:104DF000E552E552E552E552E76E040EE7CFDBFFE0
:104E0000265001E038D0030EDB50070805E2010E02
:104E1000F36E030EF3CFDBFFDF50010802E2010E59
:104E2000DF6E030EDB50030F0E01B65D16E0000EC1
:104E3000E66EE66A000EE66EE66AB6CEE6FF000EA5
:104E4000E66EE66ACFEC33F0436E070EE15E435048
:104E5000030EDB50030F0E01B66F010EDBCFE6FF32
:104E6000020EDBCFE6FFDFCFE6FF0FD8E552E552BB
:104E7000E5520EEC0AF0050EE15C02E2E16AE55251
:104E8000E16EE552E7CFD9FF1200D9CFE6FFE1CFBF
:104E9000D9FF040EE126FE0EDB040BE1AECEDEFFF1
:104EA000AFCEDDFF020EB2CEDBFF030EB3CEDBFFD3
:104EB0000AD0B0CEDEFFB1CEDDFF020EB4CEDBFFF6
:104EC000030EB5CEDBFFFC0EDBCFE6FFFD0EDBCF26
:104ED000E6FF020EDBCFE6FF030EDBCFE6FFB6CE2A
:104EE000E6FFDECFE6FFDDCFE6FFCFEC33F0436E2B
:104EF000070EE15E4350040EE15C02E2E16AE55216
:104F0000E16EE552E7CFD9FF1200D9CFE6FFE1CF3E
:104F1000D9FF050EE126E66AD9CFE6FFDACFE6FF34
:104F2000010EE66EC7EC12F0E552E552E552E5528D
:104F3000E76E040EE7CFDBFF040EDB5030E12650B6
:104F400001E05BD00201DB5124E0DF5000081FE2EA
:104F50008D90DF0403E18D848D82898C020EDF5CED
:104F600003E18D848D82899C030EDF5C03E18D94C7
:104F70008D82899C040EDF5C03E18D848D92899C77
:104F8000050EDF5C03E18D948D92899C01D08D80AC
:104F900006D0DF50000802E28D9001D08D80010E16
:104FA000E66ED950010FE66E000EDA20E66E010EB5
:104FB000E66EC7EC12F0E552E552E552E552E76EB7
:104FC000040EE7CFDBFF040EDB5015E1265001E0B5
:104FD00014D00201DB5108E0010EDB50000802E2B0
:104FE0008B9201D08B8207D0010EDB50000802E2C9
:104FF0008C9C01D08C8C0EEC0AF0050EE15C02E278
:10500000E16AE552E16EE552E7CFD9FF1200FE0EEC
:105010000201DD5DFF0EDE59FF0EDF59FF0EE05984
:1050200006E20201DD2B000EDE23DF23E0230EEC7F
:105030000AF012000201DD51DE11DF11E01106E07D
:105040000201DD07000EDE5BDF5BE05B0EEC0AF0C9
:105050001200D9CFE6FFE1CFD9FF050EE126E66ABF
:10506000D9CFE6FFDACFE6FF070EE66EC7EC12F007
:10507000E552E552E552E552E76E040EE7CFDBFF5D
:10508000040EDB500BE1DFCFDDF2010EDBCFDEF2F1
:10509000020EDBCFDFF2030EDBCFE0F20EEC0AF004
:1050A000050EE15C02E2E16AE552E16EE552E7CF0E
:1050B000D9FF1200DDC2E6FFDEC2E6FFDFC2E6FF77
:1050C000E0C2E6FF6B0E436E690E446E456A43C054
:1050D000E6FF44C0E6FF45C0E6FFFEEC36F0466E54
:1050E000070EE15E46500EEC0AF01200E66AE10E91
:1050F000E66E020EE66E010EE66EC7EC12F0E552A9
:10510000E552E552E552265001E002D00EEC0AF0DD
:105110001200E1C243F0446A43BE446843C0E6FF64
:1051200044C0E6FF640E456E690E466E476A45C090
:10513000E6FF46C0E6FF47C0E6FFFEEC36F0486EED
:10514000050EE15E48500EEC0AF01200E2C243F098
:10515000446A43BE446843C0E6FF44C0E6FF5E0EB7
:10516000456E690E466E476A45C0E6FF46C0E6FFDB
:1051700047C0E6FFFEEC36F0486E050EE15E485093
:105180000201E26B0EEC0AF01200D9CFE6FFE1CF8C
:10519000D9FF040EE126DE6ADD6A020EDB6A030E29
:1051A000DB6AC26AA40EC16E9E9C9F9CC2800201F3
:1051B0000A0EE46F0201E45101E0FCD7C282C2B2E0
:1051C000FED7C450456E45C046F0456AC350000145
:1051D0004524436E000E4620446E43C0DEFF44C0AB
:1051E000DDFF2D0EC26E02010A0EE46F0201E451D2
:1051F00001E0FCD7C282C2B2FED7C450456E45C0A2
:1052000046F0456AC35000014524436E000E462017
:10521000446E020E43C0DBFF030E44C0DBFF020EF0
:10522000DBCFE6FF030EDBCFE6FFDECFE6FFDDCF11
:10523000E6FF520E436E690E446E456A43C0E6FFB8
:1052400044C0E6FF45C0E6FFFEEC36F0466E070EB2
:10525000E15E46500EEC0AF0040EE15C02E2E16A07
:10526000E552E16EE552E7CFD9FF1200D9CFE6FF54
:10527000E1CFD9FF030EE126DF6A010EDB6A040EDF
:10528000F36E020EF3CFDBFFE66AD9CFE6FFDACF8B
:10529000E6FF010EE66EC7EC12F0E552E552E5526C
:1052A000E552010EE66ED950010FE66E000EDA20CF
:1052B000E66E030EE66EC7EC12F0E552E552E552DB
:1052C000E552265001E057D0D950010FE96EDACFF0
:1052D000EAFFFF0ED880EE54030EED5420E3010EDA
:1052E000DBCFE5F2020EDBCFE6F2CB680201E56B25
:1052F000020EE66FFC0ECA140009CA6E9D920F01E1
:1053000052810F015293F00EBA140C09BA6E3F0E7F
:10531000BA140009BA6E0E010E0ECC6FCA84DF50AB
:1053200024E0E5C243F0E6C244F0D8904432433270
:10533000D890443243324350BB6EE5C245F0E6C2DA
:1053400046F0040ED89045364636E804FBE1300EB0
:105350004516000E4616CF0EBA1400014510436ED6
:1053600046C044F04350BA6E04D0BB6ACF0EBA14A4
:10537000BA6E0EEC0AF0030EE15C02E2E16AE5525D
:10538000E16EE552E7CFD9FF12001200000EE66E83
:10539000E66A000EE66EE66A1850436E446A43BE43
:1053A000446843C0E6FF44C0E6FF440E456E690E04
:1053B000466E476A45C0E6FF46C0E6FF47C0E6FFC7
:0E53C000FEEC36F0486E090EE15E4850120019
:0253CE0023ECCE
:1053D0002FF0FB0EDBCFF3FFDB06F35000090AE0F2
:1053E00071EC2FF0FA0EDCEC2FF0F3E1441CF1E14C
:1053F000010E01D0000E52EF2FF023EC2FF03B0EE8
:10540000E12402E3E168E652E16E010EDB6A020E7E
:10541000DB6AF90EDBCFF6FFFA0EDBCFF7FFFB0EF0
:10542000DBCFF8FF0800F550DF6EDF5002E176EFCA
:105430002EF0250EDF5C02E069EF2EF0030EDB6A32
:10544000040EDB6A050EDB6A060EDB6A070EDB6AFA
:105450008BEC2EF02D0EDF5C0CE02B0EDF5C09E0F8
:10546000200EDF5C06E0230EDF5C03E0300EDF5C25
:105470001AE1DF50300A14E0130A0FE0030A0AE0D1
:105480000B0A05E0060AE4E1030EDB80E1D7030E18
:10549000DB82DED7030EDB84DBD7030EDB86D8D7B7
:1054A000030EDB88D5D72A0EDF5C1BE187EC2EF0DC
:1054B000D5EC2EF010E0030EDB8037683868130E51
:1054C000DBCF3CF0140EDBCF3DF00CEC38F0040EDB
:1054D00035C0DBFF03D0130EBEEC2EF08BEC2EF0AC
:1054E0000BD0090EDB6A2CEC2FF003E0A0EC2FF0C0
:1054F000FAD7090EBEEC2EF0030EDBB0DB982E0EB1
:10550000DF5C1BE18BEC2EF02A0EDF5C0BE187ECFD
:105510002EF0D5EC2EF003E1130E10EC2FF08BECF7
:105520002EF00BD0090EDB6A2CEC2FF003E0A0EC80
:105530002FF0FAD7090E10EC2FF0680EDF5C07E1B0
:105540008BEC2EF0680EDF5C1DE1030E18D0740E9C
:10555000DF5C17E07A0EDF5C14E0480EDF5C06E0EB
:10556000540EDF5C03E05A0EDF5C02E1020E07D04E
:105570006C0EDF5C03E06A0EDF5C04E1010E63EC9D
:105580002FF0C9DBDF506E0A01E17FD31E0A01E173
:1055900092D1200A01E18FD13F0A01E149D11A0AD3
:1055A00001E146D10D0A01E143D1200A01E140D1D8
:1055B0003A0A01E13DD1200A01E13AD1260A01E18E
:1055C00035D10D0A01E132D11A0A01E1D9D0200A00
:1055D0004AE0300A1FE0460A0EE0250A01E083D3C4
:1055E000D950F90FE96EFF0EDA20EA6E010EEE5E79
:1055F000000EEE5AEE5A71EC2FF0250EE66E95DB9A
:1056000003E1441C01E169D36DEC2FF001E26BD39F
:10561000DB2A69D3080EDB6A040EDB50010806E2C0
:10562000040EDB0435EC2FF0DB508BDB080EDB5077
:1056300009E0030EDB50010B05E172DB01E04DD305
:10564000080EDB6A64DBEFCFDFFFE5EC2FF003E150
:10565000441C01E142D36DEC2FF001E3DB2A60DB57
:1056600001E141D33AD3070EDB5002080FE1B1EC60
:105670002FF0030E78EC2FF00E0EEECFDBFF0F0EA7
:10568000EECFDBFF100EEECFDBFF20D0F70EDBCF2F
:1056900046F0F80EDBCF47F0020E465E000E475A8A
:1056A000F70E46C0DBFFF80E47C0DBFF46C0E9FF40
:1056B00047C0EAFF68EC2FF0456A0E0E43C0DBFFDF
:1056C0000F0E44C0DBFF100E45C0DBFF0E0EDBCF1C
:1056D000E6FF0F0EDBCFE6FF100EDBCFE6FFD9ECC7
:1056E00036F0E552E552E552130E36C0DBFF140EDC
:1056F00037C0DBFF060EDB5005E0130EACEC2FF0DD
:1057000001E26ADBD0EC2FF002E2130E37DB93EC00
:105710002FF006E0040EACEC2FF002E2050E2EDBBB
:10572000030EDBB005D0FCDA01E0D7D2080EDB6A4D
:10573000090EDB6A0E0EDBCFF6FF0F0EDBCFF7FF95
:10574000100EDBCFF8FF0800F550DF6EDF5014E0DD
:10575000D6EC2FF011E2E5EC2FF003E1441C01E15F
:10576000BCD2BBDB01E3DB2A090EDB2AD9500E0FCA
:10577000E96E000ECBDBE7D7D3DA01E1B4D2ADD2CC
:10578000C6DA110EEECFDBFF120EEDCFDBFF110EEE
:10579000DBCFE6FF120EDBCFE6FFCBEC36F0E552B7
:1057A000E552130EF3CFDBFF140EF4CFDBFF060E32
:1057B000DB5004E0130ED0DB01E20EDBD0EC2FF067
:1057C00002E2130EDBDAAFDB05E0040EC5DB02E21A
:1057D000050ED4DA030EDBB005D0A2DA01E07DD2EB
:1057E000080EDB6A090EDB6A110EDBCFE9FF120E31
:1057F000DBCFEAFFEFCFDFFFDF5014E0D7DB12E2B1
:10580000E4DB03E1441C01E168D267DB01E3DB2A4E
:10581000090EDB2A110EDB2ADBCFE9FF120EE8E3CB
:10582000DB2AE6D77DDA01E15ED257D2030EDB8EAA
:10583000070EDB0410E195DB040E5ADB0A0EEECFF7
:10584000DBFF0B0EEECFDBFF0C0EEECFDBFF0D0E02
:10585000EECFDBFF6CD0070EDB5003082CE1030E0C
:10586000DBAE0DD0B2DA020E76DAEFCF43F0446A47
:10587000456A466A43AE39D04468456835D0F70E6C
:10588000DBCF44F0F80EDBCF45F0020E445E000E95
:10589000455AF70E44C0DBFFF80E45C0DBFF44C09D
:1058A000E9FF45C0EAFFEFCF43F00A0E43C0DBFF3C
:1058B0000B0EDB6A38D0070EDB50020809E1030E3D
:1058C000DBAE04D059DB45AE10D00ED055DB0DD089
:1058D000030EDBAE12D079DA020E3DDAF9DA456A50
:1058E000466A44AE02D045684668E2DA0C0E45C00E
:1058F000DBFF0D0E46C0DBFF1AD0F70EDBCF45F005
:10590000F80EDBCF46F0020E455E000E465AF70E4B
:1059100045C0DBFFF80E46C0DBFF45C0E9FF46C0CF
:10592000EAFFD6DAC5DA0C0EDB6A0D0EDB6A060E6C
:10593000DB5005E1010EF36E050EF3CFDBFF150E14
:10594000DB6A160EDB6AD950370F436E000EDA2081
:10595000446E390E43C0DBFF3A0E44C0DBFF380E05
:10596000DB6A080EDB6A0A0EAEDADF50780A12E054
:10597000200A10E0280A0CE0200A0AE03F0A06E0AC
:105980000D0A02E0200A08E1020E05D0080E03D03D
:10599000080EDF26100E97DA030EDBBE02D0DB9274
:1059A000DB94DB50800B24E08ADAD890030EEB50B6
:1059B000000A08E6000EEE5C000EEE58000EEE58EF
:1059C000000EEE5815E213DA3A683B683C683D6811
:1059D000D4EC37F00A0E31C0DBFF0B0E32C0DBFF18
:1059E0000C0E33C0DBFF0D0E34C0DBFF2D0E08D0D4
:1059F000030EDBA202D02B0E03D0DBA408D0200EB6
:105A0000F36E170EF3CFDBFF150EDB2A02D0170E55
:105A1000DB6A050EDB5003E1B7D901E189D0940EB2
:105A2000436E710E446E000E456E070EDBCF46F0DE
:105A3000476A486A496A46C03AF047C03BF048C0E6
:105A40003CF049C03DF0D3D95FEC38F043503124ED
:105A5000F36E44503220F46E45503320F86EF4CF8C
:105A6000F7FFF3CFF6FF0800090EF5CFDBFF580E66
:105A7000DF5C0FE1610EF36E090E7BD90AE3200EA5
:105A8000436E090EDBCFE7FF4350E75E090EE7CF19
:105A9000DBFF070EDBCF43F0446A456A466A0FDA44
:105AA00043C03AF044C03BF045C03CF046C03DF036
:105AB000EECF35F0EECF36F0EECF37F0EFCF38F057
:105AC0005FEC38F038C0EDFF37C0EDFF36C0EDFFBA
