:020000040000FA
:061000006FEF6AF0120020
:0610080074EF24F0120059
:0610180018EF39F0120090
:06102A000400A5D5000042
:1010300000060000E10000009CD50000B70E000093
:10104000090000009AD50000F3050000020000002E
:0C10500040D50000800200005A000000A3
:04105C00020100008D
:10106000000000013200000000000180004D00007F
:10107000000200000000000001320000000000013A
:10108000A700FBFFDFFF015700EFFF0400014E0048
:10109000F2FF0700014C00F3FF0800014A00F5FFD2
:1010A0000A00014400F8FF0B00014800FAFF0D00A0
:1010B000014E00FCFF0F00015000FFFF1000013245
:1010C0000000000A00012E000200090001330002A6
:1010D000000A00012D0004000800012D0004000892
:1010E00000012F0005000800013100070007000182
:1010F0002E00070006000132000800060001330040
:10110000090005000136000A0004000134000A004D
:1011100003000139000B000300013D000C00020038
:101120000141000D0001000146000E0001000146D2
:10113000000E00FFFF0141000D00FFFF013D000C0C
:1011400000FEFF013E000C00FDFF0139000B00FD19
:10115000FF0136000A00FCFF0133000900FBFF011C
:1011600032000800FAFF0135000800F9FF012E00E7
:101170000600F9FF012E000600F9FF012D00040012
:10118000F8FF012D000400F8FF012E000200F7FF18
:10119000012E000200F7FF0132000000F6FF012DD2
:1011A000000000F7FF012E00FEFFF7FF012900FEFF
:1011B000FFF8FF012B00FDFFF8FF012F00FBFFF8F8
:1011C000FF012B00FBFFF9FF013100F9FFF9FF01DF
:1011D0002E00F9FFFAFF013200F8FFFAFF01330099
:1011E000F7FFFBFF013600F6FFFCFF013900F5FFBA
:1011F000FDFF013900F5FFFDFF013D00F4FFFEFF9B
:10120000014100F3FFFFFF014600F2FFFFFF013243
:1012100000F6FF010001C60200008E00015B00EE37
:10122000FFFEFF015100F0FFFDFF014800F3FFFA50
:10123000FF014100F5FFF9FF013C00F7FFF8FF0156
:101240003A00FAFFF6FF013600FCFFF6FF013C0012
:10125000FFFFF4FF0128000100F8FF012900020050
:10126000F8FF0126000300F9FF012B000500F9FF3C
:10127000012E000700FAFF012F000800FBFF0133D9
:10128000000900FBFF013F000C00FCFF0100000013
:101290000000000201000000000001320000000018
:1012A0000001CE003F006A000200000000000001C3
:1012B000320000000000011202000096FF01410010
:1012C0000D000100013E000C0003000134000A0083
:1012D0000300012F00080005000140000A0008007B
:1012E000013D0007000A00011B0002000500011B70
:1012F0000002000500013C0001000C00013700FF66
:10130000FF0B00012F00FDFF0900013600FAFF0965
:1013100000013500F9FF0800013D00F6FF0700015C
:101320003C00F5FF0500014400F3FF040001460006
:10133000F2FF0100010000000000000201000000B7
:1013400000000132000000000001900164FF4AFF2C
:10135000020000000000000132000000000001A2B5
:1013600000FBFFE0FF012D00F7FFFFFF012600F962
:10137000FFFDFF011D00FBFFFDFF012000FBFFFC47
:10138000FF012700FBFFFAFF012B00FDFFF8FF0123
:101390002E00FEFFF7FF013200FFFFF6FF013200D3
:1013A0000100F6FF0133000200F6FF012B000300ED
:1013B000F8FF0127000500FAFF012A000600FAFFE6
:1013C000012B000700FBFF012B000800FDFF012F90
:1013D000000900FDFF0160001300FEFF019B001FDC
:1013E000000000012B00F9FF0500012A00FAFF06AA
:1013F00000012700FBFF0600012800FCFF07000199
:101400002400FCFF0600012400FEFF070001280065
:10141000FFFF0800012800FFFF0800012D00010068
:101420000900012D0001000900012F00030009003F
:10143000012D000400080001280004000700012E0F
:101440000006000700012E00070006000132000818
:101450000006000133000900050001310009000405
:10146000000136000A0004000134000A00030001F4
:101470006B0015000400017300170001000150000B
:10148000100000000151001000FEFF0148000E0096
:10149000FDFF014A000E00FBFF014A000E00FBFFAA
:1014A0000141000B00F9FF0140000A00F8FF01397B
:1014B000000800F8FF013D000700F6FF013C0005B1
:1014C00000F5FF0138000200F5FF0141000100F3C3
:1014D000FF0128000000F8FF012900FEFFF8FF01CE
:1014E0002400FEFFF9FF012800FCFFF9FF0128009E
:1014F000FCFFF9FF012E00FAFFF9FF012E00F9FFB2
:10150000FAFF012B00F9FFFBFF0187001B00000021
:101510000196000000E2FF01DE033AFF0000017DBA
:1015200000E7FF0000016900EBFF0200015600EF39
:10153000FF0300014400F3FF0400013800F6FF053B
:1015400000013D00F6FF0700013500F8FF0700012C
:101550003D00F9FF0A00013A00FAFF0A00013F00CE
:10156000FCFF0C00013D00FEFF0C00014600FFFFE8
:101570000E0001500001001000014E0004000F0099
:1015800001480006000D0001440008000B00012086
:1015900000040005000127000600050001220006E6
:1015A00000030001260007000300012400070002D9
:1015B000000129000800020001550011000100018E
:1015C00000000000000002010000000000013200E5
:1015D0000000000001EA008A00E5FF0200000000B0
:1015E000000001320000000000016900EBFFFFFF76
:1015F000015B00EEFFFDFF014F00F1FFFBFF012249
:1016000000FAFFFDFF012200FAFFFDFF013C00F799
:10161000FFF8FF013900F9FFF7FF013400FDFFF685
:10162000FF013300FEFFF6FF0138000200F5FF0165
:1016300034000300F6FF0139000700F7FF013C000A
:101640000900F8FF011D000500FDFF01260007004D
:10165000FDFF014A000E00FBFF015B001200FDFFD1
:101660000164001400FFFF01640014000100015632
:101670000011000300014F000F0005000145000CA0
:10168000000700013C0009000800013900070009BB
:10169000000131000400090001370001000B0001C6
:1016A0003200FFFF0A00013600FCFF0A000139008A
:1016B000F9FF0900013C00F7FF0800014300F4FFB7
:1016C0000600014A00F2FF0500015600EFFF03008B
:1016D000015F00EDFF0100010000000000000201B9
:1016E00000000000000132000000000001770176D8
:1016F000FF4EFF0200000000000001320000000069
:101700000001A200FBFFE0FF012D00F7FFFFFF013A
:101710002600F9FFFDFF011D00FBFFFDFF0120007A
:10172000FBFFFCFF012700FBFFFAFF012B00FDFF81
:10173000F8FF012E00FEFFF7FF013200FFFFF6FF6A
:101740000132000100F6FF0133000200F6FF012B19
:10175000000300F8FF0127000500FAFF012A000638
:1017600000FAFF012B000700FBFF012B000800FD22
:10177000FF012F000900FDFF0160001300FEFF01C3
:101780009B001F000000012B00F9FF0500012A004B
:10179000FAFF0600012700FBFF0600012400FCFF02
:1017A0000600012800FCFF0700012400FEFF0700DF
:1017B000012800FFFF0800012800FFFF0800012D9D
:1017C0000001000900012D0001000900012F0003A4
:1017D00000090001280004000700012D0004000892
:1017E00000012E0006000700012E00070006000180
:1017F0003200080006000133000900050001310035
:10180000090004000136000A0004000134000A0047
:101810000300016B001500040001730017000100B4
:101820000150001000FFFF0150001000FFFF0148B1
:10183000000E00FDFF014A000E00FBFF014A000EF2
:1018400000FBFF0141000B00F9FF0140000A00F816
:10185000FF0139000800F8FF013D000700F6FF0115
:101860003C000500F5FF0138000200F5FF014100D2
:101870000100F3FF0128000000F8FF012900FEFF2E
:10188000F8FF012400FEFFF9FF012800FCFFF9FF2B
:10189000012800FCFFF9FF012E00FAFFF9FF012EDD
:1018A00000F9FFFAFF012B00F9FFFBFF0187001B86
:1018B0000000000196000000E2FF01DE033AFF0095
:1018C00000017D00E7FF0000016900EBFF0200015D
:1018D0005600EFFF0300014400F3FF04000138004D
:1018E000F6FF0500013D00F6FF0700013500F8FF97
:1018F0000700013D00F9FF0A00013A00FAFF0A0063
:10190000013F00FCFF0C00013D00FEFF0C00014602
:1019100000FFFF0E0001500001001000014E000406
:10192000000F0001480006000D0001440008000BF4
:10193000000120000400050001240006000400014D
:101940002400060004000126000700030001240013
:1019500007000200012900080002000155001100E3
:101960000100010000000000000201000000000072
:101970000132000000000001EA008A00E5FF0200D9
:10198000000000000001320000000000016900EBCF
:10199000FFFFFF015B00EEFFFDFF014F00F1FFFBCA
:1019A000FF012200FAFFFDFF012200FAFFFDFF0107
:1019B0003C00F7FFF8FF013900F9FFF7FF013400A1
:1019C000FDFFF6FF013800FEFFF5FF0133000200C6
:1019D000F6FF0134000300F6FF0139000700F7FFAE
:1019E000013C000900F8FF011D000500FDFF012872
:1019F000000700FCFF0149000E00FCFF015B001224
:101A000000FDFF0164001400FFFF016400140001E9
:101A10000001560011000300014F000F00050001F6
:101A200045000C000700013C0009000800013900D6
:101A3000070009000131000400090001370001001E
:101A40000B00013200FFFF0A00013600FCFF0A0014
:101A5000013900F9FF0900013C00F7FF08000143CC
:101A600000F4FF0600014A00F2FF0500015600EFF6
:101A7000FF0300015F00EDFF010001000000000016
:101A8000000201000000000001320000000000011F
:101A90008D0189FF32FF02000000000000013200CA
:101AA0000000000001960000001E00012C063C0111
:101AB000000001A5000000DFFF01300290FF0000E0
:101AC000012B000700FBFF012A000600FAFF012797
:101AD000000500FAFF0127000500FAFF01260003B8
:101AE00000F9FF0124000200F9FF0124000200F9BF
:101AF000FF0128000000F8FF012D000000F7FF01A2
:101B00002900FEFFF8FF012900FEFFF8FF012D006C
:101B1000FCFFF8FF012F00FBFFF8FF012B00FBFF8C
:101B2000F9FF012E00F9FFFAFF012B00F9FFFBFF7F
:101B3000012F00F8FFFBFF013100F7FFFCFF01362A
:101B400000F6FFFCFF013400F6FFFDFF013900F550
:101B5000FFFDFF013C00F4FFFFFF017800E8FFFEFE
:101B6000FF014600F2FF0000014700F2FF02000102
:101B70003D00F4FF0200013D00F4FF0200013B00C4
:101B8000F5FF0400013600F6FF0400013300F7FF03
:101B90000500013300F7FF0500013100F9FF0700E0
:101BA000012E00F9FF0600012B00FBFF0700012BAF
:101BB00000FBFF0700012D00FCFF0800012400FED0
:101BC000FF0700012900FEFF0800012D00000009A9
:101BD000000128000000080001290002000800019F
:101BE000260003000700012600030007000127006C
:101BF00005000600012A0006000600012E0007006D
:101C00000600012F0008000500019100E3FF00001D
:101C1000020100000000000132000000000001C1CC
:101C2000007400000002000000000000013200000B
:101C3000000000015F00EDFFFFFF015000F0FFFF1B
:101C4000FF014800F2FFFDFF013600F6FFFCFF0137
:101C50002800F9FFFCFF012700FAFFFBFF0120002D
:101C6000FBFFFCFF012300FBFFFBFF012200FDFF48
:101C7000FAFF011B00FEFFFBFF012000FEFFFAFF41
:101C80000123000000F9FF0132000100F6FF0131DD
:101C9000000400F7FF0139000700F7FF0140000AC8
:101CA00000F8FF0145000C00F9FF0154001000FB93
:101CB000FF0156001100FDFF0169001500FFFF0143
:101CC000690015000100015B0012000300014F00D4
:101CD0000F0005000122000600030001220006009B
:101CE0000300013C0009000800013500070008005E
:101CF00001360004000A0001320001000A0001322E
:101D000000FFFF0A00013600FCFF0A00013900F95C
:101D1000FF0900014000F6FF0800014300F4FF0640
:101D200000014F00F1FF0500015600EFFF03000125
:101D30006400ECFF0100010000000000000201004F
:101D40000000000001320000000000011001FFFF50
:101D50005DFF0200000000000001320000000000F2
:101D6000014B000F00FFFF0146000E00FFFF01487E
:101D7000000E00FDFF013E000C00FDFF013B000BCB
:101D800000FCFF013C000B00FBFF0136000900FADC
:101D9000FF0135000800F9FF012A000600FAFF01E3
:101DA0002B000500F9FF0128000400F9FF012800BD
:101DB0000400F9FF012B000300F8FF0129000200D5
:101DC000F8FF0128000100F8FF012D000000F7FFD7
:101DD0000132000000F6FF012E00FEFFF7FF012E8A
:101DE00000FEFFF7FF012B00FDFFF8FF012F00FBB6
:101DF000FFF8FF012B00FBFFF9FF012E00FAFFF9AE
:101E0000FF013200F8FFFAFF013200F8FFFAFF018C
:101E10002F00F8FFFBFF013800F6FFFBFF01340045
:101E2000F6FFFDFF013900F5FFFDFF013D00F4FF66
:101E3000FEFF014100F3FFFFFF014100F3FF00003F
:101E4000016900EBFF0000016000EDFF020001529C
:101E500000F0FF0400014A00F2FF0500014300F416
:101E6000FF0600013D00F6FF0700014000F7FF09F3
:101E700000014000F8FF0A00013F00FAFF0B0001DB
:101E80003C00FBFF0B00013D00FEFF0C00013C008D
:101E9000FFFF0C0001320000000A00012E000200CA
:101EA0000900012E0002000900012D0004000800B5
:101EB000012D0004000800012F0005000800012E7C
:101EC000000700060001310007000700013200088A
:101ED000000600013300090005000136000A000475
:101EE000000134000A000300013E000C0003000161
:101EF0003D000C0002000146000E000100014600FA
:101F00000E000100010000000000000201000000BE
:101F10000000013200000000000139000000DEFF77
:101F20000200000000000001320000000000016912
:101F300000EBFFFFFF015B00EEFFFDFF014F00F133
:101F4000FFFBFF012200FAFFFDFF012400FAFFFC66
:101F5000FF014000F6FFF8FF013D00F9FFF6FF0129
:101F60003600FCFFF6FF013C00FFFFF4FF013C00E0
:101F70000100F4FF0136000400F6FF013D000700F8
:101F8000F6FF0140000A00F8FF0124000600FCFFF4
:101F90000122000600FDFF0154001000FBFF015B61
:101FA000001200FDFF0169001500FFFF016400142D
:101FB00000010001560011000300014F000F000551
:101FC00000012600070003000120000500040001B5
:101FD00043000A00090001390007000900013B0025
:101FE00004000B0001370001000B00013C00FFFF63
:101FF0000C00013600FCFF0A00013D00F9FF0A0059
:10200000014000F6FF0800012000FBFF040001264C
:1020100000F9FF0300014F00F1FF0500015B00EE36
:10202000FF0300016400ECFF01000100000000005C
:102030000002010000000000013200000000000169
:10204000BC01B0FF02FF02000000000000013200EE
:102050000000000001AC00DEFFFBFF014300FDFFBC
:102060000D00013C00FFFF0C0001280001000800EA
:102070000123000100070001240002000700011DE8
:102080000003000500011900030004000120000501
:1020900000040001190004000300011D00050003F5
:1020A00000012300070001000133000A00020001C3
:1020B00091001D00010001940284000000017300E2
:1020C000000017000196001E0000000173000000D0
:1020D000E9FF011D013900000001C9001700DFFF01
:1020E000019001B0FF000001A0000000E0FF019698
:1020F00000E2FF000001A00000002000019E027A23
:10210000FF0000014600F2FF0000012300F9FFFF7D
:10211000FF011D00FBFFFDFF011500FDFFFDFF019D
:102120001B00FEFFFBFF011E00FFFFFAFF0147003F
:102130000200F2FF010000000000000201000000A8
:102140000000013200000000000158075AFF5C0443
:10215000020000000000000132000000000001C782
:1021600001A8FFE9FF0141000000F3FF015C014409
:1021700000F1FF014C00F1FFFEFF011001CBFFF465
:10218000FF0141000000F3FF01C7015800E9FF0112
:102190003C0000000C00010701CDFF0D00015700BD
:1021A000EFFF040001570011000400010501330096
:1021B0000B00013C0000000C00010601CDFF0C00EB
:1021C000016100EDFF04000161001300040001063D
:1021D0000133000C0001410000000D00010000006F
:1021E00000000002010000000000013200000000B9
:1021F0000001FF00A8FF83FF0200000000000001B3
:1022000032000000000001C6015800160001410024
:102210000000F3FF010501CDFFF5FF016200EDFFB6
:10222000FBFF0161001300FCFF0105013300F5FF16
:102230000141000000F3FF010501CDFFF5FF01574B
:1022400000EFFFFCFF0157001100FCFF0107013305
:1022500000F3FF013C000000F4FF01C701A8FF17D5
:102260000001410000000D0001100135000C0001CB
:102270004C000F000300015C01BCFF0F0001410096
:1022800000000D000201000000000001320000000B
:10229000000001AC00000099FF02000000000000F7
:1022A0000132000000000001C60158001600013C88
:1022B000000000F4FF010601CDFFF4FF016200ED14
:1022C000FFFBFF0160001300FDFF0106013300F476
:1022D000FF0141000000F3FF010501CDFFF5FF0103
:1022E0005700EFFFFCFF0157001100FCFF01070141
:1022F0003300F3FF013C000000F4FF01C701A8FF19
:10230000170001410000000D0001100135000C0014
:10231000014C000F000300015C01BCFF0F000141F4
:102320000000000D0002010000000000013200006A
:10233000000000019B000000A3FF0200000000005D
:1023400000013200000000000155001100000001F2
:1023500046000000F2FF015500EFFF0000014600BB
:1023600000000E0002010000000000013200000029
:1023700000000197001C00AAFF02000000000000FE
:1023800001320000000000014100FFFFF3FF0124C3
:1023900000F9FF0200012000FAFF0200011900FC11
:1023A000FF0300012000FBFF0400011D00FDFF05ED
:1023B00000011B00FEFF0500011B00FEFF050001E0
:1023C0001E00000006000128000100080001240092
:1023D000020007000124000400060001230005009C
:1023E000050001240006000400012B000800030082
:1023F000012E00090002000132000A00000001372E
:10240000000B000000012E000900FEFF012B000858
:1024100000FDFF0128000700FCFF0123000500FB71
:10242000FF0124000400FAFF0126000300F9FF0168
:1024300023000000F9FF0123000000F9FF01220042
:10244000FDFFFAFF012200FDFFFAFF012700FAFF5E
:10245000FBFF012400FAFFFCFF012B00F8FFFDFF4A
:10246000012E00F7FFFEFF013700F5FFFFFF01150A
:1024700000FCFF010001130100003700012300F9F7
:10248000FFFFFF012000FAFFFEFF011B00FBFFFE24
:10249000FF011600FCFFFEFF011900FDFFFCFF011C
:1024A0001500FDFFFDFF011500FFFFFCFF011900F6
:1024B000FFFFFBFF011E000100FAFF0120000400E6
:1024C000FBFF0123000500FBFF012B000800FDFFBF
:1024D00001000000000000020100000000000132C5
:1024E0000000000000015000190029000200000057
:1024F0000000000132000000000001CD000000D704
:10250000FF012D0009000100012600070003000162
:102510001C00040004000115000300030001160064
:102520000200040001190000000500011400000071
:102530000400011600FEFF0400011200FEFF03006C
:10254000011500FDFF0300011900FCFF0300011647
:1025500000FCFF0200011900FBFF0100011900FB54
:10256000FF01000100000000000002010000000067
:102570000001320000000000019700C4FFBCFF0210
:1025800000000000000001320000000000013E00D9
:10259000FDFFF4FF011900FBFFFFFF011900FCFF25
:1025A000FDFF011D00FDFFFBFF012900FEFFF8FFFD
:1025B0000124000200F9FF0122000300FAFF0120BC
:1025C000000500FCFF0120000600FEFF01230007BC
:1025D00000FFFF0141000D000000012400FAFF048C
:1025E00000011D00FDFF0500011B00FEFF050001AD
:1025F0001E00FFFF06000123000100070001240068
:102600000200070001200004000500012700060069
:10261000050001260007000300012B00080003004D
:1026200001280008000100012D0009000100013C03
:10263000000C00FFFF0139000B00FDFF0138000A0C
:1026400000FBFF012E000700FAFF0116000200FC4C
:10265000FF0116000200FCFF0115000100FCFF0154
:1026600019000000FBFF011E000000FAFF0122001C
:10267000FDFFFAFF012000FCFFFBFF012300FBFF31
:10268000FBFF0132000A0000000137000000F5FFE7
:10269000017C01B4FF0000015A00EEFF0100011EA1
:1026A00000FAFF0100011900FBFF0100012F00F8F3
:1026B000FF0500012E00FAFF0700012D00FCFF08B6
:1026C00000013200FFFF0A000123000100070001A2
:1026D000190001000500011B0002000500011D009A
:1026E0000300050001190004000300011D0005009E
:1026F0000300011E00060001000123000700000086
:102700000100000000000002010000000000013292
:102710000000000000015A003500F6FF0200000032
:1027200000000001320000000000012800F8FF0056
:1027300000012300F9FFFFFF012000FAFFFEFF0167
:102740001D00FBFFFDFF011500FDFFFDFF01150052
:10275000FDFFFDFF011500FFFFFCFF011500FFFF5E
:10276000FCFF0115000100FCFF0115000100FCFF4A
:102770000115000300FDFF0119000300FCFF011B10
:10278000000500FEFF0120000600FEFF011E0006FE
:1027900000FFFF01280008000000012800080000D9
:1027A00000011E00060001000120000600020001D9
:1027B0001D000500030001150003000300011500C2
:1027C00003000300011500010004000115000100D1
:1027D0000400011500FFFF0400011500FFFF0400C5
:1027E000011500FDFF0300011500FDFF0300011DA1
:1027F00000FBFF0300011B00FBFF0200012300F9A7
:10280000FF0100012300F9FF0000010000000000AB
:102810000002010000000000013200000000000181
:102820009100CBFFBBFF020000000000000132005E
:1028300000000000013E00FDFFF4FF011900FBFF56
:10284000FFFF011900FCFFFDFF012200FDFFFAFF61
:10285000012400FEFFF9FF0129000200F8FF011D1D
:10286000000300FBFF0120000500FCFF0122000621
:1028700000FDFF012300070000000141000D00FFE3
:10288000FF012700FAFF0500011D00FDFF05000103
:102890001B00FEFF0500011E00FFFF0600012300D4
:1028A00001000700012000020006000124000400CE
:1028B00006000124000600040001280007000400AF
:1028C000012B000800030001280008000100012D71
:1028D0000009000100013C000C00FFFF0139000B62
:1028E00000FDFF0138000A00FBFF012E000700FA7F
:1028F000FF0116000200FCFF0116000200FCFF01B0
:1029000015000100FCFF0119000000FBFF011E0083
:102910000000FAFF012200FDFFFAFF012000FCFF8A
:10292000FBFF012300FBFFFBFF0132000A00000058
:102930000137000000F5FF017C01B4FF0000015ADF
:1029400000EEFF0100011E00FAFF0100011900FB6B
:10295000FF0100012F00F8FF0500012A00FAFF0621
:1029600000013100FCFF0900013200FFFF0A0001F5
:102970001E0001000600011E0001000600011B00F0
:102980000200050001190003000400011C000400FE
:102990000400011B000500020001200006000200E7
:1029A00001230007000000010000000000000201F8
:1029B000000000000001320000000000015A003554
:1029C00000F6FF02000000000000013200000000DD
:1029D00000012800F8FF0000012400F9FFFEFF01BC
:1029E0001E00FAFFFFFF011D00FBFFFDFF011500A8
:1029F000FDFFFDFF011500FDFFFDFF011500FFFFBD
:102A0000FCFF011500FFFFFCFF0115000100FCFFAA
:102A10000115000100FCFF0119000300FCFF011576
:102A2000000300FDFF011B000500FEFF0120000662
:102A300000FEFF011E000600FFFF0128000800FF46
:102A4000FF01280008000100011E0006000100012E
:102A5000200006000200011B000500020001190011
:102A6000030004000115000300030001150001002C
:102A7000040001150001000400011500FFFF04001F
:102A8000011500FFFF0400011500FDFF0300011503
:102A900000FDFF0300011D00FBFF0300011900FB07
:102AA000FF0100012400F9FF0200012300F9FF00EB
:102AB0000001000000000000020100000000000111
:102AC000320000000000016F00F7FFBEFF020000AF
:102AD0000000000001320000000000014B000F0068
:102AE000000001C3000000D9FF014B00F1FF00000E
:102AF00001C30000002700020100000000000132B5
:102B00000000000000017B00DBFFC0FF02000000AE
:102B10000000000132000000000001370000000B3F
:102B2000000162027A000000013C000000F4FF0195
:102B3000DC00D4FF00000124000600FCFF011D00A2
:102B40000300FBFF011D000300FBFF011E0000004E
:102B5000FAFF0123000000F9FF012200FDFFFAFF48
:102B6000012400FCFFFAFF012000FBFFFCFF01280D
:102B700000F9FFFCFF012900F8FFFEFF012900F822
:102B8000FFFEFF012D00F7FFFFFF013700F5FF01FA
:102B900000013300F6FF0200012B00F8FF030001E3
:102BA0002800F9FF0400012300FBFF0500012000BD
:102BB000FCFF0500012000FEFF0600011E00FFFFD4
:102BC0000600011E000100060001200002000600B0
:102BD0000120000400050001240006000400013764
:102BE00000F5FF00000201000000000001320000BB
:102BF000000000014B002D0000000200000000005A
:102C00000001320000000000014600F2FFFFFF015A
:102C10002F00F7FFFDFF011D00FBFFFDFF011C0062
:102C2000FCFFFCFF011600FEFFFCFF011900FFFF87
:102C3000FBFF0115000100FCFF0110000100FDFF7A
:102C40000119000300FCFF0119000400FDFF011B36
:102C5000000500FEFF011B000500FEFF0123000729
:102C600000FFFF0128000800FFFF01280008000105
:102C70000001230007000100011E00060001000101
:102C80001D000500030001150003000300011500ED
:102C900003000300011600020004000114000000FC
:102CA000040001140000000400011200FEFF0300F4
:102CB000011900FDFF0400011500FDFF0300011DC7
:102CC00000FBFF0300011E00FAFF0100012400F9D0
:102CD000FF0200012300F9FF0000010000000000D6
:102CE00000020100000000000132000000000001AD
:102CF0006900FFFFC1FF0200000000000001320078
:102D000000000000013C000C00FFFF0133000A003E
:102D1000FEFF012D000800FCFF012B000700FBFF58
:102D20000120000400FBFF011D000300FBFF012048
:102D3000000200FAFF0123000000F9FF0123000058
:102D400000F9FF012600FDFFF9FF011D00FDFFFB5B
:102D5000FF012A00FAFFFAFF012400FAFFFCFF013D
:102D60002B00F8FFFDFF012E00F7FFFEFF013200F0
:102D7000F6FF0000014B00F1FF0100011E00FAFF09
:102D80000100011B00FBFF0200013300F7FF0500FB
:102D9000013100F9FF0700013100FCFF0900012D9E
:102DA00000FFFF09000128000100080001200002C7
:102DB00000060001240004000600012300050005B0
:102DC0000001240006000400012B0008000300019C
:102DD00033000A0002000132000A00010001000075
:102DE00000000000020100000000000132000000AD
:102DF00000000116000000F3FF02000000000000C8
:102E000001320000000000012800F8FF000001244A
:102E100000F9FFFEFF011E00FAFFFFFF011900FC91
:102E2000FFFDFF011900FCFFFDFF011900FDFFFC84
:102E3000FF011500FFFFFCFF011900FFFFFBFF0171
:102E400015000100FCFF0115000100FCFF01190045
:102E50000300FCFF0119000400FDFF011D00050037
:102E6000FDFF011B000500FEFF0128000800FFFF19
:102E700001280008000000012300070000000123D2
:102E8000000700010001200006000200011D0005EE
:102E900000030001150003000300011900030004F2
:102EA00000011500010004000115000100040001EB
:102EB0001900FFFF0500011500FFFF0400011900C4
:102EC000FDFF0400011500FDFF0300011D00FBFFD5
:102ED0000300011E00FAFF0100012400F9FF0200B7
:102EE000012800F8FF0000010000000000000201BE
:102EF00000000000000132000000000001AB00E112
:102F0000FF9EFF02000000000000013200000000F0
:102F100000014200F3FFFEFF012D00FFFF09000149
:102F20001E0000000600011B000200050001150044
:102F30000300030001160004000200012300070043
:102F400001000137000B00010001FF003300000009
:102F5000012D00000009000137000B000000012DC9
:102F6000000000F7FF016E0016000000014F00098D
:102F700000F3FF019B00E1FF0000013C000000F4B2
:102F8000FF013700F5FF0000013C0000000C0001CC
:102F90000401CCFF0000012800F8FF00000115002B
:102FA000FDFFFDFF011500FFFFFCFF011900000000
:102FB000FBFF010000000000000201000000000013
:102FC00001320000000000012200F3FFF0FF0200C8
:102FD0000000000000013200000000000155001157
:102FE0000000000146000000F2FF015500EFFF0065
:102FF0000001460000000E00020100000000000178
:103000003200000000000196002000ACFF0200002A
:103010000000000001320000000000013D00FEFF42
:10302000F4FF012300F9FF0100012000FAFF020074
:10303000012200FAFF0300011C00FCFF0400011C38
:1030400000FCFF0400011D00FDFF0500012000FE43
:10305000FF0600011900000005000128000100081A
:103060000001200002000600012400040006000107
:1030700023000500050001240006000400012B00C8
:1030800008000300012D00090001000137000B00BA
:1030900001000141000D00FFFF013E000C00FDFF9B
:1030A000011B000500FEFF0119000400FDFF0119CE
:1030B000000400FDFF0119000300FCFF012D0004C6
:1030C00000F8FF0132000100F6FF0119000000FBCB
:1030D000FF011E00FFFFFAFF011900FDFFFCFF01C9
:1030E0001900FDFFFCFF011C00FCFFFCFF011D009F
:1030F000FBFFFDFF011B00FBFFFEFF012300F9FFAB
:10310000FFFF013D00FEFF0C000129000800020046
:1031100001240006000400011D0003000500011E3B
:10312000000100060001140000000400011600FE6A
:10313000FF0400011900FDFF0400011500FDFF035D
:1031400000011D00FBFF0300012000FAFF02000147
:103150002300F9FF0100012800F8FF00000128000A
:10316000F8FF0000012300F9FFFFFF012000FAFF34
:10317000FEFF011D00FBFFFDFF011500FDFFFDFF30
:10318000011500FDFFFDFF011500FFFFFCFF01150C
:1031900000FFFFFCFF0124000200F9FF01240004EE
:1031A00000FAFF0112000300FEFF0116000400FEFA
:1031B000FF012E000900FEFF0100000000000002D8
:1031C00001000000000001320000000000012400A6
:1031D0000C00EEFF020000000000000132000000C1
:1031E0000000013C000C00FFFF0133000A00FEFF5D
:1031F000012D000800FCFF012B000700FBFF012050
:10320000000400FBFF011D000300FBFF0120000282
:1032100000FAFF0123000000F9FF0123000000F97C
:10322000FF012600FDFFF9FF012200FDFFFAFF016B
:103230002700FAFFFBFF012400FAFFFCFF012B002F
:10324000F8FFFDFF012E00F7FFFEFF013200F6FF41
:103250000000014B00F1FF0100011E00FAFF010018
:10326000011B00FBFF0200013300F7FF05000131E5
:1032700000F9FF0700013100FCFF0900012D00FFEC
:10328000FF090001230001000700012400020007DC
:1032900000012400040006000123000500050001D0
:1032A000240006000400012B000800030001330085
:1032B0000A0002000132000A0001000100000000C3
:1032C00000000201000000000001320000000000C8
:1032D0000116000000F3FF020000000000000132B0
:1032E0000000000000012800F8FFFFFF012300F9A3
:1032F000FFFFFF012000FAFFFEFF011600FCFFFEAA
:10330000FF011C00FCFFFCFF011500FDFFFDFF019C
:103310001500FFFFFCFF011900FFFFFBFF01150077
:103320000100FCFF0115000100FCFF011900030072
:10333000FCFF0119000400FDFF011D000500FDFF59
:10334000011B000500FEFF0128000800FFFF012807
:10335000000800FFFF012300070001000123000710
:1033600000010001200006000200011D000500030D
:10337000000115000300030001190003000400010F
:1033800015000100040001150001000400011900EE
:10339000FFFF0500011500FFFF0400011500FDFF00
:1033A0000300011900FDFF0400011B00FBFF0200E8
:1033B000012000FAFF0200012300F9FF01000128AB
:1033C00000F8FF0100010000000000000201000001
:1033D00000000001320000000000018B00D4FFB9A2
:1033E000FF020000000000000132000000000001A8
:1033F000B801580000000137000000F5FF013C0053
:10340000F4FF00000124000600FCFF01240004007A
:10341000FAFF0122000300FAFF0123000100F9FF77
:10342000012300FFFFF9FF012200FDFFFAFF012346
:1034300000FBFFFBFF012000FAFFFEFF012B00074E
:1034400000FBFF0127000500FAFF0120000200FA3F
:10345000FF011E000100FAFF0119000000FBFF013F
:103460001900FFFFFBFF011900FDFFFCFF01150024
:10347000FDFFFDFF011900FCFFFDFF011B00FBFF2D
:10348000FEFF011E00FAFFFFFF012300F9FF00000D
:10349000013101C3FF0000013C0000000C000118D5
:1034A000013800000001230007000100011E000692
:1034B00000010001100003000100011500030003DA
:1034C00000011600020004000114000000040001C5
:1034D0000F0000000300011500FFFF0400011200AF
:1034E000FEFF0300011200FDFF0200011500FDFFB9
:1034F0000300011900FBFF0100013D00F4FF020081
:1035000001FF00CDFF0000013C0000000C00011D88
:103510000139000000012D00090001000120000612
:1035200000020001120003000200010B0001000272
:1035300000011E0001000600011900000005000145
:103540001D00FDFF0500011C00FCFF040001200020
:10355000FAFF0200012900F8FF0200013200F6FF25
:10356000000001E600D2FF000001410000000D0054
:10357000020100000000000132000000000001ED27
:1035800005CB0089FC0200000000000001320000B1
:1035900000000001A400F5FFE1FF01A100F7FFE139
:1035A000FF012201F1FFC8FF010501F5FFCDFF0179
:1035B000DA00F9FFD5FF01B100FBFFDDFF01870055
:1035C000FEFFE5FF016E00FEFFEAFF0201000000C2
:1035D00000000132000000000001F8013E00280157
:1035E0000200000000000001320000000000018025
:1035F0000280FF0000020100000000000132000014
:10360000000000010C02EC0030FF0200000000008E
:10361000000132000000000001AB00F7FF210001B3
:103620009500F6FF1C00019600F5FF1C00019D00AF
:10363000F4FF1D0001C000F0FF230001CE00ECFFED
:103640002400016300F6FF1100016100F5FF100086
:10365000016400F4FF1000016000F4FF0F00012A74
:1036600000FAFF0600012700FAFF0500012400FA16
:10367000FF0400012000FAFF0200012000FAFF020F
:1036800000011E00FAFF0000013C00F4FF000001F1
:103690003D00F4FFFEFF014200F3FFFEFF01420088
:1036A000F3FFFEFF014600F2FF0000013700F5FFC7
:1036B0000000012D00F7FFFFFF012B00F8FFFDFFC9
:1036C000012000FBFFFCFF010E00FEFFFEFF010FCB
:1036D000000000FDFF011000FFFFFDFF01150001CC
:1036E00000FCFF012D000400F8FF0140000800F677
:1036F000FF0120000400FBFF0124000200F9FF018C
:103700002E000200F7FF012D000000F7FF012D0041
:10371000FFFFF7FF012E00FEFFF7FF012800FCFF6F
:10372000F9FF012700FBFFFAFF0201000000000083
:1037300001320000000000019E02FF00C9FE0200ED
:10374000000000000001320000000000011E000621
:103750000000000115000400010001120003000236
:103760000001160002000400011B00020005000118
:10377000190001000500014600FFFF0E00014C008A
:10378000FEFF0F00014C00FDFF0F00018E00FBFF4C
:103790001C00018F00FAFF1C000201000000000065
:1037A00001320000000000012902E9FEB40002001D
:1037B000000000000001320000000000015D00EE8A
:1037C000FFFBFF014700F2FFFEFF013700F5FF009E
:1037D00000012F00F7FF0300012700FAFF05000199
:1037E0002700FBFF0600012600FDFF0700012E0059
:1037F000FEFF0900015600FDFF1100012D00FFFF33
:103800000900012900FEFF0800012600FDFF070056
:10381000012000FCFF0500012400FAFF040001283C
:1038200000F8FF0100018A01EFFFB3FF011E000055
:1038300000FAFF0119000100FBFF0136000400F649
:10384000FF013A000600F6FF0136000600F7FF010F
:1038500060000C00F1FF0128000400F9FF012000C6
:103860000200FAFF010B00FFFFFEFF011000FFFF47
:10387000FDFF012E00F9FFFAFF018A00EBFFEEFFCA
:10388000014B00F4FFF7FF014A00F6FFF5FF01438B
:1038900000F7FFF6FF011D00FDFFFBFF011B00FE0F
:1038A000FFFBFF014B01F3FFBFFF010401F6FFCD5A
:1038B000FF011900050000000119000500010001C9
:1038C0001600040002000116000400020001350089
:1038D00007000800013A0006000A000194000C00ED
:1038E0001B00015E000800110001600009001100CA
:1038F000011D0003000500011C0004000400014438
:10390000000B000800014A000D000700014A000EEC
:103910000005000147000E0002000123000700001F
:10392000000123000700FFFF0120000600FEFF0149
:103930001D000500FDFF0120000500FCFF01240023
:103940000400FAFF0131000400F7FF013E0003000C
:10395000F4FF0141000100F3FF0146000000F2FF07
:103960000201000000000001320000000000010A16
:10397000000600000002000000000000013200000C
:103980000000000166001400040001510010000254
:1039900000013C000C0000000133000A00FEFF01A2
:1039A0002D000800FCFF0132000800FAFF0135007D
:1039B0000800F9FF0143000900F6FF014E000A006C
:1039C000F4FF014E000A00F4FF019E001200E6FF22
:1039D0000138012100CBFF0155000800F1FF015C17
:1039E000000900F0FF01BE000F00DDFF01BF000D68
:1039F00000DCFF01B1000A00DEFF01F7000C00D07F
:103A0000FF01F5000A00D0FF015A000100EEFF019E
:103A10001E00FFFFFAFF011500FFFFFCFF0112006F
:103A2000FEFFFDFF011200FDFFFEFF011000FDFF84
:103A3000FFFF011000FDFF0100012E00F7FF020053
:103A4000012F00F7FF0300013900F5FF03000132E9
:103A500000F6FF0100013200F6FF0000012E00F722
:103A6000FF0200013100F7FF0400013600F7FF06F6
:103A700000013900F7FF0700013C00F8FF090001D1
:103A80004300F7FF0A00014400F8FF0B0001890022
:103A9000F1FF1700019200F1FF1900018B00F2FF06
:103AA0001800018000F3FF16000201000000000072
:103AB00001320000000000019B01C4FFEF00020082
:103AC000000000000001320000000000015F00ED76
:103AD000FF0000015100F0FFFEFF013D00F4FFFE7A
:103AE000FF013100F7FFFCFF011500FDFFFDFF01A5
:103AF0001500FDFFFDFF011600FEFFFCFF01150094
:103B0000FFFFFCFF013C00FFFFF4FF014C0002003F
:103B1000F1FF0156000300EFFF0161000400EDFF1B
:103B20000162000500EDFF0165000700EDFF016582
:103B3000000900EEFF0132000600F8FF0132000626
:103B400000F8FF0135000700F8FF0131000700F918
:103B5000FF0132000800FAFF0133000900FBFF02F9
:103B600001000000000001320000000000011D0003
:103B7000F1FF090002000000000000013200000017
:103B8000000001FF00F6FFCEFF015601F2FFBDFF6E
:103B90000201000000000001320000000000018668
:103BA000023D01DF000200000000000001320000C1
:103BB000000000019300F7FFE4FF018200F9FFE736
:103BC000FF010701F3FFCDFF019F00F9FFE1FF01B6
:103BD000C500FAFFD9FF01D400FAFFD6FF01DD00CE
:103BE000FCFFD4FF020100000000000132000000D1
:103BF0000000018F01F7FFEF00020000000000004D
:103C000001320000000000017F000B00E9FF0146C7
:103C100000F2FFFFFF017D00F6FF17000141000DDC
:103C2000000100010000000000000201000000008F
:103C30000001320000000000011700F2FF00000246
:103C400000000000000001320000000000016A00D6
:103C5000FDFFEBFF0172000900EBFF015D000500B5
:103C6000120002010000000000013200000000000C
:103C7000012700F4FF1400020000000000000132E0
:103C80000000000000014F01BDFFFFFF0201000026
:103C900000000001320000000000016E004000EF53
:103CA000FF020000000000000132000000000001DF
:103CB0000901CBFF000002010000000000013200FA
:103CC00000000000016F003F00EBFF020000000059
:103CD00000000132000000000001FA00CEFF0000E9
:103CE0000201000000000001320000000000017924
:103CF000003A002C00020000000000000132000029
:103D000000000001F2021D0094000201000000000A
:103D10000001320000000000010401D5FF6AFF022B
:103D20000000000000000132000000000001F70266
:103D30001D0095000201000000000001320000009B
:103D40000000011D01FCFF55FF0200000000000003
:103D50000132000000000001BF021B008A000201C6
:103D6000000000000001320000000000012B0002F2
:103D7000001A0002000000000000013200000000F4
:103D800000012800FFFF0800012400FEFF070001DA
:103D90000700FFFF0100010700FFFF0100010E0007
:103DA000FEFFFEFF012800FCFFF9FF0201000000FA
:103DB000000001320000000000011800F2FFFEFFC9
:103DC0000200000000000001320000000000012499
:103DD000000200070001150003000300010B0002B0
:103DE0000001000141000D00000002010000000080
:103DF000000132000000000001EF007AFF330002F2
:103E00000000000000000132000000000001260058
:103E10000700FDFF0126000700FDFF01320008003A
:103E2000FAFF012E000700FAFF0135000700F8FF36
:103E30000136000600F7FF0136000600F7FF013AE1
:103E4000000600F6FF0138000500F6FF013B000404
:103E500000F5FF0139000300F5FF0133000200F611
:103E6000FF0137000100F5FF012D000000F7FF0101
:103E70003200FFFFF6FF012D00FCFFF8FF012600D6
:103E8000FDFFF9FF012300FBFFFBFF011D00FBFF0E
:103E9000FDFF012200FAFFFDFF011E00FAFFFFFFF8
:103EA000011E00FAFFFFFF011E00FAFF01000123BF
:103EB00000F9FF0100013F00F4FF0400014300F49A
:103EC000FF0600013900F7FF0700013500F8FF0782
:103ED00000020100000000000132000000000001AB
:103EE000F30085003C0002000000000000013200E9
:103EF0000000000001D600D7FFF4FF02010000001F
:103F00000000013200000000000140002500F5FF24
:103F1000020000000000000132000000000001C1AA
:103F200000DBFF0B00020100000000000132000076
:103F3000000000016B003F000C00020000000000C8
:103F400000013200000000000140014000000001BB
:103F500036013E0000000176027E00FDFF014C00AC
:103F60000F00FEFF012D000900FFFF0110000300FC
:103F7000FFFF010B000100FEFF0110000100FDFF2B
:103F80000119000000FBFF012800FFFFF8FF010BF3
:103F900000FFFFFEFF010B00FEFFFFFF012D00F7FA
:103FA000FFFFFF015000F0FFFFFF017B0281FF01D7
:103FB00000013B01C1FF0100014001C0FF030001FE
:103FC0000B00FEFF0100010E00FEFF0200011500C4
:103FD000FFFF0400011900000005000119000100A5
:103FE0000500011500010004000112000200030099
:103FF00001100003000100010000000000000201A8
:104000000000000000013200000000000147001520
:1040100000DBFF0200000000000001320000000091
:104020000001BA00EFFFDFFF015900F8FFF0FF01C8
:104030005E00F8FFEFFF0201000000000001320007
:1040400000000000016D00EBFFC2FF020000000055
:10405000000001320000000000016200FBFFEDFFE4
:10406000016000FEFFEDFF016000FEFFEDFF015F5C
:1040700000FFFFEDFF01C3000100D9FF01B90001FE
:1040800000DBFF0201000000000001320000000020
:1040900000015B014300C5000200000000000001B8
:1040A00032000000000001C800D8FFFFFF0201003D
:1040B0000000000001320000000000015002EBFE91
:1040C00022FF02000000000000013200000000009A
:1040D0000128000800010001260007000300012755
:1040E0000006000500012300050005000155000839
:1040F000000F000162000800120001B6000D00224E
:104100000002010000000000013200000000000178
:10411000F20156001E010200000000000001320002
:1041200000000000010C01E8FF3000020100000067
:104130000000013200000000000154002100DAFFFD
:10414000020000000000000132000000000001FF3A
:1041500000EAFF2E00020100000000000132000012
:10416000000000019B00B4FFCAFF02000000000035
:104170000001320000000000011101E6FF300002E2
:104180000100000000000132000000000001EC000E
:104190008A001F0002000000000000013200000041
:1041A0000000011C01E9FF340002010000000000D2
:1041B00001320000000000017C00E6FFBAFF0200AF
:1041C00000000000000132000000000001C201A652
:1041D000FF010002010000000000013200000000A9
:1041E00000019C005C00F0FF0200000000000001E4
:1041F00032000000000001C701A5FF02000201001B
:10420000000000000132000000000001E60068002C
:104210005B0002000000000000013200000000000E
:1042200001BD01A7FF0100020100000000000132F2
:1042300000000000000194005900FFFF0200000090
:1042400000000001320000000000018C01F2FFB20A
:10425000FF02010000000000013200000000000128
:104260007C0019004600020000000000000132003E
:1042700000000000018701F2FFB3FF02010000000F
:1042800000000132000000000001CB00AAFF560030
:104290000200000000000001320000000000018E5A
:1042A00001F0FFB2FF020100000000000132000037
:1042B00000000001DD007400C0FF020000000000EB
:1042C000000132000000000001BD01A7FF01000253
:1042D00001000000000001320000000000019B000E
:1042E0004B00370002000000000000013200000017
:1042F0000000014100F5FF0700020100000000007E
:10430000013200000000000117000000F2FF02006F
:10431000000000000001320000000000014600FF24
:10432000FF0E00020100000000000132000000004A
:10433000000119000100F1FF02000000000000016F
:104340003200000000000144000B000800020100E0
:10435000000000000132000000000001B60093FFE1
:104360000100020000000000000132000000000017
:1043700001350007000800020100000000000132C2
:104380000000000000011B000200F0FF020000001E
:1043900000000001320000000000013900F7FF07B3
:1043A00000020100000000000132000000000001D6
:1043B000F2007B004D00020000000000000132000E
:1043C00000000000014400F5FF08000201000000A9
:1043D00000000132000000000001A000A0FFF9FF72
:1043E0000200000000000001320000000000018A0D
:1043F00001EFFFB3FF0201000000000001320000E6
:10440000000000015C001A00CFFF02000000000065
:104410000001320000000000011301E7FF3100023B
:1044200001000000000001320000000000016D00EA
:104430002200C8FF0200000000000001320000005E
:104440000000013900F7FF07000201000000000032
:104450000132000000000001A4006200F9FF020028
:10446000000000000001320000000000014E0007C3
:10447000000E0002010000000000013200000000F8
:104480000001D40086FF24000200000000000001AB
:1044900032000000000001410000000D0002010098
:1044A0000000000001320000000000017700080059
:1044B0004700020000000000000132000000000080
:1044C0000131000700070002010000000000013276
:1044D00000000000000143026200B3FE0200000081
:1044E00000000001320000000000015101F2FFBE97
:1044F000FF02010000000000013200000000000186
:104500006B0019003B0002000000000000013200B7
:1045100000000000014B01F3FFBFFF02010000009B
:1045200000000132000000000001450023001600D9
:104530000200000000000001320000000000014BFA
:1045400001F3FFBFFF020100000000000132000084
:1045500000000001FD009EFF74000200000000004A
:104560000001320000000000015501F3FFBDFF0211
:1045700001000000000001320000000000011800EE
:104580000300F2FF02000000000000013200000002
:10459000000001FB001A00D5FF020100000000002E
:1045A00001320000000000017B00300038000200F2
:1045B000000000000001320000000000018101B392
:1045C000FF010002010000000000013200000000B5
:1045D000000186004F00F2FF020000000000000111
:1045E000320000000000017C01B4FF000002010065
:1045F0000000000001320000000000017F004C00BC
:104600000000020000000000000132000000000075
:1046100001F4001700D5FF02010000000000013284
:104620000000000000015600F3FF3200020000000D
:104630000000000132000000000001ED001600D66D
:10464000FF02010000000000013200000000000134
:10465000C400ECFF74000200000000000001320002
:1046600000000000018101B3FF0000020100000012
:1046700000000132000000000001FD00580084FF2E
:104680000200000000000001320000000000016D87
:1046900001B7FF000002010000000000013200002D
:1046A00000000001E4004900740002000000000066
:1046B000000132000000000001ED001600D6FF02EC
:1046C00001000000000001320000000000015B005A
:1046D000D3FFE1FF020000000000000132000000F3
:1046E0000000013D000A0007000201000000000078
:1046F00001320000000000011600F4FF0600020075
:104700000000000000013200000000000143000C26
:1047100000FAFF020100000000000132000000006A
:1047200000011700F4FF0700020000000000000174
:104730003200000000000147000200F2FF02010009
:104740000000000001320000000000018500B1FF00
:104750000D00020000000000000132000000000017
:10476000013E000300F4FF020100000000000132DE
:104770000000000000017F0004004C000200000067
:1047800000000001320000000000015001F3FFBEF4
:10479000FF020100000000000132000000000001E3
:1047A00002000000FFFF02000000000000013200D4
:1047B000000000000143000900F6FF0201000000B4
:1047C000000001320000000000011600F7FF0A009F
:1047D000020000000000000132000000000001247F
:1047E0000006000400020100000000000132000089
:1047F000000000010D00FAFFFBFF020000000000B6
:1048000000013200000000000102011B00D4FF0281
:104810000100000000000132000000000001020061
:104820000000FFFF02000000000000013200000055
:1048300000000135000800F9FF020100000000003F
:104840000132000000000001CB00EBFF7800020005
:1048500000000000000132000000000001200005FF
:10486000000400020100000000000132000000000E
:10487000000182004E000000020000000000000164
:104880003200000000000141000B00F9FF020100AE
:10489000000000000132000000000001C300010020
:1048A0008BFF020000000000000132000000000049
:1048B0000139000800080002010000000000013278
:1048C000000000000001AF0E3200CF08020100001E
:1048D00000000001320000000000020100000000A2
:0848E0000000000000000000D0
:0848E800E9CFE4FFEACFE4FF91
:1048F000E652D9CFE6FFDACFE6FFE1CFD9FFE2CF2C
:10490000DAFFE6529EA0E9D29E90FE0ECF6E3D0EDB
:10491000CE6E19C530F50501316B0501010E326F00
:1049200005011A511B111C111D1117E0D880000E32
:1049300005011A55000E1B55190E1C55000E1D556C
:1049400006E205011A6B1B6B1C6B1D6B06D0050183
:104950001A07000E1B5B1C5B1D5B05011A511B1126
:104960001C111D1102E00501326B0501000501E07B
:104970003DD10501115112111311141107E1050167
:10498000155116111711181101E12FD10501D75139
:104990000DE1050119A302D08C8E01D08C9E05017A
:1049A00019A702D08C8A01D08C9A0FD00501D705A7
:1049B0000CE1050119A302D08B8401D08B94050171
:1049C00019A702D0898401D08994050111511211CF
:1049D0001311141164E0010EE96E050EEA6E0E016A
:1049E000B751EE240E01B76F0E01B851EE200E0143
:1049F000B86F0E01B951EE200E01B96F0E01BA5118
:104A0000EE200E01BA6FB7CE4CF0B8CE4DF0B9CE55
:104A10004EF0BACE4FF04C6A4D6A4E6A800E4F1679
:104A20004C504D104E104F1028E0B7CEB7FEB8CE08
:104A3000B8FEB9CEB9FEBACEBAFE0E01BA9F010ECB
:104A4000050130110501306F0501010E316F0501BF
:104A50001107000E125B135B145B050119A307D04D
:104A600005012807000E295B2A5B2B5B06D0050198
:104A7000282B000E29232A232B2305010951050188
:104A8000012705010A510501022305010B5105010A
:104A9000032305010C51050104230501326B0501B7
:104AA000155116111711181164E0050EE96E050E67
:104AB000EA6E0E01BB51EE240E01BB6F0E01BC511C
:104AC000EE200E01BC6F0E01BD51EE200E01BD6F38
:104AD0000E01BE51EE200E01BE6FBBCE4CF0BCCE1F
:104AE0004DF0BDCE4EF0BECE4FF04C6A4D6A4E6AD0
:104AF000800E4F164C504D104E104F1028E0BBCE7C
:104B0000BBFEBCCEBCFEBDCEBDFEBECEBEFE0E010B
:104B1000BE9F040E050130110501306F0501010E25
:104B2000316F05011507000E165B175B185B050159
:104B300019A707D005012C07000E2D5B2E5B2F5BFC
:104B400006D005012C2B000E2D232E232F2305012B
:104B50000D510501052705010E510501062305012B
:104B60000F51050107230501105105010823050117
:104B7000326B0501315139E00501D75107E10501DB
:104B800030B18C8C050130B58C8809D00501D70572
:104B900006E1050130B18B8C050130B5898A000032
:104BA0000000000000000000000000000000000005
:104BB00000000000000000000000000000000000F5
:104BC00000000000000000000000000000000000E5
:104BD000000000000501D75103E18C9C8C9805D0A2
:104BE0000501D70502E18B9C899AD7D0030E0501F8
:104BF000005D01E0A0D00501E45101E179D005019B
:104C00002105DF6E05011E511F1137E1DF50EA6AF1
:104C1000310FE96E0E0EEA22EF500E01EA6AAC2562
:104C2000E96EAD51EA22EF6AEA6ADF34FE0BEA363A
:104C3000E96E790EE9260E0EEA22EE6AED6AEA6A5C
:104C4000DF34FE0BEA36E96E490EE9260E0EEA2243
:104C5000EE6AED6ADF50EA6A310FE96E0E0EEA2263
:104C6000EF6AEA6ADF34FE0BEA36E96E010EE926E6
:104C70000E0EEA22EE6AED6A3BD0EA6ADF34FE0BE2
:104C8000EA36E96E790EE9260E0EEA2222C5EEFF1B
:104C900023C5EDFFEA6ADF34FE0BEA36E96E490E02
:104CA000E9260E0EEA221EC5EEFF1FC5EDFFDF50FE
:104CB000EA6A310FE96E0E0EEA2220C5EFFFEA6ABA
:104CC000DF34FE0BEA36E96E010EE9260E0EEA220B
:104CD000EE50ED100DE1EA6ADF34FE0BEA36E96EC4
:104CE000010EE9260E0EEA221EC5EEFF1FC5EDFFDE
:104CF0000E01B6510501205D1DE10E01B051050107
:104D00001E1904E10E01B15105011F190AE1050147
:104D1000010ED86F0501D46B0501E35101E08A98BB
:104D200009D00501D86B0501010ED46F0501E351CF
:104D300001E08A8832D0040E0501005D2EE10501F4
:104D4000245124E025C54CF026C54DF0D8904D32B5
:104D50004C32D8904D324C324C50BB6EE1C54EF0C7
:104D6000E2C54FF0040ED8904E364F36E804FBE112
:104D7000300E4E16000E4F16CF0EBA1400014E1014
:104D80004C6E4FC04DF04C50BA6E04D0BB6ACF0E83
:104D9000BA14BA6E0501010E326F0501325101E1FC
:104DA00090D005011A511B111C111D1101E089D071
:104DB0000501006B0501275101E07ED034C500F5E7
:104DC00035C501F536C502F537C503F538C504F517
:104DD00039C505F53AC506F53BC507F53CC508F5E7
:104DE0003DC509F53EC50AF53FC50BF540C50CF5B7
:104DF00041C50DF542C50EF543C50FF544C510F587
:104E000045C511F546C512F547C513F548C514F556
:104E100049C515F54AC516F54BC517F54CC518F526
:104E20004DC519F54EC51AF54FC51BF550C51CF5F6
:104E300051C51DF552C51EF553C51FF554C520F5C6
:104E400055C521F556C522F557C523F558C524F596
:104E500059C525F55AC526F50501346B0501356B95
:104E6000366B376B386B0501396B3A6B3B6B3C6BC0
:104E70000501456B466B476B486B0501496B4A6BF7
:104E80004B6B4C6B05014D6B05014E6B4F6B506BC3
:104E9000516B0501526B536B0501546B0501556B4A
:104EA0000501566B576B0501586B0501596B5A6B21
:104EB0000501010E276F05D005011A6B1B6B1C6BDA
:104EC0001D6B8050800B06E00501DF5106E081502C
:104ED000010B03E10501010EDE6FE552E552E5CF5E
:104EE000DAFFE7CFD9FFE552E5CFEAFFE5CFE9FFEB
:104EF0001100D9CFE6FFDACFE6FFE1CFD9FFE2CF4D
:104F0000DAFFE652DF6ADFCF00F0020EE76E00182C
:104F1000E8AE02D0E73402D0E750005C3CE2DFCFDD
:104F2000E9FFEA6AE9BEEA68D890E936EA36D8903D
:104F3000E936EA36010EE926050EEA22010EEE6E8A
:104F4000EE6AEE6AEE6ADFCFE9FFEA6AE9BEEA6876
:104F5000D890E936EA36D890E936EA36110EE926D5
:104F6000050EEA22EE6AEE6AEE6AEE6ADFCFE9FF2C
:104F7000EA6AE9BEEA68D890E936EA36D890E936B6
:104F8000EA36090EE926050EEA22EE6AEE6AEE6AB4
:104F9000EE6ADF2AB8D70501006B0501196B050120
:104FA0001A6B1B6B1C6B1D6B05011E6B1F6B0501C8
:104FB000206B0501216B0501226B236B0501010E9E
:104FC000276FCD82CD9ECD9CCD9ACD98CD96CD9498
:104FD000FE0ECF6E3D0ECE6ECD809F809E909D804A
:104FE00092809F9C010EE66EE66A2BEC41F0E55242
:104FF000E552010EE66E0B0EE66E2BEC41F0E5522B
:10500000E5528D8496948D829692898C929C8D80A7
:1050100096908B8294928C9C959C8C9E959E8C985D
:1050200095988C9A959A949E828E000000000000BC
:105030000000000000000000000000000000000070
:105040000000000000000000000000000000000060
:10505000948E829E0501010EE36F0501010EE46F3F
:105060008A9893980501010ED46F0501D76B05014D
:10507000010ED86F0501DD6B0501D96BDA6BDB6BB7
:10508000DC6B0501DE6B9380F19E0501010EDF6F85
:1050900093968196C5EC34F0E552E552E5CFDAFF00
:1050A000E7CFD9FF120017EC35F0BAEC36F0F3EC8D
:1050B00035F015EC39F0E66AD950FEEC38F007010E
:1050C000B45101E0B3D0DF0424E1C3EC36F00CE1CD
:1050D0000501010EE36FE46B6EEC36F002E2E16A6B
:1050E000E552E16E00500DD01CEC37F006E1ED50BA
:1050F00004E10501E36B010E03D00501010EE36F2E
:10510000E46F000EE66EE66AD8C5E6FF4CEC37F0B9
:105110008BD0020EDF5C2EE1C3EC36F009E1050115
:10512000D76B96909492959C959E9598959A1BD046
:105130001CEC37F00DE1ED500BE10501010E5AECCE
:1051400037F094949294949C929A959292926CD007
:10515000ECEC38F0020EEE1867E1ED5065E1050168
:10516000020E5AEC37F094849284948C928A958241
:1051700092825AD0040EDF5C07E1010EDBCFB0FE55
:10518000020EDBCFB1FE50D0050EDF5C07E1010E51
:10519000DBCFAEFE020EDBCFAFFE46D0080EDF5CEB
:1051A0000FE1ECEC38F0180ED880EE54000EED5400
:1051B00003E2180E66EC37F0010EDBCFAAFE34D006
:1051C000090EDF5C0FE1ECEC38F0060ED880EE54EF
:1051D000000EED5403E2060E66EC37F0010EDBCF55
:1051E000ABFE22D00A0EDF5C03E16DEC37F009D094
:1051F0000B0EDF5C03E16DEC37F016D00C0EDF5CBC
:1052000007E1010EDBCFB4FE020EDBCFB5FE0CD002
:105210000D0EDF5C09E1C3EC36F004E00501010E80
:10522000DF6F02D00501DF6B97EC40F0FAEC38F04D
:105230002BEF35F017EC35F0200EE12402E3E168A6
:10524000E6520AEC38F020EC37F0E66AD950040F49
:105250000DEC39F0060F0DEC39F0080FF0EC38F0DA
:105260000C0F96EC37F0D950040F08EC37F004E23D
:10527000EA0E006EBA0E83D2D950060F08EC37F052
:1052800004E2BC0E006EBA0E7AD2FAEC36F0040ECE
:10529000005C000E015804E2920E006EBA0E6FD24E
:1052A000060EDBCF00F0070EDBCF01F0040E005C32
:1052B000000E015804E26A0E006EBA0E60D20701B9
:1052C000B45101E065D2080EDBCF10F0090EDBCF40
:1052D00011F00A0EDBCF12F00B0EDBCF13F010C073
:1052E00038F011C039F012C03AF013C03BF0080E8C
:1052F000DBCF3DF0090EDBCF3EF00A0EDBCF3FF0F7
:105300000B0EDBCF40F080EC69F034C00CF035C000
:105310000DF036C00EF037C00FF00C0EDBCF14F0DE
:105320000D0EDBCF15F00E0EDBCF16F00F0EDBCF20
:1053300017F014C038F015C039F016C03AF017C095
:105340003BF00C0EDBCF3DF00D0EDBCF3EF00E0E32
:10535000DBCF3FF00F0EDBCF40F080EC69F00C505C
:105360003424086E0D503520096E0E5036200A6E1A
:105370000F5037200B6E01EC37F03B6E03EC59F009
:10538000D7EC35F039C0E6FF3AC0E6FF3BC0E6FF98
:105390003CC0E6FF84EC5EF0FAEC38F0E5528BECB2
:1053A00038F038C039F0BBEC38F073EC5AF0140E1A
:1053B00038C0DBFF150E39C0DBFF160E3AC0DBFF2D
:1053C000170E3BC0DBFF05012751FDE04E6B4F6B15
:1053D000506B516B4D6B8D908B92D950080FAFEC89
:1053E00038F002E698EC35F006E2020E4D6FB7ECAD
:1053F00037F0F6EC35F0D9500C0FAFEC38F002E690
:1054000098EC35F012E2080E05014D114D6F0C0EAF
:10541000DBCF38F00D0EDBCF39F00E0EDBCF3AF0DC
:105420000F0E31EC35F003EC36F0C3EC37F002E64A
:1054300077EC35F004E23C0E006EBA0EA0D1CFEC52
:1054400037F002E677EC35F004E20E0E006EBA0E8D
:1054500096D1C7EC36F0D7EC35F0AC0E3E6EC50EEB
:105460003F6EA70E406E470E416E6FEC59F00FEC89
:1054700037F0DBCF0CF0150EDBCF0DF0160EDBCFC7
:105480000EF0170EDBCF0FF00CC038F00DC039F066
:105490000EC03AF00FC03BF001EC59F029EC37F0A8
:1054A00060EC35F01CEC59F0180E39C0DBFF190E1A
:1054B0003AC0DBFF1A0E3BC0DBFF1B0E3CC0DBFF1C
:1054C000E0EC36F0080EDBCF08F0090EDBCF09F078
:1054D0000A0EDBCF0AF00B0EF3EC37F038C035F5CF
:1054E00039C036F53AC037F53BC038F5080EDBCF8A
:1054F00045F5090EDBCF46F50A0EDBCF47F50B0E5F
:10550000DBCF48F532EC37F029EC37F032EC37F0EE
:1055100039C00CF03AC00DF03BC00EF03CC00FF0AB
:10552000A5EC37F008C039F009C03AF00AC03BF0EA
:105530000BC03CF06FEC59F0D7EC35F0C7EC36F00F
:1055400039C014F03AC015F03BC016F03CC017F05B
:10555000C7EC36F039C018F03AC019F03BC01AF069
:105560003CC01BF0A5EC37F014C039F015C03AF080
:1055700016C03BF017C03CF06FEC59F039C010F08A
:105580003AC011F03BC012F03CC013F0A5EC37F06C
:1055900004C039F005C03AF006C03BF007C03CF04B
:1055A000DCEC59F00FEC37F0DBCF28F0150EDBCF39
:1055B00029F0160EDBCF2AF0170EDBCF2BF028C018
:1055C00038F029C039F02AC03AF02BC03BF001EC8A
:1055D00059F039C024F03AC025F03BC026F03CC059
:1055E00027F0140EDBCF30F0150EDBCF31F0160EA6
:1055F000DBCF32F0170EDBCF33F030C038F031C0E4
:1056000039F032C03AF033C03BF001EC59F039C008
:105610002CF03AC02DF03BC02EF03CC02FF0A5EC92
:1056200037F024C039F025C03AF026C03BF027C03F
:105630003CF06FEC59F039C020F03AC021F03BC08B
:1056400022F03CC023F03E6A3F6A406A400E416E41
:105650006FEC59F039C01CF03AC01DF03BC01EF091
:105660003CC01FF060EC35F01CEC59F01C0E39C04A
:10567000DBFF1D0E3AC0DBFF1E0E3BC0DBFF1F0E23
:105680003CC0DBFF080EDBCF04F0090EDBCF05F0DA
:105690000A0EDBCF06F00B0E39EC35F038C03DF5C5
:1056A00039C03EF53AC03FF53BC040F5E0EC36F07E
:1056B0000C0EDBCF08F00D0EDBCF09F00E0EDBCFAA
:1056C0000AF00F0EF3EC37F038C039F539C03AF56F
:1056D0003AC03BF53BC03CF50C0EDBCF49F50D0E57
:1056E000DBCF4AF50E0EDBCF4BF50F0EDBCF4CF5C3
:1056F0009AEC37F039EC35F038C041F539C042F555
:105700003AC043F53BC044F5FAEC36F0060EDB50E8
:10571000001803E1070EDB50011814E005013D51AC
:105720003E113F1140110EE1D880000E4555000E8C
:105730004655000E4755000E485504E2E30E006E34
:10574000B90E1DD0FAEC36F0060EDB50001803E15E
:10575000070EDB50011816E00501415142114311BB
:10576000441110E1D880000E4955000E4A55000E34
:105770004B55000E4C5506E2B80E006EB90E0FECFC
:1057800038F006D00501010E346F276B97EC40F01E
:10579000200EE15C02E2E16AE552E16E2BEF35F0AA
:1057A00017EC35F03F0EE12402E3E168E652E16ECA
:1057B000E5EC37F0E1EC38F0100FF0EC38F0040FC6
:1057C000F0EC38F0080F0DEC39F0140FF0EC38F075
:1057D0000C0F96EC37F00701B45101E06FD128ECC3
:1057E00035F00DE1040EDBCF04F0050EDBCF05F044
:1057F000060EDBCF06F0070EA8EC35F011E0100E18
:10580000DBCF08F0110EDBCF09F0120EDBCF0AF070
:10581000130EDBCF0BF0085009100A100B1035E106
:10582000080EDBCF0CF0090EDBCF0DF00A0EDBCF3C
:105830000EF00B0EDBCF0FF00C500D100E100F10F2
:1058400012E10C0EDBCF10F00D0EDBCF11F00E0EBF
:10585000DBCF12F00F0EDBCF13F01050111012102F
:10586000131001E12BD1140EDBCF14F0150EDBCF9A
:1058700015F0160EDBCF16F0170EDBCF17F0145015
:1058800015101610171001E119D1320EDB6A330E14
:10589000DB6A340EDB6A350EDB6A310EDB6A8D9013
:1058A0008B92D950100FAFEC38F002E698EC35F03F
:1058B0001FE2310EDB500209E76E310EE7CFDBFF4E
:1058C000100EDBCF38F0110EDBCF39F0120EDBCF2C
:1058D0003AF0130E31EC35F0100E34C0DBFF110E30
:1058E00035C0DBFF120E36C0DBFF130E37C0DBFF07
:1058F000D950140FAFEC38F002E698EC35F015E211
:10590000310EDB500809E76E310EE7CFDBFF140ED6
:10591000DBCF38F0150EDBCF39F0160EDBCF3AF0C7
:10592000170E31EC35F010EC36F0DCEC38F0190ED7
:10593000EECFDBFF1A0EEECFDBFF1B0EEECFDBFF51
:105940001C0EB7EC38F0100F91EC37F0290EEECFAB
:10595000DBFF2A0EEECFDBFF2B0EEECFDBFF2C0E94
:10596000B7EC38F0040FE96E000E7DEC36F0D9503C
:10597000080F91EC37F01D0EEECFDBFF1E0EEECFC1
:10598000DBFF1F0EEECFDBFF200EB7EC38F0140F5D
:1059900091EC37F02D0EEECFDBFF2E0EEECFDBFFBE
:1059A0002F0EEECFDBFF300EB7EC38F00C0FE96EA8
:1059B000000E8CEC36F0010EF36E180EF3CFDBFF09
:1059C00005012751FDE0180EDBCF34F5190EDBCFB2
:1059D00035F51A0EDBCF36F51B0EDBCF37F51C0E77
:1059E000DBCF38F51D0EDBCF39F51E0EDBCF3AF5D8
:1059F0001F0EDBCF3BF5200EDBCF3CF5210EDBCFBE
:105A00003DF5220EDBCF3EF5230EDBCF3FF5240E16
:105A1000DBCF40F5250EDBCF41F5260EDBCF42F57F
:105A2000270EDBCF43F5280EDBCF44F5290EDBCF65
:105A300045F52A0EDBCF46F52B0EDBCF47F52C0EB6
:105A4000DBCF48F52D0EDBCF49F52E0EDBCF4AF527
:105A50002F0EDBCF4BF5300EDBCF4CF5310EDBCF0D
:105A60004DF5320EDBCF4EF5330EDBCF4FF5340E56
:105A7000DBCF50F5350EDBCF51F5360EDBCF52F5CF
:105A8000370EDBCF53F5380EDBCF54F5390EDBCFB5
:105A900055F53A0EDBCF56F53B0EDBCF57F53C0EF6
:105AA000DBCF58F53D0EDBCF59F53E0EDBCF5AF577
:105AB000276B0701E35102E097EC40F03F0EE15CF9
:105AC00002E2E16AE552E16E2BEF35F017EC35F0BA
:105AD000100EE12402E3E168E6520AEC38F0F3EC40
:105AE00035F0EEEC37F0040F96EC37F062EC37F05F
:105AF000080F96EC37F00E01BF516FE028EC35F03F
:105B000002E10701B48D0701B45173E1CFEC36F027
:105B100004E2850E006EB90E5DD017EC38F002E697
:105B2000EEEC35F005E2D950040F4DEC36F004D020
:105B300023EC38F003EC36F0CFEC37F002E677ECEC
:105B400035F004E23C0E006EBA0E44D02FEC38F073
:105B500004E2550E006EB90E3DD0D9EC34F00C0FB6
:105B600081EC35F009E39AEC37F0A8EC35F004E06D
:105B70002F0E006EB90E2ED0C3EC37F002E6EEEC1D
:105B800035F005E2D950080F4DEC36F004D0B7ECF3
:105B900037F003EC36F0CFEC37F002E677EC35F077
:105BA00004E20E0E006EBA0E15D02FEC38F004E2AF
:105BB000FF0E006EB80E0ED0D9EC34F00C0F81EC55
:105BC00035F00BE39AEC37F0A8EC35F006E0D90E8F
:105BD000006EB80E0FEC38F00CD000EC38F002E29A
:105BE000E16AE552E16E00500701E35102E097ECF3
:105BF00040F0100EE15C02E2E16AE552E16E2BEF4B
:105C000035F017EC35F0180EE12402E3E168E652B6
:105C10000AEC38F020EC37F0E1EC38F00C0FF0EC47
:105C200038F0100F96EC37F028EC35F002E1070160
:105C3000B48D100EDBCF00F0110EDBCF01F0120E91
:105C4000DBCF02F0130EDBCF03F0D9500C0F91EC39
:105C500037F0EE500026EE500122EE500222EE50B8
:105C60000322040E00C0DBFF050E01C0DBFF060EA1
:105C700002C0DBFF070E03C0DBFF9AEC37F0DBCF7F
:105C800007F0D950100F91EC37F0EE50045C006E25
:105C9000EE500558016EEE500658026EEE50075851
:105CA000036E080E00C0DBFF090E01C0DBFF0A0E09
:105CB00002C0DBFF0B0E03C0DBFF17EC38F002E67F
:105CC000EEEC35F005E2D950040F5BEC36F004D071
:105CD00023EC38F010EC36F0CFEC36F004E2850E11
:105CE000006EB90E4AD03BEC38F002E677EC35F0A6
:105CF00004E23C0E006EBA0E40D047EC38F004E2ED
:105D0000550E006EB90E39D0D9EC34F0140F81EC79
:105D100035F007E353EC38F004E02F0E006EB90EB7
:105D20002CD0C3EC37F002E6EEEC35F005E2D950AA
:105D3000080F5BEC36F004D0B7EC37F010EC36F01F
:105D40003BEC38F002E677EC35F004E20E0E006E24
:105D5000BA0E13D047EC38F004E2FF0E006EB80E16
:105D60000CD0D9EC34F0140F81EC35F009E353EC8E
:105D700038F006E0D90E006EB80E0FEC38F00CD0FB
:105D80000701B45109E100EC38F002E2E16AE552A2
:105D9000E16E005097EC40F0180EE15C02E2E16A1F
:105DA000E552E16E2BEF35F017EC35F0370EE124BC
:105DB00002E3E168E6520AEC38F08BEC35F010ECC7
:105DC00039F017E15FEC38F014E1020EF36E100EBB
:105DD000F3CFDBFFBCEC35F02A0E34C0DBFF2B0E1B
:105DE00035C0DBFF2C0E36C0DBFF2D0E37C0DBFFCE
:105DF00064D12A0EDB6A2B0EDB6A2C0EDB6A2D0EB9
:105E0000DB6A290EDB6A8D908B92D950F60FB3ECCA
:105E100038F002E698EC35F01FE2290EDB5002095B
:105E2000E76E290EE7CFDBFFF60EDBCF38F0F70E7B
:105E3000DBCF39F0F80EDBCF3AF0F90E31EC35F06C
:105E4000F60E34C0DBFFF70E35C0DBFFF80E36C0B0
:105E5000DBFFF90E37C0DBFFD950F20FB3EC38F09F
:105E600002E698EC35F01FE2290EDB500809E76ED8
:105E7000290EE7CFDBFFF20EDBCF38F0F30EDBCFDE
:105E800039F0F40EDBCF3AF0F50E31EC35F0F20ECE
:105E900034C0DBFFF30E35C0DBFFF40E36C0DBFF92
:105EA000F50E37C0DBFFD950F60FB3EC38F002E641
:105EB0003AEC37F030E2BCEC35F0040E34C0DBFFD6
:105EC000050E35C0DBFF060E36C0DBFF070E37C000
:105ED000DBFF8BEC35F00F0E1F0B03E0AFEC35F062
:105EE000FDE1E6EC34F0CCEC35F08BEC35F00F0E48
:105EF0001F0B03E0AFEC35F0FDE1C2EC38F014E22B
:105F00009BEC36F003E0AFEC35F0FDE1E6EC34F06D
:105F1000EDEC36F009D08BEC35F0E0EC35F074ECBC
:105F200037F0FDE1F4EC38F0DAEC36F00CE265EC39
:105F300035F0A40E006EB80E6FEC38F002E2E16AA4
:105F4000E55212EC37F028EC35F012E1F60EDBCF1B
:105F500004F0F70EDBCF05F0F80EDBCF06F0F90EFC
:105F6000A8EC35F005E0790E006EB80E03EC39F0C0
:105F700067EC35F009E2AAEC36F003E07BEC37F091
:105F8000FDE137EC36F006D0B6EC36F003E0AFECCE
:105F900035F0FDE161EC36F0110EEECFDBFF120EB5
:105FA000EECFDBFF130EEECFDBFF140EB7EC38F0B5
:105FB000F60FE96EFF0E7DEC36F0190EDB6A1A0E55
:105FC000DB6A1B0EDB6A1C0EDB6AD950F20FB3ECE6
:105FD00038F002E63AEC37F022E21DEC36F00F0E14
:105FE0001F0B03E0AFEC35F0FDE1E6EC34F0CCEC58
:105FF00035F01DEC36F00F0E1F0B03E0AFEC35F063
:10600000FDE1C2EC38F014E29BEC36F003E0AFECBB
:1060100035F0FDE1E6EC34F0EDEC36F009D01DECA6
:1060200036F0E0EC35F074EC37F0FDE1F4EC38F0EC
:10603000DAEC36F00CE265EC35F0440E006EB80E8A
:106040006FEC38F002E2E16AE55212EC37F028EC2E
:1060500035F008E15FEC38F005E0190E006EB80E7F
:1060600003EC39F067EC35F009E2AAEC36F003E016
:106070007BEC37F0FDE137EC36F006D0B6EC36F0CD
:1060800003E0AFEC35F0FDE161EC36F078EC38F090
:10609000180EB7EC38F0F20FE96EFF0E8CEC36F00C
:1060A0001D0EDB6A1E0EDB6A1F0EDB6A200EDB6A2A
:1060B000010EF36E100EF3CFDBFF05012751FDE05B
:1060C000100EDBCF34F5110EDBCF35F5120EDBCF22
:1060D00036F5130EDBCF37F5140EDBCF38F5150E82
:1060E000DBCF39F5160EDBCF3AF5170EDBCF3BF5DC
:1060F000180EDBCF3CF5190EDBCF3DF51A0EDBCFCA
:106100003EF51B0EDBCF3FF51C0EDBCF40F51D0E21
:10611000DBCF41F51E0EDBCF42F51F0EDBCF43F583
:10612000200EDBCF44F5210EDBCF45F5220EDBCF71
:1061300046F5230EDBCF47F5240EDBCF48F5250EC1
:10614000DBCF49F5260EDBCF4AF5270EDBCF4BF52B
:10615000280EDBCF4CF5290EDBCF4DF52A0EDBCF19
:106160004EF52B0EDBCF4FF52C0EDBCF50F52D0E61
:10617000DBCF51F52E0EDBCF52F52F0EDBCF53F5D3
:10618000300EDBCF54F5310EDBCF55F5320EDBCFC1
:1061900056F5330EDBCF57F5340EDBCF58F5350E01
:1061A000DBCF59F5360EDBCF5AF5276B370EE15CA6
:1061B00002E2E16AE552E16E2BEF35F017EC35F0C3
:1061C000110EE12402E3E168E65243EC37F005ECFE
:1061D00035F0100EDB6A0501275102E1340502E0BB
:1061E000000502E1010EDF6E34052BE1346B090E70
:1061F00045C5DBFF0A0E46C5DBFF0B0E47C5DBFFBF
:106200000C0E48C5DBFF0D0E49C5DBFF0E0E4AC55F
:10621000DBFF0F0E4BC5DBFF100E4CC5DBFF456BE4
:10622000466B476B486B496B4A6B4B6B4C6B3D6BDA
:106230003E6B3F6B406B416B426B436B446B010E9B
:10624000276F000529E1006B010E11C5DBFF020E6F
:1062500012C5DBFF030E13C5DBFF040E14C5DBFF05
:10626000050E15C5DBFF060E16C5DBFF070E17C5AD
:10627000DBFF080E18C5DBFF116B126B136B146B81
:10628000156B166B176B186B096B0A6B0B6B0C6B32
:106290000D6B0E6B0F6B106BD950050FCEDBD95009
:1062A000010FCBDBD9500D0FC8DBD950090FC5DB6F
:1062B000DFCFE6FFE66A040E006EB80EC0DB036EA9
:1062C000150EE15C02E2E16AE55256EC37F0110E80
:1062D000E15C02E2E16AE552E16EBDD3D8C500F0AF
:1062E000016A00BE016882EC37F0FF0E026EB70E45
:1062F0002AEC36F002E2E16AE552E16E055097EFD2
:1063000040F06BEC38F0DE6ADD6A010EE66ED3EC2D
:1063100038F0030E47DB0701B4510FE10501D80542
:1063200004E187EC37F0E66A04D087EC37F0010E21
:10633000E66E4CEC37F097EC40F0E552E5528BD32B
:106340006BEC38F0BAEC36F050EC37F012EC38F079
:1063500094EC38F08CEC37F00701B45129E1030ECE
:10636000DB50070802E250EC37F0DF50010802E290
:10637000010EDF6E030EDB50030F0E01B65D0CE065
:106380006EEC36F002E2E16AE552E16E0050030E77
:10639000DB50030F0E01B66F010EDBCFE6FF020EDE
:1063A000DBCFE6FFDFCFE6FF4CEC37F097EC40F0B9
:1063B000050EE15C02E2E16AE552E16E4CD36BEC62
:1063C00038F0E652E652FD0EDB040BE1B0CEDEFF04
:1063D000B1CEDDFF020EB2CEDBFF030EB3CEDBFF8C
:1063E0000AD0AECEDEFFAFCEDDFF020EB4CEDBFFB5
:1063F000030EB5CEDBFFFB0EDBCFE6FFFC0EDBCFE3
:10640000E6FF020EDBCFE6FF030EDBCFE6FFB6CEE4
:10641000E6FF87EC37F06FEC63F0006E070EE15C8F
:1064200002E2E16AE552E16E0050040EE15C02E234
:10643000E16AE552E16E0FD36BEC38F0E652D3DB44
:1064400099EC38F039E10701B45156E10501D75113
:1064500003E0020ED75D28E1DF50000821E2D751AA
:1064600001E18D90DF0403E18D848D82898C020E21
:10647000DF5C03E18D848D82899C030EDF5C03E188
:106480008D948D82899C040EDF5C03E18D848D9256
:10649000899C050EDF5C10E18D948D92899C0CD057
:1064A000D7510AE18D8008D0D70506E1DF500008FA
:1064B00002E28C9201D08C8262EC37F0010F12DB89
:1064C00099EC38F017E10701B45116E10501D751F5
:1064D00008E1010EDB50000802E28B920BD08B82A8
:1064E00009D0D70507E1010EDB50000802E28992CE
:1064F00001D0898297EC40F0FAEC38F0ACD2FE0E75
:106500000501D95DFF0EDA59FF0EDB59FF0EDC598C
:1065100005E2D92B000EDA23DB23DC2397EF40F0D2
:106520000501D951DA11DB11DC1105E0D907000EA4
:10653000DA5BDB5BDC5B97EF40F06BEC38F0E6524C
:10654000E652E65250DB070E2DDA8CEC37F0DB50CA
:106550000BE1DFCFD9F5010EDBCFDAF5020EDBCF91
:10656000DBF5030EDBCFDCF597EC40F0050EE15CCC
:1065700002E2E16AE552E16E6ED2D9C5E6FFDAC504
:10658000E6FFDBC5E6FFDCC5E6FFF60E006EB70EE4
:106590006FEC38F002E2E16AE55256EF37F0E66A56
:1065A000DD0EE66E050EE66E15EC39F00701B4510E
:1065B00001E0120097EF40F0DDC500F0016A00BE77
:1065C000016882EC37F0EF0E026EB70E43DB02E299
:1065D000E16AE552E16E055097EF40F0DEC500F04C
:1065E000016A00BE016882EC37F0E90E026EB70E58
:1065F00031DB02E2E16AE552E16E05500501DE6B36
:1066000097EF40F09DBCFED716C1E6FF17C1E6FF2D
:1066100000C1E6FF01C1E6FFDD0E006EB70E6FECB4
:1066200038F002E2E16AE55256EF37F06BEC38F0F1
:10663000A1DB030EDB6A12EC38F08CEC37F094EC43
:1066400038F00701B45101E081D0ECEC38F0FF0ED6
:10665000D880EE54030EED5407E2010EDB68030E02
:10666000F36E020EF3CFDBFFDF50010802E2010EF2
:10667000DF6E030EDB50010802E250EC37F0DF045E
:1066800009E1040EDB50030805E10501E16B020E90
:10669000E26F06D0010EDBCFE1F5020EDBCFE2F5B3
:1066A000CAB415D0CB68FC0ECA140009CA6E9D92FC
:1066B0000F0152815293F00EBA140C09BA6E3F0EBC
:1066C000BA140009BA6E0E010E0ECC6FCA84030E06
:1066D000DB502AE1DF5023E0E1C500F0E2C501F024
:1066E000D89001320032D890013200320050BB6E97
:1066F000E1C502F0E2C503F0040ED890023603367D
:10670000E804FBE1300E0216000E0316CF0EBA1499
:1067100000010210006E03C001F0E85003D0BB6A14
:10672000CF0EBA14BA6E10D005012751FDE0E1C5B5
:1067300059F5E2C55AF54E6B4F6B506B516BDFCF7D
:1067400058F5040E346F276B97EC40F0050EE15CB2
:1067500002E2E16AE552E16E7ED1120068D92B0EA9
:10676000E12402E3E168E6528EDBF29E040E00C5EE
:10677000DBFF050E01C5DBFF060E02C5DBFF070EC2
:1067800003C5DBFF080E04C5DBFF090E05C5DBFFF3
:106790000A0E06C5DBFF0B0E07C5DBFF0C0E08C596
:1067A000DBFF0D0E09C5DBFF0E0E0AC5DBFF0F0E6A
:1067B0000BC5DBFF100E0CC5DBFF110E0DC5DBFF9B
:1067C000120E0EC5DBFF130E0FC5DBFF140E10C536
:1067D000DBFF150E11C5DBFF160E12C5DBFF170E12
:1067E00013C5DBFF180E14C5DBFF190E15C5DBFF43
:1067F0001A0E16C5DBFF1B0E17C5DBFF1C0E18C5D6
:10680000DBFF1D0E19C5DBFF1E0E1AC5DBFF1F0EB9
:106810001BC5DBFF200E1CC5DBFF210E1DC5DBFFEA
:10682000220E1EC5DBFF230E1FC5DBFF240E20C575
:10683000DBFF250E21C5DBFF260E22C5DBFF270E61
:1068400023C5DBFF280E24C5DBFF290E25C5DBFF92
:106850002A0E26C5DBFFF28E1E0EDBCF00F01F0EC8
:10686000DBCF01F0200EDBCF02F0210E74EC38F00C
:1068700002E0010EDF6E040EDB5002E0010EDF6E5F
:106880000501275106E1010EDF6EF36E030EF3CF13
:10689000DBFFDF5010E0150EDBCF00F0160EDBCF74
:1068A00001F0170EDBCF02F0180E74EC38F003E0A5
:1068B000DE52010EDD6EDF5012E0190EDBCF00F06C
:1068C0001A0EDBCF01F01B0EDBCF02F01C0E74ECB6
:1068D00038F005E0010EF36E020EF3CFDBFF030E7E
:1068E000DBCFE6FFE66A020EDBCFE6FFE66A010ECB
:1068F000DBCFE6FFE66ADFCFE6FFE66ACC0E006E8E
:10690000B70E9DD8036E0B0EE15C02E2E16AE55220
:10691000E16E03502B0EE15C02E2E16AE552E16EAA
:106920009AD085D8080EE12402E3E168E652E16ED0
:10693000F29E28C5DFFF010E29C5DBFF020E2AC526
:10694000DBFF030E2BC5DBFF040E2CC5DBFF050EA2
:106950002DC5DBFF060E2EC5DBFF070E2FC5DBFFA7
:10696000F28E08EC39F0C20E006EB70E68D8036ED6
:106970000B0EE15C02E2E16AE55298DA080EE15C96
:1069800002E2E16AE552E16E66D0F29E0501286BF3
:10699000296B2A6B2B6B2C6B2D6B2E6B2F6BF28E56
:1069A00097EF40F0E66E2CEC47F0FAEC38F0E55249
:1069B000120001DB1F0E3D6E050E3E6E3F6A406AFF
:1069C000CDDA0AEC6AF0A7DBD9501200C7DA040E60
:1069D000DBCF3DF0050EDBCF3EF0060EDBCF3FF008
:1069E000070ED8EF38F0DBCF03F0B8DADFCF3DF099
:1069F000010EDBCF3EF0020EDBCF3FF0030ED8DB03
:106A0000D880190E3854C6EF38F0040EDB6A050E34
:106A1000DB6A060EDB6A070EDB6A080EDB6A090E0C
:106A2000DB6A0A0EDB6A0B0EDB6AE5EF37F0BBDBD5
:106A3000E1CFD9FFE2CFDAFF120073DA63D3016E40
:106A4000026A00C0E6FFE66E02C0E6FFA9EF68F04A
:106A5000B2DA10EF39F0E552E5CFDAFFE7CFD9FF30
:106A60001200DBCF3BF03D683E683F68406880EF36
:106A700069F0DBCF07F004C038F005C039F006C07C
:106A80003AF007C03BF003EC59F01C0EDBCF3EF0B0
:106A90001D0EDBCF3FF01E0EDBCF40F01F0EDBCF15
:106AA00041F06FEC59F04CDB210E3E6EE60E3F6E6E
:106AB0005B0E406E400E416E6FEC59F073EF5AF072
:106AC00044DA00C039F0BBEF38F076DB1BD3D95085
:106AD000FA0FE96EFF0EDA20EA6ED8801E0EEE5431
