:06000000D1EF06F0120032
:0600080004EF08F01200F5
:100018000CEF08F012001DEE00F02DEE00F0F86A6B
:06002800EDEF06F01200EE
:1000300000003E0E006E016AFC0E026E036A046A46
:10004000076808680968066A1200D9CFE6FFE1CFA1
:10005000D9FFE65204501EE1040108BF1AD0400E39
:10006000E66E600EE66E000EE66E95EC06F0E5526A
:10007000E552E552010E046EDF6A400EDF5C09E2D4
:10008000DF50EA6AA00FE96E000EEA22EF6ADF2A6B
:10009000F4D717D100016051080A01E10DD10F0A10
:1000A00001E1D3D0010A01E1CAD0030A67E0010AE5
:1000B00058E0070A44E0010A01E003D10001020E02
:1000C000A06F00013A0EA16F0001010EA26F0001A6
:1000D000010EA36F0001A46B100EA56FA66BA76B9A
:1000E00001C0A8F002C0A9F003C0AAF0100E0001E0
:1000F000A95F000E0001AA5B0001AB6B0001030EBB
:10010000AC6F0001F80EAD6FAE69AF6BB06B000164
:10011000080EB16FB26BB36BB46B0001B56904012B
:100120000CBF0CD0400EE66EA00EE66E000EE66E22
:100130005BEC06F0E552E552E552046AC2D00001DC
:10014000615107E13F0E006EF80E016E0268036A0E
:1001500006D03E0E006E016AFC0E026E036A046A4F
:10016000B0D0040E056E0028055C06E20400AED88F
:10017000F0EC04F0052AF7D7046AA3D0E868071862
:1001800005E1E868081802E1E868091806E161C0BD
:1001900007F062C008F063C009F007500001611960
:1001A00008E108500001621904E1095000016319D7
:1001B00000E143E1DF6A00016551DF5C3EE2000ED1
:1001C000075C100E0858000E09582CE300285B6EDF
:1001D0005C6A0A0ED8905B365C36E806FBE15D6A25
:1001E0005CBE5D685B50075C5C5008585D50095808
:1001F00019E23A0E0001D8806555DF24EA6A660FDD
:10020000E96E000EEA22EF50E66E0650E96EEA6AE9
:10021000E9BEEA680A0EE926000EEA22E552E75036
:10022000EF6E062A072A000E0822000E09223A0E57
:10023000065C01E15ED8DF2ABED7046A42D059D8F5
:10024000076808680968046A3CD00001070EA06FBF
:1002500061C0A1F062C0A2F063C0A3F064C0A4F0CA
:1002600065C0A5F061C0F6FF62C0F7FF63C0F8FF8C
:10027000DF6A00016551DF5C0FE209003A0E000100
:10028000D8806555DF24EA6AA60FE96E000EEA22DF
:10029000F5CFEFFFDF2AEDD704010CBF0CD0400EE5
:1002A000E66EA00EE66E000EE66E5BEC06F0E55222
:1002B000E552E552046A05D06592656A68D8FF0088
:1002C00000D0E552E552E7CFD9FF1200F66A05509B
:1002D000F76EF86AD890F736F836F736F836140E17
:1002E000A66EF29E550EA76EAA0EA76EA682A694C3
:1002F0001200D9CFE6FFE1CFD9FFE652DF6A000E48
:10030000E76E0618E8AE02D0063403D0E750D88076
:10031000065436E206505B6E5C6A5D6A5BAE02D0E4
:100320005C685D685B50075CF66E5C500858F76E61
:100330005D500958F86EDF50EA6A0A0FE96E000E48
:10034000EA22EF50F56E0D00DF2A0606065009E09E
:10035000DF50EA6A0A0FE96E000EEA22EF50F56EEE
:1003600001D0F5680C00DF2A240EA66EF29E550E11
:10037000A76EAA0EA76EA682065001E00606BFD79A
:10038000A694066AE552E552E7CFD9FF1200D9CF0D
:10039000E6FFE1CFD9FFE652DF6AFF0EDF5C0AE23B
:1003A000E868E85005E0E80600D000D000D0F9D7B2
:1003B000DF2AF3D7E552E552E7CFD9FF1200D9CFB4
:1003C000E6FFE1CFD9FFE652645032E162960401C4
:1003D00000513C0BE842E8420D0828E1180E0219D2
:1003E00023E1040E031920E1100E026F040E036FC7
:1003F000DF6ADF505B6E5C6A080E5B5C000E5C5867
:1004000013E2DF50EA6A180FE96E040EEA22EF5099
:10041000E66EDF50EA6A100FE96E040EEA22E5523A
:10042000E750EF6EDF2AE5D711D80AD046D808D0BA
:10043000040E645C03E162965CD802D0000E01D029
:10044000010EE552E552E7CFD9FF1200D9CFE6FF02
:10045000E1CFD9FFE652040104BF046B556A516A2B
:10046000526A536A546A87EC03F0DF6ADF505B6EAE
:100470005C6A010E5B5C000E5C5819E2525017E199
:10048000F76ADF34FE0BF736F66E5A0EF6260F0EBD
:10049000F7220900F5CF5BF00800F5CF5CF004D03F
:1004A0005CC0FAFF5B50F96EFBDFDF2ADFD7EDD8C7
:1004B000E552E552E7CFD9FF1200020E515C0EE182
:1004C000A7D80401180E026F040E036F080E016F07
:1004D00000BD02D0C80E0BD0880E09D014D904017B
:1004E000080E016F100E026F040E036F8C0E006F6A
:1004F0001200040E575C0AE112C438FF0F01385194
:10050000000802E2050E01D0030E576E51040FE100
:1005100010D8020E555C03E10401840E06D00401DC
:1005200004BD02D0C80E01D0880E046F120083EF04
:1005300003F0D9CFE6FFE1CFD9FF020EE126080E86
:10054000535C000E54580DE253C0DEFF54C0DDFF73
:10055000555002E1010E03D0550406E1020E556E1E
:1005600003D0080EDE6EDD6A040104930491010ECF
:10057000DB500413DFCF05F4DE50535EDD50545AD8
:100580000001180EE26F040EE36F58A21CD0D9CF01
:10059000E9FFDACFEAFFEE50ED1030E0E0C0F6FF01
:1005A000E1C0F7FF0800F550E2C0E9FFE3C0EAFF51
:1005B000EF6EE22B000EE323E02BE123DF06010EBA
:1005C000E6E2DB06E4D7D9CFE9FFDACFEAFFEE5067
:1005D000ED1014E0E0C0E9FFE1C0EAFFEF50E2C037
:1005E000E9FFE3C0EAFFEF6EE22B000EE323E02B0E
:1005F000E123DF06010EE7E2DB06E5D7020EE15C50
:1006000002E2E16AE552E16EE552E7CFD9FF12005E
:10061000D9CFE6FFE1CFD9FF020EE126030E040198
:100620000015E76E010EE7CFDBFF01C4DFFFDE50F0
:100630005326DD5054220001180EE06F040EE16FC6
:10064000D9CFE9FFDACFEAFFEE50ED1014E0E0C0B9
:10065000E9FFE1C0EAFFEF50E2C0E9FFE3C0EAFFD3
:10066000EF6EE22B000EE323E02BE123DF06010E09
:10067000E7E2DB06E5D7020EE15C02E2E16AE55261
:10068000E16EE552E7CFD9FF1200659852500BE1B9
:100690000401080E016F100E026F040E036F840E2A
:1006A000006F04011ED0040110AF1DD05350165D21
:1006B0005450175904E216C453F017C454F039DFEC
:1006C000010E516E0401080E016F100E026F040E30
:1006D000036F800E006F0401180E066F040E076F83
:1006E000C80E046F1200020E516E0401056BC80E95
:1006F000046F0401080E016F180E026F040E036FE1
:10070000C80E006F1200516A0401046B120004014C
:100710001051600BE842E842E842E842E842000932
:1007200001E012001151070A43E00B0A41E0070AF9
:1007300034E0010A24E00B0A20E0020A1EE0030A6A
:100740001AE0080A10E0010A0CE00F0A08E0030AA8
:1007500001E01200010E526E040E576E1200D9EF26
:1007600003F029EF04F0010E526E0001590EE06F04
:10077000000EE16F0ED04DEF04F08EEF04F0010E8D
:10078000526E14510001E06FE16B5A0EE027000E2B
:10079000E1235892010E536E1200010E526E145155
:1007A000EA6A5A0FE96E000EEA2212C4EFFF120045
:1007B0001200800E0401105D4BE11351030A2DE07D
:1007C000010A0BE0030A43E1010E526E00019A0E8A
:1007D000E06F0E0EE16F120E38D0010E526E125104
:1007E000F66EF76AD890F636F736500EF6260F0EEC
:1007F000F7220900F5CFE0F00A00F5CFE1F0020E94
:100800000001F76AE025F66EE151F7220900F5CF05
:1008100053F00A00F5CF54F01AD0010E526E125167
:10082000F66EF76AD890F636F736540EF6260F0EA7
:10083000F7220900F5CFE0F00A00F5CFE1F0E0C0C3
:10084000F6FFE1C0F7FF0800F550536E546A588276
:100850001200010E526E0F0EE66E270EE66E0F0EA0
:10086000E66EC9EC05F0E552E552E552010EE66E82
:100870005A0EE66E000EE66EC9EC05F0E552E55242
:10088000E55212C459F00401125103E1050E576EEE
:100890001200060E576E46EF06F00401186B196B36
:1008A000040110511F0B020A0EE0030A09E0010ABD
:1008B0002AE1010E526E58A026D00401188323D0DD
:1008C000010E526E20D0010E526E14510F0B080D06
:1008D000F3505C6A000F5B6E040E5C221451800BB7
:1008E00001E0010E040DF35000015B24E26F000EE5
:1008F0005C20E36FE2C0E9FFEA6EEF50040B03E017
:100900000401010E186F520408E10001180EE06F97
:10091000040EE16F5892020E536E1200040112058C
:100920000CE110511F0B000908E1010E526E030E7D
:10093000115D02E1588001D05890125134E11051FC
:100940001F0B020830E114510F0B00092CE0010EBF
:10095000526E14510F0B080DF3505C6A000F5B6E62
:10096000040E5C221451800B01E0010E040DF350C3
:1009700000015B24E26F000E5C20E36F030E0401B4
:10098000115D02E1840E03D014AF07D0400EE2C027
:10099000E9FFE3C0EAFFEF6E1200880EE2C0E9FF54
:1009A000E3C0EAFFEF6E120065A60CD8570409E118
:1009B00065BA07D0626A0F01366B36813689020E3E
:1009C000576E1200656A0F01366B6586010E576E11
:1009D0001200656A0F01366B576A1200E9EF04F0E6
:1009E000575001E112006250040B05E00F0136512F
:1009F000040B01E083D865B212006250010B05E0E0
:100A00000F013651010B01E093D86250100B05E045
:100A10000F013651100B01E01FD86250200B05E08A
:100A20000F013651200B01E071D8030E575C01E233
:100A30001200566A040E565C0EE26250080B0BE080
:100A40000F013651080B07E0DFEC01F0000901E16E
:100A50006296562AEFD71200D9CFE6FFE1CFD9FF31
:100A6000020EE12636CFDFFF0F01040E366F6298CB
:100A700065828C50040B01E0010E5B6E8C50080BFC
:100A800001E0010E5B10E76E010EE7CFDBFF8C96F5
:100A90008C94A198A0880300A150100B05E1D050C0
:100AA000080B02E10300F8D7A098DF500F013613BE
:100AB000010EDB50E8B08C86E8A08C96010EDB506E
:100AC000E8B08C84E8A08C94D50E4F6E020E506E68
:100AD0004FC05BF050C05CF04F06000E505A5B50A8
:100AE0005C1002E00400F4D7020EE15C02E2E16A6D
:100AF000E552E16EE552E7CFD9FF120065920F0192
:100B0000369562A402D06294FCD712000F0126A190
:100B10000DD0800E0401005D07E1840E0401045D28
:100B200003E104018C0E006F0F012691629A1200FE
:100B3000636A626A0F019F0E376F0F017B0E366F7B
:100B40000F01386B0F0EE66E270EE66E0F0EE66E87
:100B500020D8E552E552E5520F01160E266F62A627
:100B600005D0629600D000D00000F9D7659883ECDC
:100B700003F00401080E016F0401100E026F040E51
:100B8000036F04018C0E006F5890596A030E576E64
:100B90001200D9CFE6FFE1CFD9FFFD0EDBCFE9FF91
:100BA000FE0EDBCFEAFFFC0EDB5004E0EE6AFC0E2B
:100BB000DB06F9D7E552E7CFD9FF12000401105147
:100BC0001F0B010801E01200145101E01200060E93
:100BD000115D21E11351230A1DE0010A0DE0030A12
:100BE00019E1020E526E590405E10001BE0EE06FDC
:100BF0000E0EE16F090E0CD0020E526E590405E183
:100C00000001330EE06F0F0EE16F590403E11D0E7A
:100C1000536E546A588204011051600BE842E84256
:100C2000E842E842E842010801E0120011510B0AD3
:100C300026E0080A19E0090A12E0080A09E00B0A8E
:100C400005E0080A01E0120044EF06F045EF06F067
:100C5000020E526E00014A0EE06F000E0BD0020E23
:100C6000526E13C44AF01200020E526E00014B0E77
:100C7000E06F000EE16F5892010E536E1200020EEB
:100C8000526E12C44BF01200120012004C6A0F0197
:100C90001E0E276F0401400E096F200E0A6F040E0E
:100CA0000B6F880E086F0401600E0E6F040E0F6F3D
:100CB000400E0C6F1200D9CFE6FFE1CFD9FFE6520C
:100CC000FC0EDB50400805E2400EF36EFC0EF3CF45
:100CD000DBFFDF6AFC0EDB50DF5C19E2DF50E76E02
:100CE000FD0EDBCFE9FFFE0EDBCFEAFFE750E92682
:100CF000000EEA22EF50E66EDF50EA6A600FE96EFE
:100D0000040EEA22E552E750EF6EDF2AE3D7FC0E2D
:100D1000DBCF0DF4400E04010C170C7D880E0C1374
:100D2000E552E552E7CFD9FF1200D9CFE6FFE1CF78
:100D3000D9FF4C6A040108BF2FD0FC0EDBCF5BF05B
:100D40000951D8805B5403E2FC0E09C4DBFF4C6AF6
:100D5000FC0EDB504C5C19E24C50EA6A200FE96E45
:100D6000040EEA22EF50E66E4C50E76EFD0EDBCF2C
:100D7000E9FFFE0EDBCFEAFFE750E926000EEA228C
:100D8000E552E750EF6E4C2AE3D70401400E096F9D
:100D90000817087D880E08134C50E552E7CFD9FF9D
:100DA00012001DEE00F02DEE00F0F86AF66A100E4B
:100DB000F76E0800F550FF0808E1010EF66E100E00
:100DC000F76E0800F550FF0806E080AE02D000EF95
:100DD00008F080AEFED701D812000DD8040034D838
:100DE00037D8060E575C05E16550020B02E125EC91
:100DF00000F0F4D71200600ED36E9B8C580E4F6E2D
:100E0000020E506E4FC05BF050C05CF04F06000EFB
:100E1000505A5B505C10F6E165A604D06592656A95
:100E2000C7EC01F00F01140E396F576A586A596AFE
:100E300019EC00F04D6A4E6A8C968C9495969594B8
:100E40000F01486B496B1200D4EC04F0F0EF04F092
:100E50004D504E1004E1100E4D6E270E4E6E4D0695
:100E6000000E4E5A060E575C02E28C868C94060EDB
:100E7000575C12E14D504E100FE10001E65102E1C6
:100E80008C868C94030EE65D02E18C968C84E62BB6
:100E9000E651030801E2E66B1200120100020000B5
:100EA0000008D8043C0002000102000109022900E8
:100EB000010100C032090400000203000000092102
:100EC00011010001221D00070581034000010705F3
:100ED00001034000010403090434034D0069006369
:100EE0000072006F00630068006900700020005409
:100EF000006500630068006E006F006C006F0067A3
:100F0000007900200049006E0063002E002603488F
:100F100000490044002000550053004200200042D8
:100F2000006F006F0074006C006F0061006400656A
:100F30000072000600FF0901A101190129401500F6
:100F400026FF00750895408100190129409100C0D5
:100F5000AC0EAC0ED50ED90E0D0FBC0BC00EF36E41
:100F600000EE00F00E0E01D81200EA6002D0EE6A28
:0C0F7000FCD7F350E9601200EE6AFCD7D9
:06100000B8EF7AF01200C7
:0610080028EF08F01200C1
:06101800F4EF41F01200AC
:10102A000300DDF5000000060000E1000000D4F531
:10103A000000B70E000009000000D2F50000F30519
:10104A00000002000000E9CFE4FFEACFE4FFE65225
:10105A00D9CFE6FFDACFE6FFE1CFD9FFE2CFDAFF59
:10106A00E6529EA0E9D29E90FE0ECF6E3D0ECE6E47
:10107A0019C530F50501316B0501010E326F050105
:10108A001A511B111C111D1117E0D880000E050101
:10109A001A55000E1B55190E1C55000E1D5506E259
:1010AA0005011A6B1B6B1C6B1D6B06D005011A0719
:1010BA00000E1B5B1C5B1D5B05011A511B111C11E9
:1010CA001D1102E00501326B0501000501E03DD169
:1010DA000501115112111311141107E105011551DE
:1010EA0016111711181101E12FD10501D7510DE180
:1010FA00050119A302D08C8E01D08C9E050119A777
:10110A0002D08C8A01D08C9A0FD00501D7050CE148
:10111A00050119A302D08B8401D08B94050119A76C
:10112A0002D0898401D08994050111511211131139
:10113A00141164E0010EE96E050EEA6E0E01B75154
:10114A00EE240E01B76F0E01B851EE200E01B86FF2
:10115A000E01B951EE200E01B96F0E01BA51EE20FF
:10116A000E01BA6FB7CE4CF0B8CE4DF0B9CE4EF0F4
:10117A00BACE4FF04C6A4D6A4E6A800E4F164C50EA
:10118A004D104E104F1028E0B7CEB7FEB8CEB8FEBD
:10119A00B9CEB9FEBACEBAFE0E01BA9F010E05014A
:1011AA0030110501306F0501010E316F050111077C
:1011BA00000E125B135B145B050119A307D005012E
:1011CA002807000E295B2A5B2B5B06D00501282B1A
:1011DA00000E29232A232B23050109510501012782
:1011EA0005010A510501022305010B5105010323DB
:1011FA0005010C51050104230501326B0501155146
:10120A0016111711181164E0050EE96E050EEA6E43
:10121A000E01BB51EE240E01BB6F0E01BC51EE2034
:10122A000E01BC6F0E01BD51EE200E01BD6F0E0105
:10123A00BE51EE200E01BE6FBBCE4CF0BCCE4DF0BF
:10124A00BDCE4EF0BECE4FF04C6A4D6A4E6A800E4D
:10125A004F164C504D104E104F1028E0BBCEBBFE1F
:10126A00BCCEBCFEBDCEBDFEBECEBEFE0E01BE9F36
:10127A00040E050130110501306F0501010E316FB1
:10128A0005011507000E165B175B185B050119A708
:10129A0007D005012C07000E2D5B2E5B2F5B06D0B5
:1012AA0005012C2B000E2D232E232F2305010D5172
:1012BA000501052705010E510501062305010F51F8
:1012CA000501072305011051050108230501326BA9
:1012DA000501315139E00501D75107E1050130B166
:1012EA008C8C050130B58C8809D00501D70506E13B
:1012FA00050130B18B8C050130B5898A00000000E8
:10130A0000000000000000000000000000000000D3
:10131A0000000000000000000000000000000000C3
:10132A0000000000000000000000000000000000B3
:10133A0000000501D75103E18C9C8C9805D005016A
:10134A00D70502E18B9C899AD7D0030E0501005D6F
:10135A0001E0A0D00501E45101E179D005012105A0
:10136A00DF6E05011E511F1137E1DF50EA6A310FA6
:10137A00E96E0E0EEA22EF500E01EA6AAC25E96E1A
:10138A00AD51EA22EF6AEA6ADF34FE0BEA36E96E09
:10139A00790EE9260E0EEA22EE6AED6AEA6ADF346F
:1013AA00FE0BEA36E96E490EE9260E0EEA22EE6ACD
:1013BA00ED6ADF50EA6A310FE96E0E0EEA22EF6A31
:1013CA00EA6ADF34FE0BEA36E96E010EE9260E0EF2
:1013DA00EA22EE6AED6A3BD0EA6ADF34FE0BEA36AD
:1013EA00E96E790EE9260E0EEA2222C5EEFF23C522
:1013FA00EDFFEA6ADF34FE0BEA36E96E490EE926AA
:10140A000E0EEA221EC5EEFF1FC5EDFFDF50EA6A87
:10141A00310FE96E0E0EEA2220C5EFFFEA6ADF34C9
:10142A00FE0BEA36E96E010EE9260E0EEA22EE50AE
:10143A00ED100DE1EA6ADF34FE0BEA36E96E010EC1
:10144A00E9260E0EEA221EC5EEFF1FC5EDFF0E01AC
:10145A00B6510501205D1DE10E01B05105011E19AD
:10146A0004E10E01B15105011F190AE10501010E3E
:10147A00D86F0501D46B0501E35101E08A9809D0C0
:10148A000501D86B0501010ED46F0501E35101E096
:10149A008A8832D0040E0501005D2EE1050124512F
:1014AA0024E025C54CF026C54DF0D8904D324C327B
:1014BA00D8904D324C324C50BB6EE1C54EF0E2C56D
:1014CA004FF0040ED8904E364F36E804FBE1300E4A
:1014DA004E16000E4F16CF0EBA1400014E104C6E67
:1014EA004FC04DF04C50BA6E04D0BB6ACF0EBA143E
:1014FA00BA6E0501010E326F0501325101E190D039
:10150A0005011A511B111C111D1101E089D0050199
:10151A00006B0501275101E07ED034C500F535C5C1
:10152A0001F536C502F537C503F538C504F539C5E1
:10153A0005F53AC506F53BC507F53CC508F53DC5B1
:10154A0009F53EC50AF53FC50BF540C50CF541C581
:10155A000DF542C50EF543C50FF544C510F545C551
:10156A0011F546C512F547C513F548C514F549C521
:10157A0015F54AC516F54BC517F54CC518F54DC5F1
:10158A0019F54EC51AF54FC51BF550C51CF551C5C1
:10159A001DF552C51EF553C51FF554C520F555C591
:1015AA0021F556C522F557C523F558C524F559C561
:1015BA0025F55AC526F50501346B0501356B366BE1
:1015CA00376B386B0501396B3A6B3B6B3C6B05012A
:1015DA00456B466B476B486B0501496B4A6B4B6B16
:1015EA004C6B05014D6B05014E6B4F6B506B516B8C
:1015FA000501526B536B0501546B0501556B0501CF
:10160A00566B576B0501586B0501596B5A6B0501EF
:10161A00010E276F05D005011A6B1B6B1C6B1D6B26
:10162A008050800B06E00501DF5106E08150010B76
:10163A0003E10501010EDE6FE552E552E5CFDAFF5F
:10164A00E7CFD9FFE552E5CFEAFFE5CFE9FF110081
:10165A00D9CFE6FFDACFE6FFE1CFD9FFE2CFDAFF53
:10166A00E652DF6ADFCF00F0020EE76E0018E8AE3E
:10167A0002D0E73402D0E750005C3CE2DFCFE9FF5A
:10168A00EA6AE9BEEA68D890E936EA36D890E936D5
:10169A00EA36010EE926050EEA22010EEE6EEE6A20
:1016AA00EE6AEE6ADFCFE9FFEA6AE9BEEA68D89035
:1016BA00E936EA36D890E936EA36110EE926050EF9
:1016CA00EA22EE6AEE6AEE6AEE6ADFCFE9FFEA6ABA
:1016DA00E9BEEA68D890E936EA36D890E936EA36B9
:1016EA00090EE926050EEA22EE6AEE6AEE6AEE6A4B
:1016FA00DF2AB8D70501006B0501196B05011A6BC2
:10170A001B6B1C6B1D6B05011E6B1F6B0501206B90
:10171A000501216B0501226B236B0501010E276F61
:10172A00CD82CD9ECD9CCD9ACD98CD96CD94FE0EF0
:10173A00CF6E3D0ECE6ECD809F809E909D80928012
:10174A009F9C010EE66EE66A5EEC4DF0E552E552AC
:10175A00010EE66E0B0EE66E5EEC4DF0E552E552BA
:10176A008D8496948D829692898C929C8D80969087
:10177A008B8294928C9C959C8C9E959E8C98959825
:10178A008C9A959A949E828E0000000000000000B8
:10179A00000000000000000000000000000000003F
:1017AA000000000000000000000000000000948E0D
:1017BA00829E0501010EE36F0501010EE46F8A980E
:1017CA0093980501010ED46F0501D76B0501010E2F
:1017DA00D86F0501DD6B0501D96BDA6BDB6BDC6B4E
:1017EA000501DE6B9380F19E0501010EDF6F939672
:1017FA008196A1EC25F0E552E552E5CFDAFFE7CF75
:10180A00D9FF1200D9CFE6FFDACFE6FFE1CFD9FF41
:10181A00E2CFDAFFE652E652E652DF6A010EDB6AEF
:10182A00020EDB6AE66AD9CFE6FFDACFE6FF010EDF
:10183A00E66EBCEC55F0E552E552E552E552E66A31
:10184A00D950010FE66E000EDA20E66E030EE66E40
:10185A00BCEC55F0E552E552E552E5520701B451A8
:10186A0001E008D1DF043FE1D950010FE96E000E13
:10187A00DA20EA6EEE50ED1018E10501010EE36F71
:10188A00E46B000EE66EE66AE66EE66AB6CEE6FF40
:10189A00E66EE66A4EEC75F0006E070EE15C02E257
:1018AA00E16AE552E16E005013D0D950010FE96E9A
:1018BA00000EDA20EA6E010EEE1806E1ED5004E1A0
:1018CA000501E36B010E03D00501010EE36FE46F1E
:1018DA00000EE66EE66AD8C5E6FF93EC21F0E55203
:1018EA00E552E552C5D0020EDF5C4AE1D950010F3C
:1018FA00E96E000EDA20EA6EEE50ED1009E10501FC
:10190A00D76B96909492959C959E9598959A31D07E
:10191A00D950010FE96E000EDA20EA6E010EEE18B8
:10192A0012E1ED5010E10501010ED76F9680948205
:10193A00958C958E9588958A94949294949C929A73
:10194A009592929295D0D950010FE96E000EDA2045
:10195A00EA6E020EEE1801E08BD0ED5001E088D05D
:10196A000501020ED76F96809482958C958E958884
:10197A00958A94849284948C928A9582928278D061
:10198A00040EDF5C07E1010EDBCFB0FE020EDBCFF7
:10199A00B1FE6ED0050EDF5C07E1010EDBCFAEFEB5
:1019AA00020EDBCFAFFE64D0080EDF5C17E1D95020
:1019BA00010FE96E000EDA20EA6E180ED880EE5496
:1019CA00000EED5407E2180EF36E010EF3CFDBFFA3
:1019DA00020EDB6A010EDBCFAAFE4AD0090EDF5CDB
:1019EA0017E1D950010FE96E000EDA20EA6E060EF1
:1019FA00D880EE54000EED5407E2060EF36E010E87
:101A0A00F3CFDBFF020EDB6A010EDBCFABFE30D079
:101A1A000A0EDF5C07E1010EDBCFB2FE020EDBCF5E
:101A2A00B3FE0DD00B0EDF5C07E1010EDBCFB2FE79
:101A3A00020EDBCFB3FE1CD00C0EDF5C07E1010EF9
:101A4A00DBCFB4FE020EDBCFB5FE12D00D0EDF5C8B
:101A5A000FE1D950010FE96E000EDA20EA6EEE505E
:101A6A00ED1004E00501010EDF6F02D00501DF6B06
:101A7A0018EC4CF0E552E552E552E552E5CFDAFFB3
:101A8A00E7CFD9FF1200D9CFE6FFDACFE6FFE1CFE1
:101A9A00D9FFE2CFDAFF200EE12402E3E168E65241
:101AAA00E16EDE6ADE6ADE6ADD6ADD52DD52040E4E
:101ABA00DB6A050EDB6A060EDB6A070EDB6A080EB6
:101ACA00DB6A090EDB6A0A0EDB6A0B0EDB6A0C0E96
:101ADA00DB6A0D0EDB6A0E0EDB6A0F0EDB6A100E76
:101AEA00DB6A110EDB6A120EDB6A130EDB6AE66A28
:101AFA00D950040FE66E000EDA20E66E070EE66E87
:101B0A00BCEC55F0E552E552E552E552E66AD95089
:101B1A00060FE66E000EDA20E66E070EE66EBCECE5
:101B2A0055F0E552E552E552E552E66AD950080FFA
:101B3A00E66E000EDA20E66E060EE66EBCEC55F096
:101B4A00E552E552E552E552E66AD9500C0FE66EC7
:101B5A00000EDA20E66E060EE66EBCEC55F0E55293
:101B6A00E552E552E552D950040FE96E000EDA202B
:101B7A00EA6EA80ED880EE54610EED5405E2AE0E60
:101B8A00006EDC0E1AEF12F0D950060FE96E000E45
:101B9A00DA20EA6EA80ED880EE54610EED5405E202
:101BAA00800E006EDC0E1AEF12F0040EDBCF00F08E
:101BBA00050EDBCF01F0040E005C000E015805E2B1
:101BCA00560E006EDC0E1AEF12F0060EDBCF00F096
:101BDA00070EDBCF01F0040E005C000E015805E28F
:101BEA002E0E006EDC0E1AEF12F00701B45102E05D
:101BFA002DEF12F0080EDBCF10F0090EDBCF11F03B
:101C0A000A0EDBCF12F00B0EDBCF13F010C038F048
:101C1A0011C039F012C03AF013C03BF0080EDBCF06
:101C2A003DF0090EDBCF3EF00A0EDBCF3FF00B0E84
:101C3A00DBCF40F0F5EC79F034C00CF035C00DF094
:101C4A0036C00EF037C00FF00C0EDBCF14F00D0EBD
:101C5A00DBCF15F00E0EDBCF16F00F0EDBCF17F031
:101C6A0014C038F015C039F016C03AF017C03BF06E
:101C7A000C0EDBCF3DF00D0EDBCF3EF00E0EDBCFB0
:101C8A003FF00F0EDBCF40F0F5EC79F00C50342426
:101C9A00086E0D503520096E0E5036200A6E0F5010
:101CAA0037200B6E08C038F009C039F00AC03AF084
:101CBA003B6EE5EC69F039C004F03AC005F03BC070
:101CCA0006F03CC007F039C0E6FF3AC0E6FF3BC069
:101CDA00E6FF3CC0E6FFF5EC71F0E552E552E5524D
:101CEA00E55238C000F039C001F03AC002F03BC0FA
:101CFA0003F038C039F001C03AF002C03BF003C02B
:101D0A003CF055EC6BF0140E38C0DBFF150E39C0F1
:101D1A00DBFF160E3AC0DBFF170E3BC0DBFF0501E7
:101D2A002751FDE04E6B4F6B506B516B4D6B8D9095
:101D3A008B92D950080FE96E000EDA20EA6ED8901D
:101D4A00030EEB50000A08E6000EEE5C000EEE5899
:101D5A00000EEE58000EEE5820E2020E4D6F080EED
:101D6A00DBCF38F0090EDBCF39F00A0EDBCF3AF0C1
:101D7A000B0EDBCF3BF03D683E683F684068F5ECF0
:101D8A0079F0080E34C0DBFF090E35C0DBFF0A0EFE
:101D9A0036C0DBFF0B0E37C0DBFFD9500C0FE96EE4
:101DAA00000EDA20EA6ED890030EEB50000A08E61D
:101DBA00000EEE5C000EEE58000EEE58000EEE58C5
:101DCA0022E2080E05014D114D6F0C0EDBCF38F0E3
:101DDA000D0EDBCF39F00E0EDBCF3AF00F0EDBCF54
:101DEA003BF03D683E683F684068F5EC79F00C0EC0
:101DFA0034C0DBFF0D0E35C0DBFF0E0E36C0DBFF35
:101E0A000F0E37C0DBFF080EDBCF39F0090EDBCF30
:101E1A003AF00A0EDBCF3BF00B0EDBCF3CF03C3442
:101E2A00000E3C1809E6D880FF0E3954FF0E3A54CA
:101E3A00FF0E3B54000E3C5404E2000E006EDC0E12
:101E4A00F4D20C0EDBCF39F00D0EDBCF3AF00E0ECA
:101E5A00DBCF3BF00F0EDBCF3CF03C34000E3C18DE
:101E6A0009E6D880FF0E3954FF0E3A54FF0E3B5450
:101E7A00000E3C5404E2D20E006EDB0ED6D2040EE3
:101E8A00DBCF3AF0050EDBCF3BF0CEEC69F039C080
:101E9A0004F03AC005F03BC006F03CC007F0AC0EB7
:101EAA003E6EC50E3F6EA70E406E470E416E51EC58
:101EBA006AF039C000F03AC001F03BC002F03CC001
:101ECA0003F0140EDBCF0CF0150EDBCF0DF0160E5F
:101EDA00DBCF0EF0170EDBCF0FF00CC038F00DC0C1
:101EEA0039F00EC03AF00FC03BF0E3EC69F039C0AC
:101EFA0008F03AC009F03BC00AF03CC00BF039C008
:101F0A003EF03AC03FF03BC040F03CC041F000C058
:101F1A0039F001C03AF002C03BF003C03CF0FEECDD
:101F2A0069F0180E39C0DBFF190E3AC0DBFF1A0E32
:101F3A003BC0DBFF1B0E3CC0DBFF180EDBCF00F003
:101F4A00190EDBCF01F01A0EDBCF02F01B0EDBCF2E
:101F5A0003F0080EDBCF08F0090EDBCF09F00A0EFA
:101F6A00DBCF0AF00B0EDBCF0BF008C038F009C04C
:101F7A0039F00AC03AF00BC03BF0E5EC69F039C021
:101F8A0004F03AC005F03BC006F03CC007F039C087
:101F9A003EF03AC03FF03BC040F03CC041F000C0C8
:101FAA0039F001C03AF002C03BF003C03CF051ECFA
:101FBA006AF055EC6BF038C035F539C036F53AC0E1
:101FCA0037F53BC038F5080EDBCF45F5090EDBCFF8
:101FDA0046F50A0EDBCF47F50B0EDBCF48F5060EAA
:101FEA00DBCF3AF0070EDBCF3BF0CEEC69F039C01D
:101FFA0008F03AC009F03BC00AF03CC00BF0060EEC
:10200A00DBCF3AF0070EDBCF3BF0CEEC69F039C0FC
:10201A000CF03AC00DF03BC00EF03CC00FF039C0D6
:10202A003EF03AC03FF03BC040F03CC041F008C02F
:10203A0039F009C03AF00AC03BF00BC03CF051EC51
:10204A006AF039C004F03AC005F03BC006F03CC063
:10205A0007F0040EDBCF3AF0050EDBCF3BF0CEECF7
:10206A0069F039C014F03AC015F03BC016F03CC014
:10207A0017F0040EDBCF3AF0050EDBCF3BF0CEECC7
:10208A0069F039C018F03AC019F03BC01AF03CC0E8
:10209A001BF039C03EF03AC03FF03BC040F03CC0B4
:1020AA0041F014C039F015C03AF016C03BF017C021
:1020BA003CF051EC6AF039C010F03AC011F03BC064
:1020CA0012F03CC013F039C03EF03AC03FF03BC0BA
:1020DA0040F03CC041F004C039F005C03AF006C0F7
:1020EA003BF007C03CF0BEEC6AF039C000F03AC0E1
:1020FA0001F03BC002F03CC003F0140EDBCF28F025
:10210A00150EDBCF29F0160EDBCF2AF0170EDBCF28
:10211A002BF028C038F029C039F02AC03AF02BC079
:10212A003BF0E3EC69F039C024F03AC025F03BC03B
:10213A0026F03CC027F0140EDBCF30F0150EDBCFB3
:10214A0031F0160EDBCF32F0170EDBCF33F030C092
:10215A0038F031C039F032C03AF033C03BF0E3EC2A
:10216A0069F039C02CF03AC02DF03BC02EF03CC0CB
:10217A002FF039C03EF03AC03FF03BC040F03CC0BF
:10218A0041F024C039F025C03AF026C03BF027C000
:10219A003CF051EC6AF039C020F03AC021F03BC063
:1021AA0022F03CC023F03E6A3F6A406A400E416E0C
:1021BA0051EC6AF039C01CF03AC01DF03BC01EF069
:1021CA003CC01FF039C03EF03AC03FF03BC040F07F
:1021DA003CC041F000C039F001C03AF002C03BF007
:1021EA0003C03CF0FEEC69F01C0E39C0DBFF1D0E8B
:1021FA003AC0DBFF1E0E3BC0DBFF1F0E3CC0DBFFFD
:10220A00080EDBCF04F0090EDBCF05F00A0EDBCF98
:10221A0006F00B0EDBCF07F004C038F005C039F02A
:10222A0006C03AF007C03BF0E5EC69F01C0EDBCFC4
:10223A003EF01D0EDBCF3FF01E0EDBCF40F01F0E2F
:10224A00DBCF41F051EC6AF039C000F03AC001F03E
:10225A003BC002F03CC003F0210E3E6EE60E3F6E1C
:10226A005B0E406E400E416E51EC6AF055EC6BF01D
:10227A0038C03DF539C03EF53AC03FF53BC040F5A0
:10228A00180EDBCF00F0190EDBCF01F01A0EDBCFF0
:10229A0002F01B0EDBCF03F00C0EDBCF08F00D0EA5
:1022AA00DBCF09F00E0EDBCF0AF00F0EDBCF0BF0FF
:1022BA0008C038F009C039F00AC03AF00BC03BF048
:1022CA00E5EC69F039C004F03AC005F03BC006F00D
:1022DA003CC007F039C03EF03AC03FF03BC040F086
:1022EA003CC041F000C039F001C03AF002C03BF0F6
:1022FA0003C03CF051EC6AF055EC6BF038C039F58C
:10230A0039C03AF53AC03BF53BC03CF50C0EDBCF81
:10231A0049F50D0EDBCF4AF50E0EDBCF4BF50F0E4E
:10232A00DBCF4CF50C0EDBCF04F00D0EDBCF05F046
:10233A000E0EDBCF06F00F0EDBCF07F004C038F02D
:10234A0005C039F006C03AF007C03BF0E5EC69F089
:10235A001C0EDBCF3EF01D0EDBCF3FF01E0EDBCF97
:10236A0040F01F0EDBCF41F051EC6AF039C000F0AB
:10237A003AC001F03BC002F03CC003F0210E3E6EB1
:10238A00E60E3F6E5B0E406E400E416E51EC6AF0F7
:10239A0055EC6BF038C041F539C042F53AC043F507
:1023AA003BC044F5040EDBCF00F0050EDBCF01F095
:1023BA00060EDB50001803E1070EDB50011814E08B
:1023CA0005013D513E113F1140110EE1D880000E2A
:1023DA004555000E4655000E4755000E485504E275
:1023EA00A70E006EDB0E21D0040EDBCF00F0050E27
:1023FA00DBCF01F0060EDB50001803E1070EDB50BD
:10240A00011820E0050141514211431144111AE11A
:10241A00D880000E4955000E4A55000E4B55000E45
:10242A004C5510E27C0E006EDB0E016E026A00C093
:10243A00E6FFE66E02C0E6FF1FEC79F0E552E552D0
:10244A00E55206D00501010E346F276B18EC4CF0EB
:10245A00200EE15C02E2E16AE552E16EE552E5CF67
:10246A00DAFFE7CFD9FF1200D9CFE6FFDACFE6FFCE
:10247A00E1CFD9FFE2CFDAFF3F0EE12402E3E168C0
:10248A00E652E16E0C0EDB6A0D0EDB6A0E0EDB6A9B
:10249A000F0EDB6A140EDB6A150EDB6A160EDB6A98
:1024AA00170EDB6AE66AD9CFE6FFDACFE6FF070E38
:1024BA00E66EBCEC55F0E552E552E552E552E66AA5
:1024CA00D950100FE66E000EDA20E66E060EE66EA2
:1024DA00BCEC55F0E552E552E552E552E66AD950B0
:1024EA00040FE66E000EDA20E66E060EE66EBCEC0F
:1024FA0055F0E552E552E552E552E66AD950080F21
:10250A00E66E000EDA20E66E070EE66EBCEC55F0BB
:10251A00E552E552E552E552E66AD950140FE66EE5
:10252A00000EDA20E66E060EE66EBCEC55F0E552B9
:10253A00E552E552E552E66AD9500C0FE66E000EF6
:10254A00DA20E66E060EE66EBCEC55F0E552E55270
:10255A00E552E5520701B45101E0D3D1D9CFE9FFE1
:10256A00DACFEAFFEECF00F0EECF01F0EECF02F0C5
:10257A00EFCF03F0005001100210031011E1040E16
:10258A00DBCF04F0050EDBCF05F0060EDBCF06F03D
:10259A00070EDBCF07F0045005100610071011E0F4
:1025AA00100EDBCF08F0110EDBCF09F0120EDBCFD5
:1025BA000AF0130EDBCF0BF0085009100A100B10AB
:1025CA0035E1080EDBCF0CF0090EDBCF0DF00A0E59
:1025DA00DBCF0EF00B0EDBCF0FF00C500D100E10F0
:1025EA000F1012E10C0EDBCF10F00D0EDBCF11F045
:1025FA000E0EDBCF12F00F0EDBCF13F010501110BE
:10260A001210131001E17DD1140EDBCF14F0150E58
:10261A00DBCF15F0160EDBCF16F0170EDBCF17F057
:10262A00145015101610171001E16BD1320EDB6A27
:10263A00330EDB6A340EDB6A350EDB6A310EDB6A77
:10264A008D908B92D950100FE96E000EDA20EA6E47
:10265A00D890030EEB50000A08E6000EEE5C000E5E
:10266A00EE58000EEE58000EEE5825E2310EDB5001
:10267A000209E76E310EE7CFDBFF100EDBCF38F031
:10268A00110EDBCF39F0120EDBCF3AF0130EDBCF8F
:10269A003BF03D683E683F684068F5EC79F0100E03
:1026AA0034C0DBFF110E35C0DBFF120E36C0DBFF74
:1026BA00130E37C0DBFFD950140FE96E000EDA2073
:1026CA00EA6ED890030EEB50000A08E6000EEE5CA4
:1026DA00000EEE58000EEE58000EEE5825E2310EAE
:1026EA00DB500809E76E310EE7CFDBFF140EDBCFB4
:1026FA0038F0150EDBCF39F0160EDBCF3AF0170E95
:10270A00DBCF3BF03D683E683F684068F5EC79F006
:10271A00140E34C0DBFF150E35C0DBFF160E36C0B3
:10272A00DBFF170E37C0DBFFD9CFE9FFDACFEAFFAD
:10273A00190EEECFDBFF1A0EEECFDBFF1B0EEECF2C
:10274A00DBFF1C0EEECFDBFFD950100FE96E000E37
:10275A00DA20EA6E290EEECFDBFF2A0EEECFDBFF80
:10276A002B0EEECFDBFF2C0EEECFDBFFD950040F82
:10277A00E96E000EDA20EA6E210EEECFDBFF220EA2
:10278A00EECFDBFF230EEECFDBFF240EEECFDBFF17
:10279A00D950080FE96E000EDA20EA6E1D0EEECF50
:1027AA00DBFF1E0EEECFDBFF1F0EEECFDBFF200E90
:1027BA00EECFDBFFD950140FE96E000EDA20EA6E75
:1027CA002D0EEECFDBFF2E0EEECFDBFF2F0EEECF60
:1027DA00DBFF300EEECFDBFFD9500C0FE96E000E97
:1027EA00DA20EA6E250EEECFDBFF260EEECFDBFFF8
:1027FA00270EEECFDBFF280EEECFDBFF010EF36EC6
:10280A00180EF3CFDBFF05012751FDE0180EDBCFD1
:10281A0034F5190EDBCF35F51A0EDBCF36F51B0E64
:10282A00DBCF37F51C0EDBCF38F51D0EDBCF39F5C4
:10283A001E0EDBCF3AF51F0EDBCF3BF5200EDBCFAA
:10284A003CF5210EDBCF3DF5220EDBCF3EF5230E04
:10285A00DBCF3FF5240EDBCF40F5250EDBCF41F56C
:10286A00260EDBCF42F5270EDBCF43F5280EDBCF52
:10287A0044F5290EDBCF45F52A0EDBCF46F52B0EA4
:10288A00DBCF47F52C0EDBCF48F52D0EDBCF49F514
:10289A002E0EDBCF4AF52F0EDBCF4BF5300EDBCFFA
:1028AA004CF5310EDBCF4DF5320EDBCF4EF5330E44
:1028BA00DBCF4FF5340EDBCF50F5350EDBCF51F5BC
:1028CA00360EDBCF52F5370EDBCF53F5380EDBCFA2
:1028DA0054F5390EDBCF55F53A0EDBCF56F53B0EE4
:1028EA00DBCF57F53C0EDBCF58F53D0EDBCF59F564
:1028FA003E0EDBCF5AF5276B0701E35102E018ECD5
:10290A004CF03F0EE15C02E2E16AE552E16EE5520B
:10291A00E5CFDAFFE7CFD9FF1200D9CFE6FFDACF4A
:10292A00E6FFE1CFD9FFE2CFDAFF100EE12402E39E
:10293A00E168E652E16EDE6ADE6ADE6ADD6ADD526F
:10294A00DD52040EDB6A050EDB6A060EDB6A070E31
:10295A00DB6A080EDB6A090EDB6A0A0EDB6A0B0EFB
:10296A00DB6A0C0EDB6A0D0EDB6A0E0EDB6A0F0EDB
:10297A00DB6AE66AD9CFE6FFDACFE6FF070EE66E34
:10298A00BCEC55F0E552E552E552E552E66AD950FB
:10299A00040FE66E000EDA20E66E060EE66EBCEC5A
:1029AA0055F0E552E552E552E552010EE66ED95070
:1029BA00080FE66E000EDA20E66E060EE66EBCEC36
:1029CA0055F0E552E552E552E5520E01BF5101E1DB
:1029DA00F5D1D9CFE9FFDACFEAFFEECF00F0EECF9B
:1029EA0001F0EECF02F0EFCF03F000500110021019
:1029FA00031002E10701B48D0701B45101E014D2BA
:102A0A00D9CFE9FFDACFEAFFD880FF0EEE54FF0EE6
:102A1A00EE54FF0EEE54000EEE5404E2490E006E20
:102A2A00DB0EBFD1040EDBCF39F0050EDBCF3AF057
:102A3A00060EDBCF3BF0070EDBCF3CF03C34000E3A
:102A4A003C1809E6D880000E3954000E3A54000E9C
:102A5A003B54000E3C5413E2D950040FE96E000EA9
:102A6A00DA20EA6E0C0EEECFDBFF0D0EEECFDBFFA7
:102A7A000E0EEECFDBFF0F0EEECFDBFF1ED0040EE5
:102A8A00DBCF38F0050EDBCF39F0060EDBCF3AF09C
:102A9A00070EDBCF3BF03D683E683F684068F5ECC7
:102AAA0079F00C0E34C0DBFF0D0E35C0DBFF0E0EC5
:102ABA0036C0DBFF0F0E37C0DBFF0C0EDBCF39F061
:102ACA000D0EDBCF3AF00E0EDBCF3BF00F0EDBCF55
:102ADA003CF03C34000E3C1809E6D880FF0E39540D
:102AEA00FF0E3A54FF0E3B54000E3C5404E2000E13
:102AFA00006EDC0E56D10C0EDBCF00F00D0EDBCFD4
:102B0A0001F00E0EDBCF02F00F0EDBCF03F000C098
:102B1A0038F001C039F002C03AF003C03BF0DFCF11
:102B2A003DF0010EDBCF3EF0020EDBCF3FF0030E8D
:102B3A00DBCF40F053EC7AF0D880190E3854000EEF
:102B4A003954000E3A54000E3B5404E2190E006E3A
:102B5A00DB0E27D1D9CFE9FFDACFEAFFEECF00F0BB
:102B6A00EECF01F0EECF02F0EFCF03F01F0E3D6E75
:102B7A00050E3E6E3F6A406A00C038F001C039F067
:102B8A0002C03AF003C03BF053EC7AF038C000F0D0
:102B9A0039C001F03AC002F03BC003F0D9500C0F23
:102BAA00E96E000EDA20EA6EEE50385CEE503958C3
:102BBA00EE503A58EE503B5815E30C0EDBCF04F0BA
:102BCA000D0EDBCF05F00E0EDBCF06F00F0EDBCFBE
:102BDA0007F0045005100610071004E0F30E006E0B
:102BEA00DA0EDFD0080EDBCF39F0090EDBCF3AF070
:102BFA000A0EDBCF3BF00B0EDBCF3CF03C34000E71
:102C0A003C1809E6D880000E3954000E3A54000EDA
:102C1A003B54000E3C5413E2D950080FE96E000EE3
:102C2A00DA20EA6E0C0EEECFDBFF0D0EEECFDBFFE5
:102C3A000E0EEECFDBFF0F0EEECFDBFF1ED0080E1F
:102C4A00DBCF38F0090EDBCF39F00A0EDBCF3AF0D2
:102C5A000B0EDBCF3BF03D683E683F684068F5EC01
:102C6A0079F00C0E34C0DBFF0D0E35C0DBFF0E0E03
:102C7A0036C0DBFF0F0E37C0DBFF0C0EDBCF39F09F
:102C8A000D0EDBCF3AF00E0EDBCF3BF00F0EDBCF93
:102C9A003CF03C34000E3C1809E6D880FF0E39544B
:102CAA00FF0E3A54FF0E3B54000E3C5404E2D20E7F
:102CBA00006EDB0E76D00C0EDBCF00F00D0EDBCFF4
:102CCA0001F00E0EDBCF02F00F0EDBCF03F000C0D7
:102CDA0038F001C039F002C03AF003C03BF0DFCF50
:102CEA003DF0010EDBCF3EF0020EDBCF3FF0030ECC
:102CFA00DBCF40F053EC7AF0D880190E3854000E2E
:102D0A003954000E3A54000E3B5404E2C30E006ECE
:102D1A00DA0E47D0D9CFE9FFDACFEAFFEECF00F0DB
:102D2A00EECF01F0EECF02F0EFCF03F01F0E3D6EB3
:102D3A00050E3E6E3F6A406A00C038F001C039F0A5
:102D4A0002C03AF003C03BF053EC7AF038C000F00E
:102D5A0039C001F03AC002F03BC003F0D9500C0F61
:102D6A00E96E000EDA20EA6EEE50385CEE50395801
:102D7A00EE503A58EE503B5821E30C0EDBCF04F0EC
:102D8A000D0EDBCF05F00E0EDBCF06F00F0EDBCFFC
:102D9A0007F0045005100610071010E09D0E006E93
:102DAA00DA0E016E026A00C0E6FFE66E02C0E6FFB6
:102DBA001FEC79F0E552E552E55236D0D950080FAA
:102DCA00E96E000EDA20EA6EEECFE6FFEECFE6FFFE
:102DDA00EECFE6FFEFCFE6FFD950040FE96E000E03
:102DEA00DA20EA6EEECFE6FFEECFE6FFEECFE6FFA1
:102DFA00EFCFE6FFD9CFE9FFDACFEAFFEECFE6FF62
:102E0A00EECFE6FFEECFE6FFEFCFE6FF03DB006E85
:102E1A000C0EE15C02E2E16AE552E16E0050070144
:102E2A00E35102E018EC4CF0100EE15C02E2E16AB8
:102E3A00E552E16EE552E5CFDAFFE7CFD9FF12009E
:102E4A00D9CFE6FFDACFE6FFE1CFD9FFE2CFDAFF4B
:102E5A00180EE12402E3E168E652E16EDE6ADE6AF8
:102E6A00DE6ADD6ADD52DD52040EDB6A050EDB6ABC
:102E7A00060EDB6A070EDB6A080EDB6A090EDB6ADE
:102E8A000A0EDB6A0B0EDB6A0C0EDB6A0D0EDB6ABE
:102E9A000E0EDB6A0F0EDB6A100EDB6A110EDB6A9E
:102EAA00120EDB6A130EDB6A140EDB6A150EDB6A7E
:102EBA00160EDB6A170EDB6AE66AD9CFE6FFDACFAF
:102ECA00E6FF070EE66EBCEC55F0E552E552E55218
:102EDA00E552E66AD9500C0FE66E000EDA20E66E6D
:102EEA00060EE66EBCEC55F0E552E552E552E552A7
:102EFA00E66AD950100FE66E000EDA20E66E060E6C
:102F0A00E66EBCEC55F0E552E552E552E552D9CFF2
:102F1A00E9FFDACFEAFFEECF00F0EECF01F0EECF15
:102F2A0002F0EFCF03F0005001100210031002E18B
:102F3A000701B48D100EDBCF00F0110EDBCF01F0CC
:102F4A00120EDBCF02F0130EDBCF03F0D9500C0FB9
:102F5A00E96E000EDA20EA6EEE500026EE500122EB
:102F6A00EE500222EE500322040E00C0DBFF050ED3
:102F7A0001C0DBFF060E02C0DBFF070E03C0DBFF4A
:102F8A000C0EDBCF04F00D0EDBCF05F00E0EDBCFFF
:102F9A0006F00F0EDBCF07F0D950100FE96E000EC6
:102FAA00DA20EA6EEE50045C006EEE500558016EAF
:102FBA00EE500658026EEE500758036E080E00C017
:102FCA00DBFF090E01C0DBFF0A0E02C0DBFF0B0E9E
:102FDA0003C0DBFF040EDBCF39F0050EDBCF3AF07E
:102FEA00060EDBCF3BF0070EDBCF3CF03C34000E85
:102FFA003C1809E6D880000E3954000E3A54000EE7
:10300A003B54000E3C5413E2D950040FE96E000EF3
:10301A00DA20EA6E140EEECFDBFF150EEECFDBFFE1
:10302A00160EEECFDBFF170EEECFDBFF1ED0040E1F
:10303A00DBCF38F0050EDBCF39F0060EDBCF3AF0E6
:10304A00070EDBCF3BF03D683E683F684068F5EC11
:10305A0079F0140E34C0DBFF150E35C0DBFF160EF7
:10306A0036C0DBFF170E37C0DBFFD9CFE9FFDACF57
:10307A00EAFFD880FF0EEE54FF0EEE54FF0EEE5418
:10308A00000EEE5404E2490E006EDB0E74D1140EEB
:10309A00DBCF39F0150EDBCF3AF0160EDBCF3BF063
:1030AA00170EDBCF3CF03C34000E3C1809E6D88002
:1030BA00FF0E3954FF0E3A54FF0E3B54000E3C5497
:1030CA0004E2000E006EDC0E56D1140EDBCF00F0C7
:1030DA00150EDBCF01F0160EDBCF02F0170EDBCF99
:1030EA0003F000C038F001C039F002C03AF003C062
:1030FA003BF0DFCF3DF0010EDBCF3EF0020EDBCF1F
:10310A003FF0030EDBCF40F053EC7AF0D880190E73
:10311A003854000E3954000E3A54000E3B5404E25F
:10312A00190E006EDB0E27D1D9CFE9FFDACFEAFFFD
:10313A00EECF00F0EECF01F0EECF02F0EFCF03F0CA
:10314A001F0E3D6E050E3E6E3F6A406A00C038F0A3
:10315A0001C039F002C03AF003C03BF053EC7AF0F8
:10316A0038C000F039C001F03AC002F03BC003F0A9
:10317A00D950140FE96E000EDA20EA6EEE50385C70
:10318A00EE503958EE503A58EE503B5815E3140EAB
:10319A00DBCF04F0150EDBCF05F0160EDBCF06F001
:1031AA00170EDBCF07F0045005100610071004E0D5
:1031BA00F30E006EDA0EDFD0080EDBCF39F0090EFF
:1031CA00DBCF3AF00A0EDBCF3BF00B0EDBCF3CF045
:1031DA003C34000E3C1809E6D880000E3954000E23
:1031EA003A54000E3B54000E3C5413E2D950080FD7
:1031FA00E96E000EDA20EA6E140EEECFDBFF150E32
:10320A00EECFDBFF160EEECFDBFF170EEECFDBFFA6
:10321A001ED0080EDBCF38F0090EDBCF39F00A0ECC
:10322A00DBCF3AF00B0EDBCF3BF03D683E683F68E0
:10323A004068F5EC79F0140E34C0DBFF150E35C08A
:10324A00DBFF160E36C0DBFF170E37C0DBFF140E8E
:10325A00DBCF39F0150EDBCF3AF0160EDBCF3BF0A1
:10326A00170EDBCF3CF03C34000E3C1809E6D88040
:10327A00FF0E3954FF0E3A54FF0E3B54000E3C54D5
:10328A0004E2D20E006EDB0E76D0140EDBCF00F015
:10329A00150EDBCF01F0160EDBCF02F0170EDBCFD7
:1032AA0003F000C038F001C039F002C03AF003C0A0
:1032BA003BF0DFCF3DF0010EDBCF3EF0020EDBCF5D
:1032CA003FF0030EDBCF40F053EC7AF0D880190EB2
:1032DA003854000E3954000E3A54000E3B5404E29E
:1032EA00C30E006EDA0E47D0D9CFE9FFDACFEAFF74
:1032FA00EECF00F0EECF01F0EECF02F0EFCF03F009
:10330A001F0E3D6E050E3E6E3F6A406A00C038F0E1
:10331A0001C039F002C03AF003C03BF053EC7AF036
:10332A0038C000F039C001F03AC002F03BC003F0E7
:10333A00D950140FE96E000EDA20EA6EEE50385CAE
:10334A00EE503958EE503A58EE503B5821E3140EDD
:10335A00DBCF04F0150EDBCF05F0160EDBCF06F03F
:10336A00170EDBCF07F0045005100610071010E007
:10337A009D0E006EDA0E016E026A00C0E6FFE66E6E
:10338A0002C0E6FF1FEC79F0E552E552E55236D06D
:10339A000701B45133E1D950080FE96E000EDA2063
:1033AA00EA6EEECFE6FFEECFE6FFEECFE6FFEFCF17
:1033BA00E6FFD950040FE96E000EDA20EA6EEECF6E
:1033CA00E6FFEECFE6FFEECFE6FFEFCFE6FFD9CF7F
:1033DA00E9FFDACFEAFFEECFE6FFEECFE6FFEECF68
:1033EA00E6FFEFCFE6FF16D8006E0C0EE15C02E2B4
:1033FA00E16AE552E16E005018EC4CF0180EE15CFF
:10340A0002E2E16AE552E16EE552E5CFDAFFE7CF83
:10341A00D9FF1200D9CFE6FFDACFE6FFE1CFD9FF15
:10342A00E2CFDAFF370EE12402E3E168E652E16E09
:10343A00DE6ADE6ADE6ADD6ADD52DD52040EDB6AAE
:10344A00050EDB6A060EDB6A070EDB6A080EDB6A0C
:10345A00090EDB6A0A0EDB6A0B0EDB6A0C0EDB6AEC
:10346A000D0EDB6A0E0EDB6A0F0EDB6AF60EDBCF81
:10347A0000F0F70EDBCF01F0F80EDBCF02F0F90E09
:10348A00DBCF03F000500110021003103FE1F20EEF
:10349A00DBCF04F0F30EDBCF05F0F40EDBCF06F042
:1034AA00F50EDBCF07F004500510061007102EE1C9
:1034BA00020EF36E100EF3CFDBFFFA0EDBCF00F035
:1034CA00FB0EDBCF01F0FC0EDBCF02F0FD0EDBCFF3
:1034DA0003F0190E3D6E3E6A3F6A406A00C038F03A
:1034EA0001C039F002C03AF003C03BF0F5EC79F0C4
:1034FA002A0E34C0DBFF2B0E35C0DBFF2C0E36C084
:10350A00DBFF2D0E37C0DBFF37EF1FF02A0EDB6A19
:10351A002B0EDB6A2C0EDB6A2D0EDB6A290EDB6AA8
:10352A008D908B92D950F60FE96EFF0EDA20EA6E73
:10353A00D890030EEB50000A08E6000EEE5C000E6F
:10354A00EE58000EEE58000EEE5825E2290EDB501A
:10355A000209E76E290EE7CFDBFFF60EDBCF38F064
:10356A00F70EDBCF39F0F80EDBCF3AF0F90EDBCFEE
:10357A003BF03D683E683F684068F5EC79F0F60E2E
:10358A0034C0DBFFF70E35C0DBFFF80E36C0DBFFB9
:10359A00F90E37C0DBFFD950F20FE96EFF0EDA20C1
:1035AA00EA6ED890030EEB50000A08E6000EEE5CB5
:1035BA00000EEE58000EEE58000EEE5825E2290EC7
:1035CA00DB500809E76E290EE7CFDBFFF20EDBCFEF
:1035DA0038F0F30EDBCF39F0F40EDBCF3AF0F50E0C
:1035EA00DBCF3BF03D683E683F684068F5EC79F018
:1035FA00F20E34C0DBFFF30E35C0DBFFF40E36C02B
:10360A00DBFFF50E37C0DBFFD950F60FE96EFF0E70
:10361A00DA20EA6ED890030EEB50000A08E6FF0E95
:10362A00EE5CFF0EEE58010EEE58000EEE5801E366
:10363A00DFD0FA0EDBCF00F0FB0EDBCF01F0FC0E81
:10364A00DBCF02F0FD0EDBCF03F0190E3D6E3E6AB2
:10365A003F6A406A00C038F001C039F002C03AF04F
:10366A0003C03BF0F5EC79F0040E34C0DBFF050E25
:10367A0035C0DBFF060E36C0DBFF070E37C0DBFFA7
:10368A00F60EDBCF00F0F70EDBCF01F0F80EDBCF42
:10369A0002F0F90EDBCF03F00F0E1F0B07E0D890F4
:1036AA000036013602360336E806F9E100C038F082
:1036BA0001C039F002C03AF003C03BF0040EDBCF80
:1036CA003DF0050EDBCF3EF0060EDBCF3FF0070ED6
:1036DA00DBCF40F053EC7AF038C0DEFF39C0DEFFB2
:1036EA003AC0DEFF3BC0DDFFDD52DD52F60EDBCF16
:1036FA0000F0F70EDBCF01F0F80EDBCF02F0F90E87
:10370A00DBCF03F00F0E1F0B07E0D890003601360F
:10371A0002360336E806F9E100C038F001C039F094
:10372A0002C03AF003C03BF0040EDBCF3DF0050EB9
:10373A00DBCF3EF0060EDBCF3FF0070EDBCF40F0CB
:10374A0053EC7AF0080E34C0DBFF090E35C0DBFFFC
:10375A000A0E36C0DBFF0B0E37C0DBFFD950FA0F5B
:10376A00E96EFF0EDA20EA6ED8801E0EEE54000EC5
:10377A00EE54000EEE54000EEE5401E37CD0080E17
:10378A00DBCF00F0090EDBCF01F00A0EDBCF02F02F
:10379A000B0EDBCF03F0100E1F0B07E0D89000369C
:1037AA00013602360336E806F9E100C038F001C0F6
:1037BA0039F002C03AF003C03BF0040EDBCF3DF013
:1037CA00050EDBCF3EF0060EDBCF3FF0070EDBCF58
:1037DA0040F053EC7AF00C0E38C0DBFF0D0E39C006
:1037EA00DBFF0E0E3AC0DBFF0F0E3BC0DBFF43D000
:1037FA00F60EDBCF00F0F70EDBCF01F0F80EDBCFD1
:10380A0002F0F90EDBCF03F000C038F001C039F046
:10381A0002C03AF003C03BF0FA0EDBCF3DF0FB0EDC
:10382A00DBCF3EF0FC0EDBCF3FF0FD0EDBCF40F0EE
:10383A0053EC7AF00F0ED890383639363A363B3692
:10384A00E806F9E1190E3D6E3E6A3F6A406A53EC9A
:10385A007AF038C0DEFF39C0DEFF3AC0DEFF3BC077
:10386A00DDFFDD52DD520C0EDB6A0D0EDB6A0E0E39
:10387A00DB6A0F0EDB6AD9CFE9FFDACFEAFFD8801D
:10388A00000EEE54800EEE54000EEE54000EEE546E
:10389A0027E2D9CFE9FFDACFEAFFEECFE6FFEECF94
:1038AA00E6FFEECFE6FFEFCFE6FF680E006EDA0E18
:1038BA00016E026A00C0E6FFE66E02C0E6FF1FEC78
:1038CA0079F0036E070EE15C02E2E16AE552E16E0D
:1038DA000350DE6A800EDE6EDE6ADD6ADD52DD527C
:1038EA00D9CFE9FFDACFEAFFEECF00F0EECF01F051
:1038FA00EECF02F0EFCF03F00050011002100310D8
:10390A0027E1F60EDBCF04F0F70EDBCF05F0F80E59
:10391A00DBCF06F0F90EDBCF07F0045005100610D6
:10392A00071016E03D0E006EDA0E016E026A00C044
:10393A00E6FFE66E02C0E6FF1FEC79F0E552E552BB
:10394A00E552010EDE6EDE6ADE6ADD6ADD52DD52A6
:10395A00D950FA0FE96EFF0EDA20EA6ED8801E0EF1
:10396A00EE54000EEE54000EEE54000EEE5429E210
:10397A00D9CFE9FFDACFEAFFEECF04F0EECF05F0B8
:10398A00EECF06F0EFCF07F0100E1F0B07E0D8902E
:10399A000436053606360736E806F9E1D9500C0F23
:1039AA00E96E000EDA20EA6E0450EE24006E05502D
:1039BA00EE20016E0650EE20026E0750EE20036ED6
:1039CA0016D0D9CFE9FFDACFEAFFEECF00F0EECF7B
:1039DA0001F0EECF02F0EFCF03F0100E1F0B07E05D
:1039EA00D8900036013602360336E806F9E100C0FF
:1039FA00DFFF010E01C0DBFF020E02C0DBFF030E78
:103A0A0003C0DBFFD9CFE9FFDACFEAFF110EEECF11
:103A1A00DBFF120EEECFDBFF130EEECFDBFF140E31
:103A2A00EECFDBFFD950F60FE96EFF0EDA20EA6E11
:103A3A00210EEECFDBFF220EEECFDBFF230EEECF01
:103A4A00DBFF240EEECFDBFF190EDB6A1A0EDB6AF0
:103A5A001B0EDB6A1C0EDB6AD950F20FE96EFF0EF1
:103A6A00DA20EA6ED890030EEB50000A08E6FF0E41
:103A7A00EE5CFF0EEE58010EEE58000EEE5801E312
:103A8A00B8D0F20EDBCF00F0F30EDBCF01F0F40E6C
:103A9A00DBCF02F0F50EDBCF03F00F0E1F0B07E0B2
:103AAA00D8900036013602360336E806F9E100C03E
:103ABA0038F001C039F002C03AF003C03BF0040EFE
:103ACA00DBCF3DF0050EDBCF3EF0060EDBCF3FF03D
:103ADA00070EDBCF40F053EC7AF038C0DEFF39C076
:103AEA00DEFF3AC0DEFF3BC0DDFFDD52DD52F20EE3
:103AFA00DBCF00F0F30EDBCF01F0F40EDBCF02F0E8
:103B0A00F50EDBCF03F00F0E1F0B07E0D89000363F
:103B1A00013602360336E806F9E100C038F001C082
:103B2A0039F002C03AF003C03BF0040EDBCF3DF09F
:103B3A00050EDBCF3EF0060EDBCF3FF0070EDBCFE4
:103B4A0040F053EC7AF0080E34C0DBFF090E35C0A2
:103B5A00DBFF0A0E36C0DBFF0B0E37C0DBFFD95086
:103B6A00FA0FE96EFF0EDA20EA6ED8801E0EEE54C6
:103B7A00000EEE54000EEE54000EEE5401E37CD01B
:103B8A00080EDBCF00F0090EDBCF01F00A0EDBCF07
:103B9A0002F00B0EDBCF03F0100E1F0B07E0D890DC
:103BAA000036013602360336E806F9E100C038F07D
:103BBA0001C039F002C03AF003C03BF0040EDBCF7B
:103BCA003DF0050EDBCF3EF0060EDBCF3FF0070ED1
:103BDA00DBCF40F053EC7AF00C0E38C0DBFF0D0E51
:103BEA0039C0DBFF0E0E3AC0DBFF0F0E3BC0DBFF16
:103BFA0043D0F20EDBCF00F0F30EDBCF01F0F40E70
:103C0A00DBCF02F0F50EDBCF03F000C038F001C0C5
:103C1A0039F002C03AF003C03BF0FA0EDBCF3DF0B8
:103C2A00FB0EDBCF3EF0FC0EDBCF3FF0FD0EDBCF11
:103C3A0040F053EC7AF00F0ED890383639363A36CF
:103C4A003B36E806F9E1190E3D6E3E6A3F6A406A64
:103C5A0053EC7AF038C0DEFF39C0DEFF3AC0DEFF2F
:103C6A003BC0DDFFDD52DD520C0EDB6A0D0EDB6A56
:103C7A000E0EDB6A0F0EDB6AD9CFE9FFDACFEAFF55
:103C8A00D880000EEE54800EEE54000EEE54000E54
:103C9A00EE5427E2D9CFE9FFDACFEAFFEECFE6FF0B
:103CAA00EECFE6FFEECFE6FFEFCFE6FF080E006E9F
:103CBA00DA0E016E026A00C0E6FFE66E02C0E6FF97
:103CCA001FEC79F0036E070EE15C02E2E16AE5524D
:103CDA00E16E0350DE6A800EDE6EDE6ADD6ADD5258
:103CEA00DD52D9CFE9FFDACFEAFFEECF00F0EECF0F
:103CFA0001F0EECF02F0EFCF03F0005001100210F6
:103D0A00031027E1F20EDBCF04F0F30EDBCF05F050
:103D1A00F40EDBCF06F0F50EDBCF07F004500510EA
:103D2A000610071016E0DD0E006ED90E016E026A4B
:103D3A0000C0E6FFE66E02C0E6FF1FEC79F0E5522E
:103D4A00E552E552010EDE6EDE6ADE6ADD6ADD529A
:103D5A00DD52D950FA0FE96EFF0EDA20EA6ED880EA
:103D6A001E0EEE54000EEE54000EEE54000EEE54EB
:103D7A0029E2D9CFE9FFDACFEAFFEECF04F0EECF9E
:103D8A0005F0EECF06F0EFCF07F0100E1F0B07E09D
:103D9A00D8900436053606360736E806F9E1D950D2
:103DAA000C0FE96E000EDA20EA6E0450EE24006E63
:103DBA000550EE20016E0650EE20026E0750EE20EE
:103DCA00036E16D0D9CFE9FFDACFEAFFEECF00F0C3
:103DDA00EECF01F0EECF02F0EFCF03F0100E1F0B83
:103DEA0007E0D8900036013602360336E806F9E1D4
:103DFA0000C0DFFF010E01C0DBFF020E02C0DBFFC5
:103E0A00030E03C0DBFFD9CFE9FFDACFEAFF150EB5
:103E1A00EECFDBFF160EEECFDBFF170EEECFDBFF8A
:103E2A00180EEECFDBFFD950F20FE96EFF0EDA2043
:103E3A00EA6E250EEECFDBFF260EEECFDBFF270E56
:103E4A00EECFDBFF280EEECFDBFF1D0EDB6A1E0E68
:103E5A00DB6A1F0EDB6A200EDB6A010EF36E100EA0
:103E6A00F3CFDBFF05012751FDE0100EDBCF34F560
:103E7A00110EDBCF35F5120EDBCF36F5130EDBCF85
:103E8A0037F5140EDBCF38F5150EDBCF39F5160EE4
:103E9A00DBCF3AF5170EDBCF3BF5180EDBCF3CF53F
:103EAA00190EDBCF3DF51A0EDBCF3EF51B0EDBCF2D
:103EBA003FF51C0EDBCF40F51D0EDBCF41F51E0E84
:103ECA00DBCF42F51F0EDBCF43F5200EDBCF44F5E7
:103EDA00210EDBCF45F5220EDBCF46F5230EDBCFD5
:103EEA0047F5240EDBCF48F5250EDBCF49F5260E24
:103EFA00DBCF4AF5270EDBCF4BF5280EDBCF4CF58F
:103F0A00290EDBCF4DF52A0EDBCF4EF52B0EDBCF7C
:103F1A004FF52C0EDBCF50F52D0EDBCF51F52E0EC3
:103F2A00DBCF52F52F0EDBCF53F5300EDBCF54F536
:103F3A00310EDBCF55F5320EDBCF56F5330EDBCF24
:103F4A0057F5340EDBCF58F5350EDBCF59F5360E63
:103F5A00DBCF5AF5276B370EE15C02E2E16AE552E4
:103F6A00E16EE552E5CFDAFFE7CFD9FF1200D9CFEC
:103F7A00E6FFDACFE6FFE1CFD9FFE2CFDAFF110E93
:103F8A00E12402E3E168E652E16EDF6A010EDB6AD0
:103F9A00020EDB6A030EDB6A040EDB6A050EDB6ABD
:103FAA00060EDB6A070EDB6A080EDB6A090EDB6A9D
:103FBA000A0EDB6A0B0EDB6A0C0EDB6A0D0EDB6A7D
:103FCA000E0EDB6A0F0EDB6A100EDB6A0501275143
:103FDA0002E1340502E0000502E1010EDF6E34055C
:103FEA002BE1346B090E45C5DBFF0A0E46C5DBFF24
:103FFA000B0E47C5DBFF0C0E48C5DBFF0D0E49C58E
:10400A00DBFF0E0E4AC5DBFF0F0E4BC5DBFF100EA2
:10401A004CC5DBFF456B466B476B486B496B4A6B7C
:10402A004B6B4C6B3D6B3E6B3F6B406B416B426B1A
:10403A00436B446B010E276F000529E1006B010EEB
:10404A0011C5DBFF020E12C5DBFF030E13C5DBFF32
:10405A00040E14C5DBFF050E15C5DBFF060E16C5DB
:10406A00DBFF070E17C5DBFF080E18C5DBFF116B58
:10407A00126B136B146B156B166B176B186B096B42
:10408A000A6B0B6B0C6B0D6B0E6B0F6B106BD950B5
:10409A00050FE96E000EDA20EA6EEECFE6FFEECFEC
:1040AA00E6FFEECFE6FFEFCFE6FFD950010FE96E4C
:1040BA00000EDA20EA6EEECFE6FFEECFE6FFEECF95
:1040CA00E6FFEFCFE6FFD9500D0FE96E000EDA20BA
:1040DA00EA6EEECFE6FFEECFE6FFEECFE6FFEFCFDA
:1040EA00E6FFD950090FE96E000EDA20EA6EEECF2C
:1040FA00E6FFEECFE6FFEECFE6FFEFCFE6FFDFCF3C
:10410A00E6FFE66AC80E006ED90E016E026A00C0AA
:10411A00E6FFE66E02C0E6FF1FEC79F0036E150EAD
:10412A00E15C02E2E16AE552E16E035018EC4CF000
:10413A00110EE15C02E2E16AE552E16EE552E5CF79
:10414A00DAFFE7CFD9FF1200D8C500F0016A00BE36
:10415A00016800C0E6FF01C0E6FFC30E026ED90E79
:10416A00036E046A02C0E6FFE66E04C0E6FF1FECB7
:10417A0079F0056E050EE15C02E2E16AE552E16E54
:10418A00055018EF4CF0D9CFE6FFDACFE6FFE1CFC2
:10419A00D9FFE2CFDAFFE652E652DE6ADD6A010EA5
:1041AA00E66ED9CFE6FFDACFE6FF030EE66EBCEC89
:1041BA0055F0E552E552E552E5520701B45115E1D1
:1041CA000501D80506E1DECFE6FFDDCFE6FFE66AA8
:1041DA0006D0DECFE6FFDDCFE6FF010EE66E9ED803
:1041EA00E552E552E55218EC4CF0E552E552E5523B
:1041FA00E5CFDAFFE7CFD9FF1200D9CFE6FFDACF52
:10420A00E6FFE1CFD9FFE2CFDAFFE652E652E65205
:10421A00E652E652DF6A010EDB6A020EDB6A010E23
:10422A00F36E030EF3CFDBFFE66AD9CFE6FFDACFF0
:10423A00E6FF010EE66EBCEC55F0E552E552E5529A
:10424A00E552010EE66ED950010FE66E000EDA2035
:10425A00E66E030EE66EBCEC55F0E552E552E55209
:10426A00E552010EE66ED950030FE66E000EDA2013
:10427A00E66E010EE66EBCEC55F0E552E552E552EB
:10428A00E552E76E040EE7CFDBFF0701B4513AE1CE
:10429A00030EDB50070805E2010EF36E030EF3CF9F
:1042AA00DBFFDF50010802E2010EDF6E030EDB5076
:1042BA00030F0E01B65D18E0000EE66EE66AE66EC2
:1042CA00E66AB6CEE6FFE66EE66A4EEC75F0006E7A
:1042DA00070EE15C02E2E16AE552E16E0050030E6C
:1042EA00DB50030F0E01B66F010EDBCFE6FF020EA5
:1042FA00DBCFE6FFDFCFE6FF11D8E552E552E55204
:10430A0018EC4CF0050EE15C02E2E16AE552E16E5E
:10431A00E552E5CFDAFFE7CFD9FF1200D9CFE6FFA2
:10432A00DACFE6FFE1CFD9FFE2CFDAFFE652E65273
:10433A00E652E652FD0EDB040BE1B0CEDEFFB1CE53
:10434A00DDFF020EB2CEDBFF030EB3CEDBFF0AD0D7
:10435A00AECEDEFFAFCEDDFF020EB4CEDBFF030E24
:10436A00B5CEDBFFFB0EDBCFE6FFFC0EDBCFE6FFB5
:10437A00020EDBCFE6FF030EDBCFE6FFB6CEE6FF8B
:10438A00DECFE6FFDDCFE6FF4EEC75F0006E070EDE
:10439A00E15C02E2E16AE552E16E0050040EE15C82
:1043AA0002E2E16AE552E16EE552E5CFDAFFE7CFD4
:1043BA00D9FF1200D9CFE6FFDACFE6FFE1CFD9FF66
:1043CA00E2CFDAFFE652E652E652E66AD9CFE6FFD4
:1043DA00DACFE6FF010EE66EBCEC55F0E552E55287
:1043EA00E552E552E76E020EE7CFDBFFDB5039E11B
:1043FA000701B45165E10501D75103E0020ED75D0B
:10440A0028E1DF50000821E2D75101E18D90DF0455
:10441A0003E18D848D82898C020EDF5C03E18D8439
:10442A008D82899C030EDF5C03E18D948D82899CC9
:10443A00040EDF5C03E18D848D92899C050EDF5C9E
:10444A0010E18D948D92899C0CD0D7510AE18D8010
:10445A0008D0D70506E1DF50000802E28C9201D0AD
:10446A008C82010EE66ED950010FE66E000EDA203C
:10447A00E66E010EE66EBCEC55F0E552E552E552E9
:10448A00E552E76E020EE7CFDBFFDB5017E10701CB
:10449A00B45116E10501D75108E1010EDB500008BD
:1044AA0002E28B920BD08B8209D0D70507E1010E6D
:1044BA00DB50000802E2899201D0898218EC4CF0A4
:1044CA00E552E552E552E552E5CFDAFFE7CFD9FFEB
:1044DA001200FE0E0501D95DFF0EDA59FF0EDB59F7
:1044EA00FF0EDC5905E2D92B000EDA23DB23DC238D
:1044FA0018EF4CF00501D951DA11DB11DC1105E096
:10450A00D907000EDA5BDB5BDC5B18EF4CF0D9CF26
:10451A00E6FFDACFE6FFE1CFD9FFE2CFDAFFE652D4
:10452A00E652E652E652E652E66AD9CFE6FFDACF1B
:10453A00E6FF070EE66EBCEC55F0E552E552E55291
:10454A00E552E76E040EE7CFDBFFDB500BE1DFCF6E
:10455A00D9F5010EDBCFDAF5020EDBCFDBF5030E60
:10456A00DBCFDCF518EC4CF0050EE15C02E2E16A07
:10457A00E552E16EE552E5CFDAFFE7CFD9FF120047
:10458A00D9C5E6FFDAC5E6FFDBC5E6FFDCC5E6FF0F
:10459A00BA0E006ED90E016E026A00C0E6FFE66E20
:1045AA0002C0E6FF1FEC79F0036E070EE15C02E23F
:1045BA00E16AE552E16E035018EF4CF0E66ADD0E4F
:1045CA00E66E050EE66E010EE66EBCEC55F0E5529F
:1045DA00E552E552E5520701B45101E0120018EF25
:1045EA004CF0DDC500F0016A00BE016800C0E6FFBC
:1045FA0001C0E6FFB30E026ED90E036E046A02C052
:10460A00E6FFE66E04C0E6FF1FEC79F0056E050EC4
:10461A00E15C02E2E16AE552E16E055018EF4CF006
:10462A00DEC500F0016A00BE016800C0E6FF01C0F5
:10463A00E6FFAD0E026ED90E036E046A02C0E6FFF3
:10464A00E66E04C0E6FF1FEC79F0056E050EE15C2C
:10465A0002E2E16AE552E16E05500501DE6B18EFF0
:10466A004CF09DBCFED716C1E6FF17C1E6FF00C19C
:10467A00E6FF01C1E6FFA10E006ED90E016E026AC5
:10468A0000C0E6FFE66E02C0E6FF1FEC79F0036E9B
:10469A00070EE15C02E2E16AE552E16E035018EFAF
:1046AA004CF0D9CFE6FFDACFE6FFE1CFD9FFE2CF70
:1046BA00DAFFE652E652E652E652E652DF6A010EA7
:1046CA00DB6A020EDB6A030EDB6AE66AD9CFE6FF13
:1046DA00DACFE6FF010EE66EBCEC55F0E552E55284
:1046EA00E552E552010EE66ED950010FE66E000E54
:1046FA00DA20E66E030EE66EBCEC55F0E552E552A2
:10470A00E552E552E76E040EE7CFDBFF010EE66ED7
:10471A00D950030FE66E000EDA20E66E010EE66E41
:10472A00BCEC55F0E552E552E552E5520701B451A9
:10473A0001E088D0D950010FE96E000EDA20EA6E46
:10474A00FF0ED880EE54030EED5407E2010EDB682B
:10475A00030EF36E020EF3CFDBFFDF50010802E215
:10476A00010EDF6E030EDB50010805E2010EF36E47
:10477A00030EF3CFDBFFDF0409E1040EDB5003086D
:10478A0005E10501E16B020EE26F06D0010EDBCFF7
:10479A00E1F5020EDBCFE2F5CAB415D0CB68FC0E08
:1047AA00CA140009CA6E9D920F0152815293F00EEB
:1047BA00BA140C09BA6E3F0EBA140009BA6E0E0189
:1047CA000E0ECC6FCA84030EDB502AE1DF5023E0C1
:1047DA00E1C500F0E2C501F0D89001320032D8906C
:1047EA00013200320050BB6EE1C502F0E2C503F0AF
:1047FA00040ED89002360336E804FBE1300E0216A6
:10480A00000E0316CF0EBA1400010210006E03C088
:10481A0001F0E85003D0BB6ACF0EBA14BA6E10D0BA
:10482A0005012751FDE0E1C559F5E2C55AF54E6B80
:10483A004F6B506B516BDFCF58F5040E346F276BFB
:10484A0018EC4CF0050EE15C02E2E16AE552E16E19
:10485A00E552E5CFDAFFE7CFD9FF12001200D9CF30
:10486A00E6FFDACFE6FFE1CFD9FFE2CFDAFF2B0E80
:10487A00E12402E3E168E652E16EDF6A010EDB6AD7
:10488A00020EDB6A030EDB6AF29E040E00C5DBFF32
:10489A00050E01C5DBFF060E02C5DBFF070E03C5C9
:1048AA00DBFF080E04C5DBFF090E05C5DBFF0A0E98
:1048BA0006C5DBFF0B0E07C5DBFF0C0E08C5DBFFC9
:1048CA000D0E09C5DBFF0E0E0AC5DBFF0F0E0BC569
:1048DA00DBFF100E0CC5DBFF110E0DC5DBFF120E40
:1048EA000EC5DBFF130E0FC5DBFF140E10C5DBFF71
:1048FA00150E11C5DBFF160E12C5DBFF170E13C509
:10490A00DBFF180E14C5DBFF190E15C5DBFF1A0EE7
:10491A0016C5DBFF1B0E17C5DBFF1C0E18C5DBFF18
:10492A001D0E19C5DBFF1E0E1AC5DBFF1F0E1BC5A8
:10493A00DBFF200E1CC5DBFF210E1DC5DBFF220E8F
:10494A001EC5DBFF230E1FC5DBFF240E20C5DBFFC0
:10495A00250E21C5DBFF260E22C5DBFF270E23C548
:10496A00DBFF280E24C5DBFF290E25C5DBFF2A0E37
:10497A0026C5DBFFF28E1E0EDBCF00F01F0EDBCF4B
:10498A0001F0200EDBCF02F0210EDBCF03F0005046
:10499A0001100210031002E0010EDF6E040EDB505C
:1049AA0002E0010EDF6E0501275106E1010EDF6EFE
:1049BA00F36E030EF3CFDBFFDF5014E0150EDBCFEF
:1049CA0000F0160EDBCF01F0170EDBCF02F0180E47
:1049DA00DBCF03F0005001100210031003E0DE5297
:1049EA00010EDD6EDF5016E0190EDBCF00F01A0E55
:1049FA00DBCF01F01B0EDBCF02F01C0EDBCF03F086
:104A0A00005001100210031005E0010EF36E020EB1
:104A1A00F3CFDBFF030EDBCFE6FFE66A020EDBCF46
:104A2A00E6FFE66A010EDBCFE6FFE66ADFCFE6FFC6
:104A3A00E66A900E006ED90E016E026A00C0E6FFA9
:104A4A00E66E02C0E6FF1FEC79F0036E0B0EE15C26
:104A5A0002E2E16AE552E16E03502B0EE15C02E2EA
:104A6A00E16AE552E16EE552E5CFDAFFE7CFD9FF19
:104A7A001200D9CFE6FFDACFE6FFE1CFD9FFE2CFC6
:104A8A00DAFF080EE12402E3E168E652E16EF29EE3
:104A9A0028C5DFFF010E29C5DBFF020E2AC5DBFF91
:104AAA00030E2BC5DBFF040E2CC5DBFF050E2DC53F
:104ABA00DBFF060E2EC5DBFF070E2FC5DBFFF28ECE
:104ACA00D950040FE96E000EDA20EA6EEECFE6FF47
:104ADA00EECFE6FFEECFE6FFEFCFE6FFD9CFE9FF55
:104AEA00DACFEAFFEECFE6FFEECFE6FFEECFE6FF44
:104AFA00EFCFE6FF860E006ED90E016E026A00C085
:104B0A00E6FFE66E02C0E6FF1FEC79F0036E0B0EBD
:104B1A00E15C02E2E16AE552E16E035018EC4CF006
:104B2A00080EE15C02E2E16AE552E16EE552E5CF88
:104B3A00DAFFE7CFD9FF1200F29E0501286B296B35
:104B4A002A6B2B6B2C6B2D6B2E6B2F6BF28E18EF47
:104B5A004CF00201000000000001320000000000D9
:104B6A000180004D00000002000000000000013238
:104B7A00000000000001A700FBFFDFFF015700EF64
:104B8A00FF0400014E00F2FF0700014C00F3FF088A
:104B9A0000014A00F5FF0A00014400F8FF0B00017A
:104BAA004800FAFF0D00014E00FCFF0F0001500003
:104BBA00FFFF100001320000000A00012E0002006F
:104BCA00090001330002000A00012D000400080058
:104BDA00012D0004000800012F0005000800013122
:104BEA000007000700012E00070006000132000836
:104BFA00000600013300090005000136000A00041E
:104C0A00000134000A0003000139000B000300010F
:104C1A003D000C0002000141000D000100014600A8
:104C2A000E0001000146000E00FFFF0141000D00C9
:104C3A00FFFF013D000C00FEFF013E000C00FDFFDE
:104C4A000139000B00FDFF0136000A00FCFF0133A9
:104C5A00000900FBFF0132000800FAFF01350008D5
:104C6A0000F9FF012E000600F9FF012E000600F9E7
:104C7A00FF012D000400F8FF012D000400F8FF01D8
:104C8A002E000200F7FF012E000200F7FF0132009A
:104C9A000000F6FF012D000000F7FF012E00FEFFC5
:104CAA00F7FF012900FEFFF8FF012B00FDFFF8FFC7
:104CBA00012F00FBFFF8FF012B00FBFFF9FF013179
:104CCA0000F9FFF9FF012E00F9FFFAFF013200F89F
:104CDA00FFFAFF013300F7FFFBFF013600F6FFFC86
:104CEA00FF013900F5FFFDFF013900F5FFFDFF0166
:104CFA003D00F4FFFEFF014100F3FFFFFF01460004
:104D0A00F2FFFFFF013200F6FF010001C6020000B8
:104D1A008E00015B00EEFFFEFF015100F0FFFDFF78
:104D2A00014800F3FFFAFF014100F5FFF9FF013CDA
:104D3A0000F7FFF8FF013A00FAFFF6FF013600FC20
:104D4A00FFF6FF013C00FFFFF4FF0128000100F815
:104D5A00FF0129000200F8FF0126000300F9FF0104
:104D6A002B000500F9FF012E000700FAFF012F00B2
:104D7A000800FBFF0133000900FBFF013F000C00A4
:104D8A00FCFF01000000000000020100000000001A
:104D9A000132000000000001CE003F006A0002005C
:104DAA0000000000000132000000000001120200B1
:104DBA000096FF0141000D000100013E000C0003B6
:104DCA00000134000A000300012F00080005000159
:104DDA0040000A000800013D0007000A00011B000C
:104DEA0002000500011B0002000500013C00010051
:104DFA000C00013700FFFF0B00012F00FDFF090027
:104E0A00013600FAFF0900013500F9FF0800013DEB
:104E1A0000F6FF0700013C00F5FF0500014400F31E
:104E2A00FF0400014600F2FF01000100000000003B
:104E3A000002010000000000013200000000000131
:104E4A00900164FF4AFF02000000000000013200E6
:104E5A000000000001A200FBFFE0FF012D00F7FFA8
:104E6A00FFFF012600F9FFFDFF011D00FBFFFDFF0B
:104E7A00012000FBFFFCFF012700FBFFFAFF012BCB
:104E8A0000FDFFF8FF012E00FEFFF7FF013200FFD1
:104E9A00FFF6FF0132000100F6FF0133000200F6BF
:104EAA00FF012B000300F8FF0127000500FAFF01AC
:104EBA002A000600FAFF012B000700FBFF012B0066
:104ECA000800FDFF012F000900FDFF01600013002B
:104EDA00FEFF019B001F000000012B00F9FF0500E7
:104EEA00012A00FAFF0600012700FBFF060001283D
:104EFA0000FCFF0700012400FCFF0600012400FE5D
:104F0A00FF0700012800FFFF0800012800FFFF0833
:104F1A0000012D0001000900012D00010009000116
:104F2A002F0003000900012D0004000800012800D9
:104F3A0004000700012E0006000700012E000700EA
:104F4A0006000132000800060001330009000500CE
:104F5A00013100090004000136000A00040001348E
:104F6A00000A000300016B0015000400017300171A
:104F7A00000100015000100000000151001000FE65
:104F8A00FF0148000E00FDFF014A000E00FBFF0171
:104F9A004A000E00FBFF0141000B00F9FF0140002F
:104FAA000A00F8FF0139000800F8FF013D00070078
:104FBA00F6FF013C000500F5FF0138000200F5FF8D
:104FCA000141000100F3FF0128000000F8FF012958
:104FDA0000FEFFF8FF012400FEFFF9FF012800FC94
:104FEA00FFF9FF012800FCFFF9FF012E00FAFFF983
:104FFA00FF012E00F9FFFAFF012B00F9FFFBFF0169
:10500A0087001B0000000196000000E2FF01DE039A
:10501A003AFF0000017D00E7FF0000016900EBFF95
:10502A000200015600EFFF0300014400F3FF0400F1
:10503A00013800F6FF0500013D00F6FF07000135C3
:10504A0000F8FF0700013D00F9FF0A00013A00FAE3
:10505A00FF0A00013F00FCFF0C00013D00FEFF0CAF
:10506A0000014600FFFF0E00015000010010000180
:10507A004E0004000F0001480006000D0001440024
:10508A0008000B00012000040005000127000600AB
:10509A0005000122000600030001260007000300A4
:1050AA00012400070002000129000800020001553E
:1050BA0000110001000100000000000002010000D0
:1050CA000000000132000000000001EA008A00E549
:1050DA00FF02000000000000013200000000000191
:1050EA006900EBFFFFFF015B00EEFFFDFF014F00D0
:1050FA00F1FFFBFF012200FAFFFDFF012200FAFF88
:10510A00FDFF013C00F7FFF8FF013900F9FFF7FF47
:10511A00013400FDFFF6FF013300FEFFF6FF013800
:10512A00000200F5FF0134000300F6FF0139000711
:10513A0000F7FF013C000900F8FF011D000500FD12
:10514A00FF0126000700FDFF014A000E00FBFF01D8
:10515A005B001200FDFF0164001400FFFF01640000
:10516A001400010001560011000300014F000F0056
:10517A0005000145000C000700013C000900080079
:10518A000139000700090001310004000900013754
:10519A000001000B00013200FFFF0A00013600FC8B
:1051AA00FF0A00013900F9FF0900013C00F7FF0876
:1051BA0000014300F4FF0600014A00F2FF05000166
:1051CA005600EFFF0300015F00EDFF010001000040
:1051DA00000000000201000000000001320000008F
:1051EA00000001770176FF4EFF0200000000000078
:1051FA000132000000000001A200FBFFE0FF012DC8
:10520A0000F7FFFFFF012600F9FFFDFF011D00FB6C
:10521A00FFFDFF012000FBFFFCFF012700FBFFFA57
:10522A00FF012B00FDFFF8FF012E00FEFFF7FF0133
:10523A003200FFFFF6FF0132000100F6FF013300E2
:10524A000200F6FF012B000300F8FF01270005000A
:10525A00FAFF012A000600FAFF012B000700FBFFF4
:10526A00012B000800FDFF012F000900FDFF01606E
:10527A00001300FEFF019B001F000000012B00F934
:10528A00FF0500012A00FAFF0600012700FBFF06BE
:10529A0000012400FCFF0600012800FCFF070001B2
:1052AA002400FEFF0700012800FFFF080001280074
:1052BA00FFFF0800012D0001000900012D00010077
:1052CA000900012F0003000900012800040007005B
:1052DA00012D0004000800012E0006000700012E1F
:1052EA000007000600013200080006000133000929
:1052FA00000500013100090004000136000A00041B
:10530A00000134000A000300016B001500040001CB
:10531A007300170001000150001000FFFF01500048
:10532A001000FFFF0148000E00FDFF014A000E00B9
:10533A00FBFF014A000E00FBFF0141000B00F9FFD1
:10534A000140000A00F8FF0139000800F8FF013D9A
:10535A00000700F6FF013C000500F5FF01380002D6
:10536A0000F5FF0141000100F3FF0128000000F8E9
:10537A00FF012900FEFFF8FF012400FEFFF9FF01EB
:10538A002800FCFFF9FF012800FCFFF9FF012E00AD
:10539A00FAFFF9FF012E00F9FFFAFF012B00F9FFCE
:1053AA00FBFF0187001B0000000196000000E2FFDE
:1053BA0001DE033AFF0000017D00E7FF00000169FA
:1053CA0000EBFF0200015600EFFF0300014400F367
:1053DA00FF0400013800F6FF0500013D00F6FF0753
:1053EA0000013500F8FF0700013D00F9FF0A00013E
:1053FA003A00FAFF0A00013F00FCFF0C00013D00E1
:10540A00FEFF0C00014600FFFF0E000150000100E4
:10541A001000014E0004000F0001480006000D00B4
:10542A0001440008000B00012000040005000124CB
:10543A0000060004000124000600040001260007FB
:10544A0000030001240007000200012900080002ED
:10545A0000015500110001000100000000000002D7
:10546A000100000000000132000000000001EA0013
:10547A008A00E5FF0200000000000001320000007F
:10548A000000016900EBFFFFFF015B00EEFFFDFF7B
:10549A00014F00F1FFFBFF012200FAFFFDFF01228D
:1054AA0000FAFFFDFF013C00F7FFF8FF013900F9A0
:1054BA00FFF7FF013400FDFFF6FF013800FEFFF59C
:1054CA00FF0133000200F6FF0134000300F6FF017A
:1054DA0039000700F7FF013C000900F8FF011D0031
:1054EA000500FDFF0128000700FCFF0149000E002E
:1054FA00FCFF015B001200FDFF0164001400FFFFC6
:10550A000164001400010001560011000300014F5C
:10551A00000F0005000145000C000700013C0009CE
:10552A0000080001390007000900013100040009E0
:10553A000001370001000B00013200FFFF0A0001E1
:10554A003600FCFF0A00013900F9FF0900013C009E
:10555A00F7FF0800014300F4FF0600014A00F2FFCA
:10556A000500015600EFFF0300015F00EDFF010097
:10557A0001000000000000020100000000000132EA
:10558A000000000000018D0189FF32FF02000000C7
:10559A000000000132000000000001960000001E19
:1055AA0000012C063C01000001A5000000DFFF01FC
:1055BA00300290FF0000012B000700FBFF012A00C8
:1055CA000600FAFF0127000500FAFF01270005007F
:1055DA00FAFF0126000300F9FF0124000200F9FF87
:1055EA000124000200F9FF0128000000F8FF012D44
:1055FA00000000F7FF012900FEFFF8FF012900FE65
:10560A00FFF8FF012D00FCFFF8FF012F00FBFFF858
:10561A00FF012B00FBFFF9FF012E00F9FFFAFF0142
:10562A002B00F9FFFBFF012F00F8FFFBFF01310000
:10563A00F7FFFCFF013600F6FFFCFF013400F6FF1E
:10564A00FDFF013900F5FFFDFF013C00F4FFFFFFFC
:10565A00017800E8FFFEFF014600F2FF0000014763
:10566A0000F2FF0200013D00F4FF0200013D00F4D8
:10567A00FF0200013B00F5FF0400013600F6FF04BB
:10568A0000013300F7FF0500013300F7FF050001B1
:10569A003100F9FF0700012E00F9FF0600012B0077
:1056AA00FBFF0700012B00FBFF0700012D00FCFF99
:1056BA000800012400FEFF0700012900FEFF080080
:1056CA00012D00000009000128000000080001293E
:1056DA00000200080001260003000700012600035B
:1056EA0000070001270005000600012A000600063F
:1056FA0000012E0007000600012F00080005000126
:10570A009100E3FF000002010000000000013200E6
:10571A000000000001C10074000000020000000047
:10572A00000001320000000000015F00EDFFFFFFF2
:10573A00015000F0FFFFFF014800F2FFFDFF0136B4
:10574A0000F6FFFCFF012800F9FFFCFF012700FA21
:10575A00FFFBFF012000FBFFFCFF012300FBFFFB17
:10576A00FF012200FDFFFAFF011B00FEFFFBFF0104
:10577A002000FEFFFAFF0123000000F9FF013200BA
:10578A000100F6FF0131000400F7FF0139000700AC
:10579A00F7FF0140000A00F8FF0145000C00F9FF7D
:1057AA000154001000FBFF0156001100FDFF0169C2
:1057BA00001500FFFF01690015000100015B0012DE
:1057CA00000300014F000F0005000122000600033C
:1057DA000001220006000300013C00090008000144
:1057EA0035000700080001360004000A00013200F3
:1057FA0001000A00013200FFFF0A00013600FCFF27
:10580A000A00013900F9FF0900014000F6FF08000B
:10581A00014300F4FF0600014F00F1FF05000156A5
:10582A0000EFFF0300016400ECFF0100010000002B
:10583A000000000201000000000001320000000028
:10584A0000011001FFFF5DFF0200000000000001DF
:10585A00320000000000014B000F00FFFF0146006C
:10586A000E00FFFF0148000E00FDFF013E000C0084
:10587A00FDFF013B000B00FCFF013C000B00FBFF9E
:10588A000136000900FAFF0135000800F9FF012A74
:10589A00000600FAFF012B000500F9FF01280004A9
:1058AA0000F9FF0128000400F9FF012B000300F8AA
:1058BA00FF0129000200F8FF0128000100F8FF019A
:1058CA002D000000F7FF0132000000F6FF012E0054
:1058DA00FEFFF7FF012E00FEFFF7FF012B00FDFF81
:1058EA00F8FF012F00FBFFF8FF012B00FBFFF9FF78
:1058FA00012E00FAFFF9FF013200F8FFFAFF013228
:10590A0000F8FFFAFF012F00F8FFFBFF013800F64D
:10591A00FFFBFF013400F6FFFDFF013900F5FFFD33
:10592A00FF013D00F4FFFEFF014100F3FFFFFF010D
:10593A004100F3FF0000016900EBFF000001600075
:10594A00EDFF0200015200F0FF0400014A00F2FFDD
:10595A000500014300F4FF0600013D00F6FF0700C1
:10596A00014000F7FF0900014000F8FF0A00013F6B
:10597A0000FAFF0B00013C00FBFF0B00013D00FE9B
:10598A00FF0C00013C00FFFF0C0001320000000A7E
:10599A0000012E0002000900012E00020009000188
:1059AA002D0004000800012D0004000800012F004A
:1059BA0005000800012E000700060001310007005B
:1059CA000700013200080006000133000900050043
:1059DA000136000A0004000134000A000300013EF7
:1059EA00000C000300013D000C0002000146000EFD
:1059FA000001000146000E00010001000000000045
:105A0A000002010000000000013200000000000155
:105A1A0039000000DEFF0200000000000001320031
:105A2A0000000000016900EBFFFFFF015B00EEFFD1
:105A3A00FDFF014F00F1FFFBFF012200FAFFFDFF0E
:105A4A00012400FAFFFCFF014000F6FFF8FF013DC8
:105A5A0000F9FFF6FF013600FCFFF6FF013C00FFEC
:105A6A00FFF4FF013C000100F4FF0136000400F6D8
:105A7A00FF013D000700F6FF0140000A00F8FF01A0
:105A8A0024000600FCFF0122000600FDFF0154006D
:105A9A001000FBFF015B001200FDFF016900150009
:105AAA00FFFF016400140001000156001100030009
:105ABA00014F000F00050001260007000300012026
:105ACA0000050004000143000A000900013900072B
:105ADA00000900013B0004000B0001370001000B24
:105AEA0000013C00FFFF0C00013600FCFF0A000128
:105AFA003D00F9FF0A00014000F6FF0800012000FE
:105B0A00FBFF0400012600F9FF0300014F00F1FF2B
:105B1A000500015B00EEFF0300016400ECFF0100D9
:105B2A000100000000000002010000000000013234
:105B3A00000000000001BC01B0FF02FF02000000EB
:105B4A000000000132000000000001AC00DEFFFB93
:105B5A00FF014300FDFF0D00013C00FFFF0C0001A7
:105B6A0028000100080001230001000700012400A9
